{
  "contractName": "Airdrop",
  "abi": [
    {
      "constant": true,
      "inputs": [],
      "name": "plotToken",
      "outputs": [
        {
          "name": "",
          "type": "address"
        }
      ],
      "payable": false,
      "stateMutability": "view",
      "type": "function"
    },
    {
      "constant": true,
      "inputs": [
        {
          "name": "",
          "type": "address"
        }
      ],
      "name": "userClaimed",
      "outputs": [
        {
          "name": "",
          "type": "bool"
        }
      ],
      "payable": false,
      "stateMutability": "view",
      "type": "function"
    },
    {
      "constant": true,
      "inputs": [],
      "name": "owner",
      "outputs": [
        {
          "name": "",
          "type": "address"
        }
      ],
      "payable": false,
      "stateMutability": "view",
      "type": "function"
    },
    {
      "constant": true,
      "inputs": [],
      "name": "endDate",
      "outputs": [
        {
          "name": "",
          "type": "uint256"
        }
      ],
      "payable": false,
      "stateMutability": "view",
      "type": "function"
    },
    {
      "constant": true,
      "inputs": [
        {
          "name": "",
          "type": "address"
        }
      ],
      "name": "userAllocated",
      "outputs": [
        {
          "name": "",
          "type": "uint256"
        }
      ],
      "payable": false,
      "stateMutability": "view",
      "type": "function"
    },
    {
      "constant": true,
      "inputs": [],
      "name": "remainingbudget",
      "outputs": [
        {
          "name": "",
          "type": "uint256"
        }
      ],
      "payable": false,
      "stateMutability": "view",
      "type": "function"
    },
    {
      "inputs": [
        {
          "name": "_plotToken",
          "type": "address"
        },
        {
          "name": "_bLotToken",
          "type": "address"
        },
        {
          "name": "_endDate",
          "type": "uint256"
        },
        {
          "name": "_budget",
          "type": "uint256"
        }
      ],
      "payable": false,
      "stateMutability": "nonpayable",
      "type": "constructor"
    },
    {
      "constant": false,
      "inputs": [
        {
          "name": "_userList",
          "type": "address[]"
        },
        {
          "name": "_amount",
          "type": "uint256[]"
        }
      ],
      "name": "airdropBLot",
      "outputs": [],
      "payable": false,
      "stateMutability": "nonpayable",
      "type": "function"
    },
    {
      "constant": false,
      "inputs": [],
      "name": "takeLeftOverPlot",
      "outputs": [],
      "payable": false,
      "stateMutability": "nonpayable",
      "type": "function"
    },
    {
      "constant": false,
      "inputs": [],
      "name": "claim",
      "outputs": [],
      "payable": false,
      "stateMutability": "nonpayable",
      "type": "function"
    },
    {
      "constant": false,
      "inputs": [
        {
          "name": "_newOwner",
          "type": "address"
        }
      ],
      "name": "tranferOwnership",
      "outputs": [],
      "payable": false,
      "stateMutability": "nonpayable",
      "type": "function"
    }
  ],
  "bytecode": "0x608060405234801561001057600080fd5b50604051608080610d3f8339810180604052608081101561003057600080fd5b50805160208201516040830151606090930151919290916001600160a01b0384166100bc57604080517f08c379a000000000000000000000000000000000000000000000000000000000815260206004820152601760248201527f43616e206e6f74206265206e756c6c2061646472657373000000000000000000604482015290519081900360640190fd5b6001600160a01b03831661013157604080517f08c379a000000000000000000000000000000000000000000000000000000000815260206004820152601760248201527f43616e206e6f74206265206e756c6c2061646472657373000000000000000000604482015290519081900360640190fd5b42821161019f57604080517f08c379a000000000000000000000000000000000000000000000000000000000815260206004820152601d60248201527f456e6420646174652063616e206e6f7420626520706173742074696d65000000604482015290519081900360640190fd5b600180546001600160a01b038087166001600160a01b03199283161792839055600080548783169084161780825560028054909416331790935560038690556004858155604080517f095ea7b3000000000000000000000000000000000000000000000000000000008152948416918501919091526024840186905251939091169263095ea7b3926044808201936020939283900390910190829087803b15801561024957600080fd5b505af115801561025d573d6000803e3d6000fd5b505050506040513d602081101561027357600080fd5b505050505050610ab7806102886000396000f3fe608060405234801561001057600080fd5b506004361061009e5760003560e01c8063969ff28111610066578063969ff28114610139578063c24a0f8b14610141578063c638c04d1461015b578063cc68d88b14610181578063e9beac0f146101895761009e565b8063161a226e146100a35780633b7fcdca146100c75780634e71d92d1461010157806383fc58b41461010b5780638da5cb5b14610131575b600080fd5b6100ab61024b565b604080516001600160a01b039092168252519081900360200190f35b6100ed600480360360208110156100dd57600080fd5b50356001600160a01b031661025a565b604080519115158252519081900360200190f35b61010961026f565b005b6101096004803603602081101561012157600080fd5b50356001600160a01b03166103d4565b6100ab6104a5565b6101096104b4565b610149610630565b60408051918252519081900360200190f35b6101496004803603602081101561017157600080fd5b50356001600160a01b0316610636565b610149610648565b6101096004803603604081101561019f57600080fd5b8101906020810181356401000000008111156101ba57600080fd5b8201836020820111156101cc57600080fd5b803590602001918460208302840111640100000000831117156101ee57600080fd5b91939092909160208101903564010000000081111561020c57600080fd5b82018360208201111561021e57600080fd5b8035906020019184602083028401116401000000008311171561024057600080fd5b50909250905061064e565b6001546001600160a01b031681565b60066020526000908152604090205460ff1681565b42600354116102c85760408051600160e51b62461bcd02815260206004820152601d60248201527f43616c6c61626c65206f6e6c79206265666f726520656e642064617465000000604482015290519081900360640190fd5b3360009081526006602052604090205460ff16156103305760408051600160e51b62461bcd02815260206004820152600f60248201527f416c726561647920636c61696d65640000000000000000000000000000000000604482015290519081900360640190fd5b336000818152600660209081526040808320805460ff19166001179055825460058352818420548251600160e01b6340c10f190281526004810196909652602486015290516001600160a01b0391909116936340c10f199360448083019493928390030190829087803b1580156103a657600080fd5b505af11580156103ba573d6000803e3d6000fd5b505050506040513d60208110156103d057600080fd5b5050565b6002546001600160a01b031633146104255760408051600160e51b62461bcd0281526020600482015260096024820152600160b91b682737ba1037bbb732b902604482015290519081900360640190fd5b6001600160a01b0381166104835760408051600160e51b62461bcd02815260206004820152601760248201527f43616e206e6f74206265206e756c6c2061646472657373000000000000000000604482015290519081900360640190fd5b600280546001600160a01b0319166001600160a01b0392909216919091179055565b6002546001600160a01b031681565b6002546001600160a01b031633146105055760408051600160e51b62461bcd0281526020600482015260096024820152600160b91b682737ba1037bbb732b902604482015290519081900360640190fd5b42600354111561055f5760408051600160e51b62461bcd02815260206004820152601c60248201527f43616c6c61626c65206f6e6c7920616674657220656e64206461746500000000604482015290519081900360640190fd5b60015460025460408051600160e01b6370a0823102815230600482015290516001600160a01b039384169363a9059cbb93169184916370a0823191602480820192602092909190829003018186803b1580156105ba57600080fd5b505afa1580156105ce573d6000803e3d6000fd5b505050506040513d60208110156105e457600080fd5b50516040805163ffffffff851660e01b81526001600160a01b03909316600484015260248301919091525160448083019260209291908290030181600087803b1580156103a657600080fd5b60035481565b60056020526000908152604090205481565b60045481565b6002546001600160a01b0316331461069f5760408051600160e51b62461bcd0281526020600482015260096024820152600160b91b682737ba1037bbb732b902604482015290519081900360640190fd5b8281146106f65760408051600160e51b62461bcd02815260206004820152601760248201527f53686f756c6420686176652073616d65206c656e677468000000000000000000604482015290519081900360640190fd5b426003541161074f5760408051600160e51b62461bcd02815260206004820152601d60248201527f43616c6c61626c65206f6e6c79206265666f726520656e642064617465000000604482015290519081900360640190fd5b6000805b8481101561094f5761078084848381811061076a57fe5b90506020020135836109c790919063ffffffff16565b9150600086868381811061079057fe5b905060200201356001600160a01b03166001600160a01b031614156107ff5760408051600160e51b62461bcd02815260206004820152601760248201527f43616e206e6f74206265206e756c6c2061646472657373000000000000000000604482015290519081900360640190fd5b600084848381811061080d57fe5b90506020020135116108695760408051600160e51b62461bcd02815260206004820152601260248201527f43616e206e6f7420616c6c6f6361746520300000000000000000000000000000604482015290519081900360640190fd5b6005600087878481811061087957fe5b905060200201356001600160a01b03166001600160a01b03166001600160a01b03168152602001908152602001600020546000146109015760408051600160e51b62461bcd02815260206004820152601660248201527f43616e20616c6c6f63617465206f6e6c79206f6e636500000000000000000000604482015290519081900360640190fd5b83838281811061090d57fe5b905060200201356005600088888581811061092457fe5b602090810292909201356001600160a01b031683525081019190915260400160002055600101610753565b508060045410156109aa5760408051600160e51b62461bcd02815260206004820152600d60248201527f4c696d6974206578636565647300000000000000000000000000000000000000604482015290519081900360640190fd5b6004546109bd908263ffffffff610a2b16565b6004555050505050565b600082820183811015610a245760408051600160e51b62461bcd02815260206004820152601b60248201527f536166654d6174683a206164646974696f6e206f766572666c6f770000000000604482015290519081900360640190fd5b9392505050565b600082821115610a855760408051600160e51b62461bcd02815260206004820152601e60248201527f536166654d6174683a207375627472616374696f6e206f766572666c6f770000604482015290519081900360640190fd5b5090039056fea165627a7a723058200a0bc9f24825671e068dfa76ba1064cabab29bc259074e74e457ab01782b18ae0029",
  "source": "pragma solidity 0.5.7;\n\nimport \"./PlotXToken.sol\";\nimport \"./external/openzeppelin-solidity/math/SafeMath.sol\";\nimport \"./external/openzeppelin-solidity/token/ERC20/ERC20.sol\";\n\ninterface IbLOTToken {\n  function mint(address account, uint256 amount) external returns (bool);\n}\n\ncontract Airdrop {\n\n  using SafeMath for uint256;\n  IbLOTToken bLotToken;\n  PlotXToken public plotToken;\n  address public owner;\n  uint public endDate;\n  uint public remainingbudget;\n\n  /// @dev mapping to maintain allocated tokens to each user\n  mapping(address => uint) public userAllocated;\n\n  /// @dev mapping to maintain if user have claimed or not\n  mapping(address => bool) public userClaimed;\n\n  /**\n     * @dev modifier that allows only the owner to execute the function\n     */\n  modifier onlyOwner() {\n    require(owner == msg.sender, \"Not owner\");\n        _;\n  }\n\n  /**     \n   * @dev Constructor     \n   * @param _plotToken The address of plot token       \n   * @param _bLotToken The address of BLot token   \n   * @param _endDate user can claim thier allocated amounts before this time.\n   * @param _budget total amount of BLot to be minted\n   */\n  constructor(address _plotToken, address _bLotToken, uint _endDate, uint _budget) public\n  {\n    require(_plotToken != address(0),\"Can not be null address\");\n    require(_bLotToken != address(0),\"Can not be null address\");\n    require(_endDate > now,\"End date can not be past time\");\n    plotToken = PlotXToken(_plotToken);\n    bLotToken = IbLOTToken(_bLotToken);\n    owner = msg.sender;\n    endDate = _endDate;\n    remainingbudget = _budget;\n    plotToken.approve(address(bLotToken), _budget);\n  }\n\n  /**\n   * @dev Allows owner to allocate Blot to user as mentioned in array.\n   * @param _userList The user addresses.\n   * @param _amount list of amount to be allocated to user list.\n   */\n  function airdropBLot(address[] calldata _userList, uint[] calldata _amount) external onlyOwner {\n\n    require(_userList.length == _amount.length,\"Should have same length\");\n    require(endDate > now, \"Callable only before end date\");\n    uint totalAmount=0;\n\n    for(uint i = 0; i < _userList.length; i++) {\n      totalAmount = totalAmount.add(_amount[i]);\n      require(_userList[i] != address(0), \"Can not be null address\");\n      require(_amount[i] > 0, \"Can not allocate 0\");\n      require(userAllocated[_userList[i]] == 0,\"Can allocate only once\"); \n      userAllocated[_userList[i]] = _amount[i];\n    }  \n    require(remainingbudget >= totalAmount, \"Limit exceeds\");\n    remainingbudget = remainingbudget.sub(totalAmount);\n  }\n\n  /**\n   * @dev Allows owner to take back left over plot token after end date.\n   */\n  function takeLeftOverPlot() external onlyOwner {\n    require(endDate <= now, \"Callable only after end date\");\n    plotToken.transfer(owner, plotToken.balanceOf(address(this)));\n  }\n\n  /**\n   * @dev Allows users to claim their allocated tokens.\n   * user should claim before end date.\n   */\n  function claim() external {\n    require(endDate > now, \"Callable only before end date\");\n    require(!userClaimed[msg.sender], \"Already claimed\");\n    userClaimed[msg.sender] = true;\n    bLotToken.mint(msg.sender, userAllocated[msg.sender]);\n  } \n\n  /**\n   * @dev Allows owner to transfer ownership to other address.\n   * @param _newOwner new owner address\n   */\n  function tranferOwnership(address _newOwner) external onlyOwner {\n    require(_newOwner != address(0), \"Can not be null address\");\n    owner = _newOwner;\n  }\n  \n}\n",
  "sourcePath": "/home/madan/Documents/PlotX/PlotxContract/contracts/Airdrop.sol",
  "compiler": {
    "name": "solc",
    "version": "0.5.7+commit.6da8b019.Emscripten.clang"
  },
  "schemaVersion": "3.3.2",
  "updatedAt": "2020-12-10T08:30:24.859Z",
  "devdoc": {
    "methods": {
      "airdropBLot(address[],uint256[])": {
        "details": "Allows owner to allocate Blot to user as mentioned in array.",
        "params": {
          "_amount": "list of amount to be allocated to user list.",
          "_userList": "The user addresses."
        }
      },
      "claim()": {
        "details": "Allows users to claim their allocated tokens. user should claim before end date."
      },
      "constructor": {
        "details": "Constructor     ",
        "params": {
          "_bLotToken": "The address of BLot token   ",
          "_budget": "total amount of BLot to be minted",
          "_endDate": "user can claim thier allocated amounts before this time.",
          "_plotToken": "The address of plot token       "
        }
      },
      "takeLeftOverPlot()": {
        "details": "Allows owner to take back left over plot token after end date."
      },
      "tranferOwnership(address)": {
        "details": "Allows owner to transfer ownership to other address.",
        "params": {
          "_newOwner": "new owner address"
        }
      }
    }
  },
  "userdoc": {
    "methods": {}
  }
}