{
  "contractName": "BLOT",
  "abi": [
    {
      "constant": true,
      "inputs": [],
      "name": "name",
      "outputs": [
        {
          "name": "",
          "type": "string"
        }
      ],
      "payable": false,
      "stateMutability": "view",
      "type": "function"
    },
    {
      "constant": true,
      "inputs": [],
      "name": "plotToken",
      "outputs": [
        {
          "name": "",
          "type": "address"
        }
      ],
      "payable": false,
      "stateMutability": "view",
      "type": "function"
    },
    {
      "constant": true,
      "inputs": [],
      "name": "decimals",
      "outputs": [
        {
          "name": "",
          "type": "uint8"
        }
      ],
      "payable": false,
      "stateMutability": "view",
      "type": "function"
    },
    {
      "constant": true,
      "inputs": [],
      "name": "operator",
      "outputs": [
        {
          "name": "",
          "type": "address"
        }
      ],
      "payable": false,
      "stateMutability": "view",
      "type": "function"
    },
    {
      "constant": true,
      "inputs": [],
      "name": "symbol",
      "outputs": [
        {
          "name": "",
          "type": "string"
        }
      ],
      "payable": false,
      "stateMutability": "view",
      "type": "function"
    },
    {
      "anonymous": false,
      "inputs": [
        {
          "indexed": true,
          "name": "account",
          "type": "address"
        }
      ],
      "name": "MinterAdded",
      "type": "event"
    },
    {
      "anonymous": false,
      "inputs": [
        {
          "indexed": true,
          "name": "account",
          "type": "address"
        }
      ],
      "name": "MinterRemoved",
      "type": "event"
    },
    {
      "anonymous": false,
      "inputs": [
        {
          "indexed": true,
          "name": "from",
          "type": "address"
        },
        {
          "indexed": true,
          "name": "to",
          "type": "address"
        },
        {
          "indexed": false,
          "name": "value",
          "type": "uint256"
        }
      ],
      "name": "Transfer",
      "type": "event"
    },
    {
      "constant": false,
      "inputs": [
        {
          "name": "_defaultMinter",
          "type": "address"
        }
      ],
      "name": "initiatebLOT",
      "outputs": [],
      "payable": false,
      "stateMutability": "nonpayable",
      "type": "function"
    },
    {
      "constant": false,
      "inputs": [],
      "name": "setMasterAddress",
      "outputs": [],
      "payable": false,
      "stateMutability": "nonpayable",
      "type": "function"
    },
    {
      "constant": false,
      "inputs": [
        {
          "name": "recipient",
          "type": "address"
        },
        {
          "name": "amount",
          "type": "uint256"
        }
      ],
      "name": "transfer",
      "outputs": [
        {
          "name": "",
          "type": "bool"
        }
      ],
      "payable": false,
      "stateMutability": "nonpayable",
      "type": "function"
    },
    {
      "constant": false,
      "inputs": [
        {
          "name": "account",
          "type": "address"
        },
        {
          "name": "amount",
          "type": "uint256"
        }
      ],
      "name": "mint",
      "outputs": [
        {
          "name": "",
          "type": "bool"
        }
      ],
      "payable": false,
      "stateMutability": "nonpayable",
      "type": "function"
    },
    {
      "constant": false,
      "inputs": [
        {
          "name": "_of",
          "type": "address"
        },
        {
          "name": "_to",
          "type": "address"
        },
        {
          "name": "amount",
          "type": "uint256"
        }
      ],
      "name": "convertToPLOT",
      "outputs": [],
      "payable": false,
      "stateMutability": "nonpayable",
      "type": "function"
    },
    {
      "constant": true,
      "inputs": [
        {
          "name": "account",
          "type": "address"
        }
      ],
      "name": "isMinter",
      "outputs": [
        {
          "name": "",
          "type": "bool"
        }
      ],
      "payable": false,
      "stateMutability": "view",
      "type": "function"
    },
    {
      "constant": false,
      "inputs": [
        {
          "name": "account",
          "type": "address"
        }
      ],
      "name": "addMinter",
      "outputs": [],
      "payable": false,
      "stateMutability": "nonpayable",
      "type": "function"
    },
    {
      "constant": false,
      "inputs": [],
      "name": "renounceMinter",
      "outputs": [],
      "payable": false,
      "stateMutability": "nonpayable",
      "type": "function"
    },
    {
      "constant": true,
      "inputs": [],
      "name": "totalSupply",
      "outputs": [
        {
          "name": "",
          "type": "uint256"
        }
      ],
      "payable": false,
      "stateMutability": "view",
      "type": "function"
    },
    {
      "constant": true,
      "inputs": [
        {
          "name": "account",
          "type": "address"
        }
      ],
      "name": "balanceOf",
      "outputs": [
        {
          "name": "",
          "type": "uint256"
        }
      ],
      "payable": false,
      "stateMutability": "view",
      "type": "function"
    }
  ],
  "bytecode": "0x608060405234801561001057600080fd5b5061104b806100206000396000f3fe608060405234801561001057600080fd5b50600436106100f55760003560e01c806370a0823111610097578063a9059cbb11610066578063a9059cbb14610281578063aa271e1a146102ad578063dd2ed6a7146102d3578063fac3603714610309576100f5565b806370a082311461022557806395d89b411461024b578063983b2d56146102535780639865027514610279576100f5565b8063313ce567116100d3578063313ce567146101b557806340c10f19146101d35780634b6199b014610213578063570ca7351461021d576100f5565b806306fdde03146100fa578063161a226e1461017757806318160ddd1461019b575b600080fd5b61010261032f565b6040805160208082528351818301528351919283929083019185019080838360005b8381101561013c578181015183820152602001610124565b50505050905090810190601f1680156101695780820380516001836020036101000a031916815260200191505b509250505060405180910390f35b61017f610368565b604080516001600160a01b039092168252519081900360200190f35b6101a3610377565b60408051918252519081900360200190f35b6101bd61037d565b6040805160ff9092168252519081900360200190f35b6101ff600480360360408110156101e957600080fd5b506001600160a01b038135169060200135610382565b604080519115158252519081900360200190f35b61021b6104b2565b005b61017f6106fb565b6101a36004803603602081101561023b57600080fd5b50356001600160a01b031661070a565b610102610725565b61021b6004803603602081101561026957600080fd5b50356001600160a01b0316610749565b61021b61079c565b6101ff6004803603604081101561029757600080fd5b506001600160a01b0381351690602001356107a7565b6101ff600480360360208110156102c357600080fd5b50356001600160a01b03166107fb565b61021b600480360360608110156102e957600080fd5b506001600160a01b03813581169160208101359091169060400135610813565b61021b6004803603602081101561031f57600080fd5b50356001600160a01b0316610954565b6040518060400160405280600f81526020017f506c6f7458426f6e7573546f6b656e000000000000000000000000000000000081525081565b6002546001600160a01b031681565b60055490565b601281565b600061038d336107fb565b6103cb57604051600160e51b62461bcd028152600401808060200182810382526030815260200180610f676030913960400191505060405180910390fd5b60025460408051600160e01b6323b872dd0281523360048201523060248201526044810185905290516001600160a01b03909216916323b872dd916064808201926020929091908290030181600087803b15801561042857600080fd5b505af115801561043c573d6000803e3d6000fd5b505050506040513d602081101561045257600080fd5b505161049f5760408051600160e51b62461bcd0281526020600482015260116024820152600160791b7022b93937b91034b7103a3930b739b332b902604482015290519081900360640190fd5b6104a9838361097a565b50600192915050565b6000309050806001600160a01b031663025313a26040518163ffffffff1660e01b815260040160206040518083038186803b1580156104f057600080fd5b505afa158015610504573d6000803e3d6000fd5b505050506040513d602081101561051a57600080fd5b50516001600160a01b0316331461057b5760408051600160e51b62461bcd02815260206004820152601a60248201527f53656e646572206973206e6f742070726f7879206f776e65722e000000000000604482015290519081900360640190fd5b6002546001600160a01b0316156105dc5760408051600160e51b62461bcd02815260206004820152601360248201527f416c726561647920496e697469616c697a656400000000000000000000000000604482015290519081900360640190fd5b6000339050806001600160a01b031663eaf2c4776040518163ffffffff1660e01b815260040160206040518083038186803b15801561061a57600080fd5b505afa15801561062e573d6000803e3d6000fd5b505050506040513d602081101561064457600080fd5b5051600280546001600160a01b0319166001600160a01b0392831617905560408051600160e31b6227050b028152600160f01b615443026004820152905191831691630138285891602480820192602092909190829003018186803b1580156106ac57600080fd5b505afa1580156106c0573d6000803e3d6000fd5b505050506040513d60208110156106d657600080fd5b5051600180546001600160a01b0319166001600160a01b039092169190911790555050565b6001546001600160a01b031681565b6001600160a01b031660009081526003602052604090205490565b604051806040016040528060058152602001600160da1b6418941313d50281525081565b610752336107fb565b61079057604051600160e51b62461bcd028152600401808060200182810382526030815260200180610f676030913960400191505060405180910390fd5b61079981610a6f565b50565b6107a533610ab7565b565b60006107b2336107fb565b6107f057604051600160e51b62461bcd028152600401808060200182810382526030815260200180610f676030913960400191505060405180910390fd5b6104a9338484610aff565b600061080d818363ffffffff610c4916565b92915050565b6001546001600160a01b031633146108755760408051600160e51b62461bcd02815260206004820152600d60248201527f4f6e6c79206f70657261746f7200000000000000000000000000000000000000604482015290519081900360640190fd5b61087f8382610cb3565b60025460408051600160e01b63a9059cbb0281526001600160a01b038581166004830152602482018590529151919092169163a9059cbb9160448083019260209291908290030181600087803b1580156108d857600080fd5b505af11580156108ec573d6000803e3d6000fd5b505050506040513d602081101561090257600080fd5b505161094f5760408051600160e51b62461bcd0281526020600482015260116024820152600160791b7022b93937b91034b7103a3930b739b332b902604482015290519081900360640190fd5b505050565b60045460ff161561096457600080fd5b6004805460ff1916600117905561079981610a6f565b6001600160a01b0382166109d85760408051600160e51b62461bcd02815260206004820152601f60248201527f45524332303a206d696e7420746f20746865207a65726f206164647265737300604482015290519081900360640190fd5b6005546109eb908263ffffffff610d9116565b6005556001600160a01b038216600090815260036020526040902054610a17908263ffffffff610d9116565b6001600160a01b03831660008181526003602090815260408083209490945583518581529351929391927fddf252ad1be2c89b69c2b068fc378daa952ba7f163c4a11628f55a4df523b3ef9281900390910190a35050565b610a8060008263ffffffff610df516565b6040516001600160a01b038216907f6ae172837ea30b801fbfcdd4108aa1d5bf8ff775444fd70256b44e6bf3dfc3f690600090a250565b610ac860008263ffffffff610e7916565b6040516001600160a01b038216907fe94479a9f7e1952cc78f2d6baab678adc1b772d936c6583def489e524cb6669290600090a250565b6001600160a01b038316610b4757604051600160e51b62461bcd028152600401808060200182810382526025815260200180610ffb6025913960400191505060405180910390fd5b6001600160a01b038216610b8f57604051600160e51b62461bcd028152600401808060200182810382526023815260200180610f446023913960400191505060405180910390fd5b6001600160a01b038316600090815260036020526040902054610bb8908263ffffffff610ee316565b6001600160a01b038085166000908152600360205260408082209390935590841681522054610bed908263ffffffff610d9116565b6001600160a01b0380841660008181526003602090815260409182902094909455805185815290519193928716927fddf252ad1be2c89b69c2b068fc378daa952ba7f163c4a11628f55a4df523b3ef92918290030190a3505050565b60006001600160a01b038216610c9357604051600160e51b62461bcd028152600401808060200182810382526022815260200180610fb86022913960400191505060405180910390fd5b506001600160a01b03166000908152602091909152604090205460ff1690565b6001600160a01b038216610cfb57604051600160e51b62461bcd028152600401808060200182810382526021815260200180610fda6021913960400191505060405180910390fd5b600554610d0e908263ffffffff610ee316565b6005556001600160a01b038216600090815260036020526040902054610d3a908263ffffffff610ee316565b6001600160a01b0383166000818152600360209081526040808320949094558351858152935191937fddf252ad1be2c89b69c2b068fc378daa952ba7f163c4a11628f55a4df523b3ef929081900390910190a35050565b600082820183811015610dee5760408051600160e51b62461bcd02815260206004820152601b60248201527f536166654d6174683a206164646974696f6e206f766572666c6f770000000000604482015290519081900360640190fd5b9392505050565b610dff8282610c49565b15610e545760408051600160e51b62461bcd02815260206004820152601f60248201527f526f6c65733a206163636f756e7420616c72656164792068617320726f6c6500604482015290519081900360640190fd5b6001600160a01b0316600090815260209190915260409020805460ff19166001179055565b610e838282610c49565b610ec157604051600160e51b62461bcd028152600401808060200182810382526021815260200180610f976021913960400191505060405180910390fd5b6001600160a01b0316600090815260209190915260409020805460ff19169055565b600082821115610f3d5760408051600160e51b62461bcd02815260206004820152601e60248201527f536166654d6174683a207375627472616374696f6e206f766572666c6f770000604482015290519081900360640190fd5b5090039056fe45524332303a207472616e7366657220746f20746865207a65726f20616464726573734d696e746572526f6c653a2063616c6c657220646f6573206e6f74206861766520746865204d696e74657220726f6c65526f6c65733a206163636f756e7420646f6573206e6f74206861766520726f6c65526f6c65733a206163636f756e7420697320746865207a65726f206164647265737345524332303a206275726e2066726f6d20746865207a65726f206164647265737345524332303a207472616e736665722066726f6d20746865207a65726f2061646472657373a165627a7a72305820b50424d6769eeff3169cb5510c980d4c829db4aab35f71a909f4073fe7369fae0029",
  "source": "/* Copyright (C) 2020 PlotX.io\n\n  This program is free software: you can redistribute it and/or modify\n    it under the terms of the GNU General Public License as published by\n    the Free Software Foundation, either version 3 of the License, or\n    (at your option) any later version.\n\n  This program is distributed in the hope that it will be useful,\n    but WITHOUT ANY WARRANTY; without even the implied warranty of\n    MERCHANTABILITY or FITNESS FOR A PARTICULAR PURPOSE.  See the\n    GNU General Public License for more details.\n\n  You should have received a copy of the GNU General Public License\n    along with this program.  If not, see http://www.gnu.org/licenses/ */\n\npragma solidity 0.5.7;\n\nimport \"./external/openzeppelin-solidity/token/ERC20/ERC20.sol\";\nimport \"./external/openzeppelin-solidity/access/Roles.sol\";\nimport \"./external/proxy/OwnedUpgradeabilityProxy.sol\";\nimport \"./interfaces/IMaster.sol\";\nimport \"./interfaces/Iupgradable.sol\";\n\ncontract BLOT is Iupgradable {\n    using SafeMath for uint256;\n    using Roles for Roles.Role;\n\n    string public constant name = \"PlotXBonusToken\";\n    string public constant symbol = \"bPLOT\";\n    uint8 public constant decimals = 18;\n\n    Roles.Role private _minters;\n\n    address public operator;\n    address public plotToken;\n\n    event MinterAdded(address indexed account);\n    event MinterRemoved(address indexed account);\n\n    mapping (address => uint256) internal _balances;\n\n    bool private initiated;\n    uint256 private _totalSupply;\n\n    /**\n     * @dev Emitted when `value` tokens are moved from one account (`from`) to\n     * another (`to`).\n     *\n     * Note that `value` may be zero.\n     */\n    event Transfer(address indexed from, address indexed to, uint256 value);\n\n    /**\n     * @dev Checks if msg.sender is token operator address.\n     */\n    modifier onlyOperator() {\n        require(msg.sender == operator, \"Only operator\");\n        _;\n    }\n\n    modifier onlyMinter() {\n        require(\n            isMinter(msg.sender),\n            \"MinterRole: caller does not have the Minter role\"\n        );\n        _;\n    }\n\n    /**\n     * @dev Initiates the BLOT with default minter address\n     */\n    function initiatebLOT(address _defaultMinter) public {\n        require(!initiated);\n        initiated = true;\n        _addMinter(_defaultMinter);\n    }\n\n    /**\n     * @dev Changes the master address and update it's instance\n     */\n    function setMasterAddress() public {\n        OwnedUpgradeabilityProxy proxy = OwnedUpgradeabilityProxy(\n            address(uint160(address(this)))\n        );\n        require(msg.sender == proxy.proxyOwner(), \"Sender is not proxy owner.\");\n        require(plotToken == address(0), \"Already Initialized\");\n        IMaster ms = IMaster(msg.sender);\n        plotToken = ms.dAppToken();\n        operator = ms.getLatestAddress(\"TC\");\n    }\n\n    /**\n     * @dev See `IERC20.transfer`.\n     *\n     * Requirements:\n     *\n     * - `recipient` cannot be the zero address.\n     * - the caller must have a balance of at least `amount`.\n     * Transfer is restricted to minter only\n     */\n    function transfer(address recipient, uint256 amount)\n        public\n        onlyMinter\n        returns (bool)\n    {\n        _transfer(msg.sender, recipient, amount);\n        return true;\n    }\n\n    /**\n     * @dev Moves tokens `amount` from `sender` to `recipient`.\n     *\n     * This is internal function is equivalent to `transfer`, and can be used to\n     * e.g. implement automatic token fees, slashing mechanisms, etc.\n     *\n     * Emits a `Transfer` event.\n     *\n     * Requirements:\n     *\n     * - `sender` cannot be the zero address.\n     * - `recipient` cannot be the zero address.\n     * - `sender` must have a balance of at least `amount`.\n     */\n    function _transfer(\n        address sender,\n        address recipient,\n        uint256 amount\n    ) internal {\n        require(sender != address(0), \"ERC20: transfer from the zero address\");\n        require(recipient != address(0), \"ERC20: transfer to the zero address\");\n\n        _balances[sender] = _balances[sender].sub(amount);\n        _balances[recipient] = _balances[recipient].add(amount);\n        emit Transfer(sender, recipient, amount);\n    }\n\n    /**\n     * @dev See `ERC20._mint`.\n     *\n     * Requirements:\n     *\n     * - the caller must have the `MinterRole`.\n     * - equivalant number of PLOT will be transferred from sender to this contract\n     */\n    function mint(address account, uint256 amount)\n        public\n        onlyMinter\n        returns (bool)\n    {\n        require(\n            IERC20(plotToken).transferFrom(msg.sender, address(this), amount),\n            \"Error in transfer\"\n        );\n        _mint(account, amount);\n        return true;\n    }\n\n    /** @dev Creates `amount` tokens and assigns them to `account`, increasing\n     * the total supply.\n     *\n     * Emits a `Transfer` event with `from` set to the zero address.\n     *\n     * Requirements\n     *\n     * - `to` cannot be the zero address.\n     */\n    function _mint(address account, uint256 amount) internal {\n        require(account != address(0), \"ERC20: mint to the zero address\");\n\n        _totalSupply = _totalSupply.add(amount);\n        _balances[account] = _balances[account].add(amount);\n        emit Transfer(address(0), account, amount);\n    }\n\n    /**\n     * @dev Destroys `amount` tokens from the caller.\n     *\n     * See `ERC20._burn`.\n     */\n    function convertToPLOT(\n        address _of,\n        address _to,\n        uint256 amount\n    ) public onlyOperator {\n        _burn(_of, amount);\n        require(IERC20(plotToken).transfer(_to, amount), \"Error in transfer\");\n    }\n\n    /**\n     * @dev Destoys `amount` tokens from `account`, reducing the\n     * total supply.\n     *\n     * Emits a `Transfer` event with `to` set to the zero address.\n     *\n     * Requirements\n     *\n     * - `account` cannot be the zero address.\n     * - `account` must have at least `amount` tokens.\n     */\n    function _burn(address account, uint256 value) internal {\n        require(account != address(0), \"ERC20: burn from the zero address\");\n\n        _totalSupply = _totalSupply.sub(value);\n        _balances[account] = _balances[account].sub(value);\n        emit Transfer(account, address(0), value);\n    }\n\n    /**\n     * @dev Check if `account` has minting rights\n     */\n    function isMinter(address account) public view returns (bool) {\n        return _minters.has(account);\n    }\n\n    /**\n     * @dev Add `account` as minter\n     */\n    function addMinter(address account) public onlyMinter {\n        _addMinter(account);\n    }\n\n    /**\n     * @dev Renounce self as minter\n     */\n    function renounceMinter() public {\n        _removeMinter(msg.sender);\n    }\n\n    /**\n     * @dev Add `account` as minter\n     */\n    function _addMinter(address account) internal {\n        _minters.add(account);\n        emit MinterAdded(account);\n    }\n\n    /**\n     * @dev Remove `account` from minter role\n     */\n    function _removeMinter(address account) internal {\n        _minters.remove(account);\n        emit MinterRemoved(account);\n    }\n\n    /**\n     * @dev See `IERC20.totalSupply`.\n     */\n    function totalSupply() public view returns (uint256) {\n        return _totalSupply;\n    }\n\n    /**\n     * @dev See `IERC20.balanceOf`.\n     */\n    function balanceOf(address account) public view returns (uint256) {\n        return _balances[account];\n    }\n\n}\n",
  "sourcePath": "/home/madan/Documents/PlotX/PlotxContract/contracts/bLOTToken.sol",
  "compiler": {
    "name": "solc",
    "version": "0.5.7+commit.6da8b019.Emscripten.clang"
  },
  "schemaVersion": "3.3.2",
  "updatedAt": "2020-12-10T08:39:39.308Z",
  "networkType": "ethereum",
  "devdoc": {
    "methods": {
      "addMinter(address)": {
        "details": "Add `account` as minter"
      },
      "balanceOf(address)": {
        "details": "See `IERC20.balanceOf`."
      },
      "convertToPLOT(address,address,uint256)": {
        "details": "Destroys `amount` tokens from the caller.     * See `ERC20._burn`."
      },
      "initiatebLOT(address)": {
        "details": "Initiates the BLOT with default minter address"
      },
      "isMinter(address)": {
        "details": "Check if `account` has minting rights"
      },
      "mint(address,uint256)": {
        "details": "See `ERC20._mint`.     * Requirements:     * - the caller must have the `MinterRole`. - equivalant number of PLOT will be transferred from sender to this contract"
      },
      "renounceMinter()": {
        "details": "Renounce self as minter"
      },
      "setMasterAddress()": {
        "details": "Changes the master address and update it's instance"
      },
      "totalSupply()": {
        "details": "See `IERC20.totalSupply`."
      },
      "transfer(address,uint256)": {
        "details": "See `IERC20.transfer`.     * Requirements:     * - `recipient` cannot be the zero address. - the caller must have a balance of at least `amount`. Transfer is restricted to minter only"
      }
    }
  },
  "userdoc": {
    "methods": {}
  }
}