{
  "contractName": "DummyMockMarket",
  "abi": [
    {
      "constant": false,
      "inputs": [
        {
          "name": "userAddress",
          "type": "address"
        },
        {
          "name": "functionSignature",
          "type": "bytes"
        },
        {
          "name": "sigR",
          "type": "bytes32"
        },
        {
          "name": "sigS",
          "type": "bytes32"
        },
        {
          "name": "sigV",
          "type": "uint8"
        }
      ],
      "name": "executeMetaTransaction",
      "outputs": [
        {
          "name": "",
          "type": "bytes"
        }
      ],
      "payable": true,
      "stateMutability": "payable",
      "type": "function"
    },
    {
      "constant": true,
      "inputs": [
        {
          "name": "_user",
          "type": "address"
        }
      ],
      "name": "getReturn",
      "outputs": [
        {
          "name": "returnAmount",
          "type": "uint256[]"
        },
        {
          "name": "_predictionAssets",
          "type": "address[]"
        },
        {
          "name": "incentive",
          "type": "uint256"
        },
        {
          "name": "_incentiveToken",
          "type": "address"
        }
      ],
      "payable": false,
      "stateMutability": "view",
      "type": "function"
    },
    {
      "constant": false,
      "inputs": [
        {
          "name": "_token",
          "type": "address"
        },
        {
          "name": "_value",
          "type": "uint256"
        }
      ],
      "name": "sponsorIncentives",
      "outputs": [],
      "payable": false,
      "stateMutability": "nonpayable",
      "type": "function"
    },
    {
      "constant": true,
      "inputs": [],
      "name": "marketCoolDownTime",
      "outputs": [
        {
          "name": "",
          "type": "uint256"
        }
      ],
      "payable": false,
      "stateMutability": "view",
      "type": "function"
    },
    {
      "constant": true,
      "inputs": [],
      "name": "_msgSender",
      "outputs": [
        {
          "name": "sender",
          "type": "address"
        }
      ],
      "payable": false,
      "stateMutability": "view",
      "type": "function"
    },
    {
      "constant": false,
      "inputs": [
        {
          "name": "_user",
          "type": "address"
        }
      ],
      "name": "claimReturn",
      "outputs": [
        {
          "name": "",
          "type": "uint256"
        }
      ],
      "payable": false,
      "stateMutability": "nonpayable",
      "type": "function"
    },
    {
      "constant": true,
      "inputs": [],
      "name": "getMarketFeedData",
      "outputs": [
        {
          "name": "",
          "type": "uint8"
        },
        {
          "name": "",
          "type": "bytes32"
        },
        {
          "name": "",
          "type": "address"
        }
      ],
      "payable": false,
      "stateMutability": "view",
      "type": "function"
    },
    {
      "constant": true,
      "inputs": [
        {
          "name": "user",
          "type": "address"
        }
      ],
      "name": "getNonce",
      "outputs": [
        {
          "name": "nonce",
          "type": "uint256"
        }
      ],
      "payable": false,
      "stateMutability": "view",
      "type": "function"
    },
    {
      "constant": true,
      "inputs": [],
      "name": "getData",
      "outputs": [
        {
          "name": "_marketCurrency",
          "type": "bytes32"
        },
        {
          "name": "minvalue",
          "type": "uint256[]"
        },
        {
          "name": "maxvalue",
          "type": "uint256[]"
        },
        {
          "name": "_optionPrice",
          "type": "uint256[]"
        },
        {
          "name": "_ethStaked",
          "type": "uint256[]"
        },
        {
          "name": "_plotStaked",
          "type": "uint256[]"
        },
        {
          "name": "_predictionTime",
          "type": "uint256"
        },
        {
          "name": "_expireTime",
          "type": "uint256"
        },
        {
          "name": "_predictionStatus",
          "type": "uint256"
        }
      ],
      "payable": false,
      "stateMutability": "view",
      "type": "function"
    },
    {
      "constant": true,
      "inputs": [],
      "name": "getTotalStakedValueInPLOT",
      "outputs": [
        {
          "name": "",
          "type": "uint256"
        }
      ],
      "payable": false,
      "stateMutability": "view",
      "type": "function"
    },
    {
      "constant": true,
      "inputs": [],
      "name": "getChainID",
      "outputs": [
        {
          "name": "",
          "type": "uint256"
        }
      ],
      "payable": false,
      "stateMutability": "pure",
      "type": "function"
    },
    {
      "constant": true,
      "inputs": [
        {
          "name": "owner",
          "type": "address"
        },
        {
          "name": "nonce",
          "type": "uint256"
        },
        {
          "name": "chainID",
          "type": "uint256"
        },
        {
          "name": "functionSignature",
          "type": "bytes"
        },
        {
          "name": "sigR",
          "type": "bytes32"
        },
        {
          "name": "sigS",
          "type": "bytes32"
        },
        {
          "name": "sigV",
          "type": "uint8"
        }
      ],
      "name": "verify",
      "outputs": [
        {
          "name": "",
          "type": "bool"
        }
      ],
      "payable": false,
      "stateMutability": "view",
      "type": "function"
    },
    {
      "constant": true,
      "inputs": [
        {
          "name": "_prediction",
          "type": "uint256"
        }
      ],
      "name": "getOptionPrice",
      "outputs": [
        {
          "name": "",
          "type": "uint256"
        }
      ],
      "payable": false,
      "stateMutability": "view",
      "type": "function"
    },
    {
      "constant": false,
      "inputs": [
        {
          "name": "_startTime",
          "type": "uint64"
        },
        {
          "name": "_predictionTime",
          "type": "uint64"
        },
        {
          "name": "_minValue",
          "type": "uint64"
        },
        {
          "name": "_maxValue",
          "type": "uint64"
        }
      ],
      "name": "initiate",
      "outputs": [],
      "payable": true,
      "stateMutability": "payable",
      "type": "function"
    },
    {
      "constant": false,
      "inputs": [
        {
          "name": "proposedValue",
          "type": "uint256"
        },
        {
          "name": "proposalTitle",
          "type": "string"
        },
        {
          "name": "description",
          "type": "string"
        },
        {
          "name": "solutionHash",
          "type": "string"
        }
      ],
      "name": "raiseDispute",
      "outputs": [],
      "payable": false,
      "stateMutability": "nonpayable",
      "type": "function"
    },
    {
      "constant": false,
      "inputs": [
        {
          "name": "accepted",
          "type": "bool"
        },
        {
          "name": "finalResult",
          "type": "uint256"
        }
      ],
      "name": "resolveDispute",
      "outputs": [],
      "payable": true,
      "stateMutability": "payable",
      "type": "function"
    },
    {
      "constant": true,
      "inputs": [],
      "name": "marketSettleData",
      "outputs": [
        {
          "name": "WinningOption",
          "type": "uint64"
        },
        {
          "name": "settleTime",
          "type": "uint64"
        }
      ],
      "payable": false,
      "stateMutability": "view",
      "type": "function"
    },
    {
      "constant": true,
      "inputs": [
        {
          "name": "_user",
          "type": "address"
        }
      ],
      "name": "getUserFlags",
      "outputs": [
        {
          "name": "",
          "type": "bool"
        },
        {
          "name": "",
          "type": "bool"
        }
      ],
      "payable": false,
      "stateMutability": "view",
      "type": "function"
    },
    {
      "constant": true,
      "inputs": [
        {
          "name": "_prediction",
          "type": "uint256"
        },
        {
          "name": "_stakeValueInEth",
          "type": "uint256"
        },
        {
          "name": "_leverage",
          "type": "uint256"
        }
      ],
      "name": "estimatePredictionValue",
      "outputs": [
        {
          "name": "_predictionValue",
          "type": "uint256"
        }
      ],
      "payable": false,
      "stateMutability": "view",
      "type": "function"
    },
    {
      "constant": true,
      "inputs": [],
      "name": "mockFlag",
      "outputs": [
        {
          "name": "",
          "type": "bool"
        }
      ],
      "payable": false,
      "stateMutability": "view",
      "type": "function"
    },
    {
      "constant": true,
      "inputs": [],
      "name": "getMarketResults",
      "outputs": [
        {
          "name": "",
          "type": "uint256"
        },
        {
          "name": "",
          "type": "uint256"
        },
        {
          "name": "",
          "type": "uint256[]"
        },
        {
          "name": "",
          "type": "uint256"
        },
        {
          "name": "",
          "type": "uint256"
        }
      ],
      "payable": false,
      "stateMutability": "view",
      "type": "function"
    },
    {
      "constant": false,
      "inputs": [],
      "name": "settleMarket",
      "outputs": [],
      "payable": false,
      "stateMutability": "nonpayable",
      "type": "function"
    },
    {
      "constant": true,
      "inputs": [],
      "name": "marketSettleTime",
      "outputs": [
        {
          "name": "",
          "type": "uint64"
        }
      ],
      "payable": false,
      "stateMutability": "view",
      "type": "function"
    },
    {
      "constant": false,
      "inputs": [
        {
          "name": "_asset",
          "type": "address"
        },
        {
          "name": "_predictionStake",
          "type": "uint256"
        },
        {
          "name": "_prediction",
          "type": "uint256"
        },
        {
          "name": "_leverage",
          "type": "uint256"
        }
      ],
      "name": "placePrediction",
      "outputs": [],
      "payable": true,
      "stateMutability": "payable",
      "type": "function"
    },
    {
      "constant": true,
      "inputs": [],
      "name": "marketData",
      "outputs": [
        {
          "name": "startTime",
          "type": "uint64"
        },
        {
          "name": "predictionTime",
          "type": "uint64"
        },
        {
          "name": "neutralMinValue",
          "type": "uint64"
        },
        {
          "name": "neutralMaxValue",
          "type": "uint64"
        }
      ],
      "payable": false,
      "stateMutability": "view",
      "type": "function"
    },
    {
      "constant": true,
      "inputs": [],
      "name": "getTotalAssetsStaked",
      "outputs": [
        {
          "name": "ethStaked",
          "type": "uint256"
        },
        {
          "name": "plotStaked",
          "type": "uint256"
        }
      ],
      "payable": false,
      "stateMutability": "view",
      "type": "function"
    },
    {
      "constant": true,
      "inputs": [],
      "name": "marketCurrency",
      "outputs": [
        {
          "name": "",
          "type": "bytes32"
        }
      ],
      "payable": false,
      "stateMutability": "view",
      "type": "function"
    },
    {
      "constant": true,
      "inputs": [
        {
          "name": "",
          "type": "uint256"
        }
      ],
      "name": "optionsAvailable",
      "outputs": [
        {
          "name": "predictionPoints",
          "type": "uint256"
        }
      ],
      "payable": false,
      "stateMutability": "view",
      "type": "function"
    },
    {
      "constant": true,
      "inputs": [
        {
          "name": "_user",
          "type": "address"
        },
        {
          "name": "_option",
          "type": "uint256"
        }
      ],
      "name": "getUserPredictionPoints",
      "outputs": [
        {
          "name": "",
          "type": "uint256"
        }
      ],
      "payable": false,
      "stateMutability": "view",
      "type": "function"
    },
    {
      "anonymous": false,
      "inputs": [
        {
          "indexed": false,
          "name": "userAddress",
          "type": "address"
        },
        {
          "indexed": false,
          "name": "relayerAddress",
          "type": "address"
        },
        {
          "indexed": false,
          "name": "functionSignature",
          "type": "bytes"
        }
      ],
      "name": "MetaTransactionExecuted",
      "type": "event"
    },
    {
      "constant": false,
      "inputs": [
        {
          "name": "_flag",
          "type": "bool"
        }
      ],
      "name": "setMockPriceFlag",
      "outputs": [],
      "payable": false,
      "stateMutability": "nonpayable",
      "type": "function"
    },
    {
      "constant": true,
      "inputs": [],
      "name": "dummyFunction",
      "outputs": [
        {
          "name": "",
          "type": "uint256"
        }
      ],
      "payable": false,
      "stateMutability": "view",
      "type": "function"
    },
    {
      "constant": false,
      "inputs": [
        {
          "name": "_value",
          "type": "uint256"
        }
      ],
      "name": "calculatePredictionResult",
      "outputs": [],
      "payable": false,
      "stateMutability": "nonpayable",
      "type": "function"
    }
  ],
  "bytecode": "0x608060405234801561001057600080fd5b5061422c806100206000396000f3fe6080604052600436106101e35760003560e01c806377c245771161010257806385970c6611610095578063ca03227411610064578063ca03227414610cab578063ddf8389b14610cd9578063e217eb9d14610cee578063ff0fd72a14610d18576101e3565b806385970c6614610be4578063a12a509914610bf9578063ae1ff39b14610c2a578063b945b52714610c62576101e3565b80637dafb4c0116100d15780637dafb4c014610b185780637ec9d81f14610b4e57806381d3b3c214610b63578063853b844714610b78576101e3565b806377c2457714610a3e5780637852d19d14610a635780637ca3254514610a9e5780637cb464eb14610aca576101e3565b80633bc5de301161017a5780636281133d116101495780636281133d1461072557806368a4b271146108145780636b592cf61461083e57806374bd0d021461087c576101e3565b80633bc5de301461053857806343da750f146106d15780634abd2a37146106e6578063564b81ef14610710576101e3565b8063119df25f116101b6578063119df25f146104615780631ec0fd501461049257806324569133146104c55780632d0335ab14610505576101e3565b80630c53c51c146101e85780630cc9a6061461031f5780630fe5aca4146103ff5780630ff2f99f1461043a575b600080fd5b6102aa600480360360a08110156101fe57600080fd5b6001600160a01b038235169190810190604081016020820135600160201b81111561022857600080fd5b82018360208201111561023a57600080fd5b803590602001918460018302840111600160201b8311171561025b57600080fd5b91908080601f016020809104026020016040519081016040528093929190818152602001838380828437600092019190915250929550508235935050506020810135906040013560ff16610d51565b6040805160208082528351818301528351919283929083019185019080838360005b838110156102e45781810151838201526020016102cc565b50505050905090810190601f1680156103115780820380516001836020036101000a031916815260200191505b509250505060405180910390f35b34801561032b57600080fd5b506103526004803603602081101561034257600080fd5b50356001600160a01b0316611063565b604080519081018390526001600160a01b038216606082015260808082528551908201528451819060208083019160a0840191898101910280838360005b838110156103a8578181015183820152602001610390565b50505050905001838103825286818151815260200191508051906020019060200280838360005b838110156103e75781810151838201526020016103cf565b50505050905001965050505050505060405180910390f35b34801561040b57600080fd5b506104386004803603604081101561042257600080fd5b506001600160a01b0381351690602001356111da565b005b34801561044657600080fd5b5061044f6113b9565b60408051918252519081900360200190f35b34801561046d57600080fd5b506104766113fd565b604080516001600160a01b039092168252519081900360200190f35b34801561049e57600080fd5b5061044f600480360360208110156104b557600080fd5b50356001600160a01b031661145c565b3480156104d157600080fd5b506104da61170a565b6040805160ff909416845260208401929092526001600160a01b031682820152519081900360600190f35b34801561051157600080fd5b5061044f6004803603602081101561052857600080fd5b50356001600160a01b0316611735565b34801561054457600080fd5b5061054d611750565b604051808a8152602001806020018060200180602001806020018060200189815260200188815260200187815260200186810386528e818151815260200191508051906020019060200280838360005b838110156105b557818101518382015260200161059d565b5050505090500186810385528d818151815260200191508051906020019060200280838360005b838110156105f45781810151838201526020016105dc565b5050505090500186810384528c818151815260200191508051906020019060200280838360005b8381101561063357818101518382015260200161061b565b5050505090500186810383528b818151815260200191508051906020019060200280838360005b8381101561067257818101518382015260200161065a565b5050505090500186810382528a818151815260200191508051906020019060200280838360005b838110156106b1578181015183820152602001610699565b505050509050019e50505050505050505050505050505060405180910390f35b3480156106dd57600080fd5b5061044f611a04565b3480156106f257600080fd5b506104386004803603602081101561070957600080fd5b5035611ac5565b34801561071c57600080fd5b5061044f611ad3565b34801561073157600080fd5b50610800600480360360e081101561074857600080fd5b6001600160a01b038235169160208101359160408201359190810190608081016060820135600160201b81111561077e57600080fd5b82018360208201111561079057600080fd5b803590602001918460018302840111600160201b831117156107b157600080fd5b91908080601f016020809104026020016040519081016040528093929190818152602001838380828437600092019190915250929550508235935050506020810135906040013560ff16611ad8565b604080519115158252519081900360200190f35b34801561082057600080fd5b5061044f6004803603602081101561083757600080fd5b5035611c66565b6104386004803603608081101561085457600080fd5b506001600160401b038135811691602081013582169160408201358116916060013516611ef6565b34801561088857600080fd5b506104386004803603608081101561089f57600080fd5b81359190810190604081016020820135600160201b8111156108c057600080fd5b8201836020820111156108d257600080fd5b803590602001918460018302840111600160201b831117156108f357600080fd5b91908080601f0160208091040260200160405190810160405280939291908181526020018383808284376000920191909152509295949360208101935035915050600160201b81111561094557600080fd5b82018360208201111561095757600080fd5b803590602001918460018302840111600160201b8311171561097857600080fd5b91908080601f0160208091040260200160405190810160405280939291908181526020018383808284376000920191909152509295949360208101935035915050600160201b8111156109ca57600080fd5b8201836020820111156109dc57600080fd5b803590602001918460018302840111600160201b831117156109fd57600080fd5b91908080601f0160208091040260200160405190810160405280939291908181526020018383808284376000920191909152509295506120cc945050505050565b61043860048036036040811015610a5457600080fd5b50803515159060200135612510565b348015610a6f57600080fd5b50610a7861257c565b604080516001600160401b03938416815291909216602082015281519081900390910190f35b348015610aaa57600080fd5b5061043860048036036020811015610ac157600080fd5b50351515612596565b348015610ad657600080fd5b50610afd60048036036020811015610aed57600080fd5b50356001600160a01b03166125a9565b60408051921515835290151560208301528051918290030190f35b348015610b2457600080fd5b5061044f60048036036060811015610b3b57600080fd5b50803590602081013590604001356125d6565b348015610b5a57600080fd5b5061044f6125fb565b348015610b6f57600080fd5b50610800612600565b348015610b8457600080fd5b50610b8d612609565b604051808681526020018581526020018060200184815260200183815260200182810382528581815181526020019150805190602001906020028083836000838110156103e75781810151838201526020016103cf565b348015610bf057600080fd5b506104386126c8565b348015610c0557600080fd5b50610c0e6127b8565b604080516001600160401b039092168252519081900360200190f35b61043860048036036080811015610c4057600080fd5b506001600160a01b038135169060208101359060408101359060600135612826565b348015610c6e57600080fd5b50610c77612d18565b604080516001600160401b039586168152938516602085015291841683830152909216606082015290519081900360800190f35b348015610cb757600080fd5b50610cc0612d46565b6040805192835260208301919091528051918290030190f35b348015610ce557600080fd5b5061044f612dde565b348015610cfa57600080fd5b5061044f60048036036020811015610d1157600080fd5b5035612df0565b348015610d2457600080fd5b5061044f60048036036040811015610d3b57600080fd5b506001600160a01b038135169060200135612e02565b6001600160a01b038516600090815260208190526040902054606090610d84908790610d7b611ad3565b88888888611ad8565b610dc257604051600160e51b62461bcd0281526004018080602001828103825260218152602001806141e06021913960400191505060405180910390fd5b6001600160a01b038616600090815260208190526040902054610dec90600163ffffffff612e3016565b600080886001600160a01b03166001600160a01b031681526020019081526020016000208190555060006060306001600160a01b031687896040516020018083805190602001908083835b60208310610e565780518252601f199092019160209182019101610e37565b51815160209384036101000a60001901801990921691161790526001600160a01b039590951660601b92019182525060408051808303600b190181526014909201908190528151919450928392508401908083835b60208310610eca5780518252601f199092019160209182019101610eab565b6001836020036101000a0380198251168184511680821785525050505050509050019150506000604051808303816000865af19150503d8060008114610f2c576040519150601f19603f3d011682016040523d82523d6000602084013e610f31565b606091505b509150915081610f8b5760408051600160e51b62461bcd02815260206004820152601c60248201527f46756e6374696f6e2063616c6c206e6f74207375636365737366756c00000000604482015290519081900360640190fd5b7f5845892132946850460bff5a0083f71031bc5bf9aadcd40f1de79423eac9b10b88338960405180846001600160a01b03166001600160a01b03168152602001836001600160a01b03166001600160a01b0316815260200180602001828103825283818151815260200191508051906020019080838360005b8381101561101c578181015183820152602001611004565b50505050905090810190601f1680156110495780820380516001836020036101000a031916815260200191505b5094505050505060405180910390a1979650505050505050565b606080600080600080611074612d46565b90925090506004611083612e94565b600481111561108e57fe5b1415806110a857506110a6828263ffffffff612e3016565b155b156110c757505060015461010090046001600160a01b031690506111d3565b604080516002808252606082018352909160208301908038833901905050945060008051602061417f8339815191528560008151811061110357fe5b60200260200101906001600160a01b031690816001600160a01b0316815250506000805160206141c08339815191528560018151811061113f57fe5b6001600160a01b039092166020928302919091019091015260008061116389612f07565b9199509250905061117482826130b4565b6001600160a01b038a166000908152600b60209081526040808320600a546001600160401b03168452600101909152902054909650156111bb576111b889896130db565b97505b505060015461010090046001600160a01b0316925050505b9193509193565b7365add15c5ff3abc069358aae842de13ce92f3447630e43f4ce6111fc6113fd565b6040518263ffffffff1660e01b815260040180826001600160a01b03166001600160a01b0316815260200191505060206040518083038186803b15801561124257600080fd5b505afa158015611256573d6000803e3d6000fd5b505050506040513d602081101561126c57600080fd5b505161127757600080fd5b6001611281612e94565b600481111561128c57fe5b111561129757600080fd5b60015461010090046001600160a01b0316156112fd5760408051600160e51b62461bcd02815260206004820152601160248201527f416c72656164792073706f6e736f726564000000000000000000000000000000604482015290519081900360640190fd5b60018054610100600160a81b0319166101006001600160a01b038516021790556006819055733a3d9ca9d9b25af1ff7eb9d8a1ea9f61b5892ee96315dacbea836113456113fd565b6040805163ffffffff851660e01b81526001600160a01b039384166004820152919092166024820152306044820152606481018590529051608480830192600092919082900301818387803b15801561139d57600080fd5b505af11580156113b1573d6000803e3d6000fd5b505050505050565b6009546000906113f7906113de90600160401b90046001600160401b031660046131be565b600a54600160401b90046001600160401b031690612e30565b90505b90565b6000333014156114555760606000368080601f0160208091040260200160405190810160405280939291908181526020018383808284376000920191909152505050503601516001600160a01b031691506113fa9050565b50336113fa565b60015460009060ff168061148357506004611475612e94565b600481111561148057fe5b14155b8061150357507365add15c5ff3abc069358aae842de13ce92f34476001600160a01b03166335f628ee6040518163ffffffff1660e01b815260040160206040518083038186803b1580156114d657600080fd5b505afa1580156114ea573d6000803e3d6000fd5b505050506040513d602081101561150057600080fd5b50515b1561151057506000611705565b6001600160a01b0382166000908152600b602052604090205460ff161561153957506001611705565b6001600160a01b0382166000908152600b60205260408120805460ff19166001179055606090819061156a85611063565b5092509250925061159e60008051602061417f833981519152868560008151811061159157fe5b602002602001015161322b565b6115be6000805160206141c0833981519152868560018151811061159157fe5b6001546115da9061010090046001600160a01b0316868361322b565b600154604051600160e11b63640cdaf90281526001600160a01b038781166004830190815260648301859052610100909304166084820181905260a060248301908152865160a484015286517365add15c5ff3abc069358aae842de13ce92f34479463c819b5f2948b948a948a948a949293604481019160c4909101906020808a01910280838360005b8381101561167c578181015183820152602001611664565b50505050905001838103825286818151815260200191508051906020019060200280838360005b838110156116bb5781810151838201526020016116a3565b50505050905001975050505050505050600060405180830381600087803b1580156116e557600080fd5b505af11580156116f9573d6000803e3d6000fd5b50505050600293505050505b919050565b6019600160c21b671155120bd554d11502735e2aa6b66531142beab830c385646f97fa03d80a909192565b6001600160a01b031660009081526020819052604090205490565b600954600160c21b671155120bd554d11502906060908190819081908190600160401b90046001600160401b0316600080611789613326565b9150611793612e94565b600481111561179e57fe5b604080516003808252608082019092529192506020820160608038833950506009548251929a50600160801b90046001600160401b0316918a915060019081106117e457fe5b602090810291909101015260095461180d90600160c01b90046001600160401b03166001612e30565b8860028151811061181a57fe5b60209081029190910101526040805160038082526080820190925290816020016020820280388339505060095491985061186791600160801b90046001600160401b03169050600161334f565b8760008151811061187457fe5b60209081029190910101526009548751600160c01b9091046001600160401b031690889060019081106118a357fe5b602002602001018181525050600019876002815181106118bf57fe5b6020908102919091010152604080516003808252608082019092529081602001602082028038833950506040805160038082526080820190925292985090506020820160608038833950506040805160038082526080820190925292975090506020820160608038833901905050935060005b60038110156119f85760018082016000908152600c602090815260408083206000805160206141c0833981519152845290930190522054865187908390811061197757fe5b60209081029190910181019190915260018083016000908152600c8352604080822060008051602061417f833981519152835290920190925290205485518690839081106119c157fe5b6020026020010181815250506119d981600101611c66565b8782815181106119e557fe5b6020908102919091010152600101611932565b50909192939495969798565b6000806000611a11612d46565b60408051600160e11b63569669330281526000805160206141c0833981519152600482015260248101849052815193955091935073cbc7df3b8c870c5cde675aaf5fd823e4209546d29263ad2cd266926044808201939291829003018186803b158015611a7d57600080fd5b505afa158015611a91573d6000803e3d6000fd5b505050506040513d6040811015611aa757600080fd5b50602001519150611abe818363ffffffff612e3016565b9250505090565b611ad08160006133af565b50565b608990565b600080611b7e8830898960405160200180858152602001846001600160a01b03166001600160a01b031660601b815260140183815260200182805190602001908083835b60208310611b3b5780518252601f199092019160209182019101611b1c565b6001836020036101000a038019825116818451168082178552505050505050905001945050505050604051602081830303815290604052805190602001206139a4565b9050600060018285888860405160008152602001604052604051808581526020018460ff1660ff1681526020018381526020018281526020019450505050506020604051602081039080840390855afa158015611bdf573d6000803e3d6000fd5b5050604051601f1901519150506001600160a01b038116611c4a5760408051600160e51b62461bcd02815260206004820152601160248201527f496e76616c6964207369676e6174757265000000000000000000000000000000604482015290519081900360640190fd5b6001600160a01b038a8116911614915050979650505050505050565b60408051600980825261014082019092526000916060919060208201610120803883390190505090508281600081518110611c9d57fe5b60209081029190910101526009548151600160801b9091046001600160401b03169082906001908110611ccc57fe5b60209081029190910101526009548151600160c01b9091046001600160401b03169082906002908110611cfb57fe5b602090810291909101015260095481516001600160401b039091169082906003908110611d2457fe5b602002602001018181525050611d38613326565b81600481518110611d4557fe5b602002602001018181525050611d59612d46565b82600581518110611d6657fe5b6020026020010183600681518110611d7a57fe5b602090810291909101810192909252919091526000848152600c825260408082206000805160206141c083398151915283526001019092522054815182906007908110611dc357fe5b6020908102919091018101919091526000848152600c8252604080822060008051602061417f83398151915283526001019092522054815182906008908110611e0857fe5b60209081029190910181019190915260408051600160e01b63504e8751028152735e2aa6b66531142beab830c385646f97fa03d80a602482018190526004820192835284516044830152845173cbc7df3b8c870c5cde675aaf5fd823e4209546d29463504e875194879490928392606490920191868101910280838360005b83811015611e9f578181015183820152602001611e87565b50505050905001935050505060206040518083038186803b158015611ec357600080fd5b505afa158015611ed7573d6000803e3d6000fd5b505050506040513d6020811015611eed57600080fd5b50519392505050565b6000309050806001600160a01b031663025313a26040518163ffffffff1660e01b815260040160206040518083038186803b158015611f3457600080fd5b505afa158015611f48573d6000803e3d6000fd5b505050506040513d6020811015611f5e57600080fd5b50516001600160a01b03163314611fbf5760408051600160e51b62461bcd02815260206004820152601a60248201527f53656e646572206973206e6f742070726f7879206f776e65722e000000000000604482015290519081900360640190fd5b6009546001600160401b0316156120205760408051600160e51b62461bcd02815260206004820152601360248201527f416c726561647920696e697469616c697a656400000000000000000000000000604482015290519081900360640190fd5b4261203d6001600160401b0387811690871663ffffffff612e3016565b1161204757600080fd5b506009805467ffffffffffffffff19166001600160401b03958616176fffffffffffffffff00000000000000001916600160401b948616949094029390931777ffffffffffffffff000000000000000000000000000000001916600160801b92851692909202919091176001600160c01b0316600160c01b9190931602919091179055565b60006120d6611a04565b1161212b5760408051600160e51b62461bcd02815260206004820152601060248201527f4e6f2070617274696369706174696f6e00000000000000000000000000000000604482015290519081900360640190fd5b6002612135612e94565b600481111561214057fe5b1461214a57600080fd5b600073cbc7df3b8c870c5cde675aaf5fd823e4209546d26001600160a01b031663094f81f86040518163ffffffff1660e01b815260040160206040518083038186803b15801561219957600080fd5b505afa1580156121ad573d6000803e3d6000fd5b505050506040513d60208110156121c357600080fd5b50519050733a3d9ca9d9b25af1ff7eb9d8a1ea9f61b5892ee96315dacbea60008051602061417f8339815191526121f86113fd565b6040805163ffffffff851660e01b81526001600160a01b0393841660048201529190921660248201527365add15c5ff3abc069358aae842de13ce92f34476044820152606481018590529051608480830192600092919082900301818387803b15801561226457600080fd5b505af1158015612278573d6000803e3d6000fd5b50506001805460ff19168117905550506040805130602082015280820187905281518082038301815260609091019091527365add15c5ff3abc069358aae842de13ce92f34479063e99a8de090869086908690866122d46113fd565b6002546005548e6040518a63ffffffff1660e01b815260040180806020018060200180602001806020018a8152602001896001600160a01b03166001600160a01b0316815260200188815260200187815260200186815260200185810385528e818151815260200191508051906020019080838360005b8381101561236357818101518382015260200161234b565b50505050905090810190601f1680156123905780820380516001836020036101000a031916815260200191505b5085810384528d5181528d516020918201918f019080838360005b838110156123c35781810151838201526020016123ab565b50505050905090810190601f1680156123f05780820380516001836020036101000a031916815260200191505b5085810383528c5181528c516020918201918e019080838360005b8381101561242357818101518382015260200161240b565b50505050905090810190601f1680156124505780820380516001836020036101000a031916815260200191505b5085810382528b5181528b516020918201918d019080838360005b8381101561248357818101518382015260200161246b565b50505050905090810190601f1680156124b05780820380516001836020036101000a031916815260200191505b509d5050505050505050505050505050600060405180830381600087803b1580156124da57600080fd5b505af11580156124ee573d6000803e3d6000fd5b50506000600281905560055550506008805460ff191660031790555050505050565b337365add15c5ff3abc069358aae842de13ce92f344714801561254557506003612538612e94565b600481111561254357fe5b145b61254e57600080fd5b811561255f5761255f8160006133af565b50506001805460ff19908116909155600880549091166004179055565b600a546001600160401b0380821691600160401b90041682565b600e805460ff1916911515919091179055565b6001600160a01b03166000908152600b602052604090205460ff6201000082048116926101009092041690565b60006125f28484846000805160206141c08339815191526139f5565b50949350505050565b607b90565b600e5460ff1681565b600a546001600160401b03166000818152600c6020908152604080832080546000805160206141c08339815191528552600190910183528184205460008051602061417f833981519152855282852054600780548551818802810188019096528086529697889760609789978897939693959290918591908301828280156126b057602002820191906000526020600020905b81548152602001906001019080831161269c575b50505050509250945094509450945094509091929394565b60008073cbc7df3b8c870c5cde675aaf5fd823e4209546d263f0a5702f735e2aa6b66531142beab830c385646f97fa03d80a6127026127b8565b6001600160401b03166040518363ffffffff1660e01b815260040180836001600160a01b03166001600160a01b0316815260200182815260200192505050604080518083038186803b15801561275757600080fd5b505afa15801561276b573d6000803e3d6000fd5b505050506040513d604081101561278157600080fd5b50805160209091015190925090506001612799612e94565b60048111156127a457fe5b14156127b4576127b482826133af565b5050565b600a54600090600160401b90046001600160401b0316156127ec5750600a54600160401b90046001600160401b03166113fa565b6009546113f79061280e90600160401b90046001600160401b03166002613d28565b6009546001600160401b03169063ffffffff612e3016565b7365add15c5ff3abc069358aae842de13ce92f34476001600160a01b03166335f628ee6040518163ffffffff1660e01b815260040160206040518083038186803b15801561287357600080fd5b505afa158015612887573d6000803e3d6000fd5b505050506040513d602081101561289d57600080fd5b50511580156128ad575060038211155b80156128ba575060058111155b6128c357600080fd5b6009546001600160401b031642108015906128e557506128e1613326565b4211155b6128ee57600080fd5b60006001600160a01b0385166000805160206141c083398151915214156129475734841461291b57600080fd5b612929600a85612710613d84565b60035490915061293f908263ffffffff612e3016565b600355612beb565b341561295257600080fd5b6001600160a01b03851660008051602061417f8339815191521415612a1757733a3d9ca9d9b25af1ff7eb9d8a1ea9f61b5892ee96315dacbea60008051602061417f8339815191526129a26113fd565b6040805163ffffffff851660e01b81526001600160a01b039384166004820152919092166024820152306044820152606481018890529051608480830192600092919082900301818387803b1580156129fa57600080fd5b505af1158015612a0e573d6000803e3d6000fd5b50505050612bc3565b733a3d9ca9d9b25af1ff7eb9d8a1ea9f61b5892ee96001600160a01b0316634a5245b46040518163ffffffff1660e01b815260040160206040518083038186803b158015612a6457600080fd5b505afa158015612a78573d6000803e3d6000fd5b505050506040513d6020811015612a8e57600080fd5b50516001600160a01b03868116911614612aa757600080fd5b60058214612ab457600080fd5b600b6000612ac06113fd565b6001600160a01b03168152602081019190915260400160002054610100900460ff1615612aec57600080fd5b6001600b6000612afa6113fd565b6001600160a01b03168152602081019190915260400160002080549115156101000261ff0019909216919091179055733a3d9ca9d9b25af1ff7eb9d8a1ea9f61b5892ee9631371b2bd612b4b6113fd565b6040805163ffffffff841660e01b81526001600160a01b0390921660048301523060248301526044820188905251606480830192600092919082900301818387803b158015612b9957600080fd5b505af1158015612bad573d6000803e3d6000fd5b5050505060008051602061417f83398151915294505b612bd1600585612710613d84565b600454909150612be7908263ffffffff612e3016565b6004555b612bfb848263ffffffff61334f16565b9050600080612c0c8584868a6139f5565b915091508015612c56576001600b6000612c246113fd565b6001600160a01b0316815260208101919091526040016000208054911515620100000262ff0000199092169190911790555b60008211612c6357600080fd5b612c708584898786613da2565b7365add15c5ff3abc069358aae842de13ce92f34476391b2f38e612c926113fd565b6040805163ffffffff841660e01b81526001600160a01b039283166004820152602481018b905260448101879052918b1660648301526084820189905260a482018890525160c480830192600092919082900301818387803b158015612cf757600080fd5b505af1158015612d0b573d6000803e3d6000fd5b5050505050505050505050565b6009546001600160401b0380821691600160401b8104821691600160801b8204811691600160c01b90041684565b60008060015b60038111612dd9576000818152600c602090815260408083206000805160206141c08339815191528452600101909152902054612d9090849063ffffffff612e3016565b6000828152600c6020908152604080832060008051602061417f8339815191528452600101909152902054909350612dcf90839063ffffffff612e3016565b9150600101612d4c565b509091565b600160c21b671155120bd554d1150281565b600c6020526000908152604090205481565b6001600160a01b0382166000908152600b602090815260408083208484526001019091529020545b92915050565b600082820183811015612e8d5760408051600160e51b62461bcd02815260206004820152601b60248201527f536166654d6174683a206164646974696f6e206f766572666c6f770000000000604482015290519081900360640190fd5b9392505050565b60008060085460ff166004811115612ea857fe5b148015612ebc5750612eb8613326565b4210155b15612ec9575060016113fa565b600460085460ff166004811115612edc57fe5b148015612ef05750612eec6113b9565b4211155b15612efd575060026113fa565b5060085460ff1690565b6060600080600073cbc7df3b8c870c5cde675aaf5fd823e4209546d26001600160a01b031663bfed95b86040518163ffffffff1660e01b815260040160806040518083038186803b158015612f5b57600080fd5b505afa158015612f6f573d6000803e3d6000fd5b505050506040513d6080811015612f8557600080fd5b50602090810151604080516002808252606082018352929450928301908038833901905050935060015b600381116130ab576001600160a01b0386166000908152600b60209081526040808320848452600101909152902054612fef90859063ffffffff612e3016565b6000828152600c602052604090205490945061301290849063ffffffff612e3016565b92506130438560008151811061302457fe5b602002602001015187838560008051602061417f83398151915261405c565b8560008151811061305057fe5b60200260200101818152505061308b8560018151811061306c57fe5b60200260200101518783856000805160206141c083398151915261405c565b8560018151811061309857fe5b6020908102919091010152600101612faf565b50509193909250565b6000612e8d6130ce836006546131be90919063ffffffff16565b849063ffffffff613d2816565b60606000805b83518110156131b557600a546001600160401b03166000908152600c60205260409020546007805461316e9291613162918590811061311c57fe5b60009182526020808320909101546001600160a01b038b168352600b82526040808420600a546001600160401b031685526001019092529120549063ffffffff613d2816565b9063ffffffff6131be16565b91506131968285838151811061318057fe5b6020026020010151612e3090919063ffffffff16565b8482815181106131a257fe5b60209081029190910101526001016130e1565b50919392505050565b60008082116132175760408051600160e51b62461bcd02815260206004820152601a60248201527f536166654d6174683a206469766973696f6e206279207a65726f000000000000604482015290519081900360640190fd5b600082848161322257fe5b04949350505050565b8015613321576001600160a01b0383166000805160206141c0833981519152141561328c576040516001600160a01b0383169082156108fc029083906000818181858888f19350505050158015613286573d6000803e3d6000fd5b50613321565b826001600160a01b031663a9059cbb83836040518363ffffffff1660e01b815260040180836001600160a01b03166001600160a01b0316815260200182815260200192505050602060405180830381600087803b1580156132ec57600080fd5b505af1158015613300573d6000803e3d6000fd5b505050506040513d602081101561331657600080fd5b505161332157600080fd5b505050565b6009546000906113f7906001600160401b0380821691600160401b90041663ffffffff612e3016565b6000828211156133a95760408051600160e51b62461bcd02815260206004820152601e60248201527f536166654d6174683a207375627472616374696f6e206f766572666c6f770000604482015290519081900360640190fd5b50900390565b6133b76127b8565b6001600160401b03164210156134175760408051600160e51b62461bcd02815260206004820152601060248201527f54696d65206e6f74207265616368656400000000000000000000000000000000604482015290519081900360640190fd5b6000821161346f5760408051600160e51b62461bcd02815260206004820152601e60248201527f76616c75652073686f756c642062652067726561746572207468616e20300000604482015290519081900360640190fd5b600073cbc7df3b8c870c5cde675aaf5fd823e4209546d26001600160a01b031663bfed95b86040518163ffffffff1660e01b815260040160806040518083038186803b1580156134be57600080fd5b505afa1580156134d2573d6000803e3d6000fd5b505050506040513d60808110156134e857600080fd5b50602001519050600360085460ff16600481111561350257fe5b1461353657600a80546fffffffffffffffff00000000000000001916600160401b426001600160401b031602179055613550565b600a80546fffffffffffffffff0000000000000000191690555b6008805460ff191660041790556009546001600160401b03600160801b9091041683101561359157600a805467ffffffffffffffff191660011790556135d9565b600954600160c01b90046001600160401b03168311156135c457600a805467ffffffffffffffff191660031790556135d9565b600a805467ffffffffffffffff191660021790555b60408051600280825260608083018452926020830190803883395050600a546001600160401b03166000908152600c602090815260408083206000805160206141c08339815191528452600101909152902054919250501515806136725750600a546001600160401b03166000908152600c6020908152604080832060008051602061417f833981519152845260010190915290205415155b1561377f5760015b6003811161376557600a546001600160401b0316811461375d576000818152600c6020908152604080832060008051602061417f83398151915284526002019091528120546136cc9085906064613d84565b90506136df818460008151811061318057fe5b836000815181106136ec57fe5b6020908102919091018101919091526000838152600c825260408082206000805160206141c08339815191528352600201909252205461372f9085906064613d84565b9050613742818460018151811061318057fe5b8360018151811061374f57fe5b602002602001018181525050505b60010161367a565b508051613779906007906020840190614119565b50613837565b60015b60038111613835576000818152600c6020908152604080832060008051602061417f83398151915284526002019091528120546137c29085906064613d84565b6005549091506137d8908263ffffffff612e3016565b6005556000828152600c602090815260408083206000805160206141c083398151915284526002019091529020546138139085906064613d84565b600254909150613829908263ffffffff612e3016565b60025550600101613782565b505b61387a6000805160206141c08339815191527365add15c5ff3abc069358aae842de13ce92f3447613875600354600254612e3090919063ffffffff16565b61322b565b6138b860008051602061417f8339815191527365add15c5ff3abc069358aae842de13ce92f3447613875600454600554612e3090919063ffffffff16565b600060038190556004908155600a54604051600160e01b63a99f50dd0281526001600160401b03909116602482018190526044820187905260648201869052608092820192835260078054608484018190527365add15c5ff3abc069358aae842de13ce92f34479463a99f50dd949293928a928a9291829160a4909101908790801561396357602002820191906000526020600020905b81548152602001906001019080831161394f575b505095505050505050600060405180830381600087803b15801561398657600080fd5b505af115801561399a573d6000803e3d6000fd5b5050505050505050565b604080517f19457468657265756d205369676e6564204d6573736167653a0a333200000000602080830191909152603c8083019490945282518083039094018452605c909101909152815191012090565b60408051600b8082526101808201909252600091829160609160208201610160803883390190505090508681600081518110613a2d57fe5b60209081029190910101526009548151600160801b9091046001600160401b03169082906001908110613a5c57fe5b60209081029190910101526009548151600160c01b9091046001600160401b03169082906002908110613a8b57fe5b602090810291909101015260095481516001600160401b039091169082906003908110613ab457fe5b602002602001018181525050613ac8613326565b81600481518110613ad557fe5b602002602001018181525050613ae9612d46565b82600581518110613af657fe5b6020026020010183600681518110613b0a57fe5b602090810291909101810192909252919091526000888152600c825260408082206000805160206141c083398151915283526001019092522054815182906007908110613b5357fe5b6020908102919091018101919091526000888152600c8252604080822060008051602061417f83398151915283526001019092522054815182906008908110613b9857fe5b6020026020010181815250508581600981518110613bb257fe5b6020026020010181815250508481600a81518110613bcc57fe5b6020026020010181815250506000600b6000613be66113fd565b6001600160a01b0316815260208101919091526040016000205462010000900460ff16613c11575060015b73cbc7df3b8c870c5cde675aaf5fd823e4209546d26398d57d218387613c356113fd565b60405163ffffffff851660e01b81526001600160a01b03808416602483015282166044820152735e2aa6b66531142beab830c385646f97fa03d80a60648201819052871515608483015260a060048301908152855160a4840152855191928992829160c401906020898101910280838360005b83811015613cc0578181015183820152602001613ca8565b505050509050019650505050505050604080518083038186803b158015613ce657600080fd5b505afa158015613cfa573d6000803e3d6000fd5b505050506040513d6040811015613d1057600080fd5b50805160209091015190999098509650505050505050565b600082613d3757506000612e2a565b82820282848281613d4457fe5b0414612e8d57604051600160e51b62461bcd02815260040180806020018281038252602181526020018061419f6021913960400191505060405180910390fd5b6000613d9a82613162868663ffffffff613d2816565b949350505050565b613de881600b6000613db26113fd565b6001600160a01b03168152602080820192909252604090810160009081208a82526001019092529020549063ffffffff612e3016565b600b6000613df46113fd565b6001600160a01b03166001600160a01b03168152602001908152602001600020600101600087815260200190815260200160002081905550613e8084600b6000613e3c6113fd565b6001600160a01b039081168252602080830193909352604091820160009081209189168152600290910183528181208a82529092529020549063ffffffff612e3016565b600b6000613e8c6113fd565b6001600160a01b03908116825260208083019390935260409182016000908120918816815260029091018352818120898252909252902055613f27613ed7858463ffffffff613d2816565b600b6000613ee36113fd565b6001600160a01b039081168252602080830193909352604091820160009081209189168152600390910183528181208a82529092529020549063ffffffff612e3016565b600b6000613f336113fd565b6001600160a01b03908116825260208083019390935260409182016000908120918816815260039091018352818120898252835281812093909355600c909152902054613f86908263ffffffff612e3016565b6000868152600c602090815260408083209384556001600160a01b0387168352600190930190522054613fbf908563ffffffff612e3016565b6000868152600c602090815260408083206001600160a01b038816845260010190915290205561402a613ff8858463ffffffff613d2816565b6000878152600c602090815260408083206001600160a01b03891684526002019091529020549063ffffffff612e3016565b6000958652600c602090815260408088206001600160a01b039096168852600290950190529290942091909155505050565b600a546000906001600160401b031684141561407757600092505b6001600160a01b038086166000908152600b602090815260408083209386168352600390930181528282208783529052908120546140b89085906064613d84565b6001600160a01b038088166000908152600b602090815260408083209388168352600290930181528282208983529052205490915061410e90614101908363ffffffff61334f16565b889063ffffffff612e3016565b979650505050505050565b828054828255906000526020600020908101928215614154579160200282015b82811115614154578251825591602001919060010190614139565b50614160929150614164565b5090565b6113fa91905b80821115614160576000815560010161416a56fe000000000000000000000000a626089a947eadc8a782293b53fcf42247c71111536166654d6174683a206d756c7469706c69636174696f6e206f766572666c6f77000000000000000000000000eeeeeeeeeeeeeeeeeeeeeeeeeeeeeeeeeeeeeeee5369676e657220616e64207369676e617475726520646f206e6f74206d61746368a165627a7a7230582097e8336c995c79c00494c91f19c7a6156d4ee2a1b0b7c522717339ab70fb43810029",
  "source": "pragma solidity 0.5.7;\n\nimport \"../Market.sol\";\n\ncontract DummyMockMarket is Market {\n\n\tmapping(uint => uint) optionPrices;\n\n\tbool public mockFlag;\n\n\tfunction setMockPriceFlag(bool _flag) public {\n\t\tmockFlag = _flag;\n\t}\n\n  function dummyFunction() public view returns(uint)\n  {\n\n    return 123;\n  }\n\n    /**\n    * @dev Calculate the result of market.\n    * @param _value The current price of market currency.\n    */\n    function calculatePredictionResult(uint _value) public {\n      _postResult(_value, 0);\n    }\n}",
  "sourcePath": "/home/madan/Documents/PlotX/PlotxContract/contracts/mock/DummyMockMarket.sol",
  "compiler": {
    "name": "solc",
    "version": "0.5.7+commit.6da8b019.Emscripten.clang"
  },
  "schemaVersion": "3.3.2",
  "updatedAt": "2020-12-10T08:30:25.224Z",
  "devdoc": {
    "methods": {
      "calculatePredictionResult(uint256)": {
        "details": "Calculate the result of market.",
        "params": {
          "_value": "The current price of market currency."
        }
      },
      "claimReturn(address)": {
        "details": "Claim the return amount of the specified address.\r",
        "params": {
          "_user": "The address to query the claim return amount of.\r"
        },
        "return": "Flag, if 0:cannot claim, 1: Already Claimed, 2: Claimed\r"
      },
      "estimatePredictionValue(uint256,uint256,uint256)": {
        "details": "Get estimated amount of prediction points for given inputs.\r",
        "params": {
          "_leverage": "The leverage opted by user at the time of prediction.\r",
          "_prediction": "The option on which user place prediction.\r",
          "_stakeValueInEth": "The amount staked by user.\r"
        },
        "return": "uint256 representing the prediction points.\r"
      },
      "executeMetaTransaction(address,bytes,bytes32,bytes32,uint8)": {
        "params": {
          "functionSignature": "Signature of the actual function to be called via meta transaction",
          "sigR": "R part of the signature",
          "sigS": "S part of the signature",
          "sigV": "V part of the signature",
          "userAddress": "Address of user trying to do meta transaction"
        }
      },
      "getData()": {
        "details": "Gets the market data.\r",
        "return": "_marketCurrency bytes32 representing the currency or stock name of the market.\rminvalue uint[] memory representing the minimum range of all the options of the market.\rmaxvalue uint[] memory representing the maximum range of all the options of the market.\r_optionPrice uint[] memory representing the option price of each option ranges of the market.\r_ethStaked uint[] memory representing the ether staked on each option ranges of the market.\r_plotStaked uint[] memory representing the plot staked on each option ranges of the market.\r_predictionTime uint representing the type of market.\r_expireTime uint representing the time at which market closes for prediction\r_predictionStatus uint representing the status of the market.\r"
      },
      "getMarketFeedData()": {
        "details": "Get market Feed data\r",
        "return": "market currency name\rmarket currency feed address\r"
      },
      "getMarketResults()": {
        "details": "Gets the result of the market.\r",
        "return": "uint256 representing the winning option of the market.\ruint256 Value of market currently at the time closing market.\ruint256 representing the positions of the winning option.\ruint[] memory representing the reward to be distributed.\ruint256 representing the Eth staked on winning option.\ruint256 representing the PLOT staked on winning option.\r"
      },
      "getOptionPrice(uint256)": {
        "details": "Gets the price of specific option.\r",
        "params": {
          "_prediction": "The option number to query the balance of.\r"
        },
        "return": "Price of the option.\r"
      },
      "getReturn(address)": {
        "details": "Gets the return amount of the specified address.\r",
        "params": {
          "_user": "The address to specify the return of\r"
        },
        "return": "returnAmount uint[] memory representing the return amount.\rincentive uint[] memory representing the amount incentive.\r_incentiveTokens address[] memory representing the incentive tokens.\r"
      },
      "getUserFlags(address)": {
        "details": "Get flags set for user\r",
        "params": {
          "_user": "User address\r"
        },
        "return": "Flag defining if user had availed multiplier\rFlag defining if user had predicted with bPLOT\r"
      },
      "getUserPredictionPoints(address,uint256)": {
        "details": "Gets number of positions user got in prediction\r",
        "params": {
          "_option": "Option Id\r",
          "_user": "Address of user\r"
        }
      },
      "initiate(uint64,uint64,uint64,uint64)": {
        "details": "Initialize the market.\r",
        "params": {
          "_maxValue": "The maximum value of neutral option range.\r",
          "_minValue": "The minimum value of neutral option range.\r",
          "_predictionTime": "The time duration of market.\r",
          "_startTime": "The time at which market will create.\r"
        }
      },
      "marketCoolDownTime()": {
        "details": "Get market cooldown time\r",
        "return": "the time upto which user can raise the dispute after the market is settled\r"
      },
      "marketSettleTime()": {
        "details": "Get market settle time\r",
        "return": "the time at which the market result will be declared\r"
      },
      "placePrediction(address,uint256,uint256,uint256)": {
        "details": "Place prediction on the available options of the market.\r",
        "params": {
          "_asset": "The asset used by user during prediction whether it is plotToken address or in ether.\r",
          "_leverage": "The leverage opted by user at the time of prediction.\r",
          "_prediction": "The option on which user placed prediction.\r",
          "_predictionStake": "The amount staked by user at the time of prediction.\r"
        }
      },
      "raiseDispute(uint256,string,string,string)": {
        "details": "Raise the dispute if wrong value passed at the time of market result declaration.\r",
        "params": {
          "description": "The description of dispute.\r",
          "proposalTitle": "The title of proposal created by user.\r",
          "proposedValue": "The proposed value of market currency.\r",
          "solutionHash": "The ipfs solution hash.\r"
        }
      },
      "resolveDispute(bool,uint256)": {
        "details": "Resolve the dispute\r",
        "params": {
          "accepted": "Flag mentioning if dispute is accepted or not\r",
          "finalResult": "The final correct value of market currency.\r"
        }
      },
      "settleMarket()": {
        "details": "Settle the market, setting the winning option\r"
      }
    }
  },
  "userdoc": {
    "methods": {
      "executeMetaTransaction(address,bytes,bytes32,bytes32,uint8)": {
        "notice": "Main function to be called when user wants to execute meta transaction. The actual function to be called should be passed as param with name functionSignature Here the basic signature recovery is being used. Signature is expected to be generated using personal_sign method."
      }
    }
  }
}