{
  "contractName": "DummyTokenMock",
  "abi": [
    {
      "constant": true,
      "inputs": [],
      "name": "name",
      "outputs": [
        {
          "name": "",
          "type": "string"
        }
      ],
      "payable": false,
      "stateMutability": "view",
      "type": "function"
    },
    {
      "constant": false,
      "inputs": [
        {
          "name": "spender",
          "type": "address"
        },
        {
          "name": "value",
          "type": "uint256"
        }
      ],
      "name": "approve",
      "outputs": [
        {
          "name": "",
          "type": "bool"
        }
      ],
      "payable": false,
      "stateMutability": "nonpayable",
      "type": "function"
    },
    {
      "constant": true,
      "inputs": [],
      "name": "totalSupply",
      "outputs": [
        {
          "name": "",
          "type": "uint256"
        }
      ],
      "payable": false,
      "stateMutability": "view",
      "type": "function"
    },
    {
      "constant": true,
      "inputs": [],
      "name": "decimals",
      "outputs": [
        {
          "name": "",
          "type": "uint8"
        }
      ],
      "payable": false,
      "stateMutability": "view",
      "type": "function"
    },
    {
      "constant": false,
      "inputs": [
        {
          "name": "spender",
          "type": "address"
        },
        {
          "name": "addedValue",
          "type": "uint256"
        }
      ],
      "name": "increaseAllowance",
      "outputs": [
        {
          "name": "",
          "type": "bool"
        }
      ],
      "payable": false,
      "stateMutability": "nonpayable",
      "type": "function"
    },
    {
      "constant": true,
      "inputs": [],
      "name": "retBit",
      "outputs": [
        {
          "name": "",
          "type": "bool"
        }
      ],
      "payable": false,
      "stateMutability": "view",
      "type": "function"
    },
    {
      "constant": true,
      "inputs": [],
      "name": "symbol",
      "outputs": [
        {
          "name": "",
          "type": "string"
        }
      ],
      "payable": false,
      "stateMutability": "view",
      "type": "function"
    },
    {
      "constant": false,
      "inputs": [
        {
          "name": "spender",
          "type": "address"
        },
        {
          "name": "subtractedValue",
          "type": "uint256"
        }
      ],
      "name": "decreaseAllowance",
      "outputs": [
        {
          "name": "",
          "type": "bool"
        }
      ],
      "payable": false,
      "stateMutability": "nonpayable",
      "type": "function"
    },
    {
      "constant": true,
      "inputs": [
        {
          "name": "owner",
          "type": "address"
        },
        {
          "name": "spender",
          "type": "address"
        }
      ],
      "name": "allowance",
      "outputs": [
        {
          "name": "",
          "type": "uint256"
        }
      ],
      "payable": false,
      "stateMutability": "view",
      "type": "function"
    },
    {
      "inputs": [
        {
          "name": "tokenName",
          "type": "string"
        },
        {
          "name": "tokenSymbol",
          "type": "string"
        }
      ],
      "payable": false,
      "stateMutability": "nonpayable",
      "type": "constructor"
    },
    {
      "anonymous": false,
      "inputs": [
        {
          "indexed": true,
          "name": "from",
          "type": "address"
        },
        {
          "indexed": true,
          "name": "to",
          "type": "address"
        },
        {
          "indexed": false,
          "name": "value",
          "type": "uint256"
        }
      ],
      "name": "Transfer",
      "type": "event"
    },
    {
      "anonymous": false,
      "inputs": [
        {
          "indexed": true,
          "name": "owner",
          "type": "address"
        },
        {
          "indexed": true,
          "name": "spender",
          "type": "address"
        },
        {
          "indexed": false,
          "name": "value",
          "type": "uint256"
        }
      ],
      "name": "Approval",
      "type": "event"
    },
    {
      "constant": false,
      "inputs": [
        {
          "name": "_a",
          "type": "bool"
        }
      ],
      "name": "setRetBit",
      "outputs": [],
      "payable": false,
      "stateMutability": "nonpayable",
      "type": "function"
    },
    {
      "constant": false,
      "inputs": [
        {
          "name": "amount",
          "type": "uint256"
        }
      ],
      "name": "burn",
      "outputs": [
        {
          "name": "",
          "type": "bool"
        }
      ],
      "payable": false,
      "stateMutability": "nonpayable",
      "type": "function"
    },
    {
      "constant": false,
      "inputs": [
        {
          "name": "from",
          "type": "address"
        },
        {
          "name": "value",
          "type": "uint256"
        }
      ],
      "name": "burnFrom",
      "outputs": [
        {
          "name": "",
          "type": "bool"
        }
      ],
      "payable": false,
      "stateMutability": "nonpayable",
      "type": "function"
    },
    {
      "constant": false,
      "inputs": [
        {
          "name": "to",
          "type": "address"
        },
        {
          "name": "value",
          "type": "uint256"
        }
      ],
      "name": "transfer",
      "outputs": [
        {
          "name": "",
          "type": "bool"
        }
      ],
      "payable": false,
      "stateMutability": "nonpayable",
      "type": "function"
    },
    {
      "constant": false,
      "inputs": [
        {
          "name": "from",
          "type": "address"
        },
        {
          "name": "to",
          "type": "address"
        },
        {
          "name": "value",
          "type": "uint256"
        }
      ],
      "name": "transferFrom",
      "outputs": [
        {
          "name": "",
          "type": "bool"
        }
      ],
      "payable": false,
      "stateMutability": "nonpayable",
      "type": "function"
    },
    {
      "constant": true,
      "inputs": [
        {
          "name": "owner",
          "type": "address"
        }
      ],
      "name": "balanceOf",
      "outputs": [
        {
          "name": "",
          "type": "uint256"
        }
      ],
      "payable": false,
      "stateMutability": "view",
      "type": "function"
    },
    {
      "constant": false,
      "inputs": [
        {
          "name": "account",
          "type": "address"
        },
        {
          "name": "amount",
          "type": "uint256"
        }
      ],
      "name": "mint",
      "outputs": [
        {
          "name": "",
          "type": "bool"
        }
      ],
      "payable": false,
      "stateMutability": "nonpayable",
      "type": "function"
    },
    {
      "constant": false,
      "inputs": [
        {
          "name": "amount",
          "type": "uint256"
        }
      ],
      "name": "mint",
      "outputs": [
        {
          "name": "",
          "type": "uint256"
        }
      ],
      "payable": false,
      "stateMutability": "nonpayable",
      "type": "function"
    },
    {
      "constant": true,
      "inputs": [
        {
          "name": "_of",
          "type": "address"
        }
      ],
      "name": "isLockedForGV",
      "outputs": [
        {
          "name": "",
          "type": "bool"
        }
      ],
      "payable": false,
      "stateMutability": "view",
      "type": "function"
    },
    {
      "constant": false,
      "inputs": [
        {
          "name": "_of",
          "type": "address"
        },
        {
          "name": "_val",
          "type": "bool"
        }
      ],
      "name": "setDummyBit",
      "outputs": [],
      "payable": false,
      "stateMutability": "nonpayable",
      "type": "function"
    }
  ],
  "bytecode": "0x60806040526005805460ff1916601217905534801561001d57600080fd5b5060405162000ce038038062000ce08339810180604052604081101561004257600080fd5b81019080805164010000000081111561005a57600080fd5b8201602081018481111561006d57600080fd5b815164010000000081118282018710171561008757600080fd5b505092919060200180516401000000008111156100a357600080fd5b820160208101848111156100b657600080fd5b81516401000000008111828201871017156100d057600080fd5b505084519093506100ea9250600391506020850190610106565b5080516100fe906004906020840190610106565b5050506101a1565b828054600181600116156101000203166002900490600052602060002090601f016020900481019282601f1061014757805160ff1916838001178555610174565b82800160010185558215610174579182015b82811115610174578251825591602001919060010190610159565b50610180929150610184565b5090565b61019e91905b80821115610180576000815560010161018a565b90565b610b2f80620001b16000396000f3fe608060405234801561001057600080fd5b50600436106101215760003560e01c80636c8205cf116100ad578063a0712d6811610071578063a0712d6814610377578063a457c2d714610394578063a9059cbb146103c0578063dd62ed3e146103ec578063f8023eb31461041a57610121565b80636c8205cf146102e757806370a08231146102ef578063727742861461031557806379cc67901461034357806395d89b411461036f57610121565b806323b872dd116100f457806323b872dd1461021e578063313ce56714610254578063395093511461027257806340c10f191461029e57806342966c68146102ca57610121565b806306fdde0314610126578063095ea7b3146101a35780630eceb425146101e357806318160ddd14610204575b600080fd5b61012e610440565b6040805160208082528351818301528351919283929083019185019080838360005b83811015610168578181015183820152602001610150565b50505050905090810190601f1680156101955780820380516001836020036101000a031916815260200191505b509250505060405180910390f35b6101cf600480360360408110156101b957600080fd5b506001600160a01b0381351690602001356104ce565b604080519115158252519081900360200190f35b610202600480360360208110156101f957600080fd5b503515156104e4565b005b61020c6104f7565b60408051918252519081900360200190f35b6101cf6004803603606081101561023457600080fd5b506001600160a01b038135811691602081013590911690604001356104fd565b61025c61050a565b6040805160ff9092168252519081900360200190f35b6101cf6004803603604081101561028857600080fd5b506001600160a01b038135169060200135610513565b6101cf600480360360408110156102b457600080fd5b506001600160a01b038135169060200135610554565b6101cf600480360360208110156102e057600080fd5b5035610560565b6101cf610574565b61020c6004803603602081101561030557600080fd5b50356001600160a01b031661057d565b6102026004803603604081101561032b57600080fd5b506001600160a01b0381351690602001351515610598565b6101cf6004803603604081101561035957600080fd5b506001600160a01b0381351690602001356105c3565b61012e6105cf565b61020c6004803603602081101561038d57600080fd5b503561062a565b6101cf600480360360408110156103aa57600080fd5b506001600160a01b03813516906020013561063e565b6101cf600480360360408110156103d657600080fd5b506001600160a01b03813516906020013561067a565b61020c6004803603604081101561040257600080fd5b506001600160a01b0381358116916020013516610685565b6101cf6004803603602081101561043057600080fd5b50356001600160a01b03166106b0565b6003805460408051602060026001851615610100026000190190941693909304601f810184900484028201840190925281815292918301828280156104c65780601f1061049b576101008083540402835291602001916104c6565b820191906000526020600020905b8154815290600101906020018083116104a957829003601f168201915b505050505081565b60006104db3384846106ce565b50600192915050565b6007805460ff1916911515919091179055565b60025490565b60075460ff169392505050565b60055460ff1681565b3360008181526001602090815260408083206001600160a01b038716845290915281205490916104db91859061054f908663ffffffff6107c016565b6106ce565b60006104db8383610824565b600061056c3383610917565b506001919050565b60075460ff1681565b6001600160a01b031660009081526020819052604090205490565b6001600160a01b03919091166000908152600660205260409020805460ff1916911515919091179055565b60006104db83836109f3565b6004805460408051602060026001851615610100026000190190941693909304601f810184900484028201840190925281815292918301828280156104c65780601f1061049b576101008083540402835291602001916104c6565b60006106363383610824565b506000919050565b3360008181526001602090815260408083206001600160a01b038716845290915281205490916104db91859061054f908663ffffffff610a3c16565b505060075460ff1690565b6001600160a01b03918216600090815260016020908152604080832093909416825291909152205490565b6001600160a01b031660009081526006602052604090205460ff1690565b6001600160a01b03831661071657604051600160e51b62461bcd028152600401808060200182810382526024815260200180610ae06024913960400191505060405180910390fd5b6001600160a01b03821661075e57604051600160e51b62461bcd028152600401808060200182810382526022815260200180610a9d6022913960400191505060405180910390fd5b6001600160a01b03808416600081815260016020908152604080832094871680845294825291829020859055815185815291517f8c5be1e5ebec7d5bd14f71427d1e84f3dd0314c0f7b2291e5b200ac8c7c3b9259281900390910190a3505050565b60008282018381101561081d5760408051600160e51b62461bcd02815260206004820152601b60248201527f536166654d6174683a206164646974696f6e206f766572666c6f770000000000604482015290519081900360640190fd5b9392505050565b6001600160a01b0382166108825760408051600160e51b62461bcd02815260206004820152601f60248201527f45524332303a206d696e7420746f20746865207a65726f206164647265737300604482015290519081900360640190fd5b600254610895908263ffffffff6107c016565b6002556001600160a01b0382166000908152602081905260409020546108c1908263ffffffff6107c016565b6001600160a01b0383166000818152602081815260408083209490945583518581529351929391927fddf252ad1be2c89b69c2b068fc378daa952ba7f163c4a11628f55a4df523b3ef9281900390910190a35050565b6001600160a01b03821661095f57604051600160e51b62461bcd028152600401808060200182810382526021815260200180610abf6021913960400191505060405180910390fd5b600254610972908263ffffffff610a3c16565b6002556001600160a01b03821660009081526020819052604090205461099e908263ffffffff610a3c16565b6001600160a01b038316600081815260208181526040808320949094558351858152935191937fddf252ad1be2c89b69c2b068fc378daa952ba7f163c4a11628f55a4df523b3ef929081900390910190a35050565b6109fd8282610917565b6001600160a01b038216600090815260016020908152604080832033808552925290912054610a3891849161054f908563ffffffff610a3c16565b5050565b600082821115610a965760408051600160e51b62461bcd02815260206004820152601e60248201527f536166654d6174683a207375627472616374696f6e206f766572666c6f770000604482015290519081900360640190fd5b5090039056fe45524332303a20617070726f766520746f20746865207a65726f206164647265737345524332303a206275726e2066726f6d20746865207a65726f206164647265737345524332303a20617070726f76652066726f6d20746865207a65726f2061646472657373a165627a7a72305820e450572cf9bbf0005ac994ec79da5ad07cb9a78edc2a80c769c603c7960edf840029",
  "source": "pragma solidity 0.5.7;\n\nimport \"../external/openzeppelin-solidity/token/ERC20/ERC20.sol\";\n\n// To branch coverage of token transer\ncontract DummyTokenMock is ERC20 {\n\n    string public name;\n    string public symbol;\n    uint8 public decimals = 18;\n\n    mapping(address=>bool) _dummyBit;\n\n    bool public retBit;\n\n    constructor(string memory tokenName, string memory tokenSymbol) public {\n    \tname = tokenName;\n    \tsymbol = tokenSymbol;\n    }\n\n    function mint(uint256 amount) public returns (uint256) {\n        _mint(msg.sender, amount);\n        return 0;\n    }\n\n    function setRetBit(bool _a) public {\n        retBit = _a;\n    }\n\n     /**\n    * @dev burns an amount of the tokens of the message sender\n    * account.\n    * @param amount The amount that will be burnt.\n    */\n    function burn(uint256 amount) public returns (bool) {\n        _burn(msg.sender, amount);\n        return true;\n    }\n\n    /**\n    * @dev Burns a specific amount of tokens from the target address and decrements allowance\n    * @param from address The address which you want to send tokens from\n    * @param value uint256 The amount of token to be burned\n    */\n    function burnFrom(address from, uint256 value) public returns (bool) {\n        _burnFrom(from, value);\n        return true;\n    }\n\n    /**\n    * @dev Transfer token for a specified address\n    * @param to The address to transfer to.\n    * @param value The amount to be transferred.\n    */\n    function transfer(address to, uint256 value) public returns (bool) {\n\n        // _transfer(msg.sender, to, value); \n        return retBit;\n    }\n\n    /**\n    * @dev Transfer tokens from one address to another\n    * @param from address The address which you want to send tokens from\n    * @param to address The address which you want to transfer to\n    * @param value uint256 the amount of tokens to be transferred\n    */\n    function transferFrom(\n        address from,\n        address to,\n        uint256 value\n    )\n        public\n        returns (bool)\n    {\n        // _transferFrom(from, to, value);\n        return retBit;\n    }\n\n    /**\n    * @dev Gets the balance of the specified address.\n    * @param owner The address to query the balance of.\n    * @return An uint256 representing the amount owned by the passed address.\n    */\n    function balanceOf(address owner) public view returns (uint256) {\n        return _balances[owner];\n    }\n\n    /**\n    * @dev function that mints an amount of the token and assigns it to\n    * an account.\n    * @param account The account that will receive the created tokens.\n    * @param amount The amount that will be created.\n    */\n    function mint(address account, uint256 amount) public returns(bool) {\n        _mint(account, amount);\n        return true;\n    }\n\n    function isLockedForGV(address _of) public view returns(bool) {\n        return _dummyBit[_of];\n    }\n\n    function setDummyBit(address _of, bool _val) public {\n        _dummyBit[_of] = _val;\n    }\n    \n}\n",
  "sourcePath": "/home/madan/Documents/PlotX/PlotxContract/contracts/mock/DummyTokenMock.sol",
  "compiler": {
    "name": "solc",
    "version": "0.5.7+commit.6da8b019.Emscripten.clang"
  },
  "schemaVersion": "3.3.2",
  "updatedAt": "2020-12-10T08:30:25.226Z",
  "devdoc": {
    "methods": {
      "allowance(address,address)": {
        "details": "See `IERC20.allowance`."
      },
      "approve(address,uint256)": {
        "details": "See `IERC20.approve`.     * Requirements:     * - `spender` cannot be the zero address."
      },
      "balanceOf(address)": {
        "details": "Gets the balance of the specified address.",
        "params": {
          "owner": "The address to query the balance of."
        },
        "return": "An uint256 representing the amount owned by the passed address."
      },
      "burn(uint256)": {
        "details": "burns an amount of the tokens of the message sender account.",
        "params": {
          "amount": "The amount that will be burnt."
        }
      },
      "burnFrom(address,uint256)": {
        "details": "Burns a specific amount of tokens from the target address and decrements allowance",
        "params": {
          "from": "address The address which you want to send tokens from",
          "value": "uint256 The amount of token to be burned"
        }
      },
      "decreaseAllowance(address,uint256)": {
        "details": "Atomically decreases the allowance granted to `spender` by the caller.     * This is an alternative to `approve` that can be used as a mitigation for problems described in `IERC20.approve`.     * Emits an `Approval` event indicating the updated allowance.     * Requirements:     * - `spender` cannot be the zero address. - `spender` must have allowance for the caller of at least `subtractedValue`."
      },
      "increaseAllowance(address,uint256)": {
        "details": "Atomically increases the allowance granted to `spender` by the caller.     * This is an alternative to `approve` that can be used as a mitigation for problems described in `IERC20.approve`.     * Emits an `Approval` event indicating the updated allowance.     * Requirements:     * - `spender` cannot be the zero address."
      },
      "mint(address,uint256)": {
        "details": "function that mints an amount of the token and assigns it to an account.",
        "params": {
          "account": "The account that will receive the created tokens.",
          "amount": "The amount that will be created."
        }
      },
      "totalSupply()": {
        "details": "See `IERC20.totalSupply`."
      },
      "transfer(address,uint256)": {
        "details": "Transfer token for a specified address",
        "params": {
          "to": "The address to transfer to.",
          "value": "The amount to be transferred."
        }
      },
      "transferFrom(address,address,uint256)": {
        "details": "Transfer tokens from one address to another",
        "params": {
          "from": "address The address which you want to send tokens from",
          "to": "address The address which you want to transfer to",
          "value": "uint256 the amount of tokens to be transferred"
        }
      }
    }
  },
  "userdoc": {
    "methods": {}
  }
}