{
  "contractName": "Governed",
  "abi": [
    {
      "constant": true,
      "inputs": [],
      "name": "masterAddress",
      "outputs": [
        {
          "name": "",
          "type": "address"
        }
      ],
      "payable": false,
      "stateMutability": "view",
      "type": "function"
    },
    {
      "constant": true,
      "inputs": [
        {
          "name": "_toCheck",
          "type": "address"
        }
      ],
      "name": "isAuthorizedToGovern",
      "outputs": [
        {
          "name": "",
          "type": "bool"
        }
      ],
      "payable": false,
      "stateMutability": "view",
      "type": "function"
    }
  ],
  "bytecode": "0x608060405234801561001057600080fd5b5061016c806100206000396000f3fe608060405234801561001057600080fd5b50600436106100365760003560e01c806322ce72541461003b578063d365a08e14610075575b600080fd5b6100616004803603602081101561005157600080fd5b50356001600160a01b0316610099565b604080519115158252519081900360200190f35b61007d610131565b604080516001600160a01b039092168252519081900360200190f35b6000805460408051600160e31b6227050b028152600160f11b6123ab02600482015290516001600160a01b03928316928516918391630138285891602480820192602092909190829003018186803b1580156100f457600080fd5b505afa158015610108573d6000803e3d6000fd5b505050506040513d602081101561011e57600080fd5b50516001600160a01b0316149392505050565b6000546001600160a01b03168156fea165627a7a7230582095d824a3c08460e2f5953f06911db5893334fca75378c3500e027c2f5d3c8b8d0029",
  "source": "/* Copyright (C) 2017 GovBlocks.io\n  This program is free software: you can redistribute it and/or modify\n    it under the terms of the GNU General Public License as published by\n    the Free Software Foundation, either version 3 of the License, or\n    (at your option) any later version.\n  This program is distributed in the hope that it will be useful,\n    but WITHOUT ANY WARRANTY; without even the implied warranty of\n    MERCHANTABILITY or FITNESS FOR A PARTICULAR PURPOSE.  See the\n    GNU General Public License for more details.\n  You should have received a copy of the GNU General Public License\n    along with this program.  If not, see http://www.gnu.org/licenses/ */\n\npragma solidity 0.5.7;\n\n\ncontract IMaster {\n    mapping(address => bool) public whitelistedSponsor;\n    function dAppToken() public view returns(address);\n    function isInternal(address _address) public view returns(bool);\n    function getLatestAddress(bytes2 _module) public view returns(address);\n    function isAuthorizedToGovern(address _toCheck) public view returns(bool);\n}\n\n\ncontract Governed {\n\n    address public masterAddress; // Name of the dApp, needs to be set by contracts inheriting this contract\n\n    /// @dev modifier that allows only the authorized addresses to execute the function\n    modifier onlyAuthorizedToGovern() {\n        IMaster ms = IMaster(masterAddress);\n        require(ms.getLatestAddress(\"GV\") == msg.sender, \"Not authorized\");\n        _;\n    }\n\n    /// @dev checks if an address is authorized to govern\n    function isAuthorizedToGovern(address _toCheck) public view returns(bool) {\n        IMaster ms = IMaster(masterAddress);\n        return (ms.getLatestAddress(\"GV\") == _toCheck);\n    } \n\n}",
  "sourcePath": "/home/madan/Documents/PlotX/PlotxContract/contracts/external/govblocks-protocol/Governed.sol",
  "compiler": {
    "name": "solc",
    "version": "0.5.7+commit.6da8b019.Emscripten.clang"
  },
  "schemaVersion": "3.3.2",
  "updatedAt": "2020-12-10T08:30:24.962Z",
  "devdoc": {
    "methods": {
      "isAuthorizedToGovern(address)": {
        "details": "checks if an address is authorized to govern"
      }
    }
  },
  "userdoc": {
    "methods": {}
  }
}