{
  "contractName": "Governance",
  "abi": [
    {
      "constant": true,
      "inputs": [
        {
          "name": "",
          "type": "address"
        },
        {
          "name": "",
          "type": "uint256"
        }
      ],
      "name": "memberProposalVote",
      "outputs": [
        {
          "name": "",
          "type": "uint256"
        }
      ],
      "payable": false,
      "stateMutability": "view",
      "type": "function"
    },
    {
      "constant": true,
      "inputs": [
        {
          "name": "",
          "type": "uint256"
        },
        {
          "name": "",
          "type": "address"
        }
      ],
      "name": "isActionRejected",
      "outputs": [
        {
          "name": "",
          "type": "bool"
        }
      ],
      "payable": false,
      "stateMutability": "view",
      "type": "function"
    },
    {
      "constant": true,
      "inputs": [
        {
          "name": "",
          "type": "uint256"
        }
      ],
      "name": "proposalActionStatus",
      "outputs": [
        {
          "name": "",
          "type": "uint256"
        }
      ],
      "payable": false,
      "stateMutability": "view",
      "type": "function"
    },
    {
      "constant": true,
      "inputs": [],
      "name": "tokenHoldingTime",
      "outputs": [
        {
          "name": "",
          "type": "uint256"
        }
      ],
      "payable": false,
      "stateMutability": "view",
      "type": "function"
    },
    {
      "constant": true,
      "inputs": [
        {
          "name": "",
          "type": "uint256"
        },
        {
          "name": "",
          "type": "address"
        }
      ],
      "name": "rewardClaimed",
      "outputs": [
        {
          "name": "",
          "type": "bool"
        }
      ],
      "payable": false,
      "stateMutability": "view",
      "type": "function"
    },
    {
      "constant": true,
      "inputs": [],
      "name": "ms",
      "outputs": [
        {
          "name": "",
          "type": "address"
        }
      ],
      "payable": false,
      "stateMutability": "view",
      "type": "function"
    },
    {
      "constant": true,
      "inputs": [
        {
          "name": "",
          "type": "address"
        }
      ],
      "name": "lastRewardClaimed",
      "outputs": [
        {
          "name": "",
          "type": "uint256"
        }
      ],
      "payable": false,
      "stateMutability": "view",
      "type": "function"
    },
    {
      "constant": true,
      "inputs": [
        {
          "name": "",
          "type": "uint256"
        }
      ],
      "name": "proposalVoteTally",
      "outputs": [
        {
          "name": "voters",
          "type": "uint256"
        }
      ],
      "payable": false,
      "stateMutability": "view",
      "type": "function"
    },
    {
      "anonymous": false,
      "inputs": [
        {
          "indexed": false,
          "name": "proposalId",
          "type": "uint256"
        }
      ],
      "name": "ActionFailed",
      "type": "event"
    },
    {
      "anonymous": false,
      "inputs": [
        {
          "indexed": true,
          "name": "proposalId",
          "type": "uint256"
        },
        {
          "indexed": false,
          "name": "rejectedBy",
          "type": "address"
        }
      ],
      "name": "ActionRejected",
      "type": "event"
    },
    {
      "anonymous": false,
      "inputs": [
        {
          "indexed": true,
          "name": "proposalId",
          "type": "uint256"
        },
        {
          "indexed": true,
          "name": "categorizedBy",
          "type": "address"
        },
        {
          "indexed": false,
          "name": "categoryId",
          "type": "uint256"
        }
      ],
      "name": "ProposalCategorized",
      "type": "event"
    },
    {
      "anonymous": false,
      "inputs": [
        {
          "indexed": true,
          "name": "proposalOwner",
          "type": "address"
        },
        {
          "indexed": true,
          "name": "proposalId",
          "type": "uint256"
        },
        {
          "indexed": false,
          "name": "dateAdd",
          "type": "uint256"
        },
        {
          "indexed": false,
          "name": "proposalTitle",
          "type": "string"
        },
        {
          "indexed": false,
          "name": "proposalSD",
          "type": "string"
        },
        {
          "indexed": false,
          "name": "proposalDescHash",
          "type": "string"
        }
      ],
      "name": "Proposal",
      "type": "event"
    },
    {
      "anonymous": false,
      "inputs": [
        {
          "indexed": true,
          "name": "proposalId",
          "type": "uint256"
        },
        {
          "indexed": true,
          "name": "solutionOwner",
          "type": "address"
        },
        {
          "indexed": true,
          "name": "solutionId",
          "type": "uint256"
        },
        {
          "indexed": false,
          "name": "solutionDescHash",
          "type": "string"
        },
        {
          "indexed": false,
          "name": "dateAdd",
          "type": "uint256"
        }
      ],
      "name": "Solution",
      "type": "event"
    },
    {
      "anonymous": false,
      "inputs": [
        {
          "indexed": true,
          "name": "from",
          "type": "address"
        },
        {
          "indexed": true,
          "name": "proposalId",
          "type": "uint256"
        },
        {
          "indexed": true,
          "name": "voteId",
          "type": "uint256"
        },
        {
          "indexed": false,
          "name": "dateAdd",
          "type": "uint256"
        },
        {
          "indexed": false,
          "name": "solutionChosen",
          "type": "uint256"
        }
      ],
      "name": "Vote",
      "type": "event"
    },
    {
      "anonymous": false,
      "inputs": [
        {
          "indexed": true,
          "name": "member",
          "type": "address"
        },
        {
          "indexed": false,
          "name": "gbtReward",
          "type": "uint256"
        }
      ],
      "name": "RewardClaimed",
      "type": "event"
    },
    {
      "anonymous": false,
      "inputs": [
        {
          "indexed": false,
          "name": "proposalId",
          "type": "uint256"
        }
      ],
      "name": "VoteCast",
      "type": "event"
    },
    {
      "anonymous": false,
      "inputs": [
        {
          "indexed": false,
          "name": "proposalId",
          "type": "uint256"
        }
      ],
      "name": "ProposalAccepted",
      "type": "event"
    },
    {
      "anonymous": false,
      "inputs": [
        {
          "indexed": true,
          "name": "proposalId",
          "type": "uint256"
        },
        {
          "indexed": false,
          "name": "time",
          "type": "uint256"
        }
      ],
      "name": "CloseProposalOnTime",
      "type": "event"
    },
    {
      "anonymous": false,
      "inputs": [
        {
          "indexed": false,
          "name": "proposalId",
          "type": "uint256"
        }
      ],
      "name": "ActionSuccess",
      "type": "event"
    },
    {
      "constant": false,
      "inputs": [
        {
          "name": "_proposalTitle",
          "type": "string"
        },
        {
          "name": "_proposalSD",
          "type": "string"
        },
        {
          "name": "_proposalDescHash",
          "type": "string"
        },
        {
          "name": "_categoryId",
          "type": "uint256"
        }
      ],
      "name": "createProposal",
      "outputs": [],
      "payable": false,
      "stateMutability": "nonpayable",
      "type": "function"
    },
    {
      "constant": false,
      "inputs": [
        {
          "name": "_proposalId",
          "type": "uint256"
        },
        {
          "name": "_categoryId",
          "type": "uint256"
        },
        {
          "name": "_incentive",
          "type": "uint256"
        }
      ],
      "name": "categorizeProposal",
      "outputs": [],
      "payable": false,
      "stateMutability": "nonpayable",
      "type": "function"
    },
    {
      "constant": false,
      "inputs": [
        {
          "name": "_proposalId",
          "type": "uint256"
        },
        {
          "name": "_solutionHash",
          "type": "string"
        },
        {
          "name": "_action",
          "type": "bytes"
        }
      ],
      "name": "submitProposalWithSolution",
      "outputs": [],
      "payable": false,
      "stateMutability": "nonpayable",
      "type": "function"
    },
    {
      "constant": false,
      "inputs": [
        {
          "name": "_proposalTitle",
          "type": "string"
        },
        {
          "name": "_proposalSD",
          "type": "string"
        },
        {
          "name": "_proposalDescHash",
          "type": "string"
        },
        {
          "name": "_categoryId",
          "type": "uint256"
        },
        {
          "name": "_solutionHash",
          "type": "string"
        },
        {
          "name": "_action",
          "type": "bytes"
        }
      ],
      "name": "createProposalwithSolution",
      "outputs": [],
      "payable": false,
      "stateMutability": "nonpayable",
      "type": "function"
    },
    {
      "constant": false,
      "inputs": [
        {
          "name": "_proposalId",
          "type": "uint256"
        },
        {
          "name": "_solutionChosen",
          "type": "uint256"
        }
      ],
      "name": "submitVote",
      "outputs": [],
      "payable": false,
      "stateMutability": "nonpayable",
      "type": "function"
    },
    {
      "constant": false,
      "inputs": [
        {
          "name": "_proposalId",
          "type": "uint256"
        }
      ],
      "name": "closeProposal",
      "outputs": [],
      "payable": false,
      "stateMutability": "nonpayable",
      "type": "function"
    },
    {
      "constant": false,
      "inputs": [
        {
          "name": "_memberAddress",
          "type": "address"
        },
        {
          "name": "_maxRecords",
          "type": "uint256"
        }
      ],
      "name": "claimReward",
      "outputs": [
        {
          "name": "pendingDAppReward",
          "type": "uint256"
        }
      ],
      "payable": false,
      "stateMutability": "nonpayable",
      "type": "function"
    },
    {
      "constant": false,
      "inputs": [
        {
          "name": "_proposalId",
          "type": "uint256"
        }
      ],
      "name": "triggerAction",
      "outputs": [],
      "payable": false,
      "stateMutability": "nonpayable",
      "type": "function"
    },
    {
      "constant": false,
      "inputs": [
        {
          "name": "_proposalId",
          "type": "uint256"
        }
      ],
      "name": "rejectAction",
      "outputs": [],
      "payable": false,
      "stateMutability": "nonpayable",
      "type": "function"
    },
    {
      "constant": true,
      "inputs": [
        {
          "name": "code",
          "type": "bytes8"
        }
      ],
      "name": "getUintParameters",
      "outputs": [
        {
          "name": "codeVal",
          "type": "bytes8"
        },
        {
          "name": "val",
          "type": "uint256"
        }
      ],
      "payable": false,
      "stateMutability": "view",
      "type": "function"
    },
    {
      "constant": true,
      "inputs": [
        {
          "name": "_proposalId",
          "type": "uint256"
        }
      ],
      "name": "proposal",
      "outputs": [
        {
          "name": "proposalId",
          "type": "uint256"
        },
        {
          "name": "category",
          "type": "uint256"
        },
        {
          "name": "status",
          "type": "uint256"
        },
        {
          "name": "finalVerdict",
          "type": "uint256"
        },
        {
          "name": "totalRewar",
          "type": "uint256"
        }
      ],
      "payable": false,
      "stateMutability": "view",
      "type": "function"
    },
    {
      "constant": true,
      "inputs": [
        {
          "name": "_proposalId",
          "type": "uint256"
        }
      ],
      "name": "proposalDetails",
      "outputs": [
        {
          "name": "",
          "type": "uint256"
        },
        {
          "name": "",
          "type": "uint256"
        },
        {
          "name": "",
          "type": "uint256"
        }
      ],
      "payable": false,
      "stateMutability": "view",
      "type": "function"
    },
    {
      "constant": true,
      "inputs": [
        {
          "name": "_proposalId",
          "type": "uint256"
        },
        {
          "name": "_solution",
          "type": "uint256"
        }
      ],
      "name": "getSolutionAction",
      "outputs": [
        {
          "name": "",
          "type": "uint256"
        },
        {
          "name": "",
          "type": "bytes"
        }
      ],
      "payable": false,
      "stateMutability": "view",
      "type": "function"
    },
    {
      "constant": true,
      "inputs": [],
      "name": "getProposalLength",
      "outputs": [
        {
          "name": "",
          "type": "uint256"
        }
      ],
      "payable": false,
      "stateMutability": "view",
      "type": "function"
    },
    {
      "constant": true,
      "inputs": [
        {
          "name": "_memberAddress",
          "type": "address"
        }
      ],
      "name": "getPendingReward",
      "outputs": [
        {
          "name": "pendingDAppReward",
          "type": "uint256"
        }
      ],
      "payable": false,
      "stateMutability": "view",
      "type": "function"
    },
    {
      "constant": false,
      "inputs": [
        {
          "name": "code",
          "type": "bytes8"
        },
        {
          "name": "val",
          "type": "uint256"
        }
      ],
      "name": "updateUintParameters",
      "outputs": [],
      "payable": false,
      "stateMutability": "nonpayable",
      "type": "function"
    },
    {
      "constant": false,
      "inputs": [],
      "name": "setMasterAddress",
      "outputs": [],
      "payable": false,
      "stateMutability": "nonpayable",
      "type": "function"
    },
    {
      "constant": true,
      "inputs": [
        {
          "name": "category",
          "type": "uint256"
        }
      ],
      "name": "allowedToCreateProposal",
      "outputs": [
        {
          "name": "check",
          "type": "bool"
        }
      ],
      "payable": false,
      "stateMutability": "view",
      "type": "function"
    },
    {
      "constant": true,
      "inputs": [],
      "name": "allowedToCategorize",
      "outputs": [
        {
          "name": "check",
          "type": "bool"
        }
      ],
      "payable": false,
      "stateMutability": "view",
      "type": "function"
    },
    {
      "constant": true,
      "inputs": [
        {
          "name": "_proposalId",
          "type": "uint256"
        }
      ],
      "name": "canCloseProposal",
      "outputs": [
        {
          "name": "",
          "type": "uint256"
        }
      ],
      "payable": false,
      "stateMutability": "view",
      "type": "function"
    },
    {
      "constant": true,
      "inputs": [],
      "name": "allowedToCatgorize",
      "outputs": [
        {
          "name": "roleId",
          "type": "uint256"
        }
      ],
      "payable": false,
      "stateMutability": "view",
      "type": "function"
    },
    {
      "constant": true,
      "inputs": [
        {
          "name": "_proposalId",
          "type": "uint256"
        },
        {
          "name": "_solution",
          "type": "uint256"
        }
      ],
      "name": "voteTallyData",
      "outputs": [
        {
          "name": "",
          "type": "uint256"
        },
        {
          "name": "",
          "type": "uint256"
        },
        {
          "name": "",
          "type": "uint256"
        }
      ],
      "payable": false,
      "stateMutability": "view",
      "type": "function"
    }
  ],
  "bytecode": "0x608060405234801561001057600080fd5b50614c13806100206000396000f3fe608060405234801561001057600080fd5b50600436106101da5760003560e01c80634f615512116101045780639dd86e0f116100a2578063bcc81c0c11610071578063bcc81c0c1461092e578063c5d2eade1461094b578063e0429d0914610968578063eeff91881461098e576101da565b80639dd86e0f146108b85780639ed1c7db146108e5578063a0b2d57f14610902578063aaf86c3014610926576101da565b80636edde0bd116100de5780636edde0bd1461079f5780636f93bfb7146107c857806372870786146107eb5780638263a938146108b0576101da565b80634f6155121461072057806353fb6c5c146107285780636122f84014610754576101da565b80631d35ab491161017c57806339bb96071161014b57806339bb9607146105dc5780634b6199b0146105e45780634c15676b146105ec5780634df9d6ba146106fa576101da565b80631d35ab49146104b85780632b4b16b1146104d55780632f54243a146104f257806330326c1714610594576101da565b80630fec1dec116101b85780630fec1dec1461027c57806316e9eaec146102bd57806316fdc34e146102da578063174e31c41461048c576101da565b80630386a016146101df578063060225f6146101fe578063080ad64e1461023c575b600080fd5b6101fc600480360360208110156101f557600080fd5b50356109ab565b005b61022a6004803603604081101561021457600080fd5b506001600160a01b038135169060200135610a57565b60408051918252519081900360200190f35b6102686004803603604081101561025257600080fd5b50803590602001356001600160a01b0316610a74565b604080519115158252519081900360200190f35b61029f6004803603604081101561029257600080fd5b5080359060200135610a94565b60408051938452602084019290925282820152519081900360600190f35b61029f600480360360208110156102d357600080fd5b5035610ac8565b6101fc600480360360c08110156102f057600080fd5b810190602081018135600160201b81111561030a57600080fd5b82018360208201111561031c57600080fd5b803590602001918460018302840111600160201b8311171561033d57600080fd5b919390929091602081019035600160201b81111561035a57600080fd5b82018360208201111561036c57600080fd5b803590602001918460018302840111600160201b8311171561038d57600080fd5b919390929091602081019035600160201b8111156103aa57600080fd5b8201836020820111156103bc57600080fd5b803590602001918460018302840111600160201b831117156103dd57600080fd5b91939092823592604081019060200135600160201b8111156103fe57600080fd5b82018360208201111561041057600080fd5b803590602001918460018302840111600160201b8311171561043157600080fd5b919390929091602081019035600160201b81111561044e57600080fd5b82018360208201111561046057600080fd5b803590602001918460018302840111600160201b8311171561048157600080fd5b509092509050610aeb565b61022a600480360360408110156104a257600080fd5b506001600160a01b038135169060200135610c96565b61022a600480360360208110156104ce57600080fd5b5035610ebf565b6101fc600480360360208110156104eb57600080fd5b5035610ed1565b6105156004803603604081101561050857600080fd5b50803590602001356110ee565b6040518083815260200180602001828103825283818151815260200191508051906020019080838360005b83811015610558578181015183820152602001610540565b50505050905090810190601f1680156105855780820380516001836020036101000a031916815260200191505b50935050505060405180910390f35b6105b1600480360360208110156105aa57600080fd5b50356111b1565b6040805195865260208601949094528484019290925260608401526080830152519081900360a00190f35b61022a6111da565b6101fc6111e0565b6101fc6004803603608081101561060257600080fd5b810190602081018135600160201b81111561061c57600080fd5b82018360208201111561062e57600080fd5b803590602001918460018302840111600160201b8311171561064f57600080fd5b919390929091602081019035600160201b81111561066c57600080fd5b82018360208201111561067e57600080fd5b803590602001918460018302840111600160201b8311171561069f57600080fd5b919390929091602081019035600160201b8111156106bc57600080fd5b8201836020820111156106ce57600080fd5b803590602001918460018302840111600160201b831117156106ef57600080fd5b9193509150356115bd565b61022a6004803603602081101561071057600080fd5b50356001600160a01b0316611784565b6102686118fa565b6102686004803603604081101561073e57600080fd5b50803590602001356001600160a01b0316611984565b61077b6004803603602081101561076a57600080fd5b50356001600160c01b0319166119a4565b604080516001600160c01b0319909316835260208301919091528051918290030190f35b6101fc600480360360608110156107b557600080fd5b5080359060208101359060400135611af7565b6101fc600480360360408110156107de57600080fd5b5080359060200135611c5c565b6101fc6004803603606081101561080157600080fd5b81359190810190604081016020820135600160201b81111561082257600080fd5b82018360208201111561083457600080fd5b803590602001918460018302840111600160201b8311171561085557600080fd5b919390929091602081019035600160201b81111561087257600080fd5b82018360208201111561088457600080fd5b803590602001918460018302840111600160201b831117156108a557600080fd5b509092509050611cd7565b61022a611dca565b6101fc600480360360408110156108ce57600080fd5b506001600160c01b03198135169060200135611dd0565b610268600480360360208110156108fb57600080fd5b5035611fef565b61090a6121e8565b604080516001600160a01b039092168252519081900360200190f35b61022a6121f7565b61022a6004803603602081101561094457600080fd5b50356121fd565b6101fc6004803603602081101561096157600080fd5b5035612503565b61022a6004803603602081101561097e57600080fd5b50356001600160a01b03166125a0565b61022a600480360360208110156109a457600080fd5b50356125b2565b60008181526001602052604090206002810154600e54600490920154909142916109da9163ffffffff6125c716565b111580156109f657506002600083815260016020526040902054105b15610a3457610a078260055b61262d565b601454600083815260016020526040902060030154610a2f916001600160a01b03169061266b565b610a53565b610a3d826121fd565b600114610a4957600080fd5b610a5382826126fa565b5050565b600560209081526000928352604080842090915290825290205481565b601a60209081526000928352604080842090915290825290205460ff1681565b6000828152600660208181526040808420948452848252808420546001860183529084205495909352526002909101549092565b600081815260026020818152604080842054600690925290922001549192909190565b84610af581611fef565b610b3a5760408051600160e51b62461bcd02815260206004820152600b6024820152600160aa1b6a139bdd08185b1b1bddd95902604482015290519081900360640190fd5b600d54604080516020601f8f018190048102820181019092528d8152610c06918f908f9081908401838280828437600081840152601f19601f820116905080830192505050505050508c8c8080601f016020809104026020016040519081016040528093929190818152602001838380828437600081840152601f19601f820116905080830192505050505050508b8b8080601f0160208091040260200160405190810160405280939291908181526020018383808284376000920191909152508d9250612b8a915050565b60008711610c1357600080fd5b610c878187878080601f01602080910402602001604051908101604052809392919081815260200183838082843760009201919091525050604080516020601f8b018190048102820181019092528981529250899150889081908401838280828437600092019190915250612f6592505050565b50505050505050505050505050565b6001600160a01b038216600090815260036020908152604080832054600790925282205482918291819083905b8381108015610cd157508782105b15610e1f576001600160a01b0389166000908152600360205260409020805482908110610cfa57fe5b9060005260206000200154955060008681548110610d1457fe5b906000526020600020906005020160010154945060006006600087815260200190815260200160002060020154118015610d5c57506002600086815260016020526040902054115b15610e0b5760008681526004602090815260408083206001600160a01b038d16845290915290205460ff16610e0657600085815260066020908152604080832060020154600190925290912060030154610dcd91610dc0919063ffffffff6131f716565b889063ffffffff6125c716565b60008781526004602090815260408083206001600160a01b038e1684529091529020805460ff1916600190811790915590975091909101905b610e17565b83831415610e17578092505b600101610cc3565b83831415610e47576001600160a01b0389166000908152600760205260409020819055610e63565b6001600160a01b03891660009081526007602052604090208390555b8115610eb357610e73898861266b565b6040805188815290516001600160a01b038b16917f106f923f993c2149d49b4255ff723acafa1f2d94393f561d3eda32ae348f7241919081900360200190a25b50505050505092915050565b60186020526000908152604090205481565b60135460105460408051600160e01b63505ef22f0281523360048201526024810192909252516001600160a01b039092169163505ef22f91604480820192602092909190829003018186803b158015610f2957600080fd5b505afa158015610f3d573d6000803e3d6000fd5b505050506040513d6020811015610f5357600080fd5b50518015610f6e575060008181526019602052604090205442105b610f7757600080fd5b600160008281526018602052604090205414610f9257600080fd5b6000818152601a6020908152604080832033845290915290205460ff1615610fb957600080fd5b6000818152601a6020908152604080832033808552908352818420805460ff19166001908117909155858552601b845293829020805490940190935580519283525183927f56bdda336a8bb949a57770a7cde5b62bd8913d11d9dde767735db889a609692f92908290030190a2600f5460135460105460408051600160e01b630dc6f8470281526004810192909252516110d4926001600160a01b031691630dc6f847916024808301926020929190829003018186803b15801561107c57600080fd5b505afa158015611090573d6000803e3d6000fd5b505050506040513d60208110156110a657600080fd5b50516000848152601b60205260409020546110c890606463ffffffff61326416565b9063ffffffff6131f716565b106110eb5760026000828152601860205260409020555b50565b6000828152600260205260408120805460609184918290811061110d57fe5b600091825260209182902001805460408051601f60026000196101006001871615020190941693909304928301859004850281018501909152818152919283919083018282801561119f5780601f106111745761010080835404028352916020019161119f565b820191906000526020600020905b81548152906001019060200180831161118257829003601f168201915b50505050509050915091509250929050565b600081815260016020819052604090912060028101548154928201546003909201549394909390565b60095481565b6000309050806001600160a01b031663025313a26040518163ffffffff1660e01b815260040160206040518083038186803b15801561121e57600080fd5b505afa158015611232573d6000803e3d6000fd5b505050506040513d602081101561124857600080fd5b50516001600160a01b031633146112a95760408051600160e51b62461bcd02815260206004820152601a60248201527f53656e646572206973206e6f742070726f7879206f776e65722e000000000000604482015290519081900360640190fd5b60085460ff16156112b957600080fd5b6112c16132c0565b601280546001600160a01b03191633179081905560408051600160e01b63eaf2c47702815290516001600160a01b03929092169163eaf2c47791600480820192602092909190829003018186803b15801561131b57600080fd5b505afa15801561132f573d6000803e3d6000fd5b505050506040513d602081101561134557600080fd5b5051601680546001600160a01b0319166001600160a01b0392831617905560125460408051600160e31b6227050b028152600160f11b6126a9026004820152905191909216916301382858916024808301926020929190829003018186803b1580156113b057600080fd5b505afa1580156113c4573d6000803e3d6000fd5b505050506040513d60208110156113da57600080fd5b5051601380546001600160a01b0319166001600160a01b0392831617905560125460408051600160e31b6227050b028152600160f01b615043026004820152905191909216916301382858916024808301926020929190829003018186803b15801561144557600080fd5b505afa158015611459573d6000803e3d6000fd5b505050506040513d602081101561146f57600080fd5b5051601580546001600160a01b0319166001600160a01b0392831617905560125460408051600160e31b6227050b028152600160f01b615443026004820152905191909216916301382858916024808301926020929190829003018186803b1580156114da57600080fd5b505afa1580156114ee573d6000803e3d6000fd5b505050506040513d602081101561150457600080fd5b5051601780546001600160a01b0319166001600160a01b0392831617905560125460408051600160e31b6227050b028152600160f21b611413026004820152905191909216916301382858916024808301926020929190829003018186803b15801561156f57600080fd5b505afa158015611583573d6000803e3d6000fd5b505050506040513d602081101561159957600080fd5b5051601480546001600160a01b0319166001600160a01b0390921691909117905550565b806115c781611fef565b61160c5760408051600160e51b62461bcd02815260206004820152600b6024820152600160aa1b6a139bdd08185b1b1bddd95902604482015290519081900360640190fd5b60135460408051600160e01b63505ef22f0281523360048201526002602482015290516001600160a01b039092169163505ef22f91604480820192602092909190829003018186803b15801561166157600080fd5b505afa158015611675573d6000803e3d6000fd5b505050506040513d602081101561168b57600080fd5b50516116d15760408051600160e51b62461bcd02815260206004820152600a6024820152600160b11b692737ba1026b2b6b132b902604482015290519081900360640190fd5b61177a88888080601f01602080910402602001604051908101604052809392919081815260200183838082843760009201919091525050604080516020601f8c018190048102820181019092528a815292508a915089908190840183828082843760009201919091525050604080516020601f8b018190048102820181019092528981529250899150889081908401838280828437600092019190915250889250612b8a915050565b5050505050505050565b6001600160a01b03811660009081526007602052604081205481905b6001600160a01b0384166000908152600360205260409020548110156118f3576001600160a01b038416600090815260036020526040812080546004929190849081106117e957fe5b6000918252602080832090910154835282810193909352604091820181206001600160a01b038816825290925290205460ff166118eb576001600160a01b038416600090815260036020526040812080548390811061184457fe5b90600052602060002001548154811061185957fe5b9060005260206000209060050201600101549150600060066000848152602001908152602001600020600201541180156118a157506002600083815260016020526040902054115b156118eb576000828152600660209081526040808320600201546001909252909120600301546118e8916118db919063ffffffff6131f716565b849063ffffffff6125c716565b92505b6001016117a0565b5050919050565b601354600a5460408051600160e01b63505ef22f0281523360048201526024810192909252516000926001600160a01b03169163505ef22f916044808301926020929190829003018186803b15801561195257600080fd5b505afa158015611966573d6000803e3d6000fd5b505050506040513d602081101561197c57600080fd5b505190505b90565b600460209081526000928352604080842090915290825290205460ff1681565b806000600160ca1b6611d3d59213d311026001600160c01b0319831614156119dc5762015180600954816119d457fe5b049050611af2565b600160ca1b6613505611149195026001600160c01b031984161415611a095762015180600e54816119d457fe5b600160e21b631050d5d5026001600160c01b031984161415611a3257610e10601c54816119d457fe5b600160cb1b660a48a9482aaa89026001600160c01b031984161415611a5a5750601054611af2565b600160c21b6714915290d3d55395026001600160c01b031984161415611a835750600f54611af2565b600160d81b644d41585657026001600160c01b031984161415611aa95750600b54611af2565b600160d91b6420a126a0a5026001600160c01b031984161415611acf5750600c54611af2565b600160d11b65222928aaa6a9026001600160c01b031984161415611af257506011545b915091565b82600260008281526001602052604090205410611b1357600080fd5b611b1b6118fa565b611b2457600080fd5b60155460408051600160e01b6357c7bec102815260048101869052905184926060926001600160a01b03909116916357c7bec191602480820192600092909190829003018186803b158015611b7857600080fd5b505afa158015611b8c573d6000803e3d6000fd5b505050506040513d6000823e601f3d908101601f191682016040526020811015611bb557600080fd5b810190808051600160201b811115611bcc57600080fd5b82016020810184811115611bdf57600080fd5b8151600160201b811182820187101715611bf857600080fd5b5050604080516004815260248101909152602080820180516001600160e01b0316600160e41b630c578f2302178152915190912082519183019190912091955014159250611c4891505057600091505b611c5486868484613416565b505050505050565b600260008381526001602052604090205414611cb35760408051600160e51b62461bcd02815260206004820152600b6024820152600160aa1b6a139bdd08185b1b1bddd95902604482015290519081900360640190fd5b6000828152600260205260409020548110611ccd57600080fd5b610a538282613627565b60008581526001602052604090206006015485906001600160a01b03163314611d3b5760408051600160e51b62461bcd02815260206004820152600b6024820152600160aa1b6a139bdd08185b1b1bddd95902604482015290519081900360640190fd5b600160008781526001602052604090205414611d5657600080fd5b611c548686868080601f01602080910402602001604051908101604052809392919081815260200183838082843760009201919091525050604080516020601f8a018190048102820181019092528881529250889150879081908401838280828437600092019190915250612f6592505050565b600d5490565b60125460408051600160e21b6308b39c9502815233600482015290516001600160a01b03909216916322ce725491602480820192602092909190829003018186803b158015611e1e57600080fd5b505afa158015611e32573d6000803e3d6000fd5b505050506040513d6020811015611e4857600080fd5b5051611e5357600080fd5b600160ca1b6611d3d59213d311026001600160c01b031983161415611e8057620151808102600955610a53565b600160ca1b6613505611149195026001600160c01b031983161415611ead57620151808102600e55610a53565b600160e21b631050d5d5026001600160c01b031983161415611ed657610e108102601c55610a53565b600160cb1b660a48a9482aaa89026001600160c01b031983161415611eff576010819055610a53565b600160c21b6714915290d3d55395026001600160c01b031983161415611f2957600f819055610a53565b600160d81b644d41585657026001600160c01b031983161415611f5057600b819055610a53565b600160d91b6420a126a0a5026001600160c01b031983161415611f7757600c819055610a53565b600160d11b65222928aaa6a9026001600160c01b031983161415611f9f576011819055610a53565b60408051600160e51b62461bcd02815260206004820152600c60248201527f496e76616c696420636f64650000000000000000000000000000000000000000604482015290519081900360640190fd5b600081611ffe575060016121e3565b60155460408051600160e01b63253eca1f0281526004810185905290516060926001600160a01b03169163253eca1f916024808301926000929190829003018186803b15801561204d57600080fd5b505afa158015612061573d6000803e3d6000fd5b505050506040513d6000823e601f3d908101601f1916820160405260e081101561208a57600080fd5b815160208301516040840151606085015160808601805194969395929491939283019291600160201b8111156120bf57600080fd5b820160208101848111156120d257600080fd5b81518560208202830111600160201b821117156120ee57600080fd5b5090985060009750505050505050505b81518110156118f35781818151811061211357fe5b6020026020010151600014806121cb575060135482516001600160a01b039091169063505ef22f90339085908590811061214957fe5b60200260200101516040518363ffffffff1660e01b815260040180836001600160a01b03166001600160a01b031681526020018281526020019250505060206040518083038186803b15801561219e57600080fd5b505afa1580156121b2573d6000803e3d6000fd5b505050506040513d60208110156121c857600080fd5b50515b156121db576001925050506121e3565b6001016120fe565b919050565b6012546001600160a01b031681565b600a5490565b60008181526001602052604080822080546004808301546015546002909401548551600160e01b63253eca1f02815292830152935191928592839283926001600160a01b03169163253eca1f916024808201928692909190829003018186803b15801561226957600080fd5b505afa15801561227d573d6000803e3d6000fd5b505050506040513d6000823e601f3d908101601f1916820160405260e08110156122a657600080fd5b815160208301516040840151606085015160808601805194969395929491939283019291600160201b8111156122db57600080fd5b820160208101848111156122ee57600080fd5b81518560208202830111600160201b8211171561230a57600080fd5b5050506020015198509396509194506002935061232692505050565b8414156124d45760135460408051600160e01b630dc6f8470281526004810185905290516000926001600160a01b031691630dc6f847916024808301926020929190829003018186803b15801561237c57600080fd5b505afa158015612390573d6000803e3d6000fd5b505050506040513d60208110156123a657600080fd5b5051905060018314156124525760008881526006602090815260408083206001845290915290205482906123e79083906110c890606463ffffffff61326416565b10158061241f575060008881526006602090815260408083208380529091528082205460018352912054829161241d91906125c7565b145b80612439575042612436878663ffffffff6125c716565b11155b1561244d57600196505050505050506121e3565b6124ce565b60028314806124615750600383145b1561248b5742612477878663ffffffff6125c716565b1161244d57600196505050505050506121e3565b600088815260066020526040902060020154811115806124ba5750426124b7878663ffffffff6125c716565b11155b156124ce57600196505050505050506121e3565b506124f9565b60028411156124eb576002955050505050506121e3565b6000955050505050506121e3565b5050505050919050565b600160008281526018602052604090205414801561252f57506000818152601960205260409020544210155b6125835760408051600160e51b62461bcd02815260206004820152600e60248201527f43616e6e6f742074726967676572000000000000000000000000000000000000604482015290519081900360640190fd5b6000818152600160205260409020600201546110eb908290613ab2565b60076020526000908152604090205481565b60066020526000908152604090206002015481565b6000828201838110156126245760408051600160e51b62461bcd02815260206004820152601b60248201527f536166654d6174683a206164646974696f6e206f766572666c6f770000000000604482015290519081900360640190fd5b90505b92915050565b600481148061263c5750600581145b156126535760046000838152601860205260409020555b60009182526001602052604090912042600482015555565b8015610a535760165460408051600160e01b63a9059cbb0281526001600160a01b038581166004830152602482018590529151919092169163a9059cbb9160448083019260209291908290030181600087803b1580156126ca57600080fd5b505af11580156126de573d6000803e3d6000fd5b505050506040513d60208110156126f457600080fd5b50505050565b60155460408051600160e01b63253eca1f02815260048101849052905160009283926001600160a01b039091169163253eca1f916024808201928692909190829003018186803b15801561274d57600080fd5b505afa158015612761573d6000803e3d6000fd5b505050506040513d6000823e601f3d908101601f1916820160405260e081101561278a57600080fd5b815160208301516040840151606085015160808601805194969395929491939283019291600160201b8111156127bf57600080fd5b820160208101848111156127d257600080fd5b81518560208202830111600160201b821117156127ee57600080fd5b505060155460408051600160e01b6357c7bec1028152600481018e90529051979b50979950606098506001600160a01b0316966357c7bec19660248083019750600096509094509084900301915082905086803b15801561284e57600080fd5b505afa158015612862573d6000803e3d6000fd5b505050506040513d6000823e601f3d908101601f19168201604052602081101561288b57600080fd5b810190808051600160201b8111156128a257600080fd5b820160208101848111156128b557600080fd5b8151600160201b8111828201871017156128ce57600080fd5b505092919050505090506128e28585613ea9565b1561294f576000858152600160208181526040808420600501546006835281852093855292909152909120548491612925916110c890606463ffffffff61326416565b1061293f5761293a8560035b86600186614348565b61294a565b61294a856004610a02565b612a66565b604080516004815260248101909152602080820180516001600160e01b0316600160e01b630357e76f02178152915190912082519183019190912014801590612999575060018214155b8015612a4b5750600c54601354612a48906001600160a01b0316630dc6f84760016040518263ffffffff1660e01b81526004018082815260200191505060206040518083038186803b1580156129ee57600080fd5b505afa158015612a02573d6000803e3d6000fd5b505050506040513d6020811015612a1857600080fd5b505160008881526006602090815260408083206001808552019091529020546110c890606463ffffffff61326416565b10155b15612a5b5761294a856003612931565b612a66856005610a02565b60036000868152600160205260409020541115612b2757604080516004815260248101909152602080820180516001600160e01b0316600160e01b630357e76f0217815291519091208251918301919091201415612b275760145460408051600160e01b63a138ca3d0281526004810188905290516001600160a01b039092169163a138ca3d9160248082019260009290919082900301818387803b158015612b0e57600080fd5b505af1158015612b22573d6000803e3d6000fd5b505050505b600085815260066020526040902060020154158015612b56575060008581526001602052604090206003015415155b15612b8357601454600086815260016020526040902060030154612b83916001600160a01b03169061266b565b5050505050565b600d5460008181526001602081815260408084206006810180546001600160a01b03191633179055426004909101556002825280842080549384018082559085528285208251938401928390529285905293612bea939290920191614b2e565b5050600d805460010190556040805142808252608060208084018281528a51928501929092528951869533957f470106408ef1beec24fa0f364830357ef2a70d11457aa4eb9b30b1bbc0172abe95948d948d948d94840191606085019160a086019189019080838360005b83811015612c6d578181015183820152602001612c55565b50505050905090810190601f168015612c9a5780820380516001836020036101000a031916815260200191505b50848103835286518152865160209182019188019080838360005b83811015612ccd578181015183820152602001612cb5565b50505050905090810190601f168015612cfa5780820380516001836020036101000a031916815260200191505b50848103825285518152855160209182019187019080838360005b83811015612d2d578181015183820152602001612d15565b50505050905090810190601f168015612d5a5780820380516001836020036101000a031916815260200191505b5097505050505050505060405180910390a38115612b835760155460408051600160e21b63352aabed0281526004810185905290516000926060926001600160a01b039091169163d4aaafb4916024808201928792909190829003018186803b158015612dc657600080fd5b505afa158015612dda573d6000803e3d6000fd5b505050506040513d6000823e601f3d908101601f1916820160405260a0811015612e0357600080fd5b815160208301516040840151606085015160808601805194969395929491939283019291600160201b811115612e3857600080fd5b82016020810184811115612e4b57600080fd5b8151600160201b811182820187101715612e6457600080fd5b505092919050505094509450505050612e7b6118fa565b80612ebe5750604080516004815260248101909152602080820180516001600160e01b0316600160e01b630357e76f021781529151909120825191830191909120145b80612f015750604080516004815260248101909152602080820180516001600160e01b0316600160e41b630c578f23021781529151909120825191830191909120145b612f0a57600080fd5b604080516004815260248101909152602080820180516001600160e01b0316600160e41b630c578f230217815291519091208251918301919091201415612f5057600091505b612f5c83858484613416565b50505050505050565b600083815260016020526040808220600201546015548251600160e01b6357c7bec102815260048101839052925191936001600160a01b03909116926357c7bec19260248083019392829003018186803b158015612fc257600080fd5b505afa158015612fd6573d6000803e3d6000fd5b505050506040513d6000823e601f3d908101601f191682016040526020811015612fff57600080fd5b810190808051600160201b81111561301657600080fd5b8201602081018481111561302957600080fd5b8151600160201b81118282018710171561304257600080fd5b5050511515925061309491505057815160208301207fc5d2460186f7233c927e7db2dcc703c0e500b653ca82273b7bfad8045d85a4701461308257600080fd5b60046000858152601860205260409020555b61309f848385614570565b6130aa846002610a02565b60155460408051600160e01b63253eca1f0281526004810184905290516000926001600160a01b03169163253eca1f9160248083019286929190829003018186803b1580156130f857600080fd5b505afa15801561310c573d6000803e3d6000fd5b505050506040513d6000823e601f3d908101601f1916820160405260e081101561313557600080fd5b815160208301516040840151606085015160808601805194969395929491939283019291600160201b81111561316a57600080fd5b8201602081018481111561317d57600080fd5b81518560208202830111600160201b8211171561319957600080fd5b5050506020015196508a95507fc5be51db6c7799c3f641eecd22b62761981da3190ac6d1d306bc36724356625894506131df93508692504291505063ffffffff6125c716565b60408051918252519081900360200190a25050505050565b60008082116132505760408051600160e51b62461bcd02815260206004820152601a60248201527f536166654d6174683a206469766973696f6e206279207a65726f000000000000604482015290519081900360640190fd5b600082848161325b57fe5b04949350505050565b60008261327357506000612627565b8282028284828161328057fe5b041461262457604051600160e51b62461bcd028152600401808060200182810382526021815260200180614bc76021913960400191505060405180910390fd5b6040805160a081018252600080825260208201818152928201818152606083018281526080840183815283546001808201865594805294517f290decd9548b62a8d60345a988386fc84ba6bc95484008f6362f93160ef3e563600590960295860180546001600160a01b0319166001600160a01b0390921691909117905594517f290decd9548b62a8d60345a988386fc84ba6bc95484008f6362f93160ef3e56485015590517f290decd9548b62a8d60345a988386fc84ba6bc95484008f6362f93160ef3e565840155517f290decd9548b62a8d60345a988386fc84ba6bc95484008f6362f93160ef3e56683015591517f290decd9548b62a8d60345a988386fc84ba6bc95484008f6362f93160ef3e56790910155600d8190556203f4806009556008805460ff191682179055600a5562015180601c556001601055603c600f8190556005600b819055600c91909155601155565b60008311801561349e5750601560009054906101000a90046001600160a01b03166001600160a01b03166339275b0a6040518163ffffffff1660e01b815260040160206040518083038186803b15801561346f57600080fd5b505afa158015613483573d6000803e3d6000fd5b505050506040513d602081101561349957600080fd5b505183105b6134f25760408051600160e51b62461bcd02815260206004820152601060248201527f496e76616c69642063617465676f727900000000000000000000000000000000604482015290519081900360640190fd5b604080516004815260248101909152602080820180516001600160e01b0316600160e01b630357e76f021781529151909120825191830191909120141561354a576014546001600160a01b0316331461354a57600080fd5b600084815260016020819052604090912060028101859055600381018490555581156135ea5760145460165460408051600160e01b6349f4cc170281526001600160a01b03928316600482015230602482015260448101869052905191909216916349f4cc1791606480830192600092919082900301818387803b1580156135d157600080fd5b505af11580156135e5573d6000803e3d6000fd5b505050505b604080518481529051339186917f5c0ed4086100f9e2c57a36b2c5ae3a1f991b2fd6af5a44cf0b9afb8a21796cdc9181900360200190a350505050565b601554600083815260016020526040808220600201548151600160e01b63253eca1f028152600481019190915290519192839283926001600160a01b039092169163253eca1f9160248083019286929190829003018186803b15801561368c57600080fd5b505afa1580156136a0573d6000803e3d6000fd5b505050506040513d6000823e601f3d908101601f1916820160405260e08110156136c957600080fd5b815160208301516040840151606085015160808601805194969395929491939283019291600160201b8111156136fe57600080fd5b8201602081018481111561371157600080fd5b81518560208202830111600160201b8211171561372d57600080fd5b50505060209081015160008d8152600190925260409091206004015495995093975092955042945061376a9392508591505063ffffffff6125c716565b116137ab5760408051600160e51b62461bcd0281526020600482015260066024820152600160d21b6510db1bdcd95902604482015290519081900360640190fd5b3360009081526005602090815260408083208884529091529020541561380c5760408051600160e51b62461bcd02815260206004820152600b6024820152600160aa1b6a139bdd08185b1b1bddd95902604482015290519081900360640190fd5b60135460408051600160e01b63505ef22f0281523360048201526024810186905290516001600160a01b039092169163505ef22f91604480820192602092909190829003018186803b15801561386157600080fd5b505afa158015613875573d6000803e3d6000fd5b505050506040513d602081101561388b57600080fd5b50516138e15760408051600160e51b62461bcd02815260206004820152600e60248201527f4e6f7420417574686f72697a6564000000000000000000000000000000000000604482015290519081900360640190fd5b6000805433808352600360209081526040808520805460018101825590865282862001849055828552600582528085208a86529091528084208390556017546009548251600160e11b63740bb65502815260048101949094526024840152905192936001600160a01b039091169263e8176caa92604480820193929182900301818387803b15801561397257600080fd5b505af1158015613986573d6000803e3d6000fd5b5050604080514281526020810189905281518594508a935033927f89eb0be5e1a1bcbad3c382ad8d3f2698ea4d54d9a179cd2368d184358ecad451928290030190a460135460408051600160e01b630dc6f8470281526004810187905290516000926001600160a01b031691630dc6f847916024808301926020929190829003018186803b158015613a1757600080fd5b505afa158015613a2b573d6000803e3d6000fd5b505050506040513d6020811015613a4157600080fd5b50519050613a50878787614677565b60008781526006602052604090206002015481148015613a71575060028514155b15612f5c576040805188815290517f9593d9bd30eff4872ec3bab10360ad82eaac80651801e68f47f0674c38415c3d9181900360200190a150505050505050565b600082815260186020526040808220600390556015548151600160e21b63352aabed02815260048101859052915183926060926001600160a01b03169163d4aaafb4916024808201928792909190829003018186803b158015613b1457600080fd5b505afa158015613b28573d6000803e3d6000fd5b505050506040513d6000823e601f3d908101601f1916820160405260a0811015613b5157600080fd5b815160208301516040840151606085015160808601805194969395929491939283019291600160201b811115613b8657600080fd5b82016020810184811115613b9957600080fd5b8151600160201b811182820187101715613bb257600080fd5b50959a509598509496505050600160f01b614d53026001600160f01b0319881614159350613bf192505050576012546001600160a01b03169150613c90565b600160f31b6108ab026001600160f01b0319841614613c905760125460408051600160e31b6227050b0281526001600160f01b03198616600482015290516001600160a01b0390921691630138285891602480820192602092909190829003018186803b158015613c6157600080fd5b505afa158015613c75573d6000803e3d6000fd5b505050506040513d6020811015613c8b57600080fd5b505191505b600085815260026020526040812080546001600160a01b0385169184916001908110613cb857fe5b906000526020600020016040516020018083805190602001908083835b60208310613cf45780518252601f199092019160209182019101613cd5565b6001836020036101000a03801982511681845116808217855250505050505090500182805460018160011615610100020316600290048015613d6d5780601f10613d4b576101008083540402835291820191613d6d565b820191906000526020600020905b815481529060010190602001808311613d59575b5050925050506040516020818303038152906040526040518082805190602001908083835b60208310613db15780518252601f199092019160209182019101613d92565b6001836020036101000a0380198251168184511680821785525050505050509050019150506000604051808303816000865af19150503d8060008114613e13576040519150601f19603f3d011682016040523d82523d6000602084013e613e18565b606091505b505090508015613e5a576040805187815290517f6535f242c0cf5f7c126188bcde0e013c21a0251762fa3be3c854f59ac30a5cdd9181900360200190a1611c54565b60008681526018602090815260409182902060019055815188815291517fa6a7dbbd4f2866cba9cd5a436f4982496ce98682adb410540faa675e61cef0159281900390910190a1505050505050565b60155460408051600160e01b63253eca1f028152600481018490529051600092839283926001600160a01b039092169163253eca1f916024808201928692909190829003018186803b158015613efe57600080fd5b505afa158015613f12573d6000803e3d6000fd5b505050506040513d6000823e601f3d908101601f1916820160405260e0811015613f3b57600080fd5b815160208301516040840151606085015160808601805194969395929491939283019291600160201b811115613f7057600080fd5b82016020810184811115613f8357600080fd5b81518560208202830111600160201b82111715613f9f57600080fd5b5094995095975060029650613fb695505050505050565b811415614067578161405e601760009054906101000a90046001600160a01b03166001600160a01b03166318160ddd6040518163ffffffff1660e01b815260040160206040518083038186803b15801561400f57600080fd5b505afa158015614023573d6000803e3d6000fd5b505050506040513d602081101561403957600080fd5b50516000888152600160205260409020600501546110c890606463ffffffff61326416565b10159250614340565b60038114156142975760008581526002602052604081208054600190811061408b57fe5b600091825260209182902001805460408051601f60026000196101006001871615020190941693909304928301859004850281018501909152818152928301828280156141195780601f106140ee57610100808354040283529160200191614119565b820191906000526020600020905b8154815290600101906020018083116140fc57829003601f168201915b5050505050806020019051604081101561413257600080fd5b505160408051600160e01b6343da750f02815290519192506000916001600160a01b038416916343da750f916004808301926020929190829003018186803b15801561417d57600080fd5b505afa158015614191573d6000803e3d6000fd5b505050506040513d60208110156141a757600080fd5b50516000888152600160205260409020600501549091501561428b576142706141db6011548361326490919063ffffffff16565b61426b60326110c86064601760009054906101000a90046001600160a01b03166001600160a01b03166318160ddd6040518163ffffffff1660e01b815260040160206040518083038186803b15801561423357600080fd5b505afa158015614247573d6000803e3d6000fd5b505050506040513d602081101561425d57600080fd5b50519063ffffffff61326416565b614abf565b60008881526001602052604090206005015410159450614290565b600094505b5050614340565b60135460408051600160e01b630dc6f847028152600481018490529051849261433b926001600160a01b0390911691630dc6f84791602480820192602092909190829003018186803b1580156142ec57600080fd5b505afa158015614300573d6000803e3d6000fd5b505050506040513d602081101561431657600080fd5b50516000888152600660205260409020600201546110c890606463ffffffff61326416565b101592505b505092915050565b600085815260016020819052604090912001829055614367858561262d565b6040805186815290517fd24c2047577899547bacebb29e319fc7d73f6712b5adb401d45556f34bb2aa3b9181900360200190a1600460008681526018602052604090205414612b83576010548114156143c9576143c48584613ab2565b612b83565b600085815260186020526040808220600190556015548151600160e01b6357c7bec10281526004810187905291516060936001600160a01b03909216926357c7bec1926024808301939192829003018186803b15801561442857600080fd5b505afa15801561443c573d6000803e3d6000fd5b505050506040513d6000823e601f3d908101601f19168201604052602081101561446557600080fd5b810190808051600160201b81111561447c57600080fd5b8201602081018481111561448f57600080fd5b8151600160201b8111828201871017156144a857600080fd5b5050604080516004815260248101909152602080820180516001600160e01b0316600160e41b630c578f2302178152915190912082519183019190912091955014925082915061453290505750604080516004815260248101909152602080820180516001600160e01b0316600160e01b630357e76f021781529151909120825191830191909120145b15614546576145418685613ab2565b611c54565b601c54614559904263ffffffff6125c716565b600087815260196020526040902055505050505050565b6000838152600260209081526040822080546001810180835591845292829020855191936145a49391019190860190614b2e565b50506000838152600260205260409020546145c690600163ffffffff614ace16565b336001600160a01b0316847f28aed3fdbf1b73725998bf6a5f364a2b9a08b85236c75f0c0270cfe1b65fba8c84426040518080602001838152602001828103825284818151815260200191508051906020019080838360005b8381101561463757818101518382015260200161461f565b50505050905090810190601f1680156146645780820380516001836020036101000a031916815260200191505b50935050505060405180910390a4505050565b60175460408051600160e11b6325877015028152336004820152905160019260009283926001600160a01b0390921691634b0ee02a91602480820192602092909190829003018186803b1580156146cd57600080fd5b505afa1580156146e1573d6000803e3d6000fd5b505050506040513d60208110156146f757600080fd5b505160175460408051600160e01b6318160ddd02815290519293506000926001600160a01b03909216916318160ddd91600480820192602092909190829003018186803b15801561474757600080fd5b505afa15801561475b573d6000803e3d6000fd5b505050506040513d602081101561477157600080fd5b5051905060018514158015614803575060135460408051600160e01b63505ef22f0281523360048201526001602482015290516001600160a01b039092169163505ef22f91604480820192602092909190829003018186803b1580156147d657600080fd5b505afa1580156147ea573d6000803e3d6000fd5b505050506040513d602081101561480057600080fd5b50515b1561482f5760008781526006602090815260408083208984526001908101909252909120805490910190555b600285141561485d576148568261426b60646110c885600b5461326490919063ffffffff16565b9250614900565b60038514156148fb5760175460408051600160e01b63179e91f1028152336004820152600160f11b61222902602482015242604482015290516001600160a01b039092169163179e91f191606480820192602092909190829003018186803b1580156148c857600080fd5b505afa1580156148dc573d6000803e3d6000fd5b505050506040513d60208110156148f257600080fd5b50519250614900565b600192505b6040805160a08101825233815260208082018a81528284018a8152606084018781524260808601908152600080546001808201835582805297517f290decd9548b62a8d60345a988386fc84ba6bc95484008f6362f93160ef3e563600592830290810180546001600160a01b0319166001600160a01b039093169290921790915595517f290decd9548b62a8d60345a988386fc84ba6bc95484008f6362f93160ef3e56487015593517f290decd9548b62a8d60345a988386fc84ba6bc95484008f6362f93160ef3e56586015591517f290decd9548b62a8d60345a988386fc84ba6bc95484008f6362f93160ef3e566850155517f290decd9548b62a8d60345a988386fc84ba6bc95484008f6362f93160ef3e567909301929092558b825292909152919091200154614a3390846125c7565b6000888152600160209081526040808320600501939093556006815282822089835290522054614a69908463ffffffff6125c716565b60008881526006602081815260408084208b855280835290842094909455918a9052905260020154614aa1908563ffffffff6125c716565b60009788526006602052604090972060020196909655505050505050565b81818111156126275750919050565b600082821115614b285760408051600160e51b62461bcd02815260206004820152601e60248201527f536166654d6174683a207375627472616374696f6e206f766572666c6f770000604482015290519081900360640190fd5b50900390565b828054600181600116156101000203166002900490600052602060002090601f016020900481019282601f10614b6f57805160ff1916838001178555614b9c565b82800160010185558215614b9c579182015b82811115614b9c578251825591602001919060010190614b81565b50614ba8929150614bac565b5090565b61198191905b80821115614ba85760008155600101614bb256fe536166654d6174683a206d756c7469706c69636174696f6e206f766572666c6f77a165627a7a7230582057fd7a9e23f7a78922f238b4bca9b039d9bd4c04fd81fd2aabc4884216dce3320029",
  "source": "/* Copyright (C) 2020 PlotX.io\r\n\r\n  This program is free software: you can redistribute it and/or modify\r\n    it under the terms of the GNU General Public License as published by\r\n    the Free Software Foundation, either version 3 of the License, or\r\n    (at your option) any later version.\r\n\r\n  This program is distributed in the hope that it will be useful,\r\n    but WITHOUT ANY WARRANTY; without even the implied warranty of\r\n    MERCHANTABILITY or FITNESS FOR A PARTICULAR PURPOSE.  See the\r\n    GNU General Public License for more details.\r\n\r\n  You should have received a copy of the GNU General Public License\r\n    along with this program.  If not, see http://www.gnu.org/licenses/ */\r\n\r\npragma solidity 0.5.7;\r\n\r\nimport \"./external/govblocks-protocol/interfaces/IGovernance.sol\";\r\nimport \"./external/govblocks-protocol/interfaces/IProposalCategory.sol\";\r\nimport \"./external/govblocks-protocol/interfaces/IMemberRoles.sol\";\r\nimport \"./external/proxy/OwnedUpgradeabilityProxy.sol\";\r\nimport \"./external/openzeppelin-solidity/math/SafeMath.sol\";\r\nimport \"./interfaces/Iupgradable.sol\";\r\nimport \"./interfaces/IMarketRegistry.sol\";\r\nimport \"./interfaces/ITokenController.sol\";\r\nimport \"./interfaces/IToken.sol\";\r\nimport \"./interfaces/IMaster.sol\";\r\nimport \"./interfaces/IMarket.sol\";\r\n\r\ncontract Governance is IGovernance, Iupgradable {\r\n    using SafeMath for uint256;\r\n\r\n    enum ProposalStatus {\r\n        Draft,\r\n        AwaitingSolution,\r\n        VotingStarted,\r\n        Accepted,\r\n        Rejected,\r\n        Denied\r\n    }\r\n\r\n    struct ProposalData {\r\n        uint256 propStatus;\r\n        uint256 finalVerdict;\r\n        uint256 category;\r\n        uint256 commonIncentive;\r\n        uint256 dateUpd;\r\n        uint256 totalVoteValue;\r\n        address owner;\r\n    }\r\n\r\n    struct ProposalVote {\r\n        address voter;\r\n        uint256 proposalId;\r\n        uint256 solutionChosen;\r\n        uint256 voteValue;\r\n        uint256 dateAdd;\r\n    }\r\n    struct VoteTally {\r\n        mapping(uint256 => uint256) voteValue;\r\n        mapping(uint=>uint) abVoteValue;\r\n        uint256 voters;\r\n    }\r\n\r\n    ProposalVote[] internal allVotes;\r\n\r\n    mapping(uint256 => ProposalData) internal allProposalData;\r\n    mapping(uint256 => bytes[]) internal allProposalSolutions;\r\n    mapping(address => uint256[]) internal allVotesByMember;\r\n    mapping(uint256 => mapping(address => bool)) public rewardClaimed;\r\n    mapping(address => mapping(uint256 => uint256)) public memberProposalVote;\r\n    mapping(uint256 => VoteTally) public proposalVoteTally;\r\n    mapping(address => uint256) public lastRewardClaimed;\r\n\r\n    bytes32 constant swapABMemberHash = keccak256(abi.encodeWithSignature(\"swapABMember(address,address)\"));\r\n    bytes32 constant resolveDisputeHash = keccak256(abi.encodeWithSignature(\"resolveDispute(address,uint256)\"));\r\n    uint256 constant totalSupplyCapForDRQrm = 50;\r\n\r\n    bool internal constructorCheck;\r\n    uint256 public tokenHoldingTime;\r\n    uint256 internal roleIdAllowedToCatgorize;\r\n    uint256 internal maxVoteWeigthPer;\r\n    uint256 internal advisoryBoardMajority;\r\n    uint256 internal totalProposals;\r\n    uint256 internal maxDraftTime;\r\n    uint256 internal votePercRejectAction;\r\n    uint256 internal actionRejectAuthRole;\r\n    uint256 internal drQuorumMulitplier;\r\n\r\n    IMaster public ms;\r\n    IMemberRoles internal memberRole;\r\n    IMarketRegistry internal marketRegistry;\r\n    IProposalCategory internal proposalCategory;\r\n    //Plot Token Instance\r\n    IToken internal tokenInstance;\r\n    ITokenController internal tokenController;\r\n\r\n    mapping(uint256 => uint256) public proposalActionStatus;\r\n    mapping(uint256 => uint256) internal proposalExecutionTime;\r\n    mapping(uint256 => mapping(address => bool)) public isActionRejected;\r\n    mapping(uint256 => uint256) internal actionRejectedCount;\r\n\r\n    uint256 internal actionWaitingTime;\r\n\r\n    enum ActionStatus {Pending, Accepted, Rejected, Executed, NoAction}\r\n\r\n    /**\r\n     * @dev Called whenever an action execution is failed.\r\n     */\r\n    event ActionFailed(uint256 proposalId);\r\n\r\n    /**\r\n     * @dev Called whenever an AB member rejects the action execution.\r\n     */\r\n    event ActionRejected(uint256 indexed proposalId, address rejectedBy);\r\n\r\n    /**\r\n     * @dev Checks if msg.sender is proposal owner\r\n     */\r\n    modifier onlyProposalOwner(uint256 _proposalId) {\r\n        require(\r\n            msg.sender == allProposalData[_proposalId].owner,\r\n            \"Not allowed\"\r\n        );\r\n        _;\r\n    }\r\n\r\n    /**\r\n     * @dev Checks if proposal is opened for voting\r\n     */\r\n    modifier voteNotStarted(uint256 _proposalId) {\r\n        require(\r\n            allProposalData[_proposalId].propStatus <\r\n                uint256(ProposalStatus.VotingStarted)\r\n        );\r\n        _;\r\n    }\r\n\r\n    /**\r\n     * @dev Checks if msg.sender is allowed to create proposal under given category\r\n     */\r\n    modifier isAllowed(uint256 _categoryId) {\r\n        require(allowedToCreateProposal(_categoryId), \"Not allowed\");\r\n        _;\r\n    }\r\n\r\n    /**\r\n     * @dev Checks if msg.sender is allowed categorize proposal\r\n     */\r\n    modifier isAllowedToCategorize() {\r\n        require(allowedToCategorize());\r\n        _;\r\n    }\r\n\r\n    /**\r\n     * @dev Event emitted whenever a proposal is categorized\r\n     */\r\n    event ProposalCategorized(\r\n        uint256 indexed proposalId,\r\n        address indexed categorizedBy,\r\n        uint256 categoryId\r\n    );\r\n\r\n    /**\r\n     * @dev Creates a new proposal\r\n     * @param _proposalDescHash Proposal description hash through IPFS having Short and long description of proposal\r\n     * @param _categoryId This id tells under which the proposal is categorized i.e. Proposal's Objective\r\n     */\r\n    function createProposal(\r\n        string calldata _proposalTitle,\r\n        string calldata _proposalSD,\r\n        string calldata _proposalDescHash,\r\n        uint256 _categoryId\r\n    ) external isAllowed(_categoryId) {\r\n        require(\r\n            memberRole.checkRole(\r\n                msg.sender,\r\n                uint256(IMemberRoles.Role.TokenHolder)\r\n            ),\r\n            \"Not Member\"\r\n        );\r\n\r\n        _createProposal(\r\n            _proposalTitle,\r\n            _proposalSD,\r\n            _proposalDescHash,\r\n            _categoryId\r\n        );\r\n    }\r\n\r\n    /**\r\n     * @dev Categorizes proposal to proceed further. Categories shows the proposal objective.\r\n     */\r\n    function categorizeProposal(\r\n        uint256 _proposalId,\r\n        uint256 _categoryId,\r\n        uint256 _incentive\r\n    ) external voteNotStarted(_proposalId) isAllowedToCategorize {\r\n        uint256 incentive = _incentive;\r\n        bytes memory _functionHash = proposalCategory\r\n            .categoryActionHashes(_categoryId);\r\n        if(keccak256(_functionHash) == swapABMemberHash) {\r\n            incentive = 0;\r\n        }\r\n        _categorizeProposal(_proposalId, _categoryId, incentive, _functionHash);\r\n    }\r\n\r\n    /**\r\n     * @dev Submit proposal with solution\r\n     * @param _proposalId Proposal id\r\n     * @param _solutionHash Solution hash contains  parameters, values and description needed according to proposal\r\n     */\r\n    function submitProposalWithSolution(\r\n        uint256 _proposalId,\r\n        string calldata _solutionHash,\r\n        bytes calldata _action\r\n    ) external onlyProposalOwner(_proposalId) {\r\n        require(\r\n            allProposalData[_proposalId].propStatus ==\r\n                uint256(ProposalStatus.AwaitingSolution)\r\n        );\r\n\r\n        _proposalSubmission(_proposalId, _solutionHash, _action);\r\n    }\r\n\r\n    /**\r\n     * @dev Creates a new proposal with solution\r\n     * @param _proposalDescHash Proposal description hash through IPFS having Short and long description of proposal\r\n     * @param _categoryId This id tells under which the proposal is categorized i.e. Proposal's Objective\r\n     * @param _solutionHash Solution hash contains  parameters, values and description needed according to proposal\r\n     */\r\n    function createProposalwithSolution(\r\n        string calldata _proposalTitle,\r\n        string calldata _proposalSD,\r\n        string calldata _proposalDescHash,\r\n        uint256 _categoryId,\r\n        string calldata _solutionHash,\r\n        bytes calldata _action\r\n    ) external isAllowed(_categoryId) {\r\n        uint256 proposalId = totalProposals;\r\n\r\n        _createProposal(\r\n            _proposalTitle,\r\n            _proposalSD,\r\n            _proposalDescHash,\r\n            _categoryId\r\n        );\r\n\r\n        require(_categoryId > 0);\r\n\r\n        _proposalSubmission(proposalId, _solutionHash, _action);\r\n    }\r\n\r\n    /**\r\n     * @dev Submit a vote on the proposal.\r\n     * @param _proposalId to vote upon.\r\n     * @param _solutionChosen is the chosen vote.\r\n     */\r\n    function submitVote(uint256 _proposalId, uint256 _solutionChosen) external {\r\n        require(\r\n            allProposalData[_proposalId].propStatus ==\r\n                uint256(Governance.ProposalStatus.VotingStarted),\r\n            \"Not allowed\"\r\n        );\r\n\r\n        require(_solutionChosen < allProposalSolutions[_proposalId].length);\r\n\r\n        _submitVote(_proposalId, _solutionChosen);\r\n    }\r\n\r\n    /**\r\n     * @dev Closes the proposal.\r\n     * @param _proposalId of proposal to be closed.\r\n     */\r\n    function closeProposal(uint256 _proposalId) external {\r\n        uint256 category = allProposalData[_proposalId].category;\r\n\r\n        if (\r\n            allProposalData[_proposalId].dateUpd.add(maxDraftTime) <= now &&\r\n            allProposalData[_proposalId].propStatus <\r\n            uint256(ProposalStatus.VotingStarted)\r\n        ) {\r\n            _updateProposalStatus(_proposalId, uint256(ProposalStatus.Denied));\r\n            _transferPLOT(\r\n                address(marketRegistry),\r\n                allProposalData[_proposalId].commonIncentive\r\n            );\r\n        } else {\r\n            require(canCloseProposal(_proposalId) == 1);\r\n            _closeVote(_proposalId, category);\r\n        }\r\n    }\r\n\r\n    /**\r\n     * @dev Claims reward for member.\r\n     * @param _memberAddress to claim reward of.\r\n     * @param _maxRecords maximum number of records to claim reward for.\r\n     _proposals list of proposals of which reward will be claimed.\r\n     * @return amount of pending reward.\r\n     */\r\n    function claimReward(address _memberAddress, uint256 _maxRecords)\r\n        external\r\n        returns (uint256 pendingDAppReward)\r\n    {\r\n        uint256 voteId;\r\n        uint256 proposalId;\r\n        uint256 totalVotes = allVotesByMember[_memberAddress].length;\r\n        uint256 lastClaimed = totalVotes;\r\n        uint256 j;\r\n        uint256 i;\r\n        for (\r\n            i = lastRewardClaimed[_memberAddress];\r\n            i < totalVotes && j < _maxRecords;\r\n            i++\r\n        ) {\r\n            voteId = allVotesByMember[_memberAddress][i];\r\n            proposalId = allVotes[voteId].proposalId;\r\n            if (\r\n                proposalVoteTally[proposalId].voters > 0 && allProposalData[proposalId].propStatus >\r\n                    uint256(ProposalStatus.VotingStarted)\r\n            ) {                    \r\n                if (!rewardClaimed[voteId][_memberAddress]) {\r\n                    pendingDAppReward = pendingDAppReward.add(\r\n                        allProposalData[proposalId].commonIncentive.div(\r\n                            proposalVoteTally[proposalId].voters\r\n                        )\r\n                    );\r\n                    rewardClaimed[voteId][_memberAddress] = true;\r\n                    j++;\r\n                }\r\n            } else {\r\n                if (lastClaimed == totalVotes) {\r\n                    lastClaimed = i;\r\n                }\r\n            }\r\n        }\r\n\r\n        if (lastClaimed == totalVotes) {\r\n            lastRewardClaimed[_memberAddress] = i;\r\n        } else {\r\n            lastRewardClaimed[_memberAddress] = lastClaimed;\r\n        }\r\n\r\n        if (j > 0) {\r\n            _transferPLOT(\r\n                _memberAddress,\r\n                pendingDAppReward\r\n            );\r\n            emit RewardClaimed(_memberAddress, pendingDAppReward);\r\n        }\r\n    }\r\n\r\n    /**\r\n     * @dev Triggers action of accepted proposal after waiting time is finished\r\n     */\r\n    function triggerAction(uint256 _proposalId) external {\r\n        require(\r\n            proposalActionStatus[_proposalId] ==\r\n                uint256(ActionStatus.Accepted) &&\r\n                proposalExecutionTime[_proposalId] <= now,\r\n            \"Cannot trigger\"\r\n        );\r\n        _triggerAction(_proposalId, allProposalData[_proposalId].category);\r\n    }\r\n\r\n    /**\r\n     * @dev Provides option to Advisory board member to reject proposal action execution within actionWaitingTime, if found suspicious\r\n     */\r\n    function rejectAction(uint256 _proposalId) external {\r\n        require(\r\n            memberRole.checkRole(msg.sender, actionRejectAuthRole) &&\r\n                proposalExecutionTime[_proposalId] > now\r\n        );\r\n\r\n        require(\r\n            proposalActionStatus[_proposalId] == uint256(ActionStatus.Accepted)\r\n        );\r\n\r\n        require(!isActionRejected[_proposalId][msg.sender]);\r\n\r\n        isActionRejected[_proposalId][msg.sender] = true;\r\n        actionRejectedCount[_proposalId]++;\r\n        emit ActionRejected(_proposalId, msg.sender);\r\n        if (\r\n            actionRejectedCount[_proposalId].mul(100).div(\r\n                memberRole.numberOfMembers(actionRejectAuthRole)\r\n            ) >= votePercRejectAction\r\n        ) {\r\n            proposalActionStatus[_proposalId] = uint256(ActionStatus.Rejected);\r\n        }\r\n    }\r\n\r\n    /**\r\n     * @dev Gets Uint Parameters of a code\r\n     * @param code whose details we want\r\n     * @return string value of the code\r\n     * @return associated amount (time or perc or value) to the code\r\n     */\r\n    function getUintParameters(bytes8 code)\r\n        external\r\n        view\r\n        returns (bytes8 codeVal, uint256 val)\r\n    {\r\n        codeVal = code;\r\n\r\n        if (code == \"GOVHOLD\") { // Governance token holding time\r\n            val = tokenHoldingTime / (1 days);\r\n        } else if (code == \"MAXDRFT\") { // Maximum draft time for proposals\r\n            val = maxDraftTime / (1 days);\r\n        } else if (code == \"ACWT\") { //Action wait time\r\n            val = actionWaitingTime / (1 hours);\r\n        } else if (code == \"REJAUTH\") { // Authorized role to stop executing actions\r\n            val = actionRejectAuthRole;\r\n        } else if (code == \"REJCOUNT\") { // Majorty percentage for action rejection\r\n            val = votePercRejectAction;\r\n        } else if (code == \"MAXVW\") { // Max vote weight percentage\r\n            val = maxVoteWeigthPer;\r\n        } else if (code == \"ABMAJ\") { // Advisory board majority percentage\r\n            val = advisoryBoardMajority;\r\n        } else if (code == \"DRQUMR\") { // Dispute Resolution Quorum multiplier\r\n            val = drQuorumMulitplier;\r\n        }\r\n    }\r\n\r\n    /**\r\n     * @dev Gets all details of a propsal\r\n     * @param _proposalId whose details we want\r\n     * @return proposalId\r\n     * @return category\r\n     * @return status\r\n     * @return finalVerdict\r\n     * @return totalReward\r\n     */\r\n    function proposal(uint256 _proposalId)\r\n        external\r\n        view\r\n        returns (\r\n            uint256 proposalId,\r\n            uint256 category,\r\n            uint256 status,\r\n            uint256 finalVerdict,\r\n            uint256 totalRewar\r\n        )\r\n    {\r\n        return (\r\n            _proposalId,\r\n            allProposalData[_proposalId].category,\r\n            allProposalData[_proposalId].propStatus,\r\n            allProposalData[_proposalId].finalVerdict,\r\n            allProposalData[_proposalId].commonIncentive\r\n        );\r\n    }\r\n\r\n    /**\r\n     * @dev Gets some details of a propsal\r\n     * @param _proposalId whose details we want\r\n     * @return proposalId\r\n     * @return number of all proposal solutions\r\n     * @return amount of votes\r\n     */\r\n    function proposalDetails(uint256 _proposalId)\r\n        external\r\n        view\r\n        returns (\r\n            uint256,\r\n            uint256,\r\n            uint256\r\n        )\r\n    {\r\n        return (\r\n            _proposalId,\r\n            allProposalSolutions[_proposalId].length,\r\n            proposalVoteTally[_proposalId].voters\r\n        );\r\n    }\r\n\r\n    /**\r\n     * @dev Gets solution action on a proposal\r\n     * @param _proposalId whose details we want\r\n     * @param _solution whose details we want\r\n     * @return action of a solution on a proposal\r\n     */\r\n    function getSolutionAction(uint256 _proposalId, uint256 _solution)\r\n        external\r\n        view\r\n        returns (uint256, bytes memory)\r\n    {\r\n        return (_solution, allProposalSolutions[_proposalId][_solution]);\r\n    }\r\n\r\n    /**\r\n     * @dev Gets length of propsal\r\n     * @return length of propsal\r\n     */\r\n    function getProposalLength() external view returns (uint256) {\r\n        return totalProposals;\r\n    }\r\n\r\n    /**\r\n     * @dev Gets pending rewards of a member\r\n     * @param _memberAddress in concern\r\n     * @return amount of pending reward\r\n     */\r\n    function getPendingReward(address _memberAddress)\r\n        public\r\n        view\r\n        returns (uint256 pendingDAppReward)\r\n    {\r\n        uint256 proposalId;\r\n        for (\r\n            uint256 i = lastRewardClaimed[_memberAddress];\r\n            i < allVotesByMember[_memberAddress].length;\r\n            i++\r\n        ) {\r\n            if (\r\n                !rewardClaimed[allVotesByMember[_memberAddress][i]][_memberAddress]\r\n            ) {\r\n                proposalId = allVotes[allVotesByMember[_memberAddress][i]]\r\n                    .proposalId;\r\n                if (\r\n                    proposalVoteTally[proposalId].voters > 0 &&\r\n                    allProposalData[proposalId].propStatus >\r\n                    uint256(ProposalStatus.VotingStarted)\r\n                ) {\r\n                    pendingDAppReward = pendingDAppReward.add(\r\n                        allProposalData[proposalId].commonIncentive.div(\r\n                            proposalVoteTally[proposalId].voters\r\n                        )\r\n                    );\r\n                }\r\n            }\r\n        }\r\n    }\r\n\r\n    /**\r\n     * @dev Updates Uint Parameters of a code\r\n     * @param code whose details we want to update\r\n     * @param val value to set\r\n     */\r\n    function updateUintParameters(bytes8 code, uint256 val) public {\r\n        require(ms.isAuthorizedToGovern(msg.sender));\r\n        if (code == \"GOVHOLD\") {\r\n            tokenHoldingTime = val * 1 days;\r\n        } else if (code == \"MAXDRFT\") {\r\n            maxDraftTime = val * 1 days;\r\n        } else if (code == \"ACWT\") {\r\n            actionWaitingTime = val * 1 hours;\r\n        } else if (code == \"REJAUTH\") {\r\n            actionRejectAuthRole = val;\r\n        } else if (code == \"REJCOUNT\") {\r\n            votePercRejectAction = val;\r\n        } else if (code == \"MAXVW\") {\r\n            maxVoteWeigthPer = val;\r\n        } else if (code == \"ABMAJ\") {\r\n            advisoryBoardMajority = val;\r\n        } else if (code == \"DRQUMR\") {\r\n            drQuorumMulitplier = val;\r\n        } else {\r\n            revert(\"Invalid code\");\r\n        }\r\n    }\r\n\r\n    /**\r\n     * @dev Updates all dependency addresses to latest ones from Master\r\n     */\r\n    function setMasterAddress() public {\r\n        OwnedUpgradeabilityProxy proxy =  OwnedUpgradeabilityProxy(address(uint160(address(this))));\r\n        require(msg.sender == proxy.proxyOwner(),\"Sender is not proxy owner.\");\r\n\r\n        require(!constructorCheck);\r\n        _initiateGovernance();\r\n        ms = IMaster(msg.sender);\r\n        tokenInstance = IToken(ms.dAppToken());\r\n        memberRole = IMemberRoles(ms.getLatestAddress(\"MR\"));\r\n        proposalCategory = IProposalCategory(ms.getLatestAddress(\"PC\"));\r\n        tokenController = ITokenController(ms.getLatestAddress(\"TC\"));\r\n        marketRegistry = IMarketRegistry(address(uint160(ms.getLatestAddress(\"PL\"))));\r\n    }\r\n\r\n    /**\r\n     * @dev Checks if msg.sender is allowed to create a proposal under given category\r\n     */\r\n    function allowedToCreateProposal(uint256 category)\r\n        public\r\n        view\r\n        returns (bool check)\r\n    {\r\n        if (category == 0) return true;\r\n        uint256[] memory mrAllowed;\r\n        (, , , , mrAllowed, , ) = proposalCategory.category(category);\r\n        for (uint256 i = 0; i < mrAllowed.length; i++) {\r\n            if (\r\n                mrAllowed[i] == 0 ||\r\n                memberRole.checkRole(msg.sender, mrAllowed[i])\r\n            ) return true;\r\n        }\r\n    }\r\n\r\n    /**\r\n     * @dev Checks if msg.sender is allowed to categorize proposals\r\n     */\r\n    function allowedToCategorize()\r\n        public\r\n        view\r\n        returns (bool check)\r\n    {\r\n        return memberRole.checkRole(msg.sender, roleIdAllowedToCatgorize);\r\n    }\r\n\r\n    /**\r\n     * @dev Checks If the proposal voting time is up and it's ready to close\r\n     *      i.e. Closevalue is 1 if proposal is ready to be closed, 2 if already closed, 0 otherwise!\r\n     * @param _proposalId Proposal id to which closing value is being checked\r\n     */\r\n    function canCloseProposal(uint256 _proposalId)\r\n        public\r\n        view\r\n        returns (uint256)\r\n    {\r\n        uint256 dateUpdate;\r\n        uint256 pStatus;\r\n        uint256 _closingTime;\r\n        uint256 _roleId;\r\n        uint256 majority;\r\n        pStatus = allProposalData[_proposalId].propStatus;\r\n        dateUpdate = allProposalData[_proposalId].dateUpd;\r\n        (, _roleId, majority, , , _closingTime, ) = proposalCategory.category(\r\n            allProposalData[_proposalId].category\r\n        );\r\n        if (pStatus == uint256(ProposalStatus.VotingStarted)) {\r\n            uint256 numberOfMembers = memberRole.numberOfMembers(_roleId);\r\n            if (\r\n                _roleId == uint256(IMemberRoles.Role.AdvisoryBoard)\r\n            ) {\r\n                if (\r\n                    proposalVoteTally[_proposalId].voteValue[1].mul(100).div(\r\n                        numberOfMembers\r\n                    ) >=\r\n                    majority ||\r\n                    proposalVoteTally[_proposalId].voteValue[1].add(\r\n                        proposalVoteTally[_proposalId].voteValue[0]\r\n                    ) ==\r\n                    numberOfMembers ||\r\n                    dateUpdate.add(_closingTime) <= now\r\n                ) {\r\n                    return 1;\r\n                }\r\n            } else {\r\n                if(_roleId == uint256(IMemberRoles.Role.TokenHolder) ||\r\n                _roleId == uint256(IMemberRoles.Role.DisputeResolution)) {\r\n                    if(dateUpdate.add(_closingTime) <= now)\r\n                        return 1;\r\n                } else if (\r\n                    numberOfMembers <= proposalVoteTally[_proposalId].voters ||\r\n                    dateUpdate.add(_closingTime) <= now\r\n                ) return 1;\r\n            }\r\n        } else if (pStatus > uint256(ProposalStatus.VotingStarted)) {\r\n            return 2;\r\n        } else {\r\n            return 0;\r\n        }\r\n    }\r\n\r\n    /**\r\n     * @dev Gets Id of member role allowed to categorize the proposal\r\n     * @return roleId allowed to categorize the proposal\r\n     */\r\n    function allowedToCatgorize() public view returns (uint256 roleId) {\r\n        return roleIdAllowedToCatgorize;\r\n    }\r\n\r\n    /**\r\n     * @dev Gets vote tally data\r\n     * @param _proposalId in concern\r\n     * @param _solution of a proposal id\r\n     * @return member vote value\r\n     * @return advisory board vote value\r\n     * @return amount of votes\r\n     */\r\n    function voteTallyData(uint256 _proposalId, uint256 _solution)\r\n        public\r\n        view\r\n        returns (uint256, uint256, uint256)\r\n    {\r\n        return (\r\n            proposalVoteTally[_proposalId].voteValue[_solution],\r\n            proposalVoteTally[_proposalId].abVoteValue[_solution],\r\n            proposalVoteTally[_proposalId].voters\r\n        );\r\n    }\r\n\r\n    /**\r\n     * @dev Internal call to create proposal\r\n     * @param _proposalTitle of proposal\r\n     * @param _proposalSD is short description of proposal\r\n     * @param _proposalDescHash IPFS hash value of propsal\r\n     * @param _categoryId of proposal\r\n     */\r\n    function _createProposal(\r\n        string memory _proposalTitle,\r\n        string memory _proposalSD,\r\n        string memory _proposalDescHash,\r\n        uint256 _categoryId\r\n    ) internal {\r\n        uint256 _proposalId = totalProposals;\r\n        allProposalData[_proposalId].owner = msg.sender;\r\n        allProposalData[_proposalId].dateUpd = now;\r\n        allProposalSolutions[_proposalId].push(\"\");\r\n        totalProposals++;\r\n\r\n        emit Proposal(\r\n            msg.sender,\r\n            _proposalId,\r\n            now,\r\n            _proposalTitle,\r\n            _proposalSD,\r\n            _proposalDescHash\r\n        );\r\n\r\n        if (_categoryId > 0) {\r\n            (, , , uint defaultIncentive, bytes memory _functionHash) = proposalCategory\r\n            .categoryActionDetails(_categoryId);\r\n            require(allowedToCategorize() ||\r\n                keccak256(_functionHash) ==\r\n                 resolveDisputeHash ||\r\n                keccak256(_functionHash) == swapABMemberHash\r\n            );\r\n            if(keccak256(_functionHash) == swapABMemberHash) {\r\n                defaultIncentive = 0;\r\n            }\r\n            _categorizeProposal(_proposalId, _categoryId, defaultIncentive, _functionHash);\r\n        }\r\n    }\r\n\r\n    /**\r\n     * @dev Internal call to categorize a proposal\r\n     * @param _proposalId of proposal\r\n     * @param _categoryId of proposal\r\n     * @param _incentive is commonIncentive\r\n     */\r\n    function _categorizeProposal(\r\n        uint256 _proposalId,\r\n        uint256 _categoryId,\r\n        uint256 _incentive,\r\n        bytes memory _functionHash\r\n    ) internal {\r\n        require(\r\n            _categoryId > 0 && _categoryId < proposalCategory.totalCategories(),\r\n            \"Invalid category\"\r\n        );\r\n        if(keccak256(_functionHash) == resolveDisputeHash) {\r\n            require(msg.sender == address(marketRegistry));\r\n        }\r\n        allProposalData[_proposalId].category = _categoryId;\r\n        allProposalData[_proposalId].commonIncentive = _incentive;\r\n        allProposalData[_proposalId].propStatus = uint256(\r\n            ProposalStatus.AwaitingSolution\r\n        );\r\n\r\n        if (_incentive > 0) {\r\n            marketRegistry.transferAssets(\r\n                address(tokenInstance),\r\n                address(this),\r\n                _incentive\r\n            );\r\n        }\r\n\r\n        emit ProposalCategorized(_proposalId, msg.sender, _categoryId);\r\n    }\r\n\r\n    /**\r\n     * @dev Internal call to add solution to a proposal\r\n     * @param _proposalId in concern\r\n     * @param _action on that solution\r\n     * @param _solutionHash string value\r\n     */\r\n    function _addSolution(\r\n        uint256 _proposalId,\r\n        bytes memory _action,\r\n        string memory _solutionHash\r\n    ) internal {\r\n        allProposalSolutions[_proposalId].push(_action);\r\n        emit Solution(\r\n            _proposalId,\r\n            msg.sender,\r\n            allProposalSolutions[_proposalId].length.sub(1),\r\n            _solutionHash,\r\n            now\r\n        );\r\n    }\r\n\r\n    /**\r\n     * @dev Internal call to add solution and open proposal for voting\r\n     */\r\n    function _proposalSubmission(\r\n        uint256 _proposalId,\r\n        string memory _solutionHash,\r\n        bytes memory _action\r\n    ) internal {\r\n        uint256 _categoryId = allProposalData[_proposalId].category;\r\n        if (proposalCategory.categoryActionHashes(_categoryId).length == 0) {\r\n            require(keccak256(_action) == keccak256(\"\"));\r\n            proposalActionStatus[_proposalId] = uint256(ActionStatus.NoAction);\r\n        }\r\n\r\n        _addSolution(_proposalId, _action, _solutionHash);\r\n\r\n        _updateProposalStatus(\r\n            _proposalId,\r\n            uint256(ProposalStatus.VotingStarted)\r\n        );\r\n        (, , , , , uint256 closingTime, ) = proposalCategory.category(\r\n            _categoryId\r\n        );\r\n        emit CloseProposalOnTime(_proposalId, closingTime.add(now));\r\n    }\r\n\r\n    /**\r\n     * @dev Internal call to submit vote\r\n     * @param _proposalId of proposal in concern\r\n     * @param _solution for that proposal\r\n     */\r\n    function _submitVote(uint256 _proposalId, uint256 _solution) internal {\r\n        uint256 mrSequence;\r\n        uint256 majority;\r\n        uint256 closingTime;\r\n        (, mrSequence, majority, , , closingTime, ) = proposalCategory.category(\r\n            allProposalData[_proposalId].category\r\n        );\r\n\r\n        require(\r\n            allProposalData[_proposalId].dateUpd.add(closingTime) > now,\r\n            \"Closed\"\r\n        );\r\n\r\n        require(\r\n            memberProposalVote[msg.sender][_proposalId] == 0,\r\n            \"Not allowed\"\r\n        );\r\n\r\n        require(memberRole.checkRole(msg.sender, mrSequence), \"Not Authorized\");\r\n        uint256 totalVotes = allVotes.length;\r\n\r\n        allVotesByMember[msg.sender].push(totalVotes);\r\n        memberProposalVote[msg.sender][_proposalId] = totalVotes;\r\n        tokenController.lockForGovernanceVote(msg.sender, tokenHoldingTime);\r\n\r\n        emit Vote(msg.sender, _proposalId, totalVotes, now, _solution);\r\n        uint256 numberOfMembers = memberRole.numberOfMembers(mrSequence);\r\n        _setVoteTally(_proposalId, _solution, mrSequence);\r\n\r\n        if (\r\n            numberOfMembers == proposalVoteTally[_proposalId].voters &&\r\n            mrSequence != uint256(IMemberRoles.Role.TokenHolder)\r\n        ) {\r\n            emit VoteCast(_proposalId);\r\n        }\r\n    }\r\n\r\n    function _setVoteTally(\r\n        uint256 _proposalId,\r\n        uint256 _solution,\r\n        uint256 mrSequence\r\n    ) internal {\r\n        uint256 voters = 1;\r\n        uint256 voteWeight;\r\n        uint256 tokenBalance = tokenController.totalBalanceOf(msg.sender);\r\n        uint totalSupply = tokenController.totalSupply();\r\n        if (mrSequence != uint(IMemberRoles.Role.AdvisoryBoard) &&\r\n        memberRole.checkRole(msg.sender, uint(IMemberRoles.Role.AdvisoryBoard))\r\n        )\r\n         {\r\n            proposalVoteTally[_proposalId].abVoteValue[_solution]++;\r\n        }\r\n        if (\r\n            mrSequence == uint256(IMemberRoles.Role.TokenHolder)\r\n        ) {\r\n            voteWeight = _minOf(tokenBalance, maxVoteWeigthPer.mul(totalSupply).div(100));\r\n        } else if (\r\n            mrSequence == uint256(IMemberRoles.Role.DisputeResolution)\r\n        ) {\r\n            voteWeight = tokenController.tokensLockedAtTime(msg.sender, \"DR\", now);\r\n        } else {\r\n            voteWeight = 1;\r\n        }\r\n        allVotes.push(\r\n            ProposalVote(msg.sender, _proposalId, _solution, tokenBalance, now)\r\n        );\r\n        allProposalData[_proposalId]\r\n            .totalVoteValue = allProposalData[_proposalId].totalVoteValue.add(\r\n            voteWeight\r\n        );\r\n        proposalVoteTally[_proposalId]\r\n            .voteValue[_solution] = proposalVoteTally[_proposalId]\r\n            .voteValue[_solution]\r\n            .add(voteWeight);\r\n        proposalVoteTally[_proposalId].voters =\r\n            proposalVoteTally[_proposalId].voters.add(voters);\r\n    }\r\n\r\n    /**\r\n     * @dev Gets minimum of two numbers\r\n     * @param a one of the two numbers\r\n     * @param b one of the two numbers\r\n     * @return minimum number out of the two\r\n     */\r\n    function _minOf(uint a, uint b) internal pure returns(uint res) {\r\n        res = a;\r\n        if (res > b)\r\n            res = b;\r\n    }\r\n\r\n    /**\r\n     * @dev Checks if the vote count against any solution passes the threshold value or not.\r\n     */\r\n    function _checkForThreshold(uint256 _proposalId, uint256 _category)\r\n        internal\r\n        view\r\n        returns (bool check)\r\n    {\r\n        uint256 categoryQuorumPerc;\r\n        uint256 roleAuthorized;\r\n        (, roleAuthorized, , categoryQuorumPerc, , , ) = proposalCategory\r\n            .category(_category);\r\n        if (roleAuthorized == uint256(IMemberRoles.Role.TokenHolder)) {\r\n            check =\r\n                (allProposalData[_proposalId].totalVoteValue).mul(100).div(\r\n                    tokenController.totalSupply()\r\n                ) >=\r\n                categoryQuorumPerc;\r\n        } else if (roleAuthorized == uint256(IMemberRoles.Role.DisputeResolution)) {\r\n            (address marketAddress, ) = abi.decode(allProposalSolutions[_proposalId][1], (address, uint256));\r\n            uint256 totalStakeValueInPlot = IMarket(marketAddress).getTotalStakedValueInPLOT();\r\n            if(allProposalData[_proposalId].totalVoteValue > 0) {\r\n                check =\r\n                    (allProposalData[_proposalId].totalVoteValue) >=\r\n                    (_minOf(totalStakeValueInPlot.mul(drQuorumMulitplier), (tokenController.totalSupply()).mul(100).div(totalSupplyCapForDRQrm)));\r\n            } else {\r\n                check = false;\r\n            }\r\n        } else {\r\n            check =\r\n                (proposalVoteTally[_proposalId].voters).mul(100).div(\r\n                    memberRole.numberOfMembers(roleAuthorized)\r\n                ) >=\r\n                categoryQuorumPerc;\r\n        }\r\n    }\r\n\r\n    /**\r\n     * @dev Called when vote majority is reached\r\n     * @param _proposalId of proposal in concern\r\n     * @param _status of proposal in concern\r\n     * @param category of proposal in concern\r\n     * @param max vote value of proposal in concern\r\n     */\r\n    function _callIfMajReached(\r\n        uint256 _proposalId,\r\n        uint256 _status,\r\n        uint256 category,\r\n        uint256 max,\r\n        uint256 role\r\n    ) internal {\r\n        allProposalData[_proposalId].finalVerdict = max;\r\n        _updateProposalStatus(_proposalId, _status);\r\n        emit ProposalAccepted(_proposalId);\r\n        if (\r\n            proposalActionStatus[_proposalId] != uint256(ActionStatus.NoAction)\r\n        ) {\r\n            if (role == actionRejectAuthRole) {\r\n                _triggerAction(_proposalId, category);\r\n            } else {\r\n                proposalActionStatus[_proposalId] = uint256(\r\n                    ActionStatus.Accepted\r\n                );\r\n                bytes memory functionHash = proposalCategory.categoryActionHashes(category);\r\n                if(keccak256(functionHash)\r\n                    == swapABMemberHash ||\r\n                    keccak256(functionHash)\r\n                    == resolveDisputeHash \r\n                ) {\r\n                    _triggerAction(_proposalId, category);\r\n                } else {\r\n                    proposalExecutionTime[_proposalId] = actionWaitingTime.add(now);\r\n                }\r\n            }\r\n        }\r\n    }\r\n\r\n    /**\r\n     * @dev Internal function to trigger action of accepted proposal\r\n     */\r\n    function _triggerAction(uint256 _proposalId, uint256 _categoryId) internal {\r\n        proposalActionStatus[_proposalId] = uint256(ActionStatus.Executed);\r\n        bytes2 contractName;\r\n        address actionAddress;\r\n        bytes memory _functionHash;\r\n        (, actionAddress, contractName, , _functionHash) = proposalCategory\r\n            .categoryActionDetails(_categoryId);\r\n        if (contractName == \"MS\") {\r\n            actionAddress = address(ms);\r\n        } else if (contractName != \"EX\") {\r\n            actionAddress = ms.getLatestAddress(contractName);\r\n        }\r\n        (bool actionStatus, ) = actionAddress.call(\r\n            abi.encodePacked(\r\n                _functionHash,\r\n                allProposalSolutions[_proposalId][1]\r\n            )\r\n        );\r\n        if (actionStatus) {\r\n            emit ActionSuccess(_proposalId);\r\n        } else {\r\n            proposalActionStatus[_proposalId] = uint256(ActionStatus.Accepted);\r\n            emit ActionFailed(_proposalId);\r\n        }\r\n    }\r\n\r\n    /**\r\n     * @dev Internal call to update proposal status\r\n     * @param _proposalId of proposal in concern\r\n     * @param _status of proposal to set\r\n     */\r\n    function _updateProposalStatus(uint256 _proposalId, uint256 _status)\r\n        internal\r\n    {\r\n        if (\r\n            _status == uint256(ProposalStatus.Rejected) ||\r\n            _status == uint256(ProposalStatus.Denied)\r\n        ) {\r\n            proposalActionStatus[_proposalId] = uint256(ActionStatus.NoAction);\r\n        }\r\n        allProposalData[_proposalId].dateUpd = now;\r\n        allProposalData[_proposalId].propStatus = _status;\r\n    }\r\n\r\n    /**\r\n     * @dev Internal call to close member voting\r\n     * @param _proposalId of proposal in concern\r\n     * @param category of proposal in concern\r\n     */\r\n    function _closeVote(uint256 _proposalId, uint256 category) internal {\r\n        uint256 majorityVote;\r\n        uint256 mrSequence;\r\n        (, mrSequence, majorityVote, , , , ) = proposalCategory.category(\r\n            category\r\n        );\r\n        bytes memory _functionHash = proposalCategory.categoryActionHashes(category);\r\n        if (_checkForThreshold(_proposalId, category)) {\r\n            if (\r\n                (\r\n                    (\r\n                        proposalVoteTally[_proposalId].voteValue[1]\r\n                            .mul(100)\r\n                    )\r\n                        .div(allProposalData[_proposalId].totalVoteValue)\r\n                ) >= majorityVote\r\n            ) {\r\n                _callIfMajReached(\r\n                    _proposalId,\r\n                    uint256(ProposalStatus.Accepted),\r\n                    category,\r\n                    1,\r\n                    mrSequence\r\n                );\r\n            } else {\r\n                _updateProposalStatus(\r\n                    _proposalId,\r\n                    uint256(ProposalStatus.Rejected)\r\n                );\r\n            }\r\n        } else {\r\n            if ((keccak256(_functionHash) != resolveDisputeHash) &&\r\n             (mrSequence != uint(IMemberRoles.Role.AdvisoryBoard)) &&\r\n             proposalVoteTally[_proposalId].abVoteValue[1].mul(100)\r\n                .div(memberRole.numberOfMembers(uint(IMemberRoles.Role.AdvisoryBoard))) >= advisoryBoardMajority\r\n            ) {\r\n                _callIfMajReached(\r\n                    _proposalId,\r\n                    uint256(ProposalStatus.Accepted),\r\n                    category,\r\n                    1,\r\n                    mrSequence\r\n                );\r\n            } else {\r\n                _updateProposalStatus(_proposalId, uint(ProposalStatus.Denied));\r\n            }\r\n        }\r\n        if(allProposalData[_proposalId].propStatus > uint256(ProposalStatus.Accepted)) {\r\n            if(keccak256(_functionHash) == resolveDisputeHash) {\r\n                marketRegistry.burnDisputedProposalTokens(_proposalId);\r\n            }\r\n        }\r\n\r\n        if (proposalVoteTally[_proposalId].voters == 0 && allProposalData[_proposalId].commonIncentive > 0) {\r\n            _transferPLOT(\r\n                address(marketRegistry),\r\n                allProposalData[_proposalId].commonIncentive\r\n            );\r\n        }\r\n    }\r\n\r\n    function _transferPLOT(address _recipient, uint256 _amount) internal {\r\n        if(_amount > 0) {\r\n            tokenInstance.transfer(\r\n                _recipient,\r\n                _amount\r\n            );\r\n        }\r\n    }\r\n\r\n    /**\r\n     * @dev to initiate the governance process\r\n     */\r\n    function _initiateGovernance() internal {\r\n        allVotes.push(ProposalVote(address(0), 0, 0, 0, 0));\r\n        totalProposals = 1;\r\n        tokenHoldingTime = 1 * 3 days;\r\n        constructorCheck = true;\r\n        roleIdAllowedToCatgorize = uint256(IMemberRoles.Role.AdvisoryBoard);\r\n        actionWaitingTime = 1 days;\r\n        actionRejectAuthRole = uint256(IMemberRoles.Role.AdvisoryBoard);\r\n        votePercRejectAction = 60;\r\n        maxVoteWeigthPer = 5;\r\n        advisoryBoardMajority = 60;\r\n        drQuorumMulitplier = 5;\r\n    }\r\n\r\n}\r\n",
  "sourcePath": "/home/madan/Documents/PlotX/PlotxContract/contracts/Governance.sol",
  "compiler": {
    "name": "solc",
    "version": "0.5.7+commit.6da8b019.Emscripten.clang"
  },
  "schemaVersion": "3.3.2",
  "updatedAt": "2020-12-10T08:30:24.863Z",
  "devdoc": {
    "methods": {
      "allowedToCategorize()": {
        "details": "Checks if msg.sender is allowed to categorize proposals\r"
      },
      "allowedToCatgorize()": {
        "details": "Gets Id of member role allowed to categorize the proposal\r",
        "return": "roleId allowed to categorize the proposal\r"
      },
      "allowedToCreateProposal(uint256)": {
        "details": "Checks if msg.sender is allowed to create a proposal under given category\r"
      },
      "canCloseProposal(uint256)": {
        "details": "Checks If the proposal voting time is up and it's ready to close\r     i.e. Closevalue is 1 if proposal is ready to be closed, 2 if already closed, 0 otherwise!\r",
        "params": {
          "_proposalId": "Proposal id to which closing value is being checked\r"
        }
      },
      "categorizeProposal(uint256,uint256,uint256)": {
        "details": "Categorizes proposal to proceed further. Categories shows the proposal objective.\r"
      },
      "claimReward(address,uint256)": {
        "details": "Claims reward for member.\r",
        "params": {
          "_maxRecords": "maximum number of records to claim reward for.\r _proposals list of proposals of which reward will be claimed.\r",
          "_memberAddress": "to claim reward of.\r"
        },
        "return": "amount of pending reward.\r"
      },
      "closeProposal(uint256)": {
        "details": "Closes the proposal.\r",
        "params": {
          "_proposalId": "of proposal to be closed.\r"
        }
      },
      "createProposal(string,string,string,uint256)": {
        "details": "Creates a new proposal\r",
        "params": {
          "_categoryId": "This id tells under which the proposal is categorized i.e. Proposal's Objective\r",
          "_proposalDescHash": "Proposal description hash through IPFS having Short and long description of proposal\r"
        }
      },
      "createProposalwithSolution(string,string,string,uint256,string,bytes)": {
        "details": "Creates a new proposal with solution\r",
        "params": {
          "_categoryId": "This id tells under which the proposal is categorized i.e. Proposal's Objective\r",
          "_proposalDescHash": "Proposal description hash through IPFS having Short and long description of proposal\r",
          "_solutionHash": "Solution hash contains  parameters, values and description needed according to proposal\r"
        }
      },
      "getPendingReward(address)": {
        "details": "Gets pending rewards of a member\r",
        "params": {
          "_memberAddress": "in concern\r"
        },
        "return": "amount of pending reward\r"
      },
      "getProposalLength()": {
        "details": "Gets length of propsal\r",
        "return": "length of propsal\r"
      },
      "getSolutionAction(uint256,uint256)": {
        "details": "Gets solution action on a proposal\r",
        "params": {
          "_proposalId": "whose details we want\r",
          "_solution": "whose details we want\r"
        },
        "return": "action of a solution on a proposal\r"
      },
      "getUintParameters(bytes8)": {
        "details": "Gets Uint Parameters of a code\r",
        "params": {
          "code": "whose details we want\r"
        },
        "return": "string value of the code\rassociated amount (time or perc or value) to the code\r"
      },
      "proposal(uint256)": {
        "details": "Gets all details of a propsal\r",
        "params": {
          "_proposalId": "whose details we want\r"
        },
        "return": "proposalId\rcategory\rstatus\rfinalVerdict\rtotalReward\r"
      },
      "proposalDetails(uint256)": {
        "details": "Gets some details of a propsal\r",
        "params": {
          "_proposalId": "whose details we want\r"
        },
        "return": "proposalId\rnumber of all proposal solutions\ramount of votes\r"
      },
      "rejectAction(uint256)": {
        "details": "Provides option to Advisory board member to reject proposal action execution within actionWaitingTime, if found suspicious\r"
      },
      "setMasterAddress()": {
        "details": "Updates all dependency addresses to latest ones from Master\r"
      },
      "submitProposalWithSolution(uint256,string,bytes)": {
        "details": "Submit proposal with solution\r",
        "params": {
          "_proposalId": "Proposal id\r",
          "_solutionHash": "Solution hash contains  parameters, values and description needed according to proposal\r"
        }
      },
      "submitVote(uint256,uint256)": {
        "details": "Submit a vote on the proposal.\r",
        "params": {
          "_proposalId": "to vote upon.\r",
          "_solutionChosen": "is the chosen vote.\r"
        }
      },
      "triggerAction(uint256)": {
        "details": "Triggers action of accepted proposal after waiting time is finished\r"
      },
      "updateUintParameters(bytes8,uint256)": {
        "details": "Updates Uint Parameters of a code\r",
        "params": {
          "code": "whose details we want to update\r",
          "val": "value to set\r"
        }
      },
      "voteTallyData(uint256,uint256)": {
        "details": "Gets vote tally data\r",
        "params": {
          "_proposalId": "in concern\r",
          "_solution": "of a proposal id\r"
        },
        "return": "member vote value\radvisory board vote value\ramount of votes\r"
      }
    }
  },
  "userdoc": {
    "methods": {}
  }
}