{
  "contractName": "MarketUtility",
  "abi": [
    {
      "constant": true,
      "inputs": [],
      "name": "initialized",
      "outputs": [
        {
          "name": "",
          "type": "bool"
        }
      ],
      "payable": false,
      "stateMutability": "view",
      "type": "function"
    },
    {
      "constant": true,
      "inputs": [],
      "name": "authorizedAddress",
      "outputs": [
        {
          "name": "",
          "type": "address"
        }
      ],
      "payable": false,
      "stateMutability": "view",
      "type": "function"
    },
    {
      "constant": false,
      "inputs": [
        {
          "name": "_addressParams",
          "type": "address[]"
        },
        {
          "name": "_initiater",
          "type": "address"
        }
      ],
      "name": "initialize",
      "outputs": [],
      "payable": false,
      "stateMutability": "nonpayable",
      "type": "function"
    },
    {
      "constant": true,
      "inputs": [
        {
          "name": "_asset",
          "type": "address"
        },
        {
          "name": "_user",
          "type": "address"
        },
        {
          "name": "_predictionStake",
          "type": "uint256"
        },
        {
          "name": "predictionPoints",
          "type": "uint256"
        },
        {
          "name": "_stakeValue",
          "type": "uint256"
        }
      ],
      "name": "checkMultiplier",
      "outputs": [
        {
          "name": "",
          "type": "uint256"
        },
        {
          "name": "",
          "type": "bool"
        }
      ],
      "payable": false,
      "stateMutability": "view",
      "type": "function"
    },
    {
      "constant": false,
      "inputs": [
        {
          "name": "code",
          "type": "bytes8"
        },
        {
          "name": "value",
          "type": "uint256"
        }
      ],
      "name": "updateUintParameters",
      "outputs": [],
      "payable": false,
      "stateMutability": "nonpayable",
      "type": "function"
    },
    {
      "constant": false,
      "inputs": [
        {
          "name": "code",
          "type": "bytes8"
        },
        {
          "name": "value",
          "type": "address"
        }
      ],
      "name": "updateAddressParameters",
      "outputs": [],
      "payable": false,
      "stateMutability": "nonpayable",
      "type": "function"
    },
    {
      "constant": false,
      "inputs": [],
      "name": "update",
      "outputs": [],
      "payable": false,
      "stateMutability": "nonpayable",
      "type": "function"
    },
    {
      "constant": false,
      "inputs": [],
      "name": "setInitialCummulativePrice",
      "outputs": [],
      "payable": false,
      "stateMutability": "nonpayable",
      "type": "function"
    },
    {
      "constant": true,
      "inputs": [
        {
          "name": "_priceFeed",
          "type": "address"
        }
      ],
      "name": "getPriceFeedDecimals",
      "outputs": [
        {
          "name": "",
          "type": "uint8"
        }
      ],
      "payable": false,
      "stateMutability": "view",
      "type": "function"
    },
    {
      "constant": true,
      "inputs": [],
      "name": "getBasicMarketDetails",
      "outputs": [
        {
          "name": "",
          "type": "uint256"
        },
        {
          "name": "",
          "type": "uint256"
        },
        {
          "name": "",
          "type": "uint256"
        },
        {
          "name": "",
          "type": "uint256"
        }
      ],
      "payable": false,
      "stateMutability": "view",
      "type": "function"
    },
    {
      "constant": true,
      "inputs": [
        {
          "name": "_marketFeedAddress",
          "type": "address"
        }
      ],
      "name": "getPriceCalculationParams",
      "outputs": [
        {
          "name": "",
          "type": "uint256"
        },
        {
          "name": "",
          "type": "uint256"
        },
        {
          "name": "",
          "type": "uint256"
        },
        {
          "name": "",
          "type": "uint256"
        }
      ],
      "payable": false,
      "stateMutability": "view",
      "type": "function"
    },
    {
      "constant": true,
      "inputs": [
        {
          "name": "_currencyFeedAddress",
          "type": "address"
        }
      ],
      "name": "getAssetPriceUSD",
      "outputs": [
        {
          "name": "latestAnswer",
          "type": "uint256"
        }
      ],
      "payable": false,
      "stateMutability": "view",
      "type": "function"
    },
    {
      "constant": true,
      "inputs": [
        {
          "name": "_currencyFeedAddress",
          "type": "address"
        },
        {
          "name": "_settleTime",
          "type": "uint256"
        }
      ],
      "name": "getSettlemetPrice",
      "outputs": [
        {
          "name": "latestAnswer",
          "type": "uint256"
        },
        {
          "name": "roundId",
          "type": "uint256"
        }
      ],
      "payable": false,
      "stateMutability": "view",
      "type": "function"
    },
    {
      "constant": true,
      "inputs": [
        {
          "name": "_currencyAddress",
          "type": "address"
        },
        {
          "name": "_amount",
          "type": "uint256"
        }
      ],
      "name": "getAssetValueETH",
      "outputs": [
        {
          "name": "tokenEthValue",
          "type": "uint256"
        }
      ],
      "payable": false,
      "stateMutability": "view",
      "type": "function"
    },
    {
      "constant": true,
      "inputs": [
        {
          "name": "_currencyAddress",
          "type": "address"
        }
      ],
      "name": "getAssetPriceInETH",
      "outputs": [
        {
          "name": "tokenEthValue",
          "type": "uint256"
        },
        {
          "name": "decimals",
          "type": "uint256"
        }
      ],
      "payable": false,
      "stateMutability": "view",
      "type": "function"
    },
    {
      "constant": true,
      "inputs": [],
      "name": "getDisputeResolutionParams",
      "outputs": [
        {
          "name": "",
          "type": "uint256"
        }
      ],
      "payable": false,
      "stateMutability": "view",
      "type": "function"
    },
    {
      "constant": true,
      "inputs": [
        {
          "name": "_asset",
          "type": "address"
        },
        {
          "name": "_amount",
          "type": "uint256"
        }
      ],
      "name": "getValueAndMultiplierParameters",
      "outputs": [
        {
          "name": "",
          "type": "uint256"
        },
        {
          "name": "",
          "type": "uint256"
        }
      ],
      "payable": false,
      "stateMutability": "view",
      "type": "function"
    },
    {
      "constant": true,
      "inputs": [],
      "name": "getFeedAddresses",
      "outputs": [
        {
          "name": "",
          "type": "address"
        }
      ],
      "payable": false,
      "stateMutability": "view",
      "type": "function"
    },
    {
      "constant": true,
      "inputs": [
        {
          "name": "pair",
          "type": "address"
        },
        {
          "name": "amountIn",
          "type": "uint256"
        }
      ],
      "name": "getPrice",
      "outputs": [
        {
          "name": "amountOut",
          "type": "uint256"
        }
      ],
      "payable": false,
      "stateMutability": "view",
      "type": "function"
    },
    {
      "constant": true,
      "inputs": [
        {
          "name": "params",
          "type": "uint256[]"
        },
        {
          "name": "asset",
          "type": "address"
        },
        {
          "name": "user",
          "type": "address"
        },
        {
          "name": "marketFeedAddress",
          "type": "address"
        },
        {
          "name": "_checkMultiplier",
          "type": "bool"
        }
      ],
      "name": "calculatePredictionValue",
      "outputs": [
        {
          "name": "_predictionValue",
          "type": "uint256"
        },
        {
          "name": "_multiplierApplied",
          "type": "bool"
        }
      ],
      "payable": false,
      "stateMutability": "view",
      "type": "function"
    },
    {
      "constant": true,
      "inputs": [
        {
          "name": "params",
          "type": "uint256[]"
        },
        {
          "name": "marketFeedAddress",
          "type": "address"
        }
      ],
      "name": "calculateOptionPrice",
      "outputs": [
        {
          "name": "_optionPrice",
          "type": "uint256"
        }
      ],
      "payable": false,
      "stateMutability": "view",
      "type": "function"
    }
  ],
  "bytecode": "0x608060405234801561001057600080fd5b50612007806100206000396000f3fe608060405234801561001057600080fd5b50600436106101375760003560e01c80638c8557d9116100b8578063a7343f401161007c578063a7343f4014610534578063ad2cd2661461055a578063ad4cc43e1461059f578063bfed95b8146105d5578063ecb22803146105dd578063f0a5702f1461060357610137565b80638c8557d9146103f757806398d57d21146104335780639dd86e0f146104f7578063a1dc272614610524578063a2e620451461052c57610137565b8063462d0b2e116100ff578063462d0b2e146102455780634a5f1d70146102f3578063504e87511461031f5780635539d400146103cb578063797c7480146103ef57610137565b806305a7daf71461013c578063094f81f814610188578063158ef93e146101a2578063296644b9146101be578063449e815d14610219575b600080fd5b6101626004803603602081101561015257600080fd5b50356001600160a01b031661062f565b604080519485526020850193909352838301919091526060830152519081900360800190f35b610190610659565b60408051918252519081900360200190f35b6101aa61065f565b604080519115158252519081900360200190f35b610200600480360360a08110156101d457600080fd5b506001600160a01b0381358116916020810135909116906040810135906060810135906080013561066f565b6040805192835290151560208301528051918290030190f35b6101906004803603604081101561022f57600080fd5b506001600160a01b0381351690602001356107ac565b6102f16004803603604081101561025b57600080fd5b810190602081018135600160201b81111561027557600080fd5b82018360208201111561028757600080fd5b803590602001918460208302840111600160201b831117156102a857600080fd5b919080806020026020016040519081016040528093929190818152602001838360200280828437600092019190915250929550505090356001600160a01b031691506108049050565b005b6101906004803603604081101561030957600080fd5b506001600160a01b038135169060200135610b17565b6101906004803603604081101561033557600080fd5b810190602081018135600160201b81111561034f57600080fd5b82018360208201111561036157600080fd5b803590602001918460208302840111600160201b8311171561038257600080fd5b919080806020026020016040519081016040528093929190818152602001838360200280828437600092019190915250929550505090356001600160a01b03169150610b5b9050565b6103d3610e1b565b604080516001600160a01b039092168252519081900360200190f35b6103d3610e2a565b61041d6004803603602081101561040d57600080fd5b50356001600160a01b0316610e39565b6040805160ff9092168252519081900360200190f35b610200600480360360a081101561044957600080fd5b810190602081018135600160201b81111561046357600080fd5b82018360208201111561047557600080fd5b803590602001918460208302840111600160201b8311171561049657600080fd5b919080806020026020016040519081016040528093929190818152602001838360200280828437600092019190915250929550506001600160a01b038335811694506020840135811693604081013590911692506060013515159050610ea6565b6102f16004803603604081101561050d57600080fd5b506001600160c01b03198135169060200135610f5b565b6102f16111a5565b6102f1611310565b6101906004803603602081101561054a57600080fd5b50356001600160a01b031661150a565b6105866004803603604081101561057057600080fd5b506001600160a01b038135169060200135611545565b6040805192835260208301919091528051918290030190f35b6102f1600480360360408110156105b557600080fd5b5080356001600160c01b03191690602001356001600160a01b03166115d2565b610162611768565b610586600480360360208110156105f357600080fd5b50356001600160a01b031661177a565b6105866004803603604081101561061957600080fd5b506001600160a01b038135169060200135611830565b60008060008060006106408661150a565b6000546001546002549199909850919650945092505050565b60085490565b600d54600160a01b900460ff1681565b60105460408051600160e01b63179e91f10281526001600160a01b038781166004830152600160f01b61534d0260248301524260448301529151600093849384938493919092169163179e91f1916064808301926020929190829003018186803b1580156106dc57600080fd5b505afa1580156106f0573d6000803e3d6000fd5b505050506040513d602081101561070657600080fd5b5051905060006107168a89611545565b6006549092508710159050610733578683945094505050506107a2565b60646000610747848463ffffffff61197d16565b11156107845761077e61076183600a63ffffffff6119ea16565b61077285606463ffffffff6119ea16565b9063ffffffff61197d16565b60019450015b61079960646107728a8463ffffffff6119ea16565b95509293505050505b9550959350505050565b6001600160a01b0382166000908152600e602090815260408083208151928301909152546001600160e01b031681526107f4906107ef908463ffffffff611a4616565b611ac7565b6001600160901b03169392505050565b6000309050806001600160a01b031663025313a26040518163ffffffff1660e01b815260040160206040518083038186803b15801561084257600080fd5b505afa158015610856573d6000803e3d6000fd5b505050506040513d602081101561086c57600080fd5b50516001600160a01b031633146108cd5760408051600160e51b62461bcd02815260206004820152601a60248201527f53656e646572206973206e6f742070726f7879206f776e65722e000000000000604482015290519081900360640190fd5b600d54600160a01b900460ff161561092f5760408051600160e51b62461bcd02815260206004820152601360248201527f416c726561647920696e697469616c697a656400000000000000000000000000604482015290519081900360640190fd5b600d805474ff00000000000000000000000000000000000000001916600160a01b17905561095b611ace565b600d80546001600160a01b0319163390811790915560408051600160e11b6376eecec1028152905163eddd9d8291600480820192602092909190829003018186803b1580156109a957600080fd5b505afa1580156109bd573d6000803e3d6000fd5b505050506040513d60208110156109d357600080fd5b5051601080546001600160a01b0319166001600160a01b03909216919091179055825183906001908110610a0357fe5b6020908102919091010151600980546001600160a01b03199081166001600160a01b0393841617909155600c805490911691841691909117905582518390600090610a4a57fe5b60200260200101516001600160a01b031663ad5c46486040518163ffffffff1660e01b815260040160206040518083038186803b158015610a8a57600080fd5b505afa158015610a9e573d6000803e3d6000fd5b505050506040513d6020811015610ab457600080fd5b5051600b80546001600160a01b0319166001600160a01b03909216919091179055825183906002908110610ae457fe5b6020026020010151600f60006101000a8154816001600160a01b0302191690836001600160a01b03160217905550505050565b806001600160a01b03831673eeeeeeeeeeeeeeeeeeeeeeeeeeeeeeeeeeeeeeee14610b5557600a54610b52906001600160a01b0316836107ac565b90505b92915050565b600080610bb7610b94600960009054906101000a90046001600160a01b031686600681518110610b8757fe5b6020026020010151610b17565b85600581518110610ba157fe5b6020026020010151611b2390919063ffffffff16565b90506000610bf1610be4600960009054906101000a90046001600160a01b031687600881518110610b8757fe5b86600781518110610ba157fe5b6000935090508280610c028661150a565b905060008054905060008160640390506000610c4f8a600381518110610c2457fe5b60200260200101518b600481518110610c3957fe5b6020026020010151611b8090919063ffffffff16565b90506000610c686002548361197d90919063ffffffff16565b90508a600481518110610c7757fe5b6020026020010151421115610c9757600098505050505050505050610b55565b600154881115610cca57610cc7610cb4898663ffffffff6119ea16565b61077289620f424063ffffffff6119ea16565b98505b60008b600181518110610cd957fe5b6020026020010151861015610cf45750600195506002610d24565b8b600281518110610d0157fe5b6020026020010151861115610d1c5750600395506002610d24565b506002955060015b6000610d44888e600081518110610d3757fe5b6020026020010151611be0565b905060008d600381518110610d5557fe5b60200260200101514211610d6a576000610d91565b610d918e600381518110610d7a57fe5b602002602001015142611b8090919063ffffffff16565b9050838111610da05783610da2565b805b9050610df6610de9610dcd87610dc1600188018b63ffffffff6119ea16565b9063ffffffff6119ea16565b61077284610dc1620f42408160018b018a63ffffffff611b8016565b8d9063ffffffff611b2316565b9b50610e098c606463ffffffff61197d16565b9e9d5050505050505050505050505050565b600d546001600160a01b031681565b600f546001600160a01b031690565b6000816001600160a01b031663313ce5676040518163ffffffff1660e01b815260040160206040518083038186803b158015610e7457600080fd5b505afa158015610e88573d6000803e3d6000fd5b505050506040513d6020811015610e9e57600080fd5b505192915050565b6000806000610ebc8789600981518110610b8757fe5b9050600354811080610ecf575060045481115b15610eda57506107a2565b6000610ee68987610b5b565b9050610f1b610f00600554846119ea90919063ffffffff16565b828b600a81518110610f0e57fe5b6020026020010151611c0e565b93508415610f4f57610f4488888b600981518110610f3557fe5b6020026020010151878661066f565b9350935050506107a2565b50509550959350505050565b600d546001600160a01b03163314610fb15760408051600160e51b62461bcd02815260206004820152600e6024820152600160921b6d139bdd08185d5d1a1bdc9a5e995902604482015290519081900360640190fd5b600160f01b615357026001600160c01b03198316141561101857606481111561100e57604051600160e51b62461bcd028152600401808060200182810382526022815260200180611fba6022913960400191505060405180910390fd5b60008190556111a1565b600160e01b6353574d41026001600160c01b03198316141561103e5760018190556111a1565b600160e21b6313551151026001600160c01b0319831614156110645760028190556111a1565b600160d21b65135253941491026001600160c01b03198316141561108c5760038190556111a1565b600160d21b65135056141491026001600160c01b0319831614156110b45760048190556111a1565b600160e01b6350444543026001600160c01b0319831614156110da5760058190556111a1565b600160d01b654d494e53544d026001600160c01b0319831614156111025760068190556111a1565b600160d81b645250455243026001600160c01b0319831614156111295760078190556111a1565b600160d41b65054534449535026001600160c01b0319831614156111515760088190556111a1565b60408051600160e51b62461bcd02815260206004820152600c60248201527f496e76616c696420636f64650000000000000000000000000000000000000000604482015290519081900360640190fd5b5050565b600c546001600160a01b031633146111bc57600080fd5b600a546001600160a01b03161561121d5760408051600160e51b62461bcd02815260206004820152601360248201527f416c726561647920696e697469616c6973656400000000000000000000000000604482015290519081900360640190fd5b600f54600954600b5460408051600160e01b63e6a439050281526001600160a01b039384166004820152918316602483015251919092169163e6a43905916044808301926020929190829003018186803b15801561127a57600080fd5b505afa15801561128e573d6000803e3d6000fd5b505050506040513d60208110156112a457600080fd5b5051600a80546001600160a01b0319166001600160a01b039283161790819055166000818152600e6020526040812091819081906112e190611c8f565b600187019290925560038601556004909401805463ffffffff191663ffffffff90951694909417909355505050565b600d546001600160a01b031633146113665760408051600160e51b62461bcd02815260206004820152600e6024820152600160921b6d139bdd08185d5d1a1bdc9a5e995902604482015290519081900360640190fd5b600a546001600160a01b03166113c65760408051600160e51b62461bcd02815260206004820152601460248201527f556e69737761702070616972206e6f7420736574000000000000000000000000604482015290519081900360640190fd5b600a546001600160a01b03166000818152600e6020526040812091819081906113ee90611c8f565b6004870154929550909350915063ffffffff908116820390610e1090821610158061142557506004850154600160201b900460ff16155b156115035760405180602001604052808263ffffffff16876001015487038161144a57fe5b046001600160e01b03908116909152905186546001600160e01b031916911617855560408051602081019091526003860154819063ffffffff84169086038161148f57fe5b046001600160e01b0390811690915290516002870180546001600160e01b03191691909216179055600185018490556003850183905560048501805463ffffffff191663ffffffff84161790819055600160201b900460ff166115035760048501805464ff000000001916600160201b1790555b5050505050565b6000816001600160a01b03166350d25bcd6040518163ffffffff1660e01b815260040160206040518083038186803b158015610e7457600080fd5b600080826001600160a01b03851673eeeeeeeeeeeeeeeeeeeeeeeeeeeeeeeeeeeeeeee14156115c557600a546001600160a01b03166000908152600e602090815260409182902082519182019092526002909101546001600160e01b031681526115b9906107ef908663ffffffff611a4616565b6001600160901b031690505b6006549590945092505050565b600d546001600160a01b031633146116285760408051600160e51b62461bcd02815260206004820152600e6024820152600160921b6d139bdd08185d5d1a1bdc9a5e995902604482015290519081900360640190fd5b6001600160a01b0381166116865760408051600160e51b62461bcd02815260206004820152601a60248201527f56616c75652063616e6e6f742062652061646472657373283029000000000000604482015290519081900360640190fd5b600160d01b65554e49464143026001600160c01b03198316141561115157600f80546001600160a01b0319166001600160a01b038381169190911791829055600954600b5460408051600160e01b63e6a439050281529284166004840152908316602483015251929091169163e6a4390591604480820192602092909190829003018186803b15801561171857600080fd5b505afa15801561172c573d6000803e3d6000fd5b505050506040513d602081101561174257600080fd5b5051600a80546001600160a01b0319166001600160a01b039092169190911790556111a1565b60035460075460055460045490919293565b600160006001600160a01b03831673eeeeeeeeeeeeeeeeeeeeeeeeeeeeeeeeeeeeeeee1461182b57826001600160a01b031663313ce5676040518163ffffffff1660e01b815260040160206040518083038186803b1580156117db57600080fd5b505afa1580156117ef573d6000803e3d6000fd5b505050506040513d602081101561180557600080fd5b5051600a805460ff9092169250611828916001600160a01b03169083900a6107ac565b91505b915091565b6000806000806000866001600160a01b031663feaf968c6040518163ffffffff1660e01b815260040160a06040518083038186803b15801561187157600080fd5b505afa158015611885573d6000803e3d6000fd5b505050506040513d60a081101561189b57600080fd5b5080516020820151606090920151909450925090505b858211156119655760408051600160e01b639a6fc8f502815269ffffffffffffffffffff600019909501948516600482015290516001600160a01b03891691639a6fc8f59160248083019260a0929190829003018186803b15801561191557600080fd5b505afa158015611929573d6000803e3d6000fd5b505050506040513d60a081101561193f57600080fd5b50805160208201516060909201519094509250905085821161196057611965565b6118b1565b93505069ffffffffffffffffffff1690509250929050565b60008082116119d65760408051600160e51b62461bcd02815260206004820152601a60248201527f536166654d6174683a206469766973696f6e206279207a65726f000000000000604482015290519081900360640190fd5b60008284816119e157fe5b04949350505050565b6000826119f957506000610b55565b82820282848281611a0657fe5b0414610b5257604051600160e51b62461bcd028152600401808060200182810382526021815260200180611f766021913960400191505060405180910390fd5b611a4e611f50565b6000821580611a7457505082516001600160e01b031682810290838281611a7157fe5b04145b611ab257604051600160e51b62461bcd028152600401808060200182810382526023815260200180611f976023913960400191505060405180910390fd5b60408051602081019091529081529392505050565b5160701c90565b60286000556801158e460913d000006001556006600281905566038d7ea4c6800060035568018493fba64ef0000060045560646005556706f05b59d3b2000090556014600755681b1ae4d6e2ef500000600855565b600082820183811015610b525760408051600160e51b62461bcd02815260206004820152601b60248201527f536166654d6174683a206164646974696f6e206f766572666c6f770000000000604482015290519081900360640190fd5b600082821115611bda5760408051600160e51b62461bcd02815260206004820152601e60248201527f536166654d6174683a207375627472616374696f6e206f766572666c6f770000604482015290519081900360640190fd5b50900390565b6000818311611bfe57611bf9828463ffffffff611b8016565b610b52565b610b52838363ffffffff611b8016565b60006103e8603260001984010201611c3a670de0b6b3a7640000610772876109c463ffffffff6119ea16565b9450611c86611c5385634a817c8063ffffffff6119ea16565b610772858402606402610dc1611c79611c748b61271063ffffffff6119ea16565b611e64565b8a9063ffffffff6119ea16565b95945050505050565b6000806000611c9c611e9b565b9050836001600160a01b0316635909c0d56040518163ffffffff1660e01b815260040160206040518083038186803b158015611cd757600080fd5b505afa158015611ceb573d6000803e3d6000fd5b505050506040513d6020811015611d0157600080fd5b505160408051600160e01b635a3d549302815290519194506001600160a01b03861691635a3d549391600480820192602092909190829003018186803b158015611d4a57600080fd5b505afa158015611d5e573d6000803e3d6000fd5b505050506040513d6020811015611d7457600080fd5b505160408051600160e21b630240bc6b0281529051919350600091829182916001600160a01b03891691630902f1ac916004808301926060929190829003018186803b158015611dc357600080fd5b505afa158015611dd7573d6000803e3d6000fd5b505050506040513d6060811015611ded57600080fd5b5080516020820151604090920151909450909250905063ffffffff80821690851614611e5a5780840363ffffffff8116611e278486611ea5565b516001600160e01b031602969096019563ffffffff8116611e488585611ea5565b516001600160e01b0316029590950194505b5050509193909250565b80600260018201045b81811015611e9557809150600281828581611e8457fe5b040181611e8d57fe5b049050611e6d565b50919050565b63ffffffff421690565b611ead611f63565b6000826001600160701b031611611f0e5760408051600160e51b62461bcd02815260206004820152601760248201527f4669786564506f696e743a204449565f42595f5a45524f000000000000000000604482015290519081900360640190fd5b6040805160208101909152806001600160701b0380851690861660701b6001600160e01b031681611f3b57fe5b046001600160e01b0316815250905092915050565b6040518060200160405280600081525090565b6040805160208101909152600081529056fe536166654d6174683a206d756c7469706c69636174696f6e206f766572666c6f774669786564506f696e743a204d554c5449504c49434154494f4e5f4f564552464c4f5756616c7565206d757374206265206c657373206f7220657175616c20746f20313030a165627a7a7230582096cc7ba1754940041d3fa3c4419a3c283007fc8f303dddc295486cbc6d1b2a1c0029",
  "source": "/* Copyright (C) 2020 PlotX.io\r\n\r\n  This program is free software: you can redistribute it and/or modify\r\n    it under the terms of the GNU General Public License as published by\r\n    the Free Software Foundation, either version 3 of the License, or\r\n    (at your option) any later version.\r\n\r\n  This program is distributed in the hope that it will be useful,\r\n    but WITHOUT ANY WARRANTY; without even the implied warranty of\r\n    MERCHANTABILITY or FITNESS FOR A PARTICULAR PURPOSE.  See the\r\n    GNU General Public License for more details.\r\n\r\n  You should have received a copy of the GNU General Public License\r\n    along with this program.  If not, see http://www.gnu.org/licenses/ */\r\n\r\npragma solidity 0.5.7;\r\n\r\nimport \"./external/uniswap/solidity-interface.sol\";\r\nimport \"./external/uniswap/FixedPoint.sol\";\r\nimport \"./external/uniswap/oracleLibrary.sol\";\r\nimport \"./external/openzeppelin-solidity/math/SafeMath.sol\";\r\nimport \"./external/proxy/OwnedUpgradeabilityProxy.sol\";\r\nimport \"./interfaces/ITokenController.sol\";\r\nimport \"./interfaces/IMarketRegistry.sol\";\r\nimport \"./interfaces/IChainLinkOracle.sol\";\r\nimport \"./interfaces/IToken.sol\";\r\n\r\ncontract MarketUtility {\r\n    using SafeMath for uint256;\r\n    using FixedPoint for *;\r\n\r\n    address constant ETH_ADDRESS = 0xEeeeeEeeeEeEeeEeEeEeeEEEeeeeEeeeeeeeEEeE;\r\n    uint256 constant updatePeriod = 1 hours;\r\n\r\n    uint256 internal STAKE_WEIGHTAGE;\r\n    uint256 internal STAKE_WEIGHTAGE_MIN_AMOUNT;\r\n    uint256 internal minTimeElapsedDivisor;\r\n    uint256 internal minPredictionAmount;\r\n    uint256 internal maxPredictionAmount;\r\n    uint256 internal positionDecimals;\r\n    uint256 internal minStakeForMultiplier;\r\n    uint256 internal riskPercentage;\r\n    uint256 internal tokenStakeForDispute;\r\n    address internal plotToken;\r\n    address internal plotETHpair;\r\n    address internal weth;\r\n    address internal initiater;\r\n    address public authorizedAddress;\r\n    bool public initialized;\r\n\r\n\r\n    struct UniswapPriceData {\r\n        FixedPoint.uq112x112 price0Average;\r\n        uint256 price0CumulativeLast;\r\n        FixedPoint.uq112x112 price1Average;\r\n        uint256 price1CumulativeLast;\r\n        uint32 blockTimestampLast;\r\n        bool initialized;\r\n    }\r\n\r\n    mapping(address => UniswapPriceData) internal uniswapPairData;\r\n    IUniswapV2Factory uniswapFactory;\r\n\r\n    ITokenController internal tokenController;\r\n    modifier onlyAuthorized() {\r\n        require(msg.sender == authorizedAddress, \"Not authorized\");\r\n        _;\r\n    }\r\n\r\n    /**\r\n     * @dev Initiates the config contact with initial values\r\n     **/\r\n    function initialize(address payable[] memory _addressParams, address _initiater) public {\r\n        OwnedUpgradeabilityProxy proxy = OwnedUpgradeabilityProxy(\r\n            address(uint160(address(this)))\r\n        );\r\n        require(msg.sender == proxy.proxyOwner(), \"Sender is not proxy owner.\");\r\n        require(!initialized, \"Already initialized\");\r\n        initialized = true;\r\n        _setInitialParameters();\r\n        authorizedAddress = msg.sender;\r\n        tokenController = ITokenController(IMarketRegistry(msg.sender).tokenController());\r\n        plotToken = _addressParams[1];\r\n        initiater = _initiater;\r\n        weth = IUniswapV2Router02(_addressParams[0]).WETH();\r\n        uniswapFactory = IUniswapV2Factory(_addressParams[2]);\r\n    }\r\n\r\n    /**\r\n     * @dev Internal function to set initial value\r\n     **/\r\n    function _setInitialParameters() internal {\r\n        STAKE_WEIGHTAGE = 40; //\r\n        STAKE_WEIGHTAGE_MIN_AMOUNT = 20 ether;\r\n        minTimeElapsedDivisor = 6;\r\n        minPredictionAmount = 1e15;\r\n        maxPredictionAmount = 28 ether;\r\n        positionDecimals = 1e2;\r\n        minStakeForMultiplier = 5e17;\r\n        riskPercentage = 20;\r\n        tokenStakeForDispute = 500 ether;\r\n    }\r\n\r\n    /**\r\n    * @dev Check if user gets any multiplier on his positions\r\n    * @param _asset The assets uses by user during prediction.\r\n    * @param _predictionStake The amount staked by user at the time of prediction.\r\n    * @param predictionPoints The actual positions user got during prediction.\r\n    * @param _stakeValue The stake value of asset.\r\n    * @return uint256 representing multiplied positions\r\n    */\r\n    function checkMultiplier(address _asset, address _user, uint _predictionStake, uint predictionPoints, uint _stakeValue) public view returns(uint, bool) {\r\n      bool multiplierApplied;\r\n      uint _stakedBalance = tokenController.tokensLockedAtTime(_user, \"SM\", now);\r\n      uint _predictionValueInToken;\r\n      (, _predictionValueInToken) = getValueAndMultiplierParameters(_asset, _predictionStake);\r\n      if(_stakeValue < minStakeForMultiplier) {\r\n        return (predictionPoints,multiplierApplied);\r\n      }\r\n      uint _muliplier = 100;\r\n      if(_stakedBalance.div(_predictionValueInToken) > 0) {\r\n        _muliplier = _muliplier + _stakedBalance.mul(100).div(_predictionValueInToken.mul(10));\r\n        multiplierApplied = true;\r\n      }\r\n      return (predictionPoints.mul(_muliplier).div(100),multiplierApplied);\r\n    }\r\n\r\n    /**\r\n     * @dev Updates integer parameters of config\r\n     **/\r\n    function updateUintParameters(bytes8 code, uint256 value)\r\n        external\r\n        onlyAuthorized\r\n    {\r\n        if (code == \"SW\") { // Stake weightage\r\n            require(value <= 100, \"Value must be less or equal to 100\");\r\n            STAKE_WEIGHTAGE = value;\r\n        } else if (code == \"SWMA\") { // Minimum amount required for stake weightage\r\n            STAKE_WEIGHTAGE_MIN_AMOUNT = value;\r\n        } else if (code == \"MTED\") { // Minimum time elapsed divisor\r\n            minTimeElapsedDivisor = value;\r\n        } else if (code == \"MINPRD\") { // Minimum predictionamount\r\n            minPredictionAmount = value;\r\n        } else if (code == \"MAXPRD\") { // Minimum predictionamount\r\n            maxPredictionAmount = value;\r\n        } else if (code == \"PDEC\") { // Position's Decimals\r\n            positionDecimals = value;\r\n        } else if (code == \"MINSTM\") { // Min stake required for applying multiplier\r\n            minStakeForMultiplier = value;\r\n        } else if (code == \"RPERC\") { // Risk percentage\r\n            riskPercentage = value;\r\n        } else if (code == \"TSDISP\") { // Amount of tokens to be staked for raising a dispute\r\n            tokenStakeForDispute = value;\r\n        } else {\r\n            revert(\"Invalid code\");\r\n        }\r\n    }\r\n\r\n    /**\r\n     * @dev Updates address parameters of config\r\n     **/\r\n    function updateAddressParameters(bytes8 code, address payable value)\r\n        external\r\n        onlyAuthorized\r\n    {\r\n        require(value != address(0), \"Value cannot be address(0)\");\r\n        if (code == \"UNIFAC\") { // Uniswap factory address\r\n            uniswapFactory = IUniswapV2Factory(value);\r\n            plotETHpair = uniswapFactory.getPair(plotToken, weth);\r\n        } else {\r\n            revert(\"Invalid code\");\r\n        }\r\n    }\r\n\r\n    /**\r\n     * @dev Update cumulative price of token in uniswap\r\n     **/\r\n    function update() external onlyAuthorized {\r\n        require(plotETHpair != address(0), \"Uniswap pair not set\");\r\n        UniswapPriceData storage _priceData = uniswapPairData[plotETHpair];\r\n        (\r\n            uint256 price0Cumulative,\r\n            uint256 price1Cumulative,\r\n            uint32 blockTimestamp\r\n        ) = UniswapV2OracleLibrary.currentCumulativePrices(plotETHpair);\r\n        uint32 timeElapsed = blockTimestamp - _priceData.blockTimestampLast; // overflow is desired\r\n\r\n        if (timeElapsed >= updatePeriod || !_priceData.initialized) {\r\n            // overflow is desired, casting never truncates\r\n            // cumulative price is in (uq112x112 price * seconds) units so we simply wrap it after division by time elapsed\r\n            _priceData.price0Average = FixedPoint.uq112x112(\r\n                uint224(\r\n                    (price0Cumulative - _priceData.price0CumulativeLast) /\r\n                        timeElapsed\r\n                )\r\n            );\r\n            _priceData.price1Average = FixedPoint.uq112x112(\r\n                uint224(\r\n                    (price1Cumulative - _priceData.price1CumulativeLast) /\r\n                        timeElapsed\r\n                )\r\n            );\r\n\r\n            _priceData.price0CumulativeLast = price0Cumulative;\r\n            _priceData.price1CumulativeLast = price1Cumulative;\r\n            _priceData.blockTimestampLast = blockTimestamp;\r\n            if(!_priceData.initialized) {\r\n              _priceData.initialized = true;\r\n            }\r\n        }\r\n    }\r\n\r\n    /**\r\n     * @dev Set initial PLOT/ETH pair cummulative price\r\n     **/\r\n    function setInitialCummulativePrice() public {\r\n      require(msg.sender == initiater);\r\n      require(plotETHpair == address(0),\"Already initialised\");\r\n      plotETHpair = uniswapFactory.getPair(plotToken, weth);\r\n      UniswapPriceData storage _priceData = uniswapPairData[plotETHpair];\r\n      (\r\n          uint256 price0Cumulative,\r\n          uint256 price1Cumulative,\r\n          uint32 blockTimestamp\r\n      ) = UniswapV2OracleLibrary.currentCumulativePrices(plotETHpair);\r\n      _priceData.price0CumulativeLast = price0Cumulative;\r\n      _priceData.price1CumulativeLast = price1Cumulative;\r\n      _priceData.blockTimestampLast = blockTimestamp;\r\n    }\r\n\r\n    /**\r\n    * @dev Get decimals of given price feed address \r\n    */\r\n    function getPriceFeedDecimals(address _priceFeed) public view returns(uint8) {\r\n      return IChainLinkOracle(_priceFeed).decimals();\r\n    }\r\n\r\n    /**\r\n     * @dev Get basic market details\r\n     * @return Minimum amount required to predict in market\r\n     * @return Percentage of users leveraged amount to deduct when placed in wrong prediction\r\n     * @return Decimal points for prediction positions\r\n     * @return Maximum prediction amount\r\n     **/\r\n    function getBasicMarketDetails()\r\n        public\r\n        view\r\n        returns (\r\n            uint256,\r\n            uint256,\r\n            uint256,\r\n            uint256\r\n        )\r\n    {\r\n        return (minPredictionAmount, riskPercentage, positionDecimals, maxPredictionAmount);\r\n    }\r\n\r\n    /**\r\n     * @dev Get Parameter required for option price calculation\r\n     * @param _marketFeedAddress  Feed Address of currency on which market options are based on\r\n     * @return Stake weightage percentage for calculation option price\r\n     * @return minimum amount of stake required to consider stake weightage\r\n     * @return Current price of the market currency\r\n     * @return Divisor to calculate minimum time elapsed for a market type\r\n     **/\r\n    function getPriceCalculationParams(\r\n        address _marketFeedAddress\r\n    )\r\n        public\r\n        view\r\n        returns (\r\n            uint256,\r\n            uint256,\r\n            uint256,\r\n            uint256\r\n        )\r\n    {\r\n        uint256 _currencyPrice = getAssetPriceUSD(\r\n            _marketFeedAddress\r\n        );\r\n        return (\r\n            STAKE_WEIGHTAGE,\r\n            STAKE_WEIGHTAGE_MIN_AMOUNT,\r\n            _currencyPrice,\r\n            minTimeElapsedDivisor\r\n        );\r\n    }\r\n\r\n    /**\r\n     * @dev Get price of provided feed address\r\n     * @param _currencyFeedAddress  Feed Address of currency on which market options are based on\r\n     * @return Current price of the market currency\r\n     **/\r\n    function getAssetPriceUSD(\r\n        address _currencyFeedAddress\r\n    ) public view returns (uint256 latestAnswer) {\r\n        return uint256(IChainLinkOracle(_currencyFeedAddress).latestAnswer());\r\n    }\r\n\r\n    /**\r\n     * @dev Get price of provided feed address\r\n     * @param _currencyFeedAddress  Feed Address of currency on which market options are based on\r\n     * @return Current price of the market currency\r\n     **/\r\n    function getSettlemetPrice(\r\n        address _currencyFeedAddress,\r\n        uint256 _settleTime\r\n    ) public view returns (uint256 latestAnswer, uint256 roundId) {\r\n        uint80 currentRoundId;\r\n        uint256 currentRoundTime;\r\n        int256 currentRoundAnswer;\r\n        (currentRoundId, currentRoundAnswer, , currentRoundTime, )= IChainLinkOracle(_currencyFeedAddress).latestRoundData();\r\n        while(currentRoundTime > _settleTime) {\r\n            currentRoundId--;\r\n            (currentRoundId, currentRoundAnswer, , currentRoundTime, )= IChainLinkOracle(_currencyFeedAddress).getRoundData(currentRoundId);\r\n            if(currentRoundTime <= _settleTime) {\r\n                break;\r\n            }\r\n        }\r\n        return\r\n            (uint256(currentRoundAnswer), currentRoundId);\r\n    }\r\n\r\n    /**\r\n     * @dev Get value of provided currency address in ETH\r\n     * @param _currencyAddress Address of currency\r\n     * @param _amount Amount of provided currency\r\n     * @return Value of provided amount in ETH\r\n     **/\r\n    function getAssetValueETH(address _currencyAddress, uint256 _amount)\r\n        public\r\n        view\r\n        returns (uint256 tokenEthValue)\r\n    {\r\n        tokenEthValue = _amount;\r\n        if (_currencyAddress != ETH_ADDRESS) {\r\n            tokenEthValue = getPrice(plotETHpair, _amount);\r\n        }\r\n    }\r\n\r\n    /**\r\n     * @dev Get price of provided currency address in ETH\r\n     * @param _currencyAddress Address of currency\r\n     * @return Price of provided currency in ETH\r\n     * @return Decimals of the currency\r\n     **/\r\n    function getAssetPriceInETH(address _currencyAddress)\r\n        public\r\n        view\r\n        returns (uint256 tokenEthValue, uint256 decimals)\r\n    {\r\n        tokenEthValue = 1;\r\n        if (_currencyAddress != ETH_ADDRESS) {\r\n            decimals = IToken(_currencyAddress).decimals();\r\n            tokenEthValue = getPrice(plotETHpair, 10**decimals);\r\n        }\r\n    }\r\n\r\n    /**\r\n     * @dev Get amount of stake required to raise a dispute\r\n     **/\r\n    function getDisputeResolutionParams() public view returns (uint256) {\r\n        return tokenStakeForDispute;\r\n    }\r\n\r\n    /**\r\n     * @dev Get value of _asset in PLOT token and multiplier parameters\r\n     * @param _asset Address of asset for which value is requested\r\n     * @param _amount Amount of _asset\r\n     * @return min prediction amount required for multiplier\r\n     * @return value of given asset in PLOT tokens\r\n     **/\r\n    function getValueAndMultiplierParameters(address _asset, uint256 _amount)\r\n        public\r\n        view\r\n        returns (uint256, uint256)\r\n    {\r\n        uint256 _value = _amount;\r\n        if (_asset == ETH_ADDRESS) {\r\n            _value = (uniswapPairData[plotETHpair].price1Average)\r\n                .mul(_amount)\r\n                .decode144();\r\n        }\r\n        return (minStakeForMultiplier, _value);\r\n    }\r\n\r\n    /**\r\n     * @dev Get Market feed address\r\n     * @return Uniswap factory address\r\n     **/\r\n    function getFeedAddresses() public view returns (address) {\r\n        return (address(uniswapFactory));\r\n    }\r\n\r\n    /**\r\n     * @dev Get value of token in pair\r\n     **/\r\n    function getPrice(address pair, uint256 amountIn)\r\n        public\r\n        view\r\n        returns (uint256 amountOut)\r\n    {\r\n        amountOut = (uniswapPairData[pair].price0Average)\r\n            .mul(amountIn)\r\n            .decode144();\r\n    }\r\n\r\n    /**\r\n    * @dev function to calculate square root of a number\r\n    */\r\n    function sqrt(uint x) internal pure returns (uint y) {\r\n      uint z = (x + 1) / 2;\r\n      y = x;\r\n      while (z < y) {\r\n          y = z;\r\n          z = (x / z + z) / 2;\r\n      }\r\n    }\r\n\r\n    /**\r\n    * @dev Calculate the prediction value, passing all the required params\r\n    * params index\r\n    * 0 _prediction\r\n    * 1 neutralMinValue\r\n    * 2 neutralMaxValue\r\n    * 3 startTime\r\n    * 4 expireTime\r\n    * 5 totalStakedETH\r\n    * 6 totalStakedToken\r\n    * 7 ethStakedOnOption\r\n    * 8 plotStakedOnOption\r\n    * 9 _stake\r\n    * 10 _leverage\r\n    */\r\n    function calculatePredictionValue(uint[] memory params, address asset, address user, address marketFeedAddress, bool _checkMultiplier) public view returns(uint _predictionValue, bool _multiplierApplied) {\r\n      uint _stakeValue = getAssetValueETH(asset, params[9]);\r\n      if(_stakeValue < minPredictionAmount || _stakeValue > maxPredictionAmount) {\r\n        return (_predictionValue, _multiplierApplied);\r\n      }\r\n      uint optionPrice;\r\n      \r\n      optionPrice = calculateOptionPrice(params, marketFeedAddress);\r\n      _predictionValue = _calculatePredictionPoints(_stakeValue.mul(positionDecimals), optionPrice, params[10]);\r\n      if(_checkMultiplier) {\r\n        return checkMultiplier(asset, user, params[9],  _predictionValue, _stakeValue);\r\n      }\r\n      return (_predictionValue, _multiplierApplied);\r\n    }\r\n\r\n    function _calculatePredictionPoints(uint value, uint optionPrice, uint _leverage) internal pure returns(uint) {\r\n      //leverageMultiplier = levergage + (leverage -1)*0.05; Raised by 3 decimals i.e 1000\r\n      uint leverageMultiplier = 1000 + (_leverage-1)*50;\r\n      value = value.mul(2500).div(1e18);\r\n      // (amount*sqrt(amount*100)*leverage*100/(price*10*125000/1000));\r\n      return value.mul(sqrt(value.mul(10000))).mul(_leverage*100*leverageMultiplier).div(optionPrice.mul(1250000000));\r\n    }\r\n\r\n    /**\r\n    * @dev Calculate the option price for given params\r\n    * params\r\n    * 0 _option\r\n    * 1 neutralMinValue\r\n    * 2 neutralMaxValue\r\n    * 3 startTime\r\n    * 4 expireTime\r\n    * 5 totalStakedETH\r\n    * 6 totalStakedToken\r\n    * 7 ethStakedOnOption\r\n    * 8 plotStakedOnOption\r\n    */\r\n    function calculateOptionPrice(uint[] memory params, address marketFeedAddress) public view returns(uint _optionPrice) {\r\n      uint _totalStaked = params[5].add(getAssetValueETH(plotToken, params[6]));\r\n      uint _assetStakedOnOption = params[7]\r\n                                .add(\r\n                                  (getAssetValueETH(plotToken, params[8])));\r\n      _optionPrice = 0;\r\n      uint currentPriceOption = 0;\r\n      uint256 currentPrice = getAssetPriceUSD(\r\n          marketFeedAddress\r\n      );\r\n      uint stakeWeightage = STAKE_WEIGHTAGE;\r\n      uint predictionWeightage = 100 - stakeWeightage;\r\n      uint predictionTime = params[4].sub(params[3]);\r\n      uint minTimeElapsed = (predictionTime).div(minTimeElapsedDivisor);\r\n      if(now > params[4]) {\r\n        return 0;\r\n      }\r\n      if(_totalStaked > STAKE_WEIGHTAGE_MIN_AMOUNT) {\r\n        _optionPrice = (_assetStakedOnOption).mul(1000000).div(_totalStaked.mul(stakeWeightage));\r\n      }\r\n\r\n      uint maxDistance;\r\n      if(currentPrice < params[1]) {\r\n        currentPriceOption = 1;\r\n        maxDistance = 2;\r\n      } else if(currentPrice > params[2]) {\r\n        currentPriceOption = 3;\r\n        maxDistance = 2;\r\n      } else {\r\n        currentPriceOption = 2;\r\n        maxDistance = 1;\r\n      }\r\n      uint distance = _getAbsoluteDifference(currentPriceOption, params[0]);\r\n      uint timeElapsed = now > params[3] ? now.sub(params[3]) : 0;\r\n      timeElapsed = timeElapsed > minTimeElapsed ? timeElapsed: minTimeElapsed;\r\n      _optionPrice = _optionPrice.add((((maxDistance+1).sub(distance)).mul(1000000).mul(timeElapsed)).div((maxDistance+1).mul(predictionWeightage).mul(predictionTime)));\r\n      _optionPrice = _optionPrice.div(100);\r\n    }\r\n\r\n    /**\r\n    * @dev Internal function to get the absolute difference of two values\r\n    */\r\n    function _getAbsoluteDifference(uint value1, uint value2) internal pure returns(uint) {\r\n      return value1 > value2 ? value1.sub(value2) : value2.sub(value1);\r\n    }\r\n}\r\n",
  "sourcePath": "/home/madan/Documents/PlotX/PlotxContract/contracts/MarketUtility.sol",
  "compiler": {
    "name": "solc",
    "version": "0.5.7+commit.6da8b019.Emscripten.clang"
  },
  "schemaVersion": "3.3.2",
  "updatedAt": "2020-12-10T08:30:24.908Z",
  "devdoc": {
    "methods": {
      "calculateOptionPrice(uint256[],address)": {
        "details": "Calculate the option price for given params\r params\r 0 _option\r 1 neutralMinValue\r 2 neutralMaxValue\r 3 startTime\r 4 expireTime\r 5 totalStakedETH\r 6 totalStakedToken\r 7 ethStakedOnOption\r 8 plotStakedOnOption\r"
      },
      "calculatePredictionValue(uint256[],address,address,address,bool)": {
        "details": "Calculate the prediction value, passing all the required params\r params index\r 0 _prediction\r 1 neutralMinValue\r 2 neutralMaxValue\r 3 startTime\r 4 expireTime\r 5 totalStakedETH\r 6 totalStakedToken\r 7 ethStakedOnOption\r 8 plotStakedOnOption\r 9 _stake\r 10 _leverage\r"
      },
      "checkMultiplier(address,address,uint256,uint256,uint256)": {
        "details": "Check if user gets any multiplier on his positions\r",
        "params": {
          "_asset": "The assets uses by user during prediction.\r",
          "_predictionStake": "The amount staked by user at the time of prediction.\r",
          "_stakeValue": "The stake value of asset.\r",
          "predictionPoints": "The actual positions user got during prediction.\r"
        },
        "return": "uint256 representing multiplied positions\r"
      },
      "getAssetPriceInETH(address)": {
        "details": "Get price of provided currency address in ETH\r",
        "params": {
          "_currencyAddress": "Address of currency\r"
        },
        "return": "Price of provided currency in ETH\rDecimals of the currency\r*"
      },
      "getAssetPriceUSD(address)": {
        "details": "Get price of provided feed address\r",
        "params": {
          "_currencyFeedAddress": "Feed Address of currency on which market options are based on\r"
        },
        "return": "Current price of the market currency\r*"
      },
      "getAssetValueETH(address,uint256)": {
        "details": "Get value of provided currency address in ETH\r",
        "params": {
          "_amount": "Amount of provided currency\r",
          "_currencyAddress": "Address of currency\r"
        },
        "return": "Value of provided amount in ETH\r*"
      },
      "getBasicMarketDetails()": {
        "details": "Get basic market details\r",
        "return": "Minimum amount required to predict in market\rPercentage of users leveraged amount to deduct when placed in wrong prediction\rDecimal points for prediction positions\rMaximum prediction amount\r*"
      },
      "getDisputeResolutionParams()": {
        "details": "Get amount of stake required to raise a dispute\r*"
      },
      "getFeedAddresses()": {
        "details": "Get Market feed address\r",
        "return": "Uniswap factory address\r*"
      },
      "getPrice(address,uint256)": {
        "details": "Get value of token in pair\r*"
      },
      "getPriceCalculationParams(address)": {
        "details": "Get Parameter required for option price calculation\r",
        "params": {
          "_marketFeedAddress": "Feed Address of currency on which market options are based on\r"
        },
        "return": "Stake weightage percentage for calculation option price\rminimum amount of stake required to consider stake weightage\rCurrent price of the market currency\rDivisor to calculate minimum time elapsed for a market type\r*"
      },
      "getPriceFeedDecimals(address)": {
        "details": "Get decimals of given price feed address \r"
      },
      "getSettlemetPrice(address,uint256)": {
        "details": "Get price of provided feed address\r",
        "params": {
          "_currencyFeedAddress": "Feed Address of currency on which market options are based on\r"
        },
        "return": "Current price of the market currency\r*"
      },
      "getValueAndMultiplierParameters(address,uint256)": {
        "details": "Get value of _asset in PLOT token and multiplier parameters\r",
        "params": {
          "_amount": "Amount of _asset\r",
          "_asset": "Address of asset for which value is requested\r"
        },
        "return": "min prediction amount required for multiplier\rvalue of given asset in PLOT tokens\r*"
      },
      "initialize(address[],address)": {
        "details": "Initiates the config contact with initial values\r*"
      },
      "setInitialCummulativePrice()": {
        "details": "Set initial PLOT/ETH pair cummulative price\r*"
      },
      "update()": {
        "details": "Update cumulative price of token in uniswap\r*"
      },
      "updateAddressParameters(bytes8,address)": {
        "details": "Updates address parameters of config\r*"
      },
      "updateUintParameters(bytes8,uint256)": {
        "details": "Updates integer parameters of config\r*"
      }
    }
  },
  "userdoc": {
    "methods": {}
  }
}