{
  "contractName": "Market",
  "abi": [
    {
      "constant": false,
      "inputs": [
        {
          "name": "userAddress",
          "type": "address"
        },
        {
          "name": "functionSignature",
          "type": "bytes"
        },
        {
          "name": "sigR",
          "type": "bytes32"
        },
        {
          "name": "sigS",
          "type": "bytes32"
        },
        {
          "name": "sigV",
          "type": "uint8"
        }
      ],
      "name": "executeMetaTransaction",
      "outputs": [
        {
          "name": "",
          "type": "bytes"
        }
      ],
      "payable": true,
      "stateMutability": "payable",
      "type": "function"
    },
    {
      "constant": true,
      "inputs": [],
      "name": "_msgSender",
      "outputs": [
        {
          "name": "sender",
          "type": "address"
        }
      ],
      "payable": false,
      "stateMutability": "view",
      "type": "function"
    },
    {
      "constant": true,
      "inputs": [
        {
          "name": "user",
          "type": "address"
        }
      ],
      "name": "getNonce",
      "outputs": [
        {
          "name": "nonce",
          "type": "uint256"
        }
      ],
      "payable": false,
      "stateMutability": "view",
      "type": "function"
    },
    {
      "constant": true,
      "inputs": [],
      "name": "getChainID",
      "outputs": [
        {
          "name": "",
          "type": "uint256"
        }
      ],
      "payable": false,
      "stateMutability": "pure",
      "type": "function"
    },
    {
      "constant": true,
      "inputs": [
        {
          "name": "owner",
          "type": "address"
        },
        {
          "name": "nonce",
          "type": "uint256"
        },
        {
          "name": "chainID",
          "type": "uint256"
        },
        {
          "name": "functionSignature",
          "type": "bytes"
        },
        {
          "name": "sigR",
          "type": "bytes32"
        },
        {
          "name": "sigS",
          "type": "bytes32"
        },
        {
          "name": "sigV",
          "type": "uint8"
        }
      ],
      "name": "verify",
      "outputs": [
        {
          "name": "",
          "type": "bool"
        }
      ],
      "payable": false,
      "stateMutability": "view",
      "type": "function"
    },
    {
      "constant": true,
      "inputs": [],
      "name": "marketSettleData",
      "outputs": [
        {
          "name": "WinningOption",
          "type": "uint64"
        },
        {
          "name": "settleTime",
          "type": "uint64"
        }
      ],
      "payable": false,
      "stateMutability": "view",
      "type": "function"
    },
    {
      "constant": true,
      "inputs": [],
      "name": "marketData",
      "outputs": [
        {
          "name": "startTime",
          "type": "uint64"
        },
        {
          "name": "predictionTime",
          "type": "uint64"
        },
        {
          "name": "neutralMinValue",
          "type": "uint64"
        },
        {
          "name": "neutralMaxValue",
          "type": "uint64"
        }
      ],
      "payable": false,
      "stateMutability": "view",
      "type": "function"
    },
    {
      "constant": true,
      "inputs": [],
      "name": "marketCurrency",
      "outputs": [
        {
          "name": "",
          "type": "bytes32"
        }
      ],
      "payable": false,
      "stateMutability": "view",
      "type": "function"
    },
    {
      "constant": true,
      "inputs": [
        {
          "name": "",
          "type": "uint256"
        }
      ],
      "name": "optionsAvailable",
      "outputs": [
        {
          "name": "predictionPoints",
          "type": "uint256"
        }
      ],
      "payable": false,
      "stateMutability": "view",
      "type": "function"
    },
    {
      "anonymous": false,
      "inputs": [
        {
          "indexed": false,
          "name": "userAddress",
          "type": "address"
        },
        {
          "indexed": false,
          "name": "relayerAddress",
          "type": "address"
        },
        {
          "indexed": false,
          "name": "functionSignature",
          "type": "bytes"
        }
      ],
      "name": "MetaTransactionExecuted",
      "type": "event"
    },
    {
      "constant": false,
      "inputs": [
        {
          "name": "_startTime",
          "type": "uint64"
        },
        {
          "name": "_predictionTime",
          "type": "uint64"
        },
        {
          "name": "_minValue",
          "type": "uint64"
        },
        {
          "name": "_maxValue",
          "type": "uint64"
        }
      ],
      "name": "initiate",
      "outputs": [],
      "payable": true,
      "stateMutability": "payable",
      "type": "function"
    },
    {
      "constant": false,
      "inputs": [
        {
          "name": "_asset",
          "type": "address"
        },
        {
          "name": "_predictionStake",
          "type": "uint256"
        },
        {
          "name": "_prediction",
          "type": "uint256"
        },
        {
          "name": "_leverage",
          "type": "uint256"
        }
      ],
      "name": "placePrediction",
      "outputs": [],
      "payable": true,
      "stateMutability": "payable",
      "type": "function"
    },
    {
      "constant": true,
      "inputs": [],
      "name": "getTotalAssetsStaked",
      "outputs": [
        {
          "name": "ethStaked",
          "type": "uint256"
        },
        {
          "name": "plotStaked",
          "type": "uint256"
        }
      ],
      "payable": false,
      "stateMutability": "view",
      "type": "function"
    },
    {
      "constant": true,
      "inputs": [],
      "name": "getTotalStakedValueInPLOT",
      "outputs": [
        {
          "name": "",
          "type": "uint256"
        }
      ],
      "payable": false,
      "stateMutability": "view",
      "type": "function"
    },
    {
      "constant": false,
      "inputs": [],
      "name": "settleMarket",
      "outputs": [],
      "payable": false,
      "stateMutability": "nonpayable",
      "type": "function"
    },
    {
      "constant": false,
      "inputs": [
        {
          "name": "proposedValue",
          "type": "uint256"
        },
        {
          "name": "proposalTitle",
          "type": "string"
        },
        {
          "name": "description",
          "type": "string"
        },
        {
          "name": "solutionHash",
          "type": "string"
        }
      ],
      "name": "raiseDispute",
      "outputs": [],
      "payable": false,
      "stateMutability": "nonpayable",
      "type": "function"
    },
    {
      "constant": false,
      "inputs": [
        {
          "name": "accepted",
          "type": "bool"
        },
        {
          "name": "finalResult",
          "type": "uint256"
        }
      ],
      "name": "resolveDispute",
      "outputs": [],
      "payable": true,
      "stateMutability": "payable",
      "type": "function"
    },
    {
      "constant": false,
      "inputs": [
        {
          "name": "_token",
          "type": "address"
        },
        {
          "name": "_value",
          "type": "uint256"
        }
      ],
      "name": "sponsorIncentives",
      "outputs": [],
      "payable": false,
      "stateMutability": "nonpayable",
      "type": "function"
    },
    {
      "constant": false,
      "inputs": [
        {
          "name": "_user",
          "type": "address"
        }
      ],
      "name": "claimReturn",
      "outputs": [
        {
          "name": "",
          "type": "uint256"
        }
      ],
      "payable": false,
      "stateMutability": "nonpayable",
      "type": "function"
    },
    {
      "constant": true,
      "inputs": [],
      "name": "marketSettleTime",
      "outputs": [
        {
          "name": "",
          "type": "uint64"
        }
      ],
      "payable": false,
      "stateMutability": "view",
      "type": "function"
    },
    {
      "constant": true,
      "inputs": [],
      "name": "marketCoolDownTime",
      "outputs": [
        {
          "name": "",
          "type": "uint256"
        }
      ],
      "payable": false,
      "stateMutability": "view",
      "type": "function"
    },
    {
      "constant": true,
      "inputs": [],
      "name": "getMarketFeedData",
      "outputs": [
        {
          "name": "",
          "type": "uint8"
        },
        {
          "name": "",
          "type": "bytes32"
        },
        {
          "name": "",
          "type": "address"
        }
      ],
      "payable": false,
      "stateMutability": "view",
      "type": "function"
    },
    {
      "constant": true,
      "inputs": [
        {
          "name": "_prediction",
          "type": "uint256"
        },
        {
          "name": "_stakeValueInEth",
          "type": "uint256"
        },
        {
          "name": "_leverage",
          "type": "uint256"
        }
      ],
      "name": "estimatePredictionValue",
      "outputs": [
        {
          "name": "_predictionValue",
          "type": "uint256"
        }
      ],
      "payable": false,
      "stateMutability": "view",
      "type": "function"
    },
    {
      "constant": true,
      "inputs": [
        {
          "name": "_prediction",
          "type": "uint256"
        }
      ],
      "name": "getOptionPrice",
      "outputs": [
        {
          "name": "",
          "type": "uint256"
        }
      ],
      "payable": false,
      "stateMutability": "view",
      "type": "function"
    },
    {
      "constant": true,
      "inputs": [
        {
          "name": "_user",
          "type": "address"
        },
        {
          "name": "_option",
          "type": "uint256"
        }
      ],
      "name": "getUserPredictionPoints",
      "outputs": [
        {
          "name": "",
          "type": "uint256"
        }
      ],
      "payable": false,
      "stateMutability": "view",
      "type": "function"
    },
    {
      "constant": true,
      "inputs": [],
      "name": "getData",
      "outputs": [
        {
          "name": "_marketCurrency",
          "type": "bytes32"
        },
        {
          "name": "minvalue",
          "type": "uint256[]"
        },
        {
          "name": "maxvalue",
          "type": "uint256[]"
        },
        {
          "name": "_optionPrice",
          "type": "uint256[]"
        },
        {
          "name": "_ethStaked",
          "type": "uint256[]"
        },
        {
          "name": "_plotStaked",
          "type": "uint256[]"
        },
        {
          "name": "_predictionTime",
          "type": "uint256"
        },
        {
          "name": "_expireTime",
          "type": "uint256"
        },
        {
          "name": "_predictionStatus",
          "type": "uint256"
        }
      ],
      "payable": false,
      "stateMutability": "view",
      "type": "function"
    },
    {
      "constant": true,
      "inputs": [],
      "name": "getMarketResults",
      "outputs": [
        {
          "name": "",
          "type": "uint256"
        },
        {
          "name": "",
          "type": "uint256"
        },
        {
          "name": "",
          "type": "uint256[]"
        },
        {
          "name": "",
          "type": "uint256"
        },
        {
          "name": "",
          "type": "uint256"
        }
      ],
      "payable": false,
      "stateMutability": "view",
      "type": "function"
    },
    {
      "constant": true,
      "inputs": [
        {
          "name": "_user",
          "type": "address"
        }
      ],
      "name": "getReturn",
      "outputs": [
        {
          "name": "returnAmount",
          "type": "uint256[]"
        },
        {
          "name": "_predictionAssets",
          "type": "address[]"
        },
        {
          "name": "incentive",
          "type": "uint256"
        },
        {
          "name": "_incentiveToken",
          "type": "address"
        }
      ],
      "payable": false,
      "stateMutability": "view",
      "type": "function"
    },
    {
      "constant": true,
      "inputs": [
        {
          "name": "_user",
          "type": "address"
        }
      ],
      "name": "getUserFlags",
      "outputs": [
        {
          "name": "",
          "type": "bool"
        },
        {
          "name": "",
          "type": "bool"
        }
      ],
      "payable": false,
      "stateMutability": "view",
      "type": "function"
    }
  ],
  "bytecode": "0x608060405234801561001057600080fd5b50614151806100206000396000f3fe6080604052600436106101b75760003560e01c806374bd0d02116100ec578063a12a50991161008a578063ca03227411610064578063ca03227414610bff578063ddf8389b14610c2d578063e217eb9d14610c42578063ff0fd72a14610c6c576101b7565b8063a12a509914610b4d578063ae1ff39b14610b7e578063b945b52714610bb6576101b7565b80637cb464eb116100c65780637cb464eb14610a485780637dafb4c014610a96578063853b844714610acc57806385970c6614610b38576101b7565b806374bd0d021461082657806377c24577146109e85780637852d19d14610a0d576101b7565b80632d0335ab11610159578063564b81ef11610133578063564b81ef146106ba5780636281133d146106cf57806368a4b271146107be5780636b592cf6146107e8576101b7565b80632d0335ab146104d95780633bc5de301461050c57806343da750f146106a5576101b7565b80630ff2f99f116101955780630ff2f99f1461040e578063119df25f146104355780631ec0fd50146104665780632456913314610499576101b7565b80630c53c51c146101bc5780630cc9a606146102f35780630fe5aca4146103d3575b600080fd5b61027e600480360360a08110156101d257600080fd5b6001600160a01b038235169190810190604081016020820135600160201b8111156101fc57600080fd5b82018360208201111561020e57600080fd5b803590602001918460018302840111600160201b8311171561022f57600080fd5b91908080601f016020809104026020016040519081016040528093929190818152602001838380828437600092019190915250929550508235935050506020810135906040013560ff16610ca5565b6040805160208082528351818301528351919283929083019185019080838360005b838110156102b85781810151838201526020016102a0565b50505050905090810190601f1680156102e55780820380516001836020036101000a031916815260200191505b509250505060405180910390f35b3480156102ff57600080fd5b506103266004803603602081101561031657600080fd5b50356001600160a01b0316610fb7565b604080519081018390526001600160a01b038216606082015260808082528551908201528451819060208083019160a0840191898101910280838360005b8381101561037c578181015183820152602001610364565b50505050905001838103825286818151815260200191508051906020019060200280838360005b838110156103bb5781810151838201526020016103a3565b50505050905001965050505050505060405180910390f35b3480156103df57600080fd5b5061040c600480360360408110156103f657600080fd5b506001600160a01b03813516906020013561112e565b005b34801561041a57600080fd5b5061042361130d565b60408051918252519081900360200190f35b34801561044157600080fd5b5061044a611351565b604080516001600160a01b039092168252519081900360200190f35b34801561047257600080fd5b506104236004803603602081101561048957600080fd5b50356001600160a01b03166113b0565b3480156104a557600080fd5b506104ae61165e565b6040805160ff909416845260208401929092526001600160a01b031682820152519081900360600190f35b3480156104e557600080fd5b50610423600480360360208110156104fc57600080fd5b50356001600160a01b0316611689565b34801561051857600080fd5b506105216116a4565b604051808a8152602001806020018060200180602001806020018060200189815260200188815260200187815260200186810386528e818151815260200191508051906020019060200280838360005b83811015610589578181015183820152602001610571565b5050505090500186810385528d818151815260200191508051906020019060200280838360005b838110156105c85781810151838201526020016105b0565b5050505090500186810384528c818151815260200191508051906020019060200280838360005b838110156106075781810151838201526020016105ef565b5050505090500186810383528b818151815260200191508051906020019060200280838360005b8381101561064657818101518382015260200161062e565b5050505090500186810382528a818151815260200191508051906020019060200280838360005b8381101561068557818101518382015260200161066d565b505050509050019e50505050505050505050505050505060405180910390f35b3480156106b157600080fd5b50610423611958565b3480156106c657600080fd5b50610423611a19565b3480156106db57600080fd5b506107aa600480360360e08110156106f257600080fd5b6001600160a01b038235169160208101359160408201359190810190608081016060820135600160201b81111561072857600080fd5b82018360208201111561073a57600080fd5b803590602001918460018302840111600160201b8311171561075b57600080fd5b91908080601f016020809104026020016040519081016040528093929190818152602001838380828437600092019190915250929550508235935050506020810135906040013560ff16611a1e565b604080519115158252519081900360200190f35b3480156107ca57600080fd5b50610423600480360360208110156107e157600080fd5b5035611bac565b61040c600480360360808110156107fe57600080fd5b506001600160401b038135811691602081013582169160408201358116916060013516611e3c565b34801561083257600080fd5b5061040c6004803603608081101561084957600080fd5b81359190810190604081016020820135600160201b81111561086a57600080fd5b82018360208201111561087c57600080fd5b803590602001918460018302840111600160201b8311171561089d57600080fd5b91908080601f0160208091040260200160405190810160405280939291908181526020018383808284376000920191909152509295949360208101935035915050600160201b8111156108ef57600080fd5b82018360208201111561090157600080fd5b803590602001918460018302840111600160201b8311171561092257600080fd5b91908080601f0160208091040260200160405190810160405280939291908181526020018383808284376000920191909152509295949360208101935035915050600160201b81111561097457600080fd5b82018360208201111561098657600080fd5b803590602001918460018302840111600160201b831117156109a757600080fd5b91908080601f016020809104026020016040519081016040528093929190818152602001838380828437600092019190915250929550612012945050505050565b61040c600480360360408110156109fe57600080fd5b50803515159060200135612456565b348015610a1957600080fd5b50610a226124c2565b604080516001600160401b03938416815291909216602082015281519081900390910190f35b348015610a5457600080fd5b50610a7b60048036036020811015610a6b57600080fd5b50356001600160a01b03166124dc565b60408051921515835290151560208301528051918290030190f35b348015610aa257600080fd5b5061042360048036036060811015610ab957600080fd5b5080359060208101359060400135612509565b348015610ad857600080fd5b50610ae161252e565b604051808681526020018581526020018060200184815260200183815260200182810382528581815181526020019150805190602001906020028083836000838110156103bb5781810151838201526020016103a3565b348015610b4457600080fd5b5061040c6125ed565b348015610b5957600080fd5b50610b626126dd565b604080516001600160401b039092168252519081900360200190f35b61040c60048036036080811015610b9457600080fd5b506001600160a01b03813516906020810135906040810135906060013561274b565b348015610bc257600080fd5b50610bcb612c3d565b604080516001600160401b039586168152938516602085015291841683830152909216606082015290519081900360800190f35b348015610c0b57600080fd5b50610c14612c6b565b6040805192835260208301919091528051918290030190f35b348015610c3957600080fd5b50610423612d03565b348015610c4e57600080fd5b5061042360048036036020811015610c6557600080fd5b5035612d15565b348015610c7857600080fd5b5061042360048036036040811015610c8f57600080fd5b506001600160a01b038135169060200135612d27565b6001600160a01b038516600090815260208190526040902054606090610cd8908790610ccf611a19565b88888888611a1e565b610d1657604051600160e51b62461bcd0281526004018080602001828103825260218152602001806141056021913960400191505060405180910390fd5b6001600160a01b038616600090815260208190526040902054610d4090600163ffffffff612d5516565b600080886001600160a01b03166001600160a01b031681526020019081526020016000208190555060006060306001600160a01b031687896040516020018083805190602001908083835b60208310610daa5780518252601f199092019160209182019101610d8b565b51815160209384036101000a60001901801990921691161790526001600160a01b039590951660601b92019182525060408051808303600b190181526014909201908190528151919450928392508401908083835b60208310610e1e5780518252601f199092019160209182019101610dff565b6001836020036101000a0380198251168184511680821785525050505050509050019150506000604051808303816000865af19150503d8060008114610e80576040519150601f19603f3d011682016040523d82523d6000602084013e610e85565b606091505b509150915081610edf5760408051600160e51b62461bcd02815260206004820152601c60248201527f46756e6374696f6e2063616c6c206e6f74207375636365737366756c00000000604482015290519081900360640190fd5b7f5845892132946850460bff5a0083f71031bc5bf9aadcd40f1de79423eac9b10b88338960405180846001600160a01b03166001600160a01b03168152602001836001600160a01b03166001600160a01b0316815260200180602001828103825283818151815260200191508051906020019080838360005b83811015610f70578181015183820152602001610f58565b50505050905090810190601f168015610f9d5780820380516001836020036101000a031916815260200191505b5094505050505060405180910390a1979650505050505050565b606080600080600080610fc8612c6b565b90925090506004610fd7612db9565b6004811115610fe257fe5b141580610ffc5750610ffa828263ffffffff612d5516565b155b1561101b57505060015461010090046001600160a01b03169050611127565b60408051600280825260608201835290916020830190803883390190505094506000805160206140a48339815191528560008151811061105757fe5b60200260200101906001600160a01b031690816001600160a01b0316815250506000805160206140e58339815191528560018151811061109357fe5b6001600160a01b03909216602092830291909101909101526000806110b789612e2c565b919950925090506110c88282612fd9565b6001600160a01b038a166000908152600b60209081526040808320600a546001600160401b031684526001019091529020549096501561110f5761110c8989613000565b97505b505060015461010090046001600160a01b0316925050505b9193509193565b7365add15c5ff3abc069358aae842de13ce92f3447630e43f4ce611150611351565b6040518263ffffffff1660e01b815260040180826001600160a01b03166001600160a01b0316815260200191505060206040518083038186803b15801561119657600080fd5b505afa1580156111aa573d6000803e3d6000fd5b505050506040513d60208110156111c057600080fd5b50516111cb57600080fd5b60016111d5612db9565b60048111156111e057fe5b11156111eb57600080fd5b60015461010090046001600160a01b0316156112515760408051600160e51b62461bcd02815260206004820152601160248201527f416c72656164792073706f6e736f726564000000000000000000000000000000604482015290519081900360640190fd5b60018054610100600160a81b0319166101006001600160a01b038516021790556006819055733a3d9ca9d9b25af1ff7eb9d8a1ea9f61b5892ee96315dacbea83611299611351565b6040805163ffffffff851660e01b81526001600160a01b039384166004820152919092166024820152306044820152606481018590529051608480830192600092919082900301818387803b1580156112f157600080fd5b505af1158015611305573d6000803e3d6000fd5b505050505050565b60095460009061134b9061133290600160401b90046001600160401b031660046130e3565b600a54600160401b90046001600160401b031690612d55565b90505b90565b6000333014156113a95760606000368080601f0160208091040260200160405190810160405280939291908181526020018383808284376000920191909152505050503601516001600160a01b0316915061134e9050565b503361134e565b60015460009060ff16806113d7575060046113c9612db9565b60048111156113d457fe5b14155b8061145757507365add15c5ff3abc069358aae842de13ce92f34476001600160a01b03166335f628ee6040518163ffffffff1660e01b815260040160206040518083038186803b15801561142a57600080fd5b505afa15801561143e573d6000803e3d6000fd5b505050506040513d602081101561145457600080fd5b50515b1561146457506000611659565b6001600160a01b0382166000908152600b602052604090205460ff161561148d57506001611659565b6001600160a01b0382166000908152600b60205260408120805460ff1916600117905560609081906114be85610fb7565b509250925092506114f26000805160206140a483398151915286856000815181106114e557fe5b6020026020010151613150565b6115126000805160206140e583398151915286856001815181106114e557fe5b60015461152e9061010090046001600160a01b03168683613150565b600154604051600160e11b63640cdaf90281526001600160a01b038781166004830190815260648301859052610100909304166084820181905260a060248301908152865160a484015286517365add15c5ff3abc069358aae842de13ce92f34479463c819b5f2948b948a948a948a949293604481019160c4909101906020808a01910280838360005b838110156115d05781810151838201526020016115b8565b50505050905001838103825286818151815260200191508051906020019060200280838360005b8381101561160f5781810151838201526020016115f7565b50505050905001975050505050505050600060405180830381600087803b15801561163957600080fd5b505af115801561164d573d6000803e3d6000fd5b50505050600293505050505b919050565b6019600160c21b671155120bd554d11502735e2aa6b66531142beab830c385646f97fa03d80a909192565b6001600160a01b031660009081526020819052604090205490565b600954600160c21b671155120bd554d11502906060908190819081908190600160401b90046001600160401b03166000806116dd61324b565b91506116e7612db9565b60048111156116f257fe5b604080516003808252608082019092529192506020820160608038833950506009548251929a50600160801b90046001600160401b0316918a9150600190811061173857fe5b602090810291909101015260095461176190600160c01b90046001600160401b03166001612d55565b8860028151811061176e57fe5b6020908102919091010152604080516003808252608082019092529081602001602082028038833950506009549198506117bb91600160801b90046001600160401b031690506001613274565b876000815181106117c857fe5b60209081029190910101526009548751600160c01b9091046001600160401b031690889060019081106117f757fe5b6020026020010181815250506000198760028151811061181357fe5b6020908102919091010152604080516003808252608082019092529081602001602082028038833950506040805160038082526080820190925292985090506020820160608038833950506040805160038082526080820190925292975090506020820160608038833901905050935060005b600381101561194c5760018082016000908152600c602090815260408083206000805160206140e583398151915284529093019052205486518790839081106118cb57fe5b60209081029190910181019190915260018083016000908152600c835260408082206000805160206140a48339815191528352909201909252902054855186908390811061191557fe5b60200260200101818152505061192d81600101611bac565b87828151811061193957fe5b6020908102919091010152600101611886565b50909192939495969798565b6000806000611965612c6b565b60408051600160e11b63569669330281526000805160206140e5833981519152600482015260248101849052815193955091935073cbc7df3b8c870c5cde675aaf5fd823e4209546d29263ad2cd266926044808201939291829003018186803b1580156119d157600080fd5b505afa1580156119e5573d6000803e3d6000fd5b505050506040513d60408110156119fb57600080fd5b50602001519150611a12818363ffffffff612d5516565b9250505090565b608990565b600080611ac48830898960405160200180858152602001846001600160a01b03166001600160a01b031660601b815260140183815260200182805190602001908083835b60208310611a815780518252601f199092019160209182019101611a62565b6001836020036101000a038019825116818451168082178552505050505050905001945050505050604051602081830303815290604052805190602001206132d4565b9050600060018285888860405160008152602001604052604051808581526020018460ff1660ff1681526020018381526020018281526020019450505050506020604051602081039080840390855afa158015611b25573d6000803e3d6000fd5b5050604051601f1901519150506001600160a01b038116611b905760408051600160e51b62461bcd02815260206004820152601160248201527f496e76616c6964207369676e6174757265000000000000000000000000000000604482015290519081900360640190fd5b6001600160a01b038a8116911614915050979650505050505050565b60408051600980825261014082019092526000916060919060208201610120803883390190505090508281600081518110611be357fe5b60209081029190910101526009548151600160801b9091046001600160401b03169082906001908110611c1257fe5b60209081029190910101526009548151600160c01b9091046001600160401b03169082906002908110611c4157fe5b602090810291909101015260095481516001600160401b039091169082906003908110611c6a57fe5b602002602001018181525050611c7e61324b565b81600481518110611c8b57fe5b602002602001018181525050611c9f612c6b565b82600581518110611cac57fe5b6020026020010183600681518110611cc057fe5b602090810291909101810192909252919091526000848152600c825260408082206000805160206140e583398151915283526001019092522054815182906007908110611d0957fe5b6020908102919091018101919091526000848152600c825260408082206000805160206140a483398151915283526001019092522054815182906008908110611d4e57fe5b60209081029190910181019190915260408051600160e01b63504e8751028152735e2aa6b66531142beab830c385646f97fa03d80a602482018190526004820192835284516044830152845173cbc7df3b8c870c5cde675aaf5fd823e4209546d29463504e875194879490928392606490920191868101910280838360005b83811015611de5578181015183820152602001611dcd565b50505050905001935050505060206040518083038186803b158015611e0957600080fd5b505afa158015611e1d573d6000803e3d6000fd5b505050506040513d6020811015611e3357600080fd5b50519392505050565b6000309050806001600160a01b031663025313a26040518163ffffffff1660e01b815260040160206040518083038186803b158015611e7a57600080fd5b505afa158015611e8e573d6000803e3d6000fd5b505050506040513d6020811015611ea457600080fd5b50516001600160a01b03163314611f055760408051600160e51b62461bcd02815260206004820152601a60248201527f53656e646572206973206e6f742070726f7879206f776e65722e000000000000604482015290519081900360640190fd5b6009546001600160401b031615611f665760408051600160e51b62461bcd02815260206004820152601360248201527f416c726561647920696e697469616c697a656400000000000000000000000000604482015290519081900360640190fd5b42611f836001600160401b0387811690871663ffffffff612d5516565b11611f8d57600080fd5b506009805467ffffffffffffffff19166001600160401b03958616176fffffffffffffffff00000000000000001916600160401b948616949094029390931777ffffffffffffffff000000000000000000000000000000001916600160801b92851692909202919091176001600160c01b0316600160c01b9190931602919091179055565b600061201c611958565b116120715760408051600160e51b62461bcd02815260206004820152601060248201527f4e6f2070617274696369706174696f6e00000000000000000000000000000000604482015290519081900360640190fd5b600261207b612db9565b600481111561208657fe5b1461209057600080fd5b600073cbc7df3b8c870c5cde675aaf5fd823e4209546d26001600160a01b031663094f81f86040518163ffffffff1660e01b815260040160206040518083038186803b1580156120df57600080fd5b505afa1580156120f3573d6000803e3d6000fd5b505050506040513d602081101561210957600080fd5b50519050733a3d9ca9d9b25af1ff7eb9d8a1ea9f61b5892ee96315dacbea6000805160206140a483398151915261213e611351565b6040805163ffffffff851660e01b81526001600160a01b0393841660048201529190921660248201527365add15c5ff3abc069358aae842de13ce92f34476044820152606481018590529051608480830192600092919082900301818387803b1580156121aa57600080fd5b505af11580156121be573d6000803e3d6000fd5b50506001805460ff19168117905550506040805130602082015280820187905281518082038301815260609091019091527365add15c5ff3abc069358aae842de13ce92f34479063e99a8de0908690869086908661221a611351565b6002546005548e6040518a63ffffffff1660e01b815260040180806020018060200180602001806020018a8152602001896001600160a01b03166001600160a01b0316815260200188815260200187815260200186815260200185810385528e818151815260200191508051906020019080838360005b838110156122a9578181015183820152602001612291565b50505050905090810190601f1680156122d65780820380516001836020036101000a031916815260200191505b5085810384528d5181528d516020918201918f019080838360005b838110156123095781810151838201526020016122f1565b50505050905090810190601f1680156123365780820380516001836020036101000a031916815260200191505b5085810383528c5181528c516020918201918e019080838360005b83811015612369578181015183820152602001612351565b50505050905090810190601f1680156123965780820380516001836020036101000a031916815260200191505b5085810382528b5181528b516020918201918d019080838360005b838110156123c95781810151838201526020016123b1565b50505050905090810190601f1680156123f65780820380516001836020036101000a031916815260200191505b509d5050505050505050505050505050600060405180830381600087803b15801561242057600080fd5b505af1158015612434573d6000803e3d6000fd5b50506000600281905560055550506008805460ff191660031790555050505050565b337365add15c5ff3abc069358aae842de13ce92f344714801561248b5750600361247e612db9565b600481111561248957fe5b145b61249457600080fd5b81156124a5576124a5816000613325565b50506001805460ff19908116909155600880549091166004179055565b600a546001600160401b0380821691600160401b90041682565b6001600160a01b03166000908152600b602052604090205460ff6201000082048116926101009092041690565b60006125258484846000805160206140e583398151915261391a565b50949350505050565b600a546001600160401b03166000818152600c6020908152604080832080546000805160206140e5833981519152855260019091018352818420546000805160206140a4833981519152855282852054600780548551818802810188019096528086529697889760609789978897939693959290918591908301828280156125d557602002820191906000526020600020905b8154815260200190600101908083116125c1575b50505050509250945094509450945094509091929394565b60008073cbc7df3b8c870c5cde675aaf5fd823e4209546d263f0a5702f735e2aa6b66531142beab830c385646f97fa03d80a6126276126dd565b6001600160401b03166040518363ffffffff1660e01b815260040180836001600160a01b03166001600160a01b0316815260200182815260200192505050604080518083038186803b15801561267c57600080fd5b505afa158015612690573d6000803e3d6000fd5b505050506040513d60408110156126a657600080fd5b508051602090910151909250905060016126be612db9565b60048111156126c957fe5b14156126d9576126d98282613325565b5050565b600a54600090600160401b90046001600160401b0316156127115750600a54600160401b90046001600160401b031661134e565b60095461134b9061273390600160401b90046001600160401b03166002613c4d565b6009546001600160401b03169063ffffffff612d5516565b7365add15c5ff3abc069358aae842de13ce92f34476001600160a01b03166335f628ee6040518163ffffffff1660e01b815260040160206040518083038186803b15801561279857600080fd5b505afa1580156127ac573d6000803e3d6000fd5b505050506040513d60208110156127c257600080fd5b50511580156127d2575060038211155b80156127df575060058111155b6127e857600080fd5b6009546001600160401b0316421080159061280a575061280661324b565b4211155b61281357600080fd5b60006001600160a01b0385166000805160206140e5833981519152141561286c5734841461284057600080fd5b61284e600a85612710613ca9565b600354909150612864908263ffffffff612d5516565b600355612b10565b341561287757600080fd5b6001600160a01b0385166000805160206140a4833981519152141561293c57733a3d9ca9d9b25af1ff7eb9d8a1ea9f61b5892ee96315dacbea6000805160206140a48339815191526128c7611351565b6040805163ffffffff851660e01b81526001600160a01b039384166004820152919092166024820152306044820152606481018890529051608480830192600092919082900301818387803b15801561291f57600080fd5b505af1158015612933573d6000803e3d6000fd5b50505050612ae8565b733a3d9ca9d9b25af1ff7eb9d8a1ea9f61b5892ee96001600160a01b0316634a5245b46040518163ffffffff1660e01b815260040160206040518083038186803b15801561298957600080fd5b505afa15801561299d573d6000803e3d6000fd5b505050506040513d60208110156129b357600080fd5b50516001600160a01b038681169116146129cc57600080fd5b600582146129d957600080fd5b600b60006129e5611351565b6001600160a01b03168152602081019190915260400160002054610100900460ff1615612a1157600080fd5b6001600b6000612a1f611351565b6001600160a01b03168152602081019190915260400160002080549115156101000261ff0019909216919091179055733a3d9ca9d9b25af1ff7eb9d8a1ea9f61b5892ee9631371b2bd612a70611351565b6040805163ffffffff841660e01b81526001600160a01b0390921660048301523060248301526044820188905251606480830192600092919082900301818387803b158015612abe57600080fd5b505af1158015612ad2573d6000803e3d6000fd5b505050506000805160206140a483398151915294505b612af6600585612710613ca9565b600454909150612b0c908263ffffffff612d5516565b6004555b612b20848263ffffffff61327416565b9050600080612b318584868a61391a565b915091508015612b7b576001600b6000612b49611351565b6001600160a01b0316815260208101919091526040016000208054911515620100000262ff0000199092169190911790555b60008211612b8857600080fd5b612b958584898786613cc7565b7365add15c5ff3abc069358aae842de13ce92f34476391b2f38e612bb7611351565b6040805163ffffffff841660e01b81526001600160a01b039283166004820152602481018b905260448101879052918b1660648301526084820189905260a482018890525160c480830192600092919082900301818387803b158015612c1c57600080fd5b505af1158015612c30573d6000803e3d6000fd5b5050505050505050505050565b6009546001600160401b0380821691600160401b8104821691600160801b8204811691600160c01b90041684565b60008060015b60038111612cfe576000818152600c602090815260408083206000805160206140e58339815191528452600101909152902054612cb590849063ffffffff612d5516565b6000828152600c602090815260408083206000805160206140a48339815191528452600101909152902054909350612cf490839063ffffffff612d5516565b9150600101612c71565b509091565b600160c21b671155120bd554d1150281565b600c6020526000908152604090205481565b6001600160a01b0382166000908152600b602090815260408083208484526001019091529020545b92915050565b600082820183811015612db25760408051600160e51b62461bcd02815260206004820152601b60248201527f536166654d6174683a206164646974696f6e206f766572666c6f770000000000604482015290519081900360640190fd5b9392505050565b60008060085460ff166004811115612dcd57fe5b148015612de15750612ddd61324b565b4210155b15612dee5750600161134e565b600460085460ff166004811115612e0157fe5b148015612e155750612e1161130d565b4211155b15612e225750600261134e565b5060085460ff1690565b6060600080600073cbc7df3b8c870c5cde675aaf5fd823e4209546d26001600160a01b031663bfed95b86040518163ffffffff1660e01b815260040160806040518083038186803b158015612e8057600080fd5b505afa158015612e94573d6000803e3d6000fd5b505050506040513d6080811015612eaa57600080fd5b50602090810151604080516002808252606082018352929450928301908038833901905050935060015b60038111612fd0576001600160a01b0386166000908152600b60209081526040808320848452600101909152902054612f1490859063ffffffff612d5516565b6000828152600c6020526040902054909450612f3790849063ffffffff612d5516565b9250612f6885600081518110612f4957fe5b60200260200101518783856000805160206140a4833981519152613f81565b85600081518110612f7557fe5b602002602001018181525050612fb085600181518110612f9157fe5b60200260200101518783856000805160206140e5833981519152613f81565b85600181518110612fbd57fe5b6020908102919091010152600101612ed4565b50509193909250565b6000612db2612ff3836006546130e390919063ffffffff16565b849063ffffffff613c4d16565b60606000805b83518110156130da57600a546001600160401b03166000908152600c6020526040902054600780546130939291613087918590811061304157fe5b60009182526020808320909101546001600160a01b038b168352600b82526040808420600a546001600160401b031685526001019092529120549063ffffffff613c4d16565b9063ffffffff6130e316565b91506130bb828583815181106130a557fe5b6020026020010151612d5590919063ffffffff16565b8482815181106130c757fe5b6020908102919091010152600101613006565b50919392505050565b600080821161313c5760408051600160e51b62461bcd02815260206004820152601a60248201527f536166654d6174683a206469766973696f6e206279207a65726f000000000000604482015290519081900360640190fd5b600082848161314757fe5b04949350505050565b8015613246576001600160a01b0383166000805160206140e583398151915214156131b1576040516001600160a01b0383169082156108fc029083906000818181858888f193505050501580156131ab573d6000803e3d6000fd5b50613246565b826001600160a01b031663a9059cbb83836040518363ffffffff1660e01b815260040180836001600160a01b03166001600160a01b0316815260200182815260200192505050602060405180830381600087803b15801561321157600080fd5b505af1158015613225573d6000803e3d6000fd5b505050506040513d602081101561323b57600080fd5b505161324657600080fd5b505050565b60095460009061134b906001600160401b0380821691600160401b90041663ffffffff612d5516565b6000828211156132ce5760408051600160e51b62461bcd02815260206004820152601e60248201527f536166654d6174683a207375627472616374696f6e206f766572666c6f770000604482015290519081900360640190fd5b50900390565b604080517f19457468657265756d205369676e6564204d6573736167653a0a333200000000602080830191909152603c8083019490945282518083039094018452605c909101909152815191012090565b61332d6126dd565b6001600160401b031642101561338d5760408051600160e51b62461bcd02815260206004820152601060248201527f54696d65206e6f74207265616368656400000000000000000000000000000000604482015290519081900360640190fd5b600082116133e55760408051600160e51b62461bcd02815260206004820152601e60248201527f76616c75652073686f756c642062652067726561746572207468616e20300000604482015290519081900360640190fd5b600073cbc7df3b8c870c5cde675aaf5fd823e4209546d26001600160a01b031663bfed95b86040518163ffffffff1660e01b815260040160806040518083038186803b15801561343457600080fd5b505afa158015613448573d6000803e3d6000fd5b505050506040513d608081101561345e57600080fd5b50602001519050600360085460ff16600481111561347857fe5b146134ac57600a80546fffffffffffffffff00000000000000001916600160401b426001600160401b0316021790556134c6565b600a80546fffffffffffffffff0000000000000000191690555b6008805460ff191660041790556009546001600160401b03600160801b9091041683101561350757600a805467ffffffffffffffff1916600117905561354f565b600954600160c01b90046001600160401b031683111561353a57600a805467ffffffffffffffff1916600317905561354f565b600a805467ffffffffffffffff191660021790555b60408051600280825260608083018452926020830190803883395050600a546001600160401b03166000908152600c602090815260408083206000805160206140e58339815191528452600101909152902054919250501515806135e85750600a546001600160401b03166000908152600c602090815260408083206000805160206140a4833981519152845260010190915290205415155b156136f55760015b600381116136db57600a546001600160401b031681146136d3576000818152600c602090815260408083206000805160206140a483398151915284526002019091528120546136429085906064613ca9565b905061365581846000815181106130a557fe5b8360008151811061366257fe5b6020908102919091018101919091526000838152600c825260408082206000805160206140e5833981519152835260020190925220546136a59085906064613ca9565b90506136b881846001815181106130a557fe5b836001815181106136c557fe5b602002602001018181525050505b6001016135f0565b5080516136ef90600790602084019061403e565b506137ad565b60015b600381116137ab576000818152600c602090815260408083206000805160206140a483398151915284526002019091528120546137389085906064613ca9565b60055490915061374e908263ffffffff612d5516565b6005556000828152600c602090815260408083206000805160206140e583398151915284526002019091529020546137899085906064613ca9565b60025490915061379f908263ffffffff612d5516565b600255506001016136f8565b505b6137f06000805160206140e58339815191527365add15c5ff3abc069358aae842de13ce92f34476137eb600354600254612d5590919063ffffffff16565b613150565b61382e6000805160206140a48339815191527365add15c5ff3abc069358aae842de13ce92f34476137eb600454600554612d5590919063ffffffff16565b600060038190556004908155600a54604051600160e01b63a99f50dd0281526001600160401b03909116602482018190526044820187905260648201869052608092820192835260078054608484018190527365add15c5ff3abc069358aae842de13ce92f34479463a99f50dd949293928a928a9291829160a490910190879080156138d957602002820191906000526020600020905b8154815260200190600101908083116138c5575b505095505050505050600060405180830381600087803b1580156138fc57600080fd5b505af1158015613910573d6000803e3d6000fd5b5050505050505050565b60408051600b808252610180820190925260009182916060916020820161016080388339019050509050868160008151811061395257fe5b60209081029190910101526009548151600160801b9091046001600160401b0316908290600190811061398157fe5b60209081029190910101526009548151600160c01b9091046001600160401b031690829060029081106139b057fe5b602090810291909101015260095481516001600160401b0390911690829060039081106139d957fe5b6020026020010181815250506139ed61324b565b816004815181106139fa57fe5b602002602001018181525050613a0e612c6b565b82600581518110613a1b57fe5b6020026020010183600681518110613a2f57fe5b602090810291909101810192909252919091526000888152600c825260408082206000805160206140e583398151915283526001019092522054815182906007908110613a7857fe5b6020908102919091018101919091526000888152600c825260408082206000805160206140a483398151915283526001019092522054815182906008908110613abd57fe5b6020026020010181815250508581600981518110613ad757fe5b6020026020010181815250508481600a81518110613af157fe5b6020026020010181815250506000600b6000613b0b611351565b6001600160a01b0316815260208101919091526040016000205462010000900460ff16613b36575060015b73cbc7df3b8c870c5cde675aaf5fd823e4209546d26398d57d218387613b5a611351565b60405163ffffffff851660e01b81526001600160a01b03808416602483015282166044820152735e2aa6b66531142beab830c385646f97fa03d80a60648201819052871515608483015260a060048301908152855160a4840152855191928992829160c401906020898101910280838360005b83811015613be5578181015183820152602001613bcd565b505050509050019650505050505050604080518083038186803b158015613c0b57600080fd5b505afa158015613c1f573d6000803e3d6000fd5b505050506040513d6040811015613c3557600080fd5b50805160209091015190999098509650505050505050565b600082613c5c57506000612d4f565b82820282848281613c6957fe5b0414612db257604051600160e51b62461bcd0281526004018080602001828103825260218152602001806140c46021913960400191505060405180910390fd5b6000613cbf82613087868663ffffffff613c4d16565b949350505050565b613d0d81600b6000613cd7611351565b6001600160a01b03168152602080820192909252604090810160009081208a82526001019092529020549063ffffffff612d5516565b600b6000613d19611351565b6001600160a01b03166001600160a01b03168152602001908152602001600020600101600087815260200190815260200160002081905550613da584600b6000613d61611351565b6001600160a01b039081168252602080830193909352604091820160009081209189168152600290910183528181208a82529092529020549063ffffffff612d5516565b600b6000613db1611351565b6001600160a01b03908116825260208083019390935260409182016000908120918816815260029091018352818120898252909252902055613e4c613dfc858463ffffffff613c4d16565b600b6000613e08611351565b6001600160a01b039081168252602080830193909352604091820160009081209189168152600390910183528181208a82529092529020549063ffffffff612d5516565b600b6000613e58611351565b6001600160a01b03908116825260208083019390935260409182016000908120918816815260039091018352818120898252835281812093909355600c909152902054613eab908263ffffffff612d5516565b6000868152600c602090815260408083209384556001600160a01b0387168352600190930190522054613ee4908563ffffffff612d5516565b6000868152600c602090815260408083206001600160a01b0388168452600101909152902055613f4f613f1d858463ffffffff613c4d16565b6000878152600c602090815260408083206001600160a01b03891684526002019091529020549063ffffffff612d5516565b6000958652600c602090815260408088206001600160a01b039096168852600290950190529290942091909155505050565b600a546000906001600160401b0316841415613f9c57600092505b6001600160a01b038086166000908152600b60209081526040808320938616835260039093018152828220878352905290812054613fdd9085906064613ca9565b6001600160a01b038088166000908152600b602090815260408083209388168352600290930181528282208983529052205490915061403390614026908363ffffffff61327416565b889063ffffffff612d5516565b979650505050505050565b828054828255906000526020600020908101928215614079579160200282015b8281111561407957825182559160200191906001019061405e565b50614085929150614089565b5090565b61134e91905b80821115614085576000815560010161408f56fe000000000000000000000000a626089a947eadc8a782293b53fcf42247c71111536166654d6174683a206d756c7469706c69636174696f6e206f766572666c6f77000000000000000000000000eeeeeeeeeeeeeeeeeeeeeeeeeeeeeeeeeeeeeeee5369676e657220616e64207369676e617475726520646f206e6f74206d61746368a165627a7a723058208868144d1d2ef25700d487a05ad4390860b9b95e761db4e80907d337555633c60029",
  "source": "/* Copyright (C) 2020 PlotX.io\r\n\r\n  This program is free software: you can redistribute it and/or modify\r\n    it under the terms of the GNU General Public License as published by\r\n    the Free Software Foundation, either version 3 of the License, or\r\n    (at your option) any later version.\r\n\r\n  This program is distributed in the hope that it will be useful,\r\n    but WITHOUT ANY WARRANTY; without even the implied warranty of\r\n    MERCHANTABILITY or FITNESS FOR A PARTICULAR PURPOSE.  See the\r\n    GNU General Public License for more details.\r\n\r\n  You should have received a copy of the GNU General Public License\r\n    along with this program.  If not, see http://www.gnu.org/licenses/ */\r\n\r\npragma solidity 0.5.7;\r\n\r\nimport \"./external/openzeppelin-solidity/math/SafeMath.sol\";\r\nimport \"./external/proxy/OwnedUpgradeabilityProxy.sol\";\r\nimport \"./interfaces/IMarketUtility.sol\";\r\nimport \"./interfaces/IToken.sol\";\r\nimport \"./interfaces/ITokenController.sol\";\r\nimport \"./interfaces/IMarketRegistry.sol\";\r\nimport \"./external/BasicMetaTransaction.sol\";\r\n\r\ncontract Market is BasicMetaTransaction {\r\n    using SafeMath for *;\r\n\r\n    enum PredictionStatus {\r\n      Live,\r\n      InSettlement,\r\n      Cooling,\r\n      InDispute,\r\n      Settled\r\n    }\r\n    \r\n    struct option\r\n    {\r\n      uint predictionPoints;\r\n      mapping(address => uint256) assetStaked;\r\n      mapping(address => uint256) assetLeveraged;\r\n    }\r\n\r\n    struct MarketSettleData {\r\n      uint64 WinningOption;\r\n      uint64 settleTime;\r\n    }\r\n\r\n    address constant ETH_ADDRESS = 0xEeeeeEeeeEeEeeEeEeEeeEEEeeeeEeeeeeeeEEeE;\r\n    address constant marketFeedAddress = 0x5e2aa6b66531142bEAB830c385646F97fa03D80a;\r\n    address constant plotToken = 0xa626089A947Eadc8a782293B53fCf42247C71111;\r\n\r\n    IMarketRegistry constant marketRegistry = IMarketRegistry(0x65Add15C5Ff3Abc069358AAe842dE13Ce92f3447);\r\n    ITokenController constant tokenController = ITokenController(0x3A3d9ca9d9b25AF1fF7eB9d8a1ea9f61B5892Ee9);\r\n    IMarketUtility constant marketUtility = IMarketUtility(0xCBc7df3b8C870C5CDE675AaF5Fd823E4209546D2);\r\n\r\n    uint8 constant roundOfToNearest = 25;\r\n    uint constant totalOptions = 3;\r\n    uint constant MAX_LEVERAGE = 5;\r\n    uint constant ethCommissionPerc = 10; //with 2 decimals\r\n    uint constant plotCommissionPerc = 5; //with 2 decimals\r\n    bytes32 public constant marketCurrency = \"ETH/USDT\";\r\n    \r\n    bool internal lockedForDispute;\r\n    address internal incentiveToken;\r\n    uint internal ethAmountToPool;\r\n    uint internal ethCommissionAmount;\r\n    uint internal plotCommissionAmount;\r\n    uint internal tokenAmountToPool;\r\n    uint internal incentiveToDistribute;\r\n    uint[] internal rewardToDistribute;\r\n    PredictionStatus internal predictionStatus;\r\n\r\n    \r\n    struct UserData {\r\n      bool claimedReward;\r\n      bool predictedWithBlot;\r\n      bool multiplierApplied;\r\n      mapping(uint => uint) predictionPoints;\r\n      mapping(address => mapping(uint => uint)) assetStaked;\r\n      mapping(address => mapping(uint => uint)) LeverageAsset;\r\n    }\r\n\r\n    struct MarketData {\r\n      uint64 startTime;\r\n      uint64 predictionTime;\r\n      uint64 neutralMinValue;\r\n      uint64 neutralMaxValue;\r\n    }\r\n\r\n    MarketData public marketData;\r\n    MarketSettleData public marketSettleData;\r\n\r\n    mapping(address => UserData) internal userData;\r\n\r\n    mapping(uint=>option) public optionsAvailable;\r\n\r\n    /**\r\n    * @dev Initialize the market.\r\n    * @param _startTime The time at which market will create.\r\n    * @param _predictionTime The time duration of market.\r\n    * @param _minValue The minimum value of neutral option range.\r\n    * @param _maxValue The maximum value of neutral option range.\r\n    */\r\n    function initiate(uint64 _startTime, uint64 _predictionTime, uint64 _minValue, uint64 _maxValue) public payable {\r\n      OwnedUpgradeabilityProxy proxy =  OwnedUpgradeabilityProxy(address(uint160(address(this))));\r\n      require(msg.sender == proxy.proxyOwner(),\"Sender is not proxy owner.\");\r\n      require(marketData.startTime == 0, \"Already initialized\");\r\n      require(_startTime.add(_predictionTime) > now);\r\n      marketData.startTime = _startTime;\r\n      marketData.predictionTime = _predictionTime;\r\n      \r\n      marketData.neutralMinValue = _minValue;\r\n      marketData.neutralMaxValue = _maxValue;\r\n    }\r\n\r\n    /**\r\n    * @dev Place prediction on the available options of the market.\r\n    * @param _asset The asset used by user during prediction whether it is plotToken address or in ether.\r\n    * @param _predictionStake The amount staked by user at the time of prediction.\r\n    * @param _prediction The option on which user placed prediction.\r\n    * @param _leverage The leverage opted by user at the time of prediction.\r\n    */\r\n    function placePrediction(address _asset, uint256 _predictionStake, uint256 _prediction,uint256 _leverage) public payable {\r\n      require(!marketRegistry.marketCreationPaused() && _prediction <= totalOptions && _leverage <= MAX_LEVERAGE);\r\n      require(now >= marketData.startTime && now <= marketExpireTime());\r\n\r\n      uint256 _commissionStake;\r\n      if(_asset == ETH_ADDRESS) {\r\n        require(_predictionStake == msg.value);\r\n        _commissionStake = _calculatePercentage(ethCommissionPerc, _predictionStake, 10000);\r\n        ethCommissionAmount = ethCommissionAmount.add(_commissionStake);\r\n      } else {\r\n        require(msg.value == 0);\r\n        if (_asset == plotToken){\r\n          tokenController.transferFrom(plotToken, _msgSender(), address(this), _predictionStake);\r\n        } else {\r\n          require(_asset == tokenController.bLOTToken());\r\n          require(_leverage == MAX_LEVERAGE);\r\n          require(!userData[_msgSender()].predictedWithBlot);\r\n          userData[_msgSender()].predictedWithBlot = true;\r\n          tokenController.swapBLOT(_msgSender(), address(this), _predictionStake);\r\n          _asset = plotToken;\r\n        }\r\n        _commissionStake = _calculatePercentage(plotCommissionPerc, _predictionStake, 10000);\r\n        plotCommissionAmount = plotCommissionAmount.add(_commissionStake);\r\n      }\r\n      _commissionStake = _predictionStake.sub(_commissionStake);\r\n\r\n\r\n      (uint predictionPoints, bool isMultiplierApplied) = calculatePredictionValue(_prediction, _commissionStake, _leverage, _asset);\r\n      if(isMultiplierApplied) {\r\n        userData[_msgSender()].multiplierApplied = true; \r\n      }\r\n      require(predictionPoints > 0);\r\n\r\n      _storePredictionData(_prediction, _commissionStake, _asset, _leverage, predictionPoints);\r\n      marketRegistry.setUserGlobalPredictionData(_msgSender(),_predictionStake, predictionPoints, _asset, _prediction, _leverage);\r\n    }\r\n\r\n    function calculatePredictionValue(uint _prediction, uint _predictionStake, uint _leverage, address _asset) internal view returns(uint predictionPoints, bool isMultiplierApplied) {\r\n      uint[] memory params = new uint[](11);\r\n      params[0] = _prediction;\r\n      params[1] = marketData.neutralMinValue;\r\n      params[2] = marketData.neutralMaxValue;\r\n      params[3] = marketData.startTime;\r\n      params[4] = marketExpireTime();\r\n      (params[5], params[6]) = getTotalAssetsStaked();\r\n      params[7] = optionsAvailable[_prediction].assetStaked[ETH_ADDRESS];\r\n      params[8] = optionsAvailable[_prediction].assetStaked[plotToken];\r\n      params[9] = _predictionStake;\r\n      params[10] = _leverage;\r\n      bool checkMultiplier;\r\n      if(!userData[_msgSender()].multiplierApplied) {\r\n        checkMultiplier = true;\r\n      }\r\n      (predictionPoints, isMultiplierApplied) = marketUtility.calculatePredictionValue(params, _asset, _msgSender(), marketFeedAddress, checkMultiplier);\r\n      \r\n    }\r\n\r\n    function getTotalAssetsStaked() public view returns(uint256 ethStaked, uint256 plotStaked) {\r\n      for(uint256 i = 1; i<= totalOptions;i++) {\r\n        ethStaked = ethStaked.add(optionsAvailable[i].assetStaked[ETH_ADDRESS]);\r\n        plotStaked = plotStaked.add(optionsAvailable[i].assetStaked[plotToken]);\r\n      }\r\n    }\r\n\r\n    function getTotalStakedValueInPLOT() public view returns(uint256) {\r\n      (uint256 ethStaked, uint256 plotStaked) = getTotalAssetsStaked();\r\n      (, ethStaked) = marketUtility.getValueAndMultiplierParameters(ETH_ADDRESS, ethStaked);\r\n      return plotStaked.add(ethStaked);\r\n    }\r\n\r\n    /**\r\n    * @dev Stores the prediction data.\r\n    * @param _prediction The option on which user place prediction.\r\n    * @param _predictionStake The amount staked by user at the time of prediction.\r\n    * @param _asset The asset used by user during prediction.\r\n    * @param _leverage The leverage opted by user during prediction.\r\n    * @param predictionPoints The positions user got during prediction.\r\n    */\r\n    function _storePredictionData(uint _prediction, uint _predictionStake, address _asset, uint _leverage, uint predictionPoints) internal {\r\n      userData[_msgSender()].predictionPoints[_prediction] = userData[_msgSender()].predictionPoints[_prediction].add(predictionPoints);\r\n      userData[_msgSender()].assetStaked[_asset][_prediction] = userData[_msgSender()].assetStaked[_asset][_prediction].add(_predictionStake);\r\n      userData[_msgSender()].LeverageAsset[_asset][_prediction] = userData[_msgSender()].LeverageAsset[_asset][_prediction].add(_predictionStake.mul(_leverage));\r\n      optionsAvailable[_prediction].predictionPoints = optionsAvailable[_prediction].predictionPoints.add(predictionPoints);\r\n      optionsAvailable[_prediction].assetStaked[_asset] = optionsAvailable[_prediction].assetStaked[_asset].add(_predictionStake);\r\n      optionsAvailable[_prediction].assetLeveraged[_asset] = optionsAvailable[_prediction].assetLeveraged[_asset].add(_predictionStake.mul(_leverage));\r\n    }\r\n\r\n    /**\r\n    * @dev Settle the market, setting the winning option\r\n    */\r\n    function settleMarket() external {\r\n      (uint256 _value, uint256 _roundId) = marketUtility.getSettlemetPrice(marketFeedAddress, uint256(marketSettleTime()));\r\n      if(marketStatus() == PredictionStatus.InSettlement) {\r\n        _postResult(_value, _roundId);\r\n      }\r\n    }\r\n\r\n    /**\r\n    * @dev Calculate the result of market.\r\n    * @param _value The current price of market currency.\r\n    */\r\n    function _postResult(uint256 _value, uint256 _roundId) internal {\r\n      require(now >= marketSettleTime(),\"Time not reached\");\r\n      require(_value > 0,\"value should be greater than 0\");\r\n      uint riskPercentage;\r\n      ( , riskPercentage, , ) = marketUtility.getBasicMarketDetails();\r\n      if(predictionStatus != PredictionStatus.InDispute) {\r\n        marketSettleData.settleTime = uint64(now);\r\n      } else {\r\n        delete marketSettleData.settleTime;\r\n      }\r\n      predictionStatus = PredictionStatus.Settled;\r\n      if(_value < marketData.neutralMinValue) {\r\n        marketSettleData.WinningOption = 1;\r\n      } else if(_value > marketData.neutralMaxValue) {\r\n        marketSettleData.WinningOption = 3;\r\n      } else {\r\n        marketSettleData.WinningOption = 2;\r\n      }\r\n      uint[] memory totalReward = new uint256[](2);\r\n      if(optionsAvailable[marketSettleData.WinningOption].assetStaked[ETH_ADDRESS] > 0 ||\r\n        optionsAvailable[marketSettleData.WinningOption].assetStaked[plotToken] > 0\r\n      ){\r\n        for(uint i=1;i <= totalOptions;i++){\r\n          if(i!=marketSettleData.WinningOption) {\r\n            uint256 leveragedAsset = _calculatePercentage(riskPercentage, optionsAvailable[i].assetLeveraged[plotToken], 100);\r\n            totalReward[0] = totalReward[0].add(leveragedAsset);\r\n            leveragedAsset = _calculatePercentage(riskPercentage, optionsAvailable[i].assetLeveraged[ETH_ADDRESS], 100);\r\n            totalReward[1] = totalReward[1].add(leveragedAsset);\r\n          }\r\n        }\r\n        rewardToDistribute = totalReward;\r\n      } else {\r\n        for(uint i=1;i <= totalOptions;i++){\r\n          uint256 leveragedAsset = _calculatePercentage(riskPercentage, optionsAvailable[i].assetLeveraged[plotToken], 100);\r\n          tokenAmountToPool = tokenAmountToPool.add(leveragedAsset);\r\n          leveragedAsset = _calculatePercentage(riskPercentage, optionsAvailable[i].assetLeveraged[ETH_ADDRESS], 100);\r\n          ethAmountToPool = ethAmountToPool.add(leveragedAsset);\r\n        }\r\n      }\r\n      _transferAsset(ETH_ADDRESS, address(marketRegistry), ethAmountToPool.add(ethCommissionAmount));\r\n      _transferAsset(plotToken, address(marketRegistry), tokenAmountToPool.add(plotCommissionAmount));\r\n      delete ethCommissionAmount;\r\n      delete plotCommissionAmount;\r\n      marketRegistry.callMarketResultEvent(rewardToDistribute, marketSettleData.WinningOption, _value, _roundId);\r\n    }\r\n\r\n    function _calculatePercentage(uint256 _percent, uint256 _value, uint256 _divisor) internal pure returns(uint256) {\r\n      return _percent.mul(_value).div(_divisor);\r\n    }\r\n\r\n    /**\r\n    * @dev Raise the dispute if wrong value passed at the time of market result declaration.\r\n    * @param proposedValue The proposed value of market currency.\r\n    * @param proposalTitle The title of proposal created by user.\r\n    * @param description The description of dispute.\r\n    * @param solutionHash The ipfs solution hash.\r\n    */\r\n    function raiseDispute(uint256 proposedValue, string memory proposalTitle, string memory description, string memory solutionHash) public {\r\n      require(getTotalStakedValueInPLOT() > 0, \"No participation\");\r\n      require(marketStatus() == PredictionStatus.Cooling);\r\n      uint _stakeForDispute =  marketUtility.getDisputeResolutionParams();\r\n      tokenController.transferFrom(plotToken, _msgSender(), address(marketRegistry), _stakeForDispute);\r\n      lockedForDispute = true;\r\n      marketRegistry.createGovernanceProposal(proposalTitle, description, solutionHash, abi.encode(address(this), proposedValue), _stakeForDispute, _msgSender(), ethAmountToPool, tokenAmountToPool, proposedValue);\r\n      delete ethAmountToPool;\r\n      delete tokenAmountToPool;\r\n      predictionStatus = PredictionStatus.InDispute;\r\n    }\r\n\r\n    /**\r\n    * @dev Resolve the dispute\r\n    * @param accepted Flag mentioning if dispute is accepted or not\r\n    * @param finalResult The final correct value of market currency.\r\n    */\r\n    function resolveDispute(bool accepted, uint256 finalResult) external payable {\r\n      require(msg.sender == address(marketRegistry) && marketStatus() == PredictionStatus.InDispute);\r\n      if(accepted) {\r\n        _postResult(finalResult, 0);\r\n      }\r\n      lockedForDispute = false;\r\n      predictionStatus = PredictionStatus.Settled;\r\n    }\r\n\r\n    function sponsorIncentives(address _token, uint256 _value) external {\r\n      require(marketRegistry.isWhitelistedSponsor(_msgSender()));\r\n      require(marketStatus() <= PredictionStatus.InSettlement);\r\n      require(incentiveToken == address(0), \"Already sponsored\");\r\n      incentiveToken = _token;\r\n      incentiveToDistribute = _value;\r\n      tokenController.transferFrom(_token, _msgSender(), address(this), _value);\r\n    }\r\n\r\n\r\n    /**\r\n    * @dev Claim the return amount of the specified address.\r\n    * @param _user The address to query the claim return amount of.\r\n    * @return Flag, if 0:cannot claim, 1: Already Claimed, 2: Claimed\r\n    */\r\n    function claimReturn(address payable _user) public returns(uint256) {\r\n\r\n      if(lockedForDispute || marketStatus() != PredictionStatus.Settled || marketRegistry.marketCreationPaused()) {\r\n        return 0;\r\n      }\r\n      if(userData[_user].claimedReward) {\r\n        return 1;\r\n      }\r\n      userData[_user].claimedReward = true;\r\n      (uint[] memory _returnAmount, address[] memory _predictionAssets, uint _incentive, ) = getReturn(_user);\r\n      _transferAsset(plotToken, _user, _returnAmount[0]);\r\n      _transferAsset(ETH_ADDRESS, _user, _returnAmount[1]);\r\n      _transferAsset(incentiveToken, _user, _incentive);\r\n      marketRegistry.callClaimedEvent(_user, _returnAmount, _predictionAssets, _incentive, incentiveToken);\r\n      return 2;\r\n    }\r\n\r\n    /**\r\n    * @dev Transfer the assets to specified address.\r\n    * @param _asset The asset transfer to the specific address.\r\n    * @param _recipient The address to transfer the asset of\r\n    * @param _amount The amount which is transfer.\r\n    */\r\n    function _transferAsset(address _asset, address payable _recipient, uint256 _amount) internal {\r\n      if(_amount > 0) { \r\n        if(_asset == ETH_ADDRESS) {\r\n          _recipient.transfer(_amount);\r\n        } else {\r\n          require(IToken(_asset).transfer(_recipient, _amount));\r\n        }\r\n      }\r\n    }\r\n\r\n    /**\r\n    * @dev Get market settle time\r\n    * @return the time at which the market result will be declared\r\n    */\r\n    function marketSettleTime() public view returns(uint64) {\r\n      if(marketSettleData.settleTime > 0) {\r\n        return marketSettleData.settleTime;\r\n      }\r\n      return uint64(marketData.startTime.add(marketData.predictionTime.mul(2)));\r\n    }\r\n\r\n    /**\r\n    * @dev Get market expire time\r\n    * @return the time upto which user can place predictions in market\r\n    */\r\n    function marketExpireTime() internal view returns(uint256) {\r\n      return marketData.startTime.add(marketData.predictionTime);\r\n    }\r\n\r\n    /**\r\n    * @dev Get market cooldown time\r\n    * @return the time upto which user can raise the dispute after the market is settled\r\n    */\r\n    function marketCoolDownTime() public view returns(uint256) {\r\n      return marketSettleData.settleTime.add(marketData.predictionTime.div(4));\r\n    }\r\n\r\n    /**\r\n    * @dev Get market Feed data\r\n    * @return market currency name\r\n    * @return market currency feed address\r\n    */\r\n    function getMarketFeedData() public view returns(uint8, bytes32, address) {\r\n      return (roundOfToNearest, marketCurrency, marketFeedAddress);\r\n    }\r\n\r\n   /**\r\n    * @dev Get estimated amount of prediction points for given inputs.\r\n    * @param _prediction The option on which user place prediction.\r\n    * @param _stakeValueInEth The amount staked by user.\r\n    * @param _leverage The leverage opted by user at the time of prediction.\r\n    * @return uint256 representing the prediction points.\r\n    */\r\n    function estimatePredictionValue(uint _prediction, uint _stakeValueInEth, uint _leverage) public view returns(uint _predictionValue){\r\n      (_predictionValue, ) = calculatePredictionValue(_prediction, _stakeValueInEth, _leverage, ETH_ADDRESS);\r\n    }\r\n\r\n    /**\r\n    * @dev Gets the price of specific option.\r\n    * @param _prediction The option number to query the balance of.\r\n    * @return Price of the option.\r\n    */\r\n    function getOptionPrice(uint _prediction) public view returns(uint) {\r\n      uint[] memory params = new uint[](9);\r\n      params[0] = _prediction;\r\n      params[1] = marketData.neutralMinValue;\r\n      params[2] = marketData.neutralMaxValue;\r\n      params[3] = marketData.startTime;\r\n      params[4] = marketExpireTime();\r\n      (params[5], params[6]) = getTotalAssetsStaked();\r\n      params[7] = optionsAvailable[_prediction].assetStaked[ETH_ADDRESS];\r\n      params[8] = optionsAvailable[_prediction].assetStaked[plotToken];\r\n      return marketUtility.calculateOptionPrice(params, marketFeedAddress);\r\n    }\r\n\r\n    /**\r\n    * @dev Gets number of positions user got in prediction\r\n    * @param _user Address of user\r\n    * @param _option Option Id\r\n    */\r\n    function getUserPredictionPoints(address _user, uint256 _option) external view returns(uint256) {\r\n      return userData[_user].predictionPoints[_option];\r\n    }\r\n\r\n    /**\r\n    * @dev Gets the market data.\r\n    * @return _marketCurrency bytes32 representing the currency or stock name of the market.\r\n    * @return minvalue uint[] memory representing the minimum range of all the options of the market.\r\n    * @return maxvalue uint[] memory representing the maximum range of all the options of the market.\r\n    * @return _optionPrice uint[] memory representing the option price of each option ranges of the market.\r\n    * @return _ethStaked uint[] memory representing the ether staked on each option ranges of the market.\r\n    * @return _plotStaked uint[] memory representing the plot staked on each option ranges of the market.\r\n    * @return _predictionTime uint representing the type of market.\r\n    * @return _expireTime uint representing the time at which market closes for prediction\r\n    * @return _predictionStatus uint representing the status of the market.\r\n    */\r\n    function getData() public view returns\r\n       (bytes32 _marketCurrency,uint[] memory minvalue,uint[] memory maxvalue,\r\n        uint[] memory _optionPrice, uint[] memory _ethStaked, uint[] memory _plotStaked,uint _predictionTime,uint _expireTime, uint _predictionStatus){\r\n        _marketCurrency = marketCurrency;\r\n        _predictionTime = marketData.predictionTime;\r\n        _expireTime =marketExpireTime();\r\n        _predictionStatus = uint(marketStatus());\r\n        minvalue = new uint[](totalOptions);\r\n        minvalue[1] = marketData.neutralMinValue;\r\n        minvalue[2] = marketData.neutralMaxValue.add(1);\r\n        maxvalue = new uint[](totalOptions);\r\n        maxvalue[0] = marketData.neutralMinValue.sub(1);\r\n        maxvalue[1] = marketData.neutralMaxValue;\r\n        maxvalue[2] = ~uint256(0);\r\n        \r\n        _optionPrice = new uint[](totalOptions);\r\n        _ethStaked = new uint[](totalOptions);\r\n        _plotStaked = new uint[](totalOptions);\r\n        for (uint i = 0; i < totalOptions; i++) {\r\n        _ethStaked[i] = optionsAvailable[i+1].assetStaked[ETH_ADDRESS];\r\n        _plotStaked[i] = optionsAvailable[i+1].assetStaked[plotToken];\r\n        _optionPrice[i] = getOptionPrice(i+1);\r\n       }\r\n    }\r\n\r\n   /**\r\n    * @dev Gets the result of the market.\r\n    * @return uint256 representing the winning option of the market.\r\n    * @return uint256 Value of market currently at the time closing market.\r\n    * @return uint256 representing the positions of the winning option.\r\n    * @return uint[] memory representing the reward to be distributed.\r\n    * @return uint256 representing the Eth staked on winning option.\r\n    * @return uint256 representing the PLOT staked on winning option.\r\n    */\r\n    function getMarketResults() public view returns(uint256, uint256, uint256[] memory, uint256, uint256) {\r\n      return (marketSettleData.WinningOption, optionsAvailable[marketSettleData.WinningOption].predictionPoints, rewardToDistribute, optionsAvailable[marketSettleData.WinningOption].assetStaked[ETH_ADDRESS], optionsAvailable[marketSettleData.WinningOption].assetStaked[plotToken]);\r\n    }\r\n\r\n\r\n    /**\r\n    * @dev Gets the return amount of the specified address.\r\n    * @param _user The address to specify the return of\r\n    * @return returnAmount uint[] memory representing the return amount.\r\n    * @return incentive uint[] memory representing the amount incentive.\r\n    * @return _incentiveTokens address[] memory representing the incentive tokens.\r\n    */\r\n    function getReturn(address _user)public view returns (uint[] memory returnAmount, address[] memory _predictionAssets, uint incentive, address _incentiveToken){\r\n      (uint256 ethStaked, uint256 plotStaked) = getTotalAssetsStaked();\r\n      if(marketStatus() != PredictionStatus.Settled || ethStaked.add(plotStaked) ==0) {\r\n       return (returnAmount, _predictionAssets, incentive, incentiveToken);\r\n      }\r\n      _predictionAssets = new address[](2);\r\n      _predictionAssets[0] = plotToken;\r\n      _predictionAssets[1] = ETH_ADDRESS;\r\n\r\n      uint256 _totalUserPredictionPoints = 0;\r\n      uint256 _totalPredictionPoints = 0;\r\n      (returnAmount, _totalUserPredictionPoints, _totalPredictionPoints) = _calculateUserReturn(_user);\r\n      incentive = _calculateIncentives(_totalUserPredictionPoints, _totalPredictionPoints);\r\n      if(userData[_user].predictionPoints[marketSettleData.WinningOption] > 0) {\r\n        returnAmount = _addUserReward(_user, returnAmount);\r\n      }\r\n      return (returnAmount, _predictionAssets, incentive, incentiveToken);\r\n    }\r\n\r\n    /**\r\n    * @dev Get flags set for user\r\n    * @param _user User address\r\n    * @return Flag defining if user had availed multiplier\r\n    * @return Flag defining if user had predicted with bPLOT\r\n    */\r\n    function getUserFlags(address _user) external view returns(bool, bool) {\r\n      return (userData[_user].multiplierApplied, userData[_user].predictedWithBlot);\r\n    }\r\n\r\n    /**\r\n    * @dev Adds the reward in the total return of the specified address.\r\n    * @param _user The address to specify the return of.\r\n    * @param returnAmount The return amount.\r\n    * @return uint[] memory representing the return amount after adding reward.\r\n    */\r\n    function _addUserReward(address _user, uint[] memory returnAmount) internal view returns(uint[] memory){\r\n      uint reward;\r\n      for(uint j = 0; j< returnAmount.length; j++) {\r\n        reward = userData[_user].predictionPoints[marketSettleData.WinningOption].mul(rewardToDistribute[j]).div(optionsAvailable[marketSettleData.WinningOption].predictionPoints);\r\n        returnAmount[j] = returnAmount[j].add(reward);\r\n      }\r\n      return returnAmount;\r\n    }\r\n\r\n    /**\r\n    * @dev Calculate the return of the specified address.\r\n    * @param _user The address to query the return of.\r\n    * @return _return uint[] memory representing the return amount owned by the passed address.\r\n    * @return _totalUserPredictionPoints uint representing the positions owned by the passed address.\r\n    * @return _totalPredictionPoints uint representing the total positions of winners.\r\n    */\r\n    function _calculateUserReturn(address _user) internal view returns(uint[] memory _return, uint _totalUserPredictionPoints, uint _totalPredictionPoints){\r\n      ( , uint riskPercentage, , ) = marketUtility.getBasicMarketDetails();\r\n      _return = new uint256[](2);\r\n      for(uint  i=1;i<=totalOptions;i++){\r\n        _totalUserPredictionPoints = _totalUserPredictionPoints.add(userData[_user].predictionPoints[i]);\r\n        _totalPredictionPoints = _totalPredictionPoints.add(optionsAvailable[i].predictionPoints);\r\n        _return[0] =  _callReturn(_return[0], _user, i, riskPercentage, plotToken);\r\n        _return[1] =  _callReturn(_return[1], _user, i, riskPercentage, ETH_ADDRESS);\r\n      }\r\n    }\r\n\r\n    /**\r\n    * @dev Calculates the incentives.\r\n    * @param _totalUserPredictionPoints The positions of user.\r\n    * @param _totalPredictionPoints The total positions of winners.\r\n    * @return incentive the calculated incentive.\r\n    */\r\n    function _calculateIncentives(uint256 _totalUserPredictionPoints, uint256 _totalPredictionPoints) internal view returns(uint256 incentive){\r\n      incentive = _totalUserPredictionPoints.mul(incentiveToDistribute.div(_totalPredictionPoints));\r\n    }\r\n\r\n    // /**\r\n    // * @dev Gets the pending return.\r\n    // * @param _user The address to specify the return of.\r\n    // * @return uint representing the pending return amount.\r\n    // */\r\n    // function getPendingReturn(address _user) external view returns(uint[] memory returnAmount, address[] memory _predictionAssets, uint[] memory incentive, address[] memory _incentiveTokens){\r\n    //   if(userClaimedReward[_user]) return (0,0);\r\n    //   return getReturn(_user);\r\n    // }\r\n    \r\n    /**\r\n    * @dev Calls the total return amount internally.\r\n    */\r\n    function _callReturn(uint _return,address _user,uint i,uint riskPercentage, address _asset)internal view returns(uint){\r\n      if(i == marketSettleData.WinningOption) {\r\n        riskPercentage = 0;\r\n      }\r\n      uint256 leveragedAsset = _calculatePercentage(riskPercentage, userData[_user].LeverageAsset[_asset][i], 100);\r\n      return _return.add(userData[_user].assetStaked[_asset][i].sub(leveragedAsset));\r\n    }\r\n\r\n\r\n    /**\r\n    * @dev Gets the status of market.\r\n    * @return PredictionStatus representing the status of market.\r\n    */\r\n    function marketStatus() internal view returns(PredictionStatus){\r\n      if(predictionStatus == PredictionStatus.Live && now >= marketExpireTime()) {\r\n        return PredictionStatus.InSettlement;\r\n      } else if(predictionStatus == PredictionStatus.Settled && now <= marketCoolDownTime()) {\r\n        return PredictionStatus.Cooling;\r\n      }\r\n      return predictionStatus;\r\n    }\r\n\r\n}\r\n",
  "sourcePath": "/home/madan/Documents/PlotX/PlotxContract/contracts/Market.sol",
  "compiler": {
    "name": "solc",
    "version": "0.5.7+commit.6da8b019.Emscripten.clang"
  },
  "schemaVersion": "3.3.2",
  "updatedAt": "2020-12-10T08:30:24.883Z",
  "devdoc": {
    "methods": {
      "claimReturn(address)": {
        "details": "Claim the return amount of the specified address.\r",
        "params": {
          "_user": "The address to query the claim return amount of.\r"
        },
        "return": "Flag, if 0:cannot claim, 1: Already Claimed, 2: Claimed\r"
      },
      "estimatePredictionValue(uint256,uint256,uint256)": {
        "details": "Get estimated amount of prediction points for given inputs.\r",
        "params": {
          "_leverage": "The leverage opted by user at the time of prediction.\r",
          "_prediction": "The option on which user place prediction.\r",
          "_stakeValueInEth": "The amount staked by user.\r"
        },
        "return": "uint256 representing the prediction points.\r"
      },
      "executeMetaTransaction(address,bytes,bytes32,bytes32,uint8)": {
        "params": {
          "functionSignature": "Signature of the actual function to be called via meta transaction",
          "sigR": "R part of the signature",
          "sigS": "S part of the signature",
          "sigV": "V part of the signature",
          "userAddress": "Address of user trying to do meta transaction"
        }
      },
      "getData()": {
        "details": "Gets the market data.\r",
        "return": "_marketCurrency bytes32 representing the currency or stock name of the market.\rminvalue uint[] memory representing the minimum range of all the options of the market.\rmaxvalue uint[] memory representing the maximum range of all the options of the market.\r_optionPrice uint[] memory representing the option price of each option ranges of the market.\r_ethStaked uint[] memory representing the ether staked on each option ranges of the market.\r_plotStaked uint[] memory representing the plot staked on each option ranges of the market.\r_predictionTime uint representing the type of market.\r_expireTime uint representing the time at which market closes for prediction\r_predictionStatus uint representing the status of the market.\r"
      },
      "getMarketFeedData()": {
        "details": "Get market Feed data\r",
        "return": "market currency name\rmarket currency feed address\r"
      },
      "getMarketResults()": {
        "details": "Gets the result of the market.\r",
        "return": "uint256 representing the winning option of the market.\ruint256 Value of market currently at the time closing market.\ruint256 representing the positions of the winning option.\ruint[] memory representing the reward to be distributed.\ruint256 representing the Eth staked on winning option.\ruint256 representing the PLOT staked on winning option.\r"
      },
      "getOptionPrice(uint256)": {
        "details": "Gets the price of specific option.\r",
        "params": {
          "_prediction": "The option number to query the balance of.\r"
        },
        "return": "Price of the option.\r"
      },
      "getReturn(address)": {
        "details": "Gets the return amount of the specified address.\r",
        "params": {
          "_user": "The address to specify the return of\r"
        },
        "return": "returnAmount uint[] memory representing the return amount.\rincentive uint[] memory representing the amount incentive.\r_incentiveTokens address[] memory representing the incentive tokens.\r"
      },
      "getUserFlags(address)": {
        "details": "Get flags set for user\r",
        "params": {
          "_user": "User address\r"
        },
        "return": "Flag defining if user had availed multiplier\rFlag defining if user had predicted with bPLOT\r"
      },
      "getUserPredictionPoints(address,uint256)": {
        "details": "Gets number of positions user got in prediction\r",
        "params": {
          "_option": "Option Id\r",
          "_user": "Address of user\r"
        }
      },
      "initiate(uint64,uint64,uint64,uint64)": {
        "details": "Initialize the market.\r",
        "params": {
          "_maxValue": "The maximum value of neutral option range.\r",
          "_minValue": "The minimum value of neutral option range.\r",
          "_predictionTime": "The time duration of market.\r",
          "_startTime": "The time at which market will create.\r"
        }
      },
      "marketCoolDownTime()": {
        "details": "Get market cooldown time\r",
        "return": "the time upto which user can raise the dispute after the market is settled\r"
      },
      "marketSettleTime()": {
        "details": "Get market settle time\r",
        "return": "the time at which the market result will be declared\r"
      },
      "placePrediction(address,uint256,uint256,uint256)": {
        "details": "Place prediction on the available options of the market.\r",
        "params": {
          "_asset": "The asset used by user during prediction whether it is plotToken address or in ether.\r",
          "_leverage": "The leverage opted by user at the time of prediction.\r",
          "_prediction": "The option on which user placed prediction.\r",
          "_predictionStake": "The amount staked by user at the time of prediction.\r"
        }
      },
      "raiseDispute(uint256,string,string,string)": {
        "details": "Raise the dispute if wrong value passed at the time of market result declaration.\r",
        "params": {
          "description": "The description of dispute.\r",
          "proposalTitle": "The title of proposal created by user.\r",
          "proposedValue": "The proposed value of market currency.\r",
          "solutionHash": "The ipfs solution hash.\r"
        }
      },
      "resolveDispute(bool,uint256)": {
        "details": "Resolve the dispute\r",
        "params": {
          "accepted": "Flag mentioning if dispute is accepted or not\r",
          "finalResult": "The final correct value of market currency.\r"
        }
      },
      "settleMarket()": {
        "details": "Settle the market, setting the winning option\r"
      }
    }
  },
  "userdoc": {
    "methods": {
      "executeMetaTransaction(address,bytes,bytes32,bytes32,uint8)": {
        "notice": "Main function to be called when user wants to execute meta transaction. The actual function to be called should be passed as param with name functionSignature Here the basic signature recovery is being used. Signature is expected to be generated using personal_sign method."
      }
    }
  }
}