{
  "contractName": "MarketRegistry",
  "abi": [
    {
      "constant": false,
      "inputs": [
        {
          "name": "userAddress",
          "type": "address"
        },
        {
          "name": "functionSignature",
          "type": "bytes"
        },
        {
          "name": "sigR",
          "type": "bytes32"
        },
        {
          "name": "sigS",
          "type": "bytes32"
        },
        {
          "name": "sigV",
          "type": "uint8"
        }
      ],
      "name": "executeMetaTransaction",
      "outputs": [
        {
          "name": "",
          "type": "bytes"
        }
      ],
      "payable": true,
      "stateMutability": "payable",
      "type": "function"
    },
    {
      "constant": true,
      "inputs": [],
      "name": "_msgSender",
      "outputs": [
        {
          "name": "sender",
          "type": "address"
        }
      ],
      "payable": false,
      "stateMutability": "view",
      "type": "function"
    },
    {
      "constant": true,
      "inputs": [
        {
          "name": "",
          "type": "uint256"
        },
        {
          "name": "",
          "type": "uint256"
        }
      ],
      "name": "marketCreationData",
      "outputs": [
        {
          "name": "initialStartTime",
          "type": "uint64"
        },
        {
          "name": "marketAddress",
          "type": "address"
        },
        {
          "name": "penultimateMarket",
          "type": "address"
        }
      ],
      "payable": false,
      "stateMutability": "view",
      "type": "function"
    },
    {
      "constant": true,
      "inputs": [],
      "name": "plotToken",
      "outputs": [
        {
          "name": "",
          "type": "address"
        }
      ],
      "payable": false,
      "stateMutability": "view",
      "type": "function"
    },
    {
      "constant": true,
      "inputs": [
        {
          "name": "_toCheck",
          "type": "address"
        }
      ],
      "name": "isAuthorizedToGovern",
      "outputs": [
        {
          "name": "",
          "type": "bool"
        }
      ],
      "payable": false,
      "stateMutability": "view",
      "type": "function"
    },
    {
      "constant": true,
      "inputs": [],
      "name": "marketUtility",
      "outputs": [
        {
          "name": "",
          "type": "address"
        }
      ],
      "payable": false,
      "stateMutability": "view",
      "type": "function"
    },
    {
      "constant": true,
      "inputs": [
        {
          "name": "user",
          "type": "address"
        }
      ],
      "name": "getNonce",
      "outputs": [
        {
          "name": "nonce",
          "type": "uint256"
        }
      ],
      "payable": false,
      "stateMutability": "view",
      "type": "function"
    },
    {
      "constant": true,
      "inputs": [],
      "name": "marketCreationPaused",
      "outputs": [
        {
          "name": "",
          "type": "bool"
        }
      ],
      "payable": false,
      "stateMutability": "view",
      "type": "function"
    },
    {
      "constant": true,
      "inputs": [],
      "name": "getChainID",
      "outputs": [
        {
          "name": "",
          "type": "uint256"
        }
      ],
      "payable": false,
      "stateMutability": "pure",
      "type": "function"
    },
    {
      "constant": true,
      "inputs": [
        {
          "name": "owner",
          "type": "address"
        },
        {
          "name": "nonce",
          "type": "uint256"
        },
        {
          "name": "chainID",
          "type": "uint256"
        },
        {
          "name": "functionSignature",
          "type": "bytes"
        },
        {
          "name": "sigR",
          "type": "bytes32"
        },
        {
          "name": "sigS",
          "type": "bytes32"
        },
        {
          "name": "sigV",
          "type": "uint8"
        }
      ],
      "name": "verify",
      "outputs": [
        {
          "name": "",
          "type": "bool"
        }
      ],
      "payable": false,
      "stateMutability": "view",
      "type": "function"
    },
    {
      "constant": true,
      "inputs": [],
      "name": "masterAddress",
      "outputs": [
        {
          "name": "",
          "type": "address"
        }
      ],
      "payable": false,
      "stateMutability": "view",
      "type": "function"
    },
    {
      "constant": true,
      "inputs": [],
      "name": "tokenController",
      "outputs": [
        {
          "name": "",
          "type": "address"
        }
      ],
      "payable": false,
      "stateMutability": "view",
      "type": "function"
    },
    {
      "payable": true,
      "stateMutability": "payable",
      "type": "fallback"
    },
    {
      "anonymous": false,
      "inputs": [
        {
          "indexed": true,
          "name": "marketAdd",
          "type": "address"
        },
        {
          "indexed": false,
          "name": "stockName",
          "type": "bytes32"
        },
        {
          "indexed": true,
          "name": "predictionType",
          "type": "uint256"
        },
        {
          "indexed": false,
          "name": "startTime",
          "type": "uint256"
        }
      ],
      "name": "MarketQuestion",
      "type": "event"
    },
    {
      "anonymous": false,
      "inputs": [
        {
          "indexed": true,
          "name": "user",
          "type": "address"
        },
        {
          "indexed": false,
          "name": "value",
          "type": "uint256"
        },
        {
          "indexed": false,
          "name": "predictionPoints",
          "type": "uint256"
        },
        {
          "indexed": false,
          "name": "predictionAsset",
          "type": "address"
        },
        {
          "indexed": false,
          "name": "prediction",
          "type": "uint256"
        },
        {
          "indexed": true,
          "name": "marketAdd",
          "type": "address"
        },
        {
          "indexed": false,
          "name": "_leverage",
          "type": "uint256"
        }
      ],
      "name": "PlacePrediction",
      "type": "event"
    },
    {
      "anonymous": false,
      "inputs": [
        {
          "indexed": true,
          "name": "marketAdd",
          "type": "address"
        },
        {
          "indexed": false,
          "name": "totalReward",
          "type": "uint256[]"
        },
        {
          "indexed": false,
          "name": "winningOption",
          "type": "uint256"
        },
        {
          "indexed": false,
          "name": "closeValue",
          "type": "uint256"
        },
        {
          "indexed": false,
          "name": "roundId",
          "type": "uint256"
        }
      ],
      "name": "MarketResult",
      "type": "event"
    },
    {
      "anonymous": false,
      "inputs": [
        {
          "indexed": true,
          "name": "marketAdd",
          "type": "address"
        },
        {
          "indexed": true,
          "name": "user",
          "type": "address"
        },
        {
          "indexed": false,
          "name": "reward",
          "type": "uint256[]"
        },
        {
          "indexed": false,
          "name": "_predictionAssets",
          "type": "address[]"
        },
        {
          "indexed": false,
          "name": "incentive",
          "type": "uint256"
        },
        {
          "indexed": false,
          "name": "incentiveToken",
          "type": "address"
        }
      ],
      "name": "Claimed",
      "type": "event"
    },
    {
      "anonymous": false,
      "inputs": [
        {
          "indexed": true,
          "name": "index",
          "type": "uint256"
        },
        {
          "indexed": false,
          "name": "predictionTime",
          "type": "uint64"
        },
        {
          "indexed": false,
          "name": "optionRangePerc",
          "type": "uint64"
        }
      ],
      "name": "MarketTypes",
      "type": "event"
    },
    {
      "anonymous": false,
      "inputs": [
        {
          "indexed": true,
          "name": "index",
          "type": "uint256"
        },
        {
          "indexed": false,
          "name": "marketImplementation",
          "type": "address"
        },
        {
          "indexed": false,
          "name": "feedAddress",
          "type": "address"
        },
        {
          "indexed": false,
          "name": "currencyName",
          "type": "bytes32"
        }
      ],
      "name": "MarketCurrencies",
      "type": "event"
    },
    {
      "anonymous": false,
      "inputs": [
        {
          "indexed": true,
          "name": "marketAdd",
          "type": "address"
        },
        {
          "indexed": false,
          "name": "raisedBy",
          "type": "address"
        },
        {
          "indexed": false,
          "name": "proposalId",
          "type": "uint64"
        },
        {
          "indexed": false,
          "name": "proposedValue",
          "type": "uint256"
        }
      ],
      "name": "DisputeRaised",
      "type": "event"
    },
    {
      "anonymous": false,
      "inputs": [
        {
          "indexed": true,
          "name": "marketAdd",
          "type": "address"
        },
        {
          "indexed": false,
          "name": "status",
          "type": "bool"
        }
      ],
      "name": "DisputeResolved",
      "type": "event"
    },
    {
      "anonymous": false,
      "inputs": [
        {
          "indexed": false,
          "name": "userAddress",
          "type": "address"
        },
        {
          "indexed": false,
          "name": "relayerAddress",
          "type": "address"
        },
        {
          "indexed": false,
          "name": "functionSignature",
          "type": "bytes"
        }
      ],
      "name": "MetaTransactionExecuted",
      "type": "event"
    },
    {
      "constant": true,
      "inputs": [
        {
          "name": "_address",
          "type": "address"
        }
      ],
      "name": "isMarket",
      "outputs": [
        {
          "name": "",
          "type": "bool"
        }
      ],
      "payable": false,
      "stateMutability": "view",
      "type": "function"
    },
    {
      "constant": true,
      "inputs": [
        {
          "name": "_address",
          "type": "address"
        }
      ],
      "name": "isWhitelistedSponsor",
      "outputs": [
        {
          "name": "",
          "type": "bool"
        }
      ],
      "payable": false,
      "stateMutability": "view",
      "type": "function"
    },
    {
      "constant": false,
      "inputs": [
        {
          "name": "_defaultAddress",
          "type": "address"
        },
        {
          "name": "_marketUtility",
          "type": "address"
        },
        {
          "name": "_plotToken",
          "type": "address"
        },
        {
          "name": "_configParams",
          "type": "address[]"
        }
      ],
      "name": "initiate",
      "outputs": [],
      "payable": false,
      "stateMutability": "nonpayable",
      "type": "function"
    },
    {
      "constant": false,
      "inputs": [
        {
          "name": "_marketStartTime",
          "type": "uint64"
        },
        {
          "name": "_ethMarketImplementation",
          "type": "address"
        },
        {
          "name": "_btcMarketImplementation",
          "type": "address"
        }
      ],
      "name": "addInitialMarketTypesAndStart",
      "outputs": [],
      "payable": false,
      "stateMutability": "nonpayable",
      "type": "function"
    },
    {
      "constant": false,
      "inputs": [
        {
          "name": "_predictionTime",
          "type": "uint64"
        },
        {
          "name": "_marketStartTime",
          "type": "uint64"
        },
        {
          "name": "_optionRangePerc",
          "type": "uint64"
        }
      ],
      "name": "addNewMarketType",
      "outputs": [],
      "payable": false,
      "stateMutability": "nonpayable",
      "type": "function"
    },
    {
      "constant": false,
      "inputs": [
        {
          "name": "_marketImplementation",
          "type": "address"
        },
        {
          "name": "_marketStartTime",
          "type": "uint64"
        }
      ],
      "name": "addNewMarketCurrency",
      "outputs": [],
      "payable": false,
      "stateMutability": "nonpayable",
      "type": "function"
    },
    {
      "constant": false,
      "inputs": [
        {
          "name": "_currencyIndexes",
          "type": "uint256[]"
        },
        {
          "name": "_marketImplementations",
          "type": "address[]"
        }
      ],
      "name": "updateMarketImplementations",
      "outputs": [],
      "payable": false,
      "stateMutability": "nonpayable",
      "type": "function"
    },
    {
      "constant": false,
      "inputs": [
        {
          "name": "_proxyAddress",
          "type": "address"
        },
        {
          "name": "_newImplementation",
          "type": "address"
        }
      ],
      "name": "upgradeContractImplementation",
      "outputs": [],
      "payable": false,
      "stateMutability": "nonpayable",
      "type": "function"
    },
    {
      "constant": false,
      "inputs": [],
      "name": "setMasterAddress",
      "outputs": [],
      "payable": false,
      "stateMutability": "nonpayable",
      "type": "function"
    },
    {
      "constant": false,
      "inputs": [
        {
          "name": "_marketType",
          "type": "uint256"
        },
        {
          "name": "_marketCurrencyIndex",
          "type": "uint256"
        }
      ],
      "name": "createMarket",
      "outputs": [],
      "payable": true,
      "stateMutability": "payable",
      "type": "function"
    },
    {
      "constant": false,
      "inputs": [],
      "name": "claimCreationReward",
      "outputs": [],
      "payable": false,
      "stateMutability": "nonpayable",
      "type": "function"
    },
    {
      "constant": true,
      "inputs": [
        {
          "name": "_marketType",
          "type": "uint256"
        },
        {
          "name": "_marketCurrencyIndex",
          "type": "uint256"
        }
      ],
      "name": "calculateStartTimeForMarket",
      "outputs": [
        {
          "name": "_marketStartTime",
          "type": "uint64"
        }
      ],
      "payable": false,
      "stateMutability": "view",
      "type": "function"
    },
    {
      "constant": false,
      "inputs": [],
      "name": "pauseMarketCreation",
      "outputs": [],
      "payable": false,
      "stateMutability": "nonpayable",
      "type": "function"
    },
    {
      "constant": false,
      "inputs": [],
      "name": "resumeMarketCreation",
      "outputs": [],
      "payable": false,
      "stateMutability": "nonpayable",
      "type": "function"
    },
    {
      "constant": false,
      "inputs": [
        {
          "name": "proposalTitle",
          "type": "string"
        },
        {
          "name": "description",
          "type": "string"
        },
        {
          "name": "solutionHash",
          "type": "string"
        },
        {
          "name": "action",
          "type": "bytes"
        },
        {
          "name": "_stakeForDispute",
          "type": "uint256"
        },
        {
          "name": "_user",
          "type": "address"
        },
        {
          "name": "_ethSentToPool",
          "type": "uint256"
        },
        {
          "name": "_tokenSentToPool",
          "type": "uint256"
        },
        {
          "name": "_proposedValue",
          "type": "uint256"
        }
      ],
      "name": "createGovernanceProposal",
      "outputs": [],
      "payable": false,
      "stateMutability": "nonpayable",
      "type": "function"
    },
    {
      "constant": false,
      "inputs": [
        {
          "name": "_marketAddress",
          "type": "address"
        },
        {
          "name": "_result",
          "type": "uint256"
        }
      ],
      "name": "resolveDispute",
      "outputs": [],
      "payable": false,
      "stateMutability": "nonpayable",
      "type": "function"
    },
    {
      "constant": false,
      "inputs": [
        {
          "name": "_proposalId",
          "type": "uint256"
        }
      ],
      "name": "burnDisputedProposalTokens",
      "outputs": [],
      "payable": false,
      "stateMutability": "nonpayable",
      "type": "function"
    },
    {
      "constant": false,
      "inputs": [
        {
          "name": "maxRecords",
          "type": "uint256"
        }
      ],
      "name": "claimPendingReturn",
      "outputs": [],
      "payable": false,
      "stateMutability": "nonpayable",
      "type": "function"
    },
    {
      "constant": false,
      "inputs": [
        {
          "name": "_asset",
          "type": "address"
        },
        {
          "name": "_to",
          "type": "address"
        },
        {
          "name": "_amount",
          "type": "uint256"
        }
      ],
      "name": "transferAssets",
      "outputs": [],
      "payable": false,
      "stateMutability": "nonpayable",
      "type": "function"
    },
    {
      "constant": false,
      "inputs": [
        {
          "name": "code",
          "type": "bytes8"
        },
        {
          "name": "value",
          "type": "uint256"
        }
      ],
      "name": "updateUintParameters",
      "outputs": [],
      "payable": false,
      "stateMutability": "nonpayable",
      "type": "function"
    },
    {
      "constant": false,
      "inputs": [
        {
          "name": "code",
          "type": "bytes8"
        },
        {
          "name": "value",
          "type": "address"
        }
      ],
      "name": "updateConfigAddressParameters",
      "outputs": [],
      "payable": false,
      "stateMutability": "nonpayable",
      "type": "function"
    },
    {
      "constant": false,
      "inputs": [
        {
          "name": "_totalReward",
          "type": "uint256[]"
        },
        {
          "name": "winningOption",
          "type": "uint256"
        },
        {
          "name": "closeValue",
          "type": "uint256"
        },
        {
          "name": "_roundId",
          "type": "uint256"
        }
      ],
      "name": "callMarketResultEvent",
      "outputs": [],
      "payable": false,
      "stateMutability": "nonpayable",
      "type": "function"
    },
    {
      "constant": false,
      "inputs": [
        {
          "name": "_user",
          "type": "address"
        },
        {
          "name": "_value",
          "type": "uint256"
        },
        {
          "name": "_predictionPoints",
          "type": "uint256"
        },
        {
          "name": "_predictionAsset",
          "type": "address"
        },
        {
          "name": "_prediction",
          "type": "uint256"
        },
        {
          "name": "_leverage",
          "type": "uint256"
        }
      ],
      "name": "setUserGlobalPredictionData",
      "outputs": [],
      "payable": false,
      "stateMutability": "nonpayable",
      "type": "function"
    },
    {
      "constant": false,
      "inputs": [
        {
          "name": "_user",
          "type": "address"
        },
        {
          "name": "_reward",
          "type": "uint256[]"
        },
        {
          "name": "predictionAssets",
          "type": "address[]"
        },
        {
          "name": "incentives",
          "type": "uint256"
        },
        {
          "name": "incentiveToken",
          "type": "address"
        }
      ],
      "name": "callClaimedEvent",
      "outputs": [],
      "payable": false,
      "stateMutability": "nonpayable",
      "type": "function"
    },
    {
      "constant": true,
      "inputs": [
        {
          "name": "code",
          "type": "bytes8"
        }
      ],
      "name": "getUintParameters",
      "outputs": [
        {
          "name": "codeVal",
          "type": "bytes8"
        },
        {
          "name": "value",
          "type": "uint256"
        }
      ],
      "payable": false,
      "stateMutability": "view",
      "type": "function"
    },
    {
      "constant": true,
      "inputs": [
        {
          "name": "_marketAdd",
          "type": "address"
        }
      ],
      "name": "getMarketDetails",
      "outputs": [
        {
          "name": "_feedsource",
          "type": "bytes32"
        },
        {
          "name": "minvalue",
          "type": "uint256[]"
        },
        {
          "name": "maxvalue",
          "type": "uint256[]"
        },
        {
          "name": "optionprice",
          "type": "uint256[]"
        },
        {
          "name": "_ethStaked",
          "type": "uint256[]"
        },
        {
          "name": "_plotStaked",
          "type": "uint256[]"
        },
        {
          "name": "_predictionType",
          "type": "uint256"
        },
        {
          "name": "_expireTime",
          "type": "uint256"
        },
        {
          "name": "_predictionStatus",
          "type": "uint256"
        }
      ],
      "payable": false,
      "stateMutability": "view",
      "type": "function"
    },
    {
      "constant": true,
      "inputs": [
        {
          "name": "_user",
          "type": "address"
        }
      ],
      "name": "getTotalAssetStakedByUser",
      "outputs": [
        {
          "name": "_plotStaked",
          "type": "uint256"
        },
        {
          "name": "_ethStaked",
          "type": "uint256"
        }
      ],
      "payable": false,
      "stateMutability": "view",
      "type": "function"
    },
    {
      "constant": true,
      "inputs": [
        {
          "name": "user",
          "type": "address"
        },
        {
          "name": "fromIndex",
          "type": "uint256"
        },
        {
          "name": "toIndex",
          "type": "uint256"
        }
      ],
      "name": "getMarketDetailsUser",
      "outputs": [
        {
          "name": "_market",
          "type": "address[]"
        },
        {
          "name": "_winnigOption",
          "type": "uint256[]"
        }
      ],
      "payable": false,
      "stateMutability": "view",
      "type": "function"
    },
    {
      "constant": true,
      "inputs": [],
      "name": "getOpenMarkets",
      "outputs": [
        {
          "name": "_openMarkets",
          "type": "address[]"
        },
        {
          "name": "_marketTypes",
          "type": "uint256[]"
        },
        {
          "name": "_marketCurrencies",
          "type": "bytes32[]"
        }
      ],
      "payable": false,
      "stateMutability": "view",
      "type": "function"
    }
  ],
  "bytecode": "0x608060405234801561001057600080fd5b506154dd806100206000396000f3fe6080604052600436106200027d5760003560e01c80636ec934da1162000157578063c7604fec11620000c7578063dbdfc6121162000085578063dbdfc61214620010c8578063e99a8de01462001111578063eddd9d821462001382578063f9f9526b146200139a578063fb60f12b14620013ea578063fce3797e146200143a576200027d565b8063c7604fec1462000f11578063c819b5f21462000f37578063c8f46afe146200102b578063d02162601462001071578063d365a08e14620010b0576200027d565b80639dd86e0f11620001155780639dd86e0f1462000c3a578063a138ca3d1462000c78578063a99f50dd1462000ca6578063b0412cb01462000d34578063b068f34f1462000d4c576200027d565b80636ec934da1462000a40578063840c7b711462000a77578063912b9b3f1462000abe57806391433e511462000b9357806391b2f38e1462000be1576200027d565b806322ce725411620001f35780634b6199b011620001b15780634b6199b014620007f2578063564b81ef146200080a5780635b2ad63a14620008225780636122f84014620009025780636281133d146200095e576200027d565b806322ce725414620006fb5780632b6a521514620007325780632d0335ab146200074a57806335f628ee146200079357806349f4cc1714620007ab576200027d565b80630c53c51c11620002415780630c53c51c14620004be5780630e43f4ce14620005fe578063119df25f146200064957806313817bfb146200067d578063161a226e14620006e3576200027d565b8062893bc8146200027f5780630357e76f146200037b57806304ad228a14620003b85780630863812f14620003d05780630c32ff5614620003e8575b005b3480156200028c57600080fd5b506200029762001468565b60405180806020018060200180602001848103845287818151815260200191508051906020019060200280838360005b83811015620002e1578181015183820152602001620002c7565b50505050905001848103835286818151815260200191508051906020019060200280838360005b838110156200032257818101518382015260200162000308565b50505050905001848103825285818151815260200191508051906020019060200280838360005b838110156200036357818101518382015260200162000349565b50505050905001965050505050505060405180910390f35b3480156200038857600080fd5b506200027d60048036036040811015620003a157600080fd5b506001600160a01b03813516906020013562001685565b348015620003c557600080fd5b506200027d62001879565b348015620003dd57600080fd5b506200027d620019dc565b348015620003f557600080fd5b506200027d600480360360808110156200040e57600080fd5b6001600160a01b0382358116926020810135821692604082013590921691810190608081016060820135600160201b8111156200044a57600080fd5b8201836020820111156200045d57600080fd5b803590602001918460208302840111600160201b831117156200047f57600080fd5b91908080602002602001604051908101604052809392919081815260200183836020028082843760009201919091525092955062001ad3945050505050565b62000586600480360360a0811015620004d657600080fd5b6001600160a01b038235169190810190604081016020820135600160201b8111156200050157600080fd5b8201836020820111156200051457600080fd5b803590602001918460018302840111600160201b831117156200053657600080fd5b91908080601f016020809104026020016040519081016040528093929190818152602001838380828437600092019190915250929550508235935050506020810135906040013560ff1662001cb3565b6040805160208082528351818301528351919283929083019185019080838360005b83811015620005c2578181015183820152602001620005a8565b50505050905090810190601f168015620005f05780820380516001836020036101000a031916815260200191505b509250505060405180910390f35b3480156200060b57600080fd5b5062000635600480360360208110156200062457600080fd5b50356001600160a01b031662001fd9565b604080519115158252519081900360200190f35b3480156200065657600080fd5b506200066162002062565b604080516001600160a01b039092168252519081900360200190f35b3480156200068a57600080fd5b50620006b160048036036040811015620006a357600080fd5b5080359060200135620020c2565b604080516001600160401b0390941684526001600160a01b039283166020850152911682820152519081900360600190f35b348015620006f057600080fd5b506200066162002105565b3480156200070857600080fd5b5062000635600480360360208110156200072157600080fd5b50356001600160a01b031662002119565b3480156200073f57600080fd5b5062000661620021b4565b3480156200075757600080fd5b5062000781600480360360208110156200077057600080fd5b50356001600160a01b0316620021c3565b60408051918252519081900360200190f35b348015620007a057600080fd5b5062000635620021de565b348015620007b857600080fd5b506200027d60048036036060811015620007d157600080fd5b506001600160a01b03813581169160208101359091169060400135620021e7565b348015620007ff57600080fd5b506200027d620022d0565b3480156200081757600080fd5b506200078162002461565b3480156200082f57600080fd5b5062000865600480360360608110156200084857600080fd5b506001600160a01b03813516906020810135906040013562002466565b604051808060200180602001838103835285818151815260200191508051906020019060200280838360005b83811015620008ab57818101518382015260200162000891565b50505050905001838103825284818151815260200191508051906020019060200280838360005b83811015620008ec578181015183820152602001620008d2565b5050505090500194505050505060405180910390f35b3480156200090f57600080fd5b506200093a600480360360208110156200092857600080fd5b50356001600160c01b03191662002678565b604080516001600160c01b0319909316835260208301919091528051918290030190f35b3480156200096b57600080fd5b5062000635600480360360e08110156200098457600080fd5b6001600160a01b038235169160208101359160408201359190810190608081016060820135600160201b811115620009bb57600080fd5b820183602082011115620009ce57600080fd5b803590602001918460018302840111600160201b83111715620009f057600080fd5b91908080601f016020809104026020016040519081016040528093929190818152602001838380828437600092019190915250929550508235935050506020810135906040013560ff16620026a7565b34801562000a4d57600080fd5b50620006356004803603602081101562000a6657600080fd5b50356001600160a01b03166200283b565b34801562000a8457600080fd5b506200027d6004803603604081101562000a9d57600080fd5b5080356001600160c01b03191690602001356001600160a01b031662002859565b34801562000acb57600080fd5b506200027d6004803603604081101562000ae457600080fd5b810190602081018135600160201b81111562000aff57600080fd5b82018360208201111562000b1257600080fd5b803590602001918460208302840111600160201b8311171562000b3457600080fd5b919390929091602081019035600160201b81111562000b5257600080fd5b82018360208201111562000b6557600080fd5b803590602001918460208302840111600160201b8311171562000b8757600080fd5b509092509050620029af565b34801562000ba057600080fd5b506200027d6004803603606081101562000bb957600080fd5b506001600160401b03813516906001600160a01b036020820135811691604001351662002c6a565b34801562000bee57600080fd5b506200027d600480360360c081101562000c0757600080fd5b506001600160a01b03813581169160208101359160408201359160608101359091169060808101359060a0013562002d5b565b34801562000c4757600080fd5b506200027d6004803603604081101562000c6057600080fd5b506001600160c01b0319813516906020013562002f1f565b34801562000c8557600080fd5b506200027d6004803603602081101562000c9e57600080fd5b503562003085565b34801562000cb357600080fd5b506200027d6004803603608081101562000ccc57600080fd5b810190602081018135600160201b81111562000ce757600080fd5b82018360208201111562000cfa57600080fd5b803590602001918460208302840111600160201b8311171562000d1c57600080fd5b91935091508035906020810135906040013562003299565b34801562000d4157600080fd5b506200027d6200333a565b34801562000d5957600080fd5b5062000d836004803603602081101562000d7257600080fd5b50356001600160a01b03166200342d565b604051808a8152602001806020018060200180602001806020018060200189815260200188815260200187815260200186810386528e818151815260200191508051906020019060200280838360005b8381101562000ded57818101518382015260200162000dd3565b5050505090500186810385528d818151815260200191508051906020019060200280838360005b8381101562000e2e57818101518382015260200162000e14565b5050505090500186810384528c818151815260200191508051906020019060200280838360005b8381101562000e6f57818101518382015260200162000e55565b5050505090500186810383528b818151815260200191508051906020019060200280838360005b8381101562000eb057818101518382015260200162000e96565b5050505090500186810382528a818151815260200191508051906020019060200280838360005b8381101562000ef157818101518382015260200162000ed7565b505050509050019e50505050505050505050505050505060405180910390f35b6200027d6004803603604081101562000f2957600080fd5b508035906020013562003684565b34801562000f4457600080fd5b506200027d600480360360a081101562000f5d57600080fd5b6001600160a01b038235169190810190604081016020820135600160201b81111562000f8857600080fd5b82018360208201111562000f9b57600080fd5b803590602001918460208302840111600160201b8311171562000fbd57600080fd5b919390929091602081019035600160201b81111562000fdb57600080fd5b82018360208201111562000fee57600080fd5b803590602001918460208302840111600160201b831117156200101057600080fd5b9193509150803590602001356001600160a01b031662003ab8565b3480156200103857600080fd5b506200027d600480360360408110156200105157600080fd5b5080356001600160a01b031690602001356001600160401b031662003b9f565b3480156200107e57600080fd5b506200027d600480360360408110156200109757600080fd5b506001600160a01b038135811691602001351662003ce0565b348015620010bd57600080fd5b506200066162003e19565b348015620010d557600080fd5b506200027d60048036036060811015620010ee57600080fd5b506001600160401b03813581169160208101358216916040909101351662003e28565b3480156200111e57600080fd5b506200027d60048036036101208110156200113857600080fd5b810190602081018135600160201b8111156200115357600080fd5b8201836020820111156200116657600080fd5b803590602001918460018302840111600160201b831117156200118857600080fd5b91908080601f0160208091040260200160405190810160405280939291908181526020018383808284376000920191909152509295949360208101935035915050600160201b811115620011db57600080fd5b820183602082011115620011ee57600080fd5b803590602001918460018302840111600160201b831117156200121057600080fd5b91908080601f0160208091040260200160405190810160405280939291908181526020018383808284376000920191909152509295949360208101935035915050600160201b8111156200126357600080fd5b8201836020820111156200127657600080fd5b803590602001918460018302840111600160201b831117156200129857600080fd5b91908080601f0160208091040260200160405190810160405280939291908181526020018383808284376000920191909152509295949360208101935035915050600160201b811115620012eb57600080fd5b820183602082011115620012fe57600080fd5b803590602001918460018302840111600160201b831117156200132057600080fd5b91908080601f0160208091040260200160405190810160405280939291908181526020018383808284376000920191909152509295505082359350506001600160a01b0360208301351691604081013591506060810135906080013562003f79565b3480156200138f57600080fd5b506200066162004427565b348015620013a757600080fd5b50620013d160048036036020811015620013c057600080fd5b50356001600160a01b031662004436565b6040805192835260208301919091528051918290030190f35b348015620013f757600080fd5b506200141e600480360360408110156200141057600080fd5b50803590602001356200445c565b604080516001600160401b039092168252519081900360200190f35b3480156200144757600080fd5b506200027d600480360360208110156200146057600080fd5b5035620045c5565b600a54600954606091829182916000916200148a828263ffffffff6200477916565b604051908082528060200260200182016040528015620014b4578160200160208202803883390190505b509550620014c9828263ffffffff6200477916565b604051908082528060200260200182016040528015620014f3578160200160208202803883390190505b50945062001508828263ffffffff6200477916565b60405190808252806020026020018201604052801562001532578160200160208202803883390190505b50935060005b828110156200167c5760005b82811015620016725760008281526005602090815260408083208484529091529020548851600160401b9091046001600160a01b0316908990879081106200158857fe5b60200260200101906001600160a01b031690816001600160a01b03168152505081878681518110620015b657fe5b60200260200101818152505060098181548110620015d057fe5b6000918252602091829020015460408051600160e01b63ddf8389b02815290516001600160a01b039092169263ddf8389b92600480840193829003018186803b1580156200161d57600080fd5b505afa15801562001632573d6000803e3d6000fd5b505050506040513d60208110156200164957600080fd5b505186518790879081106200165a57fe5b60209081029190910101526001948501940162001544565b5060010162001538565b50505050909192565b60005460408051600160e31b6227050b028152600160f11b6123ab02600482015290516001600160a01b039092169133918391630138285891602480820192602092909190829003018186803b158015620016df57600080fd5b505afa158015620016f4573d6000803e3d6000fd5b505050506040513d60208110156200170b57600080fd5b50516001600160a01b0316146200175b5760408051600160e51b62461bcd02815260206004820152600e602482015260008051602062005492833981519152604482015290519081900360640190fd5b6001600160a01b0380841660009081526003602081905260409091209081015460048201546002830154600190930154600b549294919392600160401b90910482169161010090910416620017b2818986620047e3565b60408051600160e01b6377c24577028152600160048201526024810189905290516001600160a01b038a16916377c2457791889160448082019260009290919082900301818588803b1580156200180857600080fd5b505af11580156200181d573d6000803e3d6000fd5b5050604080516001815290516001600160a01b038d1694507fcea2bc33eef9c2bacf266c2b7b17f8f2db3c22582cb56c00467843e85d98021e9350908190036020019150a26200186f818385620047e3565b5050505050505050565b6000600460006200188962002062565b6001600160a01b03166001600160a01b031681526020019081526020016000206001015411620018b857600080fd5b6000620018f960046000620018cc62002062565b6001600160a01b031681526020810191909152604001600020600101546002549063ffffffff6200477916565b600b5460408051600160e01b6370a08231028152306004820152905192935083926101009092046001600160a01b0316916370a0823191602480820192602092909190829003018186803b1580156200195157600080fd5b505afa15801562001966573d6000803e3d6000fd5b505050506040513d60208110156200197d57600080fd5b5051116200198a57600080fd5b600460006200199862002062565b6001600160a01b0390811682526020820192909252604001600090812060010155600b54620019d99161010090910416620019d262002062565b83620047e3565b50565b60005460408051600160e31b6227050b028152600160f11b6123ab02600482015290516001600160a01b039092169133918391630138285891602480820192602092909190829003018186803b15801562001a3657600080fd5b505afa15801562001a4b573d6000803e3d6000fd5b505050506040513d602081101562001a6257600080fd5b50516001600160a01b03161462001ab25760408051600160e51b62461bcd02815260206004820152600e602482015260008051602062005492833981519152604482015290519081900360640190fd5b600b5460ff161562001ac357600080fd5b50600b805460ff19166001179055565b600e546001600160a01b0316331462001aeb57600080fd5b6802b5e3af16b1880000600255600b80546001600160a01b0380851661010002610100600160a81b031990921691909117909155600e5460408051600160e31b6227050b028152600160f01b61544302600482015290516000939290921691630138285891602480820192602092909190829003018186803b15801562001b7157600080fd5b505afa15801562001b86573d6000803e3d6000fd5b505050506040513d602081101562001b9d57600080fd5b5051600880546001600160a01b0319166001600160a01b038316179055905062001bc784620048e7565b600c80546001600160a01b0319166001600160a01b03928316179081905560408051600160e11b6323168597028152888416602482015260048101918252855160448201528551929093169263462d0b2e9286928a9290918291606401906020868101910280838360005b8381101562001c4c57818101518382015260200162001c32565b505050509050019350505050600060405180830381600087803b15801562001c7357600080fd5b505af115801562001c88573d6000803e3d6000fd5b5050600780546001600160a01b0319166001600160a01b039890981697909717909655505050505050565b6001600160a01b03851660009081526001602052604090205460609062001cea90879062001ce062002461565b88888888620026a7565b62001d2a57604051600160e51b62461bcd028152600401808060200182810382526021815260200180620054716021913960400191505060405180910390fd5b6001600160a01b03861660009081526001602081905260409091205462001d579163ffffffff6200492f16565b60016000886001600160a01b03166001600160a01b031681526020019081526020016000208190555060006060306001600160a01b031687896040516020018083805190602001908083835b6020831062001dc45780518252601f19909201916020918201910162001da3565b51815160209384036101000a60001901801990921691161790526001600160a01b039590951660601b92019182525060408051808303600b190181526014909201908190528151919450928392508401908083835b6020831062001e3a5780518252601f19909201916020918201910162001e19565b6001836020036101000a0380198251168184511680821785525050505050509050019150506000604051808303816000865af19150503d806000811462001e9e576040519150601f19603f3d011682016040523d82523d6000602084013e62001ea3565b606091505b50915091508162001efe5760408051600160e51b62461bcd02815260206004820152601c60248201527f46756e6374696f6e2063616c6c206e6f74207375636365737366756c00000000604482015290519081900360640190fd5b7f5845892132946850460bff5a0083f71031bc5bf9aadcd40f1de79423eac9b10b88338960405180846001600160a01b03166001600160a01b03168152602001836001600160a01b03166001600160a01b0316815260200180602001828103825283818151815260200191508051906020019080838360005b8381101562001f9157818101518382015260200162001f77565b50505050905090810190601f16801562001fbf5780820380516001836020036101000a031916815260200191505b5094505050505060405180910390a1979650505050505050565b600e5460408051600160e01b63532bd9b10281526001600160a01b0384811660048301529151600093929092169163532bd9b191602480820192602092909190829003018186803b1580156200202e57600080fd5b505afa15801562002043573d6000803e3d6000fd5b505050506040513d60208110156200205a57600080fd5b505192915050565b600033301415620020bc5760606000368080601f0160208091040260200160405190810160405280939291908181526020018383808284376000920191909152505050503601516001600160a01b03169150620020bf9050565b50335b90565b6005602090815260009283526040808420909152908252902080546001909101546001600160401b038216916001600160a01b03600160401b9091048116911683565b600b5461010090046001600160a01b031681565b6000805460408051600160e31b6227050b028152600160f11b6123ab02600482015290516001600160a01b03928316928516918391630138285891602480820192602092909190829003018186803b1580156200217557600080fd5b505afa1580156200218a573d6000803e3d6000fd5b505050506040513d6020811015620021a157600080fd5b50516001600160a01b0316149392505050565b600c546001600160a01b031681565b6001600160a01b031660009081526001602052604090205490565b600b5460ff1681565b60005460408051600160e31b6227050b028152600160f11b6123ab02600482015290516001600160a01b039092169133918391630138285891602480820192602092909190829003018186803b1580156200224157600080fd5b505afa15801562002256573d6000803e3d6000fd5b505050506040513d60208110156200226d57600080fd5b50516001600160a01b031614620022bd5760408051600160e51b62461bcd02815260206004820152600e602482015260008051602062005492833981519152604482015290519081900360640190fd5b620022ca848484620047e3565b50505050565b6000309050806001600160a01b031663025313a26040518163ffffffff1660e01b815260040160206040518083038186803b1580156200230f57600080fd5b505afa15801562002324573d6000803e3d6000fd5b505050506040513d60208110156200233b57600080fd5b50516001600160a01b031633146200239d5760408051600160e51b62461bcd02815260206004820152601a60248201527f53656e646572206973206e6f742070726f7879206f776e65722e000000000000604482015290519081900360640190fd5b600e8054336001600160a01b03199182168117928390556000805490921617905560408051600160e31b6227050b028152600160f11b6123ab02600482015290516001600160a01b0390921691630138285891602480820192602092909190829003018186803b1580156200241157600080fd5b505afa15801562002426573d6000803e3d6000fd5b505050506040513d60208110156200243d57600080fd5b5051600d80546001600160a01b0319166001600160a01b0390921691909117905550565b608990565b6001600160a01b03831660009081526004602081905260409091200154606090819080158015906200249757508085105b156200266f5783818110620024ad575060001981015b620024d26001620024c5838963ffffffff6200498d16565b9063ffffffff6200492f16565b604051908082528060200260200182016040528015620024fc578160200160208202803883390190505b509350620025176001620024c5838963ffffffff6200498d16565b60405190808252806020026020018201604052801562002541578160200160208202803883390190505b509250855b8181116200266c576001600160a01b0388166000908152600460208190526040909120018054829081106200257757fe5b9060005260206000200160009054906101000a90046001600160a01b0316858281518110620025a257fe5b60200260200101906001600160a01b031690816001600160a01b031681525050848181518110620025cf57fe5b60200260200101516001600160a01b0316637852d19d6040518163ffffffff1660e01b8152600401604080518083038186803b1580156200260f57600080fd5b505afa15801562002624573d6000803e3d6000fd5b505050506040513d60408110156200263b57600080fd5b505184516001600160401b03909116908590839081106200265857fe5b602090810291909101015260010162002546565b50505b50935093915050565b600080600160d01b654d4352494e43026001600160c01b031984161415620026a257505060025481905b915091565b600080620027518830898960405160200180858152602001846001600160a01b03166001600160a01b031660601b815260140183815260200182805190602001908083835b602083106200270d5780518252601f199092019160209182019101620026ec565b6001836020036101000a03801982511681845116808217855250505050505090500194505050505060405160208183030381529060405280519060200120620049ee565b9050600060018285888860405160008152602001604052604051808581526020018460ff1660ff1681526020018381526020018281526020019450505050506020604051602081039080840390855afa158015620027b3573d6000803e3d6000fd5b5050604051601f1901519150506001600160a01b0381166200281f5760408051600160e51b62461bcd02815260206004820152601160248201527f496e76616c6964207369676e6174757265000000000000000000000000000000604482015290519081900360640190fd5b6001600160a01b038a8116911614915050979650505050505050565b6001600160a01b031660009081526003602052604090205460ff1690565b60005460408051600160e31b6227050b028152600160f11b6123ab02600482015290516001600160a01b039092169133918391630138285891602480820192602092909190829003018186803b158015620028b357600080fd5b505afa158015620028c8573d6000803e3d6000fd5b505050506040513d6020811015620028df57600080fd5b50516001600160a01b0316146200292f5760408051600160e51b62461bcd02815260206004820152600e602482015260008051602062005492833981519152604482015290519081900360640190fd5b600c5460408051600160e11b6356a6621f0281526001600160c01b0319861660048201526001600160a01b0385811660248301529151919092169163ad4cc43e91604480830192600092919082900301818387803b1580156200299157600080fd5b505af1158015620029a6573d6000803e3d6000fd5b50505050505050565b60005460408051600160e31b6227050b028152600160f11b6123ab02600482015290516001600160a01b039092169133918391630138285891602480820192602092909190829003018186803b15801562002a0957600080fd5b505afa15801562002a1e573d6000803e3d6000fd5b505050506040513d602081101562002a3557600080fd5b50516001600160a01b03161462002a855760408051600160e51b62461bcd02815260206004820152600e602482015260008051602062005492833981519152604482015290519081900360640190fd5b83821462002a9257600080fd5b60005b8481101562002c6257600084848381811062002aad57fe5b905060200201356001600160a01b03166001600160a01b031663245691336040518163ffffffff1660e01b815260040160606040518083038186803b15801562002af657600080fd5b505afa15801562002b0b573d6000803e3d6000fd5b505050506040513d606081101562002b2257600080fd5b50604090810151600c548251600160e01b638c8557d90281526001600160a01b038084166004830152935192945060009390911691638c8557d991602480820192602092909190829003018186803b15801562002b7e57600080fd5b505afa15801562002b93573d6000803e3d6000fd5b505050506040513d602081101562002baa57600080fd5b5051604080518082019091529091508087878681811062002bc757fe5b905060200201356001600160a01b03166001600160a01b031681526020018260ff16815250600989898681811062002bfb57fe5b905060200201358154811062002c0d57fe5b6000918252602091829020835191018054939092015160ff16600160a01b02600160a01b60ff02196001600160a01b039092166001600160a01b03199094169390931716919091179055505060010162002a95565b505050505050565b62002c7462002062565b6007546001600160a01b0390811691161462002c8f57600080fd5b600a541562002c9d57600080fd5b62002ca88262004a3f565b62002cb38162004a3f565b62002cc2610e10603262004c14565b62002cd26201518060c862004c14565b62002ce362093a806101f462004c14565b60005b600a54811015620022ca57600081815260056020908152604080832083805290915280822080546001600160401b03881667ffffffffffffffff19918216811790925560018452918320805490921617905562002d4590829062003684565b62002d5281600162003684565b60010162002ce6565b62002d66336200283b565b62002d7057600080fd5b6001600160a01b03831673eeeeeeeeeeeeeeeeeeeeeeeeeeeeeeeeeeeeeeee141562002de6576001600160a01b03861660009081526004602052604090206002015462002dc4908663ffffffff6200492f16565b6001600160a01b03871660009081526004602052604090206002015562002e31565b6001600160a01b03861660009081526004602052604090206003015462002e14908663ffffffff6200492f16565b6001600160a01b0387166000908152600460205260409020600301555b6001600160a01b038616600090815260046020908152604080832033845260050190915290205460ff1662002eba576001600160a01b03861660009081526004602081815260408084209283018054600181810183559186528386200180546001600160a01b0319163390811790915585526005909301909152909120805460ff191690911790555b60408051868152602081018690526001600160a01b03858116828401526060820185905260808201849052915133928916917f21c543dcf81b0b2e8184b8fc4a2df6dc8d1d061a049925780b1bd44e5620dcf6919081900360a00190a3505050505050565b60005460408051600160e31b6227050b028152600160f11b6123ab02600482015290516001600160a01b039092169133918391630138285891602480820192602092909190829003018186803b15801562002f7957600080fd5b505afa15801562002f8e573d6000803e3d6000fd5b505050506040513d602081101562002fa557600080fd5b50516001600160a01b03161462002ff55760408051600160e51b62461bcd02815260206004820152600e602482015260008051602062005492833981519152604482015290519081900360640190fd5b600160d01b654d4352494e43026001600160c01b0319841614156200301f57600282905562003080565b600c5460408051600160e01b639dd86e0f0281526001600160c01b0319861660048201526024810185905290516001600160a01b0390921691639dd86e0f9160448082019260009290919082900301818387803b1580156200299157600080fd5b505050565b60005460408051600160e31b6227050b028152600160f11b6123ab02600482015290516001600160a01b039092169133918391630138285891602480820192602092909190829003018186803b158015620030df57600080fd5b505afa158015620030f4573d6000803e3d6000fd5b505050506040513d60208110156200310b57600080fd5b50516001600160a01b0316146200315b5760408051600160e51b62461bcd02815260206004820152600e602482015260008051602062005492833981519152604482015290519081900360640190fd5b6001600160401b038216600090815260066020526040808220548151600160e01b6377c24577028152600481018490526024810184905291516001600160a01b039091169283926377c24577926044808301939282900301818387803b158015620031c557600080fd5b505af1158015620031da573d6000803e3d6000fd5b5050604080516000815290516001600160a01b03851693507fcea2bc33eef9c2bacf266c2b7b17f8f2db3c22582cb56c00467843e85d98021e92509081900360200190a26001600160a01b0380821660009081526003602052604080822060020154600b548251600160e31b630852cd8d028152600481018390529251919461010090910416926342966c68926024808201939182900301818387803b1580156200328457600080fd5b505af11580156200186f573d6000803e3d6000fd5b620032a4336200283b565b620032ae57600080fd5b336001600160a01b03167f79c0645f10d4ba8b751d7f7627d367134cbeb8c553867635a6f249a928fde261868686868660405180806020018581526020018481526020018381526020018281038252878782818152602001925060200280828437600083820152604051601f909101601f19169092018290039850909650505050505050a25050505050565b60005460408051600160e31b6227050b028152600160f11b6123ab02600482015290516001600160a01b039092169133918391630138285891602480820192602092909190829003018186803b1580156200339457600080fd5b505afa158015620033a9573d6000803e3d6000fd5b505050506040513d6020811015620033c057600080fd5b50516001600160a01b031614620034105760408051600160e51b62461bcd02815260206004820152600e602482015260008051602062005492833981519152604482015290519081900360640190fd5b600b5460ff166200342057600080fd5b50600b805460ff19169055565b600060608060608060606000806000896001600160a01b0316633bc5de306040518163ffffffff1660e01b815260040160006040518083038186803b1580156200347657600080fd5b505afa1580156200348b573d6000803e3d6000fd5b505050506040513d6000823e601f3d908101601f19168201604052610120811015620034b657600080fd5b815160208301805191939283019291600160201b811115620034d757600080fd5b82016020810184811115620034eb57600080fd5b81518560208202830111600160201b821117156200350857600080fd5b50509291906020018051600160201b8111156200352457600080fd5b820160208101848111156200353857600080fd5b81518560208202830111600160201b821117156200355557600080fd5b50509291906020018051600160201b8111156200357157600080fd5b820160208101848111156200358557600080fd5b81518560208202830111600160201b82111715620035a257600080fd5b50509291906020018051600160201b811115620035be57600080fd5b82016020810184811115620035d257600080fd5b81518560208202830111600160201b82111715620035ef57600080fd5b50509291906020018051600160201b8111156200360b57600080fd5b820160208101848111156200361f57600080fd5b81518560208202830111600160201b821117156200363c57600080fd5b50509291906020018051906020019092919080519060200190929190805190602001909291905050509850985098509850985098509850985098509193959799909294969850565b60008281526005602090815260408083208484529091529020600101546001600160a01b031680156200370757806001600160a01b03166385970c666040518163ffffffff1660e01b8152600401600060405180830381600087803b158015620036ed57600080fd5b505af115801562003702573d6000803e3d6000fd5b505050505b6000838152600560209081526040808320858452909152902054600160401b90046001600160a01b0316156200378f5760008381526005602090815260408083208584529091528120546200376c90600160401b90046001600160a01b03166200342d565b985060019750620037809650505050505050565b8110156200378d57600080fd5b505b600080600060098581548110620037a257fe5b9060005260206000200160000160009054906101000a90046001600160a01b03166001600160a01b031663245691336040518163ffffffff1660e01b815260040160606040518083038186803b158015620037fc57600080fd5b505afa15801562003811573d6000803e3d6000fd5b505050506040513d60608110156200382857600080fd5b5080516020820151604092830151600c548451600160e01b63a2e62045028152945193975091955093506001600160a01b03169163a2e6204591600480830192600092919082900301818387803b1580156200388357600080fd5b505af115801562003898573d6000803e3d6000fd5b505050506000620038aa87876200445c565b90506000600a8881548110620038bc57fe5b600091825260208083209190910154600c5460408051600160e61b63029cd0fd0281526001600160a01b0389811660048301529151600160401b9094046001600160401b0316965091169263a7343f4092602480840193829003018186803b1580156200392857600080fd5b505afa1580156200393d573d6000803e3d6000fd5b505050506040513d60208110156200395457600080fd5b505190506200399a6127106200398d6200397f6001600160401b038616600263ffffffff62004ce516565b849063ffffffff6200477916565b9063ffffffff62004ce516565b9150600060098981548110620039ac57fe5b600091825260208220015460ff600160a01b9091048116925062003a1990891662003a0c620039f0826200398d886001600160401b038b1663ffffffff6200498d16565b856001600160401b0316600a0a6001600160401b031662004d54565b9063ffffffff6200477916565b9050600062003a6560ff8a1662003a0c62003a49826200398d896001600160401b038c1663ffffffff6200492f16565b866001600160401b0316600a0a6001600160401b031662004d54565b905062003a778c8c84848a8d62004d6f565b6004600062003a8562002062565b6001600160a01b031681526020810191909152604001600020600190810180549091019055505050505050505050505050565b62003ac3336200283b565b62003acd57600080fd5b866001600160a01b0316336001600160a01b03167f9386dbf2923cd63ff717f04d11e68ab0be3cd1bb9d8992fc9c68c0850de7c55c888888888888604051808060200180602001858152602001846001600160a01b03166001600160a01b031681526020018381038352898982818152602001925060200280828437600083820152601f01601f19169091018481038352878152602090810191508890880280828437600083820152604051601f909101601f19169092018290039a509098505050505050505050a350505050505050565b60005460408051600160e31b6227050b028152600160f11b6123ab02600482015290516001600160a01b039092169133918391630138285891602480820192602092909190829003018186803b15801562003bf957600080fd5b505afa15801562003c0e573d6000803e3d6000fd5b505050506040513d602081101562003c2557600080fd5b50516001600160a01b03161462003c755760408051600160e51b62461bcd02815260206004820152600e602482015260008051602062005492833981519152604482015290519081900360640190fd5b60095462003c838462004a3f565b60005b600a5481101562003cd95760008181526005602090815260408083208584529091529020805467ffffffffffffffff19166001600160401b03861617905562003cd0818362003684565b60010162003c86565b5050505050565b60005460408051600160e31b6227050b028152600160f11b6123ab02600482015290516001600160a01b039092169133918391630138285891602480820192602092909190829003018186803b15801562003d3a57600080fd5b505afa15801562003d4f573d6000803e3d6000fd5b505050506040513d602081101562003d6657600080fd5b50516001600160a01b03161462003db65760408051600160e51b62461bcd02815260206004820152600e602482015260008051602062005492833981519152604482015290519081900360640190fd5b6001600160a01b03821662003dca57600080fd5b60408051600160e11b631b2ce7f30281526001600160a01b03848116600483015291518592831691633659cfe691602480830192600092919082900301818387803b1580156200328457600080fd5b6000546001600160a01b031681565b60005460408051600160e31b6227050b028152600160f11b6123ab02600482015290516001600160a01b039092169133918391630138285891602480820192602092909190829003018186803b15801562003e8257600080fd5b505afa15801562003e97573d6000803e3d6000fd5b505050506040513d602081101562003eae57600080fd5b50516001600160a01b03161462003efe5760408051600160e51b62461bcd02815260206004820152600e602482015260008051602062005492833981519152604482015290519081900360640190fd5b42836001600160401b03161162003f1457600080fd5b600a5462003f23858462004c14565b60005b60095481101562002c625760008281526005602090815260408083208484529091529020805467ffffffffffffffff19166001600160401b03871617905562003f70828262003684565b60010162003f26565b62003f84336200283b565b62003f8e57600080fd5b600d5460408051600160e31b63104c752702815290516000926001600160a01b031691638263a938916004808301926020929190829003018186803b15801562003fd757600080fd5b505afa15801562003fec573d6000803e3d6000fd5b505050506040513d60208110156200400357600080fd5b810190808051906020019092919050505090506040518060a00160405280826001600160401b03168152602001866001600160a01b031681526020018781526020018581526020018481525060036000336001600160a01b03166001600160a01b0316815260200190815260200160002060010160008201518160000160006101000a8154816001600160401b0302191690836001600160401b0316021790555060208201518160000160086101000a8154816001600160a01b0302191690836001600160a01b031602179055506040820151816001015560608201518160020155608082015181600301559050503360066000836001600160401b03166001600160401b0316815260200190815260200160002060006101000a8154816001600160a01b0302191690836001600160a01b03160217905550600d60009054906101000a90046001600160a01b03166001600160a01b03166316fdc34e8b8c8c600a8d8d6040518763ffffffff1660e01b815260040180806020018060200180602001878152602001806020018060200186810386528c818151815260200191508051906020019080838360005b83811015620041cb578181015183820152602001620041b1565b50505050905090810190601f168015620041f95780820380516001836020036101000a031916815260200191505b5086810385528b5181528b516020918201918d019080838360005b838110156200422e57818101518382015260200162004214565b50505050905090810190601f1680156200425c5780820380516001836020036101000a031916815260200191505b5086810384528a5181528a516020918201918c019080838360005b838110156200429157818101518382015260200162004277565b50505050905090810190601f168015620042bf5780820380516001836020036101000a031916815260200191505b5086810383528851815288516020918201918a019080838360005b83811015620042f4578181015183820152602001620042da565b50505050905090810190601f168015620043225780820380516001836020036101000a031916815260200191505b50868103825287518152875160209182019189019080838360005b83811015620043575781810151838201526020016200433d565b50505050905090810190601f168015620043855780820380516001836020036101000a031916815260200191505b509b505050505050505050505050600060405180830381600087803b158015620043ae57600080fd5b505af1158015620043c3573d6000803e3d6000fd5b5050604080516001600160a01b03891681526001600160401b038516602082015280820186905290513393507ff9f735ef60b717f0b38565eb997a6bf6dd85498122de8b18a1e7c593aba53b8f92509081900360600190a250505050505050505050565b6008546001600160a01b031681565b6001600160a01b0316600090815260046020526040902060038101546002909101549091565b6000828152600560209081526040808320848452909152812054600160401b90046001600160a01b03168015620044fd57806001600160a01b031663b945b5276040518163ffffffff1660e01b815260040160806040518083038186803b158015620044c757600080fd5b505afa158015620044dc573d6000803e3d6000fd5b505050506040513d6080811015620044f357600080fd5b5051915062004523565b60008481526005602090815260408083208684529091529020546001600160401b031691505b6000600a85815481106200453357fe5b6000918252602090912001546001600160401b039081169150620045609084168263ffffffff6200492f16565b421115620045bd5760006200458a826200398d426001600160401b03881663ffffffff6200498d16565b9050620045b9620045a2828463ffffffff6200477916565b6001600160401b0386169063ffffffff6200492f16565b9350505b505092915050565b60008060046000620045d662002062565b6001600160a01b03168152602081019190915260400160009081206004908101549250829190816200460762002062565b6001600160a01b0316815260208101919091526040016000205493505b82841080156200463357508481105b156200473c576000600460006200464962002062565b6001600160a01b03166001600160a01b0316815260200190815260200160002060040185815481106200467857fe5b6000918252602090912001546001600160a01b0316631ec0fd506200469c62002062565b6040518263ffffffff1660e01b815260040180826001600160a01b03166001600160a01b03168152602001915050602060405180830381600087803b158015620046e557600080fd5b505af1158015620046fa573d6000803e3d6000fd5b505050506040513d60208110156200471157600080fd5b50511115620047235760010162004730565b8282141562004730578391505b60019093019262004624565b8282141562004749578391505b81600460006200475862002062565b6001600160a01b031681526020810191909152604001600020555050505050565b6000826200478a57506000620047dd565b828202828482816200479857fe5b0414620047da57604051600160e51b62461bcd028152600401808060200182810382526021815260200180620054506021913960400191505060405180910390fd5b90505b92915050565b801562003080576001600160a01b03831673eeeeeeeeeeeeeeeeeeeeeeeeeeeeeeeeeeeeeeee14156200484e576040516001600160a01b0383169082156108fc029083906000818181858888f1935050505015801562004847573d6000803e3d6000fd5b5062003080565b826001600160a01b031663a9059cbb83836040518363ffffffff1660e01b815260040180836001600160a01b03166001600160a01b0316815260200182815260200192505050602060405180830381600087803b158015620048af57600080fd5b505af1158015620048c4573d6000803e3d6000fd5b505050506040513d6020811015620048db57600080fd5b50516200308057600080fd5b60008082604051620048f99062004f55565b6001600160a01b03909116815260405190819003602001906000f08015801562004927573d6000803e3d6000fd5b509392505050565b600082820183811015620047da5760408051600160e51b62461bcd02815260206004820152601b60248201527f536166654d6174683a206164646974696f6e206f766572666c6f770000000000604482015290519081900360640190fd5b600082821115620049e85760408051600160e51b62461bcd02815260206004820152601e60248201527f536166654d6174683a207375627472616374696f6e206f766572666c6f770000604482015290519081900360640190fd5b50900390565b604080517f19457468657265756d205369676e6564204d6573736167653a0a333200000000602080830191909152603c8083019490945282518083039094018452605c909101909152815191012090565b60006009805490509050600080836001600160a01b031663245691336040518163ffffffff1660e01b815260040160606040518083038186803b15801562004a8657600080fd5b505afa15801562004a9b573d6000803e3d6000fd5b505050506040513d606081101562004ab257600080fd5b50602080820151604092830151600c548451600160e01b638c8557d90281526001600160a01b03808416600483015295519397509195506000941692638c8557d992602480840193829003018186803b15801562004b0f57600080fd5b505afa15801562004b24573d6000803e3d6000fd5b505050506040513d602081101562004b3b57600080fd5b50516040805180820182526001600160a01b0380891680835260ff80861660208581019182526009805460018101825560009190915295517f6e1540171b6c0c960b71a7020d9f60077f6af931a8bbf590da0223dacf75c7af90960180549251909316600160a01b02600160a01b60ff02199686166001600160a01b03199093169290921795909516179055835190815290861691810191909152808201869052905191925085917f2b4f53869349b64d9283b604a24c045bc1090a455b336db294022b8f72ca03449181900360600190a25050505050565b600a80546040805180820182526001600160401b03808716808352868216602080850182815260018801895560009890985293517fc65a7bb8d6351c1cf70c95a316cc6a92839c986682d98bc35f958f4883f9d2a88701805498518516600160401b026fffffffffffffffff0000000000000000199290951667ffffffffffffffff199099169890981716929092179095558251948552908401528051919283927f2d43356dee5a2f7341d0dc32f46150d4778b48cce094891980e5719a1961f218929181900390910190a2505050565b600080821162004d3f5760408051600160e51b62461bcd02815260206004820152601a60248201527f536166654d6174683a206469766973696f6e206279207a65726f000000000000604482015290519081900360640190fd5b600082848162004d4b57fe5b04949350505050565b600081826001848601038162004d6657fe5b04029392505050565b600b5460ff161562004d8057600080fd5b62004d8a62004f63565b600a878154811062004d9857fe5b60009182526020808320604080518082019091529201546001600160401b038082168452600160401b90910416908201526009805491935062004dfb918990811062004de057fe5b6000918252602090912001546001600160a01b0316620048e7565b6001600160a01b038116600081815260036020526040808220805460ff1916600117905585518151600160e11b6335ac967b0281526001600160401b03808b1660048301529182166024820152818c166044820152908a16606482015290519394509192636b592cf692608480820193929182900301818387803b15801562004e8357600080fd5b505af115801562004e98573d6000803e3d6000fd5b5050604080518681526001600160401b038816602082015281518c94506001600160a01b03861693507f82762a7cb0b53c41fd44ceab21fd458f9209c98ede6ee9c622136b2a9b550f22929181900390910190a36000978852600560209081526040808a20988a529790529590962080546001600160a01b03968716600160401b90810268010000000000000000600160e01b03198316178355600190920180546001600160a01b03191692909104909616179094555050505050565b6104d58062004f7b83390190565b60408051808201909152600080825260208201529056fe608060405234801561001057600080fd5b506040516020806104d58339810180604052602081101561003057600080fd5b505161004233610057602090811b901c565b6100518161008c60201b60201c565b50610149565b604080517f6f72672e676f76626c6f636b732e70726f78792e6f776e6572000000000000008152905190819003601901902055565b600061009c61010460201b60201c565b9050816001600160a01b0316816001600160a01b031614156100bd57600080fd5b6100cc8261012760201b60201c565b6040516001600160a01b038316907fbc7cd75a20ee27fd9adebab32041f755214dbc6bffa90cc0225b39da2e5c2d3b90600090a25050565b60008060405180806104b360229139604051908190036022019020549392505050565b600060405180806104b360229139604051908190036022019020929092555050565b61035b806101586000396000f3fe60806040526004361061003f5760003560e01c8063025313a2146100835780633659cfe6146100b45780635c60da1b146100e9578063f1739cae146100fe575b6000610049610131565b90506001600160a01b03811661005e57600080fd5b60405136600082376000803683855af43d806000843e81801561007f578184f35b8184fd5b34801561008f57600080fd5b50610098610154565b604080516001600160a01b039092168252519081900360200190f35b3480156100c057600080fd5b506100e7600480360360208110156100d757600080fd5b50356001600160a01b031661018a565b005b3480156100f557600080fd5b50610098610131565b34801561010a57600080fd5b506100e76004803603602081101561012157600080fd5b50356001600160a01b03166101bb565b600080604051808061030e60229139604051908190036022019020549392505050565b604080517f6f72672e676f76626c6f636b732e70726f78792e6f776e657200000000000000815290519081900360190190205490565b610192610154565b6001600160a01b0316336001600160a01b0316146101af57600080fd5b6101b88161024a565b50565b6101c3610154565b6001600160a01b0316336001600160a01b0316146101e057600080fd5b6001600160a01b0381166101f357600080fd5b6101fc816102b6565b7f5a3e66efaa1e445ebd894728a69d6959842ea1e97bd79b892797106e270efcd9610225610154565b604080516001600160a01b03928316815291841660208301528051918290030190a150565b6000610254610131565b9050816001600160a01b0316816001600160a01b0316141561027557600080fd5b61027e826102eb565b6040516001600160a01b038316907fbc7cd75a20ee27fd9adebab32041f755214dbc6bffa90cc0225b39da2e5c2d3b90600090a25050565b604080517f6f72672e676f76626c6f636b732e70726f78792e6f776e6572000000000000008152905190819003601901902055565b6000604051808061030e6022913960405190819003602201902092909255505056fe6f72672e676f76626c6f636b732e70726f78792e696d706c656d656e746174696f6ea165627a7a723058200f44526e9d4e51a63c577631e6bccfb5df47ccf37f0e587a9bfe8cc59e5699ce00296f72672e676f76626c6f636b732e70726f78792e696d706c656d656e746174696f6e536166654d6174683a206d756c7469706c69636174696f6e206f766572666c6f775369676e657220616e64207369676e617475726520646f206e6f74206d617463684e6f7420617574686f72697a6564000000000000000000000000000000000000a165627a7a7230582007d22cd6382438a52b7ea935999d05f816c7ab485eeb614e70f2c1e2eb746e620029",
  "source": "/* Copyright (C) 2020 PlotX.io\r\n\r\n  This program is free software: you can redistribute it and/or modify\r\n    it under the terms of the GNU General Public License as published by\r\n    the Free Software Foundation, either version 3 of the License, or\r\n    (at your option) any later version.\r\n\r\n  This program is distributed in the hope that it will be useful,\r\n    but WITHOUT ANY WARRANTY; without even the implied warranty of\r\n    MERCHANTABILITY or FITNESS FOR A PARTICULAR PURPOSE.  See the\r\n    GNU General Public License for more details.\r\n\r\n  You should have received a copy of the GNU General Public License\r\n    along with this program.  If not, see http://www.gnu.org/licenses/ */\r\n\r\npragma solidity 0.5.7;\r\nimport \"./external/openzeppelin-solidity/math/SafeMath.sol\";\r\nimport \"./external/govblocks-protocol/interfaces/IGovernance.sol\";\r\nimport \"./external/govblocks-protocol/Governed.sol\";\r\nimport \"./external/proxy/OwnedUpgradeabilityProxy.sol\";\r\nimport \"./interfaces/IToken.sol\";\r\nimport \"./interfaces/IMarket.sol\";\r\nimport \"./interfaces/Iupgradable.sol\";\r\nimport \"./interfaces/IMarketUtility.sol\";\r\nimport \"./external/BasicMetaTransaction.sol\";\r\n\r\ncontract MarketRegistry is Governed, Iupgradable, BasicMetaTransaction {\r\n\r\n    using SafeMath for *; \r\n\r\n    enum MarketType {\r\n      HourlyMarket,\r\n      DailyMarket,\r\n      WeeklyMarket\r\n    }\r\n\r\n    struct MarketTypeData {\r\n      uint64 predictionTime;\r\n      uint64 optionRangePerc;\r\n    }\r\n\r\n    struct MarketCurrency {\r\n      address marketImplementation;\r\n      uint8 decimals;\r\n    }\r\n\r\n    struct MarketCreationData {\r\n      uint64 initialStartTime;\r\n      address marketAddress;\r\n      address penultimateMarket;\r\n    }\r\n\r\n    struct DisputeStake {\r\n      uint64 proposalId;\r\n      address staker;\r\n      uint256 stakeAmount;\r\n      uint256 ethDeposited;\r\n      uint256 tokenDeposited;\r\n    }\r\n\r\n    struct MarketData {\r\n      bool isMarket;\r\n      DisputeStake disputeStakes;\r\n    }\r\n\r\n    struct UserData {\r\n      uint256 lastClaimedIndex;\r\n      uint256 marketsCreated;\r\n      uint256 totalEthStaked;\r\n      uint256 totalPlotStaked;\r\n      address[] marketsParticipated;\r\n      mapping(address => bool) marketsParticipatedFlag;\r\n    }\r\n\r\n    uint internal marketCreationIncentive;\r\n    \r\n    mapping(address => MarketData) marketData;\r\n    mapping(address => UserData) userData;\r\n    mapping(uint256 => mapping(uint256 => MarketCreationData)) public marketCreationData;\r\n    mapping(uint64 => address) disputeProposalId;\r\n\r\n    address constant ETH_ADDRESS = 0xEeeeeEeeeEeEeeEeEeEeeEEEeeeeEeeeeeeeEEeE;\r\n    address internal marketInitiater;\r\n    address public tokenController;\r\n\r\n    MarketCurrency[] marketCurrencies;\r\n    MarketTypeData[] marketTypes;\r\n\r\n    bool public marketCreationPaused;\r\n\r\n    IToken public plotToken;\r\n    IMarketUtility public marketUtility;\r\n    IGovernance internal governance;\r\n    IMaster ms;\r\n\r\n\r\n    event MarketQuestion(address indexed marketAdd, bytes32 stockName, uint256 indexed predictionType, uint256 startTime);\r\n    event PlacePrediction(address indexed user,uint256 value, uint256 predictionPoints, address predictionAsset,uint256 prediction,address indexed marketAdd,uint256 _leverage);\r\n    event MarketResult(address indexed marketAdd, uint256[] totalReward, uint256 winningOption, uint256 closeValue, uint256 roundId);\r\n    event Claimed(address indexed marketAdd, address indexed user, uint256[] reward, address[] _predictionAssets, uint256 incentive, address incentiveToken);\r\n    event MarketTypes(uint256 indexed index, uint64 predictionTime, uint64 optionRangePerc);\r\n    event MarketCurrencies(uint256 indexed index, address marketImplementation,  address feedAddress, bytes32 currencyName);\r\n    event DisputeRaised(address indexed marketAdd, address raisedBy, uint64 proposalId, uint256 proposedValue);\r\n    event DisputeResolved(address indexed marketAdd, bool status);\r\n\r\n    /**\r\n    * @dev Checks if given addres is valid market address.\r\n    */\r\n    function isMarket(address _address) public view returns(bool) {\r\n      return marketData[_address].isMarket;\r\n    }\r\n\r\n    function isWhitelistedSponsor(address _address) public view returns(bool) {\r\n      return ms.whitelistedSponsor(_address);\r\n    }\r\n\r\n    /**\r\n    * @dev Initialize the PlotX MarketRegistry.\r\n    * @param _defaultAddress Address authorized to start initial markets\r\n    * @param _marketUtility The address of market config.\r\n    * @param _plotToken The instance of PlotX token.\r\n    */\r\n    function initiate(address _defaultAddress, address _marketUtility, address _plotToken, address payable[] memory _configParams) public {\r\n      require(address(ms) == msg.sender);\r\n      marketCreationIncentive = 50 ether;\r\n      plotToken = IToken(_plotToken);\r\n      address tcAddress = ms.getLatestAddress(\"TC\");\r\n      tokenController = tcAddress;\r\n      marketUtility = IMarketUtility(_generateProxy(_marketUtility));\r\n      marketUtility.initialize(_configParams, _defaultAddress);\r\n      marketInitiater = _defaultAddress;\r\n    }\r\n\r\n    /**\r\n    * @dev Start the initial market.\r\n    */\r\n    function addInitialMarketTypesAndStart(uint64 _marketStartTime, address _ethMarketImplementation, address _btcMarketImplementation) external {\r\n      require(marketInitiater == _msgSender());\r\n      require(marketTypes.length == 0);\r\n      _addNewMarketCurrency(_ethMarketImplementation);\r\n      _addNewMarketCurrency(_btcMarketImplementation);\r\n      _addMarket(1 hours, 50);\r\n      _addMarket(24 hours, 200);\r\n      _addMarket(7 days, 500);\r\n\r\n      for(uint256 i = 0;i < marketTypes.length; i++) {\r\n          marketCreationData[i][0].initialStartTime = _marketStartTime;\r\n          marketCreationData[i][1].initialStartTime = _marketStartTime;\r\n          createMarket(i, 0);\r\n          createMarket(i, 1);\r\n      }\r\n    }\r\n\r\n    /**\r\n    * @dev Add new market type.\r\n    * @param _predictionTime The time duration of market.\r\n    * @param _marketStartTime The time at which market will create.\r\n    * @param _optionRangePerc Option range percent of neutral min, max options (raised by 2 decimals)\r\n    */\r\n    function addNewMarketType(uint64 _predictionTime, uint64 _marketStartTime, uint64 _optionRangePerc) external onlyAuthorizedToGovern {\r\n      require(_marketStartTime > now);\r\n      uint256 _marketType = marketTypes.length;\r\n      _addMarket(_predictionTime, _optionRangePerc);\r\n      for(uint256 j = 0;j < marketCurrencies.length; j++) {\r\n        marketCreationData[_marketType][j].initialStartTime = _marketStartTime;\r\n        createMarket(_marketType, j);\r\n      }\r\n    }\r\n\r\n    /**\r\n    * @dev Internal function to add market type\r\n    * @param _predictionTime The time duration of market.\r\n    * @param _optionRangePerc Option range percent of neutral min, max options (raised by 2 decimals)\r\n    */\r\n    function _addMarket(uint64 _predictionTime, uint64 _optionRangePerc) internal {\r\n      uint256 _marketType = marketTypes.length;\r\n      marketTypes.push(MarketTypeData(_predictionTime, _optionRangePerc));\r\n      emit MarketTypes(_marketType, _predictionTime, _optionRangePerc);\r\n    }\r\n\r\n    /**\r\n    * @dev Add new market currency.\r\n    */\r\n    function addNewMarketCurrency(address _marketImplementation, uint64 _marketStartTime) external onlyAuthorizedToGovern {\r\n      uint256 _marketCurrencyIndex = marketCurrencies.length;\r\n      _addNewMarketCurrency(_marketImplementation);\r\n      for(uint256 j = 0;j < marketTypes.length; j++) {\r\n        marketCreationData[j][_marketCurrencyIndex].initialStartTime = _marketStartTime;\r\n        createMarket(j, _marketCurrencyIndex);\r\n      }\r\n    }\r\n\r\n    function _addNewMarketCurrency(address _marketImplementation) internal {\r\n      uint256 _marketCurrencyIndex = marketCurrencies.length;\r\n      (, bytes32 _currencyName, address _priceFeed) = IMarket(_marketImplementation).getMarketFeedData();\r\n      uint8 _decimals = marketUtility.getPriceFeedDecimals(_priceFeed);\r\n      marketCurrencies.push(MarketCurrency(_marketImplementation, _decimals));\r\n      emit MarketCurrencies(_marketCurrencyIndex, _marketImplementation, _priceFeed, _currencyName);\r\n    }\r\n\r\n    /**\r\n    * @dev Update the implementations of the market.\r\n    */\r\n    function updateMarketImplementations(uint256[] calldata _currencyIndexes, address[] calldata _marketImplementations) external onlyAuthorizedToGovern {\r\n      require(_currencyIndexes.length == _marketImplementations.length);\r\n      for(uint256 i = 0;i< _currencyIndexes.length; i++) {\r\n        (, , address _priceFeed) = IMarket(_marketImplementations[i]).getMarketFeedData();\r\n        uint8 _decimals = marketUtility.getPriceFeedDecimals(_priceFeed);\r\n        marketCurrencies[_currencyIndexes[i]] = MarketCurrency(_marketImplementations[i], _decimals);\r\n      }\r\n    }\r\n\r\n    /**\r\n    * @dev Upgrade the implementations of the contract.\r\n    * @param _proxyAddress the proxy address.\r\n    * @param _newImplementation Address of new implementation contract\r\n    */\r\n    function upgradeContractImplementation(address payable _proxyAddress, address _newImplementation) \r\n        external onlyAuthorizedToGovern\r\n    {\r\n      require(_newImplementation != address(0));\r\n      OwnedUpgradeabilityProxy tempInstance \r\n          = OwnedUpgradeabilityProxy(_proxyAddress);\r\n      tempInstance.upgradeTo(_newImplementation);\r\n    }\r\n\r\n    /**\r\n     * @dev Changes the master address and update it's instance\r\n     */\r\n    function setMasterAddress() public {\r\n      OwnedUpgradeabilityProxy proxy =  OwnedUpgradeabilityProxy(address(uint160(address(this))));\r\n      require(msg.sender == proxy.proxyOwner(),\"Sender is not proxy owner.\");\r\n      ms = IMaster(msg.sender);\r\n      masterAddress = msg.sender;\r\n      governance = IGovernance(ms.getLatestAddress(\"GV\"));\r\n    }\r\n\r\n    /**\r\n    * @dev Creates the new market.\r\n    * @param _marketType The type of the market.\r\n    * @param _marketCurrencyIndex the index of market currency.\r\n    */\r\n    function _createMarket(uint256 _marketType, uint256 _marketCurrencyIndex, uint64 _minValue, uint64 _maxValue, uint64 _marketStartTime, bytes32 _currencyName) internal {\r\n      require(!marketCreationPaused);\r\n      MarketTypeData memory _marketTypeData = marketTypes[_marketType];\r\n      address payable _market = _generateProxy(marketCurrencies[_marketCurrencyIndex].marketImplementation);\r\n      marketData[_market].isMarket = true;\r\n      IMarket(_market).initiate(_marketStartTime, _marketTypeData.predictionTime, _minValue, _maxValue);\r\n      emit MarketQuestion(_market, _currencyName, _marketType, _marketStartTime);\r\n      (marketCreationData[_marketType][_marketCurrencyIndex].penultimateMarket, marketCreationData[_marketType][_marketCurrencyIndex].marketAddress) =\r\n       (marketCreationData[_marketType][_marketCurrencyIndex].marketAddress, _market);\r\n    }\r\n\r\n    /**\r\n    * @dev Creates the new market\r\n    * @param _marketType The type of the market.\r\n    * @param _marketCurrencyIndex the index of market currency.\r\n    */\r\n    function createMarket(uint256 _marketType, uint256 _marketCurrencyIndex) public payable{\r\n      address penultimateMarket = marketCreationData[_marketType][_marketCurrencyIndex].penultimateMarket;\r\n      if(penultimateMarket != address(0)) {\r\n        IMarket(penultimateMarket).settleMarket();\r\n      }\r\n      if(marketCreationData[_marketType][_marketCurrencyIndex].marketAddress != address(0)) {\r\n        (,,,,,,,, uint _status) = getMarketDetails(marketCreationData[_marketType][_marketCurrencyIndex].marketAddress);\r\n        require(_status >= uint(IMarket.PredictionStatus.InSettlement));\r\n      }\r\n      (uint8 _roundOfToNearest, bytes32 _currencyName, address _priceFeed) = IMarket(marketCurrencies[_marketCurrencyIndex].marketImplementation).getMarketFeedData();\r\n      marketUtility.update();\r\n      uint64 _marketStartTime = calculateStartTimeForMarket(_marketType, _marketCurrencyIndex);\r\n      uint64 _optionRangePerc = marketTypes[_marketType].optionRangePerc;\r\n      uint currentPrice = marketUtility.getAssetPriceUSD(_priceFeed);\r\n      _optionRangePerc = uint64(currentPrice.mul(_optionRangePerc.div(2)).div(10000));\r\n      uint64 _decimals = marketCurrencies[_marketCurrencyIndex].decimals;\r\n      uint64 _minValue = uint64((ceil(currentPrice.sub(_optionRangePerc).div(_roundOfToNearest), 10**_decimals)).mul(_roundOfToNearest));\r\n      uint64 _maxValue = uint64((ceil(currentPrice.add(_optionRangePerc).div(_roundOfToNearest), 10**_decimals)).mul(_roundOfToNearest));\r\n      _createMarket(_marketType, _marketCurrencyIndex, _minValue, _maxValue, _marketStartTime, _currencyName);\r\n      userData[_msgSender()].marketsCreated++;\r\n    }\r\n\r\n    /**\r\n    * @dev function to reward user for initiating market creation calls\r\n    */\r\n    function claimCreationReward() external {\r\n      require(userData[_msgSender()].marketsCreated > 0);\r\n      uint256 pendingReward = marketCreationIncentive.mul(userData[_msgSender()].marketsCreated);\r\n      require(plotToken.balanceOf(address(this)) > pendingReward);\r\n      delete userData[_msgSender()].marketsCreated;\r\n      _transferAsset(address(plotToken), _msgSender(), pendingReward);\r\n    }\r\n\r\n    function calculateStartTimeForMarket(uint256 _marketType, uint256 _marketCurrencyIndex) public view returns(uint64 _marketStartTime) {\r\n      address previousMarket = marketCreationData[_marketType][_marketCurrencyIndex].marketAddress;\r\n      if(previousMarket != address(0)) {\r\n        (_marketStartTime, , , ) = IMarket(previousMarket).marketData();\r\n      } else {\r\n        _marketStartTime = marketCreationData[_marketType][_marketCurrencyIndex].initialStartTime;\r\n      }\r\n      uint predictionTime = marketTypes[_marketType].predictionTime;\r\n      if(now > _marketStartTime.add(predictionTime)) {\r\n        uint noOfMarketsSkipped = ((now).sub(_marketStartTime)).div(predictionTime);\r\n       _marketStartTime = uint64(_marketStartTime.add(noOfMarketsSkipped.mul(predictionTime)));\r\n      }\r\n    }\r\n\r\n    /**\r\n    * @dev Updates Flag to pause creation of market.\r\n    */\r\n    function pauseMarketCreation() external onlyAuthorizedToGovern {\r\n      require(!marketCreationPaused);\r\n        marketCreationPaused = true;\r\n    }\r\n\r\n    /**\r\n    * @dev Updates Flag to resume creation of market.\r\n    */\r\n    function resumeMarketCreation() external onlyAuthorizedToGovern {\r\n      require(marketCreationPaused);\r\n        marketCreationPaused = false;\r\n    }\r\n\r\n    /**\r\n    * @dev Create proposal if user wants to raise the dispute.\r\n    * @param proposalTitle The title of proposal created by user.\r\n    * @param description The description of dispute.\r\n    * @param solutionHash The ipfs solution hash.\r\n    * @param action The encoded action for solution.\r\n    * @param _stakeForDispute The token staked to raise the diospute.\r\n    * @param _user The address who raises the dispute.\r\n    */\r\n    function createGovernanceProposal(string memory proposalTitle, string memory description, string memory solutionHash, bytes memory action, uint256 _stakeForDispute, address _user, uint256 _ethSentToPool, uint256 _tokenSentToPool, uint256 _proposedValue) public {\r\n      require(isMarket(msg.sender));\r\n      uint64 proposalId = uint64(governance.getProposalLength());\r\n      marketData[msg.sender].disputeStakes = DisputeStake(proposalId, _user, _stakeForDispute, _ethSentToPool, _tokenSentToPool);\r\n      disputeProposalId[proposalId] = msg.sender;\r\n      governance.createProposalwithSolution(proposalTitle, proposalTitle, description, 10, solutionHash, action);\r\n      emit DisputeRaised(msg.sender, _user, proposalId, _proposedValue);\r\n    }\r\n\r\n    /**\r\n    * @dev Resolve the dispute if wrong value passed at the time of market result declaration.\r\n    * @param _marketAddress The address specify the market.\r\n    * @param _result The final result of the market.\r\n    */\r\n    function resolveDispute(address payable _marketAddress, uint256 _result) external onlyAuthorizedToGovern {\r\n      uint256 ethDepositedInPool = marketData[_marketAddress].disputeStakes.ethDeposited;\r\n      uint256 plotDepositedInPool = marketData[_marketAddress].disputeStakes.tokenDeposited;\r\n      uint256 stakedAmount = marketData[_marketAddress].disputeStakes.stakeAmount;\r\n      address payable staker = address(uint160(marketData[_marketAddress].disputeStakes.staker));\r\n      address plotTokenAddress = address(plotToken);\r\n      _transferAsset(plotTokenAddress, _marketAddress, plotDepositedInPool);\r\n      IMarket(_marketAddress).resolveDispute.value(ethDepositedInPool)(true, _result);\r\n      emit DisputeResolved(_marketAddress, true);\r\n      _transferAsset(plotTokenAddress, staker, stakedAmount);\r\n    }\r\n\r\n    /**\r\n    * @dev Burns the tokens of member who raised the dispute, if dispute is rejected.\r\n    * @param _proposalId Id of dispute resolution proposal\r\n    */\r\n    function burnDisputedProposalTokens(uint _proposalId) external onlyAuthorizedToGovern {\r\n      address disputedMarket = disputeProposalId[uint64(_proposalId)];\r\n      IMarket(disputedMarket).resolveDispute(false, 0);\r\n      emit DisputeResolved(disputedMarket, false);\r\n      uint _stakedAmount = marketData[disputedMarket].disputeStakes.stakeAmount;\r\n      plotToken.burn(_stakedAmount);\r\n    }\r\n\r\n    /**\r\n    * @dev Claim the pending return of the market.\r\n    * @param maxRecords Maximum number of records to claim reward for\r\n    */\r\n    function claimPendingReturn(uint256 maxRecords) external {\r\n      uint256 i;\r\n      uint len = userData[_msgSender()].marketsParticipated.length;\r\n      uint lastClaimed = len;\r\n      uint count;\r\n      for(i = userData[_msgSender()].lastClaimedIndex; i < len && count < maxRecords; i++) {\r\n        if(IMarket(userData[_msgSender()].marketsParticipated[i]).claimReturn(_msgSender()) > 0) {\r\n          count++;\r\n        } else {\r\n          if(lastClaimed == len) {\r\n            lastClaimed = i;\r\n          }\r\n        }\r\n      }\r\n      if(lastClaimed == len) {\r\n        lastClaimed = i;\r\n      }\r\n      userData[_msgSender()].lastClaimedIndex = lastClaimed;\r\n    }\r\n\r\n    function () external payable {\r\n    }\r\n\r\n\r\n    /**\r\n    * @dev Transfer `_amount` number of market registry assets contract to `_to` address\r\n    */\r\n    function transferAssets(address _asset, address payable _to, uint _amount) external onlyAuthorizedToGovern {\r\n      _transferAsset(_asset, _to, _amount);\r\n    }\r\n\r\n    /**\r\n    * @dev Transfer the assets to specified address.\r\n    * @param _asset The asset transfer to the specific address.\r\n    * @param _recipient The address to transfer the asset of\r\n    * @param _amount The amount which is transfer.\r\n    */\r\n    function _transferAsset(address _asset, address payable _recipient, uint256 _amount) internal {\r\n      if(_amount > 0) { \r\n        if(_asset == ETH_ADDRESS) {\r\n          _recipient.transfer(_amount);\r\n        } else {\r\n          require(IToken(_asset).transfer(_recipient, _amount));\r\n        }\r\n      }\r\n    }\r\n\r\n    function updateUintParameters(bytes8 code, uint256 value) external onlyAuthorizedToGovern {\r\n      if(code == \"MCRINC\") { // Incentive to be distributed to user for market creation\r\n        marketCreationIncentive = value;\r\n      } else {\r\n        marketUtility.updateUintParameters(code, value);\r\n      }\r\n    }\r\n\r\n    function updateConfigAddressParameters(bytes8 code, address payable value) external onlyAuthorizedToGovern {\r\n      marketUtility.updateAddressParameters(code, value);\r\n    }\r\n\r\n    /**\r\n     * @dev to generater proxy \r\n     * @param _contractAddress of the proxy\r\n     */\r\n    function _generateProxy(address _contractAddress) internal returns(address payable) {\r\n        OwnedUpgradeabilityProxy tempInstance = new OwnedUpgradeabilityProxy(_contractAddress);\r\n        return address(tempInstance);\r\n    }\r\n\r\n    /**\r\n    * @dev Emits the MarketResult event.\r\n    * @param _totalReward The amount of reward to be distribute.\r\n    * @param winningOption The winning option of the market.\r\n    * @param closeValue The closing value of the market currency.\r\n    */\r\n    function callMarketResultEvent(uint256[] calldata _totalReward, uint256 winningOption, uint256 closeValue, uint _roundId) external {\r\n      require(isMarket(msg.sender));\r\n      emit MarketResult(msg.sender, _totalReward, winningOption, closeValue, _roundId);\r\n    }\r\n    \r\n    /**\r\n    * @dev Emits the PlacePrediction event and sets the user data.\r\n    * @param _user The address who placed prediction.\r\n    * @param _value The amount of ether user staked.\r\n    * @param _predictionPoints The positions user will get.\r\n    * @param _predictionAsset The prediction assets user will get.\r\n    * @param _prediction The option range on which user placed prediction.\r\n    * @param _leverage The leverage selected by user at the time of place prediction.\r\n    */\r\n    function setUserGlobalPredictionData(address _user,uint256 _value, uint256 _predictionPoints, address _predictionAsset, uint256 _prediction, uint256 _leverage) external {\r\n      require(isMarket(msg.sender));\r\n      if(_predictionAsset == ETH_ADDRESS) {\r\n        userData[_user].totalEthStaked = userData[_user].totalEthStaked.add(_value);\r\n      } else {\r\n        userData[_user].totalPlotStaked = userData[_user].totalPlotStaked.add(_value);\r\n      }\r\n      if(!userData[_user].marketsParticipatedFlag[msg.sender]) {\r\n        userData[_user].marketsParticipated.push(msg.sender);\r\n        userData[_user].marketsParticipatedFlag[msg.sender] = true;\r\n      }\r\n      emit PlacePrediction(_user, _value, _predictionPoints, _predictionAsset, _prediction, msg.sender,_leverage);\r\n    }\r\n\r\n    /**\r\n    * @dev Emits the claimed event.\r\n    * @param _user The address who claim their reward.\r\n    * @param _reward The reward which is claimed by user.\r\n    * @param predictionAssets The prediction assets of user.\r\n    * @param incentives The incentives of user.\r\n    * @param incentiveToken The incentive tokens of user.\r\n    */\r\n    function callClaimedEvent(address _user ,uint[] calldata _reward, address[] calldata predictionAssets, uint incentives, address incentiveToken) external {\r\n      require(isMarket(msg.sender));\r\n      emit Claimed(msg.sender, _user, _reward, predictionAssets, incentives, incentiveToken);\r\n    }\r\n\r\n    /**\r\n    * @dev Get uint config parameters\r\n    */\r\n    function getUintParameters(bytes8 code) external view returns(bytes8 codeVal, uint256 value) {\r\n      if(code == \"MCRINC\") {\r\n        codeVal = code;\r\n        value = marketCreationIncentive;\r\n      }\r\n    }\r\n\r\n    /**\r\n    * @dev Gets the market details of the specified address.\r\n    * @param _marketAdd The market address to query the details of market.\r\n    * @return _feedsource bytes32 representing the currency or stock name of the market.\r\n    * @return minvalue uint[] memory representing the minimum range of all the options of the market.\r\n    * @return maxvalue uint[] memory representing the maximum range of all the options of the market.\r\n    * @return optionprice uint[] memory representing the option price of each option ranges of the market.\r\n    * @return _ethStaked uint[] memory representing the ether staked on each option ranges of the market.\r\n    * @return _plotStaked uint[] memory representing the plot staked on each option ranges of the market.\r\n    * @return _predictionType uint representing the type of market.\r\n    * @return _expireTime uint representing the expire time of the market.\r\n    * @return _predictionStatus uint representing the status of the market.\r\n    */\r\n    function getMarketDetails(address _marketAdd)public view returns\r\n    (bytes32 _feedsource,uint256[] memory minvalue,uint256[] memory maxvalue,\r\n      uint256[] memory optionprice,uint256[] memory _ethStaked, uint256[] memory _plotStaked,uint256 _predictionType,uint256 _expireTime, uint256 _predictionStatus){\r\n      return IMarket(_marketAdd).getData();\r\n    }\r\n\r\n    /**\r\n    * @dev Get total assets staked by user in PlotX platform\r\n    * @return _plotStaked Total PLOT staked by user\r\n    * @return _ethStaked Total ETH staked by user\r\n    */\r\n    function getTotalAssetStakedByUser(address _user) external view returns(uint256 _plotStaked, uint256 _ethStaked) {\r\n      return (userData[_user].totalPlotStaked, userData[_user].totalEthStaked);\r\n    }\r\n\r\n    /**\r\n    * @dev Gets the market details of the specified user address.\r\n    * @param user The address to query the details of market.\r\n    * @param fromIndex The index to query the details from.\r\n    * @param toIndex The index to query the details to\r\n    * @return _market address[] memory representing the address of the market.\r\n    * @return _winnigOption uint256[] memory representing the winning option range of the market.\r\n    */\r\n    function getMarketDetailsUser(address user, uint256 fromIndex, uint256 toIndex) external view returns\r\n    (address[] memory _market, uint256[] memory _winnigOption){\r\n      uint256 totalMarketParticipated = userData[user].marketsParticipated.length;\r\n      if(totalMarketParticipated > 0 && fromIndex < totalMarketParticipated) {\r\n        uint256 _toIndex = toIndex;\r\n        if(_toIndex >= totalMarketParticipated) {\r\n          _toIndex = totalMarketParticipated - 1;\r\n        }\r\n        _market = new address[](_toIndex.sub(fromIndex).add(1));\r\n        _winnigOption = new uint256[](_toIndex.sub(fromIndex).add(1));\r\n        for(uint256 i = fromIndex; i <= _toIndex; i++) {\r\n          _market[i] = userData[user].marketsParticipated[i];\r\n          (_winnigOption[i], ) = IMarket(_market[i]).marketSettleData();\r\n        }\r\n      }\r\n    }\r\n\r\n    /**\r\n    * @dev Gets the addresses of open markets.\r\n    * @return _openMarkets address[] memory representing the open market addresses.\r\n    * @return _marketTypes uint256[] memory representing the open market types.\r\n    */\r\n    function getOpenMarkets() external view returns(address[] memory _openMarkets, uint256[] memory _marketTypes, bytes32[] memory _marketCurrencies) {\r\n      uint256  count = 0;\r\n      uint256 marketTypeLength = marketTypes.length;\r\n      uint256 marketCurrencyLength = marketCurrencies.length;\r\n      _openMarkets = new address[]((marketTypeLength).mul(marketCurrencyLength));\r\n      _marketTypes = new uint256[]((marketTypeLength).mul(marketCurrencyLength));\r\n      _marketCurrencies = new bytes32[]((marketTypeLength).mul(marketCurrencyLength));\r\n      for(uint256 i = 0; i< marketTypeLength; i++) {\r\n        for(uint256 j = 0; j< marketCurrencyLength; j++) {\r\n          _openMarkets[count] = marketCreationData[i][j].marketAddress;\r\n          _marketTypes[count] = i;\r\n          _marketCurrencies[count] = IMarket(marketCurrencies[j].marketImplementation).marketCurrency();\r\n          count++;\r\n        }\r\n      }\r\n    }\r\n\r\n    function ceil(uint256 a, uint256 m) internal pure returns (uint256) {\r\n        return ((a + m - 1) / m) * m;\r\n    }\r\n\r\n    // /**\r\n    // * @dev Calculates the user pending return amount.\r\n    // * @param _user The address to query the pending return amount of.\r\n    // * @return pendingReturn uint256 representing the pending return amount of user.\r\n    // * @return incentive uint256 representing the incentive.\r\n    // */\r\n    // function calculateUserPendingReturn(address _user) external view returns(uint[] memory returnAmount, address[] memory _predictionAssets, uint[] memory incentive, address[] memory _incentiveTokens) {\r\n    //   uint256 _return;\r\n    //   uint256 _incentive;\r\n    //   for(uint256 i = lastClaimedIndex[_user]; i < marketsParticipated[_user].length; i++) {\r\n    //     // pendingReturn = pendingReturn.add(marketsParticipated[_user][i].call(abi.encodeWithSignature(\"getPendingReturn(uint256)\", _user)));\r\n    //     (_return, _incentive) = IMarket(marketsParticipated[_user][i]).getPendingReturn(_user);\r\n    //     pendingReturn = pendingReturn.add(_return);\r\n    //     incentive = incentive.add(_incentive);\r\n    //   }\r\n    // }\r\n\r\n}\r\n",
  "sourcePath": "/home/madan/Documents/PlotX/PlotxContract/contracts/MarketRegistry.sol",
  "compiler": {
    "name": "solc",
    "version": "0.5.7+commit.6da8b019.Emscripten.clang"
  },
  "schemaVersion": "3.3.2",
  "updatedAt": "2020-12-10T08:30:24.897Z",
  "devdoc": {
    "methods": {
      "addInitialMarketTypesAndStart(uint64,address,address)": {
        "details": "Start the initial market.\r"
      },
      "addNewMarketCurrency(address,uint64)": {
        "details": "Add new market currency.\r"
      },
      "addNewMarketType(uint64,uint64,uint64)": {
        "details": "Add new market type.\r",
        "params": {
          "_marketStartTime": "The time at which market will create.\r",
          "_optionRangePerc": "Option range percent of neutral min, max options (raised by 2 decimals)\r",
          "_predictionTime": "The time duration of market.\r"
        }
      },
      "burnDisputedProposalTokens(uint256)": {
        "details": "Burns the tokens of member who raised the dispute, if dispute is rejected.\r",
        "params": {
          "_proposalId": "Id of dispute resolution proposal\r"
        }
      },
      "callClaimedEvent(address,uint256[],address[],uint256,address)": {
        "details": "Emits the claimed event.\r",
        "params": {
          "_reward": "The reward which is claimed by user.\r",
          "_user": "The address who claim their reward.\r",
          "incentiveToken": "The incentive tokens of user.\r",
          "incentives": "The incentives of user.\r",
          "predictionAssets": "The prediction assets of user.\r"
        }
      },
      "callMarketResultEvent(uint256[],uint256,uint256,uint256)": {
        "details": "Emits the MarketResult event.\r",
        "params": {
          "_totalReward": "The amount of reward to be distribute.\r",
          "closeValue": "The closing value of the market currency.\r",
          "winningOption": "The winning option of the market.\r"
        }
      },
      "claimCreationReward()": {
        "details": "function to reward user for initiating market creation calls\r"
      },
      "claimPendingReturn(uint256)": {
        "details": "Claim the pending return of the market.\r",
        "params": {
          "maxRecords": "Maximum number of records to claim reward for\r"
        }
      },
      "createGovernanceProposal(string,string,string,bytes,uint256,address,uint256,uint256,uint256)": {
        "details": "Create proposal if user wants to raise the dispute.\r",
        "params": {
          "_stakeForDispute": "The token staked to raise the diospute.\r",
          "_user": "The address who raises the dispute.\r",
          "action": "The encoded action for solution.\r",
          "description": "The description of dispute.\r",
          "proposalTitle": "The title of proposal created by user.\r",
          "solutionHash": "The ipfs solution hash.\r"
        }
      },
      "createMarket(uint256,uint256)": {
        "details": "Creates the new market\r",
        "params": {
          "_marketCurrencyIndex": "the index of market currency.\r",
          "_marketType": "The type of the market.\r"
        }
      },
      "executeMetaTransaction(address,bytes,bytes32,bytes32,uint8)": {
        "params": {
          "functionSignature": "Signature of the actual function to be called via meta transaction",
          "sigR": "R part of the signature",
          "sigS": "S part of the signature",
          "sigV": "V part of the signature",
          "userAddress": "Address of user trying to do meta transaction"
        }
      },
      "getMarketDetails(address)": {
        "details": "Gets the market details of the specified address.\r",
        "params": {
          "_marketAdd": "The market address to query the details of market.\r"
        },
        "return": "_feedsource bytes32 representing the currency or stock name of the market.\rminvalue uint[] memory representing the minimum range of all the options of the market.\rmaxvalue uint[] memory representing the maximum range of all the options of the market.\roptionprice uint[] memory representing the option price of each option ranges of the market.\r_ethStaked uint[] memory representing the ether staked on each option ranges of the market.\r_plotStaked uint[] memory representing the plot staked on each option ranges of the market.\r_predictionType uint representing the type of market.\r_expireTime uint representing the expire time of the market.\r_predictionStatus uint representing the status of the market.\r"
      },
      "getMarketDetailsUser(address,uint256,uint256)": {
        "details": "Gets the market details of the specified user address.\r",
        "params": {
          "fromIndex": "The index to query the details from.\r",
          "toIndex": "The index to query the details to\r",
          "user": "The address to query the details of market.\r"
        },
        "return": "_market address[] memory representing the address of the market.\r_winnigOption uint256[] memory representing the winning option range of the market.\r"
      },
      "getOpenMarkets()": {
        "details": "Gets the addresses of open markets.\r",
        "return": "_openMarkets address[] memory representing the open market addresses.\r_marketTypes uint256[] memory representing the open market types.\r"
      },
      "getTotalAssetStakedByUser(address)": {
        "details": "Get total assets staked by user in PlotX platform\r",
        "return": "_plotStaked Total PLOT staked by user\r_ethStaked Total ETH staked by user\r"
      },
      "getUintParameters(bytes8)": {
        "details": "Get uint config parameters\r"
      },
      "initiate(address,address,address,address[])": {
        "details": "Initialize the PlotX MarketRegistry.\r",
        "params": {
          "_defaultAddress": "Address authorized to start initial markets\r",
          "_marketUtility": "The address of market config.\r",
          "_plotToken": "The instance of PlotX token.\r"
        }
      },
      "isAuthorizedToGovern(address)": {
        "details": "checks if an address is authorized to govern"
      },
      "isMarket(address)": {
        "details": "Checks if given addres is valid market address.\r"
      },
      "pauseMarketCreation()": {
        "details": "Updates Flag to pause creation of market.\r"
      },
      "resolveDispute(address,uint256)": {
        "details": "Resolve the dispute if wrong value passed at the time of market result declaration.\r",
        "params": {
          "_marketAddress": "The address specify the market.\r",
          "_result": "The final result of the market.\r"
        }
      },
      "resumeMarketCreation()": {
        "details": "Updates Flag to resume creation of market.\r"
      },
      "setMasterAddress()": {
        "details": "Changes the master address and update it's instance\r"
      },
      "setUserGlobalPredictionData(address,uint256,uint256,address,uint256,uint256)": {
        "details": "Emits the PlacePrediction event and sets the user data.\r",
        "params": {
          "_leverage": "The leverage selected by user at the time of place prediction.\r",
          "_prediction": "The option range on which user placed prediction.\r",
          "_predictionAsset": "The prediction assets user will get.\r",
          "_predictionPoints": "The positions user will get.\r",
          "_user": "The address who placed prediction.\r",
          "_value": "The amount of ether user staked.\r"
        }
      },
      "transferAssets(address,address,uint256)": {
        "details": "Transfer `_amount` number of market registry assets contract to `_to` address\r"
      },
      "updateMarketImplementations(uint256[],address[])": {
        "details": "Update the implementations of the market.\r"
      },
      "upgradeContractImplementation(address,address)": {
        "details": "Upgrade the implementations of the contract.\r",
        "params": {
          "_newImplementation": "Address of new implementation contract\r",
          "_proxyAddress": "the proxy address.\r"
        }
      }
    }
  },
  "userdoc": {
    "methods": {
      "executeMetaTransaction(address,bytes,bytes32,bytes32,uint8)": {
        "notice": "Main function to be called when user wants to execute meta transaction. The actual function to be called should be passed as param with name functionSignature Here the basic signature recovery is being used. Signature is expected to be generated using personal_sign method."
      }
    }
  }
}