{
  "contractName": "Master",
  "abi": [
    {
      "constant": true,
      "inputs": [
        {
          "name": "",
          "type": "address"
        }
      ],
      "name": "contractsActive",
      "outputs": [
        {
          "name": "",
          "type": "bool"
        }
      ],
      "payable": false,
      "stateMutability": "view",
      "type": "function"
    },
    {
      "constant": true,
      "inputs": [
        {
          "name": "",
          "type": "bytes2"
        }
      ],
      "name": "contractAddress",
      "outputs": [
        {
          "name": "",
          "type": "address"
        }
      ],
      "payable": false,
      "stateMutability": "view",
      "type": "function"
    },
    {
      "constant": true,
      "inputs": [],
      "name": "dAppLocker",
      "outputs": [
        {
          "name": "",
          "type": "address"
        }
      ],
      "payable": false,
      "stateMutability": "view",
      "type": "function"
    },
    {
      "constant": true,
      "inputs": [
        {
          "name": "",
          "type": "address"
        }
      ],
      "name": "whitelistedSponsor",
      "outputs": [
        {
          "name": "",
          "type": "bool"
        }
      ],
      "payable": false,
      "stateMutability": "view",
      "type": "function"
    },
    {
      "constant": true,
      "inputs": [
        {
          "name": "",
          "type": "uint256"
        }
      ],
      "name": "allContractNames",
      "outputs": [
        {
          "name": "",
          "type": "bytes2"
        }
      ],
      "payable": false,
      "stateMutability": "view",
      "type": "function"
    },
    {
      "constant": true,
      "inputs": [],
      "name": "masterInitialised",
      "outputs": [
        {
          "name": "",
          "type": "bool"
        }
      ],
      "payable": false,
      "stateMutability": "view",
      "type": "function"
    },
    {
      "constant": true,
      "inputs": [],
      "name": "masterAddress",
      "outputs": [
        {
          "name": "",
          "type": "address"
        }
      ],
      "payable": false,
      "stateMutability": "view",
      "type": "function"
    },
    {
      "constant": true,
      "inputs": [],
      "name": "dAppToken",
      "outputs": [
        {
          "name": "",
          "type": "address"
        }
      ],
      "payable": false,
      "stateMutability": "view",
      "type": "function"
    },
    {
      "constant": false,
      "inputs": [
        {
          "name": "_implementations",
          "type": "address[]"
        },
        {
          "name": "_token",
          "type": "address"
        },
        {
          "name": "_defaultAddress",
          "type": "address"
        },
        {
          "name": "_marketUtiliy",
          "type": "address"
        },
        {
          "name": "_configParams",
          "type": "address[]"
        },
        {
          "name": "_vesting",
          "type": "address"
        }
      ],
      "name": "initiateMaster",
      "outputs": [],
      "payable": false,
      "stateMutability": "nonpayable",
      "type": "function"
    },
    {
      "constant": false,
      "inputs": [
        {
          "name": "_contractName",
          "type": "bytes2"
        },
        {
          "name": "_contractAddress",
          "type": "address"
        }
      ],
      "name": "addNewContract",
      "outputs": [],
      "payable": false,
      "stateMutability": "nonpayable",
      "type": "function"
    },
    {
      "constant": false,
      "inputs": [
        {
          "name": "_contractNames",
          "type": "bytes2[]"
        },
        {
          "name": "_contractAddresses",
          "type": "address[]"
        }
      ],
      "name": "upgradeMultipleImplementations",
      "outputs": [],
      "payable": false,
      "stateMutability": "nonpayable",
      "type": "function"
    },
    {
      "constant": false,
      "inputs": [
        {
          "name": "_address",
          "type": "address"
        }
      ],
      "name": "whitelistSponsor",
      "outputs": [],
      "payable": false,
      "stateMutability": "nonpayable",
      "type": "function"
    },
    {
      "constant": true,
      "inputs": [
        {
          "name": "_address",
          "type": "address"
        }
      ],
      "name": "isInternal",
      "outputs": [
        {
          "name": "",
          "type": "bool"
        }
      ],
      "payable": false,
      "stateMutability": "view",
      "type": "function"
    },
    {
      "constant": true,
      "inputs": [
        {
          "name": "_contractName",
          "type": "bytes2"
        }
      ],
      "name": "getLatestAddress",
      "outputs": [
        {
          "name": "",
          "type": "address"
        }
      ],
      "payable": false,
      "stateMutability": "view",
      "type": "function"
    },
    {
      "constant": true,
      "inputs": [
        {
          "name": "_toCheck",
          "type": "address"
        }
      ],
      "name": "isAuthorizedToGovern",
      "outputs": [
        {
          "name": "",
          "type": "bool"
        }
      ],
      "payable": false,
      "stateMutability": "view",
      "type": "function"
    }
  ],
  "bytecode": "0x608060405234801561001057600080fd5b5061172a806100206000396000f3fe608060405234801561001057600080fd5b50600436106100f55760003560e01c80634fa0a25a116100975780638be98cf1116100665780638be98cf11461042f5780638f16c41c14610437578063d365a08e1461045d578063eaf2c47714610465576100f5565b80634fa0a25a146102c2578063532bd9b1146103a9578063555a424f146103cf5780637a7c3a52146103f5576100f5565b806322ce7254116100d357806322ce72541461019e5780632d99f2a4146101c45780633a12507f146101fc57806347f4f88514610204576100f5565b806301382858146100fa57806301c09f141461013d57806314dc7e5614610177575b600080fd5b6101216004803603602081101561011057600080fd5b50356001600160f01b03191661046d565b604080516001600160a01b039092168252519081900360200190f35b6101636004803603602081101561015357600080fd5b50356001600160a01b0316610492565b604080519115158252519081900360200190f35b6101216004803603602081101561018d57600080fd5b50356001600160f01b0319166104a7565b610163600480360360208110156101b457600080fd5b50356001600160a01b03166104c2565b6101fa600480360360408110156101da57600080fd5b5080356001600160f01b03191690602001356001600160a01b03166104ef565b005b610121610770565b6101fa6004803603604081101561021a57600080fd5b810190602081018135600160201b81111561023457600080fd5b82018360208201111561024657600080fd5b803590602001918460208302840111600160201b8311171561026757600080fd5b919390929091602081019035600160201b81111561028457600080fd5b82018360208201111561029657600080fd5b803590602001918460208302840111600160201b831117156102b757600080fd5b50909250905061077f565b6101fa600480360360c08110156102d857600080fd5b810190602081018135600160201b8111156102f257600080fd5b82018360208201111561030457600080fd5b803590602001918460208302840111600160201b8311171561032557600080fd5b919390926001600160a01b038335811693602081013582169360408201359092169290608081019060600135600160201b81111561036257600080fd5b82018360208201111561037457600080fd5b803590602001918460208302840111600160201b8311171561039557600080fd5b9193509150356001600160a01b0316610912565b610163600480360360208110156103bf57600080fd5b50356001600160a01b0316610f42565b6101fa600480360360208110156103e557600080fd5b50356001600160a01b0316610f57565b6104126004803603602081101561040b57600080fd5b5035610fdf565b604080516001600160f01b03199092168252519081900360200190f35b610163611013565b6101636004803603602081101561044d57600080fd5b50356001600160a01b0316611023565b610121611041565b610121611050565b6001600160f01b0319166000908152600660205260409020546001600160a01b031690565b60046020526000908152604090205460ff1681565b6006602052600090815260409020546001600160a01b031681565b6000816001600160a01b03166104df600160f11b6123ab0261046d565b6001600160a01b03161492915050565b33610501600160f11b6123ab0261046d565b6001600160a01b0316146105535760408051600160e51b62461bcd02815260206004820152600e6024820152600160921b6d139bdd08185d5d1a1bdc9a5e995902604482015290519081900360640190fd5b600160f01b614d53026001600160f01b0319831614156105bd5760408051600160e51b62461bcd02815260206004820152601560248201527f4e616d652063616e6e6f74206265206d61737465720000000000000000000000604482015290519081900360640190fd5b6001600160a01b03811661061b5760408051600160e51b62461bcd02815260206004820152600c60248201527f5a65726f20616464726573730000000000000000000000000000000000000000604482015290519081900360640190fd5b6001600160f01b031982166000908152600660205260409020546001600160a01b0316156106935760408051600160e51b62461bcd02815260206004820152601f60248201527f436f6e747261637420636f646520616c726561647920617661696c61626c6500604482015290519081900360640190fd5b6001805480820182556000919091527fb10e2d527612073b26eecdfd717e6a320cf44b4afac2b0732d9fcbe2b7fa0cf66010820401805461ffff600f9093166002026101000a928302191660f085901c929092029190911790556106f7828261105f565b6001600160f01b03198216600090815260066020526040808220548151600160e41b6304b6199b02815291516001600160a01b03909116928392634b6199b0926004808301939282900301818387803b15801561075357600080fd5b505af1158015610767573d6000803e3d6000fd5b50505050505050565b6003546001600160a01b031681565b33610791600160f11b6123ab0261046d565b6001600160a01b0316146107e35760408051600160e51b62461bcd02815260206004820152600e6024820152600160921b6d139bdd08185d5d1a1bdc9a5e995902604482015290519081900360640190fd5b82811461083a5760408051600160e51b62461bcd02815260206004820152601d60248201527f4172726179206c656e6774682073686f756c6420626520657175616c2e000000604482015290519081900360640190fd5b60005b8381101561090b57600083838381811061085357fe5b905060200201356001600160a01b03166001600160a01b031614156108c25760408051600160e51b62461bcd02815260206004820152601c60248201527f6e756c6c2061646472657373206973206e6f7420616c6c6f7765642e00000000604482015290519081900360640190fd5b6109038585838181106108d157fe5b905060200201356001600160f01b0319168484848181106108ee57fe5b905060200201356001600160a01b03166110f0565b60010161083d565b5050505050565b6003543090600160a01b900460ff161561092b57600080fd5b806001600160a01b031663025313a26040518163ffffffff1660e01b815260040160206040518083038186803b15801561096457600080fd5b505afa158015610978573d6000803e3d6000fd5b505050506040513d602081101561098e57600080fd5b50516001600160a01b031633146109ef5760408051600160e51b62461bcd02815260206004820152601a60248201527f53656e646572206973206e6f742070726f7879206f776e65722e000000000000604482015290519081900360640190fd5b6003805474ff00000000000000000000000000000000000000001916600160a01b179055600180548082018255600082905260108082047fb10e2d527612073b26eecdfd717e6a320cf44b4afac2b0732d9fcbe2b7fa0cf69081018054614d52600f958616600290810261010090810a92830261ffff938402199094169390931790935586548088018855858104850180546150439289168602850a928302928402191691909117905586548088018855858104850180546147569289168602850a9283029284021916919091179055865480880188558581048501805461504c9289168602850a928302928402191691909117905586548088018855858104850180546154439289168602850a928302928402191691909117905586548088018855948504909301805461424c95909616909202900a9283029290910219909216179055548814610b8b5760408051600160e51b62461bcd02815260206004820152601f60248201527f496d706c656d656e746174696f6e206c656e677468206e6f74206d6174636800604482015290519081900360640190fd5b306000908152600460205260408120805460ff19166001179055600280546001600160a01b038a166001600160a01b03199091161790555b600154811015610c2957610c2160018281548110610bdd57fe5b90600052602060002090601091828204019190066002029054906101000a900460f01b8b8b84818110610c0c57fe5b905060200201356001600160a01b031661105f565b600101610bc3565b50600160f01b6154430260005260066020527f534eb7f06040a668278f564ab47095591f9951215f45f0f69f472ff82e0631a454600380546001600160a01b0319166001600160a01b03909216919091179055610c84611156565b600160f21b61141302600052600660209081527fb1f15b38b1496af610d10b0ce8fef62f866b4f0cf56baf38e106ab80bafd08d454604051600160e11b6306197fab0281526001600160a01b038981166004830190815289821660248401528b82166044840152608060648401908152608484018990529190931693630c32ff56938b938b938e938c938c9390929160a4909101908590850280828437600081840152601f19601f8201169050808301925050509650505050505050600060405180830381600087803b158015610d5a57600080fd5b505af1158015610d6e573d6000803e3d6000fd5b5050600160f21b61109302600090815260066020527f8ed3b2497b8a2bedfad5b67eecad4326dc1b7ba85032cfb085fb3d0a578be2965460408051600160e01b63fac360370281526001600160a01b038c81166004830152915191909216945063fac3603793506024808301939282900301818387803b158015610df157600080fd5b505af1158015610e05573d6000803e3d6000fd5b5050600160f01b61544302600090815260066020527f534eb7f06040a668278f564ab47095591f9951215f45f0f69f472ff82e0631a45460408051600160e21b633be44e9f0281526001600160a01b038881166004830152915191909216945063ef913a7c93506024808301939282900301818387803b158015610e8857600080fd5b505af1158015610e9c573d6000803e3d6000fd5b5050600160f11b6126a902600090815260066020527fc5d8f3e9283b6e4963468584d2b1e6f76d05878f5ae4ec1f0330361264fedab25460408051600160e11b6321d907fb0281526001600160a01b038c8116600483015291519190921694506343b20ff693506024808301939282900301818387803b158015610f1f57600080fd5b505af1158015610f33573d6000803e3d6000fd5b50505050505050505050505050565b60056020526000908152604090205460ff1681565b33610f69600160f11b6123ab0261046d565b6001600160a01b031614610fbb5760408051600160e51b62461bcd02815260206004820152600e6024820152600160921b6d139bdd08185d5d1a1bdc9a5e995902604482015290519081900360640190fd5b6001600160a01b03166000908152600560205260409020805460ff19166001179055565b60018181548110610fec57fe5b9060005260206000209060109182820401919006600202915054906101000a900460f01b81565b600354600160a01b900460ff1681565b6001600160a01b031660009081526004602052604090205460ff1690565b6000546001600160a01b031681565b6002546001600160a01b031681565b60008160405161106e9061121c565b6001600160a01b03909116815260405190819003602001906000f08015801561109b573d6000803e3d6000fd5b506001600160f01b0319909316600090815260066020908152604080832080546001600160a01b039097166001600160a01b0319909716871790559482526004905292909220805460ff191660011790555050565b6001600160f01b03198216600090815260066020526040808220548151600160e11b631b2ce7f30281526001600160a01b038581166004830152925192909116928392633659cfe692602480820193929182900301818387803b15801561075357600080fd5b60005b600154811015611219576000600660006001848154811061117657fe5b60009182526020808320601083040154600f9092166002026101000a90910460f01b6001600160f01b031916835282019290925260409081018220548151600160e41b6304b6199b02815291516001600160a01b0390911693508392634b6199b0926004808201939182900301818387803b1580156111f457600080fd5b505af1158015611208573d6000803e3d6000fd5b505060019093019250611159915050565b50565b6104d58061122a8339019056fe608060405234801561001057600080fd5b506040516020806104d58339810180604052602081101561003057600080fd5b505161004233610057602090811b901c565b6100518161008c60201b60201c565b50610149565b604080517f6f72672e676f76626c6f636b732e70726f78792e6f776e6572000000000000008152905190819003601901902055565b600061009c61010460201b60201c565b9050816001600160a01b0316816001600160a01b031614156100bd57600080fd5b6100cc8261012760201b60201c565b6040516001600160a01b038316907fbc7cd75a20ee27fd9adebab32041f755214dbc6bffa90cc0225b39da2e5c2d3b90600090a25050565b60008060405180806104b360229139604051908190036022019020549392505050565b600060405180806104b360229139604051908190036022019020929092555050565b61035b806101586000396000f3fe60806040526004361061003f5760003560e01c8063025313a2146100835780633659cfe6146100b45780635c60da1b146100e9578063f1739cae146100fe575b6000610049610131565b90506001600160a01b03811661005e57600080fd5b60405136600082376000803683855af43d806000843e81801561007f578184f35b8184fd5b34801561008f57600080fd5b50610098610154565b604080516001600160a01b039092168252519081900360200190f35b3480156100c057600080fd5b506100e7600480360360208110156100d757600080fd5b50356001600160a01b031661018a565b005b3480156100f557600080fd5b50610098610131565b34801561010a57600080fd5b506100e76004803603602081101561012157600080fd5b50356001600160a01b03166101bb565b600080604051808061030e60229139604051908190036022019020549392505050565b604080517f6f72672e676f76626c6f636b732e70726f78792e6f776e657200000000000000815290519081900360190190205490565b610192610154565b6001600160a01b0316336001600160a01b0316146101af57600080fd5b6101b88161024a565b50565b6101c3610154565b6001600160a01b0316336001600160a01b0316146101e057600080fd5b6001600160a01b0381166101f357600080fd5b6101fc816102b6565b7f5a3e66efaa1e445ebd894728a69d6959842ea1e97bd79b892797106e270efcd9610225610154565b604080516001600160a01b03928316815291841660208301528051918290030190a150565b6000610254610131565b9050816001600160a01b0316816001600160a01b0316141561027557600080fd5b61027e826102eb565b6040516001600160a01b038316907fbc7cd75a20ee27fd9adebab32041f755214dbc6bffa90cc0225b39da2e5c2d3b90600090a25050565b604080517f6f72672e676f76626c6f636b732e70726f78792e6f776e6572000000000000008152905190819003601901902055565b6000604051808061030e6022913960405190819003602201902092909255505056fe6f72672e676f76626c6f636b732e70726f78792e696d706c656d656e746174696f6ea165627a7a723058200f44526e9d4e51a63c577631e6bccfb5df47ccf37f0e587a9bfe8cc59e5699ce00296f72672e676f76626c6f636b732e70726f78792e696d706c656d656e746174696f6ea165627a7a72305820879ae64a7dfd5dd8a1d3d8bb1f1c41208e417040ac41a50e5cfd8931dfdb81770029",
  "source": "/* Copyright (C) 2020 PlotX.io\n\n  This program is free software: you can redistribute it and/or modify\n    it under the terms of the GNU General Public License as published by\n    the Free Software Foundation, either version 3 of the License, or\n    (at your option) any later version.\n\n  This program is distributed in the hope that it will be useful,\n    but WITHOUT ANY WARRANTY; without even the implied warranty of\n    MERCHANTABILITY or FITNESS FOR A PARTICULAR PURPOSE.  See the\n    GNU General Public License for more details.\n\n  You should have received a copy of the GNU General Public License\n    along with this program.  If not, see http://www.gnu.org/licenses/ */\n\npragma solidity 0.5.7;\n\nimport \"./external/proxy/OwnedUpgradeabilityProxy.sol\";\nimport \"./external/govblocks-protocol/Governed.sol\";\nimport \"./external/govblocks-protocol/interfaces/IMemberRoles.sol\";\nimport \"./interfaces/IMarketRegistry.sol\";\nimport \"./interfaces/IbLOTToken.sol\";\nimport \"./interfaces/ITokenController.sol\";\nimport \"./interfaces/Iupgradable.sol\";\n\ncontract Master is Governed {\n    bytes2[] public allContractNames;\n    address public dAppToken;\n    address public dAppLocker;\n    bool public masterInitialised;\n\n    mapping(address => bool) public contractsActive;\n    mapping(address => bool) public whitelistedSponsor;\n    mapping(bytes2 => address payable) public contractAddress;\n\n    /**\n     * @dev modifier that allows only the authorized addresses to execute the function\n     */\n    modifier onlyAuthorizedToGovern() {\n        require(getLatestAddress(\"GV\") == msg.sender, \"Not authorized\");\n        _;\n    }\n\n    /**\n     * @dev Initialize the Master.\n     * @param _implementations The address of market implementation.\n     * @param _token The address of PLOT token.\n     * @param _marketUtiliy The addresses of market utility.\n     */\n    function initiateMaster(\n        address[] calldata _implementations,\n        address _token,\n        address _defaultAddress,\n        address _marketUtiliy,\n        address payable[] calldata _configParams,\n        address _vesting\n    ) external {\n        OwnedUpgradeabilityProxy proxy = OwnedUpgradeabilityProxy(\n            address(uint160(address(this)))\n        );\n        require(!masterInitialised);\n        require(msg.sender == proxy.proxyOwner(), \"Sender is not proxy owner.\");\n        masterInitialised = true;\n\n        //Initial contract names\n        allContractNames.push(\"MR\");\n        allContractNames.push(\"PC\");\n        allContractNames.push(\"GV\");\n        allContractNames.push(\"PL\");\n        allContractNames.push(\"TC\");\n        allContractNames.push(\"BL\");\n\n        require(\n            allContractNames.length == _implementations.length,\n            \"Implementation length not match\"\n        );\n        contractsActive[address(this)] = true;\n        dAppToken = _token;\n        for (uint256 i = 0; i < allContractNames.length; i++) {\n            _generateProxy(allContractNames[i], _implementations[i]);\n        }\n        dAppLocker = contractAddress[\"TC\"];\n\n        _setMasterAddress();\n\n        IMarketRegistry(contractAddress[\"PL\"]).initiate(\n            _defaultAddress,\n            _marketUtiliy,\n            _token,\n            _configParams\n        );\n        IbLOTToken(contractAddress[\"BL\"]).initiatebLOT(_defaultAddress);\n        ITokenController(contractAddress[\"TC\"]).initiateVesting(_vesting);\n        IMemberRoles(contractAddress[\"MR\"]).setInititorAddress(_defaultAddress);\n    }\n\n    /**\n     * @dev adds a new contract type to master\n     */\n    function addNewContract(bytes2 _contractName, address _contractAddress)\n        external\n        onlyAuthorizedToGovern\n    {\n        require(_contractName != \"MS\", \"Name cannot be master\");\n        require(_contractAddress != address(0), \"Zero address\");\n        require(\n            contractAddress[_contractName] == address(0),\n            \"Contract code already available\"\n        );\n        allContractNames.push(_contractName);\n        _generateProxy(_contractName, _contractAddress);\n        Iupgradable up = Iupgradable(contractAddress[_contractName]);\n        up.setMasterAddress();\n    }\n\n    /**\n     * @dev upgrades a multiple contract implementations\n     */\n    function upgradeMultipleImplementations(\n        bytes2[] calldata _contractNames,\n        address[] calldata _contractAddresses\n    ) external onlyAuthorizedToGovern {\n        require(\n            _contractNames.length == _contractAddresses.length,\n            \"Array length should be equal.\"\n        );\n        for (uint256 i = 0; i < _contractNames.length; i++) {\n            require(\n                _contractAddresses[i] != address(0),\n                \"null address is not allowed.\"\n            );\n            _replaceImplementation(_contractNames[i], _contractAddresses[i]);\n        }\n    }\n\n    function whitelistSponsor(address _address) external onlyAuthorizedToGovern {\n        whitelistedSponsor[_address] = true;\n    }\n\n    \n    /**\n     * @dev To check if we use the particular contract.\n     * @param _address The contract address to check if it is active or not.\n     */\n    function isInternal(address _address) public view returns (bool) {\n        return contractsActive[_address];\n    }\n\n    /**\n     * @dev Gets latest contract address\n     * @param _contractName Contract name to fetch\n     */\n    function getLatestAddress(bytes2 _contractName)\n        public\n        view\n        returns (address)\n    {\n        return contractAddress[_contractName];\n    }\n\n    /**\n     * @dev checks if an address is authorized to govern\n     */\n    function isAuthorizedToGovern(address _toCheck) public view returns (bool) {\n        return (getLatestAddress(\"GV\") == _toCheck);\n    }\n\n    /**\n     * @dev Changes Master contract address\n     */\n    function _setMasterAddress() internal {\n        for (uint256 i = 0; i < allContractNames.length; i++) {\n            Iupgradable up = Iupgradable(contractAddress[allContractNames[i]]);\n            up.setMasterAddress();\n        }\n    }\n\n    /**\n     * @dev Replaces the implementations of the contract.\n     * @param _contractsName The name of the contract.\n     * @param _contractAddress The address of the contract to replace the implementations for.\n     */\n    function _replaceImplementation(\n        bytes2 _contractsName,\n        address _contractAddress\n    ) internal {\n        OwnedUpgradeabilityProxy tempInstance = OwnedUpgradeabilityProxy(\n            contractAddress[_contractsName]\n        );\n        tempInstance.upgradeTo(_contractAddress);\n    }\n\n    /**\n     * @dev to generator proxy\n     * @param _contractAddress of the proxy\n     */\n    function _generateProxy(bytes2 _contractName, address _contractAddress)\n        internal\n    {\n        OwnedUpgradeabilityProxy tempInstance = new OwnedUpgradeabilityProxy(\n            _contractAddress\n        );\n        contractAddress[_contractName] = address(tempInstance);\n        contractsActive[address(tempInstance)] = true;\n    }\n}\n",
  "sourcePath": "/home/madan/Documents/PlotX/PlotxContract/contracts/Master.sol",
  "compiler": {
    "name": "solc",
    "version": "0.5.7+commit.6da8b019.Emscripten.clang"
  },
  "schemaVersion": "3.3.2",
  "updatedAt": "2020-12-10T08:39:39.271Z",
  "networkType": "ethereum",
  "devdoc": {
    "methods": {
      "addNewContract(bytes2,address)": {
        "details": "adds a new contract type to master"
      },
      "getLatestAddress(bytes2)": {
        "details": "Gets latest contract address",
        "params": {
          "_contractName": "Contract name to fetch"
        }
      },
      "initiateMaster(address[],address,address,address,address[],address)": {
        "details": "Initialize the Master.",
        "params": {
          "_implementations": "The address of market implementation.",
          "_marketUtiliy": "The addresses of market utility.",
          "_token": "The address of PLOT token."
        }
      },
      "isAuthorizedToGovern(address)": {
        "details": "checks if an address is authorized to govern"
      },
      "isInternal(address)": {
        "details": "To check if we use the particular contract.",
        "params": {
          "_address": "The contract address to check if it is active or not."
        }
      },
      "upgradeMultipleImplementations(bytes2[],address[])": {
        "details": "upgrades a multiple contract implementations"
      }
    }
  },
  "userdoc": {
    "methods": {}
  }
}