{
  "contractName": "MemberRoles",
  "abi": [
    {
      "constant": true,
      "inputs": [
        {
          "name": "_toCheck",
          "type": "address"
        }
      ],
      "name": "isAuthorizedToGovern",
      "outputs": [
        {
          "name": "",
          "type": "bool"
        }
      ],
      "payable": false,
      "stateMutability": "view",
      "type": "function"
    },
    {
      "constant": true,
      "inputs": [],
      "name": "masterAddress",
      "outputs": [
        {
          "name": "",
          "type": "address"
        }
      ],
      "payable": false,
      "stateMutability": "view",
      "type": "function"
    },
    {
      "anonymous": false,
      "inputs": [
        {
          "indexed": true,
          "name": "roleId",
          "type": "uint256"
        },
        {
          "indexed": false,
          "name": "roleName",
          "type": "bytes32"
        },
        {
          "indexed": false,
          "name": "roleDescription",
          "type": "string"
        }
      ],
      "name": "MemberRole",
      "type": "event"
    },
    {
      "constant": false,
      "inputs": [
        {
          "name": "_newABAddress",
          "type": "address"
        },
        {
          "name": "_removeAB",
          "type": "address"
        }
      ],
      "name": "swapABMember",
      "outputs": [],
      "payable": false,
      "stateMutability": "nonpayable",
      "type": "function"
    },
    {
      "constant": false,
      "inputs": [],
      "name": "setMasterAddress",
      "outputs": [],
      "payable": false,
      "stateMutability": "nonpayable",
      "type": "function"
    },
    {
      "constant": false,
      "inputs": [
        {
          "name": "_initiator",
          "type": "address"
        }
      ],
      "name": "setInititorAddress",
      "outputs": [],
      "payable": false,
      "stateMutability": "nonpayable",
      "type": "function"
    },
    {
      "constant": false,
      "inputs": [
        {
          "name": "_abArray",
          "type": "address[]"
        }
      ],
      "name": "memberRolesInitiate",
      "outputs": [],
      "payable": false,
      "stateMutability": "nonpayable",
      "type": "function"
    },
    {
      "constant": false,
      "inputs": [
        {
          "name": "_roleName",
          "type": "bytes32"
        },
        {
          "name": "_roleDescription",
          "type": "string"
        },
        {
          "name": "_authorized",
          "type": "address"
        }
      ],
      "name": "addRole",
      "outputs": [],
      "payable": false,
      "stateMutability": "nonpayable",
      "type": "function"
    },
    {
      "constant": false,
      "inputs": [
        {
          "name": "_memberAddress",
          "type": "address"
        },
        {
          "name": "_roleId",
          "type": "uint256"
        },
        {
          "name": "_active",
          "type": "bool"
        }
      ],
      "name": "updateRole",
      "outputs": [],
      "payable": false,
      "stateMutability": "nonpayable",
      "type": "function"
    },
    {
      "constant": true,
      "inputs": [],
      "name": "totalRoles",
      "outputs": [
        {
          "name": "",
          "type": "uint256"
        }
      ],
      "payable": false,
      "stateMutability": "view",
      "type": "function"
    },
    {
      "constant": false,
      "inputs": [
        {
          "name": "_roleId",
          "type": "uint256"
        },
        {
          "name": "_newAuthorized",
          "type": "address"
        }
      ],
      "name": "changeAuthorized",
      "outputs": [],
      "payable": false,
      "stateMutability": "nonpayable",
      "type": "function"
    },
    {
      "constant": true,
      "inputs": [
        {
          "name": "_memberRoleId",
          "type": "uint256"
        }
      ],
      "name": "members",
      "outputs": [
        {
          "name": "",
          "type": "uint256"
        },
        {
          "name": "memberArray",
          "type": "address[]"
        }
      ],
      "payable": false,
      "stateMutability": "view",
      "type": "function"
    },
    {
      "constant": true,
      "inputs": [
        {
          "name": "_memberRoleId",
          "type": "uint256"
        }
      ],
      "name": "numberOfMembers",
      "outputs": [
        {
          "name": "",
          "type": "uint256"
        }
      ],
      "payable": false,
      "stateMutability": "view",
      "type": "function"
    },
    {
      "constant": true,
      "inputs": [
        {
          "name": "_memberRoleId",
          "type": "uint256"
        }
      ],
      "name": "authorized",
      "outputs": [
        {
          "name": "",
          "type": "address"
        }
      ],
      "payable": false,
      "stateMutability": "view",
      "type": "function"
    },
    {
      "constant": true,
      "inputs": [
        {
          "name": "_memberAddress",
          "type": "address"
        }
      ],
      "name": "roles",
      "outputs": [
        {
          "name": "",
          "type": "uint256[]"
        }
      ],
      "payable": false,
      "stateMutability": "view",
      "type": "function"
    },
    {
      "constant": false,
      "inputs": [
        {
          "name": "code",
          "type": "bytes8"
        },
        {
          "name": "val",
          "type": "uint256"
        }
      ],
      "name": "updateUintParameters",
      "outputs": [],
      "payable": false,
      "stateMutability": "nonpayable",
      "type": "function"
    },
    {
      "constant": true,
      "inputs": [
        {
          "name": "code",
          "type": "bytes8"
        }
      ],
      "name": "getUintParameters",
      "outputs": [
        {
          "name": "codeVal",
          "type": "bytes8"
        },
        {
          "name": "val",
          "type": "uint256"
        }
      ],
      "payable": false,
      "stateMutability": "view",
      "type": "function"
    },
    {
      "constant": true,
      "inputs": [
        {
          "name": "_memberAddress",
          "type": "address"
        },
        {
          "name": "_roleId",
          "type": "uint256"
        }
      ],
      "name": "checkRole",
      "outputs": [
        {
          "name": "",
          "type": "bool"
        }
      ],
      "payable": false,
      "stateMutability": "view",
      "type": "function"
    },
    {
      "constant": true,
      "inputs": [],
      "name": "getMemberLengthForAllRoles",
      "outputs": [
        {
          "name": "totalMembers",
          "type": "uint256[]"
        }
      ],
      "payable": false,
      "stateMutability": "view",
      "type": "function"
    }
  ],
  "bytecode": "0x608060405234801561001057600080fd5b50611f6b806100206000396000f3fe608060405234801561001057600080fd5b50600436106101165760003560e01c80636122f840116100a25780639dd86e0f116100715780639dd86e0f1461044e578063aa561f9d1461047b578063c578f230146104a7578063cb41e01b146104d5578063d365a08e1461054557610116565b80636122f8401461037d5780636d1c31d2146103c8578063790e118c14610420578063993746421461042857610116565b80632f473021116100e95780632f4730211461027757806343b20ff6146102ab5780634b6199b0146102d1578063505ef22f146102d95780635daf08ca1461030557610116565b80630d48669a1461011b5780630dc6f8471461015457806322ce7254146101835780632dc4bdca146101bd575b600080fd5b6101386004803603602081101561013157600080fd5b503561054d565b604080516001600160a01b039092168252519081900360200190f35b6101716004803603602081101561016a57600080fd5b503561057f565b60408051918252519081900360200190f35b6101a96004803603602081101561019957600080fd5b50356001600160a01b03166105a7565b604080519115158252519081900360200190f35b610275600480360360608110156101d357600080fd5b813591908101906040810160208201356401000000008111156101f557600080fd5b82018360208201111561020757600080fd5b8035906020019184600183028401116401000000008311171561022957600080fd5b91908080601f016020809104026020016040519081016040528093929190818152602001838380828437600092019190915250929550505090356001600160a01b0316915061063f9050565b005b6102756004803603606081101561028d57600080fd5b506001600160a01b0381351690602081013590604001351515610727565b610275600480360360208110156102c157600080fd5b50356001600160a01b0316610837565b610275610980565b6101a9600480360360408110156102ef57600080fd5b506001600160a01b038135169060200135610b75565b6103226004803603602081101561031b57600080fd5b5035610d3c565b6040518083815260200180602001828103825283818151815260200191508051906020019060200280838360005b83811015610368578181015183820152602001610350565b50505050905001935050505060405180910390f35b6103a46004803603602081101561039357600080fd5b50356001600160c01b031916610dc5565b604080516001600160c01b0319909316835260208301919091528051918290030190f35b6103d0610e25565b60408051602080825283518183015283519192839290830191858101910280838360005b8381101561040c5781810151838201526020016103f4565b505050509050019250505060405180910390f35b610171610e8f565b6103d06004803603602081101561043e57600080fd5b50356001600160a01b0316610e96565b6102756004803603604081101561046457600080fd5b506001600160c01b031981351690602001356110bf565b6102756004803603604081101561049157600080fd5b50803590602001356001600160a01b03166111ed565b610275600480360360408110156104bd57600080fd5b506001600160a01b038135811691602001351661133a565b610275600480360360208110156104eb57600080fd5b81019060208101813564010000000081111561050657600080fd5b82018360208201111561051857600080fd5b8035906020019184602083028401116401000000008311171561053a57600080fd5b50909250905061145b565b61013861152b565b60006002828154811061055c57fe5b60009182526020909120600490910201600301546001600160a01b031692915050565b60006002828154811061058e57fe5b9060005260206000209060040201600001549050919050565b6000805460408051600160e31b6227050b028152600160f11b6123ab02600482015290516001600160a01b03928316928516918391630138285891602480820192602092909190829003018186803b15801561060257600080fd5b505afa158015610616573d6000803e3d6000fd5b505050506040513d602081101561062c57600080fd5b50516001600160a01b0316149392505050565b60005460408051600160e31b6227050b028152600160f11b6123ab02600482015290516001600160a01b039092169133918391630138285891602480820192602092909190829003018186803b15801561069857600080fd5b505afa1580156106ac573d6000803e3d6000fd5b505050506040513d60208110156106c257600080fd5b50516001600160a01b0316146107165760408051600160e51b62461bcd02815260206004820152600e6024820152600160921b6d139bdd08185d5d1a1bdc9a5e995902604482015290519081900360640190fd5b61072184848461153a565b50505050565b8160006001600160a01b03166002828154811061074057fe5b60009182526020909120600360049092020101546001600160a01b0316146107db576002818154811061076f57fe5b60009182526020909120600490910201600301546001600160a01b031633146107d65760408051600160e51b62461bcd02815260206004820152600e6024820152600160921b6d139bdd08185d5d1a1bdc9a5e995902604482015290519081900360640190fd5b61082c565b6107e4336105a7565b61082c5760408051600160e51b62461bcd02815260206004820152600e6024820152600160921b6d139bdd08105d5d1a1bdc9a5e995902604482015290519081900360640190fd5b61072184848461168d565b6000309050806001600160a01b031663025313a26040518163ffffffff1660e01b815260040160206040518083038186803b15801561087557600080fd5b505afa158015610889573d6000803e3d6000fd5b505050506040513d602081101561089f57600080fd5b50516001600160a01b031633146109005760408051600160e51b62461bcd02815260206004820152601a60248201527f53656e646572206973206e6f742070726f7879206f776e65722e000000000000604482015290519081900360640190fd5b60035461010090046001600160a01b0316156109575760408051600160e51b62461bcd02815260206004820152600b6024820152600160aa1b6a105b1c9958591e4814d95d02604482015290519081900360640190fd5b50600380546001600160a01b0390921661010002610100600160a81b0319909216919091179055565b6000309050806001600160a01b031663025313a26040518163ffffffff1660e01b815260040160206040518083038186803b1580156109be57600080fd5b505afa1580156109d2573d6000803e3d6000fd5b505050506040513d60208110156109e857600080fd5b50516001600160a01b03163314610a495760408051600160e51b62461bcd02815260206004820152601a60248201527f53656e646572206973206e6f742070726f7879206f776e65722e000000000000604482015290519081900360640190fd5b6000546001600160a01b031615610aaa5760408051600160e51b62461bcd02815260206004820152601a60248201527f4d6173746572206164647265737320616c726561647920736574000000000000604482015290519081900360640190fd5b600080546001600160a01b03191633179081905560408051600160e31b6227050b028152600160f01b61544302600482015290516001600160a01b03929092169182916301382858916024808301926020929190829003018186803b158015610b1257600080fd5b505afa158015610b26573d6000803e3d6000fd5b505050506040513d6020811015610b3c57600080fd5b5051600180546001600160a01b0319166001600160a01b039092169190911790555050681b1ae4d6e2ef5000006004556213c680600555565b600081610b8457506001610d36565b6002821415610c205760015460408051600160e11b63258770150281526001600160a01b03868116600483015291516000939290921691634b0ee02a91602480820192602092909190829003018186803b158015610be157600080fd5b505afa158015610bf5573d6000803e3d6000fd5b505050506040513d6020811015610c0b57600080fd5b50511115610c1b57506001610d36565b610d32565b6003821415610cec576004546001546005546001600160a01b039091169063179e91f1908690610c56904263ffffffff611ad116565b6040518363ffffffff1660e01b815260040180836001600160a01b03166001600160a01b0316815260200180600160f11b612229028152506020018281526020019250505060206040518083038186803b158015610cb357600080fd5b505afa158015610cc7573d6000803e3d6000fd5b505050506040513d6020811015610cdd57600080fd5b505110610c1b57506001610d36565b600060028381548110610cfb57fe5b600091825260208083206001600160a01b0388168452600160049093020191909101905260409020541115610d3257506001610d36565b5060005b92915050565b600060608260028481548110610d4e57fe5b906000526020600020906004020160020180805480602002602001604051908101604052809291908181526020018280548015610db457602002820191906000526020600020905b81546001600160a01b03168152600190910190602001808311610d96575b50505050509050915091505b915091565b806000600160c11b6726a72627a1a5a229026001600160c01b031983161415610df15750600454610dc0565b600160d11b652a2627a1a229026001600160c01b031984161415610dc0576201518060055481610e1d57fe5b049050915091565b6002546040805182815260208084028201019091526060918015610e53578160200160208202803883390190505b50905060005b600254811015610e8b57610e6c8161057f565b828281518110610e7857fe5b6020908102919091010152600101610e59565b5090565b6002545b90565b600254604080518281526020808402820101909152606091908290828015610ec8578160200160208202803883390190505b509050600060015b83811015610f3d57600060028281548110610ee757fe5b600091825260208083206001600160a01b038b168452600160049093020191909101905260409020541115610f355780838381518110610f2357fe5b60209081029190910101526001909101905b600101610ed0565b5060015460408051600160e11b63258770150281526001600160a01b03888116600483015291516000939290921691634b0ee02a91602480820192602092909190829003018186803b158015610f9257600080fd5b505afa158015610fa6573d6000803e3d6000fd5b505050506040513d6020811015610fbc57600080fd5b50511115610fe1576002828281518110610fd257fe5b60209081029190910101526001015b6004546001546005546001600160a01b039091169063179e91f190889061100e904263ffffffff611ad116565b6040518363ffffffff1660e01b815260040180836001600160a01b03166001600160a01b0316815260200180600160f11b612229028152506020018281526020019250505060206040518083038186803b15801561106b57600080fd5b505afa15801561107f573d6000803e3d6000fd5b505050506040513d602081101561109557600080fd5b5051106110b75760038282815181106110aa57fe5b6020026020010181815250505b509392505050565b60005460408051600160e31b6227050b028152600160f11b6123ab02600482015290516001600160a01b039092169133918391630138285891602480820192602092909190829003018186803b15801561111857600080fd5b505afa15801561112c573d6000803e3d6000fd5b505050506040513d602081101561114257600080fd5b50516001600160a01b0316146111965760408051600160e51b62461bcd02815260206004820152600e6024820152600160921b6d139bdd08185d5d1a1bdc9a5e995902604482015290519081900360640190fd5b600160c11b6726a72627a1a5a229026001600160c01b0319841614156111c05760048290556111e8565b600160d11b652a2627a1a229026001600160c01b0319841614156111e8576201518082026005555b505050565b8160006001600160a01b03166002828154811061120657fe5b60009182526020909120600360049092020101546001600160a01b0316146112a1576002818154811061123557fe5b60009182526020909120600490910201600301546001600160a01b0316331461129c5760408051600160e51b62461bcd02815260206004820152600e6024820152600160921b6d139bdd08185d5d1a1bdc9a5e995902604482015290519081900360640190fd5b6112f2565b6112aa336105a7565b6112f25760408051600160e51b62461bcd02815260206004820152600e6024820152600160921b6d139bdd08105d5d1a1bdc9a5e995902604482015290519081900360640190fd5b816002848154811061130057fe5b906000526020600020906004020160030160006101000a8154816001600160a01b0302191690836001600160a01b03160217905550505050565b600160006001600160a01b03166002828154811061135457fe5b60009182526020909120600360049092020101546001600160a01b0316146113ef576002818154811061138357fe5b60009182526020909120600490910201600301546001600160a01b031633146113ea5760408051600160e51b62461bcd02815260206004820152600e6024820152600160921b6d139bdd08185d5d1a1bdc9a5e995902604482015290519081900360640190fd5b611440565b6113f8336105a7565b6114405760408051600160e51b62461bcd02815260206004820152600e6024820152600160921b6d139bdd08105d5d1a1bdc9a5e995902604482015290519081900360640190fd5b61144e8360015b600161168d565b6111e8826001600061168d565b60035461010090046001600160a01b0316331461147757600080fd5b60035460ff16156114d25760408051600160e51b62461bcd02815260206004820152601360248201527f416c726561647920636f6e737472756374656400000000000000000000000000604482015290519081900360640190fd5b6114da611b35565b60005b81811015611519576115118383838181106114f457fe5b905060200201356001600160a01b03166001600381111561144757fe5b6001016114dd565b50506003805460ff1916600117905550565b6000546001600160a01b031681565b6002805490507fe2981862bbf692aa30ba39d4eca9c69e5dcebf3eae5fb93332940c23c1c4c3c584846040518083815260200180602001828103825283818151815260200191508051906020019080838360005b838110156115a657818101518382015260200161158e565b50505050905090810190601f1680156115d35780820380516001836020036101000a031916815260200191505b50935050505060405180910390a260408051606081018252600081528151600180825281840190935260029260208301919081602001602082028038833950505081526001600160a01b0384166020918201528254600181018085556000948552938290208351600490920201908155828201518051919261165d92600285019290910190611ca5565b5060409190910151600390910180546001600160a01b0319166001600160a01b0390921691909117905550505050565b6002821415801561169f575060038214155b6116dd57604051600160e51b62461bcd028152600401808060200182810382526031815260200180611daa6031913960400191505060405180910390fd5b801561185e57600282815481106116f057fe5b600091825260208083206001600160a01b0387168452600160049093020191909101905260409020541561176e5760408051600160e51b62461bcd02815260206004820152600e60248201527f616c726561647920616374697665000000000000000000000000000000000000604482015290519081900360640190fd5b6117976002838154811061177e57fe5b9060005260206000209060040201600001546001611ad1565b600283815481106117a457fe5b600091825260209091206004909102015560028054839081106117c357fe5b906000526020600020906004020160020180549050600283815481106117e557fe5b600091825260208083206001600160a01b038816845260016004909302019190910190526040902055600280548390811061181c57fe5b60009182526020808320600492909202909101600201805460018101825590835291200180546001600160a01b0319166001600160a01b0385161790556111e8565b60006002838154811061186d57fe5b600091825260208083206001600160a01b038816845260016004909302019190910190526040902054116118db5760408051600160e51b62461bcd02815260206004820152600a6024820152600160b01b696e6f742061637469766502604482015290519081900360640190fd5b6000600283815481106118ea57fe5b90600052602060002090600402016001016000856001600160a01b03166001600160a01b0316815260200190815260200160002054905060006002848154811061193057fe5b90600052602060002090600402016002016002858154811061194e57fe5b9060005260206000209060040201600001548154811061196a57fe5b600091825260209091200154600280546001600160a01b03909216925083918690811061199357fe5b600091825260208083206001600160a01b038616845260016004909302019190910190526040902055600280546119e89190869081106119cf57fe5b9060005260206000209060040201600001546001611c45565b600285815481106119f557fe5b9060005260206000209060040201600001819055508060028581548110611a1857fe5b90600052602060002090600402016002018381548110611a3457fe5b9060005260206000200160006101000a8154816001600160a01b0302191690836001600160a01b0316021790555060028481548110611a6f57fe5b9060005260206000209060040201600201805480919060019003611a939190611d06565b5060028481548110611aa157fe5b600091825260208083206001600160a01b0389168452600160049093020191909101905260408120555050505050565b600082820183811015611b2e5760408051600160e51b62461bcd02815260206004820152601b60248201527f536166654d6174683a206164646974696f6e206f766572666c6f770000000000604482015290519081900360640190fd5b9392505050565b611b76600160b21b69155b985cdcda59db9959026040518060400160405280600a8152602001600160b21b69155b985cdcda59db995902815250600061153a565b611bbb7f41647669736f727920426f61726400000000000000000000000000000000000060405180610100016040528060d18152602001611ddb60d19139600061153a565b611bff7f546f6b656e20486f6c64657200000000000000000000000000000000000000006040518060c0016040528060948152602001611eac60949139600061153a565b611c437f446973707574655265736f6c7574696f6e000000000000000000000000000000604051806080016040528060418152602001611d6960419139600061153a565b565b600082821115611c9f5760408051600160e51b62461bcd02815260206004820152601e60248201527f536166654d6174683a207375627472616374696f6e206f766572666c6f770000604482015290519081900360640190fd5b50900390565b828054828255906000526020600020908101928215611cfa579160200282015b82811115611cfa57825182546001600160a01b0319166001600160a01b03909116178255602090920191600190910190611cc5565b50610e8b929150611d2a565b8154818355818111156111e8576000838152602090206111e8918101908301611d4e565b610e9391905b80821115610e8b5780546001600160a01b0319168155600101611d30565b610e9391905b80821115610e8b5760008155600101611d5456fe526570726573656e7473206d656d626572732077686f206172652061737369676e656420746f20766f7465206f6e207265736f6c76696e672064697370757465734d656d6265727368697020746f207468697320726f6c65206973206465746563746564206175746f6d61746963616c6c7953656c656374656420666577206d656d6265727320746861742061726520646565706c7920656e747275737465642062792074686520644170702e20416e20696465616c2061647669736f727920626f6172642073686f756c642062652061206d6978206f6620736b696c6c73206f6620646f6d61696e2c20676f7665726e616e63652c2072657365617263682c20746563686e6f6c6f67792c20636f6e73756c74696e672065746320746f20696d70726f76652074686520706572666f726d616e6365206f662074686520644170702e526570726573656e747320616c6c2075736572732077686f20686f6c64206441707020746f6b656e732e205468697320697320746865206d6f73742067656e6572616c2063617465676f727920616e6420616e796f6e6520686f6c64696e6720746f6b656e2062616c616e636520697320612070617274206f6620746869732063617465676f72792062792064656661756c742ea165627a7a72305820f28cdd6cf44723802f714a411ecdab7c929b8b18a5e7c6639d8096ea0d78efbb0029",
  "source": "/* Copyright (C) 2020 PlotX.io\n\n  This program is free software: you can redistribute it and/or modify\n    it under the terms of the GNU General Public License as published by\n    the Free Software Foundation, either version 3 of the License, or\n    (at your option) any later version.\n\n  This program is distributed in the hope that it will be useful,\n    but WITHOUT ANY WARRANTY; without even the implied warranty of\n    MERCHANTABILITY or FITNESS FOR A PARTICULAR PURPOSE.  See the\n    GNU General Public License for more details.\n\n  You should have received a copy of the GNU General Public License\n    along with this program.  If not, see http://www.gnu.org/licenses/ */\n\npragma solidity 0.5.7;\n\nimport \"./external/openzeppelin-solidity/math/SafeMath.sol\";\nimport \"./external/govblocks-protocol/interfaces/IMemberRoles.sol\";\nimport \"./external/govblocks-protocol/Governed.sol\";\nimport \"./external/proxy/OwnedUpgradeabilityProxy.sol\";\nimport \"./interfaces/Iupgradable.sol\";\nimport \"./interfaces/ITokenController.sol\";\n\ncontract MemberRoles is IMemberRoles, Governed, Iupgradable {\n\n    using SafeMath for uint256;\n\n    ITokenController internal tokenController;\n    struct MemberRoleDetails {\n        uint256 memberCounter;\n        mapping(address => uint256) memberIndex;\n        address[] memberAddress;\n        address authorized;\n    }\n\n    MemberRoleDetails[] internal memberRoleData;\n    bool internal constructorCheck;\n    address internal initiator;\n    uint256 internal minLockAmountForDR;\n    uint256 internal lockTimeForDR;\n\n    modifier checkRoleAuthority(uint256 _memberRoleId) {\n        if (memberRoleData[_memberRoleId].authorized != address(0))\n            require(\n                msg.sender == memberRoleData[_memberRoleId].authorized,\n                \"Not authorized\"\n            );\n        else require(isAuthorizedToGovern(msg.sender), \"Not Authorized\");\n        _;\n    }\n\n    /**\n     * @dev to swap advisory board member\n     * @param _newABAddress is address of new AB member\n     * @param _removeAB is advisory board member to be removed\n     */\n    function swapABMember(address _newABAddress, address _removeAB)\n        external\n        checkRoleAuthority(uint256(Role.AdvisoryBoard))\n    {\n        _updateRole(_newABAddress, uint256(Role.AdvisoryBoard), true);\n        _updateRole(_removeAB, uint256(Role.AdvisoryBoard), false);\n    }\n\n    /**\n     * @dev to change the master address\n     */\n    function setMasterAddress() public {\n        OwnedUpgradeabilityProxy proxy = OwnedUpgradeabilityProxy(\n            address(uint160(address(this)))\n        );\n        require(msg.sender == proxy.proxyOwner(), \"Sender is not proxy owner.\");\n\n        require(masterAddress == address(0), \"Master address already set\");\n        masterAddress = msg.sender;\n        IMaster masterInstance = IMaster(masterAddress);\n        tokenController = ITokenController(\n            masterInstance.getLatestAddress(\"TC\")\n        );\n        minLockAmountForDR = 500 ether;\n        lockTimeForDR = 15 days;\n    }\n\n    /**\n     * @dev Set the authorized address to add the initial roles and members\n     * @param _initiator is address of the initiator\n     */\n    function setInititorAddress(address _initiator) external {\n        OwnedUpgradeabilityProxy proxy = OwnedUpgradeabilityProxy(\n            address(uint160(address(this)))\n        );\n        require(msg.sender == proxy.proxyOwner(), \"Sender is not proxy owner.\");\n        require(initiator == address(0), \"Already Set\");\n        initiator = _initiator;\n    }\n\n    /**\n     * @dev to initiate the member roles and add initial AB, DR board members\n     * @param _abArray is array of addresses of the Initial AB members\n     */\n    function memberRolesInitiate(\n        address[] calldata _abArray\n    ) external {\n        require(msg.sender == initiator);\n        require(!constructorCheck, \"Already constructed\");\n        _addInitialMemberRoles();\n        for (uint256 i = 0; i < _abArray.length; i++) {\n            _updateRole(_abArray[i], uint256(Role.AdvisoryBoard), true);\n        }\n        constructorCheck = true;\n    }\n\n    /// @dev Adds new member role\n    /// @param _roleName New role name\n    /// @param _roleDescription New description hash\n    /// @param _authorized Authorized member against every role id\n    function addRole(\n        //solhint-disable-line\n        bytes32 _roleName,\n        string memory _roleDescription,\n        address _authorized\n    ) public onlyAuthorizedToGovern {\n        _addRole(_roleName, _roleDescription, _authorized);\n    }\n\n    /// @dev Assign or Delete a member from specific role.\n    /// @param _memberAddress Address of Member\n    /// @param _roleId RoleId to update\n    /// @param _active active is set to be True if we want to assign this role to member, False otherwise!\n    function updateRole(\n        //solhint-disable-line\n        address _memberAddress,\n        uint256 _roleId,\n        bool _active\n    ) public checkRoleAuthority(_roleId) {\n        _updateRole(_memberAddress, _roleId, _active);\n    }\n\n    /// @dev Return number of member roles\n    function totalRoles() public view returns (uint256) {\n        //solhint-disable-line\n        return memberRoleData.length;\n    }\n\n    /// @dev Change Member Address who holds the authority to Add/Delete any member from specific role.\n    /// @param _roleId roleId to update its Authorized Address\n    /// @param _newAuthorized New authorized address against role id\n    function changeAuthorized(uint256 _roleId, address _newAuthorized)\n        public\n        checkRoleAuthority(_roleId)\n    {\n        //solhint-disable-line\n        memberRoleData[_roleId].authorized = _newAuthorized;\n    }\n\n    /// @dev Gets the member addresses assigned by a specific role\n    /// @param _memberRoleId Member role id\n    /// @return roleId Role id\n    /// @return allMemberAddress Member addresses of specified role id\n    function members(uint256 _memberRoleId)\n        public\n        view\n        returns (uint256, address[] memory memberArray)\n    {\n        return (_memberRoleId, memberRoleData[_memberRoleId].memberAddress);\n    }\n\n    /// @dev Gets all members' length\n    /// @param _memberRoleId Member role id\n    /// @return memberRoleData[_memberRoleId].memberCounter Member length\n    function numberOfMembers(uint256 _memberRoleId)\n        public\n        view\n        returns (uint256)\n    {\n        //solhint-disable-line\n        return memberRoleData[_memberRoleId].memberCounter;\n    }\n\n    /// @dev Return member address who holds the right to add/remove any member from specific role.\n    function authorized(uint256 _memberRoleId) public view returns (address) {\n        //solhint-disable-line\n        return memberRoleData[_memberRoleId].authorized;\n    }\n\n    /// @dev Get All role ids array that has been assigned to a member so far.\n    function roles(address _memberAddress)\n        public\n        view\n        returns (uint256[] memory)\n    {\n        //solhint-disable-line\n        uint256 length = memberRoleData.length;\n        uint256[] memory assignedRoles = new uint256[](length);\n        uint256 counter = 0;\n        for (uint256 i = 1; i < length; i++) {\n            if (memberRoleData[i].memberIndex[_memberAddress] > 0) {\n                assignedRoles[counter] = i;\n                counter++;\n            }\n        }\n        if (tokenController.totalBalanceOf(_memberAddress) > 0) {\n            assignedRoles[counter] = uint256(Role.TokenHolder);\n            counter++;\n        }\n        if (tokenController.tokensLockedAtTime(_memberAddress, \"DR\", (lockTimeForDR).add(now)) >= minLockAmountForDR) {\n            assignedRoles[counter] = uint256(Role.DisputeResolution);\n        }\n        return assignedRoles;\n    }\n\n    /**\n     * @dev Updates Uint Parameters of a code\n     * @param code whose details we want to update\n     * @param val value to set\n     */\n    function updateUintParameters(bytes8 code, uint val) public onlyAuthorizedToGovern {\n        if(code == \"MNLOCKDR\") { //Minimum lock amount to consider user as DR member\n            minLockAmountForDR = val;\n        } else if (code == \"TLOCDR\") { // Lock period required for DR\n            lockTimeForDR = val * (1 days);\n        } \n    }\n\n    function getUintParameters(bytes8 code) external view returns(bytes8 codeVal, uint val) {\n        codeVal = code;\n        if(code == \"MNLOCKDR\") {\n            val = minLockAmountForDR;\n        } else if (code == \"TLOCDR\") { // Lock period required for DR\n            val = lockTimeForDR / (1 days);\n        } \n    }\n\n\n    /// @dev Returns true if the given role id is assigned to a member.\n    /// @param _memberAddress Address of member\n    /// @param _roleId Checks member's authenticity with the roleId.\n    /// i.e. Returns true if this roleId is assigned to member\n    function checkRole(address _memberAddress, uint256 _roleId)\n        public\n        view\n        returns (bool)\n    {\n        //solhint-disable-line\n        if (_roleId == uint256(Role.UnAssigned)) {\n            return true;\n        } else if (_roleId == uint256(Role.TokenHolder)) {\n            if (tokenController.totalBalanceOf(_memberAddress) > 0) {\n                return true;\n            }\n        } else if (_roleId == uint256(Role.DisputeResolution)) {\n            if (tokenController.tokensLockedAtTime(_memberAddress, \"DR\", (lockTimeForDR).add(now)) >= minLockAmountForDR) {\n                return true;\n            }\n        } else if (memberRoleData[_roleId].memberIndex[_memberAddress] > 0) {\n            //solhint-disable-line\n            return true;\n        }\n        return false;\n    }\n\n    /// @dev Return total number of members assigned against each role id.\n    /// @return totalMembers Total members in particular role id\n    function getMemberLengthForAllRoles()\n        public\n        view\n        returns (uint256[] memory totalMembers)\n    {\n        //solhint-disable-line\n        totalMembers = new uint256[](memberRoleData.length);\n        for (uint256 i = 0; i < memberRoleData.length; i++) {\n            totalMembers[i] = numberOfMembers(i);\n        }\n    }\n\n    /**\n     * @dev to update the member roles\n     * @param _memberAddress in concern\n     * @param _roleId the id of role\n     * @param _active if active is true, add the member, else remove it\n     */\n    function _updateRole(\n        address _memberAddress,\n        uint256 _roleId,\n        bool _active\n    ) internal {\n        require(\n            _roleId != uint256(Role.TokenHolder) && _roleId != uint256(Role.DisputeResolution),\n            \"Membership to this role is detected automatically\"\n        );\n        if (_active) {\n            require(\n                memberRoleData[_roleId].memberIndex[_memberAddress] == 0,\n                \"already active\"\n            );\n\n            memberRoleData[_roleId].memberCounter = SafeMath.add(\n                memberRoleData[_roleId].memberCounter,\n                1\n            );\n            memberRoleData[_roleId]\n                .memberIndex[_memberAddress] = memberRoleData[_roleId]\n                .memberAddress\n                .length;\n            memberRoleData[_roleId].memberAddress.push(_memberAddress);\n        } else {\n            //Remove the selected member and swap its index with the member at last index\n            require(\n                memberRoleData[_roleId].memberIndex[_memberAddress] > 0,\n                \"not active\"\n            );\n            uint256 _memberIndex = memberRoleData[_roleId]\n                .memberIndex[_memberAddress];\n            address _topElement = memberRoleData[_roleId]\n                .memberAddress[memberRoleData[_roleId].memberCounter];\n            memberRoleData[_roleId].memberIndex[_topElement] = _memberIndex;\n            memberRoleData[_roleId].memberCounter = SafeMath.sub(\n                memberRoleData[_roleId].memberCounter,\n                1\n            );\n            memberRoleData[_roleId].memberAddress[_memberIndex] = _topElement;\n            memberRoleData[_roleId].memberAddress.length--;\n            delete memberRoleData[_roleId].memberIndex[_memberAddress];\n        }\n    }\n\n    /// @dev Adds new member role\n    /// @param _roleName New role name\n    /// @param _roleDescription New description hash\n    /// @param _authorized Authorized member against every role id\n    function _addRole(\n        bytes32 _roleName,\n        string memory _roleDescription,\n        address _authorized\n    ) internal {\n        emit MemberRole(memberRoleData.length, _roleName, _roleDescription);\n        memberRoleData.push(\n            MemberRoleDetails(0, new address[](1), _authorized)\n        );\n    }\n\n    /**\n     * @dev to add initial member roles\n     */\n    function _addInitialMemberRoles() internal {\n        _addRole(\"Unassigned\", \"Unassigned\", address(0));\n        _addRole(\n            \"Advisory Board\",\n            \"Selected few members that are deeply entrusted by the dApp. An ideal advisory board should be a mix of skills of domain, governance, research, technology, consulting etc to improve the performance of the dApp.\", //solhint-disable-line\n            address(0)\n        );\n        _addRole(\n            \"Token Holder\",\n            \"Represents all users who hold dApp tokens. This is the most general category and anyone holding token balance is a part of this category by default.\", //solhint-disable-line\n            address(0)\n        );\n        _addRole(\n            \"DisputeResolution\",\n            \"Represents members who are assigned to vote on resolving disputes\", //solhint-disable-line\n            address(0)\n        );\n    }\n}\n",
  "sourcePath": "/home/madan/Documents/PlotX/PlotxContract/contracts/MemberRoles.sol",
  "compiler": {
    "name": "solc",
    "version": "0.5.7+commit.6da8b019.Emscripten.clang"
  },
  "schemaVersion": "3.3.2",
  "updatedAt": "2020-12-10T08:30:24.922Z",
  "devdoc": {
    "methods": {
      "addRole(bytes32,string,address)": {
        "details": "Adds new member role",
        "params": {
          "_authorized": "Authorized member against every role id",
          "_roleDescription": "New description hash",
          "_roleName": "New role name"
        }
      },
      "authorized(uint256)": {
        "details": "Return member address who holds the right to add/remove any member from specific role."
      },
      "changeAuthorized(uint256,address)": {
        "details": "Change Member Address who holds the authority to Add/Delete any member from specific role.",
        "params": {
          "_newAuthorized": "New authorized address against role id",
          "_roleId": "roleId to update its Authorized Address"
        }
      },
      "checkRole(address,uint256)": {
        "details": "Returns true if the given role id is assigned to a member.",
        "params": {
          "_memberAddress": "Address of member",
          "_roleId": "Checks member's authenticity with the roleId. i.e. Returns true if this roleId is assigned to member"
        }
      },
      "getMemberLengthForAllRoles()": {
        "details": "Return total number of members assigned against each role id.",
        "return": "totalMembers Total members in particular role id"
      },
      "isAuthorizedToGovern(address)": {
        "details": "checks if an address is authorized to govern"
      },
      "memberRolesInitiate(address[])": {
        "details": "to initiate the member roles and add initial AB, DR board members",
        "params": {
          "_abArray": "is array of addresses of the Initial AB members"
        }
      },
      "members(uint256)": {
        "details": "Gets the member addresses assigned by a specific role",
        "params": {
          "_memberRoleId": "Member role id"
        },
        "return": "roleId Role idallMemberAddress Member addresses of specified role id"
      },
      "numberOfMembers(uint256)": {
        "details": "Gets all members' length",
        "params": {
          "_memberRoleId": "Member role id"
        },
        "return": "memberRoleData[_memberRoleId].memberCounter Member length"
      },
      "roles(address)": {
        "details": "Get All role ids array that has been assigned to a member so far."
      },
      "setInititorAddress(address)": {
        "details": "Set the authorized address to add the initial roles and members",
        "params": {
          "_initiator": "is address of the initiator"
        }
      },
      "setMasterAddress()": {
        "details": "to change the master address"
      },
      "swapABMember(address,address)": {
        "details": "to swap advisory board member",
        "params": {
          "_newABAddress": "is address of new AB member",
          "_removeAB": "is advisory board member to be removed"
        }
      },
      "totalRoles()": {
        "details": "Return number of member roles"
      },
      "updateRole(address,uint256,bool)": {
        "details": "Assign or Delete a member from specific role.",
        "params": {
          "_active": "active is set to be True if we want to assign this role to member, False otherwise!",
          "_memberAddress": "Address of Member",
          "_roleId": "RoleId to update"
        }
      },
      "updateUintParameters(bytes8,uint256)": {
        "details": "Updates Uint Parameters of a code",
        "params": {
          "code": "whose details we want to update",
          "val": "value to set"
        }
      }
    }
  },
  "userdoc": {
    "methods": {}
  }
}