{
  "contractName": "MockPLOT",
  "abi": [
    {
      "constant": false,
      "inputs": [
        {
          "name": "_newOperator",
          "type": "address"
        }
      ],
      "name": "changeOperator",
      "outputs": [
        {
          "name": "",
          "type": "bool"
        }
      ],
      "payable": false,
      "stateMutability": "nonpayable",
      "type": "function"
    },
    {
      "constant": true,
      "inputs": [],
      "name": "name",
      "outputs": [
        {
          "name": "",
          "type": "string"
        }
      ],
      "payable": false,
      "stateMutability": "view",
      "type": "function"
    },
    {
      "constant": false,
      "inputs": [
        {
          "name": "spender",
          "type": "address"
        },
        {
          "name": "value",
          "type": "uint256"
        }
      ],
      "name": "approve",
      "outputs": [
        {
          "name": "",
          "type": "bool"
        }
      ],
      "payable": false,
      "stateMutability": "nonpayable",
      "type": "function"
    },
    {
      "constant": false,
      "inputs": [
        {
          "name": "userAddress",
          "type": "address"
        },
        {
          "name": "functionSignature",
          "type": "bytes"
        },
        {
          "name": "sigR",
          "type": "bytes32"
        },
        {
          "name": "sigS",
          "type": "bytes32"
        },
        {
          "name": "sigV",
          "type": "uint8"
        }
      ],
      "name": "executeMetaTransaction",
      "outputs": [
        {
          "name": "",
          "type": "bytes"
        }
      ],
      "payable": true,
      "stateMutability": "payable",
      "type": "function"
    },
    {
      "constant": true,
      "inputs": [],
      "name": "_msgSender",
      "outputs": [
        {
          "name": "sender",
          "type": "address"
        }
      ],
      "payable": false,
      "stateMutability": "view",
      "type": "function"
    },
    {
      "constant": true,
      "inputs": [],
      "name": "totalSupply",
      "outputs": [
        {
          "name": "",
          "type": "uint256"
        }
      ],
      "payable": false,
      "stateMutability": "view",
      "type": "function"
    },
    {
      "constant": false,
      "inputs": [
        {
          "name": "from",
          "type": "address"
        },
        {
          "name": "to",
          "type": "address"
        },
        {
          "name": "value",
          "type": "uint256"
        }
      ],
      "name": "transferFrom",
      "outputs": [
        {
          "name": "",
          "type": "bool"
        }
      ],
      "payable": false,
      "stateMutability": "nonpayable",
      "type": "function"
    },
    {
      "constant": true,
      "inputs": [
        {
          "name": "user",
          "type": "address"
        }
      ],
      "name": "getNonce",
      "outputs": [
        {
          "name": "nonce",
          "type": "uint256"
        }
      ],
      "payable": false,
      "stateMutability": "view",
      "type": "function"
    },
    {
      "constant": true,
      "inputs": [],
      "name": "decimals",
      "outputs": [
        {
          "name": "",
          "type": "uint8"
        }
      ],
      "payable": false,
      "stateMutability": "view",
      "type": "function"
    },
    {
      "constant": false,
      "inputs": [
        {
          "name": "spender",
          "type": "address"
        },
        {
          "name": "addedValue",
          "type": "uint256"
        }
      ],
      "name": "increaseAllowance",
      "outputs": [
        {
          "name": "",
          "type": "bool"
        }
      ],
      "payable": false,
      "stateMutability": "nonpayable",
      "type": "function"
    },
    {
      "constant": false,
      "inputs": [
        {
          "name": "account",
          "type": "address"
        },
        {
          "name": "amount",
          "type": "uint256"
        }
      ],
      "name": "mint",
      "outputs": [
        {
          "name": "",
          "type": "bool"
        }
      ],
      "payable": false,
      "stateMutability": "nonpayable",
      "type": "function"
    },
    {
      "constant": false,
      "inputs": [
        {
          "name": "amount",
          "type": "uint256"
        }
      ],
      "name": "burn",
      "outputs": [],
      "payable": false,
      "stateMutability": "nonpayable",
      "type": "function"
    },
    {
      "constant": true,
      "inputs": [],
      "name": "getChainID",
      "outputs": [
        {
          "name": "",
          "type": "uint256"
        }
      ],
      "payable": false,
      "stateMutability": "pure",
      "type": "function"
    },
    {
      "constant": true,
      "inputs": [],
      "name": "operator",
      "outputs": [
        {
          "name": "",
          "type": "address"
        }
      ],
      "payable": false,
      "stateMutability": "view",
      "type": "function"
    },
    {
      "constant": true,
      "inputs": [
        {
          "name": "",
          "type": "address"
        }
      ],
      "name": "lockedForGV",
      "outputs": [
        {
          "name": "",
          "type": "uint256"
        }
      ],
      "payable": false,
      "stateMutability": "view",
      "type": "function"
    },
    {
      "constant": true,
      "inputs": [
        {
          "name": "owner",
          "type": "address"
        },
        {
          "name": "nonce",
          "type": "uint256"
        },
        {
          "name": "chainID",
          "type": "uint256"
        },
        {
          "name": "functionSignature",
          "type": "bytes"
        },
        {
          "name": "sigR",
          "type": "bytes32"
        },
        {
          "name": "sigS",
          "type": "bytes32"
        },
        {
          "name": "sigV",
          "type": "uint8"
        }
      ],
      "name": "verify",
      "outputs": [
        {
          "name": "",
          "type": "bool"
        }
      ],
      "payable": false,
      "stateMutability": "view",
      "type": "function"
    },
    {
      "constant": true,
      "inputs": [
        {
          "name": "account",
          "type": "address"
        }
      ],
      "name": "balanceOf",
      "outputs": [
        {
          "name": "",
          "type": "uint256"
        }
      ],
      "payable": false,
      "stateMutability": "view",
      "type": "function"
    },
    {
      "constant": false,
      "inputs": [
        {
          "name": "from",
          "type": "address"
        },
        {
          "name": "value",
          "type": "uint256"
        }
      ],
      "name": "burnFrom",
      "outputs": [],
      "payable": false,
      "stateMutability": "nonpayable",
      "type": "function"
    },
    {
      "constant": true,
      "inputs": [],
      "name": "symbol",
      "outputs": [
        {
          "name": "",
          "type": "string"
        }
      ],
      "payable": false,
      "stateMutability": "view",
      "type": "function"
    },
    {
      "constant": false,
      "inputs": [
        {
          "name": "spender",
          "type": "address"
        },
        {
          "name": "subtractedValue",
          "type": "uint256"
        }
      ],
      "name": "decreaseAllowance",
      "outputs": [
        {
          "name": "",
          "type": "bool"
        }
      ],
      "payable": false,
      "stateMutability": "nonpayable",
      "type": "function"
    },
    {
      "constant": false,
      "inputs": [
        {
          "name": "to",
          "type": "address"
        },
        {
          "name": "value",
          "type": "uint256"
        }
      ],
      "name": "transfer",
      "outputs": [
        {
          "name": "",
          "type": "bool"
        }
      ],
      "payable": false,
      "stateMutability": "nonpayable",
      "type": "function"
    },
    {
      "constant": true,
      "inputs": [
        {
          "name": "owner",
          "type": "address"
        },
        {
          "name": "spender",
          "type": "address"
        }
      ],
      "name": "allowance",
      "outputs": [
        {
          "name": "",
          "type": "uint256"
        }
      ],
      "payable": false,
      "stateMutability": "view",
      "type": "function"
    },
    {
      "constant": false,
      "inputs": [
        {
          "name": "_of",
          "type": "address"
        },
        {
          "name": "_period",
          "type": "uint256"
        }
      ],
      "name": "lockForGovernanceVote",
      "outputs": [],
      "payable": false,
      "stateMutability": "nonpayable",
      "type": "function"
    },
    {
      "constant": true,
      "inputs": [
        {
          "name": "_of",
          "type": "address"
        }
      ],
      "name": "isLockedForGV",
      "outputs": [
        {
          "name": "",
          "type": "bool"
        }
      ],
      "payable": false,
      "stateMutability": "view",
      "type": "function"
    },
    {
      "inputs": [
        {
          "name": "initialSupply",
          "type": "uint256"
        },
        {
          "name": "owner",
          "type": "address"
        }
      ],
      "payable": false,
      "stateMutability": "nonpayable",
      "type": "constructor"
    },
    {
      "anonymous": false,
      "inputs": [
        {
          "indexed": true,
          "name": "from",
          "type": "address"
        },
        {
          "indexed": true,
          "name": "to",
          "type": "address"
        },
        {
          "indexed": false,
          "name": "value",
          "type": "uint256"
        }
      ],
      "name": "Transfer",
      "type": "event"
    },
    {
      "anonymous": false,
      "inputs": [
        {
          "indexed": true,
          "name": "owner",
          "type": "address"
        },
        {
          "indexed": true,
          "name": "spender",
          "type": "address"
        },
        {
          "indexed": false,
          "name": "value",
          "type": "uint256"
        }
      ],
      "name": "Approval",
      "type": "event"
    },
    {
      "anonymous": false,
      "inputs": [
        {
          "indexed": false,
          "name": "userAddress",
          "type": "address"
        },
        {
          "indexed": false,
          "name": "relayerAddress",
          "type": "address"
        },
        {
          "indexed": false,
          "name": "functionSignature",
          "type": "bytes"
        }
      ],
      "name": "MetaTransactionExecuted",
      "type": "event"
    },
    {
      "constant": false,
      "inputs": [
        {
          "name": "_of",
          "type": "address"
        },
        {
          "name": "_amount",
          "type": "uint256"
        }
      ],
      "name": "burnTokens",
      "outputs": [],
      "payable": false,
      "stateMutability": "nonpayable",
      "type": "function"
    }
  ],
  "bytecode": "0x60c0604052600460808190527f504c4f540000000000000000000000000000000000000000000000000000000060a0908152620000409160059190620002b1565b506040805180820190915260048082527f504c4f540000000000000000000000000000000000000000000000000000000060209092019182526200008791600691620002b1565b506007805460ff19166012179055348015620000a257600080fd5b5060405160408062001ce883398101806040526040811015620000c457600080fd5b508051602091820151909182908290620000e6908290849062000116811b901c565b600780546001600160a01b0390921661010002610100600160a81b03199092169190911790555062000356915050565b6001600160a01b0382166200018c57604080517f08c379a000000000000000000000000000000000000000000000000000000000815260206004820152601f60248201527f45524332303a206d696e7420746f20746865207a65726f206164647265737300604482015290519081900360640190fd5b620001a8816004546200023560201b620013ae1790919060201c565b6004556001600160a01b038216600090815260026020908152604090912054620001dd918390620013ae62000235821b17901c565b6001600160a01b03831660008181526002602090815260408083209490945583518581529351929391927fddf252ad1be2c89b69c2b068fc378daa952ba7f163c4a11628f55a4df523b3ef9281900390910190a35050565b600082820183811015620002aa57604080517f08c379a000000000000000000000000000000000000000000000000000000000815260206004820152601b60248201527f536166654d6174683a206164646974696f6e206f766572666c6f770000000000604482015290519081900360640190fd5b9392505050565b828054600181600116156101000203166002900490600052602060002090601f016020900481019282601f10620002f457805160ff191683800117855562000324565b8280016001018555821562000324579182015b828111156200032457825182559160200191906001019062000307565b506200033292915062000336565b5090565b6200035391905b808211156200033257600081556001016200033d565b90565b61198280620003666000396000f3fe6080604052600436106101665760003560e01c806342966c68116100d157806379cc67901161008a578063a9059cbb11610064578063a9059cbb146106fd578063dd62ed3e14610736578063e8176caa14610771578063f8023eb3146107aa57610166565b806379cc67901461067657806395d89b41146106af578063a457c2d7146106c457610166565b806342966c68146104df578063564b81ef14610509578063570ca7351461051e5780636172983b146105335780636281133d1461056657806370a082311461064357610166565b806318160ddd1161012357806318160ddd146103a557806323b872dd146103cc5780632d0335ab1461040f578063313ce56714610442578063395093511461046d57806340c10f19146104a657610166565b806306394c9b1461016b57806306fdde03146101b2578063095ea7b31461023c5780630c53c51c146102755780630d1118ce14610339578063119df25f14610374575b600080fd5b34801561017757600080fd5b5061019e6004803603602081101561018e57600080fd5b50356001600160a01b03166107dd565b604080519115158252519081900360200190f35b3480156101be57600080fd5b506101c76108d1565b6040805160208082528351818301528351919283929083019185019080838360005b838110156102015781810151838201526020016101e9565b50505050905090810190601f16801561022e5780820380516001836020036101000a031916815260200191505b509250505060405180910390f35b34801561024857600080fd5b5061019e6004803603604081101561025f57600080fd5b506001600160a01b03813516906020013561095f565b6101c7600480360360a081101561028b57600080fd5b6001600160a01b0382351691908101906040810160208201356401000000008111156102b657600080fd5b8201836020820111156102c857600080fd5b803590602001918460018302840111640100000000831117156102ea57600080fd5b91908080601f016020809104026020016040519081016040528093929190818152602001838380828437600092019190915250929550508235935050506020810135906040013560ff1661097c565b34801561034557600080fd5b506103726004803603604081101561035c57600080fd5b506001600160a01b038135169060200135610c8e565b005b34801561038057600080fd5b50610389610c9c565b604080516001600160a01b039092168252519081900360200190f35b3480156103b157600080fd5b506103ba610cfa565b60408051918252519081900360200190f35b3480156103d857600080fd5b5061019e600480360360608110156103ef57600080fd5b506001600160a01b03813581169160208101359091169060400135610d00565b34801561041b57600080fd5b506103ba6004803603602081101561043257600080fd5b50356001600160a01b0316610d84565b34801561044e57600080fd5b50610457610d9f565b6040805160ff9092168252519081900360200190f35b34801561047957600080fd5b5061019e6004803603604081101561049057600080fd5b506001600160a01b038135169060200135610da8565b3480156104b257600080fd5b5061019e600480360360408110156104c957600080fd5b506001600160a01b038135169060200135610e01565b3480156104eb57600080fd5b506103726004803603602081101561050257600080fd5b5035610e77565b34801561051557600080fd5b506103ba610e8b565b34801561052a57600080fd5b50610389610e90565b34801561053f57600080fd5b506103ba6004803603602081101561055657600080fd5b50356001600160a01b0316610ea4565b34801561057257600080fd5b5061019e600480360360e081101561058957600080fd5b6001600160a01b0382351691602081013591604082013591908101906080810160608201356401000000008111156105c057600080fd5b8201836020820111156105d257600080fd5b803590602001918460018302840111640100000000831117156105f457600080fd5b91908080601f016020809104026020016040519081016040528093929190818152602001838380828437600092019190915250929550508235935050506020810135906040013560ff16610eb6565b34801561064f57600080fd5b506103ba6004803603602081101561066657600080fd5b50356001600160a01b0316611044565b34801561068257600080fd5b506103726004803603604081101561069957600080fd5b506001600160a01b03813516906020013561105f565b3480156106bb57600080fd5b506101c7611069565b3480156106d057600080fd5b5061019e600480360360408110156106e757600080fd5b506001600160a01b0381351690602001356110c4565b34801561070957600080fd5b5061019e6004803603604081101561072057600080fd5b506001600160a01b038135169060200135611118565b34801561074257600080fd5b506103ba6004803603604081101561075957600080fd5b506001600160a01b03813581169160200135166111af565b34801561077d57600080fd5b506103726004803603604081101561079457600080fd5b506001600160a01b0381351690602001356111da565b3480156107b657600080fd5b5061019e600480360360208110156107cd57600080fd5b50356001600160a01b031661129f565b60075460009061010090046001600160a01b03166107f9610c9c565b6001600160a01b0316146108495760408051600160e51b62461bcd02815260206004820152600c6024820152600160a11b6b2737ba1037b832b930ba37b902604482015290519081900360640190fd5b6001600160a01b0382166108a75760408051600160e51b62461bcd02815260206004820181905260248201527f4e6577206f70657261746f722063616e6e6f7420626520302061646472657373604482015290519081900360640190fd5b50600780546001600160a01b03831661010002610100600160a81b03199091161790556001919050565b6005805460408051602060026001851615610100026000190190941693909304601f810184900484028201840190925281815292918301828280156109575780601f1061092c57610100808354040283529160200191610957565b820191906000526020600020905b81548152906001019060200180831161093a57829003601f168201915b505050505081565b600061097361096c610c9c565b84846112bc565b50600192915050565b6001600160a01b0385166000908152602081905260409020546060906109af9087906109a6610e8b565b88888888610eb6565b6109ed57604051600160e51b62461bcd0281526004018080602001828103825260218152602001806118cc6021913960400191505060405180910390fd5b6001600160a01b038616600090815260208190526040902054610a1790600163ffffffff6113ae16565b600080886001600160a01b03166001600160a01b031681526020019081526020016000208190555060006060306001600160a01b031687896040516020018083805190602001908083835b60208310610a815780518252601f199092019160209182019101610a62565b51815160209384036101000a60001901801990921691161790526001600160a01b039590951660601b92019182525060408051808303600b190181526014909201908190528151919450928392508401908083835b60208310610af55780518252601f199092019160209182019101610ad6565b6001836020036101000a0380198251168184511680821785525050505050509050019150506000604051808303816000865af19150503d8060008114610b57576040519150601f19603f3d011682016040523d82523d6000602084013e610b5c565b606091505b509150915081610bb65760408051600160e51b62461bcd02815260206004820152601c60248201527f46756e6374696f6e2063616c6c206e6f74207375636365737366756c00000000604482015290519081900360640190fd5b7f5845892132946850460bff5a0083f71031bc5bf9aadcd40f1de79423eac9b10b88338960405180846001600160a01b03166001600160a01b03168152602001836001600160a01b03166001600160a01b0316815260200180602001828103825283818151815260200191508051906020019080838360005b83811015610c47578181015183820152602001610c2f565b50505050905090810190601f168015610c745780820380516001836020036101000a031916815260200191505b5094505050505060405180910390a1979650505050505050565b610c988282611412565b5050565b600033301415610cf45760606000368080601f0160208091040260200160405190810160405280939291908181526020018383808284376000920191909152505050503601516001600160a01b03169150610cf79050565b50335b90565b60045490565b6001600160a01b0383166000908152600160205260408120544211610d6f5760408051600160e51b62461bcd02815260206004820152601560248201527f4c6f636b656420666f7220676f7665726e616e63650000000000000000000000604482015290519081900360640190fd5b610d7a8484846114f0565b5060019392505050565b6001600160a01b031660009081526020819052604090205490565b60075460ff1681565b6000610973610db5610c9c565b84610dfc8560036000610dc6610c9c565b6001600160a01b03908116825260208083019390935260409182016000908120918c16815292529020549063ffffffff6113ae16565b6112bc565b60075460009061010090046001600160a01b0316610e1d610c9c565b6001600160a01b031614610e6d5760408051600160e51b62461bcd02815260206004820152600c6024820152600160a11b6b2737ba1037b832b930ba37b902604482015290519081900360640190fd5b6109738383611559565b610e88610e82610c9c565b82611412565b50565b608990565b60075461010090046001600160a01b031681565b60016020526000908152604090205481565b600080610f5c8830898960405160200180858152602001846001600160a01b03166001600160a01b031660601b815260140183815260200182805190602001908083835b60208310610f195780518252601f199092019160209182019101610efa565b6001836020036101000a0380198251168184511680821785525050505050509050019450505050506040516020818303038152906040528051906020012061164e565b9050600060018285888860405160008152602001604052604051808581526020018460ff1660ff1681526020018381526020018281526020019450505050506020604051602081039080840390855afa158015610fbd573d6000803e3d6000fd5b5050604051601f1901519150506001600160a01b0381166110285760408051600160e51b62461bcd02815260206004820152601160248201527f496e76616c6964207369676e6174757265000000000000000000000000000000604482015290519081900360640190fd5b6001600160a01b038a8116911614915050979650505050505050565b6001600160a01b031660009081526002602052604090205490565b610c98828261169f565b6006805460408051602060026001851615610100026000190190941693909304601f810184900484028201840190925281815292918301828280156109575780601f1061092c57610100808354040283529160200191610957565b60006109736110d1610c9c565b84610dfc85600360006110e2610c9c565b6001600160a01b03908116825260208083019390935260409182016000908120918c16815292529020549063ffffffff6116dc16565b60004260016000611127610c9c565b6001600160a01b03166001600160a01b03168152602001908152602001600020541061119d5760408051600160e51b62461bcd02815260206004820152601560248201527f4c6f636b656420666f7220676f7665726e616e63650000000000000000000000604482015290519081900360640190fd5b6109736111a8610c9c565b848461173c565b6001600160a01b03918216600090815260036020908152604080832093909416825291909152205490565b60075461010090046001600160a01b03166111f3610c9c565b6001600160a01b0316146112435760408051600160e51b62461bcd02815260206004820152600c6024820152600160a11b6b2737ba1037b832b930ba37b902604482015290519081900360640190fd5b6001600160a01b03821660009081526001602052604090205461126c824263ffffffff6113ae16565b1115610c9857611282814263ffffffff6113ae16565b6001600160a01b0383166000908152600160205260409020555050565b6001600160a01b0316600090815260016020526040902054421090565b6001600160a01b03831661130457604051600160e51b62461bcd0281526004018080602001828103825260248152602001806119336024913960400191505060405180910390fd5b6001600160a01b03821661134c57604051600160e51b62461bcd0281526004018080602001828103825260228152602001806118aa6022913960400191505060405180910390fd5b6001600160a01b03808416600081815260036020908152604080832094871680845294825291829020859055815185815291517f8c5be1e5ebec7d5bd14f71427d1e84f3dd0314c0f7b2291e5b200ac8c7c3b9259281900390910190a3505050565b60008282018381101561140b5760408051600160e51b62461bcd02815260206004820152601b60248201527f536166654d6174683a206164646974696f6e206f766572666c6f770000000000604482015290519081900360640190fd5b9392505050565b6001600160a01b03821661145a57604051600160e51b62461bcd0281526004018080602001828103825260218152602001806118ed6021913960400191505060405180910390fd5b60045461146d908263ffffffff6116dc16565b6004556001600160a01b038216600090815260026020526040902054611499908263ffffffff6116dc16565b6001600160a01b0383166000818152600260209081526040808320949094558351858152935191937fddf252ad1be2c89b69c2b068fc378daa952ba7f163c4a11628f55a4df523b3ef929081900390910190a35050565b6114fb83838361173c565b61155483611507610c9c565b6001600160a01b0386166000908152600360205260408120610dfc9186919061152e610c9c565b6001600160a01b031681526020810191909152604001600020549063ffffffff6116dc16565b505050565b6001600160a01b0382166115b75760408051600160e51b62461bcd02815260206004820152601f60248201527f45524332303a206d696e7420746f20746865207a65726f206164647265737300604482015290519081900360640190fd5b6004546115ca908263ffffffff6113ae16565b6004556001600160a01b0382166000908152600260205260409020546115f6908263ffffffff6113ae16565b6001600160a01b03831660008181526002602090815260408083209490945583518581529351929391927fddf252ad1be2c89b69c2b068fc378daa952ba7f163c4a11628f55a4df523b3ef9281900390910190a35050565b604080517f19457468657265756d205369676e6564204d6573736167653a0a333200000000602080830191909152603c8083019490945282518083039094018452605c909101909152815191012090565b6116a98282611412565b610c98826116b5610c9c565b6001600160a01b0385166000908152600360205260408120610dfc9186919061152e610c9c565b6000828211156117365760408051600160e51b62461bcd02815260206004820152601e60248201527f536166654d6174683a207375627472616374696f6e206f766572666c6f770000604482015290519081900360640190fd5b50900390565b6001600160a01b03831661178457604051600160e51b62461bcd02815260040180806020018281038252602581526020018061190e6025913960400191505060405180910390fd5b6001600160a01b0382166117cc57604051600160e51b62461bcd0281526004018080602001828103825260238152602001806118876023913960400191505060405180910390fd5b6001600160a01b0383166000908152600260205260409020546117f5908263ffffffff6116dc16565b6001600160a01b03808516600090815260026020526040808220939093559084168152205461182a908263ffffffff6113ae16565b6001600160a01b0380841660008181526002602090815260409182902094909455805185815290519193928716927fddf252ad1be2c89b69c2b068fc378daa952ba7f163c4a11628f55a4df523b3ef92918290030190a350505056fe45524332303a207472616e7366657220746f20746865207a65726f206164647265737345524332303a20617070726f766520746f20746865207a65726f20616464726573735369676e657220616e64207369676e617475726520646f206e6f74206d6174636845524332303a206275726e2066726f6d20746865207a65726f206164647265737345524332303a207472616e736665722066726f6d20746865207a65726f206164647265737345524332303a20617070726f76652066726f6d20746865207a65726f2061646472657373a165627a7a72305820d04083d9b555795d29bb5700ac506dc2a4095fd90a79a745148ed4bf230378a70029",
  "source": "pragma solidity 0.5.7;\nimport \"../PlotXToken.sol\";\n\ncontract MockPLOT is PlotXToken {\n\n\tconstructor(uint256 initialSupply, address owner) public PlotXToken(initialSupply, owner) {\n    }\n\n\tfunction burnTokens(address _of, uint _amount) external {\n        _burn(_of, _amount);\n\t}\n}",
  "sourcePath": "/home/madan/Documents/PlotX/PlotxContract/contracts/mock/MockPLOT.sol",
  "compiler": {
    "name": "solc",
    "version": "0.5.7+commit.6da8b019.Emscripten.clang"
  },
  "schemaVersion": "3.3.2",
  "updatedAt": "2020-12-10T08:39:39.301Z",
  "networkType": "ethereum",
  "devdoc": {
    "methods": {
      "allowance(address,address)": {
        "details": "See `IERC20.allowance`."
      },
      "balanceOf(address)": {
        "details": "See `IERC20.balanceOf`."
      },
      "burn(uint256)": {
        "details": "burns an amount of the tokens of the message sender account.",
        "params": {
          "amount": "The amount that will be burnt."
        }
      },
      "burnFrom(address,uint256)": {
        "details": "Burns a specific amount of tokens from the target address and decrements allowance",
        "params": {
          "from": "address The address which you want to send tokens from",
          "value": "uint256 The amount of token to be burned"
        }
      },
      "changeOperator(address)": {
        "details": "change operator address",
        "params": {
          "_newOperator": "address of new operator"
        }
      },
      "executeMetaTransaction(address,bytes,bytes32,bytes32,uint8)": {
        "params": {
          "functionSignature": "Signature of the actual function to be called via meta transaction",
          "sigR": "R part of the signature",
          "sigS": "S part of the signature",
          "sigV": "V part of the signature",
          "userAddress": "Address of user trying to do meta transaction"
        }
      },
      "lockForGovernanceVote(address,uint256)": {
        "details": "Lock the user's tokens",
        "params": {
          "_of": "user's address."
        }
      },
      "mint(address,uint256)": {
        "details": "function that mints an amount of the token and assigns it to an account.",
        "params": {
          "account": "The account that will receive the created tokens.",
          "amount": "The amount that will be created."
        }
      },
      "totalSupply()": {
        "details": "See `IERC20.totalSupply`."
      },
      "transfer(address,uint256)": {
        "details": "Transfer token for a specified address",
        "params": {
          "to": "The address to transfer to.",
          "value": "The amount to be transferred."
        }
      },
      "transferFrom(address,address,uint256)": {
        "details": "Transfer tokens from one address to another",
        "params": {
          "from": "address The address which you want to send tokens from",
          "to": "address The address which you want to transfer to",
          "value": "uint256 the amount of tokens to be transferred"
        }
      }
    }
  },
  "userdoc": {
    "methods": {
      "executeMetaTransaction(address,bytes,bytes32,bytes32,uint8)": {
        "notice": "Main function to be called when user wants to execute meta transaction. The actual function to be called should be passed as param with name functionSignature Here the basic signature recovery is being used. Signature is expected to be generated using personal_sign method."
      }
    }
  }
}