{
  "contractName": "MockWeth",
  "abi": [
    {
      "constant": true,
      "inputs": [],
      "name": "name",
      "outputs": [
        {
          "name": "",
          "type": "string"
        }
      ],
      "payable": false,
      "stateMutability": "view",
      "type": "function"
    },
    {
      "constant": true,
      "inputs": [],
      "name": "decimals",
      "outputs": [
        {
          "name": "",
          "type": "uint8"
        }
      ],
      "payable": false,
      "stateMutability": "view",
      "type": "function"
    },
    {
      "constant": true,
      "inputs": [
        {
          "name": "",
          "type": "address"
        }
      ],
      "name": "balanceOf",
      "outputs": [
        {
          "name": "",
          "type": "uint256"
        }
      ],
      "payable": false,
      "stateMutability": "view",
      "type": "function"
    },
    {
      "constant": true,
      "inputs": [],
      "name": "symbol",
      "outputs": [
        {
          "name": "",
          "type": "string"
        }
      ],
      "payable": false,
      "stateMutability": "view",
      "type": "function"
    },
    {
      "constant": true,
      "inputs": [
        {
          "name": "",
          "type": "address"
        },
        {
          "name": "",
          "type": "address"
        }
      ],
      "name": "allowance",
      "outputs": [
        {
          "name": "",
          "type": "uint256"
        }
      ],
      "payable": false,
      "stateMutability": "view",
      "type": "function"
    },
    {
      "payable": true,
      "stateMutability": "payable",
      "type": "fallback"
    },
    {
      "constant": false,
      "inputs": [],
      "name": "deposit",
      "outputs": [],
      "payable": true,
      "stateMutability": "payable",
      "type": "function"
    },
    {
      "constant": false,
      "inputs": [
        {
          "name": "wad",
          "type": "uint256"
        }
      ],
      "name": "withdraw",
      "outputs": [],
      "payable": false,
      "stateMutability": "nonpayable",
      "type": "function"
    },
    {
      "constant": true,
      "inputs": [],
      "name": "totalSupply",
      "outputs": [
        {
          "name": "",
          "type": "uint256"
        }
      ],
      "payable": false,
      "stateMutability": "view",
      "type": "function"
    },
    {
      "constant": false,
      "inputs": [
        {
          "name": "guy",
          "type": "address"
        },
        {
          "name": "wad",
          "type": "uint256"
        }
      ],
      "name": "approve",
      "outputs": [
        {
          "name": "",
          "type": "bool"
        }
      ],
      "payable": false,
      "stateMutability": "nonpayable",
      "type": "function"
    },
    {
      "constant": false,
      "inputs": [
        {
          "name": "dst",
          "type": "address"
        },
        {
          "name": "wad",
          "type": "uint256"
        }
      ],
      "name": "transfer",
      "outputs": [
        {
          "name": "",
          "type": "bool"
        }
      ],
      "payable": false,
      "stateMutability": "nonpayable",
      "type": "function"
    },
    {
      "constant": false,
      "inputs": [
        {
          "name": "src",
          "type": "address"
        },
        {
          "name": "dst",
          "type": "address"
        },
        {
          "name": "wad",
          "type": "uint256"
        }
      ],
      "name": "transferFrom",
      "outputs": [
        {
          "name": "",
          "type": "bool"
        }
      ],
      "payable": false,
      "stateMutability": "nonpayable",
      "type": "function"
    }
  ],
  "bytecode": "0x60c0604052600d60808190527f577261707065642045746865720000000000000000000000000000000000000060a090815261003e91600091906100a3565b506040805180820190915260048082527f57455448000000000000000000000000000000000000000000000000000000006020909201918252610083916001916100a3565b506002805460ff1916601217905534801561009d57600080fd5b5061013e565b828054600181600116156101000203166002900490600052602060002090601f016020900481019282601f106100e457805160ff1916838001178555610111565b82800160010185558215610111579182015b828111156101115782518255916020019190600101906100f6565b5061011d929150610121565b5090565b61013b91905b8082111561011d5760008155600101610127565b90565b6105f98061014d6000396000f3fe60806040526004361061009c5760003560e01c8063313ce56711610064578063313ce5671461021157806370a082311461023c57806395d89b411461026f578063a9059cbb14610284578063d0e30db01461009c578063dd62ed3e146102bd5761009c565b806306fdde03146100a6578063095ea7b31461013057806318160ddd1461017d57806323b872dd146101a45780632e1a7d4d146101e7575b6100a46102f8565b005b3480156100b257600080fd5b506100bb61030f565b6040805160208082528351818301528351919283929083019185019080838360005b838110156100f55781810151838201526020016100dd565b50505050905090810190601f1680156101225780820380516001836020036101000a031916815260200191505b509250505060405180910390f35b34801561013c57600080fd5b506101696004803603604081101561015357600080fd5b506001600160a01b03813516906020013561039d565b604080519115158252519081900360200190f35b34801561018957600080fd5b506101926103ca565b60408051918252519081900360200190f35b3480156101b057600080fd5b50610169600480360360608110156101c757600080fd5b506001600160a01b038135811691602081013590911690604001356103cf565b3480156101f357600080fd5b506100a46004803603602081101561020a57600080fd5b50356104c8565b34801561021d57600080fd5b50610226610527565b6040805160ff9092168252519081900360200190f35b34801561024857600080fd5b506101926004803603602081101561025f57600080fd5b50356001600160a01b0316610530565b34801561027b57600080fd5b506100bb610542565b34801561029057600080fd5b50610169600480360360408110156102a757600080fd5b506001600160a01b03813516906020013561059c565b3480156102c957600080fd5b50610192600480360360408110156102e057600080fd5b506001600160a01b03813581169160200135166105b0565b336000908152600360205260409020805434019055565b6000805460408051602060026001851615610100026000190190941693909304601f810184900484028201840190925281815292918301828280156103955780601f1061036a57610100808354040283529160200191610395565b820191906000526020600020905b81548152906001019060200180831161037857829003601f168201915b505050505081565b3360009081526004602090815260408083206001600160a01b039590951683529390529190912055600190565b303190565b6001600160a01b0383166000908152600360205260408120548211156103f457600080fd5b6001600160a01b038416331480159061043257506001600160a01b038416600090815260046020908152604080832033845290915290205460001914155b15610492576001600160a01b038416600090815260046020908152604080832033845290915290205482111561046757600080fd5b6001600160a01b03841660009081526004602090815260408083203384529091529020805483900390555b506001600160a01b0392831660009081526003602052604080822080548490039055929093168352912080549091019055600190565b336000908152600360205260409020548111156104e457600080fd5b33600081815260036020526040808220805485900390555183156108fc0291849190818181858888f19350505050158015610523573d6000803e3d6000fd5b5050565b60025460ff1681565b60036020526000908152604090205481565b60018054604080516020600284861615610100026000190190941693909304601f810184900484028201840190925281815292918301828280156103955780601f1061036a57610100808354040283529160200191610395565b60006105a93384846103cf565b9392505050565b60046020908152600092835260408084209091529082529020548156fea165627a7a7230582097f7d4be02e1fba49749b82c79dea66ed6988bb9a21d5416a63d88cc5004b6df0029",
  "source": "pragma solidity 0.5.7;\n\n\ncontract MockWeth {\n    string public name     = \"Wrapped Ether\";\n    string public symbol   = \"WETH\";\n    uint8  public decimals = 18;\n\n    mapping (address => uint)                       public  balanceOf;\n    mapping (address => mapping (address => uint))  public  allowance;\n\n    function() external payable {\n        deposit();\n    }\n    function deposit() public payable {\n        balanceOf[msg.sender] += msg.value;\n    }\n    function withdraw(uint wad) public {\n        require(balanceOf[msg.sender] >= wad);\n        balanceOf[msg.sender] -= wad;\n        msg.sender.transfer(wad);\n    }\n\n    function totalSupply() public view returns (uint) {\n        return address(this).balance;\n    }\n\n    function approve(address guy, uint wad) public returns (bool) {\n        allowance[msg.sender][guy] = wad;\n        return true;\n    }\n\n    function transfer(address dst, uint wad) public returns (bool) {\n        return transferFrom(msg.sender, dst, wad);\n    }\n\n    function transferFrom(address src, address dst, uint wad)\n        public\n        returns (bool)\n    {\n        require(balanceOf[src] >= wad);\n\n        if (src != msg.sender && allowance[src][msg.sender] != uint(-1)) {\n            require(allowance[src][msg.sender] >= wad);\n            allowance[src][msg.sender] -= wad;\n        }\n\n        balanceOf[src] -= wad;\n        balanceOf[dst] += wad;\n\n        return true;\n    }\n}\n",
  "sourcePath": "/home/madan/Documents/PlotX/PlotxContract/contracts/mock/MockWeth.sol",
  "compiler": {
    "name": "solc",
    "version": "0.5.7+commit.6da8b019.Emscripten.clang"
  },
  "schemaVersion": "3.3.2",
  "updatedAt": "2020-12-10T08:39:39.303Z",
  "networkType": "ethereum",
  "devdoc": {
    "methods": {}
  },
  "userdoc": {
    "methods": {}
  }
}