{
  "contractName": "MockUniswapFactory",
  "abi": [
    {
      "constant": true,
      "inputs": [],
      "name": "plotETHPair",
      "outputs": [
        {
          "name": "",
          "type": "address"
        }
      ],
      "payable": false,
      "stateMutability": "view",
      "type": "function"
    },
    {
      "constant": true,
      "inputs": [
        {
          "name": "tokenA",
          "type": "address"
        },
        {
          "name": "tokenB",
          "type": "address"
        }
      ],
      "name": "getPair",
      "outputs": [
        {
          "name": "pair",
          "type": "address"
        }
      ],
      "payable": false,
      "stateMutability": "view",
      "type": "function"
    },
    {
      "constant": false,
      "inputs": [
        {
          "name": "_plotETHPair",
          "type": "address"
        }
      ],
      "name": "setPair",
      "outputs": [],
      "payable": false,
      "stateMutability": "nonpayable",
      "type": "function"
    }
  ],
  "bytecode": "0x608060405234801561001057600080fd5b50610121806100206000396000f3fe6080604052348015600f57600080fd5b5060043610603c5760003560e01c80638187f5161460415780638663e6fc146066578063e6a43905146088575b600080fd5b606460048036036020811015605557600080fd5b50356001600160a01b031660b3565b005b606c60d5565b604080516001600160a01b039092168252519081900360200190f35b606c60048036036040811015609c57600080fd5b506001600160a01b038135811691602001351660e4565b600080546001600160a01b0319166001600160a01b0392909216919091179055565b6000546001600160a01b031681565b50506000546001600160a01b03169056fea165627a7a723058209a317ca99c083cb33a07469f56a95b0e40f43c69447188851fbcc0524d153e3c0029",
  "source": "pragma solidity 0.5.7;\n\n\ncontract MockUniswapFactory {\n\n  address public plotETHPair;\n  function getPair(address tokenA, address tokenB) external view returns (address pair) {\n    return plotETHPair;\n  }\n\n  function setPair(address _plotETHPair) public {\n  \tplotETHPair = _plotETHPair;\n  }\n}\n",
  "sourcePath": "/home/madan/Documents/PlotX/PlotxContract/contracts/mock/MockUniswapFactory.sol",
  "compiler": {
    "name": "solc",
    "version": "0.5.7+commit.6da8b019.Emscripten.clang"
  },
  "schemaVersion": "3.3.2",
  "updatedAt": "2020-12-10T08:39:39.399Z",
  "networkType": "ethereum",
  "devdoc": {
    "methods": {}
  },
  "userdoc": {
    "methods": {}
  }
}