{
  "contractName": "MockUniswapPair",
  "abi": [
    {
      "constant": true,
      "inputs": [],
      "name": "token0",
      "outputs": [
        {
          "name": "",
          "type": "address"
        }
      ],
      "payable": false,
      "stateMutability": "view",
      "type": "function"
    },
    {
      "constant": true,
      "inputs": [],
      "name": "token1",
      "outputs": [
        {
          "name": "",
          "type": "address"
        }
      ],
      "payable": false,
      "stateMutability": "view",
      "type": "function"
    },
    {
      "inputs": [
        {
          "name": "_token0",
          "type": "address"
        },
        {
          "name": "_token1",
          "type": "address"
        }
      ],
      "payable": false,
      "stateMutability": "nonpayable",
      "type": "constructor"
    }
  ],
  "bytecode": "0x608060405234801561001057600080fd5b5060405160408061011f8339810180604052604081101561003057600080fd5b508051602090910151600080546001600160a01b039384166001600160a01b0319918216179091556001805493909216921691909117905560a9806100766000396000f3fe6080604052348015600f57600080fd5b506004361060325760003560e01c80630dfe1681146037578063d21220a7146059575b600080fd5b603d605f565b604080516001600160a01b039092168252519081900360200190f35b603d606e565b6000546001600160a01b031681565b6001546001600160a01b03168156fea165627a7a723058203768e0e28d8305b4825acb0e4295e2a6f74b4d3fee69542b315a117133eb898f0029",
  "source": "pragma solidity 0.5.7;\n\n\ncontract MockUniswapPair {\n\n\taddress public token0;\n\taddress public token1;\n\tconstructor(address _token0, address _token1) public {\n\t\ttoken0 = _token0;\n\t\ttoken1 = _token1;\n\t}\n\n}\n",
  "sourcePath": "/home/madan/Documents/PlotX/PlotxContract/contracts/mock/MockUniswapPair.sol",
  "compiler": {
    "name": "solc",
    "version": "0.5.7+commit.6da8b019.Emscripten.clang"
  },
  "schemaVersion": "3.3.2",
  "updatedAt": "2020-12-10T08:30:25.239Z",
  "devdoc": {
    "methods": {}
  },
  "userdoc": {
    "methods": {}
  }
}