{
  "contractName": "MockMarket",
  "abi": [
    {
      "constant": false,
      "inputs": [
        {
          "name": "userAddress",
          "type": "address"
        },
        {
          "name": "functionSignature",
          "type": "bytes"
        },
        {
          "name": "sigR",
          "type": "bytes32"
        },
        {
          "name": "sigS",
          "type": "bytes32"
        },
        {
          "name": "sigV",
          "type": "uint8"
        }
      ],
      "name": "executeMetaTransaction",
      "outputs": [
        {
          "name": "",
          "type": "bytes"
        }
      ],
      "payable": true,
      "stateMutability": "payable",
      "type": "function"
    },
    {
      "constant": true,
      "inputs": [
        {
          "name": "_user",
          "type": "address"
        }
      ],
      "name": "getReturn",
      "outputs": [
        {
          "name": "returnAmount",
          "type": "uint256[]"
        },
        {
          "name": "_predictionAssets",
          "type": "address[]"
        },
        {
          "name": "incentive",
          "type": "uint256"
        },
        {
          "name": "_incentiveToken",
          "type": "address"
        }
      ],
      "payable": false,
      "stateMutability": "view",
      "type": "function"
    },
    {
      "constant": false,
      "inputs": [
        {
          "name": "_token",
          "type": "address"
        },
        {
          "name": "_value",
          "type": "uint256"
        }
      ],
      "name": "sponsorIncentives",
      "outputs": [],
      "payable": false,
      "stateMutability": "nonpayable",
      "type": "function"
    },
    {
      "constant": true,
      "inputs": [],
      "name": "marketCoolDownTime",
      "outputs": [
        {
          "name": "",
          "type": "uint256"
        }
      ],
      "payable": false,
      "stateMutability": "view",
      "type": "function"
    },
    {
      "constant": true,
      "inputs": [],
      "name": "_msgSender",
      "outputs": [
        {
          "name": "sender",
          "type": "address"
        }
      ],
      "payable": false,
      "stateMutability": "view",
      "type": "function"
    },
    {
      "constant": false,
      "inputs": [
        {
          "name": "_user",
          "type": "address"
        }
      ],
      "name": "claimReturn",
      "outputs": [
        {
          "name": "",
          "type": "uint256"
        }
      ],
      "payable": false,
      "stateMutability": "nonpayable",
      "type": "function"
    },
    {
      "constant": true,
      "inputs": [],
      "name": "getMarketFeedData",
      "outputs": [
        {
          "name": "",
          "type": "uint8"
        },
        {
          "name": "",
          "type": "bytes32"
        },
        {
          "name": "",
          "type": "address"
        }
      ],
      "payable": false,
      "stateMutability": "view",
      "type": "function"
    },
    {
      "constant": true,
      "inputs": [
        {
          "name": "user",
          "type": "address"
        }
      ],
      "name": "getNonce",
      "outputs": [
        {
          "name": "nonce",
          "type": "uint256"
        }
      ],
      "payable": false,
      "stateMutability": "view",
      "type": "function"
    },
    {
      "constant": true,
      "inputs": [],
      "name": "getData",
      "outputs": [
        {
          "name": "_marketCurrency",
          "type": "bytes32"
        },
        {
          "name": "minvalue",
          "type": "uint256[]"
        },
        {
          "name": "maxvalue",
          "type": "uint256[]"
        },
        {
          "name": "_optionPrice",
          "type": "uint256[]"
        },
        {
          "name": "_ethStaked",
          "type": "uint256[]"
        },
        {
          "name": "_plotStaked",
          "type": "uint256[]"
        },
        {
          "name": "_predictionTime",
          "type": "uint256"
        },
        {
          "name": "_expireTime",
          "type": "uint256"
        },
        {
          "name": "_predictionStatus",
          "type": "uint256"
        }
      ],
      "payable": false,
      "stateMutability": "view",
      "type": "function"
    },
    {
      "constant": true,
      "inputs": [],
      "name": "getTotalStakedValueInPLOT",
      "outputs": [
        {
          "name": "",
          "type": "uint256"
        }
      ],
      "payable": false,
      "stateMutability": "view",
      "type": "function"
    },
    {
      "constant": true,
      "inputs": [],
      "name": "getChainID",
      "outputs": [
        {
          "name": "",
          "type": "uint256"
        }
      ],
      "payable": false,
      "stateMutability": "pure",
      "type": "function"
    },
    {
      "constant": true,
      "inputs": [
        {
          "name": "owner",
          "type": "address"
        },
        {
          "name": "nonce",
          "type": "uint256"
        },
        {
          "name": "chainID",
          "type": "uint256"
        },
        {
          "name": "functionSignature",
          "type": "bytes"
        },
        {
          "name": "sigR",
          "type": "bytes32"
        },
        {
          "name": "sigS",
          "type": "bytes32"
        },
        {
          "name": "sigV",
          "type": "uint8"
        }
      ],
      "name": "verify",
      "outputs": [
        {
          "name": "",
          "type": "bool"
        }
      ],
      "payable": false,
      "stateMutability": "view",
      "type": "function"
    },
    {
      "constant": true,
      "inputs": [
        {
          "name": "_prediction",
          "type": "uint256"
        }
      ],
      "name": "getOptionPrice",
      "outputs": [
        {
          "name": "",
          "type": "uint256"
        }
      ],
      "payable": false,
      "stateMutability": "view",
      "type": "function"
    },
    {
      "constant": false,
      "inputs": [
        {
          "name": "proposedValue",
          "type": "uint256"
        },
        {
          "name": "proposalTitle",
          "type": "string"
        },
        {
          "name": "description",
          "type": "string"
        },
        {
          "name": "solutionHash",
          "type": "string"
        }
      ],
      "name": "raiseDispute",
      "outputs": [],
      "payable": false,
      "stateMutability": "nonpayable",
      "type": "function"
    },
    {
      "constant": false,
      "inputs": [
        {
          "name": "accepted",
          "type": "bool"
        },
        {
          "name": "finalResult",
          "type": "uint256"
        }
      ],
      "name": "resolveDispute",
      "outputs": [],
      "payable": true,
      "stateMutability": "payable",
      "type": "function"
    },
    {
      "constant": true,
      "inputs": [],
      "name": "marketSettleData",
      "outputs": [
        {
          "name": "WinningOption",
          "type": "uint64"
        },
        {
          "name": "settleTime",
          "type": "uint64"
        }
      ],
      "payable": false,
      "stateMutability": "view",
      "type": "function"
    },
    {
      "constant": true,
      "inputs": [
        {
          "name": "_user",
          "type": "address"
        }
      ],
      "name": "getUserFlags",
      "outputs": [
        {
          "name": "",
          "type": "bool"
        },
        {
          "name": "",
          "type": "bool"
        }
      ],
      "payable": false,
      "stateMutability": "view",
      "type": "function"
    },
    {
      "constant": true,
      "inputs": [
        {
          "name": "_prediction",
          "type": "uint256"
        },
        {
          "name": "_stakeValueInEth",
          "type": "uint256"
        },
        {
          "name": "_leverage",
          "type": "uint256"
        }
      ],
      "name": "estimatePredictionValue",
      "outputs": [
        {
          "name": "_predictionValue",
          "type": "uint256"
        }
      ],
      "payable": false,
      "stateMutability": "view",
      "type": "function"
    },
    {
      "constant": true,
      "inputs": [],
      "name": "mockFlag",
      "outputs": [
        {
          "name": "",
          "type": "bool"
        }
      ],
      "payable": false,
      "stateMutability": "view",
      "type": "function"
    },
    {
      "constant": true,
      "inputs": [],
      "name": "getMarketResults",
      "outputs": [
        {
          "name": "",
          "type": "uint256"
        },
        {
          "name": "",
          "type": "uint256"
        },
        {
          "name": "",
          "type": "uint256[]"
        },
        {
          "name": "",
          "type": "uint256"
        },
        {
          "name": "",
          "type": "uint256"
        }
      ],
      "payable": false,
      "stateMutability": "view",
      "type": "function"
    },
    {
      "constant": false,
      "inputs": [],
      "name": "settleMarket",
      "outputs": [],
      "payable": false,
      "stateMutability": "nonpayable",
      "type": "function"
    },
    {
      "constant": true,
      "inputs": [],
      "name": "marketSettleTime",
      "outputs": [
        {
          "name": "",
          "type": "uint64"
        }
      ],
      "payable": false,
      "stateMutability": "view",
      "type": "function"
    },
    {
      "constant": false,
      "inputs": [
        {
          "name": "_asset",
          "type": "address"
        },
        {
          "name": "_predictionStake",
          "type": "uint256"
        },
        {
          "name": "_prediction",
          "type": "uint256"
        },
        {
          "name": "_leverage",
          "type": "uint256"
        }
      ],
      "name": "placePrediction",
      "outputs": [],
      "payable": true,
      "stateMutability": "payable",
      "type": "function"
    },
    {
      "constant": true,
      "inputs": [],
      "name": "marketData",
      "outputs": [
        {
          "name": "startTime",
          "type": "uint64"
        },
        {
          "name": "predictionTime",
          "type": "uint64"
        },
        {
          "name": "neutralMinValue",
          "type": "uint64"
        },
        {
          "name": "neutralMaxValue",
          "type": "uint64"
        }
      ],
      "payable": false,
      "stateMutability": "view",
      "type": "function"
    },
    {
      "constant": true,
      "inputs": [],
      "name": "getTotalAssetsStaked",
      "outputs": [
        {
          "name": "ethStaked",
          "type": "uint256"
        },
        {
          "name": "plotStaked",
          "type": "uint256"
        }
      ],
      "payable": false,
      "stateMutability": "view",
      "type": "function"
    },
    {
      "constant": true,
      "inputs": [],
      "name": "marketCurrency",
      "outputs": [
        {
          "name": "",
          "type": "bytes32"
        }
      ],
      "payable": false,
      "stateMutability": "view",
      "type": "function"
    },
    {
      "constant": true,
      "inputs": [
        {
          "name": "",
          "type": "uint256"
        }
      ],
      "name": "optionsAvailable",
      "outputs": [
        {
          "name": "predictionPoints",
          "type": "uint256"
        }
      ],
      "payable": false,
      "stateMutability": "view",
      "type": "function"
    },
    {
      "constant": true,
      "inputs": [
        {
          "name": "_user",
          "type": "address"
        },
        {
          "name": "_option",
          "type": "uint256"
        }
      ],
      "name": "getUserPredictionPoints",
      "outputs": [
        {
          "name": "",
          "type": "uint256"
        }
      ],
      "payable": false,
      "stateMutability": "view",
      "type": "function"
    },
    {
      "anonymous": false,
      "inputs": [
        {
          "indexed": false,
          "name": "userAddress",
          "type": "address"
        },
        {
          "indexed": false,
          "name": "relayerAddress",
          "type": "address"
        },
        {
          "indexed": false,
          "name": "functionSignature",
          "type": "bytes"
        }
      ],
      "name": "MetaTransactionExecuted",
      "type": "event"
    },
    {
      "constant": false,
      "inputs": [
        {
          "name": "_flag",
          "type": "bool"
        }
      ],
      "name": "setMockPriceFlag",
      "outputs": [],
      "payable": false,
      "stateMutability": "nonpayable",
      "type": "function"
    },
    {
      "constant": false,
      "inputs": [
        {
          "name": "_midRangeMin",
          "type": "uint256"
        },
        {
          "name": "_midRangeMax",
          "type": "uint256"
        }
      ],
      "name": "setOptionRangesPublic",
      "outputs": [],
      "payable": false,
      "stateMutability": "nonpayable",
      "type": "function"
    },
    {
      "constant": false,
      "inputs": [
        {
          "name": "_startTime",
          "type": "uint64"
        },
        {
          "name": "_predictionTime",
          "type": "uint64"
        },
        {
          "name": "_minValue",
          "type": "uint64"
        },
        {
          "name": "_maxValue",
          "type": "uint64"
        }
      ],
      "name": "initiate",
      "outputs": [],
      "payable": true,
      "stateMutability": "payable",
      "type": "function"
    },
    {
      "constant": false,
      "inputs": [
        {
          "name": "_value",
          "type": "uint256"
        }
      ],
      "name": "calculatePredictionResult",
      "outputs": [],
      "payable": false,
      "stateMutability": "nonpayable",
      "type": "function"
    },
    {
      "constant": false,
      "inputs": [
        {
          "name": "_option",
          "type": "uint256"
        },
        {
          "name": "_price",
          "type": "uint256"
        }
      ],
      "name": "setOptionPrice",
      "outputs": [],
      "payable": false,
      "stateMutability": "nonpayable",
      "type": "function"
    }
  ],
  "bytecode": "0x608060405234801561001057600080fd5b506142ec806100206000396000f3fe6080604052600436106101ee5760003560e01c806374bd0d021161010d57806385970c66116100a0578063ca0322741161006f578063ca03227414610cd1578063cc5ec01814610cff578063ddf8389b14610d2f578063e217eb9d14610d44578063ff0fd72a14610d6e576101ee565b806385970c6614610c0a578063a12a509914610c1f578063ae1ff39b14610c50578063b945b52714610c88576101ee565b80637cb464eb116100dc5780637cb464eb14610b055780637dafb4c014610b5357806381d3b3c214610b89578063853b844714610b9e576101ee565b806374bd0d02146108b757806377c2457714610a795780637852d19d14610a9e5780637ca3254514610ad9576101ee565b80633bc5de3011610185578063564b81ef11610154578063564b81ef1461074b5780636281133d1461076057806368a4b2711461084f5780636b592cf614610879576101ee565b80633bc5de30146105435780633c6e9cc8146106dc57806343da750f1461070c5780634abd2a3714610721576101ee565b8063119df25f116101c1578063119df25f1461046c5780631ec0fd501461049d57806324569133146104d05780632d0335ab14610510576101ee565b80630c53c51c146101f35780630cc9a6061461032a5780630fe5aca41461040a5780630ff2f99f14610445575b600080fd5b6102b5600480360360a081101561020957600080fd5b6001600160a01b038235169190810190604081016020820135600160201b81111561023357600080fd5b82018360208201111561024557600080fd5b803590602001918460018302840111600160201b8311171561026657600080fd5b91908080601f016020809104026020016040519081016040528093929190818152602001838380828437600092019190915250929550508235935050506020810135906040013560ff16610da7565b6040805160208082528351818301528351919283929083019185019080838360005b838110156102ef5781810151838201526020016102d7565b50505050905090810190601f16801561031c5780820380516001836020036101000a031916815260200191505b509250505060405180910390f35b34801561033657600080fd5b5061035d6004803603602081101561034d57600080fd5b50356001600160a01b03166110b9565b604080519081018390526001600160a01b038216606082015260808082528551908201528451819060208083019160a0840191898101910280838360005b838110156103b357818101518382015260200161039b565b50505050905001838103825286818151815260200191508051906020019060200280838360005b838110156103f25781810151838201526020016103da565b50505050905001965050505050505060405180910390f35b34801561041657600080fd5b506104436004803603604081101561042d57600080fd5b506001600160a01b038135169060200135611230565b005b34801561045157600080fd5b5061045a61140f565b60408051918252519081900360200190f35b34801561047857600080fd5b50610481611453565b604080516001600160a01b039092168252519081900360200190f35b3480156104a957600080fd5b5061045a600480360360208110156104c057600080fd5b50356001600160a01b03166114b2565b3480156104dc57600080fd5b506104e5611760565b6040805160ff909416845260208401929092526001600160a01b031682820152519081900360600190f35b34801561051c57600080fd5b5061045a6004803603602081101561053357600080fd5b50356001600160a01b031661178b565b34801561054f57600080fd5b506105586117a6565b604051808a8152602001806020018060200180602001806020018060200189815260200188815260200187815260200186810386528e818151815260200191508051906020019060200280838360005b838110156105c05781810151838201526020016105a8565b5050505090500186810385528d818151815260200191508051906020019060200280838360005b838110156105ff5781810151838201526020016105e7565b5050505090500186810384528c818151815260200191508051906020019060200280838360005b8381101561063e578181015183820152602001610626565b5050505090500186810383528b818151815260200191508051906020019060200280838360005b8381101561067d578181015183820152602001610665565b5050505090500186810382528a818151815260200191508051906020019060200280838360005b838110156106bc5781810151838201526020016106a4565b505050509050019e50505050505050505050505050505060405180910390f35b3480156106e857600080fd5b50610443600480360360408110156106ff57600080fd5b5080359060200135611a5a565b34801561071857600080fd5b5061045a611a6c565b34801561072d57600080fd5b506104436004803603602081101561074457600080fd5b5035611b2d565b34801561075757600080fd5b5061045a611b3b565b34801561076c57600080fd5b5061083b600480360360e081101561078357600080fd5b6001600160a01b038235169160208101359160408201359190810190608081016060820135600160201b8111156107b957600080fd5b8201836020820111156107cb57600080fd5b803590602001918460018302840111600160201b831117156107ec57600080fd5b91908080601f016020809104026020016040519081016040528093929190818152602001838380828437600092019190915250929550508235935050506020810135906040013560ff16611b40565b604080519115158252519081900360200190f35b34801561085b57600080fd5b5061045a6004803603602081101561087257600080fd5b5035611cce565b6104436004803603608081101561088f57600080fd5b506001600160401b038135811691602081013582169160408201358116916060013516611f5e565b3480156108c357600080fd5b50610443600480360360808110156108da57600080fd5b81359190810190604081016020820135600160201b8111156108fb57600080fd5b82018360208201111561090d57600080fd5b803590602001918460018302840111600160201b8311171561092e57600080fd5b91908080601f0160208091040260200160405190810160405280939291908181526020018383808284376000920191909152509295949360208101935035915050600160201b81111561098057600080fd5b82018360208201111561099257600080fd5b803590602001918460018302840111600160201b831117156109b357600080fd5b91908080601f0160208091040260200160405190810160405280939291908181526020018383808284376000920191909152509295949360208101935035915050600160201b811115610a0557600080fd5b820183602082011115610a1757600080fd5b803590602001918460018302840111600160201b83111715610a3857600080fd5b91908080601f016020809104026020016040519081016040528093929190818152602001838380828437600092019190915250929550611f7d945050505050565b61044360048036036040811015610a8f57600080fd5b508035151590602001356123c1565b348015610aaa57600080fd5b50610ab361242d565b604080516001600160401b03938416815291909216602082015281519081900390910190f35b348015610ae557600080fd5b5061044360048036036020811015610afc57600080fd5b50351515612447565b348015610b1157600080fd5b50610b3860048036036020811015610b2857600080fd5b50356001600160a01b031661245a565b60408051921515835290151560208301528051918290030190f35b348015610b5f57600080fd5b5061045a60048036036060811015610b7657600080fd5b5080359060208101359060400135612487565b348015610b9557600080fd5b5061083b6124ac565b348015610baa57600080fd5b50610bb36124b5565b604051808681526020018581526020018060200184815260200183815260200182810382528581815181526020019150805190602001906020028083836000838110156103f25781810151838201526020016103da565b348015610c1657600080fd5b50610443612574565b348015610c2b57600080fd5b50610c34612664565b604080516001600160401b039092168252519081900360200190f35b61044360048036036080811015610c6657600080fd5b506001600160a01b0381351690602081013590604081013590606001356126d2565b348015610c9457600080fd5b50610c9d612bc4565b604080516001600160401b039586168152938516602085015291841683830152909216606082015290519081900360800190f35b348015610cdd57600080fd5b50610ce6612bf2565b6040805192835260208301919091528051918290030190f35b348015610d0b57600080fd5b5061044360048036036040811015610d2257600080fd5b5080359060200135612c8a565b348015610d3b57600080fd5b5061045a612cd6565b348015610d5057600080fd5b5061045a60048036036020811015610d6757600080fd5b5035612ce8565b348015610d7a57600080fd5b5061045a60048036036040811015610d9157600080fd5b506001600160a01b038135169060200135612cfa565b6001600160a01b038516600090815260208190526040902054606090610dda908790610dd1611b3b565b88888888611b40565b610e1857604051600160e51b62461bcd0281526004018080602001828103825260218152602001806142a06021913960400191505060405180910390fd5b6001600160a01b038616600090815260208190526040902054610e4290600163ffffffff612d2816565b600080886001600160a01b03166001600160a01b031681526020019081526020016000208190555060006060306001600160a01b031687896040516020018083805190602001908083835b60208310610eac5780518252601f199092019160209182019101610e8d565b51815160209384036101000a60001901801990921691161790526001600160a01b039590951660601b92019182525060408051808303600b190181526014909201908190528151919450928392508401908083835b60208310610f205780518252601f199092019160209182019101610f01565b6001836020036101000a0380198251168184511680821785525050505050509050019150506000604051808303816000865af19150503d8060008114610f82576040519150601f19603f3d011682016040523d82523d6000602084013e610f87565b606091505b509150915081610fe15760408051600160e51b62461bcd02815260206004820152601c60248201527f46756e6374696f6e2063616c6c206e6f74207375636365737366756c00000000604482015290519081900360640190fd5b7f5845892132946850460bff5a0083f71031bc5bf9aadcd40f1de79423eac9b10b88338960405180846001600160a01b03166001600160a01b03168152602001836001600160a01b03166001600160a01b0316815260200180602001828103825283818151815260200191508051906020019080838360005b8381101561107257818101518382015260200161105a565b50505050905090810190601f16801561109f5780820380516001836020036101000a031916815260200191505b5094505050505060405180910390a1979650505050505050565b6060806000806000806110ca612bf2565b909250905060046110d9612d8c565b60048111156110e457fe5b1415806110fe57506110fc828263ffffffff612d2816565b155b1561111d57505060015461010090046001600160a01b03169050611229565b604080516002808252606082018352909160208301908038833901905050945060008051602061423f8339815191528560008151811061115957fe5b60200260200101906001600160a01b031690816001600160a01b0316815250506000805160206142808339815191528560018151811061119557fe5b6001600160a01b03909216602092830291909101909101526000806111b989612dff565b919950925090506111ca8282612fac565b6001600160a01b038a166000908152600b60209081526040808320600a546001600160401b03168452600101909152902054909650156112115761120e8989612fd3565b97505b505060015461010090046001600160a01b0316925050505b9193509193565b7365add15c5ff3abc069358aae842de13ce92f3447630e43f4ce611252611453565b6040518263ffffffff1660e01b815260040180826001600160a01b03166001600160a01b0316815260200191505060206040518083038186803b15801561129857600080fd5b505afa1580156112ac573d6000803e3d6000fd5b505050506040513d60208110156112c257600080fd5b50516112cd57600080fd5b60016112d7612d8c565b60048111156112e257fe5b11156112ed57600080fd5b60015461010090046001600160a01b0316156113535760408051600160e51b62461bcd02815260206004820152601160248201527f416c72656164792073706f6e736f726564000000000000000000000000000000604482015290519081900360640190fd5b60018054610100600160a81b0319166101006001600160a01b038516021790556006819055733a3d9ca9d9b25af1ff7eb9d8a1ea9f61b5892ee96315dacbea8361139b611453565b6040805163ffffffff851660e01b81526001600160a01b039384166004820152919092166024820152306044820152606481018590529051608480830192600092919082900301818387803b1580156113f357600080fd5b505af1158015611407573d6000803e3d6000fd5b505050505050565b60095460009061144d9061143490600160401b90046001600160401b031660046130b6565b600a54600160401b90046001600160401b031690612d28565b90505b90565b6000333014156114ab5760606000368080601f0160208091040260200160405190810160405280939291908181526020018383808284376000920191909152505050503601516001600160a01b031691506114509050565b5033611450565b60015460009060ff16806114d9575060046114cb612d8c565b60048111156114d657fe5b14155b8061155957507365add15c5ff3abc069358aae842de13ce92f34476001600160a01b03166335f628ee6040518163ffffffff1660e01b815260040160206040518083038186803b15801561152c57600080fd5b505afa158015611540573d6000803e3d6000fd5b505050506040513d602081101561155657600080fd5b50515b156115665750600061175b565b6001600160a01b0382166000908152600b602052604090205460ff161561158f5750600161175b565b6001600160a01b0382166000908152600b60205260408120805460ff1916600117905560609081906115c0856110b9565b509250925092506115f460008051602061423f83398151915286856000815181106115e757fe5b6020026020010151613123565b61161460008051602061428083398151915286856001815181106115e757fe5b6001546116309061010090046001600160a01b03168683613123565b600154604051600160e11b63640cdaf90281526001600160a01b038781166004830190815260648301859052610100909304166084820181905260a060248301908152865160a484015286517365add15c5ff3abc069358aae842de13ce92f34479463c819b5f2948b948a948a948a949293604481019160c4909101906020808a01910280838360005b838110156116d25781810151838201526020016116ba565b50505050905001838103825286818151815260200191508051906020019060200280838360005b838110156117115781810151838201526020016116f9565b50505050905001975050505050505050600060405180830381600087803b15801561173b57600080fd5b505af115801561174f573d6000803e3d6000fd5b50505050600293505050505b919050565b6019600160c21b671155120bd554d11502735e2aa6b66531142beab830c385646f97fa03d80a909192565b6001600160a01b031660009081526020819052604090205490565b600954600160c21b671155120bd554d11502906060908190819081908190600160401b90046001600160401b03166000806117df61321e565b91506117e9612d8c565b60048111156117f457fe5b604080516003808252608082019092529192506020820160608038833950506009548251929a50600160801b90046001600160401b0316918a9150600190811061183a57fe5b602090810291909101015260095461186390600160c01b90046001600160401b03166001612d28565b8860028151811061187057fe5b6020908102919091010152604080516003808252608082019092529081602001602082028038833950506009549198506118bd91600160801b90046001600160401b031690506001613247565b876000815181106118ca57fe5b60209081029190910101526009548751600160c01b9091046001600160401b031690889060019081106118f957fe5b6020026020010181815250506000198760028151811061191557fe5b6020908102919091010152604080516003808252608082019092529081602001602082028038833950506040805160038082526080820190925292985090506020820160608038833950506040805160038082526080820190925292975090506020820160608038833901905050935060005b6003811015611a4e5760018082016000908152600c6020908152604080832060008051602061428083398151915284529093019052205486518790839081106119cd57fe5b60209081029190910181019190915260018083016000908152600c8352604080822060008051602061423f83398151915283529092019092529020548551869083908110611a1757fe5b602002602001018181525050611a2f81600101611cce565b878281518110611a3b57fe5b6020908102919091010152600101611988565b50909192939495969798565b6000918252600d602052604090912055565b6000806000611a79612bf2565b60408051600160e11b6356966933028152600080516020614280833981519152600482015260248101849052815193955091935073cbc7df3b8c870c5cde675aaf5fd823e4209546d29263ad2cd266926044808201939291829003018186803b158015611ae557600080fd5b505afa158015611af9573d6000803e3d6000fd5b505050506040513d6040811015611b0f57600080fd5b50602001519150611b26818363ffffffff612d2816565b9250505090565b611b388160006132a7565b50565b608990565b600080611be68830898960405160200180858152602001846001600160a01b03166001600160a01b031660601b815260140183815260200182805190602001908083835b60208310611ba35780518252601f199092019160209182019101611b84565b6001836020036101000a0380198251168184511680821785525050505050509050019450505050506040516020818303038152906040528051906020012061389c565b9050600060018285888860405160008152602001604052604051808581526020018460ff1660ff1681526020018381526020018281526020019450505050506020604051602081039080840390855afa158015611c47573d6000803e3d6000fd5b5050604051601f1901519150506001600160a01b038116611cb25760408051600160e51b62461bcd02815260206004820152601160248201527f496e76616c6964207369676e6174757265000000000000000000000000000000604482015290519081900360640190fd5b6001600160a01b038a8116911614915050979650505050505050565b60408051600980825261014082019092526000916060919060208201610120803883390190505090508281600081518110611d0557fe5b60209081029190910101526009548151600160801b9091046001600160401b03169082906001908110611d3457fe5b60209081029190910101526009548151600160c01b9091046001600160401b03169082906002908110611d6357fe5b602090810291909101015260095481516001600160401b039091169082906003908110611d8c57fe5b602002602001018181525050611da061321e565b81600481518110611dad57fe5b602002602001018181525050611dc1612bf2565b82600581518110611dce57fe5b6020026020010183600681518110611de257fe5b602090810291909101810192909252919091526000848152600c8252604080822060008051602061428083398151915283526001019092522054815182906007908110611e2b57fe5b6020908102919091018101919091526000848152600c8252604080822060008051602061423f83398151915283526001019092522054815182906008908110611e7057fe5b60209081029190910181019190915260408051600160e01b63504e8751028152735e2aa6b66531142beab830c385646f97fa03d80a602482018190526004820192835284516044830152845173cbc7df3b8c870c5cde675aaf5fd823e4209546d29463504e875194879490928392606490920191868101910280838360005b83811015611f07578181015183820152602001611eef565b50505050905001935050505060206040518083038186803b158015611f2b57600080fd5b505afa158015611f3f573d6000803e3d6000fd5b505050506040513d6020811015611f5557600080fd5b50519392505050565b600e805460ff19166001179055611f77848484846138ed565b50505050565b6000611f87611a6c565b11611fdc5760408051600160e51b62461bcd02815260206004820152601060248201527f4e6f2070617274696369706174696f6e00000000000000000000000000000000604482015290519081900360640190fd5b6002611fe6612d8c565b6004811115611ff157fe5b14611ffb57600080fd5b600073cbc7df3b8c870c5cde675aaf5fd823e4209546d26001600160a01b031663094f81f86040518163ffffffff1660e01b815260040160206040518083038186803b15801561204a57600080fd5b505afa15801561205e573d6000803e3d6000fd5b505050506040513d602081101561207457600080fd5b50519050733a3d9ca9d9b25af1ff7eb9d8a1ea9f61b5892ee96315dacbea60008051602061423f8339815191526120a9611453565b6040805163ffffffff851660e01b81526001600160a01b0393841660048201529190921660248201527365add15c5ff3abc069358aae842de13ce92f34476044820152606481018590529051608480830192600092919082900301818387803b15801561211557600080fd5b505af1158015612129573d6000803e3d6000fd5b50506001805460ff19168117905550506040805130602082015280820187905281518082038301815260609091019091527365add15c5ff3abc069358aae842de13ce92f34479063e99a8de09086908690869086612185611453565b6002546005548e6040518a63ffffffff1660e01b815260040180806020018060200180602001806020018a8152602001896001600160a01b03166001600160a01b0316815260200188815260200187815260200186815260200185810385528e818151815260200191508051906020019080838360005b838110156122145781810151838201526020016121fc565b50505050905090810190601f1680156122415780820380516001836020036101000a031916815260200191505b5085810384528d5181528d516020918201918f019080838360005b8381101561227457818101518382015260200161225c565b50505050905090810190601f1680156122a15780820380516001836020036101000a031916815260200191505b5085810383528c5181528c516020918201918e019080838360005b838110156122d45781810151838201526020016122bc565b50505050905090810190601f1680156123015780820380516001836020036101000a031916815260200191505b5085810382528b5181528b516020918201918d019080838360005b8381101561233457818101518382015260200161231c565b50505050905090810190601f1680156123615780820380516001836020036101000a031916815260200191505b509d5050505050505050505050505050600060405180830381600087803b15801561238b57600080fd5b505af115801561239f573d6000803e3d6000fd5b50506000600281905560055550506008805460ff191660031790555050505050565b337365add15c5ff3abc069358aae842de13ce92f34471480156123f6575060036123e9612d8c565b60048111156123f457fe5b145b6123ff57600080fd5b8115612410576124108160006132a7565b50506001805460ff19908116909155600880549091166004179055565b600a546001600160401b0380821691600160401b90041682565b600e805460ff1916911515919091179055565b6001600160a01b03166000908152600b602052604090205460ff6201000082048116926101009092041690565b60006124a3848484600080516020614280833981519152613ab5565b50949350505050565b600e5460ff1681565b600a546001600160401b03166000818152600c6020908152604080832080546000805160206142808339815191528552600190910183528184205460008051602061423f8339815191528552828520546007805485518188028101880190965280865296978897606097899788979396939592909185919083018282801561255c57602002820191906000526020600020905b815481526020019060010190808311612548575b50505050509250945094509450945094509091929394565b60008073cbc7df3b8c870c5cde675aaf5fd823e4209546d263f0a5702f735e2aa6b66531142beab830c385646f97fa03d80a6125ae612664565b6001600160401b03166040518363ffffffff1660e01b815260040180836001600160a01b03166001600160a01b0316815260200182815260200192505050604080518083038186803b15801561260357600080fd5b505afa158015612617573d6000803e3d6000fd5b505050506040513d604081101561262d57600080fd5b50805160209091015190925090506001612645612d8c565b600481111561265057fe5b14156126605761266082826132a7565b5050565b600a54600090600160401b90046001600160401b0316156126985750600a54600160401b90046001600160401b0316611450565b60095461144d906126ba90600160401b90046001600160401b03166002613de8565b6009546001600160401b03169063ffffffff612d2816565b7365add15c5ff3abc069358aae842de13ce92f34476001600160a01b03166335f628ee6040518163ffffffff1660e01b815260040160206040518083038186803b15801561271f57600080fd5b505afa158015612733573d6000803e3d6000fd5b505050506040513d602081101561274957600080fd5b5051158015612759575060038211155b8015612766575060058111155b61276f57600080fd5b6009546001600160401b03164210801590612791575061278d61321e565b4211155b61279a57600080fd5b60006001600160a01b03851660008051602061428083398151915214156127f3573484146127c757600080fd5b6127d5600a85612710613e44565b6003549091506127eb908263ffffffff612d2816565b600355612a97565b34156127fe57600080fd5b6001600160a01b03851660008051602061423f83398151915214156128c357733a3d9ca9d9b25af1ff7eb9d8a1ea9f61b5892ee96315dacbea60008051602061423f83398151915261284e611453565b6040805163ffffffff851660e01b81526001600160a01b039384166004820152919092166024820152306044820152606481018890529051608480830192600092919082900301818387803b1580156128a657600080fd5b505af11580156128ba573d6000803e3d6000fd5b50505050612a6f565b733a3d9ca9d9b25af1ff7eb9d8a1ea9f61b5892ee96001600160a01b0316634a5245b46040518163ffffffff1660e01b815260040160206040518083038186803b15801561291057600080fd5b505afa158015612924573d6000803e3d6000fd5b505050506040513d602081101561293a57600080fd5b50516001600160a01b0386811691161461295357600080fd5b6005821461296057600080fd5b600b600061296c611453565b6001600160a01b03168152602081019190915260400160002054610100900460ff161561299857600080fd5b6001600b60006129a6611453565b6001600160a01b03168152602081019190915260400160002080549115156101000261ff0019909216919091179055733a3d9ca9d9b25af1ff7eb9d8a1ea9f61b5892ee9631371b2bd6129f7611453565b6040805163ffffffff841660e01b81526001600160a01b0390921660048301523060248301526044820188905251606480830192600092919082900301818387803b158015612a4557600080fd5b505af1158015612a59573d6000803e3d6000fd5b5050505060008051602061423f83398151915294505b612a7d600585612710613e44565b600454909150612a93908263ffffffff612d2816565b6004555b612aa7848263ffffffff61324716565b9050600080612ab88584868a613ab5565b915091508015612b02576001600b6000612ad0611453565b6001600160a01b0316815260208101919091526040016000208054911515620100000262ff0000199092169190911790555b60008211612b0f57600080fd5b612b1c8584898786613e62565b7365add15c5ff3abc069358aae842de13ce92f34476391b2f38e612b3e611453565b6040805163ffffffff841660e01b81526001600160a01b039283166004820152602481018b905260448101879052918b1660648301526084820189905260a482018890525160c480830192600092919082900301818387803b158015612ba357600080fd5b505af1158015612bb7573d6000803e3d6000fd5b5050505050505050505050565b6009546001600160401b0380821691600160401b8104821691600160801b8204811691600160c01b90041684565b60008060015b60038111612c85576000818152600c602090815260408083206000805160206142808339815191528452600101909152902054612c3c90849063ffffffff612d2816565b6000828152600c6020908152604080832060008051602061423f8339815191528452600101909152902054909350612c7b90839063ffffffff612d2816565b9150600101612bf8565b509091565b600980546305f5e1009283026001600160401b03908116600160c01b026001600160c01b039490950216600160801b02600160801b600160c01b03199091161791909116919091179055565b600160c21b671155120bd554d1150281565b600c6020526000908152604090205481565b6001600160a01b0382166000908152600b602090815260408083208484526001019091529020545b92915050565b600082820183811015612d855760408051600160e51b62461bcd02815260206004820152601b60248201527f536166654d6174683a206164646974696f6e206f766572666c6f770000000000604482015290519081900360640190fd5b9392505050565b60008060085460ff166004811115612da057fe5b148015612db45750612db061321e565b4210155b15612dc157506001611450565b600460085460ff166004811115612dd457fe5b148015612de85750612de461140f565b4211155b15612df557506002611450565b5060085460ff1690565b6060600080600073cbc7df3b8c870c5cde675aaf5fd823e4209546d26001600160a01b031663bfed95b86040518163ffffffff1660e01b815260040160806040518083038186803b158015612e5357600080fd5b505afa158015612e67573d6000803e3d6000fd5b505050506040513d6080811015612e7d57600080fd5b50602090810151604080516002808252606082018352929450928301908038833901905050935060015b60038111612fa3576001600160a01b0386166000908152600b60209081526040808320848452600101909152902054612ee790859063ffffffff612d2816565b6000828152600c6020526040902054909450612f0a90849063ffffffff612d2816565b9250612f3b85600081518110612f1c57fe5b602002602001015187838560008051602061423f83398151915261411c565b85600081518110612f4857fe5b602002602001018181525050612f8385600181518110612f6457fe5b602002602001015187838560008051602061428083398151915261411c565b85600181518110612f9057fe5b6020908102919091010152600101612ea7565b50509193909250565b6000612d85612fc6836006546130b690919063ffffffff16565b849063ffffffff613de816565b60606000805b83518110156130ad57600a546001600160401b03166000908152600c602052604090205460078054613066929161305a918590811061301457fe5b60009182526020808320909101546001600160a01b038b168352600b82526040808420600a546001600160401b031685526001019092529120549063ffffffff613de816565b9063ffffffff6130b616565b915061308e8285838151811061307857fe5b6020026020010151612d2890919063ffffffff16565b84828151811061309a57fe5b6020908102919091010152600101612fd9565b50919392505050565b600080821161310f5760408051600160e51b62461bcd02815260206004820152601a60248201527f536166654d6174683a206469766973696f6e206279207a65726f000000000000604482015290519081900360640190fd5b600082848161311a57fe5b04949350505050565b8015613219576001600160a01b0383166000805160206142808339815191521415613184576040516001600160a01b0383169082156108fc029083906000818181858888f1935050505015801561317e573d6000803e3d6000fd5b50613219565b826001600160a01b031663a9059cbb83836040518363ffffffff1660e01b815260040180836001600160a01b03166001600160a01b0316815260200182815260200192505050602060405180830381600087803b1580156131e457600080fd5b505af11580156131f8573d6000803e3d6000fd5b505050506040513d602081101561320e57600080fd5b505161321957600080fd5b505050565b60095460009061144d906001600160401b0380821691600160401b90041663ffffffff612d2816565b6000828211156132a15760408051600160e51b62461bcd02815260206004820152601e60248201527f536166654d6174683a207375627472616374696f6e206f766572666c6f770000604482015290519081900360640190fd5b50900390565b6132af612664565b6001600160401b031642101561330f5760408051600160e51b62461bcd02815260206004820152601060248201527f54696d65206e6f74207265616368656400000000000000000000000000000000604482015290519081900360640190fd5b600082116133675760408051600160e51b62461bcd02815260206004820152601e60248201527f76616c75652073686f756c642062652067726561746572207468616e20300000604482015290519081900360640190fd5b600073cbc7df3b8c870c5cde675aaf5fd823e4209546d26001600160a01b031663bfed95b86040518163ffffffff1660e01b815260040160806040518083038186803b1580156133b657600080fd5b505afa1580156133ca573d6000803e3d6000fd5b505050506040513d60808110156133e057600080fd5b50602001519050600360085460ff1660048111156133fa57fe5b1461342e57600a80546fffffffffffffffff00000000000000001916600160401b426001600160401b031602179055613448565b600a80546fffffffffffffffff0000000000000000191690555b6008805460ff191660041790556009546001600160401b03600160801b9091041683101561348957600a805467ffffffffffffffff191660011790556134d1565b600954600160c01b90046001600160401b03168311156134bc57600a805467ffffffffffffffff191660031790556134d1565b600a805467ffffffffffffffff191660021790555b60408051600280825260608083018452926020830190803883395050600a546001600160401b03166000908152600c6020908152604080832060008051602061428083398151915284526001019091529020549192505015158061356a5750600a546001600160401b03166000908152600c6020908152604080832060008051602061423f833981519152845260010190915290205415155b156136775760015b6003811161365d57600a546001600160401b03168114613655576000818152600c6020908152604080832060008051602061423f83398151915284526002019091528120546135c49085906064613e44565b90506135d7818460008151811061307857fe5b836000815181106135e457fe5b6020908102919091018101919091526000838152600c82526040808220600080516020614280833981519152835260020190925220546136279085906064613e44565b905061363a818460018151811061307857fe5b8360018151811061364757fe5b602002602001018181525050505b600101613572565b5080516136719060079060208401906141d9565b5061372f565b60015b6003811161372d576000818152600c6020908152604080832060008051602061423f83398151915284526002019091528120546136ba9085906064613e44565b6005549091506136d0908263ffffffff612d2816565b6005556000828152600c60209081526040808320600080516020614280833981519152845260020190915290205461370b9085906064613e44565b600254909150613721908263ffffffff612d2816565b6002555060010161367a565b505b6137726000805160206142808339815191527365add15c5ff3abc069358aae842de13ce92f344761376d600354600254612d2890919063ffffffff16565b613123565b6137b060008051602061423f8339815191527365add15c5ff3abc069358aae842de13ce92f344761376d600454600554612d2890919063ffffffff16565b600060038190556004908155600a54604051600160e01b63a99f50dd0281526001600160401b03909116602482018190526044820187905260648201869052608092820192835260078054608484018190527365add15c5ff3abc069358aae842de13ce92f34479463a99f50dd949293928a928a9291829160a4909101908790801561385b57602002820191906000526020600020905b815481526020019060010190808311613847575b505095505050505050600060405180830381600087803b15801561387e57600080fd5b505af1158015613892573d6000803e3d6000fd5b5050505050505050565b604080517f19457468657265756d205369676e6564204d6573736167653a0a333200000000602080830191909152603c8083019490945282518083039094018452605c909101909152815191012090565b6000309050806001600160a01b031663025313a26040518163ffffffff1660e01b815260040160206040518083038186803b15801561392b57600080fd5b505afa15801561393f573d6000803e3d6000fd5b505050506040513d602081101561395557600080fd5b50516001600160a01b031633146139b65760408051600160e51b62461bcd02815260206004820152601a60248201527f53656e646572206973206e6f742070726f7879206f776e65722e000000000000604482015290519081900360640190fd5b6009546001600160401b031615613a175760408051600160e51b62461bcd02815260206004820152601360248201527f416c726561647920696e697469616c697a656400000000000000000000000000604482015290519081900360640190fd5b42613a346001600160401b0387811690871663ffffffff612d2816565b11613a3e57600080fd5b506009805467ffffffffffffffff19166001600160401b03958616176fffffffffffffffff00000000000000001916600160401b9486169490940293909317600160801b600160c01b031916600160801b92851692909202919091176001600160c01b0316600160c01b9190931602919091179055565b60408051600b8082526101808201909252600091829160609160208201610160803883390190505090508681600081518110613aed57fe5b60209081029190910101526009548151600160801b9091046001600160401b03169082906001908110613b1c57fe5b60209081029190910101526009548151600160c01b9091046001600160401b03169082906002908110613b4b57fe5b602090810291909101015260095481516001600160401b039091169082906003908110613b7457fe5b602002602001018181525050613b8861321e565b81600481518110613b9557fe5b602002602001018181525050613ba9612bf2565b82600581518110613bb657fe5b6020026020010183600681518110613bca57fe5b602090810291909101810192909252919091526000888152600c8252604080822060008051602061428083398151915283526001019092522054815182906007908110613c1357fe5b6020908102919091018101919091526000888152600c8252604080822060008051602061423f83398151915283526001019092522054815182906008908110613c5857fe5b6020026020010181815250508581600981518110613c7257fe5b6020026020010181815250508481600a81518110613c8c57fe5b6020026020010181815250506000600b6000613ca6611453565b6001600160a01b0316815260208101919091526040016000205462010000900460ff16613cd1575060015b73cbc7df3b8c870c5cde675aaf5fd823e4209546d26398d57d218387613cf5611453565b60405163ffffffff851660e01b81526001600160a01b03808416602483015282166044820152735e2aa6b66531142beab830c385646f97fa03d80a60648201819052871515608483015260a060048301908152855160a4840152855191928992829160c401906020898101910280838360005b83811015613d80578181015183820152602001613d68565b505050509050019650505050505050604080518083038186803b158015613da657600080fd5b505afa158015613dba573d6000803e3d6000fd5b505050506040513d6040811015613dd057600080fd5b50805160209091015190999098509650505050505050565b600082613df757506000612d22565b82820282848281613e0457fe5b0414612d8557604051600160e51b62461bcd02815260040180806020018281038252602181526020018061425f6021913960400191505060405180910390fd5b6000613e5a8261305a868663ffffffff613de816565b949350505050565b613ea881600b6000613e72611453565b6001600160a01b03168152602080820192909252604090810160009081208a82526001019092529020549063ffffffff612d2816565b600b6000613eb4611453565b6001600160a01b03166001600160a01b03168152602001908152602001600020600101600087815260200190815260200160002081905550613f4084600b6000613efc611453565b6001600160a01b039081168252602080830193909352604091820160009081209189168152600290910183528181208a82529092529020549063ffffffff612d2816565b600b6000613f4c611453565b6001600160a01b03908116825260208083019390935260409182016000908120918816815260029091018352818120898252909252902055613fe7613f97858463ffffffff613de816565b600b6000613fa3611453565b6001600160a01b039081168252602080830193909352604091820160009081209189168152600390910183528181208a82529092529020549063ffffffff612d2816565b600b6000613ff3611453565b6001600160a01b03908116825260208083019390935260409182016000908120918816815260039091018352818120898252835281812093909355600c909152902054614046908263ffffffff612d2816565b6000868152600c602090815260408083209384556001600160a01b038716835260019093019052205461407f908563ffffffff612d2816565b6000868152600c602090815260408083206001600160a01b03881684526001019091529020556140ea6140b8858463ffffffff613de816565b6000878152600c602090815260408083206001600160a01b03891684526002019091529020549063ffffffff612d2816565b6000958652600c602090815260408088206001600160a01b039096168852600290950190529290942091909155505050565b600a546000906001600160401b031684141561413757600092505b6001600160a01b038086166000908152600b602090815260408083209386168352600390930181528282208783529052908120546141789085906064613e44565b6001600160a01b038088166000908152600b60209081526040808320938816835260029093018152828220898352905220549091506141ce906141c1908363ffffffff61324716565b889063ffffffff612d2816565b979650505050505050565b828054828255906000526020600020908101928215614214579160200282015b828111156142145782518255916020019190600101906141f9565b50614220929150614224565b5090565b61145091905b80821115614220576000815560010161422a56fe000000000000000000000000a626089a947eadc8a782293b53fcf42247c71111536166654d6174683a206d756c7469706c69636174696f6e206f766572666c6f77000000000000000000000000eeeeeeeeeeeeeeeeeeeeeeeeeeeeeeeeeeeeeeee5369676e657220616e64207369676e617475726520646f206e6f74206d61746368a165627a7a72305820053037a1d16872ada2c43486be69af78644145db344454279e299d6b860a1c6d0029",
  "source": "pragma solidity 0.5.7;\n\nimport \"../Market.sol\";\n\ncontract MockMarket is Market {\n\n\tmapping(uint => uint) optionPrices;\n\n\tbool public mockFlag;\n\n\tfunction setMockPriceFlag(bool _flag) public {\n\t\tmockFlag = _flag;\n\t}\n\n  function setOptionRangesPublic(uint _midRangeMin, uint _midRangeMax) public{\n      marketData.neutralMinValue = uint64(_midRangeMin*1e8);\n      marketData.neutralMaxValue = uint64(_midRangeMax*1e8);\n      // optionsAvailable[1].minValue = 0;\n      // optionsAvailable[1].maxValue = _midRangeMin.sub(1);\n      // optionsAvailable[2].minValue = _midRangeMin;\n      // optionsAvailable[2].maxValue = _midRangeMax;\n      // optionsAvailable[3].minValue = _midRangeMax.add(1);\n      // optionsAvailable[3].maxValue = ~uint256(0) ;\n    }\n\n    function initiate(uint64 _startTime, uint64 _predictionTime, uint64 _minValue, uint64 _maxValue) public payable {\n      mockFlag = true;\n      super.initiate(_startTime, _predictionTime, _minValue, _maxValue);\n    }\n\n    /**\n    * @dev Calculate the result of market.\n    * @param _value The current price of market currency.\n    */\n    function calculatePredictionResult(uint _value) public {\n      _postResult(_value, 0);\n    }\n\n    function setOptionPrice(uint _option, uint _price) public {\n    \toptionPrices[_option] = _price;\n    }\n\n}",
  "sourcePath": "/home/madan/Documents/PlotX/PlotxContract/contracts/mock/MockMarket.sol",
  "compiler": {
    "name": "solc",
    "version": "0.5.7+commit.6da8b019.Emscripten.clang"
  },
  "schemaVersion": "3.3.2",
  "updatedAt": "2020-12-10T08:39:39.315Z",
  "networkType": "ethereum",
  "devdoc": {
    "methods": {
      "calculatePredictionResult(uint256)": {
        "details": "Calculate the result of market.",
        "params": {
          "_value": "The current price of market currency."
        }
      },
      "claimReturn(address)": {
        "details": "Claim the return amount of the specified address.\r",
        "params": {
          "_user": "The address to query the claim return amount of.\r"
        },
        "return": "Flag, if 0:cannot claim, 1: Already Claimed, 2: Claimed\r"
      },
      "estimatePredictionValue(uint256,uint256,uint256)": {
        "details": "Get estimated amount of prediction points for given inputs.\r",
        "params": {
          "_leverage": "The leverage opted by user at the time of prediction.\r",
          "_prediction": "The option on which user place prediction.\r",
          "_stakeValueInEth": "The amount staked by user.\r"
        },
        "return": "uint256 representing the prediction points.\r"
      },
      "executeMetaTransaction(address,bytes,bytes32,bytes32,uint8)": {
        "params": {
          "functionSignature": "Signature of the actual function to be called via meta transaction",
          "sigR": "R part of the signature",
          "sigS": "S part of the signature",
          "sigV": "V part of the signature",
          "userAddress": "Address of user trying to do meta transaction"
        }
      },
      "getData()": {
        "details": "Gets the market data.\r",
        "return": "_marketCurrency bytes32 representing the currency or stock name of the market.\rminvalue uint[] memory representing the minimum range of all the options of the market.\rmaxvalue uint[] memory representing the maximum range of all the options of the market.\r_optionPrice uint[] memory representing the option price of each option ranges of the market.\r_ethStaked uint[] memory representing the ether staked on each option ranges of the market.\r_plotStaked uint[] memory representing the plot staked on each option ranges of the market.\r_predictionTime uint representing the type of market.\r_expireTime uint representing the time at which market closes for prediction\r_predictionStatus uint representing the status of the market.\r"
      },
      "getMarketFeedData()": {
        "details": "Get market Feed data\r",
        "return": "market currency name\rmarket currency feed address\r"
      },
      "getMarketResults()": {
        "details": "Gets the result of the market.\r",
        "return": "uint256 representing the winning option of the market.\ruint256 Value of market currently at the time closing market.\ruint256 representing the positions of the winning option.\ruint[] memory representing the reward to be distributed.\ruint256 representing the Eth staked on winning option.\ruint256 representing the PLOT staked on winning option.\r"
      },
      "getOptionPrice(uint256)": {
        "details": "Gets the price of specific option.\r",
        "params": {
          "_prediction": "The option number to query the balance of.\r"
        },
        "return": "Price of the option.\r"
      },
      "getReturn(address)": {
        "details": "Gets the return amount of the specified address.\r",
        "params": {
          "_user": "The address to specify the return of\r"
        },
        "return": "returnAmount uint[] memory representing the return amount.\rincentive uint[] memory representing the amount incentive.\r_incentiveTokens address[] memory representing the incentive tokens.\r"
      },
      "getUserFlags(address)": {
        "details": "Get flags set for user\r",
        "params": {
          "_user": "User address\r"
        },
        "return": "Flag defining if user had availed multiplier\rFlag defining if user had predicted with bPLOT\r"
      },
      "getUserPredictionPoints(address,uint256)": {
        "details": "Gets number of positions user got in prediction\r",
        "params": {
          "_option": "Option Id\r",
          "_user": "Address of user\r"
        }
      },
      "marketCoolDownTime()": {
        "details": "Get market cooldown time\r",
        "return": "the time upto which user can raise the dispute after the market is settled\r"
      },
      "marketSettleTime()": {
        "details": "Get market settle time\r",
        "return": "the time at which the market result will be declared\r"
      },
      "placePrediction(address,uint256,uint256,uint256)": {
        "details": "Place prediction on the available options of the market.\r",
        "params": {
          "_asset": "The asset used by user during prediction whether it is plotToken address or in ether.\r",
          "_leverage": "The leverage opted by user at the time of prediction.\r",
          "_prediction": "The option on which user placed prediction.\r",
          "_predictionStake": "The amount staked by user at the time of prediction.\r"
        }
      },
      "raiseDispute(uint256,string,string,string)": {
        "details": "Raise the dispute if wrong value passed at the time of market result declaration.\r",
        "params": {
          "description": "The description of dispute.\r",
          "proposalTitle": "The title of proposal created by user.\r",
          "proposedValue": "The proposed value of market currency.\r",
          "solutionHash": "The ipfs solution hash.\r"
        }
      },
      "resolveDispute(bool,uint256)": {
        "details": "Resolve the dispute\r",
        "params": {
          "accepted": "Flag mentioning if dispute is accepted or not\r",
          "finalResult": "The final correct value of market currency.\r"
        }
      },
      "settleMarket()": {
        "details": "Settle the market, setting the winning option\r"
      }
    }
  },
  "userdoc": {
    "methods": {
      "executeMetaTransaction(address,bytes,bytes32,bytes32,uint8)": {
        "notice": "Main function to be called when user wants to execute meta transaction. The actual function to be called should be passed as param with name functionSignature Here the basic signature recovery is being used. Signature is expected to be generated using personal_sign method."
      }
    }
  }
}