{
  "contractName": "MockUniswapRouter",
  "abi": [
    {
      "constant": true,
      "inputs": [],
      "name": "priceOfToken",
      "outputs": [
        {
          "name": "",
          "type": "uint256"
        }
      ],
      "payable": false,
      "stateMutability": "view",
      "type": "function"
    },
    {
      "inputs": [
        {
          "name": "_token",
          "type": "address"
        }
      ],
      "payable": false,
      "stateMutability": "nonpayable",
      "type": "constructor"
    },
    {
      "payable": true,
      "stateMutability": "payable",
      "type": "fallback"
    },
    {
      "constant": true,
      "inputs": [],
      "name": "WETH",
      "outputs": [
        {
          "name": "",
          "type": "address"
        }
      ],
      "payable": false,
      "stateMutability": "pure",
      "type": "function"
    },
    {
      "constant": false,
      "inputs": [
        {
          "name": "_newPrice",
          "type": "uint256"
        }
      ],
      "name": "setPrice",
      "outputs": [],
      "payable": false,
      "stateMutability": "nonpayable",
      "type": "function"
    },
    {
      "constant": false,
      "inputs": [
        {
          "name": "amountOutMin",
          "type": "uint256"
        },
        {
          "name": "path",
          "type": "address[]"
        },
        {
          "name": "to",
          "type": "address"
        },
        {
          "name": "deadline",
          "type": "uint256"
        }
      ],
      "name": "swapExactETHForTokens",
      "outputs": [
        {
          "name": "amounts",
          "type": "uint256[]"
        }
      ],
      "payable": true,
      "stateMutability": "payable",
      "type": "function"
    },
    {
      "constant": true,
      "inputs": [
        {
          "name": "amountIn",
          "type": "uint256"
        },
        {
          "name": "path",
          "type": "address[]"
        }
      ],
      "name": "getAmountsOut",
      "outputs": [
        {
          "name": "amounts",
          "type": "uint256[]"
        }
      ],
      "payable": false,
      "stateMutability": "view",
      "type": "function"
    }
  ],
  "bytecode": "0x6080604052662386f26fc1000060005534801561001b57600080fd5b506040516020806105ef8339810180604052602081101561003b57600080fd5b5051600180546001600160a01b0319166001600160a01b039092169190911790556105848061006b6000396000f3fe60806040526004361061004a5760003560e01c80631b9cbdfb1461004c5780637ff36ab51461007357806391b7f5ed14610149578063ad5c464814610173578063d06ca61f146101a4575b005b34801561005857600080fd5b50610061610228565b60408051918252519081900360200190f35b6100f96004803603608081101561008957600080fd5b813591908101906040810160208201356401000000008111156100ab57600080fd5b8201836020820111156100bd57600080fd5b803590602001918460208302840111640100000000831117156100df57600080fd5b91935091506001600160a01b03813516906020013561022e565b60408051602080825283518183015283519192839290830191858101910280838360005b8381101561013557818101518382015260200161011d565b505050509050019250505060405180910390f35b34801561015557600080fd5b5061004a6004803603602081101561016c57600080fd5b5035610345565b34801561017f57600080fd5b5061018861034a565b604080516001600160a01b039092168252519081900360200190f35b3480156101b057600080fd5b506100f9600480360360408110156101c757600080fd5b813591908101906040810160208201356401000000008111156101e957600080fd5b8201836020820111156101fb57600080fd5b8035906020019184602083028401116401000000008311171561021d57600080fd5b509092509050610362565b60005481565b60008054606091349161025f9061025384670de0b6b3a764000063ffffffff61046516565b9063ffffffff6104ca16565b60015460408051600160e01b63a9059cbb0281526001600160a01b03898116600483015260248201859052915193945091169163a9059cbb916044808201926020929091908290030181600087803b1580156102ba57600080fd5b505af11580156102ce573d6000803e3d6000fd5b505050506040513d60208110156102e457600080fd5b50506040805160028082526060820183529091602083019080388339019050509250818360008151811061031457fe5b602002602001018181525050808360018151811061032e57fe5b602002602001018181525050505095945050505050565b600055565b73eeeeeeeeeeeeeeeeeeeeeeeeeeeeeeeeeeeeeeee90565b6040805160028082526060808301845292602083019080388339019050509050838160008151811061039057fe5b602002602001018181525050828260008181106103a957fe5b905060200201356001600160a01b03166001600160a01b031673eeeeeeeeeeeeeeeeeeeeeeeeeeeeeeeeeeeeeeee6001600160a01b03161415610423576000546104059061025386670de0b6b3a764000063ffffffff61046516565b8160018151811061041257fe5b60200260200101818152505061045e565b610444670de0b6b3a76400006102536000548761046590919063ffffffff16565b8160018151811061045157fe5b6020026020010181815250505b9392505050565b600082610474575060006104c4565b8282028284828161048157fe5b04146104c157604051600160e51b62461bcd0281526004018080602001828103825260218152602001806105386021913960400191505060405180910390fd5b90505b92915050565b60008082116105235760408051600160e51b62461bcd02815260206004820152601a60248201527f536166654d6174683a206469766973696f6e206279207a65726f000000000000604482015290519081900360640190fd5b600082848161052e57fe5b0494935050505056fe536166654d6174683a206d756c7469706c69636174696f6e206f766572666c6f77a165627a7a72305820540d5431fbaf1868dd0e7f2fb91417c3d666860ee37eab9c1906a6f28b0824560029",
  "source": "pragma solidity 0.5.7;\n\nimport \"../external/uniswap/solidity-interface.sol\";\nimport \"../external/openzeppelin-solidity/math/SafeMath.sol\";\nimport \"../interfaces/IToken.sol\";\n\ncontract MockUniswapRouter {\n\n\tusing SafeMath for uint;\n\n\tuint public priceOfToken = 1e16;\n\taddress token;\n\n\tconstructor(address _token) public {\n\t\ttoken = _token;\n\t}\n\n    function WETH() external pure returns (address) {\n    \treturn 0xEeeeeEeeeEeEeeEeEeEeeEEEeeeeEeeeeeeeEEeE;\n    }\n\n    function setPrice(uint _newPrice) external {\n    \tpriceOfToken = _newPrice;\n    }\n\n\n    function swapExactETHForTokens(uint amountOutMin, address[] calldata path, address to, uint deadline)\n        external\n        payable\n        returns (uint[] memory amounts) {\n        \tuint ethSent = msg.value;\n        \tuint tokenOutput = ethSent.mul(1e18).div(priceOfToken);\n\t    \tIToken(token).transfer(to, tokenOutput); \n            amounts = new uint[](2);\n            amounts[0] = ethSent;\n            amounts[1] = tokenOutput;\n        }\n\n    function getAmountsOut(uint amountIn, address[] calldata path) external view returns (uint[] memory amounts) {\n    \tamounts = new uint[](2);\n    \tamounts[0] = amountIn;\n    \tif(path[0] == 0xEeeeeEeeeEeEeeEeEeEeeEEEeeeeEeeeeeeeEEeE) {\n    \t\tamounts[1] = amountIn.mul(1e18).div(priceOfToken);\n    \t} else {\n    \t\tamounts[1] = amountIn.mul(priceOfToken).div(1e18);\n    \t}\n    }\n\n    function () payable external {\n\n    }\n\n\n}",
  "sourcePath": "/home/madan/Documents/PlotX/PlotxContract/contracts/mock/MockUniswapRouter.sol",
  "compiler": {
    "name": "solc",
    "version": "0.5.7+commit.6da8b019.Emscripten.clang"
  },
  "schemaVersion": "3.3.2",
  "updatedAt": "2020-12-10T08:39:39.397Z",
  "networkType": "ethereum",
  "devdoc": {
    "methods": {}
  },
  "userdoc": {
    "methods": {}
  }
}