{
  "contractName": "MockGovernance",
  "abi": [
    {
      "constant": false,
      "inputs": [
        {
          "name": "_proposalId",
          "type": "uint256"
        }
      ],
      "name": "closeProposal",
      "outputs": [],
      "payable": false,
      "stateMutability": "nonpayable",
      "type": "function"
    },
    {
      "constant": true,
      "inputs": [
        {
          "name": "",
          "type": "address"
        },
        {
          "name": "",
          "type": "uint256"
        }
      ],
      "name": "memberProposalVote",
      "outputs": [
        {
          "name": "",
          "type": "uint256"
        }
      ],
      "payable": false,
      "stateMutability": "view",
      "type": "function"
    },
    {
      "constant": true,
      "inputs": [
        {
          "name": "",
          "type": "uint256"
        },
        {
          "name": "",
          "type": "address"
        }
      ],
      "name": "isActionRejected",
      "outputs": [
        {
          "name": "",
          "type": "bool"
        }
      ],
      "payable": false,
      "stateMutability": "view",
      "type": "function"
    },
    {
      "constant": true,
      "inputs": [
        {
          "name": "_proposalId",
          "type": "uint256"
        },
        {
          "name": "_solution",
          "type": "uint256"
        }
      ],
      "name": "voteTallyData",
      "outputs": [
        {
          "name": "",
          "type": "uint256"
        },
        {
          "name": "",
          "type": "uint256"
        },
        {
          "name": "",
          "type": "uint256"
        }
      ],
      "payable": false,
      "stateMutability": "view",
      "type": "function"
    },
    {
      "constant": true,
      "inputs": [
        {
          "name": "_proposalId",
          "type": "uint256"
        }
      ],
      "name": "proposalDetails",
      "outputs": [
        {
          "name": "",
          "type": "uint256"
        },
        {
          "name": "",
          "type": "uint256"
        },
        {
          "name": "",
          "type": "uint256"
        }
      ],
      "payable": false,
      "stateMutability": "view",
      "type": "function"
    },
    {
      "constant": false,
      "inputs": [
        {
          "name": "_proposalTitle",
          "type": "string"
        },
        {
          "name": "_proposalSD",
          "type": "string"
        },
        {
          "name": "_proposalDescHash",
          "type": "string"
        },
        {
          "name": "_categoryId",
          "type": "uint256"
        },
        {
          "name": "_solutionHash",
          "type": "string"
        },
        {
          "name": "_action",
          "type": "bytes"
        }
      ],
      "name": "createProposalwithSolution",
      "outputs": [],
      "payable": false,
      "stateMutability": "nonpayable",
      "type": "function"
    },
    {
      "constant": false,
      "inputs": [
        {
          "name": "_memberAddress",
          "type": "address"
        },
        {
          "name": "_maxRecords",
          "type": "uint256"
        }
      ],
      "name": "claimReward",
      "outputs": [
        {
          "name": "pendingDAppReward",
          "type": "uint256"
        }
      ],
      "payable": false,
      "stateMutability": "nonpayable",
      "type": "function"
    },
    {
      "constant": true,
      "inputs": [
        {
          "name": "",
          "type": "uint256"
        }
      ],
      "name": "proposalActionStatus",
      "outputs": [
        {
          "name": "",
          "type": "uint256"
        }
      ],
      "payable": false,
      "stateMutability": "view",
      "type": "function"
    },
    {
      "constant": false,
      "inputs": [
        {
          "name": "_proposalId",
          "type": "uint256"
        }
      ],
      "name": "rejectAction",
      "outputs": [],
      "payable": false,
      "stateMutability": "nonpayable",
      "type": "function"
    },
    {
      "constant": true,
      "inputs": [
        {
          "name": "_proposalId",
          "type": "uint256"
        },
        {
          "name": "_solution",
          "type": "uint256"
        }
      ],
      "name": "getSolutionAction",
      "outputs": [
        {
          "name": "",
          "type": "uint256"
        },
        {
          "name": "",
          "type": "bytes"
        }
      ],
      "payable": false,
      "stateMutability": "view",
      "type": "function"
    },
    {
      "constant": true,
      "inputs": [
        {
          "name": "_proposalId",
          "type": "uint256"
        }
      ],
      "name": "proposal",
      "outputs": [
        {
          "name": "proposalId",
          "type": "uint256"
        },
        {
          "name": "category",
          "type": "uint256"
        },
        {
          "name": "status",
          "type": "uint256"
        },
        {
          "name": "finalVerdict",
          "type": "uint256"
        },
        {
          "name": "totalRewar",
          "type": "uint256"
        }
      ],
      "payable": false,
      "stateMutability": "view",
      "type": "function"
    },
    {
      "constant": true,
      "inputs": [],
      "name": "tokenHoldingTime",
      "outputs": [
        {
          "name": "",
          "type": "uint256"
        }
      ],
      "payable": false,
      "stateMutability": "view",
      "type": "function"
    },
    {
      "constant": false,
      "inputs": [],
      "name": "setMasterAddress",
      "outputs": [],
      "payable": false,
      "stateMutability": "nonpayable",
      "type": "function"
    },
    {
      "constant": false,
      "inputs": [
        {
          "name": "_proposalTitle",
          "type": "string"
        },
        {
          "name": "_proposalSD",
          "type": "string"
        },
        {
          "name": "_proposalDescHash",
          "type": "string"
        },
        {
          "name": "_categoryId",
          "type": "uint256"
        }
      ],
      "name": "createProposal",
      "outputs": [],
      "payable": false,
      "stateMutability": "nonpayable",
      "type": "function"
    },
    {
      "constant": true,
      "inputs": [
        {
          "name": "_memberAddress",
          "type": "address"
        }
      ],
      "name": "getPendingReward",
      "outputs": [
        {
          "name": "pendingDAppReward",
          "type": "uint256"
        }
      ],
      "payable": false,
      "stateMutability": "view",
      "type": "function"
    },
    {
      "constant": true,
      "inputs": [],
      "name": "allowedToCategorize",
      "outputs": [
        {
          "name": "check",
          "type": "bool"
        }
      ],
      "payable": false,
      "stateMutability": "view",
      "type": "function"
    },
    {
      "constant": true,
      "inputs": [
        {
          "name": "",
          "type": "uint256"
        },
        {
          "name": "",
          "type": "address"
        }
      ],
      "name": "rewardClaimed",
      "outputs": [
        {
          "name": "",
          "type": "bool"
        }
      ],
      "payable": false,
      "stateMutability": "view",
      "type": "function"
    },
    {
      "constant": true,
      "inputs": [
        {
          "name": "code",
          "type": "bytes8"
        }
      ],
      "name": "getUintParameters",
      "outputs": [
        {
          "name": "codeVal",
          "type": "bytes8"
        },
        {
          "name": "val",
          "type": "uint256"
        }
      ],
      "payable": false,
      "stateMutability": "view",
      "type": "function"
    },
    {
      "constant": false,
      "inputs": [
        {
          "name": "_proposalId",
          "type": "uint256"
        },
        {
          "name": "_categoryId",
          "type": "uint256"
        },
        {
          "name": "_incentive",
          "type": "uint256"
        }
      ],
      "name": "categorizeProposal",
      "outputs": [],
      "payable": false,
      "stateMutability": "nonpayable",
      "type": "function"
    },
    {
      "constant": false,
      "inputs": [
        {
          "name": "_proposalId",
          "type": "uint256"
        },
        {
          "name": "_solutionChosen",
          "type": "uint256"
        }
      ],
      "name": "submitVote",
      "outputs": [],
      "payable": false,
      "stateMutability": "nonpayable",
      "type": "function"
    },
    {
      "constant": false,
      "inputs": [
        {
          "name": "_proposalId",
          "type": "uint256"
        },
        {
          "name": "_solutionHash",
          "type": "string"
        },
        {
          "name": "_action",
          "type": "bytes"
        }
      ],
      "name": "submitProposalWithSolution",
      "outputs": [],
      "payable": false,
      "stateMutability": "nonpayable",
      "type": "function"
    },
    {
      "constant": true,
      "inputs": [],
      "name": "getProposalLength",
      "outputs": [
        {
          "name": "",
          "type": "uint256"
        }
      ],
      "payable": false,
      "stateMutability": "view",
      "type": "function"
    },
    {
      "constant": false,
      "inputs": [
        {
          "name": "code",
          "type": "bytes8"
        },
        {
          "name": "val",
          "type": "uint256"
        }
      ],
      "name": "updateUintParameters",
      "outputs": [],
      "payable": false,
      "stateMutability": "nonpayable",
      "type": "function"
    },
    {
      "constant": true,
      "inputs": [
        {
          "name": "category",
          "type": "uint256"
        }
      ],
      "name": "allowedToCreateProposal",
      "outputs": [
        {
          "name": "check",
          "type": "bool"
        }
      ],
      "payable": false,
      "stateMutability": "view",
      "type": "function"
    },
    {
      "constant": true,
      "inputs": [],
      "name": "ms",
      "outputs": [
        {
          "name": "",
          "type": "address"
        }
      ],
      "payable": false,
      "stateMutability": "view",
      "type": "function"
    },
    {
      "constant": true,
      "inputs": [],
      "name": "allowedToCatgorize",
      "outputs": [
        {
          "name": "roleId",
          "type": "uint256"
        }
      ],
      "payable": false,
      "stateMutability": "view",
      "type": "function"
    },
    {
      "constant": true,
      "inputs": [
        {
          "name": "_proposalId",
          "type": "uint256"
        }
      ],
      "name": "canCloseProposal",
      "outputs": [
        {
          "name": "",
          "type": "uint256"
        }
      ],
      "payable": false,
      "stateMutability": "view",
      "type": "function"
    },
    {
      "constant": false,
      "inputs": [
        {
          "name": "_proposalId",
          "type": "uint256"
        }
      ],
      "name": "triggerAction",
      "outputs": [],
      "payable": false,
      "stateMutability": "nonpayable",
      "type": "function"
    },
    {
      "constant": true,
      "inputs": [
        {
          "name": "",
          "type": "address"
        }
      ],
      "name": "lastRewardClaimed",
      "outputs": [
        {
          "name": "",
          "type": "uint256"
        }
      ],
      "payable": false,
      "stateMutability": "view",
      "type": "function"
    },
    {
      "constant": true,
      "inputs": [
        {
          "name": "",
          "type": "uint256"
        }
      ],
      "name": "proposalVoteTally",
      "outputs": [
        {
          "name": "voters",
          "type": "uint256"
        }
      ],
      "payable": false,
      "stateMutability": "view",
      "type": "function"
    },
    {
      "anonymous": false,
      "inputs": [
        {
          "indexed": false,
          "name": "proposalId",
          "type": "uint256"
        }
      ],
      "name": "ActionFailed",
      "type": "event"
    },
    {
      "anonymous": false,
      "inputs": [
        {
          "indexed": true,
          "name": "proposalId",
          "type": "uint256"
        },
        {
          "indexed": false,
          "name": "rejectedBy",
          "type": "address"
        }
      ],
      "name": "ActionRejected",
      "type": "event"
    },
    {
      "anonymous": false,
      "inputs": [
        {
          "indexed": true,
          "name": "proposalId",
          "type": "uint256"
        },
        {
          "indexed": true,
          "name": "categorizedBy",
          "type": "address"
        },
        {
          "indexed": false,
          "name": "categoryId",
          "type": "uint256"
        }
      ],
      "name": "ProposalCategorized",
      "type": "event"
    },
    {
      "anonymous": false,
      "inputs": [
        {
          "indexed": true,
          "name": "proposalOwner",
          "type": "address"
        },
        {
          "indexed": true,
          "name": "proposalId",
          "type": "uint256"
        },
        {
          "indexed": false,
          "name": "dateAdd",
          "type": "uint256"
        },
        {
          "indexed": false,
          "name": "proposalTitle",
          "type": "string"
        },
        {
          "indexed": false,
          "name": "proposalSD",
          "type": "string"
        },
        {
          "indexed": false,
          "name": "proposalDescHash",
          "type": "string"
        }
      ],
      "name": "Proposal",
      "type": "event"
    },
    {
      "anonymous": false,
      "inputs": [
        {
          "indexed": true,
          "name": "proposalId",
          "type": "uint256"
        },
        {
          "indexed": true,
          "name": "solutionOwner",
          "type": "address"
        },
        {
          "indexed": true,
          "name": "solutionId",
          "type": "uint256"
        },
        {
          "indexed": false,
          "name": "solutionDescHash",
          "type": "string"
        },
        {
          "indexed": false,
          "name": "dateAdd",
          "type": "uint256"
        }
      ],
      "name": "Solution",
      "type": "event"
    },
    {
      "anonymous": false,
      "inputs": [
        {
          "indexed": true,
          "name": "from",
          "type": "address"
        },
        {
          "indexed": true,
          "name": "proposalId",
          "type": "uint256"
        },
        {
          "indexed": true,
          "name": "voteId",
          "type": "uint256"
        },
        {
          "indexed": false,
          "name": "dateAdd",
          "type": "uint256"
        },
        {
          "indexed": false,
          "name": "solutionChosen",
          "type": "uint256"
        }
      ],
      "name": "Vote",
      "type": "event"
    },
    {
      "anonymous": false,
      "inputs": [
        {
          "indexed": true,
          "name": "member",
          "type": "address"
        },
        {
          "indexed": false,
          "name": "gbtReward",
          "type": "uint256"
        }
      ],
      "name": "RewardClaimed",
      "type": "event"
    },
    {
      "anonymous": false,
      "inputs": [
        {
          "indexed": false,
          "name": "proposalId",
          "type": "uint256"
        }
      ],
      "name": "VoteCast",
      "type": "event"
    },
    {
      "anonymous": false,
      "inputs": [
        {
          "indexed": false,
          "name": "proposalId",
          "type": "uint256"
        }
      ],
      "name": "ProposalAccepted",
      "type": "event"
    },
    {
      "anonymous": false,
      "inputs": [
        {
          "indexed": true,
          "name": "proposalId",
          "type": "uint256"
        },
        {
          "indexed": false,
          "name": "time",
          "type": "uint256"
        }
      ],
      "name": "CloseProposalOnTime",
      "type": "event"
    },
    {
      "anonymous": false,
      "inputs": [
        {
          "indexed": false,
          "name": "proposalId",
          "type": "uint256"
        }
      ],
      "name": "ActionSuccess",
      "type": "event"
    }
  ],
  "bytecode": "0x608060405234801561001057600080fd5b50614c22806100206000396000f3fe608060405234801561001057600080fd5b50600436106101da5760003560e01c80634f615512116101045780639dd86e0f116100a2578063bcc81c0c11610071578063bcc81c0c1461092e578063c5d2eade1461094b578063e0429d0914610968578063eeff91881461098e576101da565b80639dd86e0f146108b85780639ed1c7db146108e5578063a0b2d57f14610902578063aaf86c3014610926576101da565b80636edde0bd116100de5780636edde0bd1461079f5780636f93bfb7146107c857806372870786146107eb5780638263a938146108b0576101da565b80634f6155121461072057806353fb6c5c146107285780636122f84014610754576101da565b80631d35ab491161017c57806339bb96071161014b57806339bb9607146105dc5780634b6199b0146105e45780634c15676b146105ec5780634df9d6ba146106fa576101da565b80631d35ab49146104b85780632b4b16b1146104d55780632f54243a146104f257806330326c1714610594576101da565b80630fec1dec116101b85780630fec1dec1461027c57806316e9eaec146102bd57806316fdc34e146102da578063174e31c41461048c576101da565b80630386a016146101df578063060225f6146101fe578063080ad64e1461023c575b600080fd5b6101fc600480360360208110156101f557600080fd5b50356109ab565b005b61022a6004803603604081101561021457600080fd5b506001600160a01b038135169060200135610a57565b60408051918252519081900360200190f35b6102686004803603604081101561025257600080fd5b50803590602001356001600160a01b0316610a74565b604080519115158252519081900360200190f35b61029f6004803603604081101561029257600080fd5b5080359060200135610a94565b60408051938452602084019290925282820152519081900360600190f35b61029f600480360360208110156102d357600080fd5b5035610ac8565b6101fc600480360360c08110156102f057600080fd5b810190602081018135600160201b81111561030a57600080fd5b82018360208201111561031c57600080fd5b803590602001918460018302840111600160201b8311171561033d57600080fd5b919390929091602081019035600160201b81111561035a57600080fd5b82018360208201111561036c57600080fd5b803590602001918460018302840111600160201b8311171561038d57600080fd5b919390929091602081019035600160201b8111156103aa57600080fd5b8201836020820111156103bc57600080fd5b803590602001918460018302840111600160201b831117156103dd57600080fd5b91939092823592604081019060200135600160201b8111156103fe57600080fd5b82018360208201111561041057600080fd5b803590602001918460018302840111600160201b8311171561043157600080fd5b919390929091602081019035600160201b81111561044e57600080fd5b82018360208201111561046057600080fd5b803590602001918460018302840111600160201b8311171561048157600080fd5b509092509050610aeb565b61022a600480360360408110156104a257600080fd5b506001600160a01b038135169060200135610c96565b61022a600480360360208110156104ce57600080fd5b5035610ebf565b6101fc600480360360208110156104eb57600080fd5b5035610ed1565b6105156004803603604081101561050857600080fd5b50803590602001356110ee565b6040518083815260200180602001828103825283818151815260200191508051906020019080838360005b83811015610558578181015183820152602001610540565b50505050905090810190601f1680156105855780820380516001836020036101000a031916815260200191505b50935050505060405180910390f35b6105b1600480360360208110156105aa57600080fd5b50356111b1565b6040805195865260208601949094528484019290925260608401526080830152519081900360a00190f35b61022a6111da565b6101fc6111e0565b6101fc6004803603608081101561060257600080fd5b810190602081018135600160201b81111561061c57600080fd5b82018360208201111561062e57600080fd5b803590602001918460018302840111600160201b8311171561064f57600080fd5b919390929091602081019035600160201b81111561066c57600080fd5b82018360208201111561067e57600080fd5b803590602001918460018302840111600160201b8311171561069f57600080fd5b919390929091602081019035600160201b8111156106bc57600080fd5b8201836020820111156106ce57600080fd5b803590602001918460018302840111600160201b831117156106ef57600080fd5b9193509150356115bd565b61022a6004803603602081101561071057600080fd5b50356001600160a01b0316611784565b6102686118fa565b6102686004803603604081101561073e57600080fd5b50803590602001356001600160a01b0316611984565b61077b6004803603602081101561076a57600080fd5b50356001600160c01b0319166119a4565b604080516001600160c01b0319909316835260208301919091528051918290030190f35b6101fc600480360360608110156107b557600080fd5b5080359060208101359060400135611af7565b6101fc600480360360408110156107de57600080fd5b5080359060200135611c5c565b6101fc6004803603606081101561080157600080fd5b81359190810190604081016020820135600160201b81111561082257600080fd5b82018360208201111561083457600080fd5b803590602001918460018302840111600160201b8311171561085557600080fd5b919390929091602081019035600160201b81111561087257600080fd5b82018360208201111561088457600080fd5b803590602001918460018302840111600160201b831117156108a557600080fd5b509092509050611cd7565b61022a611dca565b6101fc600480360360408110156108ce57600080fd5b506001600160c01b03198135169060200135611dd0565b610268600480360360208110156108fb57600080fd5b5035611fef565b61090a6121e8565b604080516001600160a01b039092168252519081900360200190f35b61022a6121f7565b61022a6004803603602081101561094457600080fd5b50356121fd565b6101fc6004803603602081101561096157600080fd5b5035612503565b61022a6004803603602081101561097e57600080fd5b50356001600160a01b03166125a0565b61022a600480360360208110156109a457600080fd5b50356125b2565b60008181526001602052604090206002810154600e54600490920154909142916109da9163ffffffff6125c716565b111580156109f657506002600083815260016020526040902054105b15610a3457610a078260055b61262d565b601454600083815260016020526040902060030154610a2f916001600160a01b03169061266b565b610a53565b610a3d826121fd565b600114610a4957600080fd5b610a5382826126fa565b5050565b600560209081526000928352604080842090915290825290205481565b601a60209081526000928352604080842090915290825290205460ff1681565b6000828152600660208181526040808420948452848252808420546001860183529084205495909352526002909101549092565b600081815260026020818152604080842054600690925290922001549192909190565b84610af581611fef565b610b3a5760408051600160e51b62461bcd02815260206004820152600b6024820152600160aa1b6a139bdd08185b1b1bddd95902604482015290519081900360640190fd5b600d54604080516020601f8f018190048102820181019092528d8152610c06918f908f9081908401838280828437600081840152601f19601f820116905080830192505050505050508c8c8080601f016020809104026020016040519081016040528093929190818152602001838380828437600081840152601f19601f820116905080830192505050505050508b8b8080601f0160208091040260200160405190810160405280939291908181526020018383808284376000920191909152508d9250612b8a915050565b60008711610c1357600080fd5b610c878187878080601f01602080910402602001604051908101604052809392919081815260200183838082843760009201919091525050604080516020601f8b018190048102820181019092528981529250899150889081908401838280828437600092019190915250612f6592505050565b50505050505050505050505050565b6001600160a01b038216600090815260036020908152604080832054600790925282205482918291819083905b8381108015610cd157508782105b15610e1f576001600160a01b0389166000908152600360205260409020805482908110610cfa57fe5b9060005260206000200154955060008681548110610d1457fe5b906000526020600020906005020160010154945060006006600087815260200190815260200160002060020154118015610d5c57506002600086815260016020526040902054115b15610e0b5760008681526004602090815260408083206001600160a01b038d16845290915290205460ff16610e0657600085815260066020908152604080832060020154600190925290912060030154610dcd91610dc0919063ffffffff6131f716565b889063ffffffff6125c716565b60008781526004602090815260408083206001600160a01b038e1684529091529020805460ff1916600190811790915590975091909101905b610e17565b83831415610e17578092505b600101610cc3565b83831415610e47576001600160a01b0389166000908152600760205260409020819055610e63565b6001600160a01b03891660009081526007602052604090208390555b8115610eb357610e73898861266b565b6040805188815290516001600160a01b038b16917f106f923f993c2149d49b4255ff723acafa1f2d94393f561d3eda32ae348f7241919081900360200190a25b50505050505092915050565b60186020526000908152604090205481565b60135460105460408051600160e01b63505ef22f0281523360048201526024810192909252516001600160a01b039092169163505ef22f91604480820192602092909190829003018186803b158015610f2957600080fd5b505afa158015610f3d573d6000803e3d6000fd5b505050506040513d6020811015610f5357600080fd5b50518015610f6e575060008181526019602052604090205442105b610f7757600080fd5b600160008281526018602052604090205414610f9257600080fd5b6000818152601a6020908152604080832033845290915290205460ff1615610fb957600080fd5b6000818152601a6020908152604080832033808552908352818420805460ff19166001908117909155858552601b845293829020805490940190935580519283525183927f56bdda336a8bb949a57770a7cde5b62bd8913d11d9dde767735db889a609692f92908290030190a2600f5460135460105460408051600160e01b630dc6f8470281526004810192909252516110d4926001600160a01b031691630dc6f847916024808301926020929190829003018186803b15801561107c57600080fd5b505afa158015611090573d6000803e3d6000fd5b505050506040513d60208110156110a657600080fd5b50516000848152601b60205260409020546110c890606463ffffffff61326416565b9063ffffffff6131f716565b106110eb5760026000828152601860205260409020555b50565b6000828152600260205260408120805460609184918290811061110d57fe5b600091825260209182902001805460408051601f60026000196101006001871615020190941693909304928301859004850281018501909152818152919283919083018282801561119f5780601f106111745761010080835404028352916020019161119f565b820191906000526020600020905b81548152906001019060200180831161118257829003601f168201915b50505050509050915091509250929050565b600081815260016020819052604090912060028101548154928201546003909201549394909390565b60095481565b6000309050806001600160a01b031663025313a26040518163ffffffff1660e01b815260040160206040518083038186803b15801561121e57600080fd5b505afa158015611232573d6000803e3d6000fd5b505050506040513d602081101561124857600080fd5b50516001600160a01b031633146112a95760408051600160e51b62461bcd02815260206004820152601a60248201527f53656e646572206973206e6f742070726f7879206f776e65722e000000000000604482015290519081900360640190fd5b60085460ff16156112b957600080fd5b6112c16132c0565b601280546001600160a01b03191633179081905560408051600160e01b63eaf2c47702815290516001600160a01b03929092169163eaf2c47791600480820192602092909190829003018186803b15801561131b57600080fd5b505afa15801561132f573d6000803e3d6000fd5b505050506040513d602081101561134557600080fd5b5051601680546001600160a01b0319166001600160a01b0392831617905560125460408051600160e31b6227050b028152600160f11b6126a9026004820152905191909216916301382858916024808301926020929190829003018186803b1580156113b057600080fd5b505afa1580156113c4573d6000803e3d6000fd5b505050506040513d60208110156113da57600080fd5b5051601380546001600160a01b0319166001600160a01b0392831617905560125460408051600160e31b6227050b028152600160f01b615043026004820152905191909216916301382858916024808301926020929190829003018186803b15801561144557600080fd5b505afa158015611459573d6000803e3d6000fd5b505050506040513d602081101561146f57600080fd5b5051601580546001600160a01b0319166001600160a01b0392831617905560125460408051600160e31b6227050b028152600160f01b615443026004820152905191909216916301382858916024808301926020929190829003018186803b1580156114da57600080fd5b505afa1580156114ee573d6000803e3d6000fd5b505050506040513d602081101561150457600080fd5b5051601780546001600160a01b0319166001600160a01b0392831617905560125460408051600160e31b6227050b028152600160f21b611413026004820152905191909216916301382858916024808301926020929190829003018186803b15801561156f57600080fd5b505afa158015611583573d6000803e3d6000fd5b505050506040513d602081101561159957600080fd5b5051601480546001600160a01b0319166001600160a01b0390921691909117905550565b806115c781611fef565b61160c5760408051600160e51b62461bcd02815260206004820152600b6024820152600160aa1b6a139bdd08185b1b1bddd95902604482015290519081900360640190fd5b60135460408051600160e01b63505ef22f0281523360048201526002602482015290516001600160a01b039092169163505ef22f91604480820192602092909190829003018186803b15801561166157600080fd5b505afa158015611675573d6000803e3d6000fd5b505050506040513d602081101561168b57600080fd5b50516116d15760408051600160e51b62461bcd02815260206004820152600a6024820152600160b11b692737ba1026b2b6b132b902604482015290519081900360640190fd5b61177a88888080601f01602080910402602001604051908101604052809392919081815260200183838082843760009201919091525050604080516020601f8c018190048102820181019092528a815292508a915089908190840183828082843760009201919091525050604080516020601f8b018190048102820181019092528981529250899150889081908401838280828437600092019190915250889250612b8a915050565b5050505050505050565b6001600160a01b03811660009081526007602052604081205481905b6001600160a01b0384166000908152600360205260409020548110156118f3576001600160a01b038416600090815260036020526040812080546004929190849081106117e957fe5b6000918252602080832090910154835282810193909352604091820181206001600160a01b038816825290925290205460ff166118eb576001600160a01b038416600090815260036020526040812080548390811061184457fe5b90600052602060002001548154811061185957fe5b9060005260206000209060050201600101549150600060066000848152602001908152602001600020600201541180156118a157506002600083815260016020526040902054115b156118eb576000828152600660209081526040808320600201546001909252909120600301546118e8916118db919063ffffffff6131f716565b849063ffffffff6125c716565b92505b6001016117a0565b5050919050565b601354600a5460408051600160e01b63505ef22f0281523360048201526024810192909252516000926001600160a01b03169163505ef22f916044808301926020929190829003018186803b15801561195257600080fd5b505afa158015611966573d6000803e3d6000fd5b505050506040513d602081101561197c57600080fd5b505190505b90565b600460209081526000928352604080842090915290825290205460ff1681565b806000600160ca1b6611d3d59213d311026001600160c01b0319831614156119dc5762015180600954816119d457fe5b049050611af2565b600160ca1b6613505611149195026001600160c01b031984161415611a095762015180600e54816119d457fe5b600160e21b631050d5d5026001600160c01b031984161415611a3257610e10601c54816119d457fe5b600160cb1b660a48a9482aaa89026001600160c01b031984161415611a5a5750601054611af2565b600160c21b6714915290d3d55395026001600160c01b031984161415611a835750600f54611af2565b600160d81b644d41585657026001600160c01b031984161415611aa95750600b54611af2565b600160d91b6420a126a0a5026001600160c01b031984161415611acf5750600c54611af2565b600160d11b65222928aaa6a9026001600160c01b031984161415611af257506011545b915091565b82600260008281526001602052604090205410611b1357600080fd5b611b1b6118fa565b611b2457600080fd5b60155460408051600160e01b6357c7bec102815260048101869052905184926060926001600160a01b03909116916357c7bec191602480820192600092909190829003018186803b158015611b7857600080fd5b505afa158015611b8c573d6000803e3d6000fd5b505050506040513d6000823e601f3d908101601f191682016040526020811015611bb557600080fd5b810190808051600160201b811115611bcc57600080fd5b82016020810184811115611bdf57600080fd5b8151600160201b811182820187101715611bf857600080fd5b5050604080516004815260248101909152602080820180516001600160e01b0316600160e41b630c578f2302178152915190912082519183019190912091955014159250611c4891505057600091505b611c54868684846132cf565b505050505050565b600260008381526001602052604090205414611cb35760408051600160e51b62461bcd02815260206004820152600b6024820152600160aa1b6a139bdd08185b1b1bddd95902604482015290519081900360640190fd5b6000828152600260205260409020548110611ccd57600080fd5b610a5382826134e0565b60008581526001602052604090206006015485906001600160a01b03163314611d3b5760408051600160e51b62461bcd02815260206004820152600b6024820152600160aa1b6a139bdd08185b1b1bddd95902604482015290519081900360640190fd5b600160008781526001602052604090205414611d5657600080fd5b611c548686868080601f01602080910402602001604051908101604052809392919081815260200183838082843760009201919091525050604080516020601f8a018190048102820181019092528881529250889150879081908401838280828437600092019190915250612f6592505050565b600d5490565b60125460408051600160e21b6308b39c9502815233600482015290516001600160a01b03909216916322ce725491602480820192602092909190829003018186803b158015611e1e57600080fd5b505afa158015611e32573d6000803e3d6000fd5b505050506040513d6020811015611e4857600080fd5b5051611e5357600080fd5b600160ca1b6611d3d59213d311026001600160c01b031983161415611e8057620151808102600955610a53565b600160ca1b6613505611149195026001600160c01b031983161415611ead57620151808102600e55610a53565b600160e21b631050d5d5026001600160c01b031983161415611ed657610e108102601c55610a53565b600160cb1b660a48a9482aaa89026001600160c01b031983161415611eff576010819055610a53565b600160c21b6714915290d3d55395026001600160c01b031983161415611f2957600f819055610a53565b600160d81b644d41585657026001600160c01b031983161415611f5057600b819055610a53565b600160d91b6420a126a0a5026001600160c01b031983161415611f7757600c819055610a53565b600160d11b65222928aaa6a9026001600160c01b031983161415611f9f576011819055610a53565b60408051600160e51b62461bcd02815260206004820152600c60248201527f496e76616c696420636f64650000000000000000000000000000000000000000604482015290519081900360640190fd5b600081611ffe575060016121e3565b60155460408051600160e01b63253eca1f0281526004810185905290516060926001600160a01b03169163253eca1f916024808301926000929190829003018186803b15801561204d57600080fd5b505afa158015612061573d6000803e3d6000fd5b505050506040513d6000823e601f3d908101601f1916820160405260e081101561208a57600080fd5b815160208301516040840151606085015160808601805194969395929491939283019291600160201b8111156120bf57600080fd5b820160208101848111156120d257600080fd5b81518560208202830111600160201b821117156120ee57600080fd5b5090985060009750505050505050505b81518110156118f35781818151811061211357fe5b6020026020010151600014806121cb575060135482516001600160a01b039091169063505ef22f90339085908590811061214957fe5b60200260200101516040518363ffffffff1660e01b815260040180836001600160a01b03166001600160a01b031681526020018281526020019250505060206040518083038186803b15801561219e57600080fd5b505afa1580156121b2573d6000803e3d6000fd5b505050506040513d60208110156121c857600080fd5b50515b156121db576001925050506121e3565b6001016120fe565b919050565b6012546001600160a01b031681565b600a5490565b60008181526001602052604080822080546004808301546015546002909401548551600160e01b63253eca1f02815292830152935191928592839283926001600160a01b03169163253eca1f916024808201928692909190829003018186803b15801561226957600080fd5b505afa15801561227d573d6000803e3d6000fd5b505050506040513d6000823e601f3d908101601f1916820160405260e08110156122a657600080fd5b815160208301516040840151606085015160808601805194969395929491939283019291600160201b8111156122db57600080fd5b820160208101848111156122ee57600080fd5b81518560208202830111600160201b8211171561230a57600080fd5b5050506020015198509396509194506002935061232692505050565b8414156124d45760135460408051600160e01b630dc6f8470281526004810185905290516000926001600160a01b031691630dc6f847916024808301926020929190829003018186803b15801561237c57600080fd5b505afa158015612390573d6000803e3d6000fd5b505050506040513d60208110156123a657600080fd5b5051905060018314156124525760008881526006602090815260408083206001845290915290205482906123e79083906110c890606463ffffffff61326416565b10158061241f575060008881526006602090815260408083208380529091528082205460018352912054829161241d91906125c7565b145b80612439575042612436878663ffffffff6125c716565b11155b1561244d57600196505050505050506121e3565b6124ce565b60028314806124615750600383145b1561248b5742612477878663ffffffff6125c716565b1161244d57600196505050505050506121e3565b600088815260066020526040902060020154811115806124ba5750426124b7878663ffffffff6125c716565b11155b156124ce57600196505050505050506121e3565b506124f9565b60028411156124eb576002955050505050506121e3565b6000955050505050506121e3565b5050505050919050565b600160008281526018602052604090205414801561252f57506000818152601960205260409020544210155b6125835760408051600160e51b62461bcd02815260206004820152600e60248201527f43616e6e6f742074726967676572000000000000000000000000000000000000604482015290519081900360640190fd5b6000818152600160205260409020600201546110eb90829061396b565b60076020526000908152604090205481565b60066020526000908152604090206002015481565b6000828201838110156126245760408051600160e51b62461bcd02815260206004820152601b60248201527f536166654d6174683a206164646974696f6e206f766572666c6f770000000000604482015290519081900360640190fd5b90505b92915050565b600481148061263c5750600581145b156126535760046000838152601860205260409020555b60009182526001602052604090912042600482015555565b8015610a535760165460408051600160e01b63a9059cbb0281526001600160a01b038581166004830152602482018590529151919092169163a9059cbb9160448083019260209291908290030181600087803b1580156126ca57600080fd5b505af11580156126de573d6000803e3d6000fd5b505050506040513d60208110156126f457600080fd5b50505050565b60155460408051600160e01b63253eca1f02815260048101849052905160009283926001600160a01b039091169163253eca1f916024808201928692909190829003018186803b15801561274d57600080fd5b505afa158015612761573d6000803e3d6000fd5b505050506040513d6000823e601f3d908101601f1916820160405260e081101561278a57600080fd5b815160208301516040840151606085015160808601805194969395929491939283019291600160201b8111156127bf57600080fd5b820160208101848111156127d257600080fd5b81518560208202830111600160201b821117156127ee57600080fd5b505060155460408051600160e01b6357c7bec1028152600481018e90529051979b50979950606098506001600160a01b0316966357c7bec19660248083019750600096509094509084900301915082905086803b15801561284e57600080fd5b505afa158015612862573d6000803e3d6000fd5b505050506040513d6000823e601f3d908101601f19168201604052602081101561288b57600080fd5b810190808051600160201b8111156128a257600080fd5b820160208101848111156128b557600080fd5b8151600160201b8111828201871017156128ce57600080fd5b505092919050505090506128e28585613d62565b1561294f576000858152600160208181526040808420600501546006835281852093855292909152909120548491612925916110c890606463ffffffff61326416565b1061293f5761293a8560035b86600186614201565b61294a565b61294a856004610a02565b612a66565b604080516004815260248101909152602080820180516001600160e01b0316600160e01b630357e76f02178152915190912082519183019190912014801590612999575060018214155b8015612a4b5750600c54601354612a48906001600160a01b0316630dc6f84760016040518263ffffffff1660e01b81526004018082815260200191505060206040518083038186803b1580156129ee57600080fd5b505afa158015612a02573d6000803e3d6000fd5b505050506040513d6020811015612a1857600080fd5b505160008881526006602090815260408083206001808552019091529020546110c890606463ffffffff61326416565b10155b15612a5b5761294a856003612931565b612a66856005610a02565b60036000868152600160205260409020541115612b2757604080516004815260248101909152602080820180516001600160e01b0316600160e01b630357e76f0217815291519091208251918301919091201415612b275760145460408051600160e01b63a138ca3d0281526004810188905290516001600160a01b039092169163a138ca3d9160248082019260009290919082900301818387803b158015612b0e57600080fd5b505af1158015612b22573d6000803e3d6000fd5b505050505b600085815260066020526040902060020154158015612b56575060008581526001602052604090206003015415155b15612b8357601454600086815260016020526040902060030154612b83916001600160a01b03169061266b565b5050505050565b600d5460008181526001602081815260408084206006810180546001600160a01b03191633179055426004909101556002825280842080549384018082559085528285208251938401928390529285905293612bea939290920191614b3d565b5050600d805460010190556040805142808252608060208084018281528a51928501929092528951869533957f470106408ef1beec24fa0f364830357ef2a70d11457aa4eb9b30b1bbc0172abe95948d948d948d94840191606085019160a086019189019080838360005b83811015612c6d578181015183820152602001612c55565b50505050905090810190601f168015612c9a5780820380516001836020036101000a031916815260200191505b50848103835286518152865160209182019188019080838360005b83811015612ccd578181015183820152602001612cb5565b50505050905090810190601f168015612cfa5780820380516001836020036101000a031916815260200191505b50848103825285518152855160209182019187019080838360005b83811015612d2d578181015183820152602001612d15565b50505050905090810190601f168015612d5a5780820380516001836020036101000a031916815260200191505b5097505050505050505060405180910390a38115612b835760155460408051600160e21b63352aabed0281526004810185905290516000926060926001600160a01b039091169163d4aaafb4916024808201928792909190829003018186803b158015612dc657600080fd5b505afa158015612dda573d6000803e3d6000fd5b505050506040513d6000823e601f3d908101601f1916820160405260a0811015612e0357600080fd5b815160208301516040840151606085015160808601805194969395929491939283019291600160201b811115612e3857600080fd5b82016020810184811115612e4b57600080fd5b8151600160201b811182820187101715612e6457600080fd5b505092919050505094509450505050612e7b6118fa565b80612ebe5750604080516004815260248101909152602080820180516001600160e01b0316600160e01b630357e76f021781529151909120825191830191909120145b80612f015750604080516004815260248101909152602080820180516001600160e01b0316600160e41b630c578f23021781529151909120825191830191909120145b612f0a57600080fd5b604080516004815260248101909152602080820180516001600160e01b0316600160e41b630c578f230217815291519091208251918301919091201415612f5057600091505b612f5c838584846132cf565b50505050505050565b600083815260016020526040808220600201546015548251600160e01b6357c7bec102815260048101839052925191936001600160a01b03909116926357c7bec19260248083019392829003018186803b158015612fc257600080fd5b505afa158015612fd6573d6000803e3d6000fd5b505050506040513d6000823e601f3d908101601f191682016040526020811015612fff57600080fd5b810190808051600160201b81111561301657600080fd5b8201602081018481111561302957600080fd5b8151600160201b81118282018710171561304257600080fd5b5050511515925061309491505057815160208301207fc5d2460186f7233c927e7db2dcc703c0e500b653ca82273b7bfad8045d85a4701461308257600080fd5b60046000858152601860205260409020555b61309f848385614429565b6130aa846002610a02565b60155460408051600160e01b63253eca1f0281526004810184905290516000926001600160a01b03169163253eca1f9160248083019286929190829003018186803b1580156130f857600080fd5b505afa15801561310c573d6000803e3d6000fd5b505050506040513d6000823e601f3d908101601f1916820160405260e081101561313557600080fd5b815160208301516040840151606085015160808601805194969395929491939283019291600160201b81111561316a57600080fd5b8201602081018481111561317d57600080fd5b81518560208202830111600160201b8211171561319957600080fd5b5050506020015196508a95507fc5be51db6c7799c3f641eecd22b62761981da3190ac6d1d306bc36724356625894506131df93508692504291505063ffffffff6125c716565b60408051918252519081900360200190a25050505050565b60008082116132505760408051600160e51b62461bcd02815260206004820152601a60248201527f536166654d6174683a206469766973696f6e206279207a65726f000000000000604482015290519081900360640190fd5b600082848161325b57fe5b04949350505050565b60008261327357506000612627565b8282028284828161328057fe5b041461262457604051600160e51b62461bcd028152600401808060200182810382526021815260200180614bd66021913960400191505060405180910390fd5b6132c8614530565b6032600b55565b6000831180156133575750601560009054906101000a90046001600160a01b03166001600160a01b03166339275b0a6040518163ffffffff1660e01b815260040160206040518083038186803b15801561332857600080fd5b505afa15801561333c573d6000803e3d6000fd5b505050506040513d602081101561335257600080fd5b505183105b6133ab5760408051600160e51b62461bcd02815260206004820152601060248201527f496e76616c69642063617465676f727900000000000000000000000000000000604482015290519081900360640190fd5b604080516004815260248101909152602080820180516001600160e01b0316600160e01b630357e76f0217815291519091208251918301919091201415613403576014546001600160a01b0316331461340357600080fd5b600084815260016020819052604090912060028101859055600381018490555581156134a35760145460165460408051600160e01b6349f4cc170281526001600160a01b03928316600482015230602482015260448101869052905191909216916349f4cc1791606480830192600092919082900301818387803b15801561348a57600080fd5b505af115801561349e573d6000803e3d6000fd5b505050505b604080518481529051339186917f5c0ed4086100f9e2c57a36b2c5ae3a1f991b2fd6af5a44cf0b9afb8a21796cdc9181900360200190a350505050565b601554600083815260016020526040808220600201548151600160e01b63253eca1f028152600481019190915290519192839283926001600160a01b039092169163253eca1f9160248083019286929190829003018186803b15801561354557600080fd5b505afa158015613559573d6000803e3d6000fd5b505050506040513d6000823e601f3d908101601f1916820160405260e081101561358257600080fd5b815160208301516040840151606085015160808601805194969395929491939283019291600160201b8111156135b757600080fd5b820160208101848111156135ca57600080fd5b81518560208202830111600160201b821117156135e657600080fd5b50505060209081015160008d815260019092526040909120600401549599509397509295504294506136239392508591505063ffffffff6125c716565b116136645760408051600160e51b62461bcd0281526020600482015260066024820152600160d21b6510db1bdcd95902604482015290519081900360640190fd5b336000908152600560209081526040808320888452909152902054156136c55760408051600160e51b62461bcd02815260206004820152600b6024820152600160aa1b6a139bdd08185b1b1bddd95902604482015290519081900360640190fd5b60135460408051600160e01b63505ef22f0281523360048201526024810186905290516001600160a01b039092169163505ef22f91604480820192602092909190829003018186803b15801561371a57600080fd5b505afa15801561372e573d6000803e3d6000fd5b505050506040513d602081101561374457600080fd5b505161379a5760408051600160e51b62461bcd02815260206004820152600e60248201527f4e6f7420417574686f72697a6564000000000000000000000000000000000000604482015290519081900360640190fd5b6000805433808352600360209081526040808520805460018101825590865282862001849055828552600582528085208a86529091528084208390556017546009548251600160e11b63740bb65502815260048101949094526024840152905192936001600160a01b039091169263e8176caa92604480820193929182900301818387803b15801561382b57600080fd5b505af115801561383f573d6000803e3d6000fd5b5050604080514281526020810189905281518594508a935033927f89eb0be5e1a1bcbad3c382ad8d3f2698ea4d54d9a179cd2368d184358ecad451928290030190a460135460408051600160e01b630dc6f8470281526004810187905290516000926001600160a01b031691630dc6f847916024808301926020929190829003018186803b1580156138d057600080fd5b505afa1580156138e4573d6000803e3d6000fd5b505050506040513d60208110156138fa57600080fd5b50519050613909878787614686565b6000878152600660205260409020600201548114801561392a575060028514155b15612f5c576040805188815290517f9593d9bd30eff4872ec3bab10360ad82eaac80651801e68f47f0674c38415c3d9181900360200190a150505050505050565b600082815260186020526040808220600390556015548151600160e21b63352aabed02815260048101859052915183926060926001600160a01b03169163d4aaafb4916024808201928792909190829003018186803b1580156139cd57600080fd5b505afa1580156139e1573d6000803e3d6000fd5b505050506040513d6000823e601f3d908101601f1916820160405260a0811015613a0a57600080fd5b815160208301516040840151606085015160808601805194969395929491939283019291600160201b811115613a3f57600080fd5b82016020810184811115613a5257600080fd5b8151600160201b811182820187101715613a6b57600080fd5b50959a509598509496505050600160f01b614d53026001600160f01b0319881614159350613aaa92505050576012546001600160a01b03169150613b49565b600160f31b6108ab026001600160f01b0319841614613b495760125460408051600160e31b6227050b0281526001600160f01b03198616600482015290516001600160a01b0390921691630138285891602480820192602092909190829003018186803b158015613b1a57600080fd5b505afa158015613b2e573d6000803e3d6000fd5b505050506040513d6020811015613b4457600080fd5b505191505b600085815260026020526040812080546001600160a01b0385169184916001908110613b7157fe5b906000526020600020016040516020018083805190602001908083835b60208310613bad5780518252601f199092019160209182019101613b8e565b6001836020036101000a03801982511681845116808217855250505050505090500182805460018160011615610100020316600290048015613c265780601f10613c04576101008083540402835291820191613c26565b820191906000526020600020905b815481529060010190602001808311613c12575b5050925050506040516020818303038152906040526040518082805190602001908083835b60208310613c6a5780518252601f199092019160209182019101613c4b565b6001836020036101000a0380198251168184511680821785525050505050509050019150506000604051808303816000865af19150503d8060008114613ccc576040519150601f19603f3d011682016040523d82523d6000602084013e613cd1565b606091505b505090508015613d13576040805187815290517f6535f242c0cf5f7c126188bcde0e013c21a0251762fa3be3c854f59ac30a5cdd9181900360200190a1611c54565b60008681526018602090815260409182902060019055815188815291517fa6a7dbbd4f2866cba9cd5a436f4982496ce98682adb410540faa675e61cef0159281900390910190a1505050505050565b60155460408051600160e01b63253eca1f028152600481018490529051600092839283926001600160a01b039092169163253eca1f916024808201928692909190829003018186803b158015613db757600080fd5b505afa158015613dcb573d6000803e3d6000fd5b505050506040513d6000823e601f3d908101601f1916820160405260e0811015613df457600080fd5b815160208301516040840151606085015160808601805194969395929491939283019291600160201b811115613e2957600080fd5b82016020810184811115613e3c57600080fd5b81518560208202830111600160201b82111715613e5857600080fd5b5094995095975060029650613e6f95505050505050565b811415613f205781613f17601760009054906101000a90046001600160a01b03166001600160a01b03166318160ddd6040518163ffffffff1660e01b815260040160206040518083038186803b158015613ec857600080fd5b505afa158015613edc573d6000803e3d6000fd5b505050506040513d6020811015613ef257600080fd5b50516000888152600160205260409020600501546110c890606463ffffffff61326416565b101592506141f9565b600381141561415057600085815260026020526040812080546001908110613f4457fe5b600091825260209182902001805460408051601f6002600019610100600187161502019094169390930492830185900485028101850190915281815292830182828015613fd25780601f10613fa757610100808354040283529160200191613fd2565b820191906000526020600020905b815481529060010190602001808311613fb557829003601f168201915b50505050508060200190516040811015613feb57600080fd5b505160408051600160e01b6343da750f02815290519192506000916001600160a01b038416916343da750f916004808301926020929190829003018186803b15801561403657600080fd5b505afa15801561404a573d6000803e3d6000fd5b505050506040513d602081101561406057600080fd5b505160008881526001602052604090206005015490915015614144576141296140946011548361326490919063ffffffff16565b61412460326110c86064601760009054906101000a90046001600160a01b03166001600160a01b03166318160ddd6040518163ffffffff1660e01b815260040160206040518083038186803b1580156140ec57600080fd5b505afa158015614100573d6000803e3d6000fd5b505050506040513d602081101561411657600080fd5b50519063ffffffff61326416565b614ace565b60008881526001602052604090206005015410159450614149565b600094505b50506141f9565b60135460408051600160e01b630dc6f84702815260048101849052905184926141f4926001600160a01b0390911691630dc6f84791602480820192602092909190829003018186803b1580156141a557600080fd5b505afa1580156141b9573d6000803e3d6000fd5b505050506040513d60208110156141cf57600080fd5b50516000888152600660205260409020600201546110c890606463ffffffff61326416565b101592505b505092915050565b600085815260016020819052604090912001829055614220858561262d565b6040805186815290517fd24c2047577899547bacebb29e319fc7d73f6712b5adb401d45556f34bb2aa3b9181900360200190a1600460008681526018602052604090205414612b83576010548114156142825761427d858461396b565b612b83565b600085815260186020526040808220600190556015548151600160e01b6357c7bec10281526004810187905291516060936001600160a01b03909216926357c7bec1926024808301939192829003018186803b1580156142e157600080fd5b505afa1580156142f5573d6000803e3d6000fd5b505050506040513d6000823e601f3d908101601f19168201604052602081101561431e57600080fd5b810190808051600160201b81111561433557600080fd5b8201602081018481111561434857600080fd5b8151600160201b81118282018710171561436157600080fd5b5050604080516004815260248101909152602080820180516001600160e01b0316600160e41b630c578f230217815291519091208251918301919091209195501492508291506143eb90505750604080516004815260248101909152602080820180516001600160e01b0316600160e01b630357e76f021781529151909120825191830191909120145b156143ff576143fa868561396b565b611c54565b601c54614412904263ffffffff6125c716565b600087815260196020526040902055505050505050565b60008381526002602090815260408220805460018101808355918452928290208551919361445d9391019190860190614b3d565b505060008381526002602052604090205461447f90600163ffffffff614add16565b336001600160a01b0316847f28aed3fdbf1b73725998bf6a5f364a2b9a08b85236c75f0c0270cfe1b65fba8c84426040518080602001838152602001828103825284818151815260200191508051906020019080838360005b838110156144f05781810151838201526020016144d8565b50505050905090810190601f16801561451d5780820380516001836020036101000a031916815260200191505b50935050505060405180910390a4505050565b6040805160a081018252600080825260208201818152928201818152606083018281526080840183815283546001808201865594805294517f290decd9548b62a8d60345a988386fc84ba6bc95484008f6362f93160ef3e563600590960295860180546001600160a01b0319166001600160a01b0390921691909117905594517f290decd9548b62a8d60345a988386fc84ba6bc95484008f6362f93160ef3e56485015590517f290decd9548b62a8d60345a988386fc84ba6bc95484008f6362f93160ef3e565840155517f290decd9548b62a8d60345a988386fc84ba6bc95484008f6362f93160ef3e56683015591517f290decd9548b62a8d60345a988386fc84ba6bc95484008f6362f93160ef3e56790910155600d8190556203f4806009556008805460ff191682179055600a5562015180601c556001601055603c600f8190556005600b819055600c91909155601155565b60175460408051600160e11b6325877015028152336004820152905160019260009283926001600160a01b0390921691634b0ee02a91602480820192602092909190829003018186803b1580156146dc57600080fd5b505afa1580156146f0573d6000803e3d6000fd5b505050506040513d602081101561470657600080fd5b505160175460408051600160e01b6318160ddd02815290519293506000926001600160a01b03909216916318160ddd91600480820192602092909190829003018186803b15801561475657600080fd5b505afa15801561476a573d6000803e3d6000fd5b505050506040513d602081101561478057600080fd5b5051905060018514158015614812575060135460408051600160e01b63505ef22f0281523360048201526001602482015290516001600160a01b039092169163505ef22f91604480820192602092909190829003018186803b1580156147e557600080fd5b505afa1580156147f9573d6000803e3d6000fd5b505050506040513d602081101561480f57600080fd5b50515b1561483e5760008781526006602090815260408083208984526001908101909252909120805490910190555b600285141561486c576148658261412460646110c885600b5461326490919063ffffffff16565b925061490f565b600385141561490a5760175460408051600160e01b63179e91f1028152336004820152600160f11b61222902602482015242604482015290516001600160a01b039092169163179e91f191606480820192602092909190829003018186803b1580156148d757600080fd5b505afa1580156148eb573d6000803e3d6000fd5b505050506040513d602081101561490157600080fd5b5051925061490f565b600192505b6040805160a08101825233815260208082018a81528284018a8152606084018781524260808601908152600080546001808201835582805297517f290decd9548b62a8d60345a988386fc84ba6bc95484008f6362f93160ef3e563600592830290810180546001600160a01b0319166001600160a01b039093169290921790915595517f290decd9548b62a8d60345a988386fc84ba6bc95484008f6362f93160ef3e56487015593517f290decd9548b62a8d60345a988386fc84ba6bc95484008f6362f93160ef3e56586015591517f290decd9548b62a8d60345a988386fc84ba6bc95484008f6362f93160ef3e566850155517f290decd9548b62a8d60345a988386fc84ba6bc95484008f6362f93160ef3e567909301929092558b825292909152919091200154614a4290846125c7565b6000888152600160209081526040808320600501939093556006815282822089835290522054614a78908463ffffffff6125c716565b60008881526006602081815260408084208b855280835290842094909455918a9052905260020154614ab0908563ffffffff6125c716565b60009788526006602052604090972060020196909655505050505050565b81818111156126275750919050565b600082821115614b375760408051600160e51b62461bcd02815260206004820152601e60248201527f536166654d6174683a207375627472616374696f6e206f766572666c6f770000604482015290519081900360640190fd5b50900390565b828054600181600116156101000203166002900490600052602060002090601f016020900481019282601f10614b7e57805160ff1916838001178555614bab565b82800160010185558215614bab579182015b82811115614bab578251825591602001919060010190614b90565b50614bb7929150614bbb565b5090565b61198191905b80821115614bb75760008155600101614bc156fe536166654d6174683a206d756c7469706c69636174696f6e206f766572666c6f77a165627a7a72305820bb71e157e634e9a43c4addfa1ff37dceeb6f93c42c149f8a00257828aa6657720029",
  "source": "pragma solidity 0.5.7;\n\nimport \"../Governance.sol\";\n\ncontract MockGovernance is Governance {\n\n\tfunction _initiateGovernance() internal {\n\t\tsuper._initiateGovernance();\n\t   \tmaxVoteWeigthPer = 50;\n\t}\n}",
  "sourcePath": "/home/madan/Documents/PlotX/PlotxContract/contracts/mock/MockGovernance.sol",
  "compiler": {
    "name": "solc",
    "version": "0.5.7+commit.6da8b019.Emscripten.clang"
  },
  "schemaVersion": "3.3.2",
  "updatedAt": "2020-12-10T08:39:39.282Z",
  "networkType": "ethereum",
  "devdoc": {
    "methods": {
      "allowedToCategorize()": {
        "details": "Checks if msg.sender is allowed to categorize proposals\r"
      },
      "allowedToCatgorize()": {
        "details": "Gets Id of member role allowed to categorize the proposal\r",
        "return": "roleId allowed to categorize the proposal\r"
      },
      "allowedToCreateProposal(uint256)": {
        "details": "Checks if msg.sender is allowed to create a proposal under given category\r"
      },
      "canCloseProposal(uint256)": {
        "details": "Checks If the proposal voting time is up and it's ready to close\r     i.e. Closevalue is 1 if proposal is ready to be closed, 2 if already closed, 0 otherwise!\r",
        "params": {
          "_proposalId": "Proposal id to which closing value is being checked\r"
        }
      },
      "categorizeProposal(uint256,uint256,uint256)": {
        "details": "Categorizes proposal to proceed further. Categories shows the proposal objective.\r"
      },
      "claimReward(address,uint256)": {
        "details": "Claims reward for member.\r",
        "params": {
          "_maxRecords": "maximum number of records to claim reward for.\r _proposals list of proposals of which reward will be claimed.\r",
          "_memberAddress": "to claim reward of.\r"
        },
        "return": "amount of pending reward.\r"
      },
      "closeProposal(uint256)": {
        "details": "Closes the proposal.\r",
        "params": {
          "_proposalId": "of proposal to be closed.\r"
        }
      },
      "createProposal(string,string,string,uint256)": {
        "details": "Creates a new proposal\r",
        "params": {
          "_categoryId": "This id tells under which the proposal is categorized i.e. Proposal's Objective\r",
          "_proposalDescHash": "Proposal description hash through IPFS having Short and long description of proposal\r"
        }
      },
      "createProposalwithSolution(string,string,string,uint256,string,bytes)": {
        "details": "Creates a new proposal with solution\r",
        "params": {
          "_categoryId": "This id tells under which the proposal is categorized i.e. Proposal's Objective\r",
          "_proposalDescHash": "Proposal description hash through IPFS having Short and long description of proposal\r",
          "_solutionHash": "Solution hash contains  parameters, values and description needed according to proposal\r"
        }
      },
      "getPendingReward(address)": {
        "details": "Gets pending rewards of a member\r",
        "params": {
          "_memberAddress": "in concern\r"
        },
        "return": "amount of pending reward\r"
      },
      "getProposalLength()": {
        "details": "Gets length of propsal\r",
        "return": "length of propsal\r"
      },
      "getSolutionAction(uint256,uint256)": {
        "details": "Gets solution action on a proposal\r",
        "params": {
          "_proposalId": "whose details we want\r",
          "_solution": "whose details we want\r"
        },
        "return": "action of a solution on a proposal\r"
      },
      "getUintParameters(bytes8)": {
        "details": "Gets Uint Parameters of a code\r",
        "params": {
          "code": "whose details we want\r"
        },
        "return": "string value of the code\rassociated amount (time or perc or value) to the code\r"
      },
      "proposal(uint256)": {
        "details": "Gets all details of a propsal\r",
        "params": {
          "_proposalId": "whose details we want\r"
        },
        "return": "proposalId\rcategory\rstatus\rfinalVerdict\rtotalReward\r"
      },
      "proposalDetails(uint256)": {
        "details": "Gets some details of a propsal\r",
        "params": {
          "_proposalId": "whose details we want\r"
        },
        "return": "proposalId\rnumber of all proposal solutions\ramount of votes\r"
      },
      "rejectAction(uint256)": {
        "details": "Provides option to Advisory board member to reject proposal action execution within actionWaitingTime, if found suspicious\r"
      },
      "setMasterAddress()": {
        "details": "Updates all dependency addresses to latest ones from Master\r"
      },
      "submitProposalWithSolution(uint256,string,bytes)": {
        "details": "Submit proposal with solution\r",
        "params": {
          "_proposalId": "Proposal id\r",
          "_solutionHash": "Solution hash contains  parameters, values and description needed according to proposal\r"
        }
      },
      "submitVote(uint256,uint256)": {
        "details": "Submit a vote on the proposal.\r",
        "params": {
          "_proposalId": "to vote upon.\r",
          "_solutionChosen": "is the chosen vote.\r"
        }
      },
      "triggerAction(uint256)": {
        "details": "Triggers action of accepted proposal after waiting time is finished\r"
      },
      "updateUintParameters(bytes8,uint256)": {
        "details": "Updates Uint Parameters of a code\r",
        "params": {
          "code": "whose details we want to update\r",
          "val": "value to set\r"
        }
      },
      "voteTallyData(uint256,uint256)": {
        "details": "Gets vote tally data\r",
        "params": {
          "_proposalId": "in concern\r",
          "_solution": "of a proposal id\r"
        },
        "return": "member vote value\radvisory board vote value\ramount of votes\r"
      }
    }
  },
  "userdoc": {
    "methods": {}
  }
}