{
  "contractName": "MockMarketRegistry",
  "abi": [
    {
      "constant": true,
      "inputs": [],
      "name": "getOpenMarkets",
      "outputs": [
        {
          "name": "_openMarkets",
          "type": "address[]"
        },
        {
          "name": "_marketTypes",
          "type": "uint256[]"
        },
        {
          "name": "_marketCurrencies",
          "type": "bytes32[]"
        }
      ],
      "payable": false,
      "stateMutability": "view",
      "type": "function"
    },
    {
      "constant": false,
      "inputs": [
        {
          "name": "_marketAddress",
          "type": "address"
        },
        {
          "name": "_result",
          "type": "uint256"
        }
      ],
      "name": "resolveDispute",
      "outputs": [],
      "payable": false,
      "stateMutability": "nonpayable",
      "type": "function"
    },
    {
      "constant": false,
      "inputs": [],
      "name": "claimCreationReward",
      "outputs": [],
      "payable": false,
      "stateMutability": "nonpayable",
      "type": "function"
    },
    {
      "constant": false,
      "inputs": [],
      "name": "pauseMarketCreation",
      "outputs": [],
      "payable": false,
      "stateMutability": "nonpayable",
      "type": "function"
    },
    {
      "constant": false,
      "inputs": [
        {
          "name": "_defaultAddress",
          "type": "address"
        },
        {
          "name": "_marketUtility",
          "type": "address"
        },
        {
          "name": "_plotToken",
          "type": "address"
        },
        {
          "name": "_configParams",
          "type": "address[]"
        }
      ],
      "name": "initiate",
      "outputs": [],
      "payable": false,
      "stateMutability": "nonpayable",
      "type": "function"
    },
    {
      "constant": false,
      "inputs": [
        {
          "name": "userAddress",
          "type": "address"
        },
        {
          "name": "functionSignature",
          "type": "bytes"
        },
        {
          "name": "sigR",
          "type": "bytes32"
        },
        {
          "name": "sigS",
          "type": "bytes32"
        },
        {
          "name": "sigV",
          "type": "uint8"
        }
      ],
      "name": "executeMetaTransaction",
      "outputs": [
        {
          "name": "",
          "type": "bytes"
        }
      ],
      "payable": true,
      "stateMutability": "payable",
      "type": "function"
    },
    {
      "constant": true,
      "inputs": [
        {
          "name": "_address",
          "type": "address"
        }
      ],
      "name": "isWhitelistedSponsor",
      "outputs": [
        {
          "name": "",
          "type": "bool"
        }
      ],
      "payable": false,
      "stateMutability": "view",
      "type": "function"
    },
    {
      "constant": true,
      "inputs": [],
      "name": "_msgSender",
      "outputs": [
        {
          "name": "sender",
          "type": "address"
        }
      ],
      "payable": false,
      "stateMutability": "view",
      "type": "function"
    },
    {
      "constant": true,
      "inputs": [
        {
          "name": "",
          "type": "uint256"
        },
        {
          "name": "",
          "type": "uint256"
        }
      ],
      "name": "marketCreationData",
      "outputs": [
        {
          "name": "initialStartTime",
          "type": "uint64"
        },
        {
          "name": "marketAddress",
          "type": "address"
        },
        {
          "name": "penultimateMarket",
          "type": "address"
        }
      ],
      "payable": false,
      "stateMutability": "view",
      "type": "function"
    },
    {
      "constant": true,
      "inputs": [],
      "name": "plotToken",
      "outputs": [
        {
          "name": "",
          "type": "address"
        }
      ],
      "payable": false,
      "stateMutability": "view",
      "type": "function"
    },
    {
      "constant": true,
      "inputs": [
        {
          "name": "_toCheck",
          "type": "address"
        }
      ],
      "name": "isAuthorizedToGovern",
      "outputs": [
        {
          "name": "",
          "type": "bool"
        }
      ],
      "payable": false,
      "stateMutability": "view",
      "type": "function"
    },
    {
      "constant": true,
      "inputs": [],
      "name": "marketUtility",
      "outputs": [
        {
          "name": "",
          "type": "address"
        }
      ],
      "payable": false,
      "stateMutability": "view",
      "type": "function"
    },
    {
      "constant": true,
      "inputs": [
        {
          "name": "user",
          "type": "address"
        }
      ],
      "name": "getNonce",
      "outputs": [
        {
          "name": "nonce",
          "type": "uint256"
        }
      ],
      "payable": false,
      "stateMutability": "view",
      "type": "function"
    },
    {
      "constant": true,
      "inputs": [],
      "name": "marketCreationPaused",
      "outputs": [
        {
          "name": "",
          "type": "bool"
        }
      ],
      "payable": false,
      "stateMutability": "view",
      "type": "function"
    },
    {
      "constant": false,
      "inputs": [
        {
          "name": "_asset",
          "type": "address"
        },
        {
          "name": "_to",
          "type": "address"
        },
        {
          "name": "_amount",
          "type": "uint256"
        }
      ],
      "name": "transferAssets",
      "outputs": [],
      "payable": false,
      "stateMutability": "nonpayable",
      "type": "function"
    },
    {
      "constant": false,
      "inputs": [],
      "name": "setMasterAddress",
      "outputs": [],
      "payable": false,
      "stateMutability": "nonpayable",
      "type": "function"
    },
    {
      "constant": true,
      "inputs": [],
      "name": "getChainID",
      "outputs": [
        {
          "name": "",
          "type": "uint256"
        }
      ],
      "payable": false,
      "stateMutability": "pure",
      "type": "function"
    },
    {
      "constant": true,
      "inputs": [
        {
          "name": "user",
          "type": "address"
        },
        {
          "name": "fromIndex",
          "type": "uint256"
        },
        {
          "name": "toIndex",
          "type": "uint256"
        }
      ],
      "name": "getMarketDetailsUser",
      "outputs": [
        {
          "name": "_market",
          "type": "address[]"
        },
        {
          "name": "_winnigOption",
          "type": "uint256[]"
        }
      ],
      "payable": false,
      "stateMutability": "view",
      "type": "function"
    },
    {
      "constant": true,
      "inputs": [
        {
          "name": "code",
          "type": "bytes8"
        }
      ],
      "name": "getUintParameters",
      "outputs": [
        {
          "name": "codeVal",
          "type": "bytes8"
        },
        {
          "name": "value",
          "type": "uint256"
        }
      ],
      "payable": false,
      "stateMutability": "view",
      "type": "function"
    },
    {
      "constant": true,
      "inputs": [
        {
          "name": "owner",
          "type": "address"
        },
        {
          "name": "nonce",
          "type": "uint256"
        },
        {
          "name": "chainID",
          "type": "uint256"
        },
        {
          "name": "functionSignature",
          "type": "bytes"
        },
        {
          "name": "sigR",
          "type": "bytes32"
        },
        {
          "name": "sigS",
          "type": "bytes32"
        },
        {
          "name": "sigV",
          "type": "uint8"
        }
      ],
      "name": "verify",
      "outputs": [
        {
          "name": "",
          "type": "bool"
        }
      ],
      "payable": false,
      "stateMutability": "view",
      "type": "function"
    },
    {
      "constant": true,
      "inputs": [
        {
          "name": "_address",
          "type": "address"
        }
      ],
      "name": "isMarket",
      "outputs": [
        {
          "name": "",
          "type": "bool"
        }
      ],
      "payable": false,
      "stateMutability": "view",
      "type": "function"
    },
    {
      "constant": false,
      "inputs": [
        {
          "name": "code",
          "type": "bytes8"
        },
        {
          "name": "value",
          "type": "address"
        }
      ],
      "name": "updateConfigAddressParameters",
      "outputs": [],
      "payable": false,
      "stateMutability": "nonpayable",
      "type": "function"
    },
    {
      "constant": false,
      "inputs": [
        {
          "name": "_currencyIndexes",
          "type": "uint256[]"
        },
        {
          "name": "_marketImplementations",
          "type": "address[]"
        }
      ],
      "name": "updateMarketImplementations",
      "outputs": [],
      "payable": false,
      "stateMutability": "nonpayable",
      "type": "function"
    },
    {
      "constant": false,
      "inputs": [
        {
          "name": "_marketStartTime",
          "type": "uint64"
        },
        {
          "name": "_ethMarketImplementation",
          "type": "address"
        },
        {
          "name": "_btcMarketImplementation",
          "type": "address"
        }
      ],
      "name": "addInitialMarketTypesAndStart",
      "outputs": [],
      "payable": false,
      "stateMutability": "nonpayable",
      "type": "function"
    },
    {
      "constant": false,
      "inputs": [
        {
          "name": "_user",
          "type": "address"
        },
        {
          "name": "_value",
          "type": "uint256"
        },
        {
          "name": "_predictionPoints",
          "type": "uint256"
        },
        {
          "name": "_predictionAsset",
          "type": "address"
        },
        {
          "name": "_prediction",
          "type": "uint256"
        },
        {
          "name": "_leverage",
          "type": "uint256"
        }
      ],
      "name": "setUserGlobalPredictionData",
      "outputs": [],
      "payable": false,
      "stateMutability": "nonpayable",
      "type": "function"
    },
    {
      "constant": false,
      "inputs": [
        {
          "name": "code",
          "type": "bytes8"
        },
        {
          "name": "value",
          "type": "uint256"
        }
      ],
      "name": "updateUintParameters",
      "outputs": [],
      "payable": false,
      "stateMutability": "nonpayable",
      "type": "function"
    },
    {
      "constant": false,
      "inputs": [
        {
          "name": "_proposalId",
          "type": "uint256"
        }
      ],
      "name": "burnDisputedProposalTokens",
      "outputs": [],
      "payable": false,
      "stateMutability": "nonpayable",
      "type": "function"
    },
    {
      "constant": false,
      "inputs": [
        {
          "name": "_totalReward",
          "type": "uint256[]"
        },
        {
          "name": "winningOption",
          "type": "uint256"
        },
        {
          "name": "closeValue",
          "type": "uint256"
        },
        {
          "name": "_roundId",
          "type": "uint256"
        }
      ],
      "name": "callMarketResultEvent",
      "outputs": [],
      "payable": false,
      "stateMutability": "nonpayable",
      "type": "function"
    },
    {
      "constant": false,
      "inputs": [],
      "name": "resumeMarketCreation",
      "outputs": [],
      "payable": false,
      "stateMutability": "nonpayable",
      "type": "function"
    },
    {
      "constant": true,
      "inputs": [
        {
          "name": "_marketAdd",
          "type": "address"
        }
      ],
      "name": "getMarketDetails",
      "outputs": [
        {
          "name": "_feedsource",
          "type": "bytes32"
        },
        {
          "name": "minvalue",
          "type": "uint256[]"
        },
        {
          "name": "maxvalue",
          "type": "uint256[]"
        },
        {
          "name": "optionprice",
          "type": "uint256[]"
        },
        {
          "name": "_ethStaked",
          "type": "uint256[]"
        },
        {
          "name": "_plotStaked",
          "type": "uint256[]"
        },
        {
          "name": "_predictionType",
          "type": "uint256"
        },
        {
          "name": "_expireTime",
          "type": "uint256"
        },
        {
          "name": "_predictionStatus",
          "type": "uint256"
        }
      ],
      "payable": false,
      "stateMutability": "view",
      "type": "function"
    },
    {
      "constant": false,
      "inputs": [
        {
          "name": "_marketType",
          "type": "uint256"
        },
        {
          "name": "_marketCurrencyIndex",
          "type": "uint256"
        }
      ],
      "name": "createMarket",
      "outputs": [],
      "payable": true,
      "stateMutability": "payable",
      "type": "function"
    },
    {
      "constant": false,
      "inputs": [
        {
          "name": "_user",
          "type": "address"
        },
        {
          "name": "_reward",
          "type": "uint256[]"
        },
        {
          "name": "predictionAssets",
          "type": "address[]"
        },
        {
          "name": "incentives",
          "type": "uint256"
        },
        {
          "name": "incentiveToken",
          "type": "address"
        }
      ],
      "name": "callClaimedEvent",
      "outputs": [],
      "payable": false,
      "stateMutability": "nonpayable",
      "type": "function"
    },
    {
      "constant": false,
      "inputs": [
        {
          "name": "_marketImplementation",
          "type": "address"
        },
        {
          "name": "_marketStartTime",
          "type": "uint64"
        }
      ],
      "name": "addNewMarketCurrency",
      "outputs": [],
      "payable": false,
      "stateMutability": "nonpayable",
      "type": "function"
    },
    {
      "constant": false,
      "inputs": [
        {
          "name": "_proxyAddress",
          "type": "address"
        },
        {
          "name": "_newImplementation",
          "type": "address"
        }
      ],
      "name": "upgradeContractImplementation",
      "outputs": [],
      "payable": false,
      "stateMutability": "nonpayable",
      "type": "function"
    },
    {
      "constant": true,
      "inputs": [],
      "name": "masterAddress",
      "outputs": [
        {
          "name": "",
          "type": "address"
        }
      ],
      "payable": false,
      "stateMutability": "view",
      "type": "function"
    },
    {
      "constant": false,
      "inputs": [
        {
          "name": "_predictionTime",
          "type": "uint64"
        },
        {
          "name": "_marketStartTime",
          "type": "uint64"
        },
        {
          "name": "_optionRangePerc",
          "type": "uint64"
        }
      ],
      "name": "addNewMarketType",
      "outputs": [],
      "payable": false,
      "stateMutability": "nonpayable",
      "type": "function"
    },
    {
      "constant": false,
      "inputs": [
        {
          "name": "proposalTitle",
          "type": "string"
        },
        {
          "name": "description",
          "type": "string"
        },
        {
          "name": "solutionHash",
          "type": "string"
        },
        {
          "name": "action",
          "type": "bytes"
        },
        {
          "name": "_stakeForDispute",
          "type": "uint256"
        },
        {
          "name": "_user",
          "type": "address"
        },
        {
          "name": "_ethSentToPool",
          "type": "uint256"
        },
        {
          "name": "_tokenSentToPool",
          "type": "uint256"
        },
        {
          "name": "_proposedValue",
          "type": "uint256"
        }
      ],
      "name": "createGovernanceProposal",
      "outputs": [],
      "payable": false,
      "stateMutability": "nonpayable",
      "type": "function"
    },
    {
      "constant": true,
      "inputs": [],
      "name": "tokenController",
      "outputs": [
        {
          "name": "",
          "type": "address"
        }
      ],
      "payable": false,
      "stateMutability": "view",
      "type": "function"
    },
    {
      "constant": true,
      "inputs": [
        {
          "name": "_user",
          "type": "address"
        }
      ],
      "name": "getTotalAssetStakedByUser",
      "outputs": [
        {
          "name": "_plotStaked",
          "type": "uint256"
        },
        {
          "name": "_ethStaked",
          "type": "uint256"
        }
      ],
      "payable": false,
      "stateMutability": "view",
      "type": "function"
    },
    {
      "constant": true,
      "inputs": [
        {
          "name": "_marketType",
          "type": "uint256"
        },
        {
          "name": "_marketCurrencyIndex",
          "type": "uint256"
        }
      ],
      "name": "calculateStartTimeForMarket",
      "outputs": [
        {
          "name": "_marketStartTime",
          "type": "uint64"
        }
      ],
      "payable": false,
      "stateMutability": "view",
      "type": "function"
    },
    {
      "constant": false,
      "inputs": [
        {
          "name": "maxRecords",
          "type": "uint256"
        }
      ],
      "name": "claimPendingReturn",
      "outputs": [],
      "payable": false,
      "stateMutability": "nonpayable",
      "type": "function"
    },
    {
      "payable": true,
      "stateMutability": "payable",
      "type": "fallback"
    },
    {
      "anonymous": false,
      "inputs": [
        {
          "indexed": true,
          "name": "marketAdd",
          "type": "address"
        },
        {
          "indexed": false,
          "name": "stockName",
          "type": "bytes32"
        },
        {
          "indexed": true,
          "name": "predictionType",
          "type": "uint256"
        },
        {
          "indexed": false,
          "name": "startTime",
          "type": "uint256"
        }
      ],
      "name": "MarketQuestion",
      "type": "event"
    },
    {
      "anonymous": false,
      "inputs": [
        {
          "indexed": true,
          "name": "user",
          "type": "address"
        },
        {
          "indexed": false,
          "name": "value",
          "type": "uint256"
        },
        {
          "indexed": false,
          "name": "predictionPoints",
          "type": "uint256"
        },
        {
          "indexed": false,
          "name": "predictionAsset",
          "type": "address"
        },
        {
          "indexed": false,
          "name": "prediction",
          "type": "uint256"
        },
        {
          "indexed": true,
          "name": "marketAdd",
          "type": "address"
        },
        {
          "indexed": false,
          "name": "_leverage",
          "type": "uint256"
        }
      ],
      "name": "PlacePrediction",
      "type": "event"
    },
    {
      "anonymous": false,
      "inputs": [
        {
          "indexed": true,
          "name": "marketAdd",
          "type": "address"
        },
        {
          "indexed": false,
          "name": "totalReward",
          "type": "uint256[]"
        },
        {
          "indexed": false,
          "name": "winningOption",
          "type": "uint256"
        },
        {
          "indexed": false,
          "name": "closeValue",
          "type": "uint256"
        },
        {
          "indexed": false,
          "name": "roundId",
          "type": "uint256"
        }
      ],
      "name": "MarketResult",
      "type": "event"
    },
    {
      "anonymous": false,
      "inputs": [
        {
          "indexed": true,
          "name": "marketAdd",
          "type": "address"
        },
        {
          "indexed": true,
          "name": "user",
          "type": "address"
        },
        {
          "indexed": false,
          "name": "reward",
          "type": "uint256[]"
        },
        {
          "indexed": false,
          "name": "_predictionAssets",
          "type": "address[]"
        },
        {
          "indexed": false,
          "name": "incentive",
          "type": "uint256"
        },
        {
          "indexed": false,
          "name": "incentiveToken",
          "type": "address"
        }
      ],
      "name": "Claimed",
      "type": "event"
    },
    {
      "anonymous": false,
      "inputs": [
        {
          "indexed": true,
          "name": "index",
          "type": "uint256"
        },
        {
          "indexed": false,
          "name": "predictionTime",
          "type": "uint64"
        },
        {
          "indexed": false,
          "name": "optionRangePerc",
          "type": "uint64"
        }
      ],
      "name": "MarketTypes",
      "type": "event"
    },
    {
      "anonymous": false,
      "inputs": [
        {
          "indexed": true,
          "name": "index",
          "type": "uint256"
        },
        {
          "indexed": false,
          "name": "marketImplementation",
          "type": "address"
        },
        {
          "indexed": false,
          "name": "feedAddress",
          "type": "address"
        },
        {
          "indexed": false,
          "name": "currencyName",
          "type": "bytes32"
        }
      ],
      "name": "MarketCurrencies",
      "type": "event"
    },
    {
      "anonymous": false,
      "inputs": [
        {
          "indexed": true,
          "name": "marketAdd",
          "type": "address"
        },
        {
          "indexed": false,
          "name": "raisedBy",
          "type": "address"
        },
        {
          "indexed": false,
          "name": "proposalId",
          "type": "uint64"
        },
        {
          "indexed": false,
          "name": "proposedValue",
          "type": "uint256"
        }
      ],
      "name": "DisputeRaised",
      "type": "event"
    },
    {
      "anonymous": false,
      "inputs": [
        {
          "indexed": true,
          "name": "marketAdd",
          "type": "address"
        },
        {
          "indexed": false,
          "name": "status",
          "type": "bool"
        }
      ],
      "name": "DisputeResolved",
      "type": "event"
    },
    {
      "anonymous": false,
      "inputs": [
        {
          "indexed": false,
          "name": "userAddress",
          "type": "address"
        },
        {
          "indexed": false,
          "name": "relayerAddress",
          "type": "address"
        },
        {
          "indexed": false,
          "name": "functionSignature",
          "type": "bytes"
        }
      ],
      "name": "MetaTransactionExecuted",
      "type": "event"
    },
    {
      "constant": false,
      "inputs": [
        {
          "name": "_to",
          "type": "address"
        },
        {
          "name": "_amount",
          "type": "uint256"
        }
      ],
      "name": "transferPlot",
      "outputs": [],
      "payable": false,
      "stateMutability": "nonpayable",
      "type": "function"
    }
  ],
  "bytecode": "0x608060405234801561001057600080fd5b50615548806100206000396000f3fe608060405260043610620002895760003560e01c80636ec934da1162000157578063c7604fec11620000c7578063dbdfc6121162000085578063dbdfc6121462001111578063e99a8de0146200115a578063eddd9d8214620013cb578063f9f9526b14620013e3578063fb60f12b1462001433578063fce3797e14620014835762000289565b8063c7604fec1462000f5a578063c819b5f21462000f80578063c8f46afe1462001074578063d021626014620010ba578063d365a08e14620010f95762000289565b80639dd86e0f11620001155780639dd86e0f1462000c83578063a138ca3d1462000cc1578063a99f50dd1462000cef578063b0412cb01462000d7d578063b068f34f1462000d955762000289565b80636ec934da1462000a89578063840c7b711462000ac0578063912b9b3f1462000b0757806391433e511462000bdc57806391b2f38e1462000c2a5762000289565b8063161a226e11620001ff57806349f4cc1711620001bd57806349f4cc1714620007f45780634b6199b0146200083b578063564b81ef14620008535780635b2ad63a146200086b5780636122f840146200094b5780636281133d14620009a75762000289565b8063161a226e146200072c57806322ce725414620007445780632b6a5215146200077b5780632d0335ab146200079357806335f628ee14620007dc5762000289565b80630c32ff56116200024d5780630c32ff5614620004315780630c53c51c14620005075780630e43f4ce1462000647578063119df25f146200069257806313817bfb14620006c65762000289565b8062893bc8146200028b5780630357e76f146200038757806303bb74c614620003c457806304ad228a14620004015780630863812f1462000419575b005b3480156200029857600080fd5b50620002a3620014b1565b60405180806020018060200180602001848103845287818151815260200191508051906020019060200280838360005b83811015620002ed578181015183820152602001620002d3565b50505050905001848103835286818151815260200191508051906020019060200280838360005b838110156200032e57818101518382015260200162000314565b50505050905001848103825285818151815260200191508051906020019060200280838360005b838110156200036f57818101518382015260200162000355565b50505050905001965050505050505060405180910390f35b3480156200039457600080fd5b506200028960048036036040811015620003ad57600080fd5b506001600160a01b038135169060200135620016ce565b348015620003d157600080fd5b506200028960048036036040811015620003ea57600080fd5b506001600160a01b038135169060200135620018c2565b3480156200040e57600080fd5b5062000289620018e4565b3480156200042657600080fd5b506200028962001a47565b3480156200043e57600080fd5b5062000289600480360360808110156200045757600080fd5b6001600160a01b0382358116926020810135821692604082013590921691810190608081016060820135600160201b8111156200049357600080fd5b820183602082011115620004a657600080fd5b803590602001918460208302840111600160201b83111715620004c857600080fd5b91908080602002602001604051908101604052809392919081815260200183836020028082843760009201919091525092955062001b3e945050505050565b620005cf600480360360a08110156200051f57600080fd5b6001600160a01b038235169190810190604081016020820135600160201b8111156200054a57600080fd5b8201836020820111156200055d57600080fd5b803590602001918460018302840111600160201b831117156200057f57600080fd5b91908080601f016020809104026020016040519081016040528093929190818152602001838380828437600092019190915250929550508235935050506020810135906040013560ff1662001d1e565b6040805160208082528351818301528351919283929083019185019080838360005b838110156200060b578181015183820152602001620005f1565b50505050905090810190601f168015620006395780820380516001836020036101000a031916815260200191505b509250505060405180910390f35b3480156200065457600080fd5b506200067e600480360360208110156200066d57600080fd5b50356001600160a01b031662002044565b604080519115158252519081900360200190f35b3480156200069f57600080fd5b50620006aa620020cd565b604080516001600160a01b039092168252519081900360200190f35b348015620006d357600080fd5b50620006fa60048036036040811015620006ec57600080fd5b50803590602001356200212d565b604080516001600160401b0390941684526001600160a01b039283166020850152911682820152519081900360600190f35b3480156200073957600080fd5b50620006aa62002170565b3480156200075157600080fd5b506200067e600480360360208110156200076a57600080fd5b50356001600160a01b031662002184565b3480156200078857600080fd5b50620006aa6200221f565b348015620007a057600080fd5b50620007ca60048036036020811015620007b957600080fd5b50356001600160a01b03166200222e565b60408051918252519081900360200190f35b348015620007e957600080fd5b506200067e62002249565b3480156200080157600080fd5b5062000289600480360360608110156200081a57600080fd5b506001600160a01b0381358116916020810135909116906040013562002252565b3480156200084857600080fd5b50620002896200233b565b3480156200086057600080fd5b50620007ca620024cc565b3480156200087857600080fd5b50620008ae600480360360608110156200089157600080fd5b506001600160a01b038135169060208101359060400135620024d1565b604051808060200180602001838103835285818151815260200191508051906020019060200280838360005b83811015620008f4578181015183820152602001620008da565b50505050905001838103825284818151815260200191508051906020019060200280838360005b83811015620009355781810151838201526020016200091b565b5050505090500194505050505060405180910390f35b3480156200095857600080fd5b5062000983600480360360208110156200097157600080fd5b50356001600160c01b031916620026e3565b604080516001600160c01b0319909316835260208301919091528051918290030190f35b348015620009b457600080fd5b506200067e600480360360e0811015620009cd57600080fd5b6001600160a01b038235169160208101359160408201359190810190608081016060820135600160201b81111562000a0457600080fd5b82018360208201111562000a1757600080fd5b803590602001918460018302840111600160201b8311171562000a3957600080fd5b91908080601f016020809104026020016040519081016040528093929190818152602001838380828437600092019190915250929550508235935050506020810135906040013560ff1662002712565b34801562000a9657600080fd5b506200067e6004803603602081101562000aaf57600080fd5b50356001600160a01b0316620028a6565b34801562000acd57600080fd5b50620002896004803603604081101562000ae657600080fd5b5080356001600160c01b03191690602001356001600160a01b0316620028c4565b34801562000b1457600080fd5b50620002896004803603604081101562000b2d57600080fd5b810190602081018135600160201b81111562000b4857600080fd5b82018360208201111562000b5b57600080fd5b803590602001918460208302840111600160201b8311171562000b7d57600080fd5b919390929091602081019035600160201b81111562000b9b57600080fd5b82018360208201111562000bae57600080fd5b803590602001918460208302840111600160201b8311171562000bd057600080fd5b50909250905062002a1a565b34801562000be957600080fd5b50620002896004803603606081101562000c0257600080fd5b506001600160401b03813516906001600160a01b036020820135811691604001351662002cd5565b34801562000c3757600080fd5b5062000289600480360360c081101562000c5057600080fd5b506001600160a01b03813581169160208101359160408201359160608101359091169060808101359060a0013562002dc6565b34801562000c9057600080fd5b50620002896004803603604081101562000ca957600080fd5b506001600160c01b0319813516906020013562002f8a565b34801562000cce57600080fd5b50620002896004803603602081101562000ce757600080fd5b5035620030f0565b34801562000cfc57600080fd5b50620002896004803603608081101562000d1557600080fd5b810190602081018135600160201b81111562000d3057600080fd5b82018360208201111562000d4357600080fd5b803590602001918460208302840111600160201b8311171562000d6557600080fd5b91935091508035906020810135906040013562003304565b34801562000d8a57600080fd5b5062000289620033a5565b34801562000da257600080fd5b5062000dcc6004803603602081101562000dbb57600080fd5b50356001600160a01b031662003498565b604051808a8152602001806020018060200180602001806020018060200189815260200188815260200187815260200186810386528e818151815260200191508051906020019060200280838360005b8381101562000e3657818101518382015260200162000e1c565b5050505090500186810385528d818151815260200191508051906020019060200280838360005b8381101562000e7757818101518382015260200162000e5d565b5050505090500186810384528c818151815260200191508051906020019060200280838360005b8381101562000eb857818101518382015260200162000e9e565b5050505090500186810383528b818151815260200191508051906020019060200280838360005b8381101562000ef957818101518382015260200162000edf565b5050505090500186810382528a818151815260200191508051906020019060200280838360005b8381101562000f3a57818101518382015260200162000f20565b505050509050019e50505050505050505050505050505060405180910390f35b620002896004803603604081101562000f7257600080fd5b5080359060200135620036ef565b34801562000f8d57600080fd5b5062000289600480360360a081101562000fa657600080fd5b6001600160a01b038235169190810190604081016020820135600160201b81111562000fd157600080fd5b82018360208201111562000fe457600080fd5b803590602001918460208302840111600160201b831117156200100657600080fd5b919390929091602081019035600160201b8111156200102457600080fd5b8201836020820111156200103757600080fd5b803590602001918460208302840111600160201b831117156200105957600080fd5b9193509150803590602001356001600160a01b031662003b23565b3480156200108157600080fd5b5062000289600480360360408110156200109a57600080fd5b5080356001600160a01b031690602001356001600160401b031662003c0a565b348015620010c757600080fd5b506200028960048036036040811015620010e057600080fd5b506001600160a01b038135811691602001351662003d4b565b3480156200110657600080fd5b50620006aa62003e84565b3480156200111e57600080fd5b5062000289600480360360608110156200113757600080fd5b506001600160401b03813581169160208101358216916040909101351662003e93565b3480156200116757600080fd5b506200028960048036036101208110156200118157600080fd5b810190602081018135600160201b8111156200119c57600080fd5b820183602082011115620011af57600080fd5b803590602001918460018302840111600160201b83111715620011d157600080fd5b91908080601f0160208091040260200160405190810160405280939291908181526020018383808284376000920191909152509295949360208101935035915050600160201b8111156200122457600080fd5b8201836020820111156200123757600080fd5b803590602001918460018302840111600160201b831117156200125957600080fd5b91908080601f0160208091040260200160405190810160405280939291908181526020018383808284376000920191909152509295949360208101935035915050600160201b811115620012ac57600080fd5b820183602082011115620012bf57600080fd5b803590602001918460018302840111600160201b83111715620012e157600080fd5b91908080601f0160208091040260200160405190810160405280939291908181526020018383808284376000920191909152509295949360208101935035915050600160201b8111156200133457600080fd5b8201836020820111156200134757600080fd5b803590602001918460018302840111600160201b831117156200136957600080fd5b91908080601f0160208091040260200160405190810160405280939291908181526020018383808284376000920191909152509295505082359350506001600160a01b0360208301351691604081013591506060810135906080013562003fe4565b348015620013d857600080fd5b50620006aa62004492565b348015620013f057600080fd5b506200141a600480360360208110156200140957600080fd5b50356001600160a01b0316620044a1565b6040805192835260208301919091528051918290030190f35b3480156200144057600080fd5b5062001467600480360360408110156200145957600080fd5b5080359060200135620044c7565b604080516001600160401b039092168252519081900360200190f35b3480156200149057600080fd5b506200028960048036036020811015620014a957600080fd5b503562004630565b600a5460095460609182918291600091620014d3828263ffffffff620047e416565b604051908082528060200260200182016040528015620014fd578160200160208202803883390190505b50955062001512828263ffffffff620047e416565b6040519080825280602002602001820160405280156200153c578160200160208202803883390190505b50945062001551828263ffffffff620047e416565b6040519080825280602002602001820160405280156200157b578160200160208202803883390190505b50935060005b82811015620016c55760005b82811015620016bb5760008281526005602090815260408083208484529091529020548851600160401b9091046001600160a01b031690899087908110620015d157fe5b60200260200101906001600160a01b031690816001600160a01b03168152505081878681518110620015ff57fe5b602002602001018181525050600981815481106200161957fe5b6000918252602091829020015460408051600160e01b63ddf8389b02815290516001600160a01b039092169263ddf8389b92600480840193829003018186803b1580156200166657600080fd5b505afa1580156200167b573d6000803e3d6000fd5b505050506040513d60208110156200169257600080fd5b50518651879087908110620016a357fe5b6020908102919091010152600194850194016200158d565b5060010162001581565b50505050909192565b60005460408051600160e31b6227050b028152600160f11b6123ab02600482015290516001600160a01b039092169133918391630138285891602480820192602092909190829003018186803b1580156200172857600080fd5b505afa1580156200173d573d6000803e3d6000fd5b505050506040513d60208110156200175457600080fd5b50516001600160a01b031614620017a45760408051600160e51b62461bcd02815260206004820152600e6024820152600080516020620054fd833981519152604482015290519081900360640190fd5b6001600160a01b0380841660009081526003602081905260409091209081015460048201546002830154600190930154600b549294919392600160401b90910482169161010090910416620017fb8189866200484e565b60408051600160e01b6377c24577028152600160048201526024810189905290516001600160a01b038a16916377c2457791889160448082019260009290919082900301818588803b1580156200185157600080fd5b505af115801562001866573d6000803e3d6000fd5b5050604080516001815290516001600160a01b038d1694507fcea2bc33eef9c2bacf266c2b7b17f8f2db3c22582cb56c00467843e85d98021e9350908190036020019150a2620018b88183856200484e565b5050505050505050565b600b54620018e09061010090046001600160a01b031683836200484e565b5050565b600060046000620018f4620020cd565b6001600160a01b03166001600160a01b0316815260200190815260200160002060010154116200192357600080fd5b6000620019646004600062001937620020cd565b6001600160a01b031681526020810191909152604001600020600101546002549063ffffffff620047e416565b600b5460408051600160e01b6370a08231028152306004820152905192935083926101009092046001600160a01b0316916370a0823191602480820192602092909190829003018186803b158015620019bc57600080fd5b505afa158015620019d1573d6000803e3d6000fd5b505050506040513d6020811015620019e857600080fd5b505111620019f557600080fd5b6004600062001a03620020cd565b6001600160a01b0390811682526020820192909252604001600090812060010155600b5462001a44916101009091041662001a3d620020cd565b836200484e565b50565b60005460408051600160e31b6227050b028152600160f11b6123ab02600482015290516001600160a01b039092169133918391630138285891602480820192602092909190829003018186803b15801562001aa157600080fd5b505afa15801562001ab6573d6000803e3d6000fd5b505050506040513d602081101562001acd57600080fd5b50516001600160a01b03161462001b1d5760408051600160e51b62461bcd02815260206004820152600e6024820152600080516020620054fd833981519152604482015290519081900360640190fd5b600b5460ff161562001b2e57600080fd5b50600b805460ff19166001179055565b600e546001600160a01b0316331462001b5657600080fd5b6802b5e3af16b1880000600255600b80546001600160a01b0380851661010002610100600160a81b031990921691909117909155600e5460408051600160e31b6227050b028152600160f01b61544302600482015290516000939290921691630138285891602480820192602092909190829003018186803b15801562001bdc57600080fd5b505afa15801562001bf1573d6000803e3d6000fd5b505050506040513d602081101562001c0857600080fd5b5051600880546001600160a01b0319166001600160a01b038316179055905062001c328462004952565b600c80546001600160a01b0319166001600160a01b03928316179081905560408051600160e11b6323168597028152888416602482015260048101918252855160448201528551929093169263462d0b2e9286928a9290918291606401906020868101910280838360005b8381101562001cb757818101518382015260200162001c9d565b505050509050019350505050600060405180830381600087803b15801562001cde57600080fd5b505af115801562001cf3573d6000803e3d6000fd5b5050600780546001600160a01b0319166001600160a01b039890981697909717909655505050505050565b6001600160a01b03851660009081526001602052604090205460609062001d5590879062001d4b620024cc565b8888888862002712565b62001d9557604051600160e51b62461bcd028152600401808060200182810382526021815260200180620054dc6021913960400191505060405180910390fd5b6001600160a01b03861660009081526001602081905260409091205462001dc29163ffffffff6200499a16565b60016000886001600160a01b03166001600160a01b031681526020019081526020016000208190555060006060306001600160a01b031687896040516020018083805190602001908083835b6020831062001e2f5780518252601f19909201916020918201910162001e0e565b51815160209384036101000a60001901801990921691161790526001600160a01b039590951660601b92019182525060408051808303600b190181526014909201908190528151919450928392508401908083835b6020831062001ea55780518252601f19909201916020918201910162001e84565b6001836020036101000a0380198251168184511680821785525050505050509050019150506000604051808303816000865af19150503d806000811462001f09576040519150601f19603f3d011682016040523d82523d6000602084013e62001f0e565b606091505b50915091508162001f695760408051600160e51b62461bcd02815260206004820152601c60248201527f46756e6374696f6e2063616c6c206e6f74207375636365737366756c00000000604482015290519081900360640190fd5b7f5845892132946850460bff5a0083f71031bc5bf9aadcd40f1de79423eac9b10b88338960405180846001600160a01b03166001600160a01b03168152602001836001600160a01b03166001600160a01b0316815260200180602001828103825283818151815260200191508051906020019080838360005b8381101562001ffc57818101518382015260200162001fe2565b50505050905090810190601f1680156200202a5780820380516001836020036101000a031916815260200191505b5094505050505060405180910390a1979650505050505050565b600e5460408051600160e01b63532bd9b10281526001600160a01b0384811660048301529151600093929092169163532bd9b191602480820192602092909190829003018186803b1580156200209957600080fd5b505afa158015620020ae573d6000803e3d6000fd5b505050506040513d6020811015620020c557600080fd5b505192915050565b600033301415620021275760606000368080601f0160208091040260200160405190810160405280939291908181526020018383808284376000920191909152505050503601516001600160a01b031691506200212a9050565b50335b90565b6005602090815260009283526040808420909152908252902080546001909101546001600160401b038216916001600160a01b03600160401b9091048116911683565b600b5461010090046001600160a01b031681565b6000805460408051600160e31b6227050b028152600160f11b6123ab02600482015290516001600160a01b03928316928516918391630138285891602480820192602092909190829003018186803b158015620021e057600080fd5b505afa158015620021f5573d6000803e3d6000fd5b505050506040513d60208110156200220c57600080fd5b50516001600160a01b0316149392505050565b600c546001600160a01b031681565b6001600160a01b031660009081526001602052604090205490565b600b5460ff1681565b60005460408051600160e31b6227050b028152600160f11b6123ab02600482015290516001600160a01b039092169133918391630138285891602480820192602092909190829003018186803b158015620022ac57600080fd5b505afa158015620022c1573d6000803e3d6000fd5b505050506040513d6020811015620022d857600080fd5b50516001600160a01b031614620023285760408051600160e51b62461bcd02815260206004820152600e6024820152600080516020620054fd833981519152604482015290519081900360640190fd5b620023358484846200484e565b50505050565b6000309050806001600160a01b031663025313a26040518163ffffffff1660e01b815260040160206040518083038186803b1580156200237a57600080fd5b505afa1580156200238f573d6000803e3d6000fd5b505050506040513d6020811015620023a657600080fd5b50516001600160a01b03163314620024085760408051600160e51b62461bcd02815260206004820152601a60248201527f53656e646572206973206e6f742070726f7879206f776e65722e000000000000604482015290519081900360640190fd5b600e8054336001600160a01b03199182168117928390556000805490921617905560408051600160e31b6227050b028152600160f11b6123ab02600482015290516001600160a01b0390921691630138285891602480820192602092909190829003018186803b1580156200247c57600080fd5b505afa15801562002491573d6000803e3d6000fd5b505050506040513d6020811015620024a857600080fd5b5051600d80546001600160a01b0319166001600160a01b0390921691909117905550565b608990565b6001600160a01b03831660009081526004602081905260409091200154606090819080158015906200250257508085105b15620026da578381811062002518575060001981015b6200253d600162002530838963ffffffff620049f816565b9063ffffffff6200499a16565b60405190808252806020026020018201604052801562002567578160200160208202803883390190505b50935062002582600162002530838963ffffffff620049f816565b604051908082528060200260200182016040528015620025ac578160200160208202803883390190505b509250855b818111620026d7576001600160a01b038816600090815260046020819052604090912001805482908110620025e257fe5b9060005260206000200160009054906101000a90046001600160a01b03168582815181106200260d57fe5b60200260200101906001600160a01b031690816001600160a01b0316815250508481815181106200263a57fe5b60200260200101516001600160a01b0316637852d19d6040518163ffffffff1660e01b8152600401604080518083038186803b1580156200267a57600080fd5b505afa1580156200268f573d6000803e3d6000fd5b505050506040513d6040811015620026a657600080fd5b505184516001600160401b0390911690859083908110620026c357fe5b6020908102919091010152600101620025b1565b50505b50935093915050565b600080600160d01b654d4352494e43026001600160c01b0319841614156200270d57505060025481905b915091565b600080620027bc8830898960405160200180858152602001846001600160a01b03166001600160a01b031660601b815260140183815260200182805190602001908083835b60208310620027785780518252601f19909201916020918201910162002757565b6001836020036101000a0380198251168184511680821785525050505050509050019450505050506040516020818303038152906040528051906020012062004a59565b9050600060018285888860405160008152602001604052604051808581526020018460ff1660ff1681526020018381526020018281526020019450505050506020604051602081039080840390855afa1580156200281e573d6000803e3d6000fd5b5050604051601f1901519150506001600160a01b0381166200288a5760408051600160e51b62461bcd02815260206004820152601160248201527f496e76616c6964207369676e6174757265000000000000000000000000000000604482015290519081900360640190fd5b6001600160a01b038a8116911614915050979650505050505050565b6001600160a01b031660009081526003602052604090205460ff1690565b60005460408051600160e31b6227050b028152600160f11b6123ab02600482015290516001600160a01b039092169133918391630138285891602480820192602092909190829003018186803b1580156200291e57600080fd5b505afa15801562002933573d6000803e3d6000fd5b505050506040513d60208110156200294a57600080fd5b50516001600160a01b0316146200299a5760408051600160e51b62461bcd02815260206004820152600e6024820152600080516020620054fd833981519152604482015290519081900360640190fd5b600c5460408051600160e11b6356a6621f0281526001600160c01b0319861660048201526001600160a01b0385811660248301529151919092169163ad4cc43e91604480830192600092919082900301818387803b158015620029fc57600080fd5b505af115801562002a11573d6000803e3d6000fd5b50505050505050565b60005460408051600160e31b6227050b028152600160f11b6123ab02600482015290516001600160a01b039092169133918391630138285891602480820192602092909190829003018186803b15801562002a7457600080fd5b505afa15801562002a89573d6000803e3d6000fd5b505050506040513d602081101562002aa057600080fd5b50516001600160a01b03161462002af05760408051600160e51b62461bcd02815260206004820152600e6024820152600080516020620054fd833981519152604482015290519081900360640190fd5b83821462002afd57600080fd5b60005b8481101562002ccd57600084848381811062002b1857fe5b905060200201356001600160a01b03166001600160a01b031663245691336040518163ffffffff1660e01b815260040160606040518083038186803b15801562002b6157600080fd5b505afa15801562002b76573d6000803e3d6000fd5b505050506040513d606081101562002b8d57600080fd5b50604090810151600c548251600160e01b638c8557d90281526001600160a01b038084166004830152935192945060009390911691638c8557d991602480820192602092909190829003018186803b15801562002be957600080fd5b505afa15801562002bfe573d6000803e3d6000fd5b505050506040513d602081101562002c1557600080fd5b5051604080518082019091529091508087878681811062002c3257fe5b905060200201356001600160a01b03166001600160a01b031681526020018260ff16815250600989898681811062002c6657fe5b905060200201358154811062002c7857fe5b6000918252602091829020835191018054939092015160ff16600160a01b02600160a01b60ff02196001600160a01b039092166001600160a01b03199094169390931716919091179055505060010162002b00565b505050505050565b62002cdf620020cd565b6007546001600160a01b0390811691161462002cfa57600080fd5b600a541562002d0857600080fd5b62002d138262004aaa565b62002d1e8162004aaa565b62002d2d610e10603262004c7f565b62002d3d6201518060c862004c7f565b62002d4e62093a806101f462004c7f565b60005b600a548110156200233557600081815260056020908152604080832083805290915280822080546001600160401b03881667ffffffffffffffff19918216811790925560018452918320805490921617905562002db0908290620036ef565b62002dbd816001620036ef565b60010162002d51565b62002dd133620028a6565b62002ddb57600080fd5b6001600160a01b03831673eeeeeeeeeeeeeeeeeeeeeeeeeeeeeeeeeeeeeeee141562002e51576001600160a01b03861660009081526004602052604090206002015462002e2f908663ffffffff6200499a16565b6001600160a01b03871660009081526004602052604090206002015562002e9c565b6001600160a01b03861660009081526004602052604090206003015462002e7f908663ffffffff6200499a16565b6001600160a01b0387166000908152600460205260409020600301555b6001600160a01b038616600090815260046020908152604080832033845260050190915290205460ff1662002f25576001600160a01b03861660009081526004602081815260408084209283018054600181810183559186528386200180546001600160a01b0319163390811790915585526005909301909152909120805460ff191690911790555b60408051868152602081018690526001600160a01b03858116828401526060820185905260808201849052915133928916917f21c543dcf81b0b2e8184b8fc4a2df6dc8d1d061a049925780b1bd44e5620dcf6919081900360a00190a3505050505050565b60005460408051600160e31b6227050b028152600160f11b6123ab02600482015290516001600160a01b039092169133918391630138285891602480820192602092909190829003018186803b15801562002fe457600080fd5b505afa15801562002ff9573d6000803e3d6000fd5b505050506040513d60208110156200301057600080fd5b50516001600160a01b031614620030605760408051600160e51b62461bcd02815260206004820152600e6024820152600080516020620054fd833981519152604482015290519081900360640190fd5b600160d01b654d4352494e43026001600160c01b0319841614156200308a576002829055620030eb565b600c5460408051600160e01b639dd86e0f0281526001600160c01b0319861660048201526024810185905290516001600160a01b0390921691639dd86e0f9160448082019260009290919082900301818387803b158015620029fc57600080fd5b505050565b60005460408051600160e31b6227050b028152600160f11b6123ab02600482015290516001600160a01b039092169133918391630138285891602480820192602092909190829003018186803b1580156200314a57600080fd5b505afa1580156200315f573d6000803e3d6000fd5b505050506040513d60208110156200317657600080fd5b50516001600160a01b031614620031c65760408051600160e51b62461bcd02815260206004820152600e6024820152600080516020620054fd833981519152604482015290519081900360640190fd5b6001600160401b038216600090815260066020526040808220548151600160e01b6377c24577028152600481018490526024810184905291516001600160a01b039091169283926377c24577926044808301939282900301818387803b1580156200323057600080fd5b505af115801562003245573d6000803e3d6000fd5b5050604080516000815290516001600160a01b03851693507fcea2bc33eef9c2bacf266c2b7b17f8f2db3c22582cb56c00467843e85d98021e92509081900360200190a26001600160a01b0380821660009081526003602052604080822060020154600b548251600160e31b630852cd8d028152600481018390529251919461010090910416926342966c68926024808201939182900301818387803b158015620032ef57600080fd5b505af1158015620018b8573d6000803e3d6000fd5b6200330f33620028a6565b6200331957600080fd5b336001600160a01b03167f79c0645f10d4ba8b751d7f7627d367134cbeb8c553867635a6f249a928fde261868686868660405180806020018581526020018481526020018381526020018281038252878782818152602001925060200280828437600083820152604051601f909101601f19169092018290039850909650505050505050a25050505050565b60005460408051600160e31b6227050b028152600160f11b6123ab02600482015290516001600160a01b039092169133918391630138285891602480820192602092909190829003018186803b158015620033ff57600080fd5b505afa15801562003414573d6000803e3d6000fd5b505050506040513d60208110156200342b57600080fd5b50516001600160a01b0316146200347b5760408051600160e51b62461bcd02815260206004820152600e6024820152600080516020620054fd833981519152604482015290519081900360640190fd5b600b5460ff166200348b57600080fd5b50600b805460ff19169055565b600060608060608060606000806000896001600160a01b0316633bc5de306040518163ffffffff1660e01b815260040160006040518083038186803b158015620034e157600080fd5b505afa158015620034f6573d6000803e3d6000fd5b505050506040513d6000823e601f3d908101601f191682016040526101208110156200352157600080fd5b815160208301805191939283019291600160201b8111156200354257600080fd5b820160208101848111156200355657600080fd5b81518560208202830111600160201b821117156200357357600080fd5b50509291906020018051600160201b8111156200358f57600080fd5b82016020810184811115620035a357600080fd5b81518560208202830111600160201b82111715620035c057600080fd5b50509291906020018051600160201b811115620035dc57600080fd5b82016020810184811115620035f057600080fd5b81518560208202830111600160201b821117156200360d57600080fd5b50509291906020018051600160201b8111156200362957600080fd5b820160208101848111156200363d57600080fd5b81518560208202830111600160201b821117156200365a57600080fd5b50509291906020018051600160201b8111156200367657600080fd5b820160208101848111156200368a57600080fd5b81518560208202830111600160201b82111715620036a757600080fd5b50509291906020018051906020019092919080519060200190929190805190602001909291905050509850985098509850985098509850985098509193959799909294969850565b60008281526005602090815260408083208484529091529020600101546001600160a01b031680156200377257806001600160a01b03166385970c666040518163ffffffff1660e01b8152600401600060405180830381600087803b1580156200375857600080fd5b505af11580156200376d573d6000803e3d6000fd5b505050505b6000838152600560209081526040808320858452909152902054600160401b90046001600160a01b031615620037fa576000838152600560209081526040808320858452909152812054620037d790600160401b90046001600160a01b031662003498565b985060019750620037eb9650505050505050565b811015620037f857600080fd5b505b6000806000600985815481106200380d57fe5b9060005260206000200160000160009054906101000a90046001600160a01b03166001600160a01b031663245691336040518163ffffffff1660e01b815260040160606040518083038186803b1580156200386757600080fd5b505afa1580156200387c573d6000803e3d6000fd5b505050506040513d60608110156200389357600080fd5b5080516020820151604092830151600c548451600160e01b63a2e62045028152945193975091955093506001600160a01b03169163a2e6204591600480830192600092919082900301818387803b158015620038ee57600080fd5b505af115801562003903573d6000803e3d6000fd5b505050506000620039158787620044c7565b90506000600a88815481106200392757fe5b600091825260208083209190910154600c5460408051600160e61b63029cd0fd0281526001600160a01b0389811660048301529151600160401b9094046001600160401b0316965091169263a7343f4092602480840193829003018186803b1580156200399357600080fd5b505afa158015620039a8573d6000803e3d6000fd5b505050506040513d6020811015620039bf57600080fd5b5051905062003a05612710620039f8620039ea6001600160401b038616600263ffffffff62004d5016565b849063ffffffff620047e416565b9063ffffffff62004d5016565b915060006009898154811062003a1757fe5b600091825260208220015460ff600160a01b9091048116925062003a8490891662003a7762003a5b82620039f8886001600160401b038b1663ffffffff620049f816565b856001600160401b0316600a0a6001600160401b031662004dbf565b9063ffffffff620047e416565b9050600062003ad060ff8a1662003a7762003ab482620039f8896001600160401b038c1663ffffffff6200499a16565b866001600160401b0316600a0a6001600160401b031662004dbf565b905062003ae28c8c84848a8d62004dda565b6004600062003af0620020cd565b6001600160a01b031681526020810191909152604001600020600190810180549091019055505050505050505050505050565b62003b2e33620028a6565b62003b3857600080fd5b866001600160a01b0316336001600160a01b03167f9386dbf2923cd63ff717f04d11e68ab0be3cd1bb9d8992fc9c68c0850de7c55c888888888888604051808060200180602001858152602001846001600160a01b03166001600160a01b031681526020018381038352898982818152602001925060200280828437600083820152601f01601f19169091018481038352878152602090810191508890880280828437600083820152604051601f909101601f19169092018290039a509098505050505050505050a350505050505050565b60005460408051600160e31b6227050b028152600160f11b6123ab02600482015290516001600160a01b039092169133918391630138285891602480820192602092909190829003018186803b15801562003c6457600080fd5b505afa15801562003c79573d6000803e3d6000fd5b505050506040513d602081101562003c9057600080fd5b50516001600160a01b03161462003ce05760408051600160e51b62461bcd02815260206004820152600e6024820152600080516020620054fd833981519152604482015290519081900360640190fd5b60095462003cee8462004aaa565b60005b600a5481101562003d445760008181526005602090815260408083208584529091529020805467ffffffffffffffff19166001600160401b03861617905562003d3b8183620036ef565b60010162003cf1565b5050505050565b60005460408051600160e31b6227050b028152600160f11b6123ab02600482015290516001600160a01b039092169133918391630138285891602480820192602092909190829003018186803b15801562003da557600080fd5b505afa15801562003dba573d6000803e3d6000fd5b505050506040513d602081101562003dd157600080fd5b50516001600160a01b03161462003e215760408051600160e51b62461bcd02815260206004820152600e6024820152600080516020620054fd833981519152604482015290519081900360640190fd5b6001600160a01b03821662003e3557600080fd5b60408051600160e11b631b2ce7f30281526001600160a01b03848116600483015291518592831691633659cfe691602480830192600092919082900301818387803b158015620032ef57600080fd5b6000546001600160a01b031681565b60005460408051600160e31b6227050b028152600160f11b6123ab02600482015290516001600160a01b039092169133918391630138285891602480820192602092909190829003018186803b15801562003eed57600080fd5b505afa15801562003f02573d6000803e3d6000fd5b505050506040513d602081101562003f1957600080fd5b50516001600160a01b03161462003f695760408051600160e51b62461bcd02815260206004820152600e6024820152600080516020620054fd833981519152604482015290519081900360640190fd5b42836001600160401b03161162003f7f57600080fd5b600a5462003f8e858462004c7f565b60005b60095481101562002ccd5760008281526005602090815260408083208484529091529020805467ffffffffffffffff19166001600160401b03871617905562003fdb8282620036ef565b60010162003f91565b62003fef33620028a6565b62003ff957600080fd5b600d5460408051600160e31b63104c752702815290516000926001600160a01b031691638263a938916004808301926020929190829003018186803b1580156200404257600080fd5b505afa15801562004057573d6000803e3d6000fd5b505050506040513d60208110156200406e57600080fd5b810190808051906020019092919050505090506040518060a00160405280826001600160401b03168152602001866001600160a01b031681526020018781526020018581526020018481525060036000336001600160a01b03166001600160a01b0316815260200190815260200160002060010160008201518160000160006101000a8154816001600160401b0302191690836001600160401b0316021790555060208201518160000160086101000a8154816001600160a01b0302191690836001600160a01b031602179055506040820151816001015560608201518160020155608082015181600301559050503360066000836001600160401b03166001600160401b0316815260200190815260200160002060006101000a8154816001600160a01b0302191690836001600160a01b03160217905550600d60009054906101000a90046001600160a01b03166001600160a01b03166316fdc34e8b8c8c600a8d8d6040518763ffffffff1660e01b815260040180806020018060200180602001878152602001806020018060200186810386528c818151815260200191508051906020019080838360005b83811015620042365781810151838201526020016200421c565b50505050905090810190601f168015620042645780820380516001836020036101000a031916815260200191505b5086810385528b5181528b516020918201918d019080838360005b83811015620042995781810151838201526020016200427f565b50505050905090810190601f168015620042c75780820380516001836020036101000a031916815260200191505b5086810384528a5181528a516020918201918c019080838360005b83811015620042fc578181015183820152602001620042e2565b50505050905090810190601f1680156200432a5780820380516001836020036101000a031916815260200191505b5086810383528851815288516020918201918a019080838360005b838110156200435f57818101518382015260200162004345565b50505050905090810190601f1680156200438d5780820380516001836020036101000a031916815260200191505b50868103825287518152875160209182019189019080838360005b83811015620043c2578181015183820152602001620043a8565b50505050905090810190601f168015620043f05780820380516001836020036101000a031916815260200191505b509b505050505050505050505050600060405180830381600087803b1580156200441957600080fd5b505af11580156200442e573d6000803e3d6000fd5b5050604080516001600160a01b03891681526001600160401b038516602082015280820186905290513393507ff9f735ef60b717f0b38565eb997a6bf6dd85498122de8b18a1e7c593aba53b8f92509081900360600190a250505050505050505050565b6008546001600160a01b031681565b6001600160a01b0316600090815260046020526040902060038101546002909101549091565b6000828152600560209081526040808320848452909152812054600160401b90046001600160a01b031680156200456857806001600160a01b031663b945b5276040518163ffffffff1660e01b815260040160806040518083038186803b1580156200453257600080fd5b505afa15801562004547573d6000803e3d6000fd5b505050506040513d60808110156200455e57600080fd5b505191506200458e565b60008481526005602090815260408083208684529091529020546001600160401b031691505b6000600a85815481106200459e57fe5b6000918252602090912001546001600160401b039081169150620045cb9084168263ffffffff6200499a16565b42111562004628576000620045f582620039f8426001600160401b03881663ffffffff620049f816565b9050620046246200460d828463ffffffff620047e416565b6001600160401b0386169063ffffffff6200499a16565b9350505b505092915050565b6000806004600062004641620020cd565b6001600160a01b031681526020810191909152604001600090812060049081015492508291908162004672620020cd565b6001600160a01b0316815260208101919091526040016000205493505b82841080156200469e57508481105b15620047a757600060046000620046b4620020cd565b6001600160a01b03166001600160a01b031681526020019081526020016000206004018581548110620046e357fe5b6000918252602090912001546001600160a01b0316631ec0fd5062004707620020cd565b6040518263ffffffff1660e01b815260040180826001600160a01b03166001600160a01b03168152602001915050602060405180830381600087803b1580156200475057600080fd5b505af115801562004765573d6000803e3d6000fd5b505050506040513d60208110156200477c57600080fd5b505111156200478e576001016200479b565b828214156200479b578391505b6001909301926200468f565b82821415620047b4578391505b8160046000620047c3620020cd565b6001600160a01b031681526020810191909152604001600020555050505050565b600082620047f55750600062004848565b828202828482816200480357fe5b04146200484557604051600160e51b62461bcd028152600401808060200182810382526021815260200180620054bb6021913960400191505060405180910390fd5b90505b92915050565b8015620030eb576001600160a01b03831673eeeeeeeeeeeeeeeeeeeeeeeeeeeeeeeeeeeeeeee1415620048b9576040516001600160a01b0383169082156108fc029083906000818181858888f19350505050158015620048b2573d6000803e3d6000fd5b50620030eb565b826001600160a01b031663a9059cbb83836040518363ffffffff1660e01b815260040180836001600160a01b03166001600160a01b0316815260200182815260200192505050602060405180830381600087803b1580156200491a57600080fd5b505af11580156200492f573d6000803e3d6000fd5b505050506040513d60208110156200494657600080fd5b5051620030eb57600080fd5b60008082604051620049649062004fc0565b6001600160a01b03909116815260405190819003602001906000f08015801562004992573d6000803e3d6000fd5b509392505050565b600082820183811015620048455760408051600160e51b62461bcd02815260206004820152601b60248201527f536166654d6174683a206164646974696f6e206f766572666c6f770000000000604482015290519081900360640190fd5b60008282111562004a535760408051600160e51b62461bcd02815260206004820152601e60248201527f536166654d6174683a207375627472616374696f6e206f766572666c6f770000604482015290519081900360640190fd5b50900390565b604080517f19457468657265756d205369676e6564204d6573736167653a0a333200000000602080830191909152603c8083019490945282518083039094018452605c909101909152815191012090565b60006009805490509050600080836001600160a01b031663245691336040518163ffffffff1660e01b815260040160606040518083038186803b15801562004af157600080fd5b505afa15801562004b06573d6000803e3d6000fd5b505050506040513d606081101562004b1d57600080fd5b50602080820151604092830151600c548451600160e01b638c8557d90281526001600160a01b03808416600483015295519397509195506000941692638c8557d992602480840193829003018186803b15801562004b7a57600080fd5b505afa15801562004b8f573d6000803e3d6000fd5b505050506040513d602081101562004ba657600080fd5b50516040805180820182526001600160a01b0380891680835260ff80861660208581019182526009805460018101825560009190915295517f6e1540171b6c0c960b71a7020d9f60077f6af931a8bbf590da0223dacf75c7af90960180549251909316600160a01b02600160a01b60ff02199686166001600160a01b03199093169290921795909516179055835190815290861691810191909152808201869052905191925085917f2b4f53869349b64d9283b604a24c045bc1090a455b336db294022b8f72ca03449181900360600190a25050505050565b600a80546040805180820182526001600160401b03808716808352868216602080850182815260018801895560009890985293517fc65a7bb8d6351c1cf70c95a316cc6a92839c986682d98bc35f958f4883f9d2a88701805498518516600160401b026fffffffffffffffff0000000000000000199290951667ffffffffffffffff199099169890981716929092179095558251948552908401528051919283927f2d43356dee5a2f7341d0dc32f46150d4778b48cce094891980e5719a1961f218929181900390910190a2505050565b600080821162004daa5760408051600160e51b62461bcd02815260206004820152601a60248201527f536166654d6174683a206469766973696f6e206279207a65726f000000000000604482015290519081900360640190fd5b600082848162004db657fe5b04949350505050565b600081826001848601038162004dd157fe5b04029392505050565b600b5460ff161562004deb57600080fd5b62004df562004fce565b600a878154811062004e0357fe5b60009182526020808320604080518082019091529201546001600160401b038082168452600160401b90910416908201526009805491935062004e66918990811062004e4b57fe5b6000918252602090912001546001600160a01b031662004952565b6001600160a01b038116600081815260036020526040808220805460ff1916600117905585518151600160e11b6335ac967b0281526001600160401b03808b1660048301529182166024820152818c166044820152908a16606482015290519394509192636b592cf692608480820193929182900301818387803b15801562004eee57600080fd5b505af115801562004f03573d6000803e3d6000fd5b5050604080518681526001600160401b038816602082015281518c94506001600160a01b03861693507f82762a7cb0b53c41fd44ceab21fd458f9209c98ede6ee9c622136b2a9b550f22929181900390910190a36000978852600560209081526040808a20988a529790529590962080546001600160a01b03968716600160401b90810268010000000000000000600160e01b03198316178355600190920180546001600160a01b03191692909104909616179094555050505050565b6104d58062004fe683390190565b60408051808201909152600080825260208201529056fe608060405234801561001057600080fd5b506040516020806104d58339810180604052602081101561003057600080fd5b505161004233610057602090811b901c565b6100518161008c60201b60201c565b50610149565b604080517f6f72672e676f76626c6f636b732e70726f78792e6f776e6572000000000000008152905190819003601901902055565b600061009c61010460201b60201c565b9050816001600160a01b0316816001600160a01b031614156100bd57600080fd5b6100cc8261012760201b60201c565b6040516001600160a01b038316907fbc7cd75a20ee27fd9adebab32041f755214dbc6bffa90cc0225b39da2e5c2d3b90600090a25050565b60008060405180806104b360229139604051908190036022019020549392505050565b600060405180806104b360229139604051908190036022019020929092555050565b61035b806101586000396000f3fe60806040526004361061003f5760003560e01c8063025313a2146100835780633659cfe6146100b45780635c60da1b146100e9578063f1739cae146100fe575b6000610049610131565b90506001600160a01b03811661005e57600080fd5b60405136600082376000803683855af43d806000843e81801561007f578184f35b8184fd5b34801561008f57600080fd5b50610098610154565b604080516001600160a01b039092168252519081900360200190f35b3480156100c057600080fd5b506100e7600480360360208110156100d757600080fd5b50356001600160a01b031661018a565b005b3480156100f557600080fd5b50610098610131565b34801561010a57600080fd5b506100e76004803603602081101561012157600080fd5b50356001600160a01b03166101bb565b600080604051808061030e60229139604051908190036022019020549392505050565b604080517f6f72672e676f76626c6f636b732e70726f78792e6f776e657200000000000000815290519081900360190190205490565b610192610154565b6001600160a01b0316336001600160a01b0316146101af57600080fd5b6101b88161024a565b50565b6101c3610154565b6001600160a01b0316336001600160a01b0316146101e057600080fd5b6001600160a01b0381166101f357600080fd5b6101fc816102b6565b7f5a3e66efaa1e445ebd894728a69d6959842ea1e97bd79b892797106e270efcd9610225610154565b604080516001600160a01b03928316815291841660208301528051918290030190a150565b6000610254610131565b9050816001600160a01b0316816001600160a01b0316141561027557600080fd5b61027e826102eb565b6040516001600160a01b038316907fbc7cd75a20ee27fd9adebab32041f755214dbc6bffa90cc0225b39da2e5c2d3b90600090a25050565b604080517f6f72672e676f76626c6f636b732e70726f78792e6f776e6572000000000000008152905190819003601901902055565b6000604051808061030e6022913960405190819003602201902092909255505056fe6f72672e676f76626c6f636b732e70726f78792e696d706c656d656e746174696f6ea165627a7a723058200f44526e9d4e51a63c577631e6bccfb5df47ccf37f0e587a9bfe8cc59e5699ce00296f72672e676f76626c6f636b732e70726f78792e696d706c656d656e746174696f6e536166654d6174683a206d756c7469706c69636174696f6e206f766572666c6f775369676e657220616e64207369676e617475726520646f206e6f74206d617463684e6f7420617574686f72697a6564000000000000000000000000000000000000a165627a7a72305820777996e4ace192072fbd022a692a6453b6ca26c643ec8ea36b31e1782b2693840029",
  "source": "pragma solidity 0.5.7;\n\nimport \"../MarketRegistry.sol\";\n\ncontract MockMarketRegistry is MarketRegistry {\n\n  function transferPlot(address payable _to, uint _amount) external {\n    _transferAsset(address(plotToken), _to, _amount);\n  }\n}",
  "sourcePath": "/home/madan/Documents/PlotX/PlotxContract/contracts/mock/MockMarketRegistry.sol",
  "compiler": {
    "name": "solc",
    "version": "0.5.7+commit.6da8b019.Emscripten.clang"
  },
  "schemaVersion": "3.3.2",
  "updatedAt": "2020-12-10T08:39:39.278Z",
  "networkType": "ethereum",
  "devdoc": {
    "methods": {
      "addInitialMarketTypesAndStart(uint64,address,address)": {
        "details": "Start the initial market.\r"
      },
      "addNewMarketCurrency(address,uint64)": {
        "details": "Add new market currency.\r"
      },
      "addNewMarketType(uint64,uint64,uint64)": {
        "details": "Add new market type.\r",
        "params": {
          "_marketStartTime": "The time at which market will create.\r",
          "_optionRangePerc": "Option range percent of neutral min, max options (raised by 2 decimals)\r",
          "_predictionTime": "The time duration of market.\r"
        }
      },
      "burnDisputedProposalTokens(uint256)": {
        "details": "Burns the tokens of member who raised the dispute, if dispute is rejected.\r",
        "params": {
          "_proposalId": "Id of dispute resolution proposal\r"
        }
      },
      "callClaimedEvent(address,uint256[],address[],uint256,address)": {
        "details": "Emits the claimed event.\r",
        "params": {
          "_reward": "The reward which is claimed by user.\r",
          "_user": "The address who claim their reward.\r",
          "incentiveToken": "The incentive tokens of user.\r",
          "incentives": "The incentives of user.\r",
          "predictionAssets": "The prediction assets of user.\r"
        }
      },
      "callMarketResultEvent(uint256[],uint256,uint256,uint256)": {
        "details": "Emits the MarketResult event.\r",
        "params": {
          "_totalReward": "The amount of reward to be distribute.\r",
          "closeValue": "The closing value of the market currency.\r",
          "winningOption": "The winning option of the market.\r"
        }
      },
      "claimCreationReward()": {
        "details": "function to reward user for initiating market creation calls\r"
      },
      "claimPendingReturn(uint256)": {
        "details": "Claim the pending return of the market.\r",
        "params": {
          "maxRecords": "Maximum number of records to claim reward for\r"
        }
      },
      "createGovernanceProposal(string,string,string,bytes,uint256,address,uint256,uint256,uint256)": {
        "details": "Create proposal if user wants to raise the dispute.\r",
        "params": {
          "_stakeForDispute": "The token staked to raise the diospute.\r",
          "_user": "The address who raises the dispute.\r",
          "action": "The encoded action for solution.\r",
          "description": "The description of dispute.\r",
          "proposalTitle": "The title of proposal created by user.\r",
          "solutionHash": "The ipfs solution hash.\r"
        }
      },
      "createMarket(uint256,uint256)": {
        "details": "Creates the new market\r",
        "params": {
          "_marketCurrencyIndex": "the index of market currency.\r",
          "_marketType": "The type of the market.\r"
        }
      },
      "executeMetaTransaction(address,bytes,bytes32,bytes32,uint8)": {
        "params": {
          "functionSignature": "Signature of the actual function to be called via meta transaction",
          "sigR": "R part of the signature",
          "sigS": "S part of the signature",
          "sigV": "V part of the signature",
          "userAddress": "Address of user trying to do meta transaction"
        }
      },
      "getMarketDetails(address)": {
        "details": "Gets the market details of the specified address.\r",
        "params": {
          "_marketAdd": "The market address to query the details of market.\r"
        },
        "return": "_feedsource bytes32 representing the currency or stock name of the market.\rminvalue uint[] memory representing the minimum range of all the options of the market.\rmaxvalue uint[] memory representing the maximum range of all the options of the market.\roptionprice uint[] memory representing the option price of each option ranges of the market.\r_ethStaked uint[] memory representing the ether staked on each option ranges of the market.\r_plotStaked uint[] memory representing the plot staked on each option ranges of the market.\r_predictionType uint representing the type of market.\r_expireTime uint representing the expire time of the market.\r_predictionStatus uint representing the status of the market.\r"
      },
      "getMarketDetailsUser(address,uint256,uint256)": {
        "details": "Gets the market details of the specified user address.\r",
        "params": {
          "fromIndex": "The index to query the details from.\r",
          "toIndex": "The index to query the details to\r",
          "user": "The address to query the details of market.\r"
        },
        "return": "_market address[] memory representing the address of the market.\r_winnigOption uint256[] memory representing the winning option range of the market.\r"
      },
      "getOpenMarkets()": {
        "details": "Gets the addresses of open markets.\r",
        "return": "_openMarkets address[] memory representing the open market addresses.\r_marketTypes uint256[] memory representing the open market types.\r"
      },
      "getTotalAssetStakedByUser(address)": {
        "details": "Get total assets staked by user in PlotX platform\r",
        "return": "_plotStaked Total PLOT staked by user\r_ethStaked Total ETH staked by user\r"
      },
      "getUintParameters(bytes8)": {
        "details": "Get uint config parameters\r"
      },
      "initiate(address,address,address,address[])": {
        "details": "Initialize the PlotX MarketRegistry.\r",
        "params": {
          "_defaultAddress": "Address authorized to start initial markets\r",
          "_marketUtility": "The address of market config.\r",
          "_plotToken": "The instance of PlotX token.\r"
        }
      },
      "isAuthorizedToGovern(address)": {
        "details": "checks if an address is authorized to govern"
      },
      "isMarket(address)": {
        "details": "Checks if given addres is valid market address.\r"
      },
      "pauseMarketCreation()": {
        "details": "Updates Flag to pause creation of market.\r"
      },
      "resolveDispute(address,uint256)": {
        "details": "Resolve the dispute if wrong value passed at the time of market result declaration.\r",
        "params": {
          "_marketAddress": "The address specify the market.\r",
          "_result": "The final result of the market.\r"
        }
      },
      "resumeMarketCreation()": {
        "details": "Updates Flag to resume creation of market.\r"
      },
      "setMasterAddress()": {
        "details": "Changes the master address and update it's instance\r"
      },
      "setUserGlobalPredictionData(address,uint256,uint256,address,uint256,uint256)": {
        "details": "Emits the PlacePrediction event and sets the user data.\r",
        "params": {
          "_leverage": "The leverage selected by user at the time of place prediction.\r",
          "_prediction": "The option range on which user placed prediction.\r",
          "_predictionAsset": "The prediction assets user will get.\r",
          "_predictionPoints": "The positions user will get.\r",
          "_user": "The address who placed prediction.\r",
          "_value": "The amount of ether user staked.\r"
        }
      },
      "transferAssets(address,address,uint256)": {
        "details": "Transfer `_amount` number of market registry assets contract to `_to` address\r"
      },
      "updateMarketImplementations(uint256[],address[])": {
        "details": "Update the implementations of the market.\r"
      },
      "upgradeContractImplementation(address,address)": {
        "details": "Upgrade the implementations of the contract.\r",
        "params": {
          "_newImplementation": "Address of new implementation contract\r",
          "_proxyAddress": "the proxy address.\r"
        }
      }
    }
  },
  "userdoc": {
    "methods": {
      "executeMetaTransaction(address,bytes,bytes32,bytes32,uint8)": {
        "notice": "Main function to be called when user wants to execute meta transaction. The actual function to be called should be passed as param with name functionSignature Here the basic signature recovery is being used. Signature is expected to be generated using personal_sign method."
      }
    }
  }
}