{
  "contractName": "MockMemberRoles",
  "abi": [
    {
      "constant": true,
      "inputs": [
        {
          "name": "_memberRoleId",
          "type": "uint256"
        }
      ],
      "name": "authorized",
      "outputs": [
        {
          "name": "",
          "type": "address"
        }
      ],
      "payable": false,
      "stateMutability": "view",
      "type": "function"
    },
    {
      "constant": true,
      "inputs": [
        {
          "name": "_memberRoleId",
          "type": "uint256"
        }
      ],
      "name": "numberOfMembers",
      "outputs": [
        {
          "name": "",
          "type": "uint256"
        }
      ],
      "payable": false,
      "stateMutability": "view",
      "type": "function"
    },
    {
      "constant": true,
      "inputs": [
        {
          "name": "_toCheck",
          "type": "address"
        }
      ],
      "name": "isAuthorizedToGovern",
      "outputs": [
        {
          "name": "",
          "type": "bool"
        }
      ],
      "payable": false,
      "stateMutability": "view",
      "type": "function"
    },
    {
      "constant": false,
      "inputs": [
        {
          "name": "_roleName",
          "type": "bytes32"
        },
        {
          "name": "_roleDescription",
          "type": "string"
        },
        {
          "name": "_authorized",
          "type": "address"
        }
      ],
      "name": "addRole",
      "outputs": [],
      "payable": false,
      "stateMutability": "nonpayable",
      "type": "function"
    },
    {
      "constant": false,
      "inputs": [
        {
          "name": "_memberAddress",
          "type": "address"
        },
        {
          "name": "_roleId",
          "type": "uint256"
        },
        {
          "name": "_active",
          "type": "bool"
        }
      ],
      "name": "updateRole",
      "outputs": [],
      "payable": false,
      "stateMutability": "nonpayable",
      "type": "function"
    },
    {
      "constant": false,
      "inputs": [
        {
          "name": "_initiator",
          "type": "address"
        }
      ],
      "name": "setInititorAddress",
      "outputs": [],
      "payable": false,
      "stateMutability": "nonpayable",
      "type": "function"
    },
    {
      "constant": false,
      "inputs": [],
      "name": "setMasterAddress",
      "outputs": [],
      "payable": false,
      "stateMutability": "nonpayable",
      "type": "function"
    },
    {
      "constant": true,
      "inputs": [
        {
          "name": "_memberAddress",
          "type": "address"
        },
        {
          "name": "_roleId",
          "type": "uint256"
        }
      ],
      "name": "checkRole",
      "outputs": [
        {
          "name": "",
          "type": "bool"
        }
      ],
      "payable": false,
      "stateMutability": "view",
      "type": "function"
    },
    {
      "constant": true,
      "inputs": [
        {
          "name": "_memberRoleId",
          "type": "uint256"
        }
      ],
      "name": "members",
      "outputs": [
        {
          "name": "",
          "type": "uint256"
        },
        {
          "name": "memberArray",
          "type": "address[]"
        }
      ],
      "payable": false,
      "stateMutability": "view",
      "type": "function"
    },
    {
      "constant": true,
      "inputs": [
        {
          "name": "code",
          "type": "bytes8"
        }
      ],
      "name": "getUintParameters",
      "outputs": [
        {
          "name": "codeVal",
          "type": "bytes8"
        },
        {
          "name": "val",
          "type": "uint256"
        }
      ],
      "payable": false,
      "stateMutability": "view",
      "type": "function"
    },
    {
      "constant": true,
      "inputs": [],
      "name": "getMemberLengthForAllRoles",
      "outputs": [
        {
          "name": "totalMembers",
          "type": "uint256[]"
        }
      ],
      "payable": false,
      "stateMutability": "view",
      "type": "function"
    },
    {
      "constant": true,
      "inputs": [],
      "name": "totalRoles",
      "outputs": [
        {
          "name": "",
          "type": "uint256"
        }
      ],
      "payable": false,
      "stateMutability": "view",
      "type": "function"
    },
    {
      "constant": true,
      "inputs": [
        {
          "name": "_memberAddress",
          "type": "address"
        }
      ],
      "name": "roles",
      "outputs": [
        {
          "name": "",
          "type": "uint256[]"
        }
      ],
      "payable": false,
      "stateMutability": "view",
      "type": "function"
    },
    {
      "constant": false,
      "inputs": [
        {
          "name": "code",
          "type": "bytes8"
        },
        {
          "name": "val",
          "type": "uint256"
        }
      ],
      "name": "updateUintParameters",
      "outputs": [],
      "payable": false,
      "stateMutability": "nonpayable",
      "type": "function"
    },
    {
      "constant": false,
      "inputs": [
        {
          "name": "_roleId",
          "type": "uint256"
        },
        {
          "name": "_newAuthorized",
          "type": "address"
        }
      ],
      "name": "changeAuthorized",
      "outputs": [],
      "payable": false,
      "stateMutability": "nonpayable",
      "type": "function"
    },
    {
      "constant": false,
      "inputs": [
        {
          "name": "_newABAddress",
          "type": "address"
        },
        {
          "name": "_removeAB",
          "type": "address"
        }
      ],
      "name": "swapABMember",
      "outputs": [],
      "payable": false,
      "stateMutability": "nonpayable",
      "type": "function"
    },
    {
      "constant": false,
      "inputs": [
        {
          "name": "_abArray",
          "type": "address[]"
        }
      ],
      "name": "memberRolesInitiate",
      "outputs": [],
      "payable": false,
      "stateMutability": "nonpayable",
      "type": "function"
    },
    {
      "constant": true,
      "inputs": [],
      "name": "masterAddress",
      "outputs": [
        {
          "name": "",
          "type": "address"
        }
      ],
      "payable": false,
      "stateMutability": "view",
      "type": "function"
    },
    {
      "anonymous": false,
      "inputs": [
        {
          "indexed": true,
          "name": "roleId",
          "type": "uint256"
        },
        {
          "indexed": false,
          "name": "roleName",
          "type": "bytes32"
        },
        {
          "indexed": false,
          "name": "roleDescription",
          "type": "string"
        }
      ],
      "name": "MemberRole",
      "type": "event"
    },
    {
      "constant": false,
      "inputs": [
        {
          "name": "abArray",
          "type": "address[]"
        }
      ],
      "name": "addInitialABMembers",
      "outputs": [],
      "payable": false,
      "stateMutability": "nonpayable",
      "type": "function"
    }
  ],
  "bytecode": "0x608060405234801561001057600080fd5b506120f4806100206000396000f3fe608060405234801561001057600080fd5b50600436106101215760003560e01c80636122f840116100ad5780639dd86e0f116100715780639dd86e0f146104c9578063aa561f9d146104f6578063c578f23014610522578063cb41e01b14610550578063d365a08e146105c057610121565b80636122f84014610388578063648edd9c146103d35780636d1c31d214610443578063790e118c1461049b57806399374642146104a357610121565b80632f473021116100f45780632f4730211461028257806343b20ff6146102b65780634b6199b0146102dc578063505ef22f146102e45780635daf08ca1461031057610121565b80630d48669a146101265780630dc6f8471461015f57806322ce72541461018e5780632dc4bdca146101c8575b600080fd5b6101436004803603602081101561013c57600080fd5b50356105c8565b604080516001600160a01b039092168252519081900360200190f35b61017c6004803603602081101561017557600080fd5b50356105fa565b60408051918252519081900360200190f35b6101b4600480360360208110156101a457600080fd5b50356001600160a01b0316610622565b604080519115158252519081900360200190f35b610280600480360360608110156101de57600080fd5b8135919081019060408101602082013564010000000081111561020057600080fd5b82018360208201111561021257600080fd5b8035906020019184600183028401116401000000008311171561023457600080fd5b91908080601f016020809104026020016040519081016040528093929190818152602001838380828437600092019190915250929550505090356001600160a01b031691506106ba9050565b005b6102806004803603606081101561029857600080fd5b506001600160a01b03813516906020810135906040013515156107a2565b610280600480360360208110156102cc57600080fd5b50356001600160a01b03166108b2565b6102806109fb565b6101b4600480360360408110156102fa57600080fd5b506001600160a01b038135169060200135610bf0565b61032d6004803603602081101561032657600080fd5b5035610db7565b6040518083815260200180602001828103825283818151815260200191508051906020019060200280838360005b8381101561037357818101518382015260200161035b565b50505050905001935050505060405180910390f35b6103af6004803603602081101561039e57600080fd5b50356001600160c01b031916610e40565b604080516001600160c01b0319909316835260208301919091528051918290030190f35b610280600480360360208110156103e957600080fd5b81019060208101813564010000000081111561040457600080fd5b82018360208201111561041657600080fd5b8035906020019184602083028401116401000000008311171561043857600080fd5b509092509050610ea0565b61044b610fd1565b60408051602080825283518183015283519192839290830191858101910280838360005b8381101561048757818101518382015260200161046f565b505050509050019250505060405180910390f35b61017c61103b565b61044b600480360360208110156104b957600080fd5b50356001600160a01b0316611042565b610280600480360360408110156104df57600080fd5b506001600160c01b0319813516906020013561126b565b6102806004803603604081101561050c57600080fd5b50803590602001356001600160a01b0316611396565b6102806004803603604081101561053857600080fd5b506001600160a01b03813581169160200135166114e3565b6102806004803603602081101561056657600080fd5b81019060208101813564010000000081111561058157600080fd5b82018360208201111561059357600080fd5b803590602001918460208302840111640100000000831117156105b557600080fd5b509092509050611601565b6101436116b4565b6000600282815481106105d757fe5b60009182526020909120600490910201600301546001600160a01b031692915050565b60006002828154811061060957fe5b9060005260206000209060040201600001549050919050565b6000805460408051600160e31b6227050b028152600160f11b6123ab02600482015290516001600160a01b03928316928516918391630138285891602480820192602092909190829003018186803b15801561067d57600080fd5b505afa158015610691573d6000803e3d6000fd5b505050506040513d60208110156106a757600080fd5b50516001600160a01b0316149392505050565b60005460408051600160e31b6227050b028152600160f11b6123ab02600482015290516001600160a01b039092169133918391630138285891602480820192602092909190829003018186803b15801561071357600080fd5b505afa158015610727573d6000803e3d6000fd5b505050506040513d602081101561073d57600080fd5b50516001600160a01b0316146107915760408051600160e51b62461bcd02815260206004820152600e6024820152600160921b6d139bdd08185d5d1a1bdc9a5e995902604482015290519081900360640190fd5b61079c8484846116c3565b50505050565b8160006001600160a01b0316600282815481106107bb57fe5b60009182526020909120600360049092020101546001600160a01b03161461085657600281815481106107ea57fe5b60009182526020909120600490910201600301546001600160a01b031633146108515760408051600160e51b62461bcd02815260206004820152600e6024820152600160921b6d139bdd08185d5d1a1bdc9a5e995902604482015290519081900360640190fd5b6108a7565b61085f33610622565b6108a75760408051600160e51b62461bcd02815260206004820152600e6024820152600160921b6d139bdd08105d5d1a1bdc9a5e995902604482015290519081900360640190fd5b61079c848484611816565b6000309050806001600160a01b031663025313a26040518163ffffffff1660e01b815260040160206040518083038186803b1580156108f057600080fd5b505afa158015610904573d6000803e3d6000fd5b505050506040513d602081101561091a57600080fd5b50516001600160a01b0316331461097b5760408051600160e51b62461bcd02815260206004820152601a60248201527f53656e646572206973206e6f742070726f7879206f776e65722e000000000000604482015290519081900360640190fd5b60035461010090046001600160a01b0316156109d25760408051600160e51b62461bcd02815260206004820152600b6024820152600160aa1b6a105b1c9958591e4814d95d02604482015290519081900360640190fd5b50600380546001600160a01b0390921661010002610100600160a81b0319909216919091179055565b6000309050806001600160a01b031663025313a26040518163ffffffff1660e01b815260040160206040518083038186803b158015610a3957600080fd5b505afa158015610a4d573d6000803e3d6000fd5b505050506040513d6020811015610a6357600080fd5b50516001600160a01b03163314610ac45760408051600160e51b62461bcd02815260206004820152601a60248201527f53656e646572206973206e6f742070726f7879206f776e65722e000000000000604482015290519081900360640190fd5b6000546001600160a01b031615610b255760408051600160e51b62461bcd02815260206004820152601a60248201527f4d6173746572206164647265737320616c726561647920736574000000000000604482015290519081900360640190fd5b600080546001600160a01b03191633179081905560408051600160e31b6227050b028152600160f01b61544302600482015290516001600160a01b03929092169182916301382858916024808301926020929190829003018186803b158015610b8d57600080fd5b505afa158015610ba1573d6000803e3d6000fd5b505050506040513d6020811015610bb757600080fd5b5051600180546001600160a01b0319166001600160a01b039092169190911790555050681b1ae4d6e2ef5000006004556213c680600555565b600081610bff57506001610db1565b6002821415610c9b5760015460408051600160e11b63258770150281526001600160a01b03868116600483015291516000939290921691634b0ee02a91602480820192602092909190829003018186803b158015610c5c57600080fd5b505afa158015610c70573d6000803e3d6000fd5b505050506040513d6020811015610c8657600080fd5b50511115610c9657506001610db1565b610dad565b6003821415610d67576004546001546005546001600160a01b039091169063179e91f1908690610cd1904263ffffffff611c5a16565b6040518363ffffffff1660e01b815260040180836001600160a01b03166001600160a01b0316815260200180600160f11b612229028152506020018281526020019250505060206040518083038186803b158015610d2e57600080fd5b505afa158015610d42573d6000803e3d6000fd5b505050506040513d6020811015610d5857600080fd5b505110610c9657506001610db1565b600060028381548110610d7657fe5b600091825260208083206001600160a01b0388168452600160049093020191909101905260409020541115610dad57506001610db1565b5060005b92915050565b600060608260028481548110610dc957fe5b906000526020600020906004020160020180805480602002602001604051908101604052809291908181526020018280548015610e2f57602002820191906000526020600020905b81546001600160a01b03168152600190910190602001808311610e11575b50505050509050915091505b915091565b806000600160c11b6726a72627a1a5a229026001600160c01b031983161415610e6c5750600454610e3b565b600160d11b652a2627a1a229026001600160c01b031984161415610e3b576201518060055481610e9857fe5b049050915091565b610eaa60016105fa565b600114610f015760408051600160e51b62461bcd02815260206004820152601460248201527f416c726561647920696e697469616c697a656421000000000000000000000000604482015290519081900360640190fd5b60005b81811015610fcc57610f3d838383818110610f1b57fe5b905060200201356001600160a01b031660026003811115610f3857fe5b610bf0565b610f915760408051600160e51b62461bcd02815260206004820152601260248201527f6e6f74206120746f6b656e20686f6c6465720000000000000000000000000000604482015290519081900360640190fd5b610fc4838383818110610fa057fe5b905060200201356001600160a01b031660016003811115610fbd57fe5b6001611816565b600101610f04565b505050565b6002546040805182815260208084028201019091526060918015610fff578160200160208202803883390190505b50905060005b60025481101561103757611018816105fa565b82828151811061102457fe5b6020908102919091010152600101611005565b5090565b6002545b90565b600254604080518281526020808402820101909152606091908290828015611074578160200160208202803883390190505b509050600060015b838110156110e95760006002828154811061109357fe5b600091825260208083206001600160a01b038b1684526001600490930201919091019052604090205411156110e157808383815181106110cf57fe5b60209081029190910101526001909101905b60010161107c565b5060015460408051600160e11b63258770150281526001600160a01b03888116600483015291516000939290921691634b0ee02a91602480820192602092909190829003018186803b15801561113e57600080fd5b505afa158015611152573d6000803e3d6000fd5b505050506040513d602081101561116857600080fd5b5051111561118d57600282828151811061117e57fe5b60209081029190910101526001015b6004546001546005546001600160a01b039091169063179e91f19088906111ba904263ffffffff611c5a16565b6040518363ffffffff1660e01b815260040180836001600160a01b03166001600160a01b0316815260200180600160f11b612229028152506020018281526020019250505060206040518083038186803b15801561121757600080fd5b505afa15801561122b573d6000803e3d6000fd5b505050506040513d602081101561124157600080fd5b50511061126357600382828151811061125657fe5b6020026020010181815250505b509392505050565b60005460408051600160e31b6227050b028152600160f11b6123ab02600482015290516001600160a01b039092169133918391630138285891602480820192602092909190829003018186803b1580156112c457600080fd5b505afa1580156112d8573d6000803e3d6000fd5b505050506040513d60208110156112ee57600080fd5b50516001600160a01b0316146113425760408051600160e51b62461bcd02815260206004820152600e6024820152600160921b6d139bdd08185d5d1a1bdc9a5e995902604482015290519081900360640190fd5b600160c11b6726a72627a1a5a229026001600160c01b03198416141561136c576004829055610fcc565b600160d11b652a2627a1a229026001600160c01b031984161415610fcc5750620151800260055550565b8160006001600160a01b0316600282815481106113af57fe5b60009182526020909120600360049092020101546001600160a01b03161461144a57600281815481106113de57fe5b60009182526020909120600490910201600301546001600160a01b031633146114455760408051600160e51b62461bcd02815260206004820152600e6024820152600160921b6d139bdd08185d5d1a1bdc9a5e995902604482015290519081900360640190fd5b61149b565b61145333610622565b61149b5760408051600160e51b62461bcd02815260206004820152600e6024820152600160921b6d139bdd08105d5d1a1bdc9a5e995902604482015290519081900360640190fd5b81600284815481106114a957fe5b906000526020600020906004020160030160006101000a8154816001600160a01b0302191690836001600160a01b03160217905550505050565b600160006001600160a01b0316600282815481106114fd57fe5b60009182526020909120600360049092020101546001600160a01b031614611598576002818154811061152c57fe5b60009182526020909120600490910201600301546001600160a01b031633146115935760408051600160e51b62461bcd02815260206004820152600e6024820152600160921b6d139bdd08185d5d1a1bdc9a5e995902604482015290519081900360640190fd5b6115e9565b6115a133610622565b6115e95760408051600160e51b62461bcd02815260206004820152600e6024820152600160921b6d139bdd08105d5d1a1bdc9a5e995902604482015290519081900360640190fd5b6115f4836001610fbd565b610fcc8260016000611816565b60035461010090046001600160a01b0316331461161d57600080fd5b60035460ff16156116785760408051600160e51b62461bcd02815260206004820152601360248201527f416c726561647920636f6e737472756374656400000000000000000000000000604482015290519081900360640190fd5b611680611cbe565b60005b818110156116a25761169a838383818110610fa057fe5b600101611683565b50506003805460ff1916600117905550565b6000546001600160a01b031681565b6002805490507fe2981862bbf692aa30ba39d4eca9c69e5dcebf3eae5fb93332940c23c1c4c3c584846040518083815260200180602001828103825283818151815260200191508051906020019080838360005b8381101561172f578181015183820152602001611717565b50505050905090810190601f16801561175c5780820380516001836020036101000a031916815260200191505b50935050505060405180910390a260408051606081018252600081528151600180825281840190935260029260208301919081602001602082028038833950505081526001600160a01b038416602091820152825460018101808555600094855293829020835160049092020190815582820151805191926117e692600285019290910190611e2e565b5060409190910151600390910180546001600160a01b0319166001600160a01b0390921691909117905550505050565b60028214158015611828575060038214155b61186657604051600160e51b62461bcd028152600401808060200182810382526031815260200180611f336031913960400191505060405180910390fd5b80156119e7576002828154811061187957fe5b600091825260208083206001600160a01b038716845260016004909302019190910190526040902054156118f75760408051600160e51b62461bcd02815260206004820152600e60248201527f616c726561647920616374697665000000000000000000000000000000000000604482015290519081900360640190fd5b6119206002838154811061190757fe5b9060005260206000209060040201600001546001611c5a565b6002838154811061192d57fe5b6000918252602090912060049091020155600280548390811061194c57fe5b9060005260206000209060040201600201805490506002838154811061196e57fe5b600091825260208083206001600160a01b03881684526001600490930201919091019052604090205560028054839081106119a557fe5b60009182526020808320600492909202909101600201805460018101825590835291200180546001600160a01b0319166001600160a01b038516179055610fcc565b6000600283815481106119f657fe5b600091825260208083206001600160a01b03881684526001600490930201919091019052604090205411611a645760408051600160e51b62461bcd02815260206004820152600a6024820152600160b01b696e6f742061637469766502604482015290519081900360640190fd5b600060028381548110611a7357fe5b90600052602060002090600402016001016000856001600160a01b03166001600160a01b03168152602001908152602001600020549050600060028481548110611ab957fe5b906000526020600020906004020160020160028581548110611ad757fe5b90600052602060002090600402016000015481548110611af357fe5b600091825260209091200154600280546001600160a01b039092169250839186908110611b1c57fe5b600091825260208083206001600160a01b03861684526001600490930201919091019052604090205560028054611b71919086908110611b5857fe5b9060005260206000209060040201600001546001611dce565b60028581548110611b7e57fe5b9060005260206000209060040201600001819055508060028581548110611ba157fe5b90600052602060002090600402016002018381548110611bbd57fe5b9060005260206000200160006101000a8154816001600160a01b0302191690836001600160a01b0316021790555060028481548110611bf857fe5b9060005260206000209060040201600201805480919060019003611c1c9190611e8f565b5060028481548110611c2a57fe5b600091825260208083206001600160a01b0389168452600160049093020191909101905260408120555050505050565b600082820183811015611cb75760408051600160e51b62461bcd02815260206004820152601b60248201527f536166654d6174683a206164646974696f6e206f766572666c6f770000000000604482015290519081900360640190fd5b9392505050565b611cff600160b21b69155b985cdcda59db9959026040518060400160405280600a8152602001600160b21b69155b985cdcda59db99590281525060006116c3565b611d447f41647669736f727920426f61726400000000000000000000000000000000000060405180610100016040528060d18152602001611f6460d1913960006116c3565b611d887f546f6b656e20486f6c64657200000000000000000000000000000000000000006040518060c00160405280609481526020016120356094913960006116c3565b611dcc7f446973707574655265736f6c7574696f6e000000000000000000000000000000604051806080016040528060418152602001611ef26041913960006116c3565b565b600082821115611e285760408051600160e51b62461bcd02815260206004820152601e60248201527f536166654d6174683a207375627472616374696f6e206f766572666c6f770000604482015290519081900360640190fd5b50900390565b828054828255906000526020600020908101928215611e83579160200282015b82811115611e8357825182546001600160a01b0319166001600160a01b03909116178255602090920191600190910190611e4e565b50611037929150611eb3565b815481835581811115610fcc57600083815260209020610fcc918101908301611ed7565b61103f91905b808211156110375780546001600160a01b0319168155600101611eb9565b61103f91905b808211156110375760008155600101611edd56fe526570726573656e7473206d656d626572732077686f206172652061737369676e656420746f20766f7465206f6e207265736f6c76696e672064697370757465734d656d6265727368697020746f207468697320726f6c65206973206465746563746564206175746f6d61746963616c6c7953656c656374656420666577206d656d6265727320746861742061726520646565706c7920656e747275737465642062792074686520644170702e20416e20696465616c2061647669736f727920626f6172642073686f756c642062652061206d6978206f6620736b696c6c73206f6620646f6d61696e2c20676f7665726e616e63652c2072657365617263682c20746563686e6f6c6f67792c20636f6e73756c74696e672065746320746f20696d70726f76652074686520706572666f726d616e6365206f662074686520644170702e526570726573656e747320616c6c2075736572732077686f20686f6c64206441707020746f6b656e732e205468697320697320746865206d6f73742067656e6572616c2063617465676f727920616e6420616e796f6e6520686f6c64696e6720746f6b656e2062616c616e636520697320612070617274206f6620746869732063617465676f72792062792064656661756c742ea165627a7a72305820776129096f878c1376be7c94621be427eed6b749d8e94f86f86770fdb40c44b20029",
  "source": "import \"../MemberRoles.sol\";\ncontract MockMemberRoles is MemberRoles {\n\t/**\n     * @dev is used to add initial advisory board members\n     * @param abArray is the list of initial advisory board members\n     */\n    function addInitialABMembers(\n        address[] calldata abArray\n    ) external {\n        require(\n            numberOfMembers(uint256(Role.AdvisoryBoard)) == 1,\n            \"Already initialized!\"\n        );\n\n        for (uint256 i = 0; i < abArray.length; i++) {\n            require(\n                checkRole(abArray[i], uint256(Role.TokenHolder)),\n                \"not a token holder\"\n            );\n\n            _updateRole(abArray[i], uint256(Role.AdvisoryBoard), true);\n        }\n    }\n\n}",
  "sourcePath": "/home/madan/Documents/PlotX/PlotxContract/contracts/mock/MockMemberRoles.sol",
  "compiler": {
    "name": "solc",
    "version": "0.5.7+commit.6da8b019.Emscripten.clang"
  },
  "schemaVersion": "3.3.2",
  "updatedAt": "2020-12-10T08:39:39.299Z",
  "networkType": "ethereum",
  "devdoc": {
    "methods": {
      "addInitialABMembers(address[])": {
        "details": "is used to add initial advisory board members",
        "params": {
          "abArray": "is the list of initial advisory board members"
        }
      },
      "addRole(bytes32,string,address)": {
        "details": "Adds new member role",
        "params": {
          "_authorized": "Authorized member against every role id",
          "_roleDescription": "New description hash",
          "_roleName": "New role name"
        }
      },
      "authorized(uint256)": {
        "details": "Return member address who holds the right to add/remove any member from specific role."
      },
      "changeAuthorized(uint256,address)": {
        "details": "Change Member Address who holds the authority to Add/Delete any member from specific role.",
        "params": {
          "_newAuthorized": "New authorized address against role id",
          "_roleId": "roleId to update its Authorized Address"
        }
      },
      "checkRole(address,uint256)": {
        "details": "Returns true if the given role id is assigned to a member.",
        "params": {
          "_memberAddress": "Address of member",
          "_roleId": "Checks member's authenticity with the roleId. i.e. Returns true if this roleId is assigned to member"
        }
      },
      "getMemberLengthForAllRoles()": {
        "details": "Return total number of members assigned against each role id.",
        "return": "totalMembers Total members in particular role id"
      },
      "isAuthorizedToGovern(address)": {
        "details": "checks if an address is authorized to govern"
      },
      "memberRolesInitiate(address[])": {
        "details": "to initiate the member roles and add initial AB, DR board members",
        "params": {
          "_abArray": "is array of addresses of the Initial AB members"
        }
      },
      "members(uint256)": {
        "details": "Gets the member addresses assigned by a specific role",
        "params": {
          "_memberRoleId": "Member role id"
        },
        "return": "roleId Role idallMemberAddress Member addresses of specified role id"
      },
      "numberOfMembers(uint256)": {
        "details": "Gets all members' length",
        "params": {
          "_memberRoleId": "Member role id"
        },
        "return": "memberRoleData[_memberRoleId].memberCounter Member length"
      },
      "roles(address)": {
        "details": "Get All role ids array that has been assigned to a member so far."
      },
      "setInititorAddress(address)": {
        "details": "Set the authorized address to add the initial roles and members",
        "params": {
          "_initiator": "is address of the initiator"
        }
      },
      "setMasterAddress()": {
        "details": "to change the master address"
      },
      "swapABMember(address,address)": {
        "details": "to swap advisory board member",
        "params": {
          "_newABAddress": "is address of new AB member",
          "_removeAB": "is advisory board member to be removed"
        }
      },
      "totalRoles()": {
        "details": "Return number of member roles"
      },
      "updateRole(address,uint256,bool)": {
        "details": "Assign or Delete a member from specific role.",
        "params": {
          "_active": "active is set to be True if we want to assign this role to member, False otherwise!",
          "_memberAddress": "Address of Member",
          "_roleId": "RoleId to update"
        }
      },
      "updateUintParameters(bytes8,uint256)": {
        "details": "Updates Uint Parameters of a code",
        "params": {
          "code": "whose details we want to update",
          "val": "value to set"
        }
      }
    }
  },
  "userdoc": {
    "methods": {}
  }
}