{
  "contractName": "MockStaking",
  "abi": [
    {
      "constant": false,
      "inputs": [],
      "name": "withdrawInterest",
      "outputs": [],
      "payable": false,
      "stateMutability": "nonpayable",
      "type": "function"
    },
    {
      "constant": false,
      "inputs": [
        {
          "name": "_amount",
          "type": "uint256"
        }
      ],
      "name": "withdrawStakeAndInterest",
      "outputs": [],
      "payable": false,
      "stateMutability": "nonpayable",
      "type": "function"
    },
    {
      "constant": false,
      "inputs": [],
      "name": "updateGlobalYield",
      "outputs": [],
      "payable": false,
      "stateMutability": "nonpayable",
      "type": "function"
    },
    {
      "constant": true,
      "inputs": [],
      "name": "interestData",
      "outputs": [
        {
          "name": "globalTotalStaked",
          "type": "uint256"
        },
        {
          "name": "globalYieldPerToken",
          "type": "uint256"
        },
        {
          "name": "lastUpdated",
          "type": "uint256"
        }
      ],
      "payable": false,
      "stateMutability": "view",
      "type": "function"
    },
    {
      "constant": true,
      "inputs": [],
      "name": "vaultAddress",
      "outputs": [
        {
          "name": "",
          "type": "address"
        }
      ],
      "payable": false,
      "stateMutability": "view",
      "type": "function"
    },
    {
      "constant": true,
      "inputs": [],
      "name": "stakingStartTime",
      "outputs": [
        {
          "name": "",
          "type": "uint256"
        }
      ],
      "payable": false,
      "stateMutability": "view",
      "type": "function"
    },
    {
      "constant": true,
      "inputs": [],
      "name": "totalReward",
      "outputs": [
        {
          "name": "",
          "type": "uint256"
        }
      ],
      "payable": false,
      "stateMutability": "view",
      "type": "function"
    },
    {
      "constant": true,
      "inputs": [
        {
          "name": "_staker",
          "type": "address"
        }
      ],
      "name": "getYieldData",
      "outputs": [
        {
          "name": "",
          "type": "uint256"
        },
        {
          "name": "",
          "type": "uint256"
        }
      ],
      "payable": false,
      "stateMutability": "view",
      "type": "function"
    },
    {
      "constant": false,
      "inputs": [
        {
          "name": "_amount",
          "type": "uint256"
        }
      ],
      "name": "stake",
      "outputs": [],
      "payable": false,
      "stateMutability": "nonpayable",
      "type": "function"
    },
    {
      "constant": true,
      "inputs": [],
      "name": "stakingPeriod",
      "outputs": [
        {
          "name": "",
          "type": "uint256"
        }
      ],
      "payable": false,
      "stateMutability": "view",
      "type": "function"
    },
    {
      "constant": true,
      "inputs": [
        {
          "name": "_staker",
          "type": "address"
        }
      ],
      "name": "getStakerData",
      "outputs": [
        {
          "name": "",
          "type": "uint256"
        },
        {
          "name": "",
          "type": "uint256"
        }
      ],
      "payable": false,
      "stateMutability": "view",
      "type": "function"
    },
    {
      "constant": true,
      "inputs": [
        {
          "name": "_staker",
          "type": "address"
        }
      ],
      "name": "calculateInterest",
      "outputs": [
        {
          "name": "",
          "type": "uint256"
        }
      ],
      "payable": false,
      "stateMutability": "view",
      "type": "function"
    },
    {
      "constant": true,
      "inputs": [
        {
          "name": "_staker",
          "type": "address"
        }
      ],
      "name": "getStatsData",
      "outputs": [
        {
          "name": "",
          "type": "uint256"
        },
        {
          "name": "",
          "type": "uint256"
        },
        {
          "name": "",
          "type": "uint256"
        },
        {
          "name": "",
          "type": "uint256"
        },
        {
          "name": "",
          "type": "uint256"
        }
      ],
      "payable": false,
      "stateMutability": "view",
      "type": "function"
    },
    {
      "inputs": [
        {
          "name": "_stakeToken",
          "type": "address"
        },
        {
          "name": "_rewardToken",
          "type": "address"
        },
        {
          "name": "stakingPeriod",
          "type": "uint256"
        },
        {
          "name": "_totalRewardToBeDistributed",
          "type": "uint256"
        },
        {
          "name": "startTime",
          "type": "uint256"
        },
        {
          "name": "vaultAdd",
          "type": "address"
        }
      ],
      "payable": false,
      "stateMutability": "nonpayable",
      "type": "constructor"
    },
    {
      "anonymous": false,
      "inputs": [
        {
          "indexed": true,
          "name": "staker",
          "type": "address"
        },
        {
          "indexed": false,
          "name": "value",
          "type": "uint256"
        },
        {
          "indexed": false,
          "name": "_globalYieldPerToken",
          "type": "uint256"
        }
      ],
      "name": "Staked",
      "type": "event"
    },
    {
      "anonymous": false,
      "inputs": [
        {
          "indexed": true,
          "name": "staker",
          "type": "address"
        },
        {
          "indexed": false,
          "name": "value",
          "type": "uint256"
        },
        {
          "indexed": false,
          "name": "_globalYieldPerToken",
          "type": "uint256"
        }
      ],
      "name": "StakeWithdrawn",
      "type": "event"
    },
    {
      "anonymous": false,
      "inputs": [
        {
          "indexed": true,
          "name": "staker",
          "type": "address"
        },
        {
          "indexed": false,
          "name": "_value",
          "type": "uint256"
        },
        {
          "indexed": false,
          "name": "_globalYieldPerToken",
          "type": "uint256"
        }
      ],
      "name": "InterestCollected",
      "type": "event"
    },
    {
      "constant": false,
      "inputs": [
        {
          "name": "_user",
          "type": "address"
        },
        {
          "name": "_value",
          "type": "uint256"
        }
      ],
      "name": "setBuyInRate",
      "outputs": [],
      "payable": false,
      "stateMutability": "nonpayable",
      "type": "function"
    },
    {
      "constant": false,
      "inputs": [
        {
          "name": "_user",
          "type": "address"
        },
        {
          "name": "_value",
          "type": "uint256"
        }
      ],
      "name": "addStake",
      "outputs": [],
      "payable": false,
      "stateMutability": "nonpayable",
      "type": "function"
    },
    {
      "constant": false,
      "inputs": [
        {
          "name": "a",
          "type": "uint256"
        },
        {
          "name": "b",
          "type": "uint256"
        }
      ],
      "name": "setInterestData",
      "outputs": [],
      "payable": false,
      "stateMutability": "nonpayable",
      "type": "function"
    },
    {
      "constant": false,
      "inputs": [],
      "name": "setStarttime",
      "outputs": [],
      "payable": false,
      "stateMutability": "nonpayable",
      "type": "function"
    }
  ],
  "bytecode": "0x608060405234801561001057600080fd5b5060405160c080611558833981018060405260c081101561003057600080fd5b508051602082015160408301516060840151608085015160a0909501519394929391929091858585858585836100c757604080517f08c379a000000000000000000000000000000000000000000000000000000000815260206004820152601260248201527f53686f756c6420626520706f7369746976650000000000000000000000000000604482015290519081900360640190fd5b6000831161013657604080517f08c379a000000000000000000000000000000000000000000000000000000000815260206004820152601960248201527f546f74616c207265776172642063616e206e6f74206265203000000000000000604482015290519081900360640190fd5b428210156101a557604080517f08c379a000000000000000000000000000000000000000000000000000000000815260206004820152601460248201527f43616e206e6f7420626520706173742074696d65000000000000000000000000604482015290519081900360640190fd5b6001600160a01b03861661020857604080517f08c379a00000000000000000000000000000000000000000000000000000000081526020600482015260176024820152600080516020611538833981519152604482015290519081900360640190fd5b6001600160a01b03851661026b57604080517f08c379a00000000000000000000000000000000000000000000000000000000081526020600482015260176024820152600080516020611538833981519152604482015290519081900360640190fd5b6001600160a01b0381166102ce57604080517f08c379a00000000000000000000000000000000000000000000000000000000081526020600482015260176024820152600080516020611538833981519152604482015290519081900360640190fd5b600080546001600160a01b039788166001600160a01b0319918216179091556001805496881696821696909617909555600682905560049190915560099290925560075560088054919093169116179055505050505050611204806103346000396000f3fe608060405234801561001057600080fd5b506004361061010a5760003560e01c8063750142e6116100a2578063c601f35211610071578063c601f35214610266578063e11932cf1461028c578063ebbbabbd146102b2578063ef82868014610303578063f0a65d1a146103265761010a565b8063750142e6146101fa5780637943913d14610202578063a694fc3a14610241578063c03d5b471461025e5761010a565b80633b71be59116100de5780633b71be591461016a578063430bf08a146101905780636374299e146101b45780636abfd183146101e05761010a565b806263750c1461010f578063016db2011461011957806304c3a8a31461014557806329c257a214610162575b600080fd5b61011761032e565b005b6101176004803603604081101561012f57600080fd5b506001600160a01b0381351690602001356104ae565b6101176004803603602081101561015b57600080fd5b50356104cd565b6101176106b7565b6101726106ef565b60408051938452602084019290925282820152519081900360600190f35b6101986106fb565b604080516001600160a01b039092168252519081900360200190f35b610117600480360360408110156101ca57600080fd5b506001600160a01b03813516906020013561070a565b6101e8610726565b60408051918252519081900360200190f35b6101e861072c565b6102286004803603602081101561021857600080fd5b50356001600160a01b0316610732565b6040805192835260208301919091528051918290030190f35b6101176004803603602081101561025757600080fd5b5035610756565b6101e8610944565b6102286004803603602081101561027c57600080fd5b50356001600160a01b031661094a565b6101e8600480360360208110156102a257600080fd5b50356001600160a01b031661096d565b6102d8600480360360208110156102c857600080fd5b50356001600160a01b0316610a00565b6040805195865260208601949094528484019290925260608401526080830152519081900360a00190f35b6101176004803603604081101561031957600080fd5b5080359060200135610ccc565b610117610cd7565b6000610338610cdd565b9050600061036360095461035760075485610d5d90919063ffffffff16565b9063ffffffff610dc216565b905061036e81610e2f565b60006103793361096d565b3360009081526005602052604090206001810154919250906103a1908363ffffffff610f2b16565b6001808301919091555460408051600160e01b63a9059cbb0281523360048201526024810185905290516001600160a01b039092169163a9059cbb916044808201926020929091908290030181600087803b1580156103ff57600080fd5b505af1158015610413573d6000803e3d6000fd5b505050506040513d602081101561042957600080fd5b505161046957604051600160e51b62461bcd02815260040180806020018281038252602181526020018061118f6021913960400191505060405180910390fd5b600354604080518481526020810192909252805133927f9bbd517758fbae61197f1c1c04c8614064e89512dbaf4350dcdf76fcaa5e216192908290030190a250505050565b6001600160a01b03909116600090815260056020526040902060020155565b336000908152600560205260409020816105315760408051600160e51b62461bcd02815260206004820152601f60248201527f53686f756c6420776974686472617720706f73697469766520616d6f756e7400604482015290519081900360640190fd5b805482111561058a5760408051600160e51b62461bcd02815260206004820152601760248201527f4e6f7420656e6f75676820746f6b656e207374616b6564000000000000000000604482015290519081900360640190fd5b61059261032e565b61059c3383610f88565b6000805460408051600160e01b63a9059cbb0281523360048201526024810186905290516001600160a01b039092169263a9059cbb926044808401936020939083900390910190829087803b1580156105f457600080fd5b505af1158015610608573d6000803e3d6000fd5b505050506040513d602081101561061e57600080fd5b50516106745760408051600160e51b62461bcd02815260206004820152601860248201527f7769746864726177207472616e73666572206661696c65640000000000000000604482015290519081900360640190fd5b600354604080518481526020810192909252805133927f933735aa8de6d7547d0126171b2f31b9c34dd00f3ecd4be85a0ba047db4fafef92908290030190a25050565b60006106c1610cdd565b905060006106e060095461035760075485610d5d90919063ffffffff16565b90506106eb81610e2f565b5050565b60025460035460045483565b6008546001600160a01b031681565b6001600160a01b03909116600090815260056020526040902055565b60065481565b60075481565b6003546001600160a01b038216600090815260056020526040902060020154915091565b6000811161079857604051600160e51b62461bcd0281526004018080602001828103825260298152602001806110e26029913960400191505060405180910390fd5b6000805460408051600160e01b6323b872dd0281523360048201523060248201526044810185905290516001600160a01b03909216926323b872dd926064808401936020939083900390910190829087803b1580156107f657600080fd5b505af115801561080a573d6000803e3d6000fd5b505050506040513d602081101561082057600080fd5b505161086057604051600160e51b62461bcd02815260040180806020018281038252603a81526020018061110b603a913960400191505060405180910390fd5b60095460065461087790429063ffffffff610fee16565b11156108b757604051600160e51b62461bcd0281526004018080602001828103825260298152602001806111456029913960400191505060405180910390fd5b60006108e86009546103576007546108dc600280015442610fee90919063ffffffff16565b9063ffffffff610d5d16565b4260045590506108f781610e2f565b610901338361104e565b600354604080518481526020810192909252805133927f1449c6dd7851abc30abf37f57715f492010519147cc2652fbc38202c18a6ee9092908290030190a25050565b60095481565b6001600160a01b0316600090815260056020526040902080546001909101549091565b6001600160a01b03811660009081526005602052604081206001810154600354825484916109af91670de0b6b3a764000091610357919063ffffffff610d5d16565b905060006109ca846002015484610f2b90919063ffffffff16565b9050818111156109e15760009450505050506109fb565b60006109f3838363ffffffff610fee16565b955050505050505b919050565b6001600160a01b038116600090815260056020526040812060065482918291829182918290819081908190610a3c90429063ffffffff610fee16565b9050600954811115610a4d57506009545b610a6860095461035760075484610d5d90919063ffffffff16565b92506000600954821415610aa757600454600954600654610aa09291610a94919063ffffffff610f2b16565b9063ffffffff610fee16565b9050610abe565b600454610abb90429063ffffffff610fee16565b90505b6000610adb60095461035760075485610d5d90919063ffffffff16565b6009546006549192506000918291610af9919063ffffffff610f2b16565b421015610b1e57610b1b42610a94600954600654610f2b90919063ffffffff16565b90505b6000610b3b60095461035760075485610d5d90919063ffffffff16565b60025490915060009015610bb157600254610b7b90610b6c9061035788670de0b6b3a764000063ffffffff610d5d16565b6003549063ffffffff610f2b16565b600254909450610bae90610ba19061035785670de0b6b3a764000063ffffffff610d5d16565b859063ffffffff610f2b16565b90505b8a54610bd190670de0b6b3a764000090610357908763ffffffff610d5d16565b975087610bef8c600201548d60010154610f2b90919063ffffffff16565b1115610bfe5760009750610c2c565b610c29610c1c8c600201548d60010154610f2b90919063ffffffff16565b899063ffffffff610fee16565b97505b8a54610c4c90670de0b6b3a764000090610357908463ffffffff610d5d16565b995089610c6a8c600201548d60010154610f2b90919063ffffffff16565b1115610c795760009950610ca7565b610ca4610c978c600201548d60010154610f2b90919063ffffffff16565b8b9063ffffffff610fee16565b99505b5050600254600754909e509c50969a5094985092965050505050505091939590929450565b600291909155600355565b42600655565b600080600954610cf860065442610fee90919063ffffffff16565b1115610d3d57600454600954600654610d1c9291610a94919063ffffffff610f2b16565b9050610d35600954600654610f2b90919063ffffffff16565b600455610d58565b600454610d5190429063ffffffff610fee16565b4260045590505b905090565b600082610d6c57506000610dbc565b82820282848281610d7957fe5b0414610db957604051600160e51b62461bcd02815260040180806020018281038252602181526020018061116e6021913960400191505060405180910390fd5b90505b92915050565b6000808211610e1b5760408051600160e51b62461bcd02815260206004820152601a60248201527f536166654d6174683a206469766973696f6e206279207a65726f000000000000604482015290519081900360640190fd5b6000828481610e2657fe5b04949350505050565b600254610f015760015460085460408051600160e01b63a9059cbb0281526001600160a01b039283166004820152602481018590529051919092169163a9059cbb9160448083019260209291908290030181600087803b158015610e9257600080fd5b505af1158015610ea6573d6000803e3d6000fd5b505050506040513d6020811015610ebc57600080fd5b5051610efc57604051600160e51b62461bcd0281526004018080602001828103825260298152602001806111b06029913960400191505060405180910390fd5b610f28565b600254610f2490610b6c9061035784670de0b6b3a764000063ffffffff610d5d16565b6003555b50565b600082820183811015610db95760408051600160e51b62461bcd02815260206004820152601b60248201527f536166654d6174683a206164646974696f6e206f766572666c6f770000000000604482015290519081900360640190fd5b6001600160a01b03821660009081526005602052604090208054610fb2908363ffffffff610fee16565b8155600254610fc7908363ffffffff610fee16565b6002908155600090820181905560018201556003548154610fe99183916110a4565b505050565b6000828211156110485760408051600160e51b62461bcd02815260206004820152601e60248201527f536166654d6174683a207375627472616374696f6e206f766572666c6f770000604482015290519081900360640190fd5b50900390565b6001600160a01b03821660009081526005602052604090208054611078908363ffffffff610f2b16565b8155600354611089908290846110a4565b60025461109c908363ffffffff610f2b16565b600255505050565b6110d46110c3670de0b6b3a7640000610357858563ffffffff610d5d16565b60028501549063ffffffff610f2b16565b836002018190555050505056fe596f75206e65656420746f207374616b65206120706f73697469766520746f6b656e20616d6f756e745472616e7366657246726f6d206661696c65642c206d616b65207375726520796f7520617070726f76656420746f6b656e207472616e7366657243616e206e6f74207374616b65206166746572207374616b696e6720706572696f6420706173736564536166654d6174683a206d756c7469706c69636174696f6e206f766572666c6f77576974686472617720696e746572657374207472616e73666572206661696c65645472616e73666572206661696c6564207768696c652074726173666572696e6720746f207661756c74a165627a7a72305820f2d425224489a605a9e8b263fe10fa5144c36a26ddb5bb27ae9a52f0df4c2a01002943616e206e6f74206265206e756c6c2061646472657373000000000000000000",
  "source": "pragma solidity 0.5.7;\n\nimport \"../Staking.sol\";\n\ncontract MockStaking is Staking {\n\n  constructor(address _stakeToken, address _rewardToken, uint256 stakingPeriod, uint256 _totalRewardToBeDistributed, uint256 startTime, address vaultAdd) public Staking(_stakeToken, _rewardToken, stakingPeriod, _totalRewardToBeDistributed, startTime, vaultAdd) {\n  }\n\n\tfunction setBuyInRate(address _user, uint _value) public\n  {\n    interestData.stakers[_user].stakeBuyinRate = _value;\n  }\n\n  function addStake(address _user, uint _value) public\n  {\n    interestData.stakers[_user].totalStaked = _value; \n  }  \n\n  function setInterestData(uint a, uint b) public {\n    interestData.globalTotalStaked = a;\n    interestData.globalYieldPerToken = b;\n  }\n\n  function setStarttime() public {\n    stakingStartTime = now;\n  }\n\n}",
  "sourcePath": "/home/madan/Documents/PlotX/PlotxContract/contracts/mock/MockStaking.sol",
  "compiler": {
    "name": "solc",
    "version": "0.5.7+commit.6da8b019.Emscripten.clang"
  },
  "schemaVersion": "3.3.2",
  "updatedAt": "2020-12-10T08:30:25.236Z",
  "devdoc": {
    "methods": {
      "calculateInterest(address)": {
        "details": "Calculates Interest for staker for their stake.     * Formula: EarnedInterest = MAX[TotalStaked x GlobalYield - (StakeBuyinRate + WithdrawnToDate), 0]",
        "params": {
          "_staker": "Staker's address"
        },
        "return": "The amount of tokens credit for the staker."
      },
      "getStatsData(address)": {
        "details": "returns stats data.",
        "params": {
          "_staker": "Address of staker."
        },
        "return": "Total staked.Total reward to be distributed.estimated reward for user at end of staking period if no one stakes from current time.Unlocked reward based on elapsed time.Accrued reward for user till now."
      },
      "stake(uint256)": {
        "details": "Allows a staker to deposit Tokens. Notice that `approve` is needed to be executed before the execution of this method.",
        "params": {
          "_amount": "The amount of tokens to stake"
        }
      },
      "withdrawInterest()": {
        "details": "Withdraws the sender Earned interest."
      },
      "withdrawStakeAndInterest(uint256)": {
        "details": "Withdraws the sender staked Token."
      }
    }
  },
  "userdoc": {
    "methods": {}
  }
}