{
  "contractName": "MockTokenController",
  "abi": [
    {
      "constant": false,
      "inputs": [
        {
          "name": "userAddress",
          "type": "address"
        },
        {
          "name": "functionSignature",
          "type": "bytes"
        },
        {
          "name": "sigR",
          "type": "bytes32"
        },
        {
          "name": "sigS",
          "type": "bytes32"
        },
        {
          "name": "sigV",
          "type": "uint8"
        }
      ],
      "name": "executeMetaTransaction",
      "outputs": [
        {
          "name": "",
          "type": "bytes"
        }
      ],
      "payable": true,
      "stateMutability": "payable",
      "type": "function"
    },
    {
      "constant": true,
      "inputs": [],
      "name": "_msgSender",
      "outputs": [
        {
          "name": "sender",
          "type": "address"
        }
      ],
      "payable": false,
      "stateMutability": "view",
      "type": "function"
    },
    {
      "constant": false,
      "inputs": [
        {
          "name": "_of",
          "type": "address"
        },
        {
          "name": "_to",
          "type": "address"
        },
        {
          "name": "_amount",
          "type": "uint256"
        }
      ],
      "name": "swapBLOT",
      "outputs": [],
      "payable": false,
      "stateMutability": "nonpayable",
      "type": "function"
    },
    {
      "constant": false,
      "inputs": [
        {
          "name": "_token",
          "type": "address"
        },
        {
          "name": "_of",
          "type": "address"
        },
        {
          "name": "_to",
          "type": "address"
        },
        {
          "name": "_amount",
          "type": "uint256"
        }
      ],
      "name": "transferFrom",
      "outputs": [],
      "payable": false,
      "stateMutability": "nonpayable",
      "type": "function"
    },
    {
      "constant": true,
      "inputs": [
        {
          "name": "_of",
          "type": "address"
        },
        {
          "name": "_reason",
          "type": "bytes32"
        },
        {
          "name": "_time",
          "type": "uint256"
        }
      ],
      "name": "tokensLockedAtTime",
      "outputs": [
        {
          "name": "amount",
          "type": "uint256"
        }
      ],
      "payable": false,
      "stateMutability": "view",
      "type": "function"
    },
    {
      "constant": true,
      "inputs": [],
      "name": "totalSupply",
      "outputs": [
        {
          "name": "",
          "type": "uint256"
        }
      ],
      "payable": false,
      "stateMutability": "view",
      "type": "function"
    },
    {
      "constant": true,
      "inputs": [
        {
          "name": "_toCheck",
          "type": "address"
        }
      ],
      "name": "isAuthorizedToGovern",
      "outputs": [
        {
          "name": "",
          "type": "bool"
        }
      ],
      "payable": false,
      "stateMutability": "view",
      "type": "function"
    },
    {
      "constant": true,
      "inputs": [
        {
          "name": "user",
          "type": "address"
        }
      ],
      "name": "getNonce",
      "outputs": [
        {
          "name": "nonce",
          "type": "uint256"
        }
      ],
      "payable": false,
      "stateMutability": "view",
      "type": "function"
    },
    {
      "constant": false,
      "inputs": [
        {
          "name": "_reason",
          "type": "bytes32"
        },
        {
          "name": "_amount",
          "type": "uint256"
        },
        {
          "name": "_time",
          "type": "uint256"
        }
      ],
      "name": "lock",
      "outputs": [
        {
          "name": "",
          "type": "bool"
        }
      ],
      "payable": false,
      "stateMutability": "nonpayable",
      "type": "function"
    },
    {
      "constant": false,
      "inputs": [
        {
          "name": "_of",
          "type": "address"
        }
      ],
      "name": "unlock",
      "outputs": [
        {
          "name": "unlockableTokens",
          "type": "uint256"
        }
      ],
      "payable": false,
      "stateMutability": "nonpayable",
      "type": "function"
    },
    {
      "constant": true,
      "inputs": [],
      "name": "vesting",
      "outputs": [
        {
          "name": "",
          "type": "address"
        }
      ],
      "payable": false,
      "stateMutability": "view",
      "type": "function"
    },
    {
      "constant": true,
      "inputs": [],
      "name": "bLOTToken",
      "outputs": [
        {
          "name": "",
          "type": "address"
        }
      ],
      "payable": false,
      "stateMutability": "view",
      "type": "function"
    },
    {
      "constant": true,
      "inputs": [
        {
          "name": "_of",
          "type": "address"
        }
      ],
      "name": "totalBalanceOf",
      "outputs": [
        {
          "name": "amount",
          "type": "uint256"
        }
      ],
      "payable": false,
      "stateMutability": "view",
      "type": "function"
    },
    {
      "constant": false,
      "inputs": [],
      "name": "setMasterAddress",
      "outputs": [],
      "payable": false,
      "stateMutability": "nonpayable",
      "type": "function"
    },
    {
      "constant": true,
      "inputs": [
        {
          "name": "_of",
          "type": "address"
        },
        {
          "name": "_reason",
          "type": "bytes32"
        }
      ],
      "name": "tokensUnlockable",
      "outputs": [
        {
          "name": "amount",
          "type": "uint256"
        }
      ],
      "payable": false,
      "stateMutability": "view",
      "type": "function"
    },
    {
      "constant": true,
      "inputs": [],
      "name": "getChainID",
      "outputs": [
        {
          "name": "",
          "type": "uint256"
        }
      ],
      "payable": false,
      "stateMutability": "pure",
      "type": "function"
    },
    {
      "constant": true,
      "inputs": [
        {
          "name": "_of",
          "type": "address"
        },
        {
          "name": "_reason",
          "type": "bytes32"
        }
      ],
      "name": "tokensLocked",
      "outputs": [
        {
          "name": "amount",
          "type": "uint256"
        }
      ],
      "payable": false,
      "stateMutability": "view",
      "type": "function"
    },
    {
      "constant": true,
      "inputs": [
        {
          "name": "code",
          "type": "bytes8"
        }
      ],
      "name": "getUintParameters",
      "outputs": [
        {
          "name": "codeVal",
          "type": "bytes8"
        },
        {
          "name": "val",
          "type": "uint256"
        }
      ],
      "payable": false,
      "stateMutability": "view",
      "type": "function"
    },
    {
      "constant": true,
      "inputs": [
        {
          "name": "owner",
          "type": "address"
        },
        {
          "name": "nonce",
          "type": "uint256"
        },
        {
          "name": "chainID",
          "type": "uint256"
        },
        {
          "name": "functionSignature",
          "type": "bytes"
        },
        {
          "name": "sigR",
          "type": "bytes32"
        },
        {
          "name": "sigS",
          "type": "bytes32"
        },
        {
          "name": "sigV",
          "type": "uint8"
        }
      ],
      "name": "verify",
      "outputs": [
        {
          "name": "",
          "type": "bool"
        }
      ],
      "payable": false,
      "stateMutability": "view",
      "type": "function"
    },
    {
      "constant": true,
      "inputs": [
        {
          "name": "",
          "type": "address"
        },
        {
          "name": "",
          "type": "uint256"
        }
      ],
      "name": "lockReason",
      "outputs": [
        {
          "name": "",
          "type": "bytes32"
        }
      ],
      "payable": false,
      "stateMutability": "view",
      "type": "function"
    },
    {
      "constant": false,
      "inputs": [
        {
          "name": "_of",
          "type": "address"
        },
        {
          "name": "_reason",
          "type": "bytes32"
        },
        {
          "name": "_amount",
          "type": "uint256"
        }
      ],
      "name": "burnLockedTokens",
      "outputs": [
        {
          "name": "",
          "type": "bool"
        }
      ],
      "payable": false,
      "stateMutability": "nonpayable",
      "type": "function"
    },
    {
      "constant": false,
      "inputs": [
        {
          "name": "_reason",
          "type": "bytes32"
        },
        {
          "name": "_amount",
          "type": "uint256"
        }
      ],
      "name": "increaseLockAmount",
      "outputs": [
        {
          "name": "",
          "type": "bool"
        }
      ],
      "payable": false,
      "stateMutability": "nonpayable",
      "type": "function"
    },
    {
      "constant": false,
      "inputs": [
        {
          "name": "code",
          "type": "bytes8"
        },
        {
          "name": "val",
          "type": "uint256"
        }
      ],
      "name": "updateUintParameters",
      "outputs": [],
      "payable": false,
      "stateMutability": "nonpayable",
      "type": "function"
    },
    {
      "constant": true,
      "inputs": [],
      "name": "bit",
      "outputs": [
        {
          "name": "",
          "type": "uint256"
        }
      ],
      "payable": false,
      "stateMutability": "view",
      "type": "function"
    },
    {
      "constant": false,
      "inputs": [
        {
          "name": "_reason",
          "type": "bytes32"
        },
        {
          "name": "_time",
          "type": "uint256"
        }
      ],
      "name": "extendLock",
      "outputs": [
        {
          "name": "",
          "type": "bool"
        }
      ],
      "payable": false,
      "stateMutability": "nonpayable",
      "type": "function"
    },
    {
      "constant": true,
      "inputs": [
        {
          "name": "_of",
          "type": "address"
        }
      ],
      "name": "getUnlockableTokens",
      "outputs": [
        {
          "name": "unlockableTokens",
          "type": "uint256"
        }
      ],
      "payable": false,
      "stateMutability": "view",
      "type": "function"
    },
    {
      "constant": true,
      "inputs": [],
      "name": "masterAddress",
      "outputs": [
        {
          "name": "",
          "type": "address"
        }
      ],
      "payable": false,
      "stateMutability": "view",
      "type": "function"
    },
    {
      "constant": true,
      "inputs": [
        {
          "name": "",
          "type": "address"
        },
        {
          "name": "",
          "type": "bytes32"
        }
      ],
      "name": "locked",
      "outputs": [
        {
          "name": "amount",
          "type": "uint256"
        },
        {
          "name": "validity",
          "type": "uint256"
        },
        {
          "name": "claimed",
          "type": "bool"
        }
      ],
      "payable": false,
      "stateMutability": "view",
      "type": "function"
    },
    {
      "constant": false,
      "inputs": [
        {
          "name": "_of",
          "type": "address"
        },
        {
          "name": "_period",
          "type": "uint256"
        }
      ],
      "name": "lockForGovernanceVote",
      "outputs": [],
      "payable": false,
      "stateMutability": "nonpayable",
      "type": "function"
    },
    {
      "constant": true,
      "inputs": [],
      "name": "marketRegistry",
      "outputs": [
        {
          "name": "",
          "type": "address"
        }
      ],
      "payable": false,
      "stateMutability": "view",
      "type": "function"
    },
    {
      "constant": false,
      "inputs": [
        {
          "name": "_vesting",
          "type": "address"
        }
      ],
      "name": "initiateVesting",
      "outputs": [],
      "payable": false,
      "stateMutability": "nonpayable",
      "type": "function"
    },
    {
      "constant": true,
      "inputs": [],
      "name": "token",
      "outputs": [
        {
          "name": "",
          "type": "address"
        }
      ],
      "payable": false,
      "stateMutability": "view",
      "type": "function"
    },
    {
      "anonymous": false,
      "inputs": [
        {
          "indexed": true,
          "name": "member",
          "type": "address"
        },
        {
          "indexed": false,
          "name": "lockedUnder",
          "type": "bytes32"
        },
        {
          "indexed": false,
          "name": "amount",
          "type": "uint256"
        }
      ],
      "name": "Burned",
      "type": "event"
    },
    {
      "anonymous": false,
      "inputs": [
        {
          "indexed": false,
          "name": "userAddress",
          "type": "address"
        },
        {
          "indexed": false,
          "name": "relayerAddress",
          "type": "address"
        },
        {
          "indexed": false,
          "name": "functionSignature",
          "type": "bytes"
        }
      ],
      "name": "MetaTransactionExecuted",
      "type": "event"
    },
    {
      "anonymous": false,
      "inputs": [
        {
          "indexed": true,
          "name": "_of",
          "type": "address"
        },
        {
          "indexed": true,
          "name": "_reason",
          "type": "bytes32"
        },
        {
          "indexed": false,
          "name": "_amount",
          "type": "uint256"
        },
        {
          "indexed": false,
          "name": "_validity",
          "type": "uint256"
        }
      ],
      "name": "Locked",
      "type": "event"
    },
    {
      "anonymous": false,
      "inputs": [
        {
          "indexed": true,
          "name": "_of",
          "type": "address"
        },
        {
          "indexed": true,
          "name": "_reason",
          "type": "bytes32"
        },
        {
          "indexed": false,
          "name": "_amount",
          "type": "uint256"
        }
      ],
      "name": "Unlocked",
      "type": "event"
    },
    {
      "constant": false,
      "inputs": [
        {
          "name": "_newOperator",
          "type": "address"
        }
      ],
      "name": "changeOperator",
      "outputs": [],
      "payable": false,
      "stateMutability": "nonpayable",
      "type": "function"
    },
    {
      "constant": false,
      "inputs": [
        {
          "name": "_val",
          "type": "uint256"
        }
      ],
      "name": "dummyOnlyInternalFunction",
      "outputs": [],
      "payable": false,
      "stateMutability": "nonpayable",
      "type": "function"
    }
  ],
  "bytecode": "0x608060405234801561001057600080fd5b506130b0806100206000396000f3fe6080604052600436106101f95760003560e01c80635ca48d8c1161010d578063a9dab167116100a0578063d71be8db1161006f578063d71be8db14610939578063e8176caa14610992578063ecb96fe6146109cb578063ef913a7c146109e0578063fc0c546a14610a13576101f9565b8063a9dab16714610897578063ab4a2eb3146108c7578063aba67ece146108fa578063d365a08e14610924576101f9565b80637aef5b73116100dc5780637aef5b73146107d957806381fc4d90146108185780639dd86e0f146108485780639e40799814610882576101f9565b80635ca48d8c146106325780636122f8401461066b5780636281133d146106c357806371d66f00146107a0576101f9565b80632d0335ab116101905780634a5245b41161015f5780634a5245b4146105875780634b0ee02a1461059c5780634b6199b0146105cf5780635294d0e8146105e4578063564b81ef1461061d576101f9565b80632d0335ab146104d65780632e82aaf2146105095780632f6c493c1461053f57806344c63eec14610572576101f9565b806315dacbea116101cc57806315dacbea146103e0578063179e91f11461042957806318160ddd1461047a57806322ce72541461048f576101f9565b806306394c9b146101fe5780630c53c51c14610233578063119df25f1461036c5780631371b2bd1461039d575b600080fd5b34801561020a57600080fd5b506102316004803603602081101561022157600080fd5b50356001600160a01b0316610a28565b005b6102f7600480360360a081101561024957600080fd5b6001600160a01b03823516919081019060408101602082013564010000000081111561027457600080fd5b82018360208201111561028657600080fd5b803590602001918460018302840111640100000000831117156102a857600080fd5b91908080601f016020809104026020016040519081016040528093929190818152602001838380828437600092019190915250929550508235935050506020810135906040013560ff16610aaf565b6040805160208082528351818301528351919283929083019185019080838360005b83811015610331578181015183820152602001610319565b50505050905090810190601f16801561035e5780820380516001836020036101000a031916815260200191505b509250505060405180910390f35b34801561037857600080fd5b50610381610dc2565b604080516001600160a01b039092168252519081900360200190f35b3480156103a957600080fd5b50610231600480360360608110156103c057600080fd5b506001600160a01b03813581169160208101359091169060400135610e20565b3480156103ec57600080fd5b506102316004803603608081101561040357600080fd5b506001600160a01b03813581169160208101358216916040820135169060600135610f5f565b34801561043557600080fd5b506104686004803603606081101561044c57600080fd5b506001600160a01b0381351690602081013590604001356110ba565b60408051918252519081900360200190f35b34801561048657600080fd5b50610468611113565b34801561049b57600080fd5b506104c2600480360360208110156104b257600080fd5b50356001600160a01b0316611194565b604080519115158252519081900360200190f35b3480156104e257600080fd5b50610468600480360360208110156104f957600080fd5b50356001600160a01b031661122e565b34801561051557600080fd5b506104c26004803603606081101561052c57600080fd5b5080359060208101359060400135611249565b34801561054b57600080fd5b506104686004803603602081101561056257600080fd5b50356001600160a01b03166115df565b34801561057e57600080fd5b50610381611907565b34801561059357600080fd5b50610381611916565b3480156105a857600080fd5b50610468600480360360208110156105bf57600080fd5b50356001600160a01b0316611925565b3480156105db57600080fd5b50610231611ac0565b3480156105f057600080fd5b506104686004803603604081101561060757600080fd5b506001600160a01b038135169060200135611dae565b34801561062957600080fd5b50610468611e37565b34801561063e57600080fd5b506104686004803603604081101561065557600080fd5b506001600160a01b038135169060200135611e3c565b34801561067757600080fd5b5061069f6004803603602081101561068e57600080fd5b50356001600160c01b031916611e93565b604080516001600160c01b0319909316835260208301919091528051918290030190f35b3480156106cf57600080fd5b506104c2600480360360e08110156106e657600080fd5b6001600160a01b03823516916020810135916040820135919081019060808101606082013564010000000081111561071d57600080fd5b82018360208201111561072f57600080fd5b8035906020019184600183028401116401000000008311171561075157600080fd5b91908080601f016020809104026020016040519081016040528093929190818152602001838380828437600092019190915250929550508235935050506020810135906040013560ff16611ed0565b3480156107ac57600080fd5b50610468600480360360408110156107c357600080fd5b506001600160a01b03813516906020013561205e565b3480156107e557600080fd5b506104c2600480360360608110156107fc57600080fd5b506001600160a01b03813516906020810135906040013561208c565b34801561082457600080fd5b506104c26004803603604081101561083b57600080fd5b508035906020013561236f565b34801561085457600080fd5b506102316004803603604081101561086b57600080fd5b506001600160c01b03198135169060200135612751565b34801561088e57600080fd5b5061046861285f565b3480156108a357600080fd5b506104c2600480360360408110156108ba57600080fd5b5080359060200135612865565b3480156108d357600080fd5b50610468600480360360208110156108ea57600080fd5b50356001600160a01b03166129bf565b34801561090657600080fd5b506102316004803603602081101561091d57600080fd5b5035612a23565b34801561093057600080fd5b50610381612aab565b34801561094557600080fd5b506109726004803603604081101561095c57600080fd5b506001600160a01b038135169060200135612aba565b604080519384526020840192909252151582820152519081900360600190f35b34801561099e57600080fd5b50610231600480360360408110156109b557600080fd5b506001600160a01b038135169060200135612ae5565b3480156109d757600080fd5b50610381612c1a565b3480156109ec57600080fd5b5061023160048036036020811015610a0357600080fd5b50356001600160a01b0316612c29565b348015610a1f57600080fd5b50610381612d15565b60055460408051600160e01b6306394c9b0281526001600160a01b0384811660048301529151610100909304909116916306394c9b916024808201926020929091908290030181600087803b158015610a8057600080fd5b505af1158015610a94573d6000803e3d6000fd5b505050506040513d6020811015610aaa57600080fd5b505050565b6001600160a01b038516600090815260036020526040902054606090610ae2908790610ad9611e37565b88888888611ed0565b610b2057604051600160e51b62461bcd02815260040180806020018281038252602181526020018061303b6021913960400191505060405180910390fd5b6001600160a01b038616600090815260036020526040902054610b4a90600163ffffffff612d2916565b60036000886001600160a01b03166001600160a01b031681526020019081526020016000208190555060006060306001600160a01b031687896040516020018083805190602001908083835b60208310610bb55780518252601f199092019160209182019101610b96565b51815160209384036101000a60001901801990921691161790526001600160a01b039590951660601b92019182525060408051808303600b190181526014909201908190528151919450928392508401908083835b60208310610c295780518252601f199092019160209182019101610c0a565b6001836020036101000a0380198251168184511680821785525050505050509050019150506000604051808303816000865af19150503d8060008114610c8b576040519150601f19603f3d011682016040523d82523d6000602084013e610c90565b606091505b509150915081610cea5760408051600160e51b62461bcd02815260206004820152601c60248201527f46756e6374696f6e2063616c6c206e6f74207375636365737366756c00000000604482015290519081900360640190fd5b7f5845892132946850460bff5a0083f71031bc5bf9aadcd40f1de79423eac9b10b88338960405180846001600160a01b03166001600160a01b03168152602001836001600160a01b03166001600160a01b0316815260200180602001828103825283818151815260200191508051906020019080838360005b83811015610d7b578181015183820152602001610d63565b50505050905090810190601f168015610da85780820380516001836020036101000a031916815260200191505b5094505050505060405180910390a1979650505050505050565b600033301415610e1a5760606000368080601f0160208091040260200160405190810160405280939291908181526020018383808284376000920191909152505050503601516001600160a01b03169150610e1d9050565b50335b90565b60065460408051600160e11b6337649a6d02815233600482015290516001600160a01b0390921691636ec934da91602480820192602092909190829003018186803b158015610e6e57600080fd5b505afa158015610e82573d6000803e3d6000fd5b505050506040513d6020811015610e9857600080fd5b5051610ee25760408051600160e51b62461bcd02815260206004820152600e6024820152600160921b6d139bdd08185d5d1a1bdc9a5e995902604482015290519081900360640190fd5b60075460408051600160e01b63dd2ed6a70281526001600160a01b0386811660048301528581166024830152604482018590529151919092169163dd2ed6a791606480830192600092919082900301818387803b158015610f4257600080fd5b505af1158015610f56573d6000803e3d6000fd5b50505050505050565b60065460408051600160e11b6337649a6d02815233600482015290516001600160a01b0390921691636ec934da91602480820192602092909190829003018186803b158015610fad57600080fd5b505afa158015610fc1573d6000803e3d6000fd5b505050506040513d6020811015610fd757600080fd5b50516110215760408051600160e51b62461bcd02815260206004820152600e6024820152600160921b6d139bdd08185d5d1a1bdc9a5e995902604482015290519081900360640190fd5b60408051600160e01b6323b872dd0281526001600160a01b0385811660048301528481166024830152604482018490529151918616916323b872dd916064808201926020929091908290030181600087803b15801561107f57600080fd5b505af1158015611093573d6000803e3d6000fd5b505050506040513d60208110156110a957600080fd5b50516110b457600080fd5b50505050565b6001600160a01b03831660009081526001602081815260408084208685529091528220015482101561110c57506001600160a01b03831660009081526001602090815260408083208584529091529020545b9392505050565b6000600560019054906101000a90046001600160a01b03166001600160a01b03166318160ddd6040518163ffffffff1660e01b815260040160206040518083038186803b15801561116357600080fd5b505afa158015611177573d6000803e3d6000fd5b505050506040513d602081101561118d57600080fd5b5051905090565b60025460408051600160e31b6227050b028152600160f11b6123ab02600482015290516000926001600160a01b03908116929085169183916301382858916024808301926020929190829003018186803b1580156111f157600080fd5b505afa158015611205573d6000803e3d6000fd5b505050506040513d602081101561121b57600080fd5b50516001600160a01b0316149392505050565b6001600160a01b031660009081526003602052604090205490565b600083600160f01b61534d02148015611263575060045482145b80611275575083600160f11b61222902145b6112c95760408051600160e51b62461bcd02815260206004820152601a60248201527f556e73706563696669656420726561736f6e206f722074696d65000000000000604482015290519081900360640190fd5b6112da6112d4610dc2565b85611e3c565b60408051808201909152601581527f546f6b656e7320616c7265616479206c6f636b656400000000000000000000006020820152901561139b57604051600160e51b62461bcd0281526004018080602001828103825283818151815260200191508051906020019080838360005b83811015611360578181015183820152602001611348565b50505050905090810190601f16801561138d5780820380516001836020036101000a031916815260200191505b509250505060405180910390fd5b5060408051808201909152601381527f416d6f756e742063616e206e6f7420626520300000000000000000000000000060208201528361141f57604051600160e51b62461bcd028152602060048201818152835160248401528351909283926044909101919085019080838360008315611360578181015183820152602001611348565b506000611432834263ffffffff612d2916565b905060008061143f610dc2565b6001600160a01b0390811682526020808301939093526040909101600090812080546001810182559082529290209091018690556005546101009004166323b872dd611489610dc2565b6040805163ffffffff841660e01b81526001600160a01b039092166004830152306024830152604482018890525160648083019260209291908290030181600087803b1580156114d857600080fd5b505af11580156114ec573d6000803e3d6000fd5b505050506040513d602081101561150257600080fd5b505161150d57600080fd5b60405180606001604052808581526020018281526020016000151581525060016000611537610dc2565b6001600160a01b031681526020808201929092526040908101600090812089825283528190208351815591830151600183015591909101516002909101805460ff19169115159190911790558461158c610dc2565b6001600160a01b03167fea90ef40963535482537f0689e05cb8d259e459ebd21530e826702294d0eafdd8684604051808381526020018281526020019250505060405180910390a3506001949350505050565b600080805b6001600160a01b03841660009081526020819052604090205481101561186e576001600160a01b0384166000908152602081905260409020805461163e9186918490811061162e57fe5b9060005260206000200154611dae565b915081156117d257611656838363ffffffff612d2916565b6001600160a01b038516600090815260016020908152604080832091839052822080549396506116b993869391908690811061168e57fe5b9060005260206000200154815260200190815260200160002060000154612d8690919063ffffffff16565b6001600160a01b03851660009081526001602090815260408083209183905282208054919291859081106116e957fe5b600091825260208083209091015483528281019390935260409182018120939093556001600160a01b038716835260018083528184209284905290832080549193918590811061173557fe5b60009182526020808320919091015483528281019390935260409182018120600201805460ff1916941515949094179093556001600160a01b038716835290829052902080548290811061178557fe5b9060005260206000200154846001600160a01b03167f11f87fd5adcd05786919b8b868f59a70d78ae4eb6f305c5927f9c5b1659841a4846040518082815260200191505060405180910390a35b6001600160a01b038416600090815260016020908152604080832091839052822080549192918490811061180257fe5b906000526020600020015481526020019081526020016000206000015460001415611866576001600160a01b038416600090815260208190526040902080546118619186918490811061185157fe5b9060005260206000200154612de6565b600019015b6001016115e4565b5081156119015760055460408051600160e01b63a9059cbb0281526001600160a01b0386811660048301526024820186905291516101009093049091169163a9059cbb916044808201926020929091908290030181600087803b1580156118d457600080fd5b505af11580156118e8573d6000803e3d6000fd5b505050506040513d60208110156118fe57600080fd5b50505b50919050565b6008546001600160a01b031681565b6007546001600160a01b031681565b60055460408051600160e01b6370a082310281526001600160a01b03848116600483015291516000936101009004909216916370a0823191602480820192602092909190829003018186803b15801561197d57600080fd5b505afa158015611991573d6000803e3d6000fd5b505050506040513d60208110156119a757600080fd5b5051905060005b6001600160a01b038316600090815260208190526040902054811015611a2b57611a21611a1484600080876001600160a01b03166001600160a01b031681526020019081526020016000208481548110611a0457fe5b9060005260206000200154611e3c565b839063ffffffff612d2916565b91506001016119ae565b5060085460408051600160e21b6321d6f71b0281526001600160a01b0385811660048301529151611aba93929092169163875bdc6c91602480820192602092909190829003018186803b158015611a8157600080fd5b505afa158015611a95573d6000803e3d6000fd5b505050506040513d6020811015611aab57600080fd5b5051829063ffffffff612d2916565b92915050565b6000309050806001600160a01b031663025313a26040518163ffffffff1660e01b815260040160206040518083038186803b158015611afe57600080fd5b505afa158015611b12573d6000803e3d6000fd5b505050506040513d6020811015611b2857600080fd5b50516001600160a01b03163314611b895760408051600160e51b62461bcd02815260206004820152601a60248201527f53656e646572206973206e6f742070726f7879206f776e65722e000000000000604482015290519081900360640190fd5b60055460ff1615611bd25760408051600160e51b62461bcd0281526020600482015260086024820152600160c51b67020b63932b0b23c902604482015290519081900360640190fd5b62278d0060049081556005805460ff19166001179055600280546001600160a01b0319163390811790915560408051600160e01b63eaf2c47702815290519192839263eaf2c477928083019260209291829003018186803b158015611c3657600080fd5b505afa158015611c4a573d6000803e3d6000fd5b505050506040513d6020811015611c6057600080fd5b505160058054610100600160a81b0319166101006001600160a01b039384160217905560408051600160e31b6227050b028152600160f21b611093026004820152905191831691630138285891602480820192602092909190829003018186803b158015611ccd57600080fd5b505afa158015611ce1573d6000803e3d6000fd5b505050506040513d6020811015611cf757600080fd5b5051600780546001600160a01b0319166001600160a01b0392831617905560408051600160e31b6227050b028152600160f21b611413026004820152905191831691630138285891602480820192602092909190829003018186803b158015611d5f57600080fd5b505afa158015611d73573d6000803e3d6000fd5b505050506040513d6020811015611d8957600080fd5b5051600680546001600160a01b0319166001600160a01b039092169190911790555050565b6001600160a01b0382166000908152600160208181526040808420858552909152822001544210801590611e0957506001600160a01b038316600090815260016020908152604080832085845290915290206002015460ff16155b15611aba57506001600160a01b03919091166000908152600160209081526040808320938352929052205490565b608990565b6001600160a01b038216600090815260016020908152604080832084845290915281206002015460ff16611aba57506001600160a01b03919091166000908152600160209081526040808320938352929052205490565b806000600160e41b630534d4c5026001600160c01b031983161415611ecb57600454611ec8906201518063ffffffff612eff16565b90505b915091565b600080611f768830898960405160200180858152602001846001600160a01b03166001600160a01b031660601b815260140183815260200182805190602001908083835b60208310611f335780518252601f199092019160209182019101611f14565b6001836020036101000a03801982511681845116808217855250505050505090500194505050505060405160208183030381529060405280519060200120612f6c565b9050600060018285888860405160008152602001604052604051808581526020018460ff1660ff1681526020018381526020018281526020019450505050506020604051602081039080840390855afa158015611fd7573d6000803e3d6000fd5b5050604051601f1901519150506001600160a01b0381166120425760408051600160e51b62461bcd02815260206004820152601160248201527f496e76616c6964207369676e6174757265000000000000000000000000000000604482015290519081900360640190fd5b6001600160a01b038a8116911614915050979650505050505050565b6000602052816000526040600020818154811061207757fe5b90600052602060002001600091509150505481565b60025460408051600160e31b6227050b028152600160f11b6123ab02600482015290516000926001600160a01b031691339183916301382858916024808301926020929190829003018186803b1580156120e557600080fd5b505afa1580156120f9573d6000803e3d6000fd5b505050506040513d602081101561210f57600080fd5b50516001600160a01b0316146121635760408051600160e51b62461bcd02815260206004820152600e6024820152600160921b6d139bdd08185d5d1a1bdc9a5e995902604482015290519081900360640190fd5b83600160f11b61222902146121c25760408051600160e51b62461bcd02815260206004820152601160248201527f526561736f6e206d757374206265204452000000000000000000000000000000604482015290519081900360640190fd5b60006121cf8686426110ba565b90508381101561221357604051600160e51b62461bcd02815260040180806020018281038252602981526020018061305c6029913960400191505060405180910390fd5b6001600160a01b0386166000908152600160209081526040808320888452909152902054612247908563ffffffff612d8616565b6001600160a01b038716600090815260016020908152604080832089845290915290208190556122ad576001600160a01b0386166000908152600160208181526040808420898552909152909120600201805460ff191690911790556122ad8686612de6565b600560019054906101000a90046001600160a01b03166001600160a01b03166342966c68856040518263ffffffff1660e01b815260040180828152602001915050600060405180830381600087803b15801561230857600080fd5b505af115801561231c573d6000803e3d6000fd5b5050604080518881526020810188905281516001600160a01b038b1694507f7298c49d4a02f128c91eac867376070b76cb09e92a8867b22356c6c797cac1b293509081900390910190a250509392505050565b600082600160f01b61534d02148061238e575082600160f11b61222902145b6123e25760408051600160e51b62461bcd02815260206004820152601260248201527f556e73706563696669656420726561736f6e0000000000000000000000000000604482015290519081900360640190fd5b60408051808201909152601381527f416d6f756e742063616e206e6f7420626520300000000000000000000000000060208201528261246557604051600160e51b62461bcd028152602060048201818152835160248401528351909283926044909101919085019080838360008315611360578181015183820152602001611348565b5060006124736112d4610dc2565b11604051806040016040528060108152602001600160821b6f139bc81d1bdad95b9cc81b1bd8dad95902815250906124ef57604051600160e51b62461bcd028152602060048201818152835160248401528351909283926044909101919085019080838360008315611360578181015183820152602001611348565b5060055461010090046001600160a01b03166323b872dd61250e610dc2565b6040805163ffffffff841660e01b81526001600160a01b039092166004830152306024830152604482018690525160648083019260209291908290030181600087803b15801561255d57600080fd5b505af1158015612571573d6000803e3d6000fd5b505050506040513d602081101561258757600080fd5b505161259257600080fd5b6125d582600160006125a2610dc2565b6001600160a01b03168152602080820192909252604090810160009081208882529092529020549063ffffffff612d2916565b600160006125e1610dc2565b6001600160a01b0316815260208082019290925260409081016000908120878252909252902055600160f01b61534d02831415612697576126606004546001600061262a610dc2565b6001600160a01b03168152602080820192909252604090810160009081208882529092529020600101549063ffffffff612d2916565b6001600061266c610dc2565b6001600160a01b03168152602080820192909252604090810160009081208782529092529020600101555b826126a0610dc2565b6001600160a01b03167fea90ef40963535482537f0689e05cb8d259e459ebd21530e826702294d0eafdd600160006126d6610dc2565b6001600160a01b031681526020808201929092526040908101600090812089825290925281205490600190612709610dc2565b6001600160a01b03168152602080820192909252604090810160009081208a82528352819020600101548151938452918301919091528051918290030190a350600192915050565b60025460408051600160e31b6227050b028152600160f11b6123ab02600482015290516001600160a01b039092169133918391630138285891602480820192602092909190829003018186803b1580156127aa57600080fd5b505afa1580156127be573d6000803e3d6000fd5b505050506040513d60208110156127d457600080fd5b50516001600160a01b0316146128285760408051600160e51b62461bcd02815260206004820152600e6024820152600160921b6d139bdd08185d5d1a1bdc9a5e995902604482015290519081900360640190fd5b600160e41b630534d4c5026001600160c01b031984161415610aaa57612857826201518063ffffffff612fbd16565b600455505050565b60095481565b600082600160f01b61534d0214156128d05760045482146128d05760408051600160e51b62461bcd02815260206004820152601460248201527f4d75737420626520736d4c6f636b506572696f64000000000000000000000000604482015290519081900360640190fd5b816129255760408051600160e51b62461bcd02815260206004820152601360248201527f54696d652063616e6e6f74206265207a65726f00000000000000000000000000604482015290519081900360640190fd5b60006129326112d4610dc2565b11604051806040016040528060108152602001600160821b6f139bc81d1bdad95b9cc81b1bd8dad95902815250906129ae57604051600160e51b62461bcd028152602060048201818152835160248401528351909283926044909101919085019080838360008315611360578181015183820152602001611348565b50612660826001600061262a610dc2565b6000805b6001600160a01b03831660009081526020819052604090205481101561190157612a19611a1484600080876001600160a01b03166001600160a01b03168152602001908152602001600020848154811061162e57fe5b91506001016129c3565b60025460408051600160e21b6323c5b10702815233600482015290516001600160a01b0390921691638f16c41c91602480820192602092909190829003018186803b158015612a7157600080fd5b505afa158015612a85573d6000803e3d6000fd5b505050506040513d6020811015612a9b57600080fd5b5051612aa657600080fd5b600955565b6002546001600160a01b031681565b6001602081815260009384526040808520909152918352912080549181015460029091015460ff1683565b60025460408051600160e31b6227050b028152600160f11b6123ab02600482015290516001600160a01b039092169133918391630138285891602480820192602092909190829003018186803b158015612b3e57600080fd5b505afa158015612b52573d6000803e3d6000fd5b505050506040513d6020811015612b6857600080fd5b50516001600160a01b031614612bbc5760408051600160e51b62461bcd02815260206004820152600e6024820152600160921b6d139bdd08185d5d1a1bdc9a5e995902604482015290519081900360640190fd5b60055460408051600160e11b63740bb6550281526001600160a01b0386811660048301526024820186905291516101009093049091169163e8176caa9160448082019260009290919082900301818387803b158015610f4257600080fd5b6006546001600160a01b031681565b6000309050806001600160a01b031663025313a26040518163ffffffff1660e01b815260040160206040518083038186803b158015612c6757600080fd5b505afa158015612c7b573d6000803e3d6000fd5b505050506040513d6020811015612c9157600080fd5b50516001600160a01b03163314612cf25760408051600160e51b62461bcd02815260206004820152601a60248201527f53656e646572206973206e6f742070726f7879206f776e65722e000000000000604482015290519081900360640190fd5b50600880546001600160a01b0319166001600160a01b0392909216919091179055565b60055461010090046001600160a01b031681565b60008282018381101561110c5760408051600160e51b62461bcd02815260206004820152601b60248201527f536166654d6174683a206164646974696f6e206f766572666c6f770000000000604482015290519081900360640190fd5b600082821115612de05760408051600160e51b62461bcd02815260206004820152601e60248201527f536166654d6174683a207375627472616374696f6e206f766572666c6f770000604482015290519081900360640190fd5b50900390565b6001600160a01b038216600090815260208190526040812054905b818110156110b4576001600160a01b0384166000908152602081905260409020805484919083908110612e3057fe5b90600052602060002001541415612ef7576001600160a01b0384166000908152602081905260409020612e6a83600163ffffffff612d8616565b81548110612e7457fe5b9060005260206000200154600080866001600160a01b03166001600160a01b031681526020019081526020016000208281548110612eae57fe5b60009182526020808320909101929092556001600160a01b03861681529081905260409020805480612edc57fe5b600190038181906000526020600020016000905590556110b4565b600101612e01565b6000808211612f585760408051600160e51b62461bcd02815260206004820152601a60248201527f536166654d6174683a206469766973696f6e206279207a65726f000000000000604482015290519081900360640190fd5b6000828481612f6357fe5b04949350505050565b604080517f19457468657265756d205369676e6564204d6573736167653a0a333200000000602080830191909152603c8083019490945282518083039094018452605c909101909152815191012090565b600082612fcc57506000611aba565b82820282848281612fd957fe5b041461110c57604051600160e51b62461bcd02815260040180806020018281038252602181526020018061301a6021913960400191505060405180910390fdfe536166654d6174683a206d756c7469706c69636174696f6e206f766572666c6f775369676e657220616e64207369676e617475726520646f206e6f74206d61746368546f6b656e73206c6f636b6564206d7573742062652067726561746572207468616e20616d6f756e74a165627a7a72305820f077214ffda445689b987669215f01d631d5895aceeadbd9871ada5036acc08f0029",
  "source": "pragma solidity  0.5.7;\n\nimport \"../TokenController.sol\";\n\ncontract MockTokenController is TokenController {\n\n\tuint public bit;\n    \n    /**\n     * @dev to change the operator address\n     * @param _newOperator is the new address of operator\n     */\n    function changeOperator(address _newOperator) public {\n        token.changeOperator(_newOperator);\n    }\n\n    function dummyOnlyInternalFunction(uint _val) public {\n        require(IMaster(masterAddress).isInternal(msg.sender));\n    \tbit = _val;\n    }\n\n}\n",
  "sourcePath": "/home/madan/Documents/PlotX/PlotxContract/contracts/mock/MockTokenController.sol",
  "compiler": {
    "name": "solc",
    "version": "0.5.7+commit.6da8b019.Emscripten.clang"
  },
  "schemaVersion": "3.3.2",
  "updatedAt": "2020-12-10T08:39:39.305Z",
  "networkType": "ethereum",
  "devdoc": {
    "methods": {
      "changeOperator(address)": {
        "details": "to change the operator address",
        "params": {
          "_newOperator": "is the new address of operator"
        }
      },
      "executeMetaTransaction(address,bytes,bytes32,bytes32,uint8)": {
        "params": {
          "functionSignature": "Signature of the actual function to be called via meta transaction",
          "sigR": "R part of the signature",
          "sigS": "S part of the signature",
          "sigV": "V part of the signature",
          "userAddress": "Address of user trying to do meta transaction"
        }
      },
      "extendLock(bytes32,uint256)": {
        "details": "Extends lock for a specified reason and time",
        "params": {
          "_reason": "The reason to lock tokens",
          "_time": "Lock extension time in seconds"
        }
      },
      "getUnlockableTokens(address)": {
        "details": "Gets the unlockable tokens of a specified address",
        "params": {
          "_of": "The address to query the the unlockable token count of"
        }
      },
      "increaseLockAmount(bytes32,uint256)": {
        "details": "Increase number of tokens locked for a specified reason",
        "params": {
          "_amount": "Number of tokens to be increased",
          "_reason": "The reason to lock tokens"
        }
      },
      "initiateVesting(address)": {
        "details": "Initiate vesting contract",
        "params": {
          "_vesting": "Address of vesting contract implementation"
        }
      },
      "isAuthorizedToGovern(address)": {
        "details": "checks if an address is authorized to govern"
      },
      "lock(bytes32,uint256,uint256)": {
        "details": "Locks a specified amount of tokens against an address,     for a specified reason and time",
        "params": {
          "_amount": "Number of tokens to be locked",
          "_reason": "The reason to lock tokens",
          "_time": "Lock time in seconds"
        }
      },
      "lockForGovernanceVote(address,uint256)": {
        "details": "Lock the user's tokens",
        "params": {
          "_of": "user's address."
        }
      },
      "setMasterAddress()": {
        "details": "Just for interface"
      },
      "swapBLOT(address,address,uint256)": {
        "details": "Swap `_amount` of BPLOT belonging to `_of` to PLOT and transfer to `_to` address",
        "params": {
          "_amount": "Amount of tokens to swap",
          "_of": "Address from whose BPLOT to be transferred",
          "_to": "Recipient address, who recieves PLOT"
        }
      },
      "tokensLocked(address,bytes32)": {
        "details": "Returns tokens locked for a specified address for a     specified reason",
        "params": {
          "_of": "The address whose tokens are locked",
          "_reason": "The reason to query the lock tokens for"
        }
      },
      "tokensLockedAtTime(address,bytes32,uint256)": {
        "details": "Returns tokens locked for a specified address for a     specified reason at a specific time",
        "params": {
          "_of": "The address whose tokens are locked",
          "_reason": "The reason to query the lock tokens for",
          "_time": "The timestamp to query the lock tokens for"
        }
      },
      "tokensUnlockable(address,bytes32)": {
        "details": "Returns unlockable tokens for a specified address for a specified reason",
        "params": {
          "_of": "The address to query the the unlockable token count of",
          "_reason": "The reason to query the unlockable tokens for"
        }
      },
      "totalBalanceOf(address)": {
        "details": "Returns total tokens held by an address (locked + transferable)",
        "params": {
          "_of": "The address to query the total balance of"
        }
      },
      "transferFrom(address,address,address,uint256)": {
        "details": "Transfers `_amount` of `_token` token from `_of` to `_to`",
        "params": {
          "_amount": "Amount of tokens to transfer",
          "_of": "Address from whose PLOT to be transferred",
          "_to": "Recipient address",
          "_token": "Token address"
        }
      },
      "unlock(address)": {
        "details": "Unlocks the unlockable tokens of a specified address",
        "params": {
          "_of": "Address of user, claiming back unlockable tokens"
        }
      },
      "updateUintParameters(bytes8,uint256)": {
        "details": "Updates Uint Parameters of a code",
        "params": {
          "code": "whose details we want to update",
          "val": "value to set"
        }
      }
    }
  },
  "userdoc": {
    "methods": {
      "executeMetaTransaction(address,bytes,bytes32,bytes32,uint8)": {
        "notice": "Main function to be called when user wants to execute meta transaction. The actual function to be called should be passed as param with name functionSignature Here the basic signature recovery is being used. Signature is expected to be generated using personal_sign method."
      }
    }
  }
}