{
  "contractName": "MockConfig",
  "abi": [
    {
      "constant": true,
      "inputs": [
        {
          "name": "_marketFeedAddress",
          "type": "address"
        }
      ],
      "name": "getPriceCalculationParams",
      "outputs": [
        {
          "name": "",
          "type": "uint256"
        },
        {
          "name": "",
          "type": "uint256"
        },
        {
          "name": "",
          "type": "uint256"
        },
        {
          "name": "",
          "type": "uint256"
        }
      ],
      "payable": false,
      "stateMutability": "view",
      "type": "function"
    },
    {
      "constant": true,
      "inputs": [],
      "name": "getDisputeResolutionParams",
      "outputs": [
        {
          "name": "",
          "type": "uint256"
        }
      ],
      "payable": false,
      "stateMutability": "view",
      "type": "function"
    },
    {
      "constant": true,
      "inputs": [],
      "name": "initialized",
      "outputs": [
        {
          "name": "",
          "type": "bool"
        }
      ],
      "payable": false,
      "stateMutability": "view",
      "type": "function"
    },
    {
      "constant": true,
      "inputs": [],
      "name": "priceOfToken",
      "outputs": [
        {
          "name": "",
          "type": "uint256"
        }
      ],
      "payable": false,
      "stateMutability": "view",
      "type": "function"
    },
    {
      "constant": true,
      "inputs": [
        {
          "name": "_asset",
          "type": "address"
        },
        {
          "name": "_user",
          "type": "address"
        },
        {
          "name": "_predictionStake",
          "type": "uint256"
        },
        {
          "name": "predictionPoints",
          "type": "uint256"
        },
        {
          "name": "_stakeValue",
          "type": "uint256"
        }
      ],
      "name": "checkMultiplier",
      "outputs": [
        {
          "name": "",
          "type": "uint256"
        },
        {
          "name": "",
          "type": "bool"
        }
      ],
      "payable": false,
      "stateMutability": "view",
      "type": "function"
    },
    {
      "constant": true,
      "inputs": [
        {
          "name": "_currencyAddress",
          "type": "address"
        },
        {
          "name": "_amount",
          "type": "uint256"
        }
      ],
      "name": "getAssetValueETH",
      "outputs": [
        {
          "name": "tokenEthValue",
          "type": "uint256"
        }
      ],
      "payable": false,
      "stateMutability": "view",
      "type": "function"
    },
    {
      "constant": true,
      "inputs": [],
      "name": "authorizedAddress",
      "outputs": [
        {
          "name": "",
          "type": "address"
        }
      ],
      "payable": false,
      "stateMutability": "view",
      "type": "function"
    },
    {
      "constant": true,
      "inputs": [],
      "name": "getFeedAddresses",
      "outputs": [
        {
          "name": "",
          "type": "address"
        }
      ],
      "payable": false,
      "stateMutability": "view",
      "type": "function"
    },
    {
      "constant": true,
      "inputs": [],
      "name": "mockFlag",
      "outputs": [
        {
          "name": "",
          "type": "bool"
        }
      ],
      "payable": false,
      "stateMutability": "view",
      "type": "function"
    },
    {
      "constant": true,
      "inputs": [
        {
          "name": "_priceFeed",
          "type": "address"
        }
      ],
      "name": "getPriceFeedDecimals",
      "outputs": [
        {
          "name": "",
          "type": "uint8"
        }
      ],
      "payable": false,
      "stateMutability": "view",
      "type": "function"
    },
    {
      "constant": true,
      "inputs": [
        {
          "name": "params",
          "type": "uint256[]"
        },
        {
          "name": "asset",
          "type": "address"
        },
        {
          "name": "user",
          "type": "address"
        },
        {
          "name": "marketFeedAddress",
          "type": "address"
        },
        {
          "name": "_checkMultiplier",
          "type": "bool"
        }
      ],
      "name": "calculatePredictionValue",
      "outputs": [
        {
          "name": "_predictionValue",
          "type": "uint256"
        },
        {
          "name": "_multiplierApplied",
          "type": "bool"
        }
      ],
      "payable": false,
      "stateMutability": "view",
      "type": "function"
    },
    {
      "constant": false,
      "inputs": [
        {
          "name": "code",
          "type": "bytes8"
        },
        {
          "name": "value",
          "type": "uint256"
        }
      ],
      "name": "updateUintParameters",
      "outputs": [],
      "payable": false,
      "stateMutability": "nonpayable",
      "type": "function"
    },
    {
      "constant": false,
      "inputs": [],
      "name": "setInitialCummulativePrice",
      "outputs": [],
      "payable": false,
      "stateMutability": "nonpayable",
      "type": "function"
    },
    {
      "constant": true,
      "inputs": [
        {
          "name": "_currencyFeedAddress",
          "type": "address"
        }
      ],
      "name": "getAssetPriceUSD",
      "outputs": [
        {
          "name": "latestAnswer",
          "type": "uint256"
        }
      ],
      "payable": false,
      "stateMutability": "view",
      "type": "function"
    },
    {
      "constant": false,
      "inputs": [
        {
          "name": "code",
          "type": "bytes8"
        },
        {
          "name": "value",
          "type": "address"
        }
      ],
      "name": "updateAddressParameters",
      "outputs": [],
      "payable": false,
      "stateMutability": "nonpayable",
      "type": "function"
    },
    {
      "constant": true,
      "inputs": [],
      "name": "getBasicMarketDetails",
      "outputs": [
        {
          "name": "",
          "type": "uint256"
        },
        {
          "name": "",
          "type": "uint256"
        },
        {
          "name": "",
          "type": "uint256"
        },
        {
          "name": "",
          "type": "uint256"
        }
      ],
      "payable": false,
      "stateMutability": "view",
      "type": "function"
    },
    {
      "constant": true,
      "inputs": [
        {
          "name": "_currencyAddress",
          "type": "address"
        }
      ],
      "name": "getAssetPriceInETH",
      "outputs": [
        {
          "name": "tokenEthValue",
          "type": "uint256"
        },
        {
          "name": "decimals",
          "type": "uint256"
        }
      ],
      "payable": false,
      "stateMutability": "view",
      "type": "function"
    },
    {
      "constant": true,
      "inputs": [
        {
          "name": "_currencyFeedAddress",
          "type": "address"
        },
        {
          "name": "_settleTime",
          "type": "uint256"
        }
      ],
      "name": "getSettlemetPrice",
      "outputs": [
        {
          "name": "latestAnswer",
          "type": "uint256"
        },
        {
          "name": "roundId",
          "type": "uint256"
        }
      ],
      "payable": false,
      "stateMutability": "view",
      "type": "function"
    },
    {
      "constant": false,
      "inputs": [
        {
          "name": "_addressParams",
          "type": "address[]"
        },
        {
          "name": "_intiater",
          "type": "address"
        }
      ],
      "name": "initialize",
      "outputs": [],
      "payable": false,
      "stateMutability": "nonpayable",
      "type": "function"
    },
    {
      "constant": false,
      "inputs": [
        {
          "name": "_weth",
          "type": "address"
        }
      ],
      "name": "setWeth",
      "outputs": [],
      "payable": false,
      "stateMutability": "nonpayable",
      "type": "function"
    },
    {
      "constant": false,
      "inputs": [
        {
          "name": "_newPrice",
          "type": "uint256"
        }
      ],
      "name": "setPrice",
      "outputs": [],
      "payable": false,
      "stateMutability": "nonpayable",
      "type": "function"
    },
    {
      "constant": true,
      "inputs": [
        {
          "name": "pair",
          "type": "address"
        },
        {
          "name": "amountIn",
          "type": "uint256"
        }
      ],
      "name": "getPrice",
      "outputs": [
        {
          "name": "amountOut",
          "type": "uint256"
        }
      ],
      "payable": false,
      "stateMutability": "view",
      "type": "function"
    },
    {
      "constant": true,
      "inputs": [
        {
          "name": "_asset",
          "type": "address"
        },
        {
          "name": "_amount",
          "type": "uint256"
        }
      ],
      "name": "getValueAndMultiplierParameters",
      "outputs": [
        {
          "name": "",
          "type": "uint256"
        },
        {
          "name": "",
          "type": "uint256"
        }
      ],
      "payable": false,
      "stateMutability": "view",
      "type": "function"
    },
    {
      "constant": false,
      "inputs": [],
      "name": "update",
      "outputs": [],
      "payable": false,
      "stateMutability": "nonpayable",
      "type": "function"
    },
    {
      "constant": false,
      "inputs": [
        {
          "name": "_option",
          "type": "uint256"
        },
        {
          "name": "_price",
          "type": "uint256"
        }
      ],
      "name": "setOptionPrice",
      "outputs": [],
      "payable": false,
      "stateMutability": "nonpayable",
      "type": "function"
    },
    {
      "constant": false,
      "inputs": [
        {
          "name": "_flag",
          "type": "bool"
        }
      ],
      "name": "setMockPriceFlag",
      "outputs": [],
      "payable": false,
      "stateMutability": "nonpayable",
      "type": "function"
    },
    {
      "constant": true,
      "inputs": [
        {
          "name": "params",
          "type": "uint256[]"
        },
        {
          "name": "marketFeedAddress",
          "type": "address"
        }
      ],
      "name": "calculateOptionPrice",
      "outputs": [
        {
          "name": "_optionPrice",
          "type": "uint256"
        }
      ],
      "payable": false,
      "stateMutability": "view",
      "type": "function"
    }
  ],
  "bytecode": "0x608060405234801561001057600080fd5b50611eb8806100206000396000f3fe608060405234801561001057600080fd5b50600436106101a95760003560e01c806381d3b3c2116100f9578063a7343f4011610097578063b8d1452f11610071578063b8d1452f146106bc578063bfed95b8146106e2578063ecb22803146106ea578063f0a5702f14610710576101a9565b8063a7343f401461061b578063ad2cd26614610641578063ad4cc43e14610686576101a9565b806398d57d21116100d357806398d57d21146105185780639dd86e0f146105de578063a1dc27261461060b578063a2e6204514610613576101a9565b806381d3b3c2146104b75780638c8557d9146104bf57806391b7f5ed146104fb576101a9565b8063449e815d11610166578063504e875111610140578063504e8751146103be5780635539d4001461046c578063797c7480146104905780637ca3254514610498576101a9565b8063449e815d146102b8578063462d0b2e146102e45780634a5f1d7014610392576101a9565b806305a7daf7146101ae578063094f81f8146101fa578063158ef93e146102145780631b9cbdfb14610230578063296644b9146102385780633c6e9cc814610293575b600080fd5b6101d4600480360360208110156101c457600080fd5b50356001600160a01b031661073c565b604080519485526020850193909352838301919091526060830152519081900360800190f35b610202610766565b60408051918252519081900360200190f35b61021c61076c565b604080519115158252519081900360200190f35b61020261077c565b61027a600480360360a081101561024e57600080fd5b506001600160a01b03813581169160208101359091169060408101359060608101359060800135610782565b6040805192835290151560208301528051918290030190f35b6102b6600480360360408110156102a957600080fd5b50803590602001356108bf565b005b610202600480360360408110156102ce57600080fd5b506001600160a01b0381351690602001356108d1565b6102b6600480360360408110156102fa57600080fd5b81019060208101813564010000000081111561031557600080fd5b82018360208201111561032757600080fd5b8035906020019184602083028401116401000000008311171561034957600080fd5b919080806020026020016040519081016040528093929190818152602001838360200280828437600092019190915250929550505090356001600160a01b031691506108fd9050565b610202600480360360408110156103a857600080fd5b506001600160a01b038135169060200135610923565b610202600480360360408110156103d457600080fd5b8101906020810181356401000000008111156103ef57600080fd5b82018360208201111561040157600080fd5b8035906020019184602083028401116401000000008311171561042357600080fd5b919080806020026020016040519081016040528093929190818152602001838360200280828437600092019190915250929550505090356001600160a01b0316915061095e9050565b6104746109a5565b604080516001600160a01b039092168252519081900360200190f35b6104746109b4565b6102b6600480360360208110156104ae57600080fd5b503515156109c3565b61021c6109d6565b6104e5600480360360208110156104d557600080fd5b50356001600160a01b03166109df565b6040805160ff9092168252519081900360200190f35b6102b66004803603602081101561051157600080fd5b5035610a4c565b61027a600480360360a081101561052e57600080fd5b81019060208101813564010000000081111561054957600080fd5b82018360208201111561055b57600080fd5b8035906020019184602083028401116401000000008311171561057d57600080fd5b919080806020026020016040519081016040528093929190818152602001838360200280828437600092019190915250929550506001600160a01b038335811694506020840135811693604081013590911692506060013515159050610a51565b6102b6600480360360408110156105f457600080fd5b506001600160c01b03198135169060200135610b13565b6102b6610d59565b6102b6610ec4565b6102026004803603602081101561063157600080fd5b50356001600160a01b0316610ec6565b61066d6004803603604081101561065757600080fd5b506001600160a01b038135169060200135610f01565b6040805192835260208301919091528051918290030190f35b6102b66004803603604081101561069c57600080fd5b5080356001600160c01b03191690602001356001600160a01b0316610f59565b6102b6600480360360208110156106d257600080fd5b50356001600160a01b03166110ef565b6101d4611111565b61066d6004803603602081101561070057600080fd5b50356001600160a01b0316611123565b61066d6004803603604081101561072657600080fd5b506001600160a01b0381351690602001356111d9565b600080600080600061074d86610ec6565b6000546001546002549199909850919650945092505050565b60085490565b600d54600160a01b900460ff1681565b60115481565b60105460408051600160e01b63179e91f10281526001600160a01b038781166004830152600160f01b61534d0260248301524260448301529151600093849384938493919092169163179e91f1916064808301926020929190829003018186803b1580156107ef57600080fd5b505afa158015610803573d6000803e3d6000fd5b505050506040513d602081101561081957600080fd5b5051905060006108298a89610f01565b6006549092508710159050610846578683945094505050506108b5565b6064600061085a848463ffffffff61132616565b11156108975761089161087483600a63ffffffff61139316565b61088585606463ffffffff61139316565b9063ffffffff61132616565b60019450015b6108ac60646108858a8463ffffffff61139316565b95509293505050505b9550959350505050565b60009182526013602052604090912055565b60006108f4670de0b6b3a76400006108856011548561139390919063ffffffff16565b90505b92915050565b662386f26fc100006011556012805460ff1916600117905561091f82826113ef565b5050565b806001600160a01b03831673eeeeeeeeeeeeeeeeeeeeeeeeeeeeeeeeeeeeeeee146108f757600a546108f4906001600160a01b0316836108d1565b60125460009060ff161561099b57601360008460008151811061097d57fe5b602002602001015181526020019081526020016000205490506108f7565b6108f48383611702565b600d546001600160a01b031681565b600f546001600160a01b031690565b6012805460ff1916911515919091179055565b60125460ff1681565b6000816001600160a01b031663313ce5676040518163ffffffff1660e01b815260040160206040518083038186803b158015610a1a57600080fd5b505afa158015610a2e573d6000803e3d6000fd5b505050506040513d6020811015610a4457600080fd5b505192915050565b601155565b6000806000610a748789600981518110610a6757fe5b6020026020010151610923565b9050600354811080610a87575060045481115b15610a9257506108b5565b6000610a9e898761095e565b9050610ad3610ab86005548461139390919063ffffffff16565b828b600a81518110610ac657fe5b60200260200101516119b5565b93508415610b0757610afc88888b600981518110610aed57fe5b60200260200101518786610782565b9350935050506108b5565b50509550959350505050565b600d546001600160a01b03163314610b695760408051600160e51b62461bcd02815260206004820152600e6024820152600160921b6d139bdd08185d5d1a1bdc9a5e995902604482015290519081900360640190fd5b600160f01b615357026001600160c01b031983161415610bd0576064811115610bc657604051600160e51b62461bcd028152600401808060200182810382526022815260200180611e6b6022913960400191505060405180910390fd5b600081905561091f565b600160e01b6353574d41026001600160c01b031983161415610bf657600181905561091f565b600160e21b6313551151026001600160c01b031983161415610c1c57600281905561091f565b600160d21b65135253941491026001600160c01b031983161415610c4457600381905561091f565b600160d21b65135056141491026001600160c01b031983161415610c6c57600481905561091f565b600160e01b6350444543026001600160c01b031983161415610c9257600581905561091f565b600160d01b654d494e53544d026001600160c01b031983161415610cba57600681905561091f565b600160d81b645250455243026001600160c01b031983161415610ce157600781905561091f565b600160d41b65054534449535026001600160c01b031983161415610d0957600881905561091f565b60408051600160e51b62461bcd02815260206004820152600c60248201527f496e76616c696420636f64650000000000000000000000000000000000000000604482015290519081900360640190fd5b600c546001600160a01b03163314610d7057600080fd5b600a546001600160a01b031615610dd15760408051600160e51b62461bcd02815260206004820152601360248201527f416c726561647920696e697469616c6973656400000000000000000000000000604482015290519081900360640190fd5b600f54600954600b5460408051600160e01b63e6a439050281526001600160a01b039384166004820152918316602483015251919092169163e6a43905916044808301926020929190829003018186803b158015610e2e57600080fd5b505afa158015610e42573d6000803e3d6000fd5b505050506040513d6020811015610e5857600080fd5b5051600a80546001600160a01b0319166001600160a01b039283161790819055166000818152600e602052604081209181908190610e9590611a36565b600187019290925560038601556004909401805463ffffffff191663ffffffff90951694909417909355505050565b565b6000816001600160a01b03166350d25bcd6040518163ffffffff1660e01b815260040160206040518083038186803b158015610a1a57600080fd5b600080826001600160a01b03851673eeeeeeeeeeeeeeeeeeeeeeeeeeeeeeeeeeeeeeee1415610f4c57601154610f499061088586670de0b6b3a764000063ffffffff61139316565b90505b6006549590945092505050565b600d546001600160a01b03163314610faf5760408051600160e51b62461bcd02815260206004820152600e6024820152600160921b6d139bdd08185d5d1a1bdc9a5e995902604482015290519081900360640190fd5b6001600160a01b03811661100d5760408051600160e51b62461bcd02815260206004820152601a60248201527f56616c75652063616e6e6f742062652061646472657373283029000000000000604482015290519081900360640190fd5b600160d01b65554e49464143026001600160c01b031983161415610d0957600f80546001600160a01b0319166001600160a01b038381169190911791829055600954600b5460408051600160e01b63e6a439050281529284166004840152908316602483015251929091169163e6a4390591604480820192602092909190829003018186803b15801561109f57600080fd5b505afa1580156110b3573d6000803e3d6000fd5b505050506040513d60208110156110c957600080fd5b5051600a80546001600160a01b0319166001600160a01b0390921691909117905561091f565b600b80546001600160a01b0319166001600160a01b0392909216919091179055565b60035460075460055460045490919293565b600160006001600160a01b03831673eeeeeeeeeeeeeeeeeeeeeeeeeeeeeeeeeeeeeeee146111d457826001600160a01b031663313ce5676040518163ffffffff1660e01b815260040160206040518083038186803b15801561118457600080fd5b505afa158015611198573d6000803e3d6000fd5b505050506040513d60208110156111ae57600080fd5b5051600a805460ff90921692506111d1916001600160a01b03169083900a6108d1565b91505b915091565b6000806000806000866001600160a01b031663feaf968c6040518163ffffffff1660e01b815260040160a06040518083038186803b15801561121a57600080fd5b505afa15801561122e573d6000803e3d6000fd5b505050506040513d60a081101561124457600080fd5b5080516020820151606090920151909450925090505b8582111561130e5760408051600160e01b639a6fc8f502815269ffffffffffffffffffff600019909501948516600482015290516001600160a01b03891691639a6fc8f59160248083019260a0929190829003018186803b1580156112be57600080fd5b505afa1580156112d2573d6000803e3d6000fd5b505050506040513d60a08110156112e857600080fd5b5080516020820151606090920151909450925090508582116113095761130e565b61125a565b93505069ffffffffffffffffffff1690509250929050565b600080821161137f5760408051600160e51b62461bcd02815260206004820152601a60248201527f536166654d6174683a206469766973696f6e206279207a65726f000000000000604482015290519081900360640190fd5b600082848161138a57fe5b04949350505050565b6000826113a2575060006108f7565b828202828482816113af57fe5b04146108f457604051600160e51b62461bcd028152600401808060200182810382526021815260200180611e4a6021913960400191505060405180910390fd5b6000309050806001600160a01b031663025313a26040518163ffffffff1660e01b815260040160206040518083038186803b15801561142d57600080fd5b505afa158015611441573d6000803e3d6000fd5b505050506040513d602081101561145757600080fd5b50516001600160a01b031633146114b85760408051600160e51b62461bcd02815260206004820152601a60248201527f53656e646572206973206e6f742070726f7879206f776e65722e000000000000604482015290519081900360640190fd5b600d54600160a01b900460ff161561151a5760408051600160e51b62461bcd02815260206004820152601360248201527f416c726561647920696e697469616c697a656400000000000000000000000000604482015290519081900360640190fd5b600d805474ff00000000000000000000000000000000000000001916600160a01b179055611546611c0b565b600d80546001600160a01b0319163390811790915560408051600160e11b6376eecec1028152905163eddd9d8291600480820192602092909190829003018186803b15801561159457600080fd5b505afa1580156115a8573d6000803e3d6000fd5b505050506040513d60208110156115be57600080fd5b5051601080546001600160a01b0319166001600160a01b039092169190911790558251839060019081106115ee57fe5b6020908102919091010151600980546001600160a01b03199081166001600160a01b0393841617909155600c80549091169184169190911790558251839060009061163557fe5b60200260200101516001600160a01b031663ad5c46486040518163ffffffff1660e01b815260040160206040518083038186803b15801561167557600080fd5b505afa158015611689573d6000803e3d6000fd5b505050506040513d602081101561169f57600080fd5b5051600b80546001600160a01b0319166001600160a01b039092169190911790558251839060029081106116cf57fe5b6020026020010151600f60006101000a8154816001600160a01b0302191690836001600160a01b03160217905550505050565b60008061175161172e600960009054906101000a90046001600160a01b031686600681518110610a6757fe5b8560058151811061173b57fe5b6020026020010151611c6090919063ffffffff16565b9050600061178b61177e600960009054906101000a90046001600160a01b031687600881518110610a6757fe5b8660078151811061173b57fe5b600093509050828061179c86610ec6565b9050600080549050600081606403905060006117e98a6003815181106117be57fe5b60200260200101518b6004815181106117d357fe5b6020026020010151611cbd90919063ffffffff16565b905060006118026002548361132690919063ffffffff16565b90508a60048151811061181157fe5b6020026020010151421115611831576000985050505050505050506108f7565b6001548811156118645761186161184e898663ffffffff61139316565b61088589620f424063ffffffff61139316565b98505b60008b60018151811061187357fe5b602002602001015186101561188e57506001955060026118be565b8b60028151811061189b57fe5b60200260200101518611156118b657506003955060026118be565b506002955060015b60006118de888e6000815181106118d157fe5b6020026020010151611d1d565b905060008d6003815181106118ef57fe5b6020026020010151421161190457600061192b565b61192b8e60038151811061191457fe5b602002602001015142611cbd90919063ffffffff16565b905083811161193a578361193c565b805b90506119906119836119678761195b600188018b63ffffffff61139316565b9063ffffffff61139316565b6108858461195b620f42408160018b018a63ffffffff611cbd16565b8d9063ffffffff611c6016565b9b506119a38c606463ffffffff61132616565b9e9d5050505050505050505050505050565b60006103e86032600019840102016119e1670de0b6b3a7640000610885876109c463ffffffff61139316565b9450611a2d6119fa85634a817c8063ffffffff61139316565b61088585840260640261195b611a20611a1b8b61271063ffffffff61139316565b611d4b565b8a9063ffffffff61139316565b95945050505050565b6000806000611a43611d82565b9050836001600160a01b0316635909c0d56040518163ffffffff1660e01b815260040160206040518083038186803b158015611a7e57600080fd5b505afa158015611a92573d6000803e3d6000fd5b505050506040513d6020811015611aa857600080fd5b505160408051600160e01b635a3d549302815290519194506001600160a01b03861691635a3d549391600480820192602092909190829003018186803b158015611af157600080fd5b505afa158015611b05573d6000803e3d6000fd5b505050506040513d6020811015611b1b57600080fd5b505160408051600160e21b630240bc6b0281529051919350600091829182916001600160a01b03891691630902f1ac916004808301926060929190829003018186803b158015611b6a57600080fd5b505afa158015611b7e573d6000803e3d6000fd5b505050506040513d6060811015611b9457600080fd5b5080516020820151604090920151909450909250905063ffffffff80821690851614611c015780840363ffffffff8116611bce8486611d8c565b516001600160e01b031602969096019563ffffffff8116611bef8585611d8c565b516001600160e01b0316029590950194505b5050509193909250565b60286000556801158e460913d000006001556006600281905566038d7ea4c6800060035568018493fba64ef0000060045560646005556706f05b59d3b2000090556014600755681b1ae4d6e2ef500000600855565b6000828201838110156108f45760408051600160e51b62461bcd02815260206004820152601b60248201527f536166654d6174683a206164646974696f6e206f766572666c6f770000000000604482015290519081900360640190fd5b600082821115611d175760408051600160e51b62461bcd02815260206004820152601e60248201527f536166654d6174683a207375627472616374696f6e206f766572666c6f770000604482015290519081900360640190fd5b50900390565b6000818311611d3b57611d36828463ffffffff611cbd16565b6108f4565b6108f4838363ffffffff611cbd16565b80600260018201045b81811015611d7c57809150600281828581611d6b57fe5b040181611d7457fe5b049050611d54565b50919050565b63ffffffff421690565b611d94611e37565b6000826001600160701b031611611df55760408051600160e51b62461bcd02815260206004820152601760248201527f4669786564506f696e743a204449565f42595f5a45524f000000000000000000604482015290519081900360640190fd5b6040805160208101909152806001600160701b0380851690861660701b6001600160e01b031681611e2257fe5b046001600160e01b0316815250905092915050565b6040805160208101909152600081529056fe536166654d6174683a206d756c7469706c69636174696f6e206f766572666c6f7756616c7565206d757374206265206c657373206f7220657175616c20746f20313030a165627a7a72305820be32f706b51334ab34b193c7b5e5323cc3b61fdc8021c28f27fd451ddc9465250029",
  "source": "pragma solidity 0.5.7;\n\nimport \"../MarketUtility.sol\";\n\ncontract MockConfig is MarketUtility {\n\n\tuint public priceOfToken;\n    bool public mockFlag;\n    mapping(uint => uint) optionPrices;\n\n\tfunction initialize(address payable[] memory _addressParams, address _intiater) public {\n\t\tpriceOfToken = 1e16;\n        mockFlag = true;\n\t\tsuper.initialize(_addressParams, _intiater);\n\t}\n\n    function setWeth(address _weth) external {\n        weth = _weth;\n    }\n\n\tfunction setPrice(uint _newPrice) external {\n\t\tpriceOfToken = _newPrice;\n\t}\n\n\tfunction getPrice(address pair, uint amountIn) public view returns (uint amountOut) {\n\t\treturn amountIn.mul(priceOfToken).div(1e18);\n\t}\n\n\tfunction getValueAndMultiplierParameters(address _asset, uint _amount) public view returns(uint, uint) {\n        uint _value = _amount;\n        if(_asset == ETH_ADDRESS) {\n            // address pair = uniswapFactory.getPair(plotToken, weth);\n            _value = _amount.mul(1e18).div(priceOfToken);\n            // uint[] memory output = uniswapRouter.getAmountsOut(_amount, uniswapEthToTokenPath);\n            // _value = output[1];\n        }\n        return (minStakeForMultiplier, _value);\n    }\n\n    /**\n     * @dev Internal function to update pair cummulative price\n     **/\n    function _setCummulativePrice() internal {\n    }\n\n    function update() external {\n    \n    }\n\n    function setOptionPrice(uint _option, uint _price) public {\n        optionPrices[_option] = _price;\n    }\n\n    function setMockPriceFlag(bool _flag) public {\n        mockFlag = _flag;\n    }\n\n    function calculateOptionPrice(uint[] memory params, address marketFeedAddress) public view returns(uint _optionPrice) {\n        if(mockFlag) {\n            return optionPrices[params[0]];\n          }\n        return super.calculateOptionPrice(params, marketFeedAddress);\n    }\n}",
  "sourcePath": "/home/madan/Documents/PlotX/PlotxContract/contracts/mock/MockConfig.sol",
  "compiler": {
    "name": "solc",
    "version": "0.5.7+commit.6da8b019.Emscripten.clang"
  },
  "schemaVersion": "3.3.2",
  "updatedAt": "2020-12-10T08:39:39.312Z",
  "networkType": "ethereum",
  "devdoc": {
    "methods": {
      "calculatePredictionValue(uint256[],address,address,address,bool)": {
        "details": "Calculate the prediction value, passing all the required params\r params index\r 0 _prediction\r 1 neutralMinValue\r 2 neutralMaxValue\r 3 startTime\r 4 expireTime\r 5 totalStakedETH\r 6 totalStakedToken\r 7 ethStakedOnOption\r 8 plotStakedOnOption\r 9 _stake\r 10 _leverage\r"
      },
      "checkMultiplier(address,address,uint256,uint256,uint256)": {
        "details": "Check if user gets any multiplier on his positions\r",
        "params": {
          "_asset": "The assets uses by user during prediction.\r",
          "_predictionStake": "The amount staked by user at the time of prediction.\r",
          "_stakeValue": "The stake value of asset.\r",
          "predictionPoints": "The actual positions user got during prediction.\r"
        },
        "return": "uint256 representing multiplied positions\r"
      },
      "getAssetPriceInETH(address)": {
        "details": "Get price of provided currency address in ETH\r",
        "params": {
          "_currencyAddress": "Address of currency\r"
        },
        "return": "Price of provided currency in ETH\rDecimals of the currency\r*"
      },
      "getAssetPriceUSD(address)": {
        "details": "Get price of provided feed address\r",
        "params": {
          "_currencyFeedAddress": "Feed Address of currency on which market options are based on\r"
        },
        "return": "Current price of the market currency\r*"
      },
      "getAssetValueETH(address,uint256)": {
        "details": "Get value of provided currency address in ETH\r",
        "params": {
          "_amount": "Amount of provided currency\r",
          "_currencyAddress": "Address of currency\r"
        },
        "return": "Value of provided amount in ETH\r*"
      },
      "getBasicMarketDetails()": {
        "details": "Get basic market details\r",
        "return": "Minimum amount required to predict in market\rPercentage of users leveraged amount to deduct when placed in wrong prediction\rDecimal points for prediction positions\rMaximum prediction amount\r*"
      },
      "getDisputeResolutionParams()": {
        "details": "Get amount of stake required to raise a dispute\r*"
      },
      "getFeedAddresses()": {
        "details": "Get Market feed address\r",
        "return": "Uniswap factory address\r*"
      },
      "getPriceCalculationParams(address)": {
        "details": "Get Parameter required for option price calculation\r",
        "params": {
          "_marketFeedAddress": "Feed Address of currency on which market options are based on\r"
        },
        "return": "Stake weightage percentage for calculation option price\rminimum amount of stake required to consider stake weightage\rCurrent price of the market currency\rDivisor to calculate minimum time elapsed for a market type\r*"
      },
      "getPriceFeedDecimals(address)": {
        "details": "Get decimals of given price feed address \r"
      },
      "getSettlemetPrice(address,uint256)": {
        "details": "Get price of provided feed address\r",
        "params": {
          "_currencyFeedAddress": "Feed Address of currency on which market options are based on\r"
        },
        "return": "Current price of the market currency\r*"
      },
      "setInitialCummulativePrice()": {
        "details": "Set initial PLOT/ETH pair cummulative price\r*"
      },
      "updateAddressParameters(bytes8,address)": {
        "details": "Updates address parameters of config\r*"
      },
      "updateUintParameters(bytes8,uint256)": {
        "details": "Updates integer parameters of config\r*"
      }
    }
  },
  "userdoc": {
    "methods": {}
  }
}