{
  "contractName": "MockChainLinkAggregator",
  "abi": [
    {
      "constant": true,
      "inputs": [],
      "name": "currentRound",
      "outputs": [
        {
          "name": "",
          "type": "uint80"
        }
      ],
      "payable": false,
      "stateMutability": "view",
      "type": "function"
    },
    {
      "constant": true,
      "inputs": [
        {
          "name": "",
          "type": "uint80"
        }
      ],
      "name": "roundData",
      "outputs": [
        {
          "name": "roundId",
          "type": "uint80"
        },
        {
          "name": "answer",
          "type": "int256"
        },
        {
          "name": "startedAt",
          "type": "uint256"
        },
        {
          "name": "updatedAt",
          "type": "uint256"
        },
        {
          "name": "answeredInRound",
          "type": "uint80"
        }
      ],
      "payable": false,
      "stateMutability": "view",
      "type": "function"
    },
    {
      "inputs": [],
      "payable": false,
      "stateMutability": "nonpayable",
      "type": "constructor"
    },
    {
      "constant": true,
      "inputs": [],
      "name": "decimals",
      "outputs": [
        {
          "name": "",
          "type": "uint8"
        }
      ],
      "payable": false,
      "stateMutability": "view",
      "type": "function"
    },
    {
      "constant": true,
      "inputs": [],
      "name": "latestAnswer",
      "outputs": [
        {
          "name": "",
          "type": "int256"
        }
      ],
      "payable": false,
      "stateMutability": "view",
      "type": "function"
    },
    {
      "constant": false,
      "inputs": [
        {
          "name": "_latestAnswer",
          "type": "int256"
        }
      ],
      "name": "setLatestAnswer",
      "outputs": [],
      "payable": false,
      "stateMutability": "nonpayable",
      "type": "function"
    },
    {
      "constant": true,
      "inputs": [
        {
          "name": "_roundId",
          "type": "uint80"
        }
      ],
      "name": "getRoundData",
      "outputs": [
        {
          "name": "roundId",
          "type": "uint80"
        },
        {
          "name": "answer",
          "type": "int256"
        },
        {
          "name": "startedAt",
          "type": "uint256"
        },
        {
          "name": "updatedAt",
          "type": "uint256"
        },
        {
          "name": "answeredInRound",
          "type": "uint80"
        }
      ],
      "payable": false,
      "stateMutability": "view",
      "type": "function"
    },
    {
      "constant": true,
      "inputs": [],
      "name": "latestRoundData",
      "outputs": [
        {
          "name": "roundId",
          "type": "uint80"
        },
        {
          "name": "answer",
          "type": "int256"
        },
        {
          "name": "startedAt",
          "type": "uint256"
        },
        {
          "name": "updatedAt",
          "type": "uint256"
        },
        {
          "name": "answeredInRound",
          "type": "uint80"
        }
      ],
      "payable": false,
      "stateMutability": "view",
      "type": "function"
    }
  ],
  "bytecode": "0x608060405264d9b254c1ea6000554260015534801561001d57600080fd5b50600380546001600160501b03199081169091556040805160a0810182526000808252805460208084019182526001549484018581526060850195865260808501848152938052600290915292517fac33ff75c19e70fe83507db0d683fd3465c996598dc972688b7ace676c89077b80546001600160501b0392831690881617905590517fac33ff75c19e70fe83507db0d683fd3465c996598dc972688b7ace676c89077c5591517fac33ff75c19e70fe83507db0d683fd3465c996598dc972688b7ace676c89077d5591517fac33ff75c19e70fe83507db0d683fd3465c996598dc972688b7ace676c89077e5590517fac33ff75c19e70fe83507db0d683fd3465c996598dc972688b7ace676c89077f805491909216921691909117905561034d8061014b6000396000f3fe608060405234801561001057600080fd5b506004361061007d5760003560e01c80638a19c8bc1161005b5780638a19c8bc146100d95780639a6fc8f5146100fd578063bc81bae81461015f578063feaf968c146101855761007d565b806304ea97b014610082578063313ce567146100a157806350d25bcd146100bf575b600080fd5b61009f6004803603602081101561009857600080fd5b503561018d565b005b6100a9610230565b6040805160ff9092168252519081900360200190f35b6100c7610235565b60408051918252519081900360200190f35b6100e1610256565b604080516001600160501b039092168252519081900360200190f35b6101236004803603602081101561011357600080fd5b50356001600160501b0316610265565b604080516001600160501b0396871681526020810195909552848101939093526060840191909152909216608082015290519081900360a00190f35b6101236004803603602081101561017557600080fd5b50356001600160501b03166102a4565b6101236102de565b600380546001600160501b038082166001908101821669ffffffffffffffffffff19938416178085556040805160a0810182529184168083526020808401988952428484018181526060860191825260808601848152600094855260029384905294909320945185549088169089161785559851948401949094555192820192909255945193850193909355915160049093018054939092169216919091179055565b600890565b6003546001600160501b031660009081526002602052604090206001015490565b6003546001600160501b031681565b6001600160501b039081166000908152600260208190526040909120805460018201549282015460038301546004909301549185169593949093911690565b6002602081905260009182526040909120805460018201549282015460038301546004909301546001600160501b03928316949391921685565b600380546001600160501b03908116600090815260026020819052604090912080546001820154928201549482015460049092015490841694929316909192939456fea165627a7a723058208bb8e9de4a2899fe9c55ce8f94f2d1ce2deb0d2b85877522be90a1c929a26ea30029",
  "source": "pragma solidity 0.5.7;\n  \nimport \"../interfaces/IChainLinkOracle.sol\";\ncontract MockChainLinkAggregator is IChainLinkOracle{\n\n\t int256 latestAns = 934999802346;\n\t uint256 updatedAt = now;\n\n   struct RoundData {\n      uint80 roundId;\n      int256 answer;\n      uint256 startedAt;\n      uint256 updatedAt;\n      uint80 answeredInRound;\n   }\n\n   mapping(uint80 => RoundData) public roundData;\n   uint80 public currentRound;\n\n   constructor() public {\n      currentRound = 0;\n      roundData[0] = RoundData(uint80(0),latestAns, updatedAt, updatedAt, uint80(0));\n   }\n\n  function decimals() external view returns (uint8) {\n    return uint8(8);\n  }\n\t/**\n    * @dev Gets the latest answer of chainLink oracle.\n    * @return int256 representing the latest answer of chainLink oracle.\n    */\n\t function latestAnswer() external view returns (int256)\n\t {\n\t \treturn roundData[currentRound].answer;\n\n\t }\n\n\t/**\n    * @dev Set the latest answer of chainLink oracle.\n    * @param _latestAnswer The latest anser of chainLink oracle.\n    */\n\t function setLatestAnswer(int256 _latestAnswer) public\n\t {\n    currentRound = currentRound + uint80(1);\n    roundData[currentRound] = RoundData(currentRound,_latestAnswer, now, now, currentRound);\n\t }\n\n\t function getRoundData(uint80 _roundId)\n    external\n    view\n    returns (\n      uint80 roundId,\n      int256 answer,\n      uint256 startedAt,\n      uint256 updatedAt,\n      uint80 answeredInRound\n    ) {\n    \treturn (roundData[_roundId].roundId, roundData[_roundId].answer, roundData[_roundId].startedAt,\n              roundData[_roundId].updatedAt,roundData[_roundId].answeredInRound);\n    }\n\n  \tfunction latestRoundData()\n    external\n    view\n    returns (\n      uint80 roundId,\n      int256 answer,\n      uint256 startedAt,\n      uint256 updatedAt,\n      uint80 answeredInRound\n    ) {\n    \treturn (roundData[currentRound].roundId, roundData[currentRound].answer, roundData[currentRound].startedAt,\n              roundData[currentRound].updatedAt,roundData[currentRound].answeredInRound);\n    }\n\n}",
  "sourcePath": "/home/madan/Documents/PlotX/PlotxContract/contracts/mock/MockChainLinkAggregator.sol",
  "compiler": {
    "name": "solc",
    "version": "0.5.7+commit.6da8b019.Emscripten.clang"
  },
  "schemaVersion": "3.3.2",
  "updatedAt": "2020-12-10T08:39:39.388Z",
  "networkType": "ethereum",
  "devdoc": {
    "methods": {
      "latestAnswer()": {
        "details": "Gets the latest answer of chainLink oracle.",
        "return": "int256 representing the latest answer of chainLink oracle."
      },
      "setLatestAnswer(int256)": {
        "details": "Set the latest answer of chainLink oracle.",
        "params": {
          "_latestAnswer": "The latest anser of chainLink oracle."
        }
      }
    }
  },
  "userdoc": {
    "methods": {}
  }
}