{
  "contractName": "MyToken",
  "abi": [
    {
      "constant": true,
      "inputs": [],
      "name": "name",
      "outputs": [
        {
          "name": "",
          "type": "string"
        }
      ],
      "payable": false,
      "stateMutability": "view",
      "type": "function"
    },
    {
      "constant": false,
      "inputs": [
        {
          "name": "userAddress",
          "type": "address"
        },
        {
          "name": "functionSignature",
          "type": "bytes"
        },
        {
          "name": "sigR",
          "type": "bytes32"
        },
        {
          "name": "sigS",
          "type": "bytes32"
        },
        {
          "name": "sigV",
          "type": "uint8"
        }
      ],
      "name": "executeMetaTransaction",
      "outputs": [
        {
          "name": "",
          "type": "bytes"
        }
      ],
      "payable": true,
      "stateMutability": "payable",
      "type": "function"
    },
    {
      "constant": true,
      "inputs": [],
      "name": "_msgSender",
      "outputs": [
        {
          "name": "sender",
          "type": "address"
        }
      ],
      "payable": false,
      "stateMutability": "view",
      "type": "function"
    },
    {
      "constant": true,
      "inputs": [
        {
          "name": "user",
          "type": "address"
        }
      ],
      "name": "getNonce",
      "outputs": [
        {
          "name": "nonce",
          "type": "uint256"
        }
      ],
      "payable": false,
      "stateMutability": "view",
      "type": "function"
    },
    {
      "constant": true,
      "inputs": [],
      "name": "decimals",
      "outputs": [
        {
          "name": "",
          "type": "uint8"
        }
      ],
      "payable": false,
      "stateMutability": "view",
      "type": "function"
    },
    {
      "constant": true,
      "inputs": [],
      "name": "getChainID",
      "outputs": [
        {
          "name": "",
          "type": "uint256"
        }
      ],
      "payable": false,
      "stateMutability": "pure",
      "type": "function"
    },
    {
      "constant": true,
      "inputs": [
        {
          "name": "owner",
          "type": "address"
        },
        {
          "name": "nonce",
          "type": "uint256"
        },
        {
          "name": "chainID",
          "type": "uint256"
        },
        {
          "name": "functionSignature",
          "type": "bytes"
        },
        {
          "name": "sigR",
          "type": "bytes32"
        },
        {
          "name": "sigS",
          "type": "bytes32"
        },
        {
          "name": "sigV",
          "type": "uint8"
        }
      ],
      "name": "verify",
      "outputs": [
        {
          "name": "",
          "type": "bool"
        }
      ],
      "payable": false,
      "stateMutability": "view",
      "type": "function"
    },
    {
      "constant": true,
      "inputs": [],
      "name": "symbol",
      "outputs": [
        {
          "name": "",
          "type": "string"
        }
      ],
      "payable": false,
      "stateMutability": "view",
      "type": "function"
    },
    {
      "inputs": [
        {
          "name": "_name",
          "type": "string"
        },
        {
          "name": "_symbol",
          "type": "string"
        },
        {
          "name": "_totalSupply",
          "type": "uint256"
        },
        {
          "name": "_owner",
          "type": "address"
        }
      ],
      "payable": false,
      "stateMutability": "nonpayable",
      "type": "constructor"
    },
    {
      "anonymous": false,
      "inputs": [
        {
          "indexed": true,
          "name": "tokenOwner",
          "type": "address"
        },
        {
          "indexed": true,
          "name": "spender",
          "type": "address"
        },
        {
          "indexed": false,
          "name": "tokens",
          "type": "uint256"
        }
      ],
      "name": "Approval",
      "type": "event"
    },
    {
      "anonymous": false,
      "inputs": [
        {
          "indexed": true,
          "name": "from",
          "type": "address"
        },
        {
          "indexed": true,
          "name": "to",
          "type": "address"
        },
        {
          "indexed": false,
          "name": "tokens",
          "type": "uint256"
        }
      ],
      "name": "Transfer",
      "type": "event"
    },
    {
      "anonymous": false,
      "inputs": [
        {
          "indexed": false,
          "name": "userAddress",
          "type": "address"
        },
        {
          "indexed": false,
          "name": "relayerAddress",
          "type": "address"
        },
        {
          "indexed": false,
          "name": "functionSignature",
          "type": "bytes"
        }
      ],
      "name": "MetaTransactionExecuted",
      "type": "event"
    },
    {
      "constant": true,
      "inputs": [],
      "name": "totalSupply",
      "outputs": [
        {
          "name": "",
          "type": "uint256"
        }
      ],
      "payable": false,
      "stateMutability": "view",
      "type": "function"
    },
    {
      "constant": true,
      "inputs": [
        {
          "name": "tokenOwner",
          "type": "address"
        }
      ],
      "name": "balanceOf",
      "outputs": [
        {
          "name": "",
          "type": "uint256"
        }
      ],
      "payable": false,
      "stateMutability": "view",
      "type": "function"
    },
    {
      "constant": false,
      "inputs": [
        {
          "name": "receiver",
          "type": "address"
        },
        {
          "name": "numTokens",
          "type": "uint256"
        }
      ],
      "name": "transfer",
      "outputs": [
        {
          "name": "",
          "type": "bool"
        }
      ],
      "payable": false,
      "stateMutability": "nonpayable",
      "type": "function"
    },
    {
      "constant": false,
      "inputs": [
        {
          "name": "delegate",
          "type": "address"
        },
        {
          "name": "numTokens",
          "type": "uint256"
        }
      ],
      "name": "approve",
      "outputs": [
        {
          "name": "",
          "type": "bool"
        }
      ],
      "payable": false,
      "stateMutability": "nonpayable",
      "type": "function"
    },
    {
      "constant": true,
      "inputs": [
        {
          "name": "owner",
          "type": "address"
        },
        {
          "name": "delegate",
          "type": "address"
        }
      ],
      "name": "allowance",
      "outputs": [
        {
          "name": "",
          "type": "uint256"
        }
      ],
      "payable": false,
      "stateMutability": "view",
      "type": "function"
    },
    {
      "constant": false,
      "inputs": [
        {
          "name": "owner",
          "type": "address"
        },
        {
          "name": "buyer",
          "type": "address"
        },
        {
          "name": "numTokens",
          "type": "uint256"
        }
      ],
      "name": "transferFrom",
      "outputs": [
        {
          "name": "",
          "type": "bool"
        }
      ],
      "payable": false,
      "stateMutability": "nonpayable",
      "type": "function"
    }
  ],
  "bytecode": "0x60806040523480156200001157600080fd5b50604051620011a0380380620011a0833981018060405260808110156200003757600080fd5b8101908080516401000000008111156200005057600080fd5b820160208101848111156200006457600080fd5b81516401000000008111828201871017156200007f57600080fd5b505092919060200180516401000000008111156200009c57600080fd5b82016020810184811115620000b057600080fd5b8151640100000000811182820187101715620000cb57600080fd5b50506020808301516040909301518651929550929350620000f2916001918701906200012f565b508251620001089060029060208601906200012f565b5060038290556001600160a01b031660009081526004602052604090205550620001d49050565b828054600181600116156101000203166002900490600052602060002090601f016020900481019282601f106200017257805160ff1916838001178555620001a2565b82800160010185558215620001a2579182015b82811115620001a257825182559160200191906001019062000185565b50620001b0929150620001b4565b5090565b620001d191905b80821115620001b05760008155600101620001bb565b90565b610fbc80620001e46000396000f3fe6080604052600436106100dd5760003560e01c8063313ce5671161007f57806370a082311161005957806370a082311461046857806395d89b411461049b578063a9059cbb146104b0578063dd62ed3e146104e9576100dd565b8063313ce5671461034b578063564b81ef146103765780636281133d1461038b576100dd565b8063119df25f116100bb578063119df25f1461027d57806318160ddd146102ae57806323b872dd146102d55780632d0335ab14610318576100dd565b806306fdde03146100e2578063095ea7b31461016c5780630c53c51c146101b9575b600080fd5b3480156100ee57600080fd5b506100f7610524565b6040805160208082528351818301528351919283929083019185019080838360005b83811015610131578181015183820152602001610119565b50505050905090810190601f16801561015e5780820380516001836020036101000a031916815260200191505b509250505060405180910390f35b34801561017857600080fd5b506101a56004803603604081101561018f57600080fd5b506001600160a01b0381351690602001356105b1565b604080519115158252519081900360200190f35b6100f7600480360360a08110156101cf57600080fd5b6001600160a01b0382351691908101906040810160208201356401000000008111156101fa57600080fd5b82018360208201111561020c57600080fd5b8035906020019184600183028401116401000000008311171561022e57600080fd5b91908080601f016020809104026020016040519081016040528093929190818152602001838380828437600092019190915250929550508235935050506020810135906040013560ff16610629565b34801561028957600080fd5b5061029261093b565b604080516001600160a01b039092168252519081900360200190f35b3480156102ba57600080fd5b506102c3610999565b60408051918252519081900360200190f35b3480156102e157600080fd5b506101a5600480360360608110156102f857600080fd5b506001600160a01b0381358116916020810135909116906040013561099f565b34801561032457600080fd5b506102c36004803603602081101561033b57600080fd5b50356001600160a01b0316610b17565b34801561035757600080fd5b50610360610b32565b6040805160ff9092168252519081900360200190f35b34801561038257600080fd5b506102c3610b37565b34801561039757600080fd5b506101a5600480360360e08110156103ae57600080fd5b6001600160a01b0382351691602081013591604082013591908101906080810160608201356401000000008111156103e557600080fd5b8201836020820111156103f757600080fd5b8035906020019184600183028401116401000000008311171561041957600080fd5b91908080601f016020809104026020016040519081016040528093929190818152602001838380828437600092019190915250929550508235935050506020810135906040013560ff16610b3c565b34801561047457600080fd5b506102c36004803603602081101561048b57600080fd5b50356001600160a01b0316610cca565b3480156104a757600080fd5b506100f7610ce5565b3480156104bc57600080fd5b506101a5600480360360408110156104d357600080fd5b506001600160a01b038135169060200135610d3d565b3480156104f557600080fd5b506102c36004803603604081101561050c57600080fd5b506001600160a01b0381358116916020013516610e2f565b60018054604080516020600284861615610100026000190190941693909304601f810184900484028201840190925281815292918301828280156105a95780601f1061057e576101008083540402835291602001916105a9565b820191906000526020600020905b81548152906001019060200180831161058c57829003601f168201915b505050505081565b6000806105bc61093b565b6001600160a01b038082166000818152600560209081526040808320948a168084529482529182902088905581518881529151949550929391927f8c5be1e5ebec7d5bd14f71427d1e84f3dd0314c0f7b2291e5b200ac8c7c3b92592918290030190a35060019392505050565b6001600160a01b03851660009081526020819052604090205460609061065c908790610653610b37565b88888888610b3c565b61069a57604051600160e51b62461bcd028152600401808060200182810382526021815260200180610f706021913960400191505060405180910390fd5b6001600160a01b0386166000908152602081905260409020546106c490600163ffffffff610e5a16565b600080886001600160a01b03166001600160a01b031681526020019081526020016000208190555060006060306001600160a01b031687896040516020018083805190602001908083835b6020831061072e5780518252601f19909201916020918201910161070f565b51815160209384036101000a60001901801990921691161790526001600160a01b039590951660601b92019182525060408051808303600b190181526014909201908190528151919450928392508401908083835b602083106107a25780518252601f199092019160209182019101610783565b6001836020036101000a0380198251168184511680821785525050505050509050019150506000604051808303816000865af19150503d8060008114610804576040519150601f19603f3d011682016040523d82523d6000602084013e610809565b606091505b5091509150816108635760408051600160e51b62461bcd02815260206004820152601c60248201527f46756e6374696f6e2063616c6c206e6f74207375636365737366756c00000000604482015290519081900360640190fd5b7f5845892132946850460bff5a0083f71031bc5bf9aadcd40f1de79423eac9b10b88338960405180846001600160a01b03166001600160a01b03168152602001836001600160a01b03166001600160a01b0316815260200180602001828103825283818151815260200191508051906020019080838360005b838110156108f45781810151838201526020016108dc565b50505050905090810190601f1680156109215780820380516001836020036101000a031916815260200191505b5094505050505060405180910390a1979650505050505050565b6000333014156109935760606000368080601f0160208091040260200160405190810160405280939291908181526020018383808284376000920191909152505050503601516001600160a01b031691506109969050565b50335b90565b60035490565b6000806109aa61093b565b6001600160a01b0386166000908152600460205260409020549091508311156109d257600080fd5b6001600160a01b03808616600090815260056020908152604080832093851683529290522054831115610a0457600080fd5b6001600160a01b038516600090815260046020526040902054610a2d908463ffffffff610ebe16565b6001600160a01b03808716600090815260046020908152604080832094909455600581528382209285168252919091522054610a6f908463ffffffff610ebe16565b6001600160a01b0380871660009081526005602090815260408083208685168452825280832094909455918716815260049091522054610ab5908463ffffffff610e5a16565b6001600160a01b0380861660008181526004602090815260409182902094909455805187815290519193928916927fddf252ad1be2c89b69c2b068fc378daa952ba7f163c4a11628f55a4df523b3ef92918290030190a3506001949350505050565b6001600160a01b031660009081526020819052604090205490565b601281565b608990565b600080610be28830898960405160200180858152602001846001600160a01b03166001600160a01b031660601b815260140183815260200182805190602001908083835b60208310610b9f5780518252601f199092019160209182019101610b80565b6001836020036101000a03801982511681845116808217855250505050505090500194505050505060405160208183030381529060405280519060200120610f1e565b9050600060018285888860405160008152602001604052604051808581526020018460ff1660ff1681526020018381526020018281526020019450505050506020604051602081039080840390855afa158015610c43573d6000803e3d6000fd5b5050604051601f1901519150506001600160a01b038116610cae5760408051600160e51b62461bcd02815260206004820152601160248201527f496e76616c6964207369676e6174757265000000000000000000000000000000604482015290519081900360640190fd5b6001600160a01b038a8116911614915050979650505050505050565b6001600160a01b031660009081526004602052604090205490565b6002805460408051602060018416156101000260001901909316849004601f810184900484028201840190925281815292918301828280156105a95780601f1061057e576101008083540402835291602001916105a9565b600080610d4861093b565b6001600160a01b038116600090815260046020526040902054909150831115610d7057600080fd5b6001600160a01b038116600090815260046020526040902054610d99908463ffffffff610ebe16565b6001600160a01b038083166000908152600460205260408082209390935590861681522054610dce908463ffffffff610e5a16565b6001600160a01b0380861660008181526004602090815260409182902094909455805187815290519193928516927fddf252ad1be2c89b69c2b068fc378daa952ba7f163c4a11628f55a4df523b3ef92918290030190a35060019392505050565b6001600160a01b03918216600090815260056020908152604080832093909416825291909152205490565b600082820183811015610eb75760408051600160e51b62461bcd02815260206004820152601b60248201527f536166654d6174683a206164646974696f6e206f766572666c6f770000000000604482015290519081900360640190fd5b9392505050565b600082821115610f185760408051600160e51b62461bcd02815260206004820152601e60248201527f536166654d6174683a207375627472616374696f6e206f766572666c6f770000604482015290519081900360640190fd5b50900390565b604080517f19457468657265756d205369676e6564204d6573736167653a0a333200000000602080830191909152603c8083019490945282518083039094018452605c90910190915281519101209056fe5369676e657220616e64207369676e617475726520646f206e6f74206d61746368a165627a7a7230582007521491f1f58d1059752d6b94f7f8c2dc81bc1ec72f27b0a974ba2a7f11fd480029",
  "source": "pragma solidity >=0.4.0 <0.7.0;\n\nimport \"./external/BasicMetaTransaction.sol\";\n\ncontract MyToken is BasicMetaTransaction {\n    \n    string public name;\n    string public symbol;\n    uint8 public constant decimals = 18;\n    uint256 totalSupply_;\n        \n    event Approval(address indexed tokenOwner, address indexed spender, uint tokens);\n    event Transfer(address indexed from, address indexed to, uint tokens);\n    \n    mapping(address => uint256) balances;\n\n    mapping(address => mapping (address => uint256)) allowed;\n    \n\n    using SafeMath for uint256;\n    \n    constructor (string memory _name, string memory _symbol, uint256 _totalSupply, address _owner) public {\n        name = _name;\n        symbol = _symbol;\n        totalSupply_ = _totalSupply;\n        balances[_owner] = _totalSupply;\n    }\n\n    function totalSupply() public view returns (uint256) {\n\t    return totalSupply_;\n    }\n    \n    function balanceOf(address tokenOwner) public view returns (uint) {\n        return balances[tokenOwner];\n    }\n    \n    function transfer(address receiver, uint numTokens) public returns (bool) {\n        address requested_address = _msgSender();\n        require(numTokens <= balances[requested_address]);\n        balances[requested_address] = balances[requested_address].sub(numTokens);\n        balances[receiver] = balances[receiver].add(numTokens);\n        emit Transfer(requested_address, receiver, numTokens);\n        return true;\n    }\n    \n    function approve(address delegate, uint numTokens) public returns (bool) {\n        address requested_address = _msgSender();\n        allowed[requested_address][delegate] = numTokens;\n        emit Approval(requested_address, delegate, numTokens);\n        return true;\n    }\n    \n    function allowance(address owner, address delegate) public view returns (uint) {\n        return allowed[owner][delegate];\n    }\n    \n    function transferFrom(address owner, address buyer, uint numTokens) public returns (bool) {\n        address requested_address = _msgSender();\n        require(numTokens <= balances[owner]);    \n        require(numTokens <= allowed[owner][requested_address]);\n    \n        balances[owner] = balances[owner].sub(numTokens);\n        allowed[owner][requested_address] = allowed[owner][requested_address].sub(numTokens);\n        balances[buyer] = balances[buyer].add(numTokens);\n        emit Transfer(owner, buyer, numTokens);\n        return true;\n    }\n}\n\n// library SafeMath { \n//     function sub(uint256 a, uint256 b) internal pure returns (uint256) {\n//       assert(b <= a);\n//       return a - b;\n//     }\n    \n//     function add(uint256 a, uint256 b) internal pure returns (uint256) {\n//       uint256 c = a + b;\n//       assert(c >= a);\n//       return c;\n//     }\n// }\n",
  "sourcePath": "/home/madan/Documents/PlotX/PlotxContract/contracts/MyToken.sol",
  "compiler": {
    "name": "solc",
    "version": "0.5.7+commit.6da8b019.Emscripten.clang"
  },
  "schemaVersion": "3.3.2",
  "updatedAt": "2020-12-10T08:30:24.927Z",
  "devdoc": {
    "methods": {
      "executeMetaTransaction(address,bytes,bytes32,bytes32,uint8)": {
        "params": {
          "functionSignature": "Signature of the actual function to be called via meta transaction",
          "sigR": "R part of the signature",
          "sigS": "S part of the signature",
          "sigV": "V part of the signature",
          "userAddress": "Address of user trying to do meta transaction"
        }
      }
    }
  },
  "userdoc": {
    "methods": {
      "executeMetaTransaction(address,bytes,bytes32,bytes32,uint8)": {
        "notice": "Main function to be called when user wants to execute meta transaction. The actual function to be called should be passed as param with name functionSignature Here the basic signature recovery is being used. Signature is expected to be generated using personal_sign method."
      }
    }
  }
}