{
  "contractName": "NewProxyInternalContract",
  "abi": [
    {
      "constant": true,
      "inputs": [],
      "name": "ms",
      "outputs": [
        {
          "name": "",
          "type": "address"
        }
      ],
      "payable": false,
      "stateMutability": "view",
      "type": "function"
    },
    {
      "constant": false,
      "inputs": [],
      "name": "setMasterAddress",
      "outputs": [],
      "payable": false,
      "stateMutability": "nonpayable",
      "type": "function"
    },
    {
      "constant": false,
      "inputs": [
        {
          "name": "_val",
          "type": "uint256"
        }
      ],
      "name": "callDummyOnlyInternalFunction",
      "outputs": [],
      "payable": false,
      "stateMutability": "nonpayable",
      "type": "function"
    },
    {
      "constant": false,
      "inputs": [],
      "name": "changeDependentContractAddress",
      "outputs": [],
      "payable": false,
      "stateMutability": "nonpayable",
      "type": "function"
    }
  ],
  "bytecode": "0x608060405234801561001057600080fd5b50610273806100206000396000f3fe608060405234801561001057600080fd5b506004361061004c5760003560e01c80630ea9c984146100515780634b6199b01461005b578063a0b2d57f14610063578063d47fb85014610087575b600080fd5b6100596100a4565b005b610059610129565b61006b61013d565b604080516001600160a01b039092168252519081900360200190f35b6100596004803603602081101561009d57600080fd5b503561014c565b60015460408051600160e21b6323c5b10702815233600482015290516001600160a01b0390921691638f16c41c91602480820192602092909190829003018186803b1580156100f257600080fd5b505afa158015610106573d6000803e3d6000fd5b505050506040513d602081101561011c57600080fd5b505161012757600080fd5b565b600180546001600160a01b03191633179055565b6001546001600160a01b031681565b60015460408051600160e31b6227050b028152600160f01b61544302600482015290516001600160a01b0390921691630138285891602480820192602092909190829003018186803b1580156101a157600080fd5b505afa1580156101b5573d6000803e3d6000fd5b505050506040513d60208110156101cb57600080fd5b5051600080546001600160a01b0319166001600160a01b039283161780825560408051600160e11b6355d33f67028152600481018690529051919093169263aba67ece92602480830193919282900301818387803b15801561022c57600080fd5b505af1158015610240573d6000803e3d6000fd5b505050505056fea165627a7a72305820ccd8dae253bbebe9cdfbcaf49e38515db2ce852578fe82bca1fef4218d97a8200029",
  "source": "pragma solidity 0.5.7;\n\nimport \"../Master.sol\";\nimport \"../interfaces/Iupgradable.sol\";\nimport \"./MockTokenController.sol\";\n\ncontract NewProxyInternalContract is Iupgradable {\n\tMockTokenController tc;\n\tMaster public ms;\n\n    function setMasterAddress() public {\n    \tms = Master(msg.sender);\n    }\n\n    function callDummyOnlyInternalFunction(uint _val) public {\n    \ttc = MockTokenController(ms.getLatestAddress('TC'));\n    \ttc.dummyOnlyInternalFunction(_val);\n    }\n\n    function changeDependentContractAddress() public {\n        require(ms.isInternal(msg.sender));\n    }\n}",
  "sourcePath": "/home/madan/Documents/PlotX/PlotxContract/contracts/mock/NewProxyInternalContract.sol",
  "compiler": {
    "name": "solc",
    "version": "0.5.7+commit.6da8b019.Emscripten.clang"
  },
  "schemaVersion": "3.3.2",
  "updatedAt": "2020-12-10T08:30:25.263Z",
  "devdoc": {
    "methods": {}
  },
  "userdoc": {
    "methods": {}
  }
}