{
  "contractName": "OwnedUpgradeabilityProxy",
  "abi": [
    {
      "constant": true,
      "inputs": [],
      "name": "implementation",
      "outputs": [
        {
          "name": "impl",
          "type": "address"
        }
      ],
      "payable": false,
      "stateMutability": "view",
      "type": "function"
    },
    {
      "inputs": [
        {
          "name": "_implementation",
          "type": "address"
        }
      ],
      "payable": false,
      "stateMutability": "nonpayable",
      "type": "constructor"
    },
    {
      "payable": true,
      "stateMutability": "payable",
      "type": "fallback"
    },
    {
      "anonymous": false,
      "inputs": [
        {
          "indexed": false,
          "name": "previousOwner",
          "type": "address"
        },
        {
          "indexed": false,
          "name": "newOwner",
          "type": "address"
        }
      ],
      "name": "ProxyOwnershipTransferred",
      "type": "event"
    },
    {
      "anonymous": false,
      "inputs": [
        {
          "indexed": true,
          "name": "implementation",
          "type": "address"
        }
      ],
      "name": "Upgraded",
      "type": "event"
    },
    {
      "constant": true,
      "inputs": [],
      "name": "proxyOwner",
      "outputs": [
        {
          "name": "owner",
          "type": "address"
        }
      ],
      "payable": false,
      "stateMutability": "view",
      "type": "function"
    },
    {
      "constant": false,
      "inputs": [
        {
          "name": "_newOwner",
          "type": "address"
        }
      ],
      "name": "transferProxyOwnership",
      "outputs": [],
      "payable": false,
      "stateMutability": "nonpayable",
      "type": "function"
    },
    {
      "constant": false,
      "inputs": [
        {
          "name": "_implementation",
          "type": "address"
        }
      ],
      "name": "upgradeTo",
      "outputs": [],
      "payable": false,
      "stateMutability": "nonpayable",
      "type": "function"
    }
  ],
  "bytecode": "0x608060405234801561001057600080fd5b506040516020806104d58339810180604052602081101561003057600080fd5b505161004233610057602090811b901c565b6100518161008c60201b60201c565b50610149565b604080517f6f72672e676f76626c6f636b732e70726f78792e6f776e6572000000000000008152905190819003601901902055565b600061009c61010460201b60201c565b9050816001600160a01b0316816001600160a01b031614156100bd57600080fd5b6100cc8261012760201b60201c565b6040516001600160a01b038316907fbc7cd75a20ee27fd9adebab32041f755214dbc6bffa90cc0225b39da2e5c2d3b90600090a25050565b60008060405180806104b360229139604051908190036022019020549392505050565b600060405180806104b360229139604051908190036022019020929092555050565b61035b806101586000396000f3fe60806040526004361061003f5760003560e01c8063025313a2146100835780633659cfe6146100b45780635c60da1b146100e9578063f1739cae146100fe575b6000610049610131565b90506001600160a01b03811661005e57600080fd5b60405136600082376000803683855af43d806000843e81801561007f578184f35b8184fd5b34801561008f57600080fd5b50610098610154565b604080516001600160a01b039092168252519081900360200190f35b3480156100c057600080fd5b506100e7600480360360208110156100d757600080fd5b50356001600160a01b031661018a565b005b3480156100f557600080fd5b50610098610131565b34801561010a57600080fd5b506100e76004803603602081101561012157600080fd5b50356001600160a01b03166101bb565b600080604051808061030e60229139604051908190036022019020549392505050565b604080517f6f72672e676f76626c6f636b732e70726f78792e6f776e657200000000000000815290519081900360190190205490565b610192610154565b6001600160a01b0316336001600160a01b0316146101af57600080fd5b6101b88161024a565b50565b6101c3610154565b6001600160a01b0316336001600160a01b0316146101e057600080fd5b6001600160a01b0381166101f357600080fd5b6101fc816102b6565b7f5a3e66efaa1e445ebd894728a69d6959842ea1e97bd79b892797106e270efcd9610225610154565b604080516001600160a01b03928316815291841660208301528051918290030190a150565b6000610254610131565b9050816001600160a01b0316816001600160a01b0316141561027557600080fd5b61027e826102eb565b6040516001600160a01b038316907fbc7cd75a20ee27fd9adebab32041f755214dbc6bffa90cc0225b39da2e5c2d3b90600090a25050565b604080517f6f72672e676f76626c6f636b732e70726f78792e6f776e6572000000000000008152905190819003601901902055565b6000604051808061030e6022913960405190819003602201902092909255505056fe6f72672e676f76626c6f636b732e70726f78792e696d706c656d656e746174696f6ea165627a7a723058200f44526e9d4e51a63c577631e6bccfb5df47ccf37f0e587a9bfe8cc59e5699ce00296f72672e676f76626c6f636b732e70726f78792e696d706c656d656e746174696f6e",
  "source": "pragma solidity 0.5.7;\n\nimport \"./UpgradeabilityProxy.sol\";\n\n\n/**\n * @title OwnedUpgradeabilityProxy\n * @dev This contract combines an upgradeability proxy with basic authorization control functionalities\n */\ncontract OwnedUpgradeabilityProxy is UpgradeabilityProxy {\n    /**\n    * @dev Event to show ownership has been transferred\n    * @param previousOwner representing the address of the previous owner\n    * @param newOwner representing the address of the new owner\n    */\n    event ProxyOwnershipTransferred(address previousOwner, address newOwner);\n\n    // Storage position of the owner of the contract\n    bytes32 private constant PROXY_OWNER_POSITION = keccak256(\"org.govblocks.proxy.owner\");\n\n    /**\n    * @dev the constructor sets the original owner of the contract to the sender account.\n    */\n    constructor(address _implementation) public {\n        _setUpgradeabilityOwner(msg.sender);\n        _upgradeTo(_implementation);\n    }\n\n    /**\n    * @dev Throws if called by any account other than the owner.\n    */\n    modifier onlyProxyOwner() {\n        require(msg.sender == proxyOwner());\n        _;\n    }\n\n    /**\n    * @dev Tells the address of the owner\n    * @return the address of the owner\n    */\n    function proxyOwner() public view returns (address owner) {\n        bytes32 position = PROXY_OWNER_POSITION;\n        assembly {\n            owner := sload(position)\n        }\n    }\n\n    /**\n    * @dev Allows the current owner to transfer control of the contract to a newOwner.\n    * @param _newOwner The address to transfer ownership to.\n    */\n    function transferProxyOwnership(address _newOwner) public onlyProxyOwner {\n        require(_newOwner != address(0));\n        _setUpgradeabilityOwner(_newOwner);\n        emit ProxyOwnershipTransferred(proxyOwner(), _newOwner);\n    }\n\n    /**\n    * @dev Allows the proxy owner to upgrade the current version of the proxy.\n    * @param _implementation representing the address of the new implementation to be set.\n    */\n    function upgradeTo(address _implementation) public onlyProxyOwner {\n        _upgradeTo(_implementation);\n    }\n\n    /**\n     * @dev Sets the address of the owner\n    */\n    function _setUpgradeabilityOwner(address _newProxyOwner) internal {\n        bytes32 position = PROXY_OWNER_POSITION;\n        assembly {\n            sstore(position, _newProxyOwner)\n        }\n    }\n}",
  "sourcePath": "/home/madan/Documents/PlotX/PlotxContract/contracts/external/proxy/OwnedUpgradeabilityProxy.sol",
  "compiler": {
    "name": "solc",
    "version": "0.5.7+commit.6da8b019.Emscripten.clang"
  },
  "schemaVersion": "3.3.2",
  "updatedAt": "2020-12-10T08:39:39.400Z",
  "networkType": "ethereum",
  "devdoc": {
    "details": "This contract combines an upgradeability proxy with basic authorization control functionalities",
    "methods": {
      "constructor": {
        "details": "the constructor sets the original owner of the contract to the sender account."
      },
      "implementation()": {
        "details": "Tells the address of the current implementation",
        "return": "address of the current implementation"
      },
      "proxyOwner()": {
        "details": "Tells the address of the owner",
        "return": "the address of the owner"
      },
      "transferProxyOwnership(address)": {
        "details": "Allows the current owner to transfer control of the contract to a newOwner.",
        "params": {
          "_newOwner": "The address to transfer ownership to."
        }
      },
      "upgradeTo(address)": {
        "details": "Allows the proxy owner to upgrade the current version of the proxy.",
        "params": {
          "_implementation": "representing the address of the new implementation to be set."
        }
      }
    },
    "title": "OwnedUpgradeabilityProxy"
  },
  "userdoc": {
    "methods": {}
  }
}