{
  "contractName": "PlotXToken",
  "abi": [
    {
      "constant": true,
      "inputs": [],
      "name": "name",
      "outputs": [
        {
          "name": "",
          "type": "string"
        }
      ],
      "payable": false,
      "stateMutability": "view",
      "type": "function"
    },
    {
      "constant": false,
      "inputs": [
        {
          "name": "userAddress",
          "type": "address"
        },
        {
          "name": "functionSignature",
          "type": "bytes"
        },
        {
          "name": "sigR",
          "type": "bytes32"
        },
        {
          "name": "sigS",
          "type": "bytes32"
        },
        {
          "name": "sigV",
          "type": "uint8"
        }
      ],
      "name": "executeMetaTransaction",
      "outputs": [
        {
          "name": "",
          "type": "bytes"
        }
      ],
      "payable": true,
      "stateMutability": "payable",
      "type": "function"
    },
    {
      "constant": true,
      "inputs": [],
      "name": "_msgSender",
      "outputs": [
        {
          "name": "sender",
          "type": "address"
        }
      ],
      "payable": false,
      "stateMutability": "view",
      "type": "function"
    },
    {
      "constant": true,
      "inputs": [
        {
          "name": "user",
          "type": "address"
        }
      ],
      "name": "getNonce",
      "outputs": [
        {
          "name": "nonce",
          "type": "uint256"
        }
      ],
      "payable": false,
      "stateMutability": "view",
      "type": "function"
    },
    {
      "constant": true,
      "inputs": [],
      "name": "decimals",
      "outputs": [
        {
          "name": "",
          "type": "uint8"
        }
      ],
      "payable": false,
      "stateMutability": "view",
      "type": "function"
    },
    {
      "constant": true,
      "inputs": [],
      "name": "getChainID",
      "outputs": [
        {
          "name": "",
          "type": "uint256"
        }
      ],
      "payable": false,
      "stateMutability": "pure",
      "type": "function"
    },
    {
      "constant": true,
      "inputs": [],
      "name": "operator",
      "outputs": [
        {
          "name": "",
          "type": "address"
        }
      ],
      "payable": false,
      "stateMutability": "view",
      "type": "function"
    },
    {
      "constant": true,
      "inputs": [
        {
          "name": "",
          "type": "address"
        }
      ],
      "name": "lockedForGV",
      "outputs": [
        {
          "name": "",
          "type": "uint256"
        }
      ],
      "payable": false,
      "stateMutability": "view",
      "type": "function"
    },
    {
      "constant": true,
      "inputs": [
        {
          "name": "owner",
          "type": "address"
        },
        {
          "name": "nonce",
          "type": "uint256"
        },
        {
          "name": "chainID",
          "type": "uint256"
        },
        {
          "name": "functionSignature",
          "type": "bytes"
        },
        {
          "name": "sigR",
          "type": "bytes32"
        },
        {
          "name": "sigS",
          "type": "bytes32"
        },
        {
          "name": "sigV",
          "type": "uint8"
        }
      ],
      "name": "verify",
      "outputs": [
        {
          "name": "",
          "type": "bool"
        }
      ],
      "payable": false,
      "stateMutability": "view",
      "type": "function"
    },
    {
      "constant": true,
      "inputs": [],
      "name": "symbol",
      "outputs": [
        {
          "name": "",
          "type": "string"
        }
      ],
      "payable": false,
      "stateMutability": "view",
      "type": "function"
    },
    {
      "inputs": [
        {
          "name": "_initialSupply",
          "type": "uint256"
        },
        {
          "name": "_initialTokenHolder",
          "type": "address"
        }
      ],
      "payable": false,
      "stateMutability": "nonpayable",
      "type": "constructor"
    },
    {
      "anonymous": false,
      "inputs": [
        {
          "indexed": true,
          "name": "from",
          "type": "address"
        },
        {
          "indexed": true,
          "name": "to",
          "type": "address"
        },
        {
          "indexed": false,
          "name": "value",
          "type": "uint256"
        }
      ],
      "name": "Transfer",
      "type": "event"
    },
    {
      "anonymous": false,
      "inputs": [
        {
          "indexed": true,
          "name": "owner",
          "type": "address"
        },
        {
          "indexed": true,
          "name": "spender",
          "type": "address"
        },
        {
          "indexed": false,
          "name": "value",
          "type": "uint256"
        }
      ],
      "name": "Approval",
      "type": "event"
    },
    {
      "anonymous": false,
      "inputs": [
        {
          "indexed": false,
          "name": "userAddress",
          "type": "address"
        },
        {
          "indexed": false,
          "name": "relayerAddress",
          "type": "address"
        },
        {
          "indexed": false,
          "name": "functionSignature",
          "type": "bytes"
        }
      ],
      "name": "MetaTransactionExecuted",
      "type": "event"
    },
    {
      "constant": false,
      "inputs": [
        {
          "name": "_newOperator",
          "type": "address"
        }
      ],
      "name": "changeOperator",
      "outputs": [
        {
          "name": "",
          "type": "bool"
        }
      ],
      "payable": false,
      "stateMutability": "nonpayable",
      "type": "function"
    },
    {
      "constant": false,
      "inputs": [
        {
          "name": "amount",
          "type": "uint256"
        }
      ],
      "name": "burn",
      "outputs": [],
      "payable": false,
      "stateMutability": "nonpayable",
      "type": "function"
    },
    {
      "constant": false,
      "inputs": [
        {
          "name": "spender",
          "type": "address"
        },
        {
          "name": "value",
          "type": "uint256"
        }
      ],
      "name": "approve",
      "outputs": [
        {
          "name": "",
          "type": "bool"
        }
      ],
      "payable": false,
      "stateMutability": "nonpayable",
      "type": "function"
    },
    {
      "constant": false,
      "inputs": [
        {
          "name": "spender",
          "type": "address"
        },
        {
          "name": "addedValue",
          "type": "uint256"
        }
      ],
      "name": "increaseAllowance",
      "outputs": [
        {
          "name": "",
          "type": "bool"
        }
      ],
      "payable": false,
      "stateMutability": "nonpayable",
      "type": "function"
    },
    {
      "constant": false,
      "inputs": [
        {
          "name": "spender",
          "type": "address"
        },
        {
          "name": "subtractedValue",
          "type": "uint256"
        }
      ],
      "name": "decreaseAllowance",
      "outputs": [
        {
          "name": "",
          "type": "bool"
        }
      ],
      "payable": false,
      "stateMutability": "nonpayable",
      "type": "function"
    },
    {
      "constant": false,
      "inputs": [
        {
          "name": "from",
          "type": "address"
        },
        {
          "name": "value",
          "type": "uint256"
        }
      ],
      "name": "burnFrom",
      "outputs": [],
      "payable": false,
      "stateMutability": "nonpayable",
      "type": "function"
    },
    {
      "constant": false,
      "inputs": [
        {
          "name": "account",
          "type": "address"
        },
        {
          "name": "amount",
          "type": "uint256"
        }
      ],
      "name": "mint",
      "outputs": [
        {
          "name": "",
          "type": "bool"
        }
      ],
      "payable": false,
      "stateMutability": "nonpayable",
      "type": "function"
    },
    {
      "constant": false,
      "inputs": [
        {
          "name": "to",
          "type": "address"
        },
        {
          "name": "value",
          "type": "uint256"
        }
      ],
      "name": "transfer",
      "outputs": [
        {
          "name": "",
          "type": "bool"
        }
      ],
      "payable": false,
      "stateMutability": "nonpayable",
      "type": "function"
    },
    {
      "constant": false,
      "inputs": [
        {
          "name": "from",
          "type": "address"
        },
        {
          "name": "to",
          "type": "address"
        },
        {
          "name": "value",
          "type": "uint256"
        }
      ],
      "name": "transferFrom",
      "outputs": [
        {
          "name": "",
          "type": "bool"
        }
      ],
      "payable": false,
      "stateMutability": "nonpayable",
      "type": "function"
    },
    {
      "constant": false,
      "inputs": [
        {
          "name": "_of",
          "type": "address"
        },
        {
          "name": "_period",
          "type": "uint256"
        }
      ],
      "name": "lockForGovernanceVote",
      "outputs": [],
      "payable": false,
      "stateMutability": "nonpayable",
      "type": "function"
    },
    {
      "constant": true,
      "inputs": [
        {
          "name": "_of",
          "type": "address"
        }
      ],
      "name": "isLockedForGV",
      "outputs": [
        {
          "name": "",
          "type": "bool"
        }
      ],
      "payable": false,
      "stateMutability": "view",
      "type": "function"
    },
    {
      "constant": true,
      "inputs": [],
      "name": "totalSupply",
      "outputs": [
        {
          "name": "",
          "type": "uint256"
        }
      ],
      "payable": false,
      "stateMutability": "view",
      "type": "function"
    },
    {
      "constant": true,
      "inputs": [
        {
          "name": "account",
          "type": "address"
        }
      ],
      "name": "balanceOf",
      "outputs": [
        {
          "name": "",
          "type": "uint256"
        }
      ],
      "payable": false,
      "stateMutability": "view",
      "type": "function"
    },
    {
      "constant": true,
      "inputs": [
        {
          "name": "owner",
          "type": "address"
        },
        {
          "name": "spender",
          "type": "address"
        }
      ],
      "name": "allowance",
      "outputs": [
        {
          "name": "",
          "type": "uint256"
        }
      ],
      "payable": false,
      "stateMutability": "view",
      "type": "function"
    }
  ],
  "bytecode": "0x60c0604052600460808190527f504c4f540000000000000000000000000000000000000000000000000000000060a0908152620000409160059190620002aa565b506040805180820190915260048082527f504c4f540000000000000000000000000000000000000000000000000000000060209092019182526200008791600691620002aa565b506007805460ff19166012179055348015620000a257600080fd5b5060405160408062001c8383398101806040526040811015620000c457600080fd5b5080516020918201519091620000e290829084906200010f811b901c565b600780546001600160a01b0390921661010002610100600160a81b0319909216919091179055506200034f565b6001600160a01b0382166200018557604080517f08c379a000000000000000000000000000000000000000000000000000000000815260206004820152601f60248201527f45524332303a206d696e7420746f20746865207a65726f206164647265737300604482015290519081900360640190fd5b620001a1816004546200022e60201b620013501790919060201c565b6004556001600160a01b038216600090815260026020908152604090912054620001d6918390620013506200022e821b17901c565b6001600160a01b03831660008181526002602090815260408083209490945583518581529351929391927fddf252ad1be2c89b69c2b068fc378daa952ba7f163c4a11628f55a4df523b3ef9281900390910190a35050565b600082820183811015620002a357604080517f08c379a000000000000000000000000000000000000000000000000000000000815260206004820152601b60248201527f536166654d6174683a206164646974696f6e206f766572666c6f770000000000604482015290519081900360640190fd5b9392505050565b828054600181600116156101000203166002900490600052602060002090601f016020900481019282601f10620002ed57805160ff19168380011785556200031d565b828001600101855582156200031d579182015b828111156200031d57825182559160200191906001019062000300565b506200032b9291506200032f565b5090565b6200034c91905b808211156200032b576000815560010162000336565b90565b611924806200035f6000396000f3fe60806040526004361061014b5760003560e01c8063564b81ef116100b657806395d89b411161006f57806395d89b411461065b578063a457c2d714610670578063a9059cbb146106a9578063dd62ed3e146106e2578063e8176caa1461071d578063f8023eb3146107565761014b565b8063564b81ef146104b5578063570ca735146104ca5780636172983b146104df5780636281133d1461051257806370a08231146105ef57806379cc6790146106225761014b565b806323b872dd1161010857806323b872dd146103765780632d0335ab146103b9578063313ce567146103ec578063395093511461041757806340c10f191461045057806342966c68146104895761014b565b806306394c9b1461015057806306fdde0314610197578063095ea7b3146102215780630c53c51c1461025a578063119df25f1461031e57806318160ddd1461034f575b600080fd5b34801561015c57600080fd5b506101836004803603602081101561017357600080fd5b50356001600160a01b0316610789565b604080519115158252519081900360200190f35b3480156101a357600080fd5b506101ac61087d565b6040805160208082528351818301528351919283929083019185019080838360005b838110156101e65781810151838201526020016101ce565b50505050905090810190601f1680156102135780820380516001836020036101000a031916815260200191505b509250505060405180910390f35b34801561022d57600080fd5b506101836004803603604081101561024457600080fd5b506001600160a01b03813516906020013561090b565b6101ac600480360360a081101561027057600080fd5b6001600160a01b03823516919081019060408101602082013564010000000081111561029b57600080fd5b8201836020820111156102ad57600080fd5b803590602001918460018302840111640100000000831117156102cf57600080fd5b91908080601f016020809104026020016040519081016040528093929190818152602001838380828437600092019190915250929550508235935050506020810135906040013560ff16610928565b34801561032a57600080fd5b50610333610c3a565b604080516001600160a01b039092168252519081900360200190f35b34801561035b57600080fd5b50610364610c98565b60408051918252519081900360200190f35b34801561038257600080fd5b506101836004803603606081101561039957600080fd5b506001600160a01b03813581169160208101359091169060400135610c9e565b3480156103c557600080fd5b50610364600480360360208110156103dc57600080fd5b50356001600160a01b0316610d22565b3480156103f857600080fd5b50610401610d3d565b6040805160ff9092168252519081900360200190f35b34801561042357600080fd5b506101836004803603604081101561043a57600080fd5b506001600160a01b038135169060200135610d46565b34801561045c57600080fd5b506101836004803603604081101561047357600080fd5b506001600160a01b038135169060200135610d9f565b34801561049557600080fd5b506104b3600480360360208110156104ac57600080fd5b5035610e15565b005b3480156104c157600080fd5b50610364610e29565b3480156104d657600080fd5b50610333610e2e565b3480156104eb57600080fd5b506103646004803603602081101561050257600080fd5b50356001600160a01b0316610e42565b34801561051e57600080fd5b50610183600480360360e081101561053557600080fd5b6001600160a01b03823516916020810135916040820135919081019060808101606082013564010000000081111561056c57600080fd5b82018360208201111561057e57600080fd5b803590602001918460018302840111640100000000831117156105a057600080fd5b91908080601f016020809104026020016040519081016040528093929190818152602001838380828437600092019190915250929550508235935050506020810135906040013560ff16610e54565b3480156105fb57600080fd5b506103646004803603602081101561061257600080fd5b50356001600160a01b0316610fe2565b34801561062e57600080fd5b506104b36004803603604081101561064557600080fd5b506001600160a01b038135169060200135610ffd565b34801561066757600080fd5b506101ac61100b565b34801561067c57600080fd5b506101836004803603604081101561069357600080fd5b506001600160a01b038135169060200135611066565b3480156106b557600080fd5b50610183600480360360408110156106cc57600080fd5b506001600160a01b0381351690602001356110ba565b3480156106ee57600080fd5b506103646004803603604081101561070557600080fd5b506001600160a01b0381358116916020013516611151565b34801561072957600080fd5b506104b36004803603604081101561074057600080fd5b506001600160a01b03813516906020013561117c565b34801561076257600080fd5b506101836004803603602081101561077957600080fd5b50356001600160a01b0316611241565b60075460009061010090046001600160a01b03166107a5610c3a565b6001600160a01b0316146107f55760408051600160e51b62461bcd02815260206004820152600c6024820152600160a11b6b2737ba1037b832b930ba37b902604482015290519081900360640190fd5b6001600160a01b0382166108535760408051600160e51b62461bcd02815260206004820181905260248201527f4e6577206f70657261746f722063616e6e6f7420626520302061646472657373604482015290519081900360640190fd5b50600780546001600160a01b03831661010002610100600160a81b03199091161790556001919050565b6005805460408051602060026001851615610100026000190190941693909304601f810184900484028201840190925281815292918301828280156109035780601f106108d857610100808354040283529160200191610903565b820191906000526020600020905b8154815290600101906020018083116108e657829003601f168201915b505050505081565b600061091f610918610c3a565b848461125e565b50600192915050565b6001600160a01b03851660009081526020819052604090205460609061095b908790610952610e29565b88888888610e54565b61099957604051600160e51b62461bcd02815260040180806020018281038252602181526020018061186e6021913960400191505060405180910390fd5b6001600160a01b0386166000908152602081905260409020546109c390600163ffffffff61135016565b600080886001600160a01b03166001600160a01b031681526020019081526020016000208190555060006060306001600160a01b031687896040516020018083805190602001908083835b60208310610a2d5780518252601f199092019160209182019101610a0e565b51815160209384036101000a60001901801990921691161790526001600160a01b039590951660601b92019182525060408051808303600b190181526014909201908190528151919450928392508401908083835b60208310610aa15780518252601f199092019160209182019101610a82565b6001836020036101000a0380198251168184511680821785525050505050509050019150506000604051808303816000865af19150503d8060008114610b03576040519150601f19603f3d011682016040523d82523d6000602084013e610b08565b606091505b509150915081610b625760408051600160e51b62461bcd02815260206004820152601c60248201527f46756e6374696f6e2063616c6c206e6f74207375636365737366756c00000000604482015290519081900360640190fd5b7f5845892132946850460bff5a0083f71031bc5bf9aadcd40f1de79423eac9b10b88338960405180846001600160a01b03166001600160a01b03168152602001836001600160a01b03166001600160a01b0316815260200180602001828103825283818151815260200191508051906020019080838360005b83811015610bf3578181015183820152602001610bdb565b50505050905090810190601f168015610c205780820380516001836020036101000a031916815260200191505b5094505050505060405180910390a1979650505050505050565b600033301415610c925760606000368080601f0160208091040260200160405190810160405280939291908181526020018383808284376000920191909152505050503601516001600160a01b03169150610c959050565b50335b90565b60045490565b6001600160a01b0383166000908152600160205260408120544211610d0d5760408051600160e51b62461bcd02815260206004820152601560248201527f4c6f636b656420666f7220676f7665726e616e63650000000000000000000000604482015290519081900360640190fd5b610d188484846113b4565b5060019392505050565b6001600160a01b031660009081526020819052604090205490565b60075460ff1681565b600061091f610d53610c3a565b84610d9a8560036000610d64610c3a565b6001600160a01b03908116825260208083019390935260409182016000908120918c16815292529020549063ffffffff61135016565b61125e565b60075460009061010090046001600160a01b0316610dbb610c3a565b6001600160a01b031614610e0b5760408051600160e51b62461bcd02815260206004820152600c6024820152600160a11b6b2737ba1037b832b930ba37b902604482015290519081900360640190fd5b61091f838361141d565b610e26610e20610c3a565b82611512565b50565b608990565b60075461010090046001600160a01b031681565b60016020526000908152604090205481565b600080610efa8830898960405160200180858152602001846001600160a01b03166001600160a01b031660601b815260140183815260200182805190602001908083835b60208310610eb75780518252601f199092019160209182019101610e98565b6001836020036101000a038019825116818451168082178552505050505050905001945050505050604051602081830303815290604052805190602001206115f0565b9050600060018285888860405160008152602001604052604051808581526020018460ff1660ff1681526020018381526020018281526020019450505050506020604051602081039080840390855afa158015610f5b573d6000803e3d6000fd5b5050604051601f1901519150506001600160a01b038116610fc65760408051600160e51b62461bcd02815260206004820152601160248201527f496e76616c6964207369676e6174757265000000000000000000000000000000604482015290519081900360640190fd5b6001600160a01b038a8116911614915050979650505050505050565b6001600160a01b031660009081526002602052604090205490565b6110078282611641565b5050565b6006805460408051602060026001851615610100026000190190941693909304601f810184900484028201840190925281815292918301828280156109035780601f106108d857610100808354040283529160200191610903565b600061091f611073610c3a565b84610d9a8560036000611084610c3a565b6001600160a01b03908116825260208083019390935260409182016000908120918c16815292529020549063ffffffff61167e16565b600042600160006110c9610c3a565b6001600160a01b03166001600160a01b03168152602001908152602001600020541061113f5760408051600160e51b62461bcd02815260206004820152601560248201527f4c6f636b656420666f7220676f7665726e616e63650000000000000000000000604482015290519081900360640190fd5b61091f61114a610c3a565b84846116de565b6001600160a01b03918216600090815260036020908152604080832093909416825291909152205490565b60075461010090046001600160a01b0316611195610c3a565b6001600160a01b0316146111e55760408051600160e51b62461bcd02815260206004820152600c6024820152600160a11b6b2737ba1037b832b930ba37b902604482015290519081900360640190fd5b6001600160a01b03821660009081526001602052604090205461120e824263ffffffff61135016565b111561100757611224814263ffffffff61135016565b6001600160a01b0383166000908152600160205260409020555050565b6001600160a01b0316600090815260016020526040902054421090565b6001600160a01b0383166112a657604051600160e51b62461bcd0281526004018080602001828103825260248152602001806118d56024913960400191505060405180910390fd5b6001600160a01b0382166112ee57604051600160e51b62461bcd02815260040180806020018281038252602281526020018061184c6022913960400191505060405180910390fd5b6001600160a01b03808416600081815260036020908152604080832094871680845294825291829020859055815185815291517f8c5be1e5ebec7d5bd14f71427d1e84f3dd0314c0f7b2291e5b200ac8c7c3b9259281900390910190a3505050565b6000828201838110156113ad5760408051600160e51b62461bcd02815260206004820152601b60248201527f536166654d6174683a206164646974696f6e206f766572666c6f770000000000604482015290519081900360640190fd5b9392505050565b6113bf8383836116de565b611418836113cb610c3a565b6001600160a01b0386166000908152600360205260408120610d9a918691906113f2610c3a565b6001600160a01b031681526020810191909152604001600020549063ffffffff61167e16565b505050565b6001600160a01b03821661147b5760408051600160e51b62461bcd02815260206004820152601f60248201527f45524332303a206d696e7420746f20746865207a65726f206164647265737300604482015290519081900360640190fd5b60045461148e908263ffffffff61135016565b6004556001600160a01b0382166000908152600260205260409020546114ba908263ffffffff61135016565b6001600160a01b03831660008181526002602090815260408083209490945583518581529351929391927fddf252ad1be2c89b69c2b068fc378daa952ba7f163c4a11628f55a4df523b3ef9281900390910190a35050565b6001600160a01b03821661155a57604051600160e51b62461bcd02815260040180806020018281038252602181526020018061188f6021913960400191505060405180910390fd5b60045461156d908263ffffffff61167e16565b6004556001600160a01b038216600090815260026020526040902054611599908263ffffffff61167e16565b6001600160a01b0383166000818152600260209081526040808320949094558351858152935191937fddf252ad1be2c89b69c2b068fc378daa952ba7f163c4a11628f55a4df523b3ef929081900390910190a35050565b604080517f19457468657265756d205369676e6564204d6573736167653a0a333200000000602080830191909152603c8083019490945282518083039094018452605c909101909152815191012090565b61164b8282611512565b61100782611657610c3a565b6001600160a01b0385166000908152600360205260408120610d9a918691906113f2610c3a565b6000828211156116d85760408051600160e51b62461bcd02815260206004820152601e60248201527f536166654d6174683a207375627472616374696f6e206f766572666c6f770000604482015290519081900360640190fd5b50900390565b6001600160a01b03831661172657604051600160e51b62461bcd0281526004018080602001828103825260258152602001806118b06025913960400191505060405180910390fd5b6001600160a01b03821661176e57604051600160e51b62461bcd0281526004018080602001828103825260238152602001806118296023913960400191505060405180910390fd5b6001600160a01b038316600090815260026020526040902054611797908263ffffffff61167e16565b6001600160a01b0380851660009081526002602052604080822093909355908416815220546117cc908263ffffffff61135016565b6001600160a01b0380841660008181526002602090815260409182902094909455805185815290519193928716927fddf252ad1be2c89b69c2b068fc378daa952ba7f163c4a11628f55a4df523b3ef92918290030190a350505056fe45524332303a207472616e7366657220746f20746865207a65726f206164647265737345524332303a20617070726f766520746f20746865207a65726f20616464726573735369676e657220616e64207369676e617475726520646f206e6f74206d6174636845524332303a206275726e2066726f6d20746865207a65726f206164647265737345524332303a207472616e736665722066726f6d20746865207a65726f206164647265737345524332303a20617070726f76652066726f6d20746865207a65726f2061646472657373a165627a7a72305820ef5fc8b89bd6bab551ef932fd8820e1bf615823b8f99d583f4e8b8931160d12d0029",
  "source": "/* Copyright (C) 2020 PlotX.io\n\n  This program is free software: you can redistribute it and/or modify\n    it under the terms of the GNU General Public License as published by\n    the Free Software Foundation, either version 3 of the License, or\n    (at your option) any later version.\n\n  This program is distributed in the hope that it will be useful,\n    but WITHOUT ANY WARRANTY; without even the implied warranty of\n    MERCHANTABILITY or FITNESS FOR A PARTICULAR PURPOSE.  See the\n    GNU General Public License for more details.\n\n  You should have received a copy of the GNU General Public License\n    along with this program.  If not, see http://www.gnu.org/licenses/ */\n\npragma solidity 0.5.7;\n\nimport \"./external/openzeppelin-solidity/token/ERC20/IERC20.sol\";\nimport \"./external/openzeppelin-solidity/math/SafeMath.sol\";\nimport \"./external/BasicMetaTransaction.sol\";\n\ncontract PlotXToken is IERC20, BasicMetaTransaction {\n    using SafeMath for uint256;\n\n    mapping(address => uint256) public lockedForGV;\n\n    mapping (address => uint256) internal _balances;\n\n    mapping (address => mapping (address => uint256)) private _allowances;\n\n    uint256 private _totalSupply;\n\n    /**\n     * @dev Emitted when `value` tokens are moved from one account (`from`) to\n     * another (`to`).\n     *\n     * Note that `value` may be zero.\n     */\n    event Transfer(address indexed from, address indexed to, uint256 value);\n\n    /**\n     * @dev Emitted when the allowance of a `spender` for an `owner` is set by\n     * a call to `approve`. `value` is the new allowance.\n     */\n    event Approval(address indexed owner, address indexed spender, uint256 value);\n    \n\n    string public name = \"PLOT\";\n    string public symbol = \"PLOT\";\n    uint8 public decimals = 18;\n    address public operator;\n\n    modifier onlyOperator() {\n        require(_msgSender() == operator, \"Not operator\");\n        _;\n    }\n\n    /**\n     * @dev Initialize PLOT token\n     * @param _initialSupply Initial token supply\n     * @param _initialTokenHolder Initial token holder address\n     */\n    constructor(uint256 _initialSupply, address _initialTokenHolder) public {\n        _mint(_initialTokenHolder, _initialSupply);\n        operator = _initialTokenHolder;\n    }\n\n    /**\n     * @dev change operator address\n     * @param _newOperator address of new operator\n     */\n    function changeOperator(address _newOperator)\n        public\n        onlyOperator\n        returns (bool)\n    {\n        require(_newOperator != address(0), \"New operator cannot be 0 address\");\n        operator = _newOperator;\n        return true;\n    }\n\n    /**\n     * @dev burns an amount of the tokens of the message sender\n     * account.\n     * @param amount The amount that will be burnt.\n     */\n    function burn(uint256 amount) public {\n        _burn(_msgSender(), amount);\n    }\n\n    function approve(address spender, uint256 value) public returns (bool) {\n        _approve(_msgSender(), spender, value);\n        return true;\n    }\n\n    function increaseAllowance(address spender, uint256 addedValue) public returns (bool) {\n        _approve(_msgSender(), spender, _allowances[_msgSender()][spender].add(addedValue));\n        return true;\n    }\n\n    function decreaseAllowance(address spender, uint256 subtractedValue) public returns (bool) {\n        _approve(_msgSender(), spender, _allowances[_msgSender()][spender].sub(subtractedValue));\n        return true;\n    }\n\n    /**\n     * @dev Burns a specific amount of tokens from the target address and decrements allowance\n     * @param from address The address which you want to send tokens from\n     * @param value uint256 The amount of token to be burned\n     */\n    function burnFrom(address from, uint256 value) public {\n        _burnFrom(from, value);\n    }\n\n    /**\n     * @dev function that mints an amount of the token and assigns it to\n     * an account.\n     * @param account The account that will receive the created tokens.\n     * @param amount The amount that will be created.\n     */\n    function mint(address account, uint256 amount)\n        public\n        onlyOperator\n        returns (bool)\n    {\n        _mint(account, amount);\n        return true;\n    }\n\n    /**\n     * @dev Transfer token for a specified address\n     * @param to The address to transfer to.\n     * @param value The amount to be transferred.\n     */\n    function transfer(address to, uint256 value) public returns (bool) {\n        require(lockedForGV[_msgSender()] < now, \"Locked for governance\"); // if not voted under governance\n        _transfer(_msgSender(), to, value);\n        return true;\n    }\n\n    /**\n     * @dev Transfer tokens from one address to another\n     * @param from address The address which you want to send tokens from\n     * @param to address The address which you want to transfer to\n     * @param value uint256 the amount of tokens to be transferred\n     */\n    function transferFrom(\n        address from,\n        address to,\n        uint256 value\n    ) public returns (bool) {\n        require(lockedForGV[from] < now, \"Locked for governance\"); // if not voted under governance\n        _transferFrom(from, to, value);\n        return true;\n    }\n\n    /**\n     * @dev Lock the user's tokens\n     * @param _of user's address.\n     */\n    function lockForGovernanceVote(address _of, uint256 _period)\n        public\n        onlyOperator\n    {\n        if (_period.add(now) > lockedForGV[_of])\n            lockedForGV[_of] = _period.add(now);\n    }\n\n    function isLockedForGV(address _of) public view returns (bool) {\n        return (lockedForGV[_of] > now);\n    }\n\n    /**\n     * @dev See `IERC20.totalSupply`.\n     */\n    function totalSupply() public view returns (uint256) {\n        return _totalSupply;\n    }\n\n    /**\n     * @dev See `IERC20.balanceOf`.\n     */\n    function balanceOf(address account) public view returns (uint256) {\n        return _balances[account];\n    }\n\n    /**\n     * @dev See `IERC20.allowance`.\n     */\n    function allowance(address owner, address spender) public view returns (uint256) {\n        return _allowances[owner][spender];\n    }\n\n    /** @dev Creates `amount` tokens and assigns them to `account`, increasing\n     * the total supply.\n     *\n     * Emits a `Transfer` event with `from` set to the zero address.\n     *\n     * Requirements\n     *\n     * - `to` cannot be the zero address.\n     */\n    function _mint(address account, uint256 amount) internal {\n        require(account != address(0), \"ERC20: mint to the zero address\");\n\n        _totalSupply = _totalSupply.add(amount);\n        _balances[account] = _balances[account].add(amount);\n        emit Transfer(address(0), account, amount);\n    }\n\n    /**\n     * @dev Destoys `amount` tokens from `account`, reducing the\n     * total supply.\n     *\n     * Emits a `Transfer` event with `to` set to the zero address.\n     *\n     * Requirements\n     *\n     * - `account` cannot be the zero address.\n     * - `account` must have at least `amount` tokens.\n     */\n    function _burn(address account, uint256 value) internal {\n        require(account != address(0), \"ERC20: burn from the zero address\");\n\n        _totalSupply = _totalSupply.sub(value);\n        _balances[account] = _balances[account].sub(value);\n        emit Transfer(account, address(0), value);\n    }\n\n    /**\n     * @dev Sets `amount` as the allowance of `spender` over the `owner`s tokens.\n     *\n     * This is internal function is equivalent to `approve`, and can be used to\n     * e.g. set automatic allowances for certain subsystems, etc.\n     *\n     * Emits an `Approval` event.\n     *\n     * Requirements:\n     *\n     * - `owner` cannot be the zero address.\n     * - `spender` cannot be the zero address.\n     */\n    function _approve(address owner, address spender, uint256 value) internal {\n        require(owner != address(0), \"ERC20: approve from the zero address\");\n        require(spender != address(0), \"ERC20: approve to the zero address\");\n\n        _allowances[owner][spender] = value;\n        emit Approval(owner, spender, value);\n    }\n\n    /**\n     * @dev Destoys `amount` tokens from `account`.`amount` is then deducted\n     * from the caller's allowance.\n     *\n     * See `_burn` and `_approve`.\n     */\n    function _burnFrom(address account, uint256 amount) internal {\n        _burn(account, amount);\n        _approve(account, _msgSender(), _allowances[account][_msgSender()].sub(amount));\n    }\n\n    /**\n     * @dev Moves tokens `amount` from `sender` to `recipient`.\n     *\n     * This is internal function is equivalent to `transfer`, and can be used to\n     * e.g. implement automatic token fees, slashing mechanisms, etc.\n     *\n     * Emits a `Transfer` event.\n     *\n     * Requirements:\n     *\n     * - `sender` cannot be the zero address.\n     * - `recipient` cannot be the zero address.\n     * - `sender` must have a balance of at least `amount`.\n     */\n    function _transfer(address sender, address recipient, uint256 amount) internal {\n        require(sender != address(0), \"ERC20: transfer from the zero address\");\n        require(recipient != address(0), \"ERC20: transfer to the zero address\");\n\n        _balances[sender] = _balances[sender].sub(amount);\n        _balances[recipient] = _balances[recipient].add(amount);\n        emit Transfer(sender, recipient, amount);\n    }\n\n    /**\n     * @dev Moves tokens `amount` from `sender` to `recipient`.\n     *\n     * Emits an `Approval` event indicating the updated allowance. This is not\n     * required by the EIP. See the note at the beginning of `ERC20`;\n     *\n     * Requirements:\n     * - `sender` and `recipient` cannot be the zero address.\n     * - `sender` must have a balance of at least `value`.\n     * - the caller must have allowance for `sender`'s tokens of at least\n     * `amount`.\n     */\n    function _transferFrom(address sender, address recipient, uint256 amount) internal {\n        _transfer(sender, recipient, amount);\n        _approve(sender, _msgSender(), _allowances[sender][_msgSender()].sub(amount));\n    }\n}\n",
  "sourcePath": "/home/madan/Documents/PlotX/PlotxContract/contracts/PlotXToken.sol",
  "compiler": {
    "name": "solc",
    "version": "0.5.7+commit.6da8b019.Emscripten.clang"
  },
  "schemaVersion": "3.3.2",
  "updatedAt": "2020-12-10T08:30:24.929Z",
  "devdoc": {
    "methods": {
      "allowance(address,address)": {
        "details": "See `IERC20.allowance`."
      },
      "balanceOf(address)": {
        "details": "See `IERC20.balanceOf`."
      },
      "burn(uint256)": {
        "details": "burns an amount of the tokens of the message sender account.",
        "params": {
          "amount": "The amount that will be burnt."
        }
      },
      "burnFrom(address,uint256)": {
        "details": "Burns a specific amount of tokens from the target address and decrements allowance",
        "params": {
          "from": "address The address which you want to send tokens from",
          "value": "uint256 The amount of token to be burned"
        }
      },
      "changeOperator(address)": {
        "details": "change operator address",
        "params": {
          "_newOperator": "address of new operator"
        }
      },
      "constructor": {
        "details": "Initialize PLOT token",
        "params": {
          "_initialSupply": "Initial token supply",
          "_initialTokenHolder": "Initial token holder address"
        }
      },
      "executeMetaTransaction(address,bytes,bytes32,bytes32,uint8)": {
        "params": {
          "functionSignature": "Signature of the actual function to be called via meta transaction",
          "sigR": "R part of the signature",
          "sigS": "S part of the signature",
          "sigV": "V part of the signature",
          "userAddress": "Address of user trying to do meta transaction"
        }
      },
      "lockForGovernanceVote(address,uint256)": {
        "details": "Lock the user's tokens",
        "params": {
          "_of": "user's address."
        }
      },
      "mint(address,uint256)": {
        "details": "function that mints an amount of the token and assigns it to an account.",
        "params": {
          "account": "The account that will receive the created tokens.",
          "amount": "The amount that will be created."
        }
      },
      "totalSupply()": {
        "details": "See `IERC20.totalSupply`."
      },
      "transfer(address,uint256)": {
        "details": "Transfer token for a specified address",
        "params": {
          "to": "The address to transfer to.",
          "value": "The amount to be transferred."
        }
      },
      "transferFrom(address,address,uint256)": {
        "details": "Transfer tokens from one address to another",
        "params": {
          "from": "address The address which you want to send tokens from",
          "to": "address The address which you want to transfer to",
          "value": "uint256 the amount of tokens to be transferred"
        }
      }
    }
  },
  "userdoc": {
    "methods": {
      "executeMetaTransaction(address,bytes,bytes32,bytes32,uint8)": {
        "notice": "Main function to be called when user wants to execute meta transaction. The actual function to be called should be passed as param with name functionSignature Here the basic signature recovery is being used. Signature is expected to be generated using personal_sign method."
      }
    }
  }
}