{
  "contractName": "ProposalCategory",
  "abi": [
    {
      "constant": true,
      "inputs": [
        {
          "name": "_toCheck",
          "type": "address"
        }
      ],
      "name": "isAuthorizedToGovern",
      "outputs": [
        {
          "name": "",
          "type": "bool"
        }
      ],
      "payable": false,
      "stateMutability": "view",
      "type": "function"
    },
    {
      "constant": true,
      "inputs": [],
      "name": "constructorCheck",
      "outputs": [
        {
          "name": "",
          "type": "bool"
        }
      ],
      "payable": false,
      "stateMutability": "view",
      "type": "function"
    },
    {
      "constant": true,
      "inputs": [
        {
          "name": "",
          "type": "uint256"
        }
      ],
      "name": "categoryActionHashes",
      "outputs": [
        {
          "name": "",
          "type": "bytes"
        }
      ],
      "payable": false,
      "stateMutability": "view",
      "type": "function"
    },
    {
      "constant": true,
      "inputs": [],
      "name": "initiated",
      "outputs": [
        {
          "name": "",
          "type": "bool"
        }
      ],
      "payable": false,
      "stateMutability": "view",
      "type": "function"
    },
    {
      "constant": true,
      "inputs": [],
      "name": "masterAddress",
      "outputs": [
        {
          "name": "",
          "type": "address"
        }
      ],
      "payable": false,
      "stateMutability": "view",
      "type": "function"
    },
    {
      "anonymous": false,
      "inputs": [
        {
          "indexed": true,
          "name": "categoryId",
          "type": "uint256"
        },
        {
          "indexed": false,
          "name": "categoryName",
          "type": "string"
        },
        {
          "indexed": false,
          "name": "actionHash",
          "type": "string"
        }
      ],
      "name": "Category",
      "type": "event"
    },
    {
      "constant": false,
      "inputs": [],
      "name": "proposalCategoryInitiate",
      "outputs": [],
      "payable": false,
      "stateMutability": "nonpayable",
      "type": "function"
    },
    {
      "constant": true,
      "inputs": [],
      "name": "totalCategories",
      "outputs": [
        {
          "name": "",
          "type": "uint256"
        }
      ],
      "payable": false,
      "stateMutability": "view",
      "type": "function"
    },
    {
      "constant": true,
      "inputs": [
        {
          "name": "_categoryId",
          "type": "uint256"
        }
      ],
      "name": "category",
      "outputs": [
        {
          "name": "",
          "type": "uint256"
        },
        {
          "name": "",
          "type": "uint256"
        },
        {
          "name": "",
          "type": "uint256"
        },
        {
          "name": "",
          "type": "uint256"
        },
        {
          "name": "",
          "type": "uint256[]"
        },
        {
          "name": "",
          "type": "uint256"
        },
        {
          "name": "",
          "type": "uint256"
        }
      ],
      "payable": false,
      "stateMutability": "view",
      "type": "function"
    },
    {
      "constant": true,
      "inputs": [
        {
          "name": "_categoryId",
          "type": "uint256"
        }
      ],
      "name": "categoryAction",
      "outputs": [
        {
          "name": "",
          "type": "uint256"
        },
        {
          "name": "",
          "type": "address"
        },
        {
          "name": "",
          "type": "bytes2"
        },
        {
          "name": "",
          "type": "uint256"
        }
      ],
      "payable": false,
      "stateMutability": "view",
      "type": "function"
    },
    {
      "constant": true,
      "inputs": [
        {
          "name": "_categoryId",
          "type": "uint256"
        }
      ],
      "name": "categoryActionDetails",
      "outputs": [
        {
          "name": "",
          "type": "uint256"
        },
        {
          "name": "",
          "type": "address"
        },
        {
          "name": "",
          "type": "bytes2"
        },
        {
          "name": "",
          "type": "uint256"
        },
        {
          "name": "",
          "type": "bytes"
        }
      ],
      "payable": false,
      "stateMutability": "view",
      "type": "function"
    },
    {
      "constant": false,
      "inputs": [],
      "name": "setMasterAddress",
      "outputs": [],
      "payable": false,
      "stateMutability": "nonpayable",
      "type": "function"
    },
    {
      "constant": false,
      "inputs": [
        {
          "name": "_name",
          "type": "string"
        },
        {
          "name": "_memberRoleToVote",
          "type": "uint256"
        },
        {
          "name": "_majorityVotePerc",
          "type": "uint256"
        },
        {
          "name": "_quorumPerc",
          "type": "uint256"
        },
        {
          "name": "_allowedToCreateProposal",
          "type": "uint256[]"
        },
        {
          "name": "_closingTime",
          "type": "uint256"
        },
        {
          "name": "_actionHash",
          "type": "string"
        },
        {
          "name": "_contractAddress",
          "type": "address"
        },
        {
          "name": "_contractName",
          "type": "bytes2"
        },
        {
          "name": "_incentives",
          "type": "uint256[]"
        },
        {
          "name": "_functionHash",
          "type": "string"
        }
      ],
      "name": "newCategory",
      "outputs": [],
      "payable": false,
      "stateMutability": "nonpayable",
      "type": "function"
    },
    {
      "constant": false,
      "inputs": [
        {
          "name": "_categoryId",
          "type": "uint256"
        },
        {
          "name": "_name",
          "type": "string"
        },
        {
          "name": "_memberRoleToVote",
          "type": "uint256"
        },
        {
          "name": "_majorityVotePerc",
          "type": "uint256"
        },
        {
          "name": "_quorumPerc",
          "type": "uint256"
        },
        {
          "name": "_allowedToCreateProposal",
          "type": "uint256[]"
        },
        {
          "name": "_closingTime",
          "type": "uint256"
        },
        {
          "name": "_actionHash",
          "type": "string"
        },
        {
          "name": "_contractAddress",
          "type": "address"
        },
        {
          "name": "_contractName",
          "type": "bytes2"
        },
        {
          "name": "_incentives",
          "type": "uint256[]"
        },
        {
          "name": "_functionHash",
          "type": "string"
        }
      ],
      "name": "editCategory",
      "outputs": [],
      "payable": false,
      "stateMutability": "nonpayable",
      "type": "function"
    }
  ],
  "bytecode": "0x608060405234801561001057600080fd5b506133c3806100206000396000f3fe608060405234801561001057600080fd5b50600436106100cf5760003560e01c8063674aa7121161008c578063b02bc31611610066578063b02bc316146105af578063cf3acfbc146108a2578063d365a08e146108aa578063d4aaafb4146108ce576100cf565b8063674aa712146102675780639f118536146102bb578063aef81236146102c3576100cf565b806322ce7254146100d4578063253eca1f1461010e57806339275b0a146101a95780634b6199b0146101c3578063525050e1146101cd57806357c7bec1146101d5575b600080fd5b6100fa600480360360208110156100ea57600080fd5b50356001600160a01b03166109a5565b604080519115158252519081900360200190f35b61012b6004803603602081101561012457600080fd5b5035610a3d565b6040518088815260200187815260200186815260200185815260200180602001848152602001838152602001828103825285818151815260200191508051906020019060200280838360005b8381101561018f578181015183820152602001610177565b505050509050019850505050505050505060405180910390f35b6101b1610b6d565b60408051918252519081900360200190f35b6101cb610b74565b005b6100fa610d5a565b6101f2600480360360208110156101eb57600080fd5b5035610d63565b6040805160208082528351818301528351919283929083019185019080838360005b8381101561022c578181015183820152602001610214565b50505050905090810190601f1680156102595780820380516001836020036101000a031916815260200191505b509250505060405180910390f35b6102846004803603602081101561027d57600080fd5b5035610dfe565b604080519485526001600160a01b0390931660208501526001600160f01b0319909116838301526060830152519081900360800190f35b6100fa610e2f565b6101cb60048036036101608110156102da57600080fd5b810190602081018135600160201b8111156102f457600080fd5b82018360208201111561030657600080fd5b803590602001918460018302840111600160201b8311171561032757600080fd5b91908080601f0160208091040260200160405190810160405280939291908181526020018383808284376000920191909152509295843595602086013595604081013595509193509150608081019060600135600160201b81111561038b57600080fd5b82018360208201111561039d57600080fd5b803590602001918460208302840111600160201b831117156103be57600080fd5b91908080602002602001604051908101604052809392919081815260200183836020028082843760009201919091525092958435959094909350604081019250602001359050600160201b81111561041557600080fd5b82018360208201111561042757600080fd5b803590602001918460018302840111600160201b8311171561044857600080fd5b91908080601f01602080910402602001604051908101604052809392919081815260200183838082843760009201919091525092956001600160a01b03853516956001600160f01b031960208701351695919450925060608101915060400135600160201b8111156104b957600080fd5b8201836020820111156104cb57600080fd5b803590602001918460208302840111600160201b831117156104ec57600080fd5b9190808060200260200160405190810160405280939291908181526020018383602002808284376000920191909152509295949360208101935035915050600160201b81111561053b57600080fd5b82018360208201111561054d57600080fd5b803590602001918460018302840111600160201b8311171561056e57600080fd5b91908080601f016020809104026020016040519081016040528093929190818152602001838380828437600092019190915250929550610e38945050505050565b6101cb60048036036101808110156105c657600080fd5b81359190810190604081016020820135600160201b8111156105e757600080fd5b8201836020820111156105f957600080fd5b803590602001918460018302840111600160201b8311171561061a57600080fd5b91908080601f0160208091040260200160405190810160405280939291908181526020018383808284376000920191909152509295843595602086013595604081013595509193509150608081019060600135600160201b81111561067e57600080fd5b82018360208201111561069057600080fd5b803590602001918460208302840111600160201b831117156106b157600080fd5b91908080602002602001604051908101604052809392919081815260200183836020028082843760009201919091525092958435959094909350604081019250602001359050600160201b81111561070857600080fd5b82018360208201111561071a57600080fd5b803590602001918460018302840111600160201b8311171561073b57600080fd5b91908080601f01602080910402602001604051908101604052809392919081815260200183838082843760009201919091525092956001600160a01b03853516956001600160f01b031960208701351695919450925060608101915060400135600160201b8111156107ac57600080fd5b8201836020820111156107be57600080fd5b803590602001918460208302840111600160201b831117156107df57600080fd5b9190808060200260200160405190810160405280939291908181526020018383602002808284376000920191909152509295949360208101935035915050600160201b81111561082e57600080fd5b82018360208201111561084057600080fd5b803590602001918460018302840111600160201b8311171561086157600080fd5b91908080601f016020809104026020016040519081016040528093929190818152602001838380828437600092019190915250929550611132945050505050565b6101cb61182a565b6108b2612536565b604080516001600160a01b039092168252519081900360200190f35b6108eb600480360360208110156108e457600080fd5b5035612545565b60405180868152602001856001600160a01b03166001600160a01b03168152602001846001600160f01b0319166001600160f01b031916815260200183815260200180602001828103825283818151815260200191508051906020019080838360005b8381101561096657818101518382015260200161094e565b50505050905090810190601f1680156109935780820380516001836020036101000a031916815260200191505b50965050505050505060405180910390f35b6000805460408051600160e31b6227050b028152600160f11b6123ab02600482015290516001600160a01b03928316928516918391630138285891602480820192602092909190829003018186803b158015610a0057600080fd5b505afa158015610a14573d6000803e3d6000fd5b505050506040513d6020811015610a2a57600080fd5b50516001600160a01b0316149392505050565b60008060008060606000808760038981548110610a5657fe5b90600052602060002090600602016000015460038a81548110610a7557fe5b90600052602060002090600602016001015460038b81548110610a9457fe5b90600052602060002090600602016002015460038c81548110610ab357fe5b906000526020600020906006020160030160038d81548110610ad157fe5b90600052602060002090600602016004015460038e81548110610af057fe5b90600052602060002090600602016005015482805480602002602001604051908101604052809291908181526020018280548015610b4d57602002820191906000526020600020905b815481526020019060010190808311610b39575b505050505092509650965096509650965096509650919395979092949650565b6003545b90565b6000309050806001600160a01b031663025313a26040518163ffffffff1660e01b815260040160206040518083038186803b158015610bb257600080fd5b505afa158015610bc6573d6000803e3d6000fd5b505050506040513d6020811015610bdc57600080fd5b50516001600160a01b03163314610c3d5760408051600160e51b62461bcd02815260206004820152601a60248201527f53656e646572206973206e6f742070726f7879206f776e65722e000000000000604482015290519081900360640190fd5b6000546001600160a01b031615610c9e5760408051600160e51b62461bcd02815260206004820152601a60248201527f4d6173746572206164647265737320616c726561647920736574000000000000604482015290519081900360640190fd5b600080546001600160a01b03191633179081905560408051600160e31b6227050b028152600160f11b6126a902600482015290516001600160a01b039290921691630138285891602480820192602092909190829003018186803b158015610d0557600080fd5b505afa158015610d19573d6000803e3d6000fd5b505050506040513d6020811015610d2f57600080fd5b5051600280546001600160a01b0390921661010002610100600160a81b031990921691909117905550565b60025460ff1681565b60056020908152600091825260409182902080548351601f600260001961010060018616150201909316929092049182018490048402810184019094528084529091830182828015610df65780601f10610dcb57610100808354040283529160200191610df6565b820191906000526020600020905b815481529060010190602001808311610dd957829003601f168201915b505050505081565b60008181526004602052604090206001810154905491926001600160a01b03821692600160a01b90920460f01b9190565b60065460ff1681565b60005460408051600160e31b6227050b028152600160f11b6123ab02600482015290516001600160a01b039092169133918391630138285891602480820192602092909190829003018186803b158015610e9157600080fd5b505afa158015610ea5573d6000803e3d6000fd5b505050506040513d6020811015610ebb57600080fd5b50516001600160a01b031614610f0f5760408051600160e51b62461bcd02815260206004820152600e6024820152600160921b6d139bdd08185d5d1a1bdc9a5e995902604482015290519081900360640190fd5b60648911158015610f21575060648a11155b610f6d5760408051600160e51b62461bcd0281526020600482015260126024820152600160701b71496e76616c69642070657263656e7461676502604482015290519081900360640190fd5b600160f31b6108ab026001600160f01b03198516148015610f9557506001600160a01b038516155b80610fa1575060008251115b610ff55760408051600160e51b62461bcd02815260206004820152601760248201527f57726f6e6720706172616d657465727320706173736564000000000000000000604482015290519081900360640190fd5b6110078c8c8c8c8c8c8c8c8c8c612625565b6040805160048152602481019182905283516060928591819060208401908083835b602083106110485780518252601f199092019160209182019101611029565b51815160209384036101000a600019018019909216911617905260405191909301819003902091850180516001600160e01b03199093166001600160e01b03909316929092179091525050845191925050158015906110a8575080516004145b1561112357604080516004815260248101909152602080820180516001600160e01b0316600160e01b630357e76f02178152915190912082519183019190912014156110fb5760038c146110fb57600080fd5b600354600019016000908152600560209081526040909120825161112192840190612b7a565b505b50505050505050505050505050565b60005460408051600160e31b6227050b028152600160f11b6123ab02600482015290516001600160a01b039092169133918391630138285891602480820192602092909190829003018186803b15801561118b57600080fd5b505afa15801561119f573d6000803e3d6000fd5b505050506040513d60208110156111b557600080fd5b50516001600160a01b0316146112095760408051600160e51b62461bcd02815260206004820152600e6024820152600160921b6d139bdd08185d5d1a1bdc9a5e995902604482015290519081900360640190fd5b6112138b896128eb565b6112595760408051600160e51b62461bcd02815260206004820152600c6024820152600160a01b6b496e76616c696420526f6c6502604482015290519081900360640190fd5b6064891115801561126b575060648a11155b6112b75760408051600160e51b62461bcd0281526020600482015260126024820152600160701b71496e76616c69642070657263656e7461676502604482015290519081900360640190fd5b600160f31b6108ab026001600160f01b031985161480156112df57506001600160a01b038516155b806112eb575060008251115b61133f5760408051600160e51b62461bcd02815260206004820152601760248201527f57726f6e6720706172616d657465727320706173736564000000000000000000604482015290519081900360640190fd5b60008d815260056020526040812061135691612bf8565b600082511180156113f5575060408051600481526024810191829052835190918491819060208401908083835b602083106113a25780518252601f199092019160209182019101611383565b51815160209384036101000a600019018019909216911617905260405191909301819003902091850180516001600160e01b03199093166001600160e01b03909316929092179091525050905160041490505b1561158a5760408051600480825260248083018452602080840180516001600160e01b0316600160e01b630357e76f02178152935190932084519283529082019384905285519093919286929182918401908083835b6020831061146a5780518252601f19909201916020918201910161144b565b51815160209384036101000a600019018019909216911617905260405191909301819003902091850180516001600160e01b03199093166001600160e01b03909316929092178252509251909220929092141591506114d290505760038b146114d257600080fd5b60408051600481526024810191829052835190918491819060208401908083835b602083106115125780518252601f1990920191602091820191016114f3565b6001836020036101000a03801982511681845116808217855250505050505090500191505060405180910390206001600160e01b0319166020820180516001600160e01b038381831617835250505050600560008f81526020019081526020016000209080519060200190611588929190612b7a565b505b8a60038e8154811061159857fe5b9060005260206000209060060201600001819055508960038e815481106115bb57fe5b9060005260206000209060060201600101819055508660038e815481106115de57fe5b9060005260206000209060060201600401819055508760038e8154811061160157fe5b90600052602060002090600602016003019080519060200190611625929190612c3f565b508260008151811061163357fe5b602002602001015160038e8154811061164857fe5b9060005260206000209060060201600501819055508860038e8154811061166b57fe5b9060005260206000209060060201600201819055508260018151811061168d57fe5b6020026020010151600460008f81526020019081526020016000206000018190555083600460008f815260200190815260200160002060010160146101000a81548161ffff021916908360f01c021790555084600460008f815260200190815260200160002060010160006101000a8154816001600160a01b0302191690836001600160a01b031602179055508c7f2a65d0fe76508fb4e604d4804927dce75b70f82e64a2025e3bffb2fc003418508d88604051808060200180602001838103835285818151815260200191508051906020019080838360005b8381101561177f578181015183820152602001611767565b50505050905090810190601f1680156117ac5780820380516001836020036101000a031916815260200191505b50838103825284518152845160209182019186019080838360005b838110156117df5781810151838201526020016117c7565b50505050905090810190601f16801561180c5780820380516001836020036101000a031916815260200191505b5094505050505060405180910390a250505050505050505050505050565b60065460ff161561186f57604051600160e51b62461bcd0281526004018080602001828103825260268152602001806130fa6026913960400191505060405180910390fd5b6006805460ff191660019081179091556000600290506000600390506118f56040518060400160405280600d81526020017f556e63617465676f72697a65640000000000000000000000000000000000000081525060405180602001604052806000815250600160f31b6108ab02604051806020016040528060008152506000806129c1565b61198e6040518060400160405280601381526020017f416464206e6577206d656d62657220726f6c65000000000000000000000000008152506040518060600160405280602e8152602001612cf0602e9139600160f11b6126a9026040518060400160405280601f81526020017f616464526f6c6528627974657333322c737472696e672c6164647265737329008152506032886129c1565b611a276040518060400160405280601281526020017f557064617465206d656d62657220726f6c6500000000000000000000000000008152506040518060600160405280602e8152602001613018602e9139600160f11b6126a9026040518060400160405280602081526020017f757064617465526f6c6528616464726573732c75696e743235362c626f6f6c298152506032886129c1565b611aa36040518060400160405280601081526020017f416464206e65772063617465676f7279000000000000000000000000000000008152506040518060600160405280602e81526020016132e0602e9139600160f01b615043026040518060a0016040528060648152602001613172606491396032886129c1565b611b1f6040518060400160405280600d81526020017f456469742063617465676f7279000000000000000000000000000000000000008152506040518060600160405280602e8152602001612fea602e9139600160f01b615043026040518060a00160405280606d81526020016131d6606d91396032886129c1565b611b9b6040518060400160405280601d81526020017f557064617465204d61726b657420496d706c656d656e746174696f6e730000008152506040518060600160405280602e8152602001612fbc602e9139600160f21b611413026040518060600160405280603081526020016130ca60309139603c876129c1565b611c176040518060400160405280602081526020017f55706461746520636f6e7472616374277320496d706c656d656e746174696f6e8152506040518060600160405280602e8152602001612f8e602e9139600160f21b611413026040518060600160405280602e815260200161328c602e9139603c876129c1565b611c76604051806060016040528060298152602001612d4c602991396040518060600160405280602e8152602001612dd1602e9139600160f01b614d5302604051806060016040528060328152602001612e5b603291396032876129c1565b611d0f6040518060400160405280601c81526020017f557064617465206d617374657220496d706c656d656e746174696f6e000000008152506040518060600160405280602e8152602001612e2d602e9139600160f01b614d53026040518060400160405280601281526020017f75706772616465546f28616464726573732900000000000000000000000000008152506032876129c1565b611da86040518060400160405280601081526020017f416464206e657720636f6e7472616374000000000000000000000000000000008152506040518060600160405280602e815260200161306f602e9139600160f01b614d53026040518060400160405280601e81526020017f6164644e6577436f6e7472616374286279746573322c616464726573732900008152506032876129c1565b611e416040518060400160405280600d81526020017f52616973652044697370757465000000000000000000000000000000000000008152506040518060600160405280602e8152602001612c94602e9139600160f21b611413026040518060400160405280601f81526020017f7265736f6c76654469737075746528616464726573732c75696e743235362900815250603c866129c1565b611ea0604051806060016040528060258152602001613267602591396040518060600160405280602e8152602001613144602e9139600160f01b6154430260405180606001604052806029815260200161304660299139603c876129c1565b611f396040518060400160405280600e81526020017f53776170204142206d656d6265720000000000000000000000000000000000008152506040518060600160405280602e8152602001612d75602e9139600160f11b6126a9026040518060400160405280601d81526020017f7377617041424d656d62657228616464726573732c6164647265737329000000815250603c876129c1565b611fb56040518060400160405280601c81526020017f55706461746520676f7665726e616e636520706172616d6574657273000000008152506040518060600160405280602e8152602001612f3e602e9139600160f11b6123ab0260405180606001604052806024815260200161312060249139603c876129c1565b612014604051806060016040528060228152602001612f6c602291396040518060600160405280602e8152602001612ee2602e9139600160f01b6154430260405180606001604052806024815260200161312060249139603c876129c1565b6120906040518060400160405280601381526020017f416464206e6577206d61726b65742074797065000000000000000000000000008152506040518060600160405280602e8152602001612cc2602e9139600160f21b611413026040518060600160405280602681526020016132ba60269139603c876129c1565b61210c6040518060400160405280601781526020017f416464206e6577206d61726b65742063757272656e63790000000000000000008152506040518060600160405280602e8152602001612eb4602e9139600160f21b6114130260405180606001604052806024815260200161324360249139603c876129c1565b6121a56040518060400160405280601581526020017f5061757365204d61726b6574204372656174696f6e00000000000000000000008152506040518060600160405280602e8152602001612f10602e9139600160f21b611413026040518060400160405280601581526020017f70617573654d61726b65744372656174696f6e28290000000000000000000000815250603c876129c1565b61223e6040518060400160405280601681526020017f526573756d65204d61726b6574204372656174696f6e000000000000000000008152506040518060600160405280602e815260200161333c602e9139600160f21b611413026040518060400160405280601681526020017f726573756d654d61726b65744372656174696f6e282900000000000000000000815250603c876129c1565b6122ba6040518060400160405280601f81526020017f5472616e73666572204d61726b657420526567697374727920417373657473008152506040518060600160405280602e815260200161336a602e9139600160f21b61141302604051806060016040528060278152602001612e8d60279139603c876129c1565b6123366040518060400160405280601d81526020017f557064617465204d61726b65742055696e7420706172616d65746572730000008152506040518060600160405280602e8152602001612dff602e9139600160f21b6114130260405180606001604052806024815260200161312060249139603c876129c1565b6123b26040518060400160405280602081526020017f557064617465204d61726b6574204164647265737320706172616d65746572738152506040518060600160405280602e8152602001612da3602e9139600160f21b611413026040518060600160405280602d815260200161309d602d9139603c876129c1565b61242e6040518060400160405280601e81526020017f557064617465204d656d62657220726f6c657320706172616d657465727300008152506040518060600160405280602e815260200161330e602e9139600160f11b6126a90260405180606001604052806024815260200161312060249139603c876129c1565b6124c76040518060400160405280601181526020017f57686974656c6973742053706f6e736f720000000000000000000000000000008152506040518060600160405280602e8152602001612d1e602e9139600160f01b614d53026040518060400160405280601981526020017f77686974656c69737453706f6e736f7228616464726573732900000000000000815250603c876129c1565b6125316040518060400160405280600e81526020017f416e79206f74686572206974656d00000000000000000000000000000000000081525060405180602001604052806000815250600160f31b6108ab0260405180602001604052806000815250603c876129c1565b505050565b6000546001600160a01b031681565b600081815260046020908152604080832060018082015491546005855283862080548551600261010095831615959095026000190190911693909304601f81018790048702840187019095528483528695869586956060958b956001600160a01b03831695600160a01b90930460f01b949093839183018282801561260b5780601f106125e05761010080835404028352916020019161260b565b820191906000526020600020905b8154815290600101906020018083116125ee57829003601f168201915b505050505090509450945094509450945091939590929450565b61262f89876128eb565b6126755760408051600160e51b62461bcd02815260206004820152600c6024820152600160a01b6b496e76616c696420526f6c6502604482015290519081900360640190fd5b60036040518060c001604052808b81526020018a8152602001898152602001888152602001878152602001836000815181106126ad57fe5b60209081029190910181015190915282546001818101808655600095865294839020845160069093020191825583830151908201556040830151600282015560608301518051919261270792600385019290910190612c3f565b506080820151816004015560a082015181600501555050506000600160038054905003905060405180606001604052808360018151811061274457fe5b60200260200101518152602001856001600160a01b03168152602001846001600160f01b031916815250600460008381526020019081526020016000206000820151816000015560208201518160010160006101000a8154816001600160a01b0302191690836001600160a01b0316021790555060408201518160010160146101000a81548161ffff021916908360f01c0217905550905050807f2a65d0fe76508fb4e604d4804927dce75b70f82e64a2025e3bffb2fc003418508c87604051808060200180602001838103835285818151815260200191508051906020019080838360005b8381101561284257818101518382015260200161282a565b50505050905090810190601f16801561286f5780820380516001836020036101000a031916815260200191505b50838103825284518152845160209182019186019080838360005b838110156128a257818101518382015260200161288a565b50505050905090810190601f1680156128cf5780820380516001836020036101000a031916815260200191505b5094505050505060405180910390a25050505050505050505050565b600080600260019054906101000a90046001600160a01b03166001600160a01b031663790e118c6040518163ffffffff1660e01b815260040160206040518083038186803b15801561293c57600080fd5b505afa158015612950573d6000803e3d6000fd5b505050506040513d602081101561296657600080fd5b5051905080841061297b5760009150506129bb565b60005b83518110156129b4578184828151811061299457fe5b6020026020010151106129ac576000925050506129bb565b60010161297e565b5060019150505b92915050565b604080516001808252818301909252606091602080830190803883395050604080516002808252606080830184529495509092509060208301908038833901905050905060006203f48090508383600081518110612a1b57fe5b602002602001018181525050600082600081518110612a3657fe5b602002602001018181525050600082600181518110612a5157fe5b60209081029190910101526003841415612aa75768056bc75e2d6310000082600181518110612a7c57fe5b6020908102919091010152600283600081518110612a9657fe5b6020908102919091010152506202a3005b855115612b5b5760408051600481526024810191829052875190918891819060208401908083835b60208310612aee5780518252601f199092019160209182019101612acf565b51815160001960209485036101000a01908116901991909116179052604080519490920184900390932086840180516001600160e01b03166001600160e01b03199092169190911781526003546000908152600590945292209451612b59959450919250612b7a9050565b505b612b6f898587600a87868e60008f8b612625565b505050505050505050565b828054600181600116156101000203166002900490600052602060002090601f016020900481019282601f10612bbb57805160ff1916838001178555612be8565b82800160010185558215612be8579182015b82811115612be8578251825591602001919060010190612bcd565b50612bf4929150612c79565b5090565b50805460018160011615610100020316600290046000825580601f10612c1e5750612c3c565b601f016020900490600052602060002090810190612c3c9190612c79565b50565b828054828255906000526020600020908101928215612be85791602002820182811115612be8578251825591602001919060010190612bcd565b610b7191905b80821115612bf45760008155600101612c7f56fe516d514c4b617a626132644c386e547447616f6f6e3644735076354663704b71575a505264784c76327466555157516d50774164456a3671757a4236354a57723668447a3648724c746a546662657a7755694165366d427132737859516d51466e4265703741794d5955334c4a4475485370545961746e773635586a487a7a6972726768745a6f523855516d5242327477666b7a6a6f78345a4153746e5a54767471723754723742794756646a547a69576e7078586d577755706772616465206d756c7469706c6520636f6e747261637420496d706c656d656e746174696f6e73516d5635484a4d6d686b45694857743571644e703641624371636e394c773941534139656648444b476d386d6468516d62624e5263685a484d554c42624b465438716a435767435250613471646b7374386d453841324b666679374e516d634c316a556b376f64613263756d5355544372463676545365514e3771643162594446647a33763742625548516d585058426b534b666964546762446352424c716f6b71416139535532777745725479656450415a506672357a516d507247625741346375577a5a6263395a6d71466d535253464a6e70357361373437774b734a6e516b6b6a3474757067726164654d756c7469706c65496d706c656d656e746174696f6e73286279746573325b5d2c616464726573735b5d297472616e7366657241737365747328616464726573732c616464726573732c75696e7432353629516d547532466e6b71555768684e6265517261537274626441344466474c617654734c524b5243654c5635317831516d645648354664586269476271736a31373634334b5645454251336369425a6e6a6e394d6a323465687372476d516d616d4673346b355a627a616a697073625762344c43614b747978445577623955356459694e46714578623257516d547a4b4b787a707031453462384e336368316b756d65745952696545704e3765635464334d4e67345631543955706461746520546f6b656e20436f6e74726f6c6c657220706172616d6574657273516d6573697558393239624a486d6748384535384c36465750617a634c646763646a6d467a696e4564734d667265516d627972486e476754553957574671374467745254647045784c67394d716346525970574e706f37457a6a6435516d646d5168476f36685535487a724e4c756f797132545568314e33445137705432536b5055685a766e7342595a516d584d7a5356694c424a323250396f6a35315a7a3769734b54526e585750485a635135687a47767657443355566275726e4c6f636b6564546f6b656e7328616464726573732c627974657333322c75696e7432353629516d5871354a62346f654e7a44324e48424c75577179326d394a344e314b746b77796972426a6b5042524e486969757064617465436f6e66696741646472657373506172616d6574657273286279746573382c61646472657373297570646174654d61726b6574496d706c656d656e746174696f6e732875696e743235365b5d2c616464726573735b5d2943617465676f727920616374696f6e2068617368657320616c7265616479207570646174656475706461746555696e74506172616d6574657273286279746573382c75696e7432353629516d54563278537a3552354c566939566f7a4379764e676e67757136784573665678374a614662536174565676516e657743617465676f727928737472696e672c75696e743235362c75696e743235362c75696e743235362c75696e743235365b5d2c75696e743235362c737472696e672c616464726573732c6279746573322c75696e743235365b5d2c737472696e67296564697443617465676f72792875696e743235362c737472696e672c75696e743235362c75696e743235362c75696e743235362c75696e743235365b5d2c75696e743235362c737472696e672c616464726573732c6279746573322c75696e743235365b5d2c737472696e67296164644e65774d61726b657443757272656e637928616464726573732c75696e743634294275726e2044697370757465205265736f6c7574696f6e204d656d62657220546f6b656e7375706772616465436f6e7472616374496d706c656d656e746174696f6e28616464726573732c61646472657373296164644e65774d61726b6574547970652875696e7436342c75696e7436342c75696e74363429516d61567476374e4452333658325a45426a436d68316e793455584b595348504d666738706575504c6e4e633366516d6347384b584c4d54444c354374694b65643132624a784534696f4c37576e376f584c6457317a595770663632516d5a3957316748544a6a536e74336965694e76315578366f6f58376e6755344a7270766b335169694265503572516d65524366474a7541366f5471593861376e7556786448696832536d5a5554615a4c56727474477636794b7935a165627a7a723058208fd65accd0638f4e88eca790d96dcd7523136211f65fe5dac314ea9b13d906740029",
  "source": "/* Copyright (C) 2020 PlotX.io\n\n  This program is free software: you can redistribute it and/or modify\n    it under the terms of the GNU General Public License as published by\n    the Free Software Foundation, either version 3 of the License, or\n    (at your option) any later version.\n\n  This program is distributed in the hope that it will be useful,\n    but WITHOUT ANY WARRANTY; without even the implied warranty of\n    MERCHANTABILITY or FITNESS FOR A PARTICULAR PURPOSE.  See the\n    GNU General Public License for more details.\n\n  You should have received a copy of the GNU General Public License\n    along with this program.  If not, see http://www.gnu.org/licenses/ */\n\npragma solidity 0.5.7;\n\nimport \"./external/govblocks-protocol/interfaces/IProposalCategory.sol\";\nimport \"./external/govblocks-protocol/interfaces/IMemberRoles.sol\";\nimport \"./external/proxy/OwnedUpgradeabilityProxy.sol\";\nimport \"./external/govblocks-protocol/Governed.sol\";\nimport \"./interfaces/Iupgradable.sol\";\n\ncontract ProposalCategory is Governed, IProposalCategory, Iupgradable {\n    bool public constructorCheck;\n    IMemberRoles internal mr;\n\n    struct CategoryStruct {\n        uint256 memberRoleToVote;\n        uint256 majorityVotePerc;\n        uint256 quorumPerc;\n        uint256[] allowedToCreateProposal;\n        uint256 closingTime;\n        uint256 minStake;\n    }\n\n    struct CategoryAction {\n        uint256 defaultIncentive;\n        address contractAddress;\n        bytes2 contractName;\n    }\n\n    CategoryStruct[] internal allCategory;\n    mapping(uint256 => CategoryAction) internal categoryActionData;\n    mapping(uint256 => bytes) public categoryActionHashes;\n\n    bool public initiated;\n\n    /**\n     * @dev Initiates Default settings for Proposal Category contract (Adding default categories)\n     */\n    function proposalCategoryInitiate() external {\n        //solhint-disable-line\n        require(!initiated, \"Category action hashes already updated\");\n        initiated = true;\n\n        uint256 advisoryBoardRole = uint256(IMemberRoles.Role.AdvisoryBoard);\n        uint256 tokenHolder = uint256(IMemberRoles.Role.TokenHolder);\n        uint256 disputeResolutionBoard = uint256(IMemberRoles.Role.DisputeResolution);\n\n        _addInitialCategories(\"Uncategorized\", \"\", \"EX\", \"\", 0, 0);\n        _addInitialCategories(\n            \"Add new member role\",\n            \"QmQFnBep7AyMYU3LJDuHSpTYatnw65XjHzzirrghtZoR8U\",\n            \"MR\",\n            \"addRole(bytes32,string,address)\",\n            50,\n            advisoryBoardRole\n        ); //1\n        _addInitialCategories(\n            \"Update member role\",\n            \"QmXMzSViLBJ22P9oj51Zz7isKTRnXWPHZcQ5hzGvvWD3UV\",\n            \"MR\",\n            \"updateRole(address,uint256,bool)\",\n            50,\n            advisoryBoardRole\n        ); // 2\n        _addInitialCategories(\n            \"Add new category\",\n            \"QmaVtv7NDR36X2ZEBjCmh1ny4UXKYSHPMfg8peuPLnNc3f\",\n            \"PC\",\n            \"newCategory(string,uint256,uint256,uint256,uint256[],uint256,string,address,bytes2,uint256[],string)\",\n            50,\n            advisoryBoardRole\n        ); // 3\n        _addInitialCategories(\n            \"Edit category\",\n            \"QmdmQhGo6hU5HzrNLuoyq2TUh1N3DQ7pT2SkPUhZvnsBYZ\",\n            \"PC\",\n            \"editCategory(uint256,string,uint256,uint256,uint256,uint256[],uint256,string,address,bytes2,uint256[],string)\",\n            50,\n            advisoryBoardRole\n        ); //4\n        _addInitialCategories(\n            \"Update Market Implementations\",\n            \"QmbyrHnGgTU9WWFq7DgtRTdpExLg9MqcFRYpWNpo7Ezjd5\",\n            \"PL\",\n            \"updateMarketImplementations(uint256[],address[])\",\n            60,\n            tokenHolder\n        ); // 5\n        _addInitialCategories(\n            \"Update contract's Implementation\",\n            \"QmesiuX929bJHmgH8E58L6FWPazcLdgcdjmFzinEdsMfre\",\n            \"PL\",\n            \"upgradeContractImplementation(address,address)\",\n            60,\n            tokenHolder\n        ); // 6\n        _addInitialCategories(\n            \"Upgrade multiple contract Implementations\",\n            \"QmcL1jUk7oda2cumSUTCrF6vTSeQN7qd1bYDFdz3v7BbUH\",\n            \"MS\",\n            \"upgradeMultipleImplementations(bytes2[],address[])\",\n            50,\n            tokenHolder\n        ); // 7\n        _addInitialCategories(\n            \"Update master Implementation\",\n            \"QmPrGbWA4cuWzZbc9ZmqFmSRSFJnp5sa747wKsJnQkkj4t\",\n            \"MS\",\n            \"upgradeTo(address)\",\n            50,\n            tokenHolder\n        ); // 8\n        _addInitialCategories(\n            \"Add new contract\",\n            \"QmXq5Jb4oeNzD2NHBLuWqy2m9J4N1KtkwyirBjkPBRNHii\",\n            \"MS\",\n            \"addNewContract(bytes2,address)\",\n            50,\n            tokenHolder\n        );\n        _addInitialCategories(\n            \"Raise Dispute\",\n            \"QmQLKazba2dL8nTtGaoon6DsPv5FcpKqWZPRdxLv2tfUQW\",\n            \"PL\",\n            \"resolveDispute(address,uint256)\",\n            60,\n            disputeResolutionBoard\n        );\n        _addInitialCategories(\n            \"Burn Dispute Resolution Member Tokens\",\n            \"QmTV2xSz5R5LVi9VozCyvNgnguq6xEsfVx7JaFbSatVVvQ\",\n            \"TC\",\n            \"burnLockedTokens(address,bytes32,uint256)\",\n            60,\n            tokenHolder\n        ); //11\n        _addInitialCategories(\n            \"Swap AB member\",\n            \"QmV5HJMmhkEiHWt5qdNp6AbCqcn9Lw9ASA9efHDKGm8mdh\",\n            \"MR\",\n            \"swapABMember(address,address)\",\n            60,\n            tokenHolder\n        );\n        _addInitialCategories(\n            \"Update governance parameters\",\n            \"QmTzKKxzpp1E4b8N3ch1kumetYRieEpN7ecTd3MNg4V1T9\",\n            \"GV\",\n            \"updateUintParameters(bytes8,uint256)\",\n            60,\n            tokenHolder\n        );\n        _addInitialCategories(\n            \"Update Token Controller parameters\",\n            \"QmdVH5FdXbiGbqsj17643KVEEBQ3ciBZnjn9Mj24ehsrGm\",\n            \"TC\",\n            \"updateUintParameters(bytes8,uint256)\",\n            60,\n            tokenHolder\n        );\n        _addInitialCategories(\n            \"Add new market type\",\n            \"QmPwAdEj6quzB65JWr6hDz6HrLtjTfbezwUiAe6mBq2sxY\",\n            \"PL\",\n            \"addNewMarketType(uint64,uint64,uint64)\",\n            60,\n            tokenHolder\n        ); //15\n        _addInitialCategories(\n            \"Add new market currency\",\n            \"QmTu2FnkqUWhhNbeQraSrtbdA4DfGLavTsLRKRCeLV51x1\",\n            \"PL\",\n            \"addNewMarketCurrency(address,uint64)\",\n            60,\n            tokenHolder\n        );\n        _addInitialCategories(\n            \"Pause Market Creation\",\n            \"QmamFs4k5ZbzajipsbWb4LCaKtyxDUwb9U5dYiNFqExb2W\",\n            \"PL\",\n            \"pauseMarketCreation()\",\n            60,\n            tokenHolder\n        );\n        _addInitialCategories(\n            \"Resume Market Creation\",\n            \"QmZ9W1gHTJjSnt3ieiNv1Ux6ooX7ngU4Jrpvk3QiiBeP5r\",\n            \"PL\",\n            \"resumeMarketCreation()\",\n            60,\n            tokenHolder\n        );\n        _addInitialCategories(\n            \"Transfer Market Registry Assets\",\n            \"QmeRCfGJuA6oTqY8a7nuVxdHih2SmZUTaZLVrttGv6yKy5\",\n            \"PL\",\n            \"transferAssets(address,address,uint256)\",\n            60,\n            tokenHolder\n        );\n        _addInitialCategories(\n            \"Update Market Uint parameters\",\n            \"QmXPXBkSKfidTgbDcRBLqokqAa9SU2wwErTyedPAZPfr5z\",\n            \"PL\",\n            \"updateUintParameters(bytes8,uint256)\",\n            60,\n            tokenHolder\n        ); //20\n        _addInitialCategories(\n            \"Update Market Address parameters\",\n            \"QmbbNRchZHMULBbKFT8qjCWgCRPa4qdkst8mE8A2Kffy7N\",\n            \"PL\",\n            \"updateConfigAddressParameters(bytes8,address)\",\n            60,\n            tokenHolder\n        );\n        _addInitialCategories(\n            \"Update Member roles parameters\",\n            \"QmcG8KXLMTDL5CtiKed12bJxE4ioL7Wn7oXLdW1zYWpf62\",\n            \"MR\",\n            \"updateUintParameters(bytes8,uint256)\",\n            60,\n            tokenHolder\n        ); //22\n        _addInitialCategories(\n            \"Whitelist Sponsor\",\n            \"QmRB2twfkzjox4ZAStnZTvtqr7Tr7ByGVdjTziWnpxXmWw\",\n            \"MS\",\n            \"whitelistSponsor(address)\",\n            60,\n            tokenHolder\n        );\n        _addInitialCategories(\n            \"Any other item\",\n            \"\",\n            \"EX\",\n            \"\",\n            60,\n            tokenHolder\n        );\n    }\n\n    /**\n     * @dev Gets Total number of categories added till now\n     */\n    function totalCategories() external view returns (uint256) {\n        return allCategory.length;\n    }\n\n    /**\n     * @dev Gets category details\n     */\n    function category(uint256 _categoryId)\n        external\n        view\n        returns (\n            uint256,\n            uint256,\n            uint256,\n            uint256,\n            uint256[] memory,\n            uint256,\n            uint256\n        )\n    {\n        return (\n            _categoryId,\n            allCategory[_categoryId].memberRoleToVote,\n            allCategory[_categoryId].majorityVotePerc,\n            allCategory[_categoryId].quorumPerc,\n            allCategory[_categoryId].allowedToCreateProposal,\n            allCategory[_categoryId].closingTime,\n            allCategory[_categoryId].minStake\n        );\n    }\n\n    /**\n     * @dev Gets the category action details\n     * @param _categoryId is the category id in concern\n     * @return the category id\n     * @return the contract address\n     * @return the contract name\n     * @return the default incentive\n     */\n    function categoryAction(uint256 _categoryId)\n        external\n        view\n        returns (\n            uint256,\n            address,\n            bytes2,\n            uint256\n        )\n    {\n        return (\n            _categoryId,\n            categoryActionData[_categoryId].contractAddress,\n            categoryActionData[_categoryId].contractName,\n            categoryActionData[_categoryId].defaultIncentive\n        );\n    }\n\n    /**\n     * @dev Gets the category action details of a category id\n     * @param _categoryId is the category id in concern\n     * @return the category id\n     * @return the contract address\n     * @return the contract name\n     * @return the default incentive\n     * @return action function hash\n     */\n    function categoryActionDetails(uint256 _categoryId)\n        external\n        view\n        returns (\n            uint256,\n            address,\n            bytes2,\n            uint256,\n            bytes memory\n        )\n    {\n        return (\n            _categoryId,\n            categoryActionData[_categoryId].contractAddress,\n            categoryActionData[_categoryId].contractName,\n            categoryActionData[_categoryId].defaultIncentive,\n            categoryActionHashes[_categoryId]\n        );\n    }\n\n    /**\n     * @dev Changes the master address and update it's instance\n     */\n    function setMasterAddress() public {\n        OwnedUpgradeabilityProxy proxy = OwnedUpgradeabilityProxy(\n            address(uint160(address(this)))\n        );\n        require(msg.sender == proxy.proxyOwner(), \"Sender is not proxy owner.\");\n\n        require(masterAddress == address(0), \"Master address already set\");\n        masterAddress = msg.sender;\n        mr = IMemberRoles(IMaster(masterAddress).getLatestAddress(\"MR\"));\n    }\n\n    /**\n     * @dev Adds new category\n     * @param _name Category name\n     * @param _memberRoleToVote Voting Layer sequence in which the voting has to be performed.\n     * @param _majorityVotePerc Majority Vote threshold for Each voting layer\n     * @param _quorumPerc minimum threshold percentage required in voting to calculate result\n     * @param _allowedToCreateProposal Member roles allowed to create the proposal\n     * @param _closingTime Vote closing time for Each voting layer\n     * @param _actionHash hash of details containing the action that has to be performed after proposal is accepted\n     * @param _contractAddress address of contract to call after proposal is accepted\n     * @param _contractName name of contract to be called after proposal is accepted\n     * @param _incentives rewards to distributed after proposal is accepted\n     * @param _functionHash function signature to be executed\n     */\n    function newCategory(\n        string memory _name,\n        uint256 _memberRoleToVote,\n        uint256 _majorityVotePerc,\n        uint256 _quorumPerc,\n        uint256[] memory _allowedToCreateProposal,\n        uint256 _closingTime,\n        string memory _actionHash,\n        address _contractAddress,\n        bytes2 _contractName,\n        uint256[] memory _incentives,\n        string memory _functionHash\n    ) public onlyAuthorizedToGovern {\n        require(\n            _quorumPerc <= 100 && _majorityVotePerc <= 100,\n            \"Invalid percentage\"\n        );\n\n        require(\n            (_contractName == \"EX\" && _contractAddress == address(0)) ||\n                bytes(_functionHash).length > 0,\n            \"Wrong parameters passed\"\n        );\n\n        _addCategory(\n            _name,\n            _memberRoleToVote,\n            _majorityVotePerc,\n            _quorumPerc,\n            _allowedToCreateProposal,\n            _closingTime,\n            _actionHash,\n            _contractAddress,\n            _contractName,\n            _incentives\n        );\n\n        bytes memory _encodedHash = abi.encodeWithSignature(_functionHash);\n        if (\n            bytes(_functionHash).length > 0 &&\n            _encodedHash.length == 4\n        ) {\n            if(keccak256(_encodedHash) == keccak256(abi.encodeWithSignature(\"resolveDispute(address,uint256)\"))) {\n                require(_memberRoleToVote == uint256(IMemberRoles.Role.DisputeResolution));\n            }\n            categoryActionHashes[allCategory.length - 1] = _encodedHash;\n        }\n    }\n\n    /**\n     * @dev Updates category details\n     * @param _categoryId Category id that needs to be updated\n     * @param _name Category name\n     * @param _memberRoleToVote Voting Layer sequence in which the voting has to be performed.\n     * @param _allowedToCreateProposal Member roles allowed to create the proposal\n     * @param _majorityVotePerc Majority Vote threshold for Each voting layer\n     * @param _quorumPerc minimum threshold percentage required in voting to calculate result\n     * @param _closingTime Vote closing time for Each voting layer\n     * @param _actionHash hash of details containing the action that has to be performed after proposal is accepted\n     * @param _contractAddress address of contract to call after proposal is accepted\n     * @param _contractName name of contract to be called after proposal is accepted\n     * @param _incentives rewards to distributed after proposal is accepted\n     * @param _functionHash function signature to be executed\n     */\n    function editCategory(\n        uint256 _categoryId,\n        string memory _name,\n        uint256 _memberRoleToVote,\n        uint256 _majorityVotePerc,\n        uint256 _quorumPerc,\n        uint256[] memory _allowedToCreateProposal,\n        uint256 _closingTime,\n        string memory _actionHash,\n        address _contractAddress,\n        bytes2 _contractName,\n        uint256[] memory _incentives,\n        string memory _functionHash\n    ) public onlyAuthorizedToGovern {\n        require(\n            _verifyMemberRoles(_memberRoleToVote, _allowedToCreateProposal),\n            \"Invalid Role\"\n        );\n\n        require(\n            _quorumPerc <= 100 && _majorityVotePerc <= 100,\n            \"Invalid percentage\"\n        );\n\n        require(\n            (_contractName == \"EX\" && _contractAddress == address(0)) ||\n                bytes(_functionHash).length > 0,\n            \"Wrong parameters passed\"\n        );\n\n        delete categoryActionHashes[_categoryId];\n        if (\n            bytes(_functionHash).length > 0 &&\n            abi.encodeWithSignature(_functionHash).length == 4\n        ) {\n            if(keccak256(abi.encodeWithSignature(_functionHash)) == keccak256(abi.encodeWithSignature(\"resolveDispute(address,uint256)\"))) {\n                require(_memberRoleToVote == uint256(IMemberRoles.Role.DisputeResolution));\n            }\n            categoryActionHashes[_categoryId] = abi.encodeWithSignature(\n                _functionHash\n            );\n        }\n        allCategory[_categoryId].memberRoleToVote = _memberRoleToVote;\n        allCategory[_categoryId].majorityVotePerc = _majorityVotePerc;\n        allCategory[_categoryId].closingTime = _closingTime;\n        allCategory[_categoryId]\n            .allowedToCreateProposal = _allowedToCreateProposal;\n        allCategory[_categoryId].minStake = _incentives[0];\n        allCategory[_categoryId].quorumPerc = _quorumPerc;\n        categoryActionData[_categoryId].defaultIncentive = _incentives[1];\n        categoryActionData[_categoryId].contractName = _contractName;\n        categoryActionData[_categoryId].contractAddress = _contractAddress;\n        emit Category(_categoryId, _name, _actionHash);\n    }\n\n    /**\n     * @dev Internal call to add new category\n     * @param _name Category name\n     * @param _memberRoleToVote Voting Layer sequence in which the voting has to be performed.\n     * @param _majorityVotePerc Majority Vote threshold for Each voting layer\n     * @param _quorumPerc minimum threshold percentage required in voting to calculate result\n     * @param _allowedToCreateProposal Member roles allowed to create the proposal\n     * @param _closingTime Vote closing time for Each voting layer\n     * @param _actionHash hash of details containing the action that has to be performed after proposal is accepted\n     * @param _contractAddress address of contract to call after proposal is accepted\n     * @param _contractName name of contract to be called after proposal is accepted\n     * @param _incentives rewards to distributed after proposal is accepted\n     */\n    function _addCategory(\n        string memory _name,\n        uint256 _memberRoleToVote,\n        uint256 _majorityVotePerc,\n        uint256 _quorumPerc,\n        uint256[] memory _allowedToCreateProposal,\n        uint256 _closingTime,\n        string memory _actionHash,\n        address _contractAddress,\n        bytes2 _contractName,\n        uint256[] memory _incentives\n    ) internal {\n        require(\n            _verifyMemberRoles(_memberRoleToVote, _allowedToCreateProposal),\n            \"Invalid Role\"\n        );\n        allCategory.push(\n            CategoryStruct(\n                _memberRoleToVote,\n                _majorityVotePerc,\n                _quorumPerc,\n                _allowedToCreateProposal,\n                _closingTime,\n                _incentives[0]\n            )\n        );\n        uint256 categoryId = allCategory.length - 1;\n        categoryActionData[categoryId] = CategoryAction(\n            _incentives[1],\n            _contractAddress,\n            _contractName\n        );\n        emit Category(categoryId, _name, _actionHash);\n    }\n\n    /**\n     * @dev Internal call to check if given roles are valid or not\n     */\n    function _verifyMemberRoles(\n        uint256 _memberRoleToVote,\n        uint256[] memory _allowedToCreateProposal\n    ) internal view returns (bool) {\n        uint256 totalRoles = mr.totalRoles();\n        if (_memberRoleToVote >= totalRoles) {\n            return false;\n        }\n        for (uint256 i = 0; i < _allowedToCreateProposal.length; i++) {\n            if (_allowedToCreateProposal[i] >= totalRoles) {\n                return false;\n            }\n        }\n        return true;\n    }\n\n    /**\n     * @dev to add the initial categories\n     * @param _name is category name\n     * @param _actionHash hash of category action\n     * @param _contractName is the name of contract\n     * @param _majorityVotePerc percentage of majority vote\n     * @param _memberRoleToVote is the member role the category can vote on\n     */\n    function _addInitialCategories(\n        string memory _name,\n        string memory _solutionHash,\n        bytes2 _contractName,\n        string memory _actionHash,\n        uint256 _majorityVotePerc,\n        uint256 _memberRoleToVote\n    ) internal {\n        uint256[] memory allowedToCreateProposal = new uint256[](1);\n        uint256[] memory stakeIncentive = new uint256[](2);\n        uint256 closingTime = 3 days;\n        allowedToCreateProposal[0] = _memberRoleToVote;\n        stakeIncentive[0] = 0;\n        stakeIncentive[1] = 0;\n        if (_memberRoleToVote == uint256(IMemberRoles.Role.DisputeResolution)) {\n            stakeIncentive[1] = 100 ether;\n            allowedToCreateProposal[0] = uint256(IMemberRoles.Role.TokenHolder);\n            closingTime = 2 days;\n        }\n        if (bytes(_actionHash).length > 0) {\n            categoryActionHashes[allCategory.length] = abi.encodeWithSignature(\n                _actionHash\n            );\n        }\n        _addCategory(\n            _name,\n            _memberRoleToVote,\n            _majorityVotePerc,\n            10,\n            allowedToCreateProposal,\n            closingTime,\n            _solutionHash,\n            address(0),\n            _contractName,\n            stakeIncentive\n        );\n    }\n}\n",
  "sourcePath": "/home/madan/Documents/PlotX/PlotxContract/contracts/ProposalCategory.sol",
  "compiler": {
    "name": "solc",
    "version": "0.5.7+commit.6da8b019.Emscripten.clang"
  },
  "schemaVersion": "3.3.2",
  "updatedAt": "2020-12-10T08:39:39.290Z",
  "networkType": "ethereum",
  "devdoc": {
    "methods": {
      "category(uint256)": {
        "details": "Gets category details"
      },
      "categoryAction(uint256)": {
        "details": "Gets the category action details",
        "params": {
          "_categoryId": "is the category id in concern"
        },
        "return": "the category idthe contract addressthe contract namethe default incentive"
      },
      "categoryActionDetails(uint256)": {
        "details": "Gets the category action details of a category id",
        "params": {
          "_categoryId": "is the category id in concern"
        },
        "return": "the category idthe contract addressthe contract namethe default incentiveaction function hash"
      },
      "editCategory(uint256,string,uint256,uint256,uint256,uint256[],uint256,string,address,bytes2,uint256[],string)": {
        "details": "Updates category details",
        "params": {
          "_actionHash": "hash of details containing the action that has to be performed after proposal is accepted",
          "_allowedToCreateProposal": "Member roles allowed to create the proposal",
          "_categoryId": "Category id that needs to be updated",
          "_closingTime": "Vote closing time for Each voting layer",
          "_contractAddress": "address of contract to call after proposal is accepted",
          "_contractName": "name of contract to be called after proposal is accepted",
          "_functionHash": "function signature to be executed",
          "_incentives": "rewards to distributed after proposal is accepted",
          "_majorityVotePerc": "Majority Vote threshold for Each voting layer",
          "_memberRoleToVote": "Voting Layer sequence in which the voting has to be performed.",
          "_name": "Category name",
          "_quorumPerc": "minimum threshold percentage required in voting to calculate result"
        }
      },
      "isAuthorizedToGovern(address)": {
        "details": "checks if an address is authorized to govern"
      },
      "newCategory(string,uint256,uint256,uint256,uint256[],uint256,string,address,bytes2,uint256[],string)": {
        "details": "Adds new category",
        "params": {
          "_actionHash": "hash of details containing the action that has to be performed after proposal is accepted",
          "_allowedToCreateProposal": "Member roles allowed to create the proposal",
          "_closingTime": "Vote closing time for Each voting layer",
          "_contractAddress": "address of contract to call after proposal is accepted",
          "_contractName": "name of contract to be called after proposal is accepted",
          "_functionHash": "function signature to be executed",
          "_incentives": "rewards to distributed after proposal is accepted",
          "_majorityVotePerc": "Majority Vote threshold for Each voting layer",
          "_memberRoleToVote": "Voting Layer sequence in which the voting has to be performed.",
          "_name": "Category name",
          "_quorumPerc": "minimum threshold percentage required in voting to calculate result"
        }
      },
      "proposalCategoryInitiate()": {
        "details": "Initiates Default settings for Proposal Category contract (Adding default categories)"
      },
      "setMasterAddress()": {
        "details": "Changes the master address and update it's instance"
      },
      "totalCategories()": {
        "details": "Gets Total number of categories added till now"
      }
    }
  },
  "userdoc": {
    "methods": {}
  }
}