{
  "contractName": "Staking",
  "abi": [
    {
      "constant": true,
      "inputs": [],
      "name": "interestData",
      "outputs": [
        {
          "name": "globalTotalStaked",
          "type": "uint256"
        },
        {
          "name": "globalYieldPerToken",
          "type": "uint256"
        },
        {
          "name": "lastUpdated",
          "type": "uint256"
        }
      ],
      "payable": false,
      "stateMutability": "view",
      "type": "function"
    },
    {
      "constant": true,
      "inputs": [],
      "name": "vaultAddress",
      "outputs": [
        {
          "name": "",
          "type": "address"
        }
      ],
      "payable": false,
      "stateMutability": "view",
      "type": "function"
    },
    {
      "constant": true,
      "inputs": [],
      "name": "stakingStartTime",
      "outputs": [
        {
          "name": "",
          "type": "uint256"
        }
      ],
      "payable": false,
      "stateMutability": "view",
      "type": "function"
    },
    {
      "constant": true,
      "inputs": [],
      "name": "totalReward",
      "outputs": [
        {
          "name": "",
          "type": "uint256"
        }
      ],
      "payable": false,
      "stateMutability": "view",
      "type": "function"
    },
    {
      "constant": true,
      "inputs": [],
      "name": "stakingPeriod",
      "outputs": [
        {
          "name": "",
          "type": "uint256"
        }
      ],
      "payable": false,
      "stateMutability": "view",
      "type": "function"
    },
    {
      "inputs": [
        {
          "name": "_stakeToken",
          "type": "address"
        },
        {
          "name": "_rewardToken",
          "type": "address"
        },
        {
          "name": "_stakingPeriod",
          "type": "uint256"
        },
        {
          "name": "_totalRewardToBeDistributed",
          "type": "uint256"
        },
        {
          "name": "_stakingStart",
          "type": "uint256"
        },
        {
          "name": "_vaultAdd",
          "type": "address"
        }
      ],
      "payable": false,
      "stateMutability": "nonpayable",
      "type": "constructor"
    },
    {
      "anonymous": false,
      "inputs": [
        {
          "indexed": true,
          "name": "staker",
          "type": "address"
        },
        {
          "indexed": false,
          "name": "value",
          "type": "uint256"
        },
        {
          "indexed": false,
          "name": "_globalYieldPerToken",
          "type": "uint256"
        }
      ],
      "name": "Staked",
      "type": "event"
    },
    {
      "anonymous": false,
      "inputs": [
        {
          "indexed": true,
          "name": "staker",
          "type": "address"
        },
        {
          "indexed": false,
          "name": "value",
          "type": "uint256"
        },
        {
          "indexed": false,
          "name": "_globalYieldPerToken",
          "type": "uint256"
        }
      ],
      "name": "StakeWithdrawn",
      "type": "event"
    },
    {
      "anonymous": false,
      "inputs": [
        {
          "indexed": true,
          "name": "staker",
          "type": "address"
        },
        {
          "indexed": false,
          "name": "_value",
          "type": "uint256"
        },
        {
          "indexed": false,
          "name": "_globalYieldPerToken",
          "type": "uint256"
        }
      ],
      "name": "InterestCollected",
      "type": "event"
    },
    {
      "constant": false,
      "inputs": [
        {
          "name": "_amount",
          "type": "uint256"
        }
      ],
      "name": "stake",
      "outputs": [],
      "payable": false,
      "stateMutability": "nonpayable",
      "type": "function"
    },
    {
      "constant": false,
      "inputs": [
        {
          "name": "_amount",
          "type": "uint256"
        }
      ],
      "name": "withdrawStakeAndInterest",
      "outputs": [],
      "payable": false,
      "stateMutability": "nonpayable",
      "type": "function"
    },
    {
      "constant": false,
      "inputs": [],
      "name": "withdrawInterest",
      "outputs": [],
      "payable": false,
      "stateMutability": "nonpayable",
      "type": "function"
    },
    {
      "constant": false,
      "inputs": [],
      "name": "updateGlobalYield",
      "outputs": [],
      "payable": false,
      "stateMutability": "nonpayable",
      "type": "function"
    },
    {
      "constant": true,
      "inputs": [
        {
          "name": "_staker",
          "type": "address"
        }
      ],
      "name": "getYieldData",
      "outputs": [
        {
          "name": "",
          "type": "uint256"
        },
        {
          "name": "",
          "type": "uint256"
        }
      ],
      "payable": false,
      "stateMutability": "view",
      "type": "function"
    },
    {
      "constant": true,
      "inputs": [
        {
          "name": "_staker",
          "type": "address"
        }
      ],
      "name": "calculateInterest",
      "outputs": [
        {
          "name": "",
          "type": "uint256"
        }
      ],
      "payable": false,
      "stateMutability": "view",
      "type": "function"
    },
    {
      "constant": true,
      "inputs": [
        {
          "name": "_staker",
          "type": "address"
        }
      ],
      "name": "getStakerData",
      "outputs": [
        {
          "name": "",
          "type": "uint256"
        },
        {
          "name": "",
          "type": "uint256"
        }
      ],
      "payable": false,
      "stateMutability": "view",
      "type": "function"
    },
    {
      "constant": true,
      "inputs": [
        {
          "name": "_staker",
          "type": "address"
        }
      ],
      "name": "getStatsData",
      "outputs": [
        {
          "name": "",
          "type": "uint256"
        },
        {
          "name": "",
          "type": "uint256"
        },
        {
          "name": "",
          "type": "uint256"
        },
        {
          "name": "",
          "type": "uint256"
        },
        {
          "name": "",
          "type": "uint256"
        }
      ],
      "payable": false,
      "stateMutability": "view",
      "type": "function"
    }
  ],
  "bytecode": "0x608060405234801561001057600080fd5b5060405160c080611441833981018060405260c081101561003057600080fd5b508051602082015160408301516060840151608085015160a0909501519394929391929091836100c157604080517f08c379a000000000000000000000000000000000000000000000000000000000815260206004820152601260248201527f53686f756c6420626520706f7369746976650000000000000000000000000000604482015290519081900360640190fd5b6000831161013057604080517f08c379a000000000000000000000000000000000000000000000000000000000815260206004820152601960248201527f546f74616c207265776172642063616e206e6f74206265203000000000000000604482015290519081900360640190fd5b4282101561019f57604080517f08c379a000000000000000000000000000000000000000000000000000000000815260206004820152601460248201527f43616e206e6f7420626520706173742074696d65000000000000000000000000604482015290519081900360640190fd5b6001600160a01b03861661020257604080517f08c379a00000000000000000000000000000000000000000000000000000000081526020600482015260176024820152600080516020611421833981519152604482015290519081900360640190fd5b6001600160a01b03851661026557604080517f08c379a00000000000000000000000000000000000000000000000000000000081526020600482015260176024820152600080516020611421833981519152604482015290519081900360640190fd5b6001600160a01b0381166102c857604080517f08c379a00000000000000000000000000000000000000000000000000000000081526020600482015260176024820152600080516020611421833981519152604482015290519081900360640190fd5b600080546001600160a01b039788166001600160a01b03199182161790915560018054968816968216969096179095556006829055600491909155600992909255600755600880549190931691161790556110f9806103286000396000f3fe608060405234801561001057600080fd5b50600436106100ce5760003560e01c8063750142e61161008c578063c03d5b4711610066578063c03d5b47146101ca578063c601f352146101d2578063e11932cf146101f8578063ebbbabbd1461021e576100ce565b8063750142e6146101665780637943913d1461016e578063a694fc3a146101ad576100ce565b806263750c146100d357806304c3a8a3146100dd57806329c257a2146100fa5780633b71be5914610102578063430bf08a146101285780636abfd1831461014c575b600080fd5b6100db61026f565b005b6100db600480360360208110156100f357600080fd5b50356103ef565b6100db6105d9565b61010a610611565b60408051938452602084019290925282820152519081900360600190f35b61013061061d565b604080516001600160a01b039092168252519081900360200190f35b61015461062c565b60408051918252519081900360200190f35b610154610632565b6101946004803603602081101561018457600080fd5b50356001600160a01b0316610638565b6040805192835260208301919091528051918290030190f35b6100db600480360360208110156101c357600080fd5b503561065c565b61015461084a565b610194600480360360208110156101e857600080fd5b50356001600160a01b0316610850565b6101546004803603602081101561020e57600080fd5b50356001600160a01b0316610873565b6102446004803603602081101561023457600080fd5b50356001600160a01b0316610906565b6040805195865260208601949094528484019290925260608401526080830152519081900360a00190f35b6000610279610bd2565b905060006102a460095461029860075485610c5290919063ffffffff16565b9063ffffffff610cb716565b90506102af81610d24565b60006102ba33610873565b3360009081526005602052604090206001810154919250906102e2908363ffffffff610e2016565b6001808301919091555460408051600160e01b63a9059cbb0281523360048201526024810185905290516001600160a01b039092169163a9059cbb916044808201926020929091908290030181600087803b15801561034057600080fd5b505af1158015610354573d6000803e3d6000fd5b505050506040513d602081101561036a57600080fd5b50516103aa57604051600160e51b62461bcd0281526004018080602001828103825260218152602001806110846021913960400191505060405180910390fd5b600354604080518481526020810192909252805133927f9bbd517758fbae61197f1c1c04c8614064e89512dbaf4350dcdf76fcaa5e216192908290030190a250505050565b336000908152600560205260409020816104535760408051600160e51b62461bcd02815260206004820152601f60248201527f53686f756c6420776974686472617720706f73697469766520616d6f756e7400604482015290519081900360640190fd5b80548211156104ac5760408051600160e51b62461bcd02815260206004820152601760248201527f4e6f7420656e6f75676820746f6b656e207374616b6564000000000000000000604482015290519081900360640190fd5b6104b461026f565b6104be3383610e7d565b6000805460408051600160e01b63a9059cbb0281523360048201526024810186905290516001600160a01b039092169263a9059cbb926044808401936020939083900390910190829087803b15801561051657600080fd5b505af115801561052a573d6000803e3d6000fd5b505050506040513d602081101561054057600080fd5b50516105965760408051600160e51b62461bcd02815260206004820152601860248201527f7769746864726177207472616e73666572206661696c65640000000000000000604482015290519081900360640190fd5b600354604080518481526020810192909252805133927f933735aa8de6d7547d0126171b2f31b9c34dd00f3ecd4be85a0ba047db4fafef92908290030190a25050565b60006105e3610bd2565b9050600061060260095461029860075485610c5290919063ffffffff16565b905061060d81610d24565b5050565b60025460035460045483565b6008546001600160a01b031681565b60065481565b60075481565b6003546001600160a01b038216600090815260056020526040902060020154915091565b6000811161069e57604051600160e51b62461bcd028152600401808060200182810382526029815260200180610fd76029913960400191505060405180910390fd5b6000805460408051600160e01b6323b872dd0281523360048201523060248201526044810185905290516001600160a01b03909216926323b872dd926064808401936020939083900390910190829087803b1580156106fc57600080fd5b505af1158015610710573d6000803e3d6000fd5b505050506040513d602081101561072657600080fd5b505161076657604051600160e51b62461bcd02815260040180806020018281038252603a815260200180611000603a913960400191505060405180910390fd5b60095460065461077d90429063ffffffff610ee316565b11156107bd57604051600160e51b62461bcd02815260040180806020018281038252602981526020018061103a6029913960400191505060405180910390fd5b60006107ee6009546102986007546107e2600280015442610ee390919063ffffffff16565b9063ffffffff610c5216565b4260045590506107fd81610d24565b6108073383610f43565b600354604080518481526020810192909252805133927f1449c6dd7851abc30abf37f57715f492010519147cc2652fbc38202c18a6ee9092908290030190a25050565b60095481565b6001600160a01b0316600090815260056020526040902080546001909101549091565b6001600160a01b03811660009081526005602052604081206001810154600354825484916108b591670de0b6b3a764000091610298919063ffffffff610c5216565b905060006108d0846002015484610e2090919063ffffffff16565b9050818111156108e7576000945050505050610901565b60006108f9838363ffffffff610ee316565b955050505050505b919050565b6001600160a01b03811660009081526005602052604081206006548291829182918291829081908190819061094290429063ffffffff610ee316565b905060095481111561095357506009545b61096e60095461029860075484610c5290919063ffffffff16565b925060006009548214156109ad576004546009546006546109a6929161099a919063ffffffff610e2016565b9063ffffffff610ee316565b90506109c4565b6004546109c190429063ffffffff610ee316565b90505b60006109e160095461029860075485610c5290919063ffffffff16565b60095460065491925060009182916109ff919063ffffffff610e2016565b421015610a2457610a214261099a600954600654610e2090919063ffffffff16565b90505b6000610a4160095461029860075485610c5290919063ffffffff16565b60025490915060009015610ab757600254610a8190610a729061029888670de0b6b3a764000063ffffffff610c5216565b6003549063ffffffff610e2016565b600254909450610ab490610aa79061029885670de0b6b3a764000063ffffffff610c5216565b859063ffffffff610e2016565b90505b8a54610ad790670de0b6b3a764000090610298908763ffffffff610c5216565b975087610af58c600201548d60010154610e2090919063ffffffff16565b1115610b045760009750610b32565b610b2f610b228c600201548d60010154610e2090919063ffffffff16565b899063ffffffff610ee316565b97505b8a54610b5290670de0b6b3a764000090610298908463ffffffff610c5216565b995089610b708c600201548d60010154610e2090919063ffffffff16565b1115610b7f5760009950610bad565b610baa610b9d8c600201548d60010154610e2090919063ffffffff16565b8b9063ffffffff610ee316565b99505b5050600254600754909e509c50969a5094985092965050505050505091939590929450565b600080600954610bed60065442610ee390919063ffffffff16565b1115610c3257600454600954600654610c11929161099a919063ffffffff610e2016565b9050610c2a600954600654610e2090919063ffffffff16565b600455610c4d565b600454610c4690429063ffffffff610ee316565b4260045590505b905090565b600082610c6157506000610cb1565b82820282848281610c6e57fe5b0414610cae57604051600160e51b62461bcd0281526004018080602001828103825260218152602001806110636021913960400191505060405180910390fd5b90505b92915050565b6000808211610d105760408051600160e51b62461bcd02815260206004820152601a60248201527f536166654d6174683a206469766973696f6e206279207a65726f000000000000604482015290519081900360640190fd5b6000828481610d1b57fe5b04949350505050565b600254610df65760015460085460408051600160e01b63a9059cbb0281526001600160a01b039283166004820152602481018590529051919092169163a9059cbb9160448083019260209291908290030181600087803b158015610d8757600080fd5b505af1158015610d9b573d6000803e3d6000fd5b505050506040513d6020811015610db157600080fd5b5051610df157604051600160e51b62461bcd0281526004018080602001828103825260298152602001806110a56029913960400191505060405180910390fd5b610e1d565b600254610e1990610a729061029884670de0b6b3a764000063ffffffff610c5216565b6003555b50565b600082820183811015610cae5760408051600160e51b62461bcd02815260206004820152601b60248201527f536166654d6174683a206164646974696f6e206f766572666c6f770000000000604482015290519081900360640190fd5b6001600160a01b03821660009081526005602052604090208054610ea7908363ffffffff610ee316565b8155600254610ebc908363ffffffff610ee316565b6002908155600090820181905560018201556003548154610ede918391610f99565b505050565b600082821115610f3d5760408051600160e51b62461bcd02815260206004820152601e60248201527f536166654d6174683a207375627472616374696f6e206f766572666c6f770000604482015290519081900360640190fd5b50900390565b6001600160a01b03821660009081526005602052604090208054610f6d908363ffffffff610e2016565b8155600354610f7e90829084610f99565b600254610f91908363ffffffff610e2016565b600255505050565b610fc9610fb8670de0b6b3a7640000610298858563ffffffff610c5216565b60028501549063ffffffff610e2016565b836002018190555050505056fe596f75206e65656420746f207374616b65206120706f73697469766520746f6b656e20616d6f756e745472616e7366657246726f6d206661696c65642c206d616b65207375726520796f7520617070726f76656420746f6b656e207472616e7366657243616e206e6f74207374616b65206166746572207374616b696e6720706572696f6420706173736564536166654d6174683a206d756c7469706c69636174696f6e206f766572666c6f77576974686472617720696e746572657374207472616e73666572206661696c65645472616e73666572206661696c6564207768696c652074726173666572696e6720746f207661756c74a165627a7a723058208129d7689842fed89486e94b418ab30ede533a2e6563d721ce725d0abd3fff11002943616e206e6f74206265206e756c6c2061646472657373000000000000000000",
  "source": "/* Copyright (C) 2020 PlotX.io\n  This program is free software: you can redistribute it and/or modify\n    it under the terms of the GNU General Public License as published by\n    the Free Software Foundation, either version 3 of the License, or\n    (at your option) any later version.\n  This program is distributed in the hope that it will be useful,\n    but WITHOUT ANY WARRANTY; without even the implied warranty of\n    MERCHANTABILITY or FITNESS FOR A PARTICULAR PURPOSE.  See the\n    GNU General Public License for more details.\n  You should have received a copy of the GNU General Public License\n    along with this program.  If not, see http://www.gnu.org/licenses/ */\n\npragma solidity 0.5.7;\n\nimport \"./PlotXToken.sol\";\nimport \"./external/openzeppelin-solidity/math/SafeMath.sol\";\nimport \"./external/openzeppelin-solidity/token/ERC20/ERC20.sol\";\n\n\ncontract Staking {\n    \n    using SafeMath for uint256;\n\n    /**\n     * @dev Structure to store Interest details.\n     * It contains total amount of tokens staked and globalYield.\n     */\n    struct InterestData {\n        uint256 globalTotalStaked;\n        uint256 globalYieldPerToken; \n        uint256 lastUpdated;\n        mapping(address => Staker) stakers;  \n    }\n\n    /**\n     * @dev Structure to store staking details.\n     * It contains amount of tokens staked and withdrawn interest.\n     */\n    struct Staker {\n        uint256 totalStaked;\n        uint256 withdrawnToDate;\n        uint256 stakeBuyinRate;  \n    }\n\n\n    // Token address\n    ERC20 private stakeToken;\n\n    // Reward token\n    PlotXToken private rewardToken;\n\n    // Interest and staker data\n    InterestData public interestData;\n\n    uint public stakingStartTime;\n\n    uint public totalReward;\n\n    // unclaimed reward will be trasfered to this account\n    address public vaultAddress; \n\n    // 10^18\n    uint256 private constant DECIMAL1e18 = 10**18;\n\n    //Total time (in sec) over which reward will be distributed\n    uint256 public stakingPeriod;\n\n    /**\n     * @dev Emitted when `staker` stake `value` tokens.\n     */\n    event Staked(address indexed staker, uint256 value, uint256 _globalYieldPerToken);\n\n    /**\n     * @dev Emitted when `staker` withdraws their stake `value` tokens.\n     */\n    event StakeWithdrawn(address indexed staker, uint256 value, uint256 _globalYieldPerToken);\n\n\n    /**\n     * @dev Emitted when `staker` collects interest `_value`.\n     */\n    event InterestCollected(\n        address indexed staker,\n        uint256 _value,\n        uint256 _globalYieldPerToken\n    );\n\n    /**     \n     * @dev Constructor     \n     * @param _stakeToken The address of stake Token       \n     * @param _rewardToken The address of reward Token   \n     * @param _stakingPeriod valid staking time after staking starts\n     * @param _totalRewardToBeDistributed total amount to be distributed as reward\n     */\n    constructor(\n        address _stakeToken,\n        address _rewardToken,\n        uint256 _stakingPeriod,\n        uint256 _totalRewardToBeDistributed,\n        uint256 _stakingStart,\n        address _vaultAdd\n    ) public {\n        require(_stakingPeriod > 0, \"Should be positive\");\n        require(_totalRewardToBeDistributed > 0, \"Total reward can not be 0\");\n        require(_stakingStart >= now, \"Can not be past time\");\n        require(_stakeToken != address(0), \"Can not be null address\");\n        require(_rewardToken != address(0), \"Can not be null address\");\n        require(_vaultAdd != address(0), \"Can not be null address\");\n        stakeToken = ERC20(_stakeToken);\n        rewardToken = PlotXToken(_rewardToken);\n        stakingStartTime = _stakingStart;\n        interestData.lastUpdated = _stakingStart;\n        stakingPeriod = _stakingPeriod;\n        totalReward = _totalRewardToBeDistributed;\n        vaultAddress = _vaultAdd;\n    }\n\n    /**\n     * @dev Allows a staker to deposit Tokens. Notice that `approve` is\n     * needed to be executed before the execution of this method.\n     * @param _amount The amount of tokens to stake\n     */\n    function stake(uint256 _amount) external {\n        require(_amount > 0, \"You need to stake a positive token amount\");\n        require(\n            stakeToken.transferFrom(msg.sender, address(this), _amount),\n            \"TransferFrom failed, make sure you approved token transfer\"\n        );\n        require(now.sub(stakingStartTime) <= stakingPeriod, \"Can not stake after staking period passed\");\n        uint newlyInterestGenerated = now.sub(interestData.lastUpdated).mul(totalReward).div(stakingPeriod);\n        interestData.lastUpdated = now;\n        updateGlobalYieldPerToken(newlyInterestGenerated);\n        updateStakeData(msg.sender, _amount);\n        emit Staked(msg.sender, _amount, interestData.globalYieldPerToken);\n    }\n\n    /**\n     * @dev Updates InterestData and Staker data while staking.\n     * must call update globalYieldPerToken before this operation\n     * @param _staker                 Staker's address\n     * @param _stake                  Amount of stake\n     *\n     */\n    function updateStakeData(\n        address _staker,\n        uint256 _stake\n    ) internal {\n        Staker storage _stakerData = interestData.stakers[_staker];\n\n        _stakerData.totalStaked = _stakerData.totalStaked.add(_stake);\n\n        updateStakeBuyinRate(\n            _stakerData,\n            interestData.globalYieldPerToken,\n            _stake\n        );\n\n        interestData.globalTotalStaked = interestData.globalTotalStaked.add(_stake);\n    }\n\n    /**\n     * @dev Calculates and updates the yield rate in which the staker has entered\n     * a staker may stake multiple times, so we calculate his cumulative rate his earning will be calculated based on GlobalYield and StakeBuyinRate\n     * Formula:\n     * StakeBuyinRate = [StakeBuyinRate(P) + (GlobalYield(P) x Stake)]\n     *\n     * @param _stakerData                  Staker's Data\n     * @param _globalYieldPerToken         Total yielding amount per token \n     * @param _stake                       Amount staked \n     *\n     */\n    function updateStakeBuyinRate(\n        Staker storage _stakerData,\n        uint256 _globalYieldPerToken,\n        uint256 _stake\n    ) internal {\n\n        _stakerData.stakeBuyinRate = _stakerData.stakeBuyinRate.add(\n            _globalYieldPerToken.mul(_stake).div(DECIMAL1e18)\n        );\n    }\n\n    /**\n     * @dev Withdraws the sender staked Token.\n     */\n    function withdrawStakeAndInterest(uint256 _amount) external {\n        Staker storage staker = interestData.stakers[msg.sender];\n        require(_amount > 0, \"Should withdraw positive amount\");\n        require(staker.totalStaked >= _amount, \"Not enough token staked\");\n        withdrawInterest();\n        updateStakeAndInterestData(msg.sender, _amount);\n        require(stakeToken.transfer(msg.sender, _amount), \"withdraw transfer failed\");\n        emit StakeWithdrawn(msg.sender, _amount, interestData.globalYieldPerToken);\n    }\n    \n    /**\n     * @dev Updates InterestData and Staker data while withdrawing stake.\n     *\n     * @param _staker                 Staker address\n     * @param _amount                 Amount of stake to withdraw\n     *\n     */    \n    function updateStakeAndInterestData(\n        address _staker,\n        uint256 _amount\n    ) internal {\n        Staker storage _stakerData = interestData.stakers[_staker];\n\n        _stakerData.totalStaked = _stakerData.totalStaked.sub(_amount);\n\n        interestData.globalTotalStaked = interestData.globalTotalStaked.sub(_amount);\n\n        _stakerData.stakeBuyinRate = 0;\n        _stakerData.withdrawnToDate = 0;\n        updateStakeBuyinRate(\n            _stakerData,\n            interestData.globalYieldPerToken,\n            _stakerData.totalStaked\n        );\n    }\n\n    /**\n     * @dev Withdraws the sender Earned interest.\n     */\n    function withdrawInterest() public {\n        uint timeSinceLastUpdate = _timeSinceLastUpdate();\n        uint newlyInterestGenerated = timeSinceLastUpdate.mul(totalReward).div(stakingPeriod);\n        \n        updateGlobalYieldPerToken(newlyInterestGenerated);\n        uint256 interest = calculateInterest(msg.sender);\n        Staker storage stakerData = interestData.stakers[msg.sender];\n        stakerData.withdrawnToDate = stakerData.withdrawnToDate.add(interest);\n        require(rewardToken.transfer(msg.sender, interest), \"Withdraw interest transfer failed\");\n        emit InterestCollected(msg.sender, interest, interestData.globalYieldPerToken);\n    }\n\n    function updateGlobalYield() public {\n        uint timeSinceLastUpdate = _timeSinceLastUpdate();\n        uint newlyInterestGenerated = timeSinceLastUpdate.mul(totalReward).div(stakingPeriod);\n        updateGlobalYieldPerToken(newlyInterestGenerated);\n    }\n\n    function getYieldData(address _staker) public view returns(uint256, uint256)\n    {\n\n      return (interestData.globalYieldPerToken, interestData.stakers[_staker].stakeBuyinRate);\n    }\n\n    function _timeSinceLastUpdate() internal returns(uint256) {\n        uint timeSinceLastUpdate;\n        if(now.sub(stakingStartTime) > stakingPeriod)\n        {\n            timeSinceLastUpdate = stakingStartTime.add(stakingPeriod).sub(interestData.lastUpdated);\n            interestData.lastUpdated = stakingStartTime.add(stakingPeriod);\n        } else {\n            timeSinceLastUpdate = now.sub(interestData.lastUpdated);\n            interestData.lastUpdated = now;\n        }\n        return timeSinceLastUpdate;\n    }\n\n    /**\n     * @dev Calculates Interest for staker for their stake.\n     *\n     * Formula:\n     * EarnedInterest = MAX[TotalStaked x GlobalYield - (StakeBuyinRate + WithdrawnToDate), 0]\n     *\n     * @param _staker                     Staker's address\n     *\n     * @return The amount of tokens credit for the staker.\n     */\n    function calculateInterest(address _staker)\n        public\n        view\n        returns (uint256)\n    {\n        Staker storage stakerData = interestData.stakers[_staker];\n\n        \n        uint256 _withdrawnToDate = stakerData.withdrawnToDate;\n\n        uint256 intermediateInterest = stakerData\n            .totalStaked\n            .mul(interestData.globalYieldPerToken).div(DECIMAL1e18);\n\n        uint256 intermediateVal = _withdrawnToDate.add(\n            stakerData.stakeBuyinRate\n        );\n\n        // will lead to -ve value\n        if (intermediateVal > intermediateInterest) {\n            return 0;\n        }\n\n        uint _earnedInterest = (intermediateInterest.sub(intermediateVal));\n\n        return _earnedInterest;\n    }\n\n    /**\n     * @dev Calculates and updates new accrued amount per token since last update.\n     *\n     * Formula:\n     * GlobalYield = GlobalYield(P) + newlyGeneratedInterest/GlobalTotalStake.\n     *\n     * @param _interestGenerated  Interest token earned since last update.\n     *\n     */\n    function updateGlobalYieldPerToken(\n        uint256 _interestGenerated\n    ) internal {\n        if (interestData.globalTotalStaked == 0) {\n            require(rewardToken.transfer(vaultAddress, _interestGenerated), \"Transfer failed while trasfering to vault\");\n            return;\n        }\n        interestData.globalYieldPerToken = interestData.globalYieldPerToken.add(\n            _interestGenerated\n                .mul(DECIMAL1e18) \n                .div(interestData.globalTotalStaked) \n        );\n    }\n\n\n    function getStakerData(address _staker) public view returns(uint256, uint256)\n    {\n\n      return (interestData.stakers[_staker].totalStaked, interestData.stakers[_staker].withdrawnToDate);\n    }\n\n    /**\n     * @dev returns stats data.\n     * @param _staker Address of staker.\n     * @return Total staked.\n     * @return Total reward to be distributed.\n     * @return estimated reward for user at end of staking period if no one stakes from current time.\n     * @return Unlocked reward based on elapsed time.\n     * @return Accrued reward for user till now.\n     */\n    function getStatsData(address _staker) external view returns(uint, uint, uint, uint, uint)\n    {\n\n        Staker storage stakerData = interestData.stakers[_staker];\n        uint estimatedReward = 0;\n        uint unlockedReward = 0;\n        uint accruedReward = 0;\n        uint timeElapsed = now.sub(stakingStartTime);\n\n        if(timeElapsed > stakingPeriod)\n        {\n            timeElapsed = stakingPeriod;\n        }\n\n        unlockedReward = timeElapsed.mul(totalReward).div(stakingPeriod);\n\n        uint timeSinceLastUpdate;\n        if(timeElapsed == stakingPeriod)\n        {\n            timeSinceLastUpdate = stakingStartTime.add(stakingPeriod).sub(interestData.lastUpdated);\n        } else {\n            timeSinceLastUpdate = now.sub(interestData.lastUpdated);\n        }\n        uint newlyInterestGenerated = timeSinceLastUpdate.mul(totalReward).div(stakingPeriod);\n        uint updatedGlobalYield;\n        uint stakingTimeLeft = 0;\n        if(now < stakingStartTime.add(stakingPeriod)){\n         stakingTimeLeft = stakingStartTime.add(stakingPeriod).sub(now);\n        }\n        uint interestGeneratedEnd = stakingTimeLeft.mul(totalReward).div(stakingPeriod);\n        uint globalYieldEnd;\n        if (interestData.globalTotalStaked != 0) {\n            updatedGlobalYield = interestData.globalYieldPerToken.add(\n            newlyInterestGenerated\n                .mul(DECIMAL1e18)\n                .div(interestData.globalTotalStaked));\n\n            globalYieldEnd = updatedGlobalYield.add(interestGeneratedEnd.mul(DECIMAL1e18).div(interestData.globalTotalStaked));\n        }\n        \n        accruedReward = stakerData\n            .totalStaked\n            .mul(updatedGlobalYield).div(DECIMAL1e18);\n\n        if (stakerData.withdrawnToDate.add(stakerData.stakeBuyinRate) > accruedReward)\n        {\n            accruedReward = 0;\n        } else {\n\n            accruedReward = accruedReward.sub(stakerData.withdrawnToDate.add(stakerData.stakeBuyinRate));\n        }\n\n        estimatedReward = stakerData\n            .totalStaked\n            .mul(globalYieldEnd).div(DECIMAL1e18);\n        if (stakerData.withdrawnToDate.add(stakerData.stakeBuyinRate) > estimatedReward) {\n            estimatedReward = 0;\n        } else {\n\n            estimatedReward = estimatedReward.sub(stakerData.withdrawnToDate.add(stakerData.stakeBuyinRate));\n        }\n\n        return (interestData.globalTotalStaked, totalReward, estimatedReward, unlockedReward, accruedReward);\n\n    }\n}\n",
  "sourcePath": "/home/madan/Documents/PlotX/PlotxContract/contracts/Staking.sol",
  "compiler": {
    "name": "solc",
    "version": "0.5.7+commit.6da8b019.Emscripten.clang"
  },
  "schemaVersion": "3.3.2",
  "updatedAt": "2020-12-10T08:30:24.940Z",
  "devdoc": {
    "methods": {
      "calculateInterest(address)": {
        "details": "Calculates Interest for staker for their stake.     * Formula: EarnedInterest = MAX[TotalStaked x GlobalYield - (StakeBuyinRate + WithdrawnToDate), 0]",
        "params": {
          "_staker": "Staker's address"
        },
        "return": "The amount of tokens credit for the staker."
      },
      "constructor": {
        "details": "Constructor     ",
        "params": {
          "_rewardToken": "The address of reward Token   ",
          "_stakeToken": "The address of stake Token       ",
          "_stakingPeriod": "valid staking time after staking starts",
          "_totalRewardToBeDistributed": "total amount to be distributed as reward"
        }
      },
      "getStatsData(address)": {
        "details": "returns stats data.",
        "params": {
          "_staker": "Address of staker."
        },
        "return": "Total staked.Total reward to be distributed.estimated reward for user at end of staking period if no one stakes from current time.Unlocked reward based on elapsed time.Accrued reward for user till now."
      },
      "stake(uint256)": {
        "details": "Allows a staker to deposit Tokens. Notice that `approve` is needed to be executed before the execution of this method.",
        "params": {
          "_amount": "The amount of tokens to stake"
        }
      },
      "withdrawInterest()": {
        "details": "Withdraws the sender Earned interest."
      },
      "withdrawStakeAndInterest(uint256)": {
        "details": "Withdraws the sender staked Token."
      }
    }
  },
  "userdoc": {
    "methods": {}
  }
}