{
  "contractName": "TokenController",
  "abi": [
    {
      "constant": false,
      "inputs": [
        {
          "name": "userAddress",
          "type": "address"
        },
        {
          "name": "functionSignature",
          "type": "bytes"
        },
        {
          "name": "sigR",
          "type": "bytes32"
        },
        {
          "name": "sigS",
          "type": "bytes32"
        },
        {
          "name": "sigV",
          "type": "uint8"
        }
      ],
      "name": "executeMetaTransaction",
      "outputs": [
        {
          "name": "",
          "type": "bytes"
        }
      ],
      "payable": true,
      "stateMutability": "payable",
      "type": "function"
    },
    {
      "constant": true,
      "inputs": [],
      "name": "_msgSender",
      "outputs": [
        {
          "name": "sender",
          "type": "address"
        }
      ],
      "payable": false,
      "stateMutability": "view",
      "type": "function"
    },
    {
      "constant": true,
      "inputs": [
        {
          "name": "_toCheck",
          "type": "address"
        }
      ],
      "name": "isAuthorizedToGovern",
      "outputs": [
        {
          "name": "",
          "type": "bool"
        }
      ],
      "payable": false,
      "stateMutability": "view",
      "type": "function"
    },
    {
      "constant": true,
      "inputs": [
        {
          "name": "user",
          "type": "address"
        }
      ],
      "name": "getNonce",
      "outputs": [
        {
          "name": "nonce",
          "type": "uint256"
        }
      ],
      "payable": false,
      "stateMutability": "view",
      "type": "function"
    },
    {
      "constant": true,
      "inputs": [],
      "name": "vesting",
      "outputs": [
        {
          "name": "",
          "type": "address"
        }
      ],
      "payable": false,
      "stateMutability": "view",
      "type": "function"
    },
    {
      "constant": true,
      "inputs": [],
      "name": "bLOTToken",
      "outputs": [
        {
          "name": "",
          "type": "address"
        }
      ],
      "payable": false,
      "stateMutability": "view",
      "type": "function"
    },
    {
      "constant": true,
      "inputs": [],
      "name": "getChainID",
      "outputs": [
        {
          "name": "",
          "type": "uint256"
        }
      ],
      "payable": false,
      "stateMutability": "pure",
      "type": "function"
    },
    {
      "constant": true,
      "inputs": [
        {
          "name": "owner",
          "type": "address"
        },
        {
          "name": "nonce",
          "type": "uint256"
        },
        {
          "name": "chainID",
          "type": "uint256"
        },
        {
          "name": "functionSignature",
          "type": "bytes"
        },
        {
          "name": "sigR",
          "type": "bytes32"
        },
        {
          "name": "sigS",
          "type": "bytes32"
        },
        {
          "name": "sigV",
          "type": "uint8"
        }
      ],
      "name": "verify",
      "outputs": [
        {
          "name": "",
          "type": "bool"
        }
      ],
      "payable": false,
      "stateMutability": "view",
      "type": "function"
    },
    {
      "constant": true,
      "inputs": [
        {
          "name": "",
          "type": "address"
        },
        {
          "name": "",
          "type": "uint256"
        }
      ],
      "name": "lockReason",
      "outputs": [
        {
          "name": "",
          "type": "bytes32"
        }
      ],
      "payable": false,
      "stateMutability": "view",
      "type": "function"
    },
    {
      "constant": true,
      "inputs": [],
      "name": "masterAddress",
      "outputs": [
        {
          "name": "",
          "type": "address"
        }
      ],
      "payable": false,
      "stateMutability": "view",
      "type": "function"
    },
    {
      "constant": true,
      "inputs": [
        {
          "name": "",
          "type": "address"
        },
        {
          "name": "",
          "type": "bytes32"
        }
      ],
      "name": "locked",
      "outputs": [
        {
          "name": "amount",
          "type": "uint256"
        },
        {
          "name": "validity",
          "type": "uint256"
        },
        {
          "name": "claimed",
          "type": "bool"
        }
      ],
      "payable": false,
      "stateMutability": "view",
      "type": "function"
    },
    {
      "constant": true,
      "inputs": [],
      "name": "marketRegistry",
      "outputs": [
        {
          "name": "",
          "type": "address"
        }
      ],
      "payable": false,
      "stateMutability": "view",
      "type": "function"
    },
    {
      "constant": true,
      "inputs": [],
      "name": "token",
      "outputs": [
        {
          "name": "",
          "type": "address"
        }
      ],
      "payable": false,
      "stateMutability": "view",
      "type": "function"
    },
    {
      "anonymous": false,
      "inputs": [
        {
          "indexed": true,
          "name": "member",
          "type": "address"
        },
        {
          "indexed": false,
          "name": "lockedUnder",
          "type": "bytes32"
        },
        {
          "indexed": false,
          "name": "amount",
          "type": "uint256"
        }
      ],
      "name": "Burned",
      "type": "event"
    },
    {
      "anonymous": false,
      "inputs": [
        {
          "indexed": false,
          "name": "userAddress",
          "type": "address"
        },
        {
          "indexed": false,
          "name": "relayerAddress",
          "type": "address"
        },
        {
          "indexed": false,
          "name": "functionSignature",
          "type": "bytes"
        }
      ],
      "name": "MetaTransactionExecuted",
      "type": "event"
    },
    {
      "anonymous": false,
      "inputs": [
        {
          "indexed": true,
          "name": "_of",
          "type": "address"
        },
        {
          "indexed": true,
          "name": "_reason",
          "type": "bytes32"
        },
        {
          "indexed": false,
          "name": "_amount",
          "type": "uint256"
        },
        {
          "indexed": false,
          "name": "_validity",
          "type": "uint256"
        }
      ],
      "name": "Locked",
      "type": "event"
    },
    {
      "anonymous": false,
      "inputs": [
        {
          "indexed": true,
          "name": "_of",
          "type": "address"
        },
        {
          "indexed": true,
          "name": "_reason",
          "type": "bytes32"
        },
        {
          "indexed": false,
          "name": "_amount",
          "type": "uint256"
        }
      ],
      "name": "Unlocked",
      "type": "event"
    },
    {
      "constant": false,
      "inputs": [],
      "name": "setMasterAddress",
      "outputs": [],
      "payable": false,
      "stateMutability": "nonpayable",
      "type": "function"
    },
    {
      "constant": false,
      "inputs": [
        {
          "name": "_vesting",
          "type": "address"
        }
      ],
      "name": "initiateVesting",
      "outputs": [],
      "payable": false,
      "stateMutability": "nonpayable",
      "type": "function"
    },
    {
      "constant": false,
      "inputs": [
        {
          "name": "_of",
          "type": "address"
        },
        {
          "name": "_to",
          "type": "address"
        },
        {
          "name": "_amount",
          "type": "uint256"
        }
      ],
      "name": "swapBLOT",
      "outputs": [],
      "payable": false,
      "stateMutability": "nonpayable",
      "type": "function"
    },
    {
      "constant": false,
      "inputs": [
        {
          "name": "_token",
          "type": "address"
        },
        {
          "name": "_of",
          "type": "address"
        },
        {
          "name": "_to",
          "type": "address"
        },
        {
          "name": "_amount",
          "type": "uint256"
        }
      ],
      "name": "transferFrom",
      "outputs": [],
      "payable": false,
      "stateMutability": "nonpayable",
      "type": "function"
    },
    {
      "constant": false,
      "inputs": [
        {
          "name": "code",
          "type": "bytes8"
        },
        {
          "name": "val",
          "type": "uint256"
        }
      ],
      "name": "updateUintParameters",
      "outputs": [],
      "payable": false,
      "stateMutability": "nonpayable",
      "type": "function"
    },
    {
      "constant": true,
      "inputs": [
        {
          "name": "code",
          "type": "bytes8"
        }
      ],
      "name": "getUintParameters",
      "outputs": [
        {
          "name": "codeVal",
          "type": "bytes8"
        },
        {
          "name": "val",
          "type": "uint256"
        }
      ],
      "payable": false,
      "stateMutability": "view",
      "type": "function"
    },
    {
      "constant": false,
      "inputs": [
        {
          "name": "_reason",
          "type": "bytes32"
        },
        {
          "name": "_amount",
          "type": "uint256"
        },
        {
          "name": "_time",
          "type": "uint256"
        }
      ],
      "name": "lock",
      "outputs": [
        {
          "name": "",
          "type": "bool"
        }
      ],
      "payable": false,
      "stateMutability": "nonpayable",
      "type": "function"
    },
    {
      "constant": true,
      "inputs": [
        {
          "name": "_of",
          "type": "address"
        },
        {
          "name": "_reason",
          "type": "bytes32"
        }
      ],
      "name": "tokensLocked",
      "outputs": [
        {
          "name": "amount",
          "type": "uint256"
        }
      ],
      "payable": false,
      "stateMutability": "view",
      "type": "function"
    },
    {
      "constant": true,
      "inputs": [
        {
          "name": "_of",
          "type": "address"
        },
        {
          "name": "_reason",
          "type": "bytes32"
        },
        {
          "name": "_time",
          "type": "uint256"
        }
      ],
      "name": "tokensLockedAtTime",
      "outputs": [
        {
          "name": "amount",
          "type": "uint256"
        }
      ],
      "payable": false,
      "stateMutability": "view",
      "type": "function"
    },
    {
      "constant": true,
      "inputs": [
        {
          "name": "_of",
          "type": "address"
        }
      ],
      "name": "totalBalanceOf",
      "outputs": [
        {
          "name": "amount",
          "type": "uint256"
        }
      ],
      "payable": false,
      "stateMutability": "view",
      "type": "function"
    },
    {
      "constant": true,
      "inputs": [],
      "name": "totalSupply",
      "outputs": [
        {
          "name": "",
          "type": "uint256"
        }
      ],
      "payable": false,
      "stateMutability": "view",
      "type": "function"
    },
    {
      "constant": false,
      "inputs": [
        {
          "name": "_reason",
          "type": "bytes32"
        },
        {
          "name": "_amount",
          "type": "uint256"
        }
      ],
      "name": "increaseLockAmount",
      "outputs": [
        {
          "name": "",
          "type": "bool"
        }
      ],
      "payable": false,
      "stateMutability": "nonpayable",
      "type": "function"
    },
    {
      "constant": false,
      "inputs": [
        {
          "name": "_reason",
          "type": "bytes32"
        },
        {
          "name": "_time",
          "type": "uint256"
        }
      ],
      "name": "extendLock",
      "outputs": [
        {
          "name": "",
          "type": "bool"
        }
      ],
      "payable": false,
      "stateMutability": "nonpayable",
      "type": "function"
    },
    {
      "constant": true,
      "inputs": [
        {
          "name": "_of",
          "type": "address"
        },
        {
          "name": "_reason",
          "type": "bytes32"
        }
      ],
      "name": "tokensUnlockable",
      "outputs": [
        {
          "name": "amount",
          "type": "uint256"
        }
      ],
      "payable": false,
      "stateMutability": "view",
      "type": "function"
    },
    {
      "constant": false,
      "inputs": [
        {
          "name": "_of",
          "type": "address"
        }
      ],
      "name": "unlock",
      "outputs": [
        {
          "name": "unlockableTokens",
          "type": "uint256"
        }
      ],
      "payable": false,
      "stateMutability": "nonpayable",
      "type": "function"
    },
    {
      "constant": true,
      "inputs": [
        {
          "name": "_of",
          "type": "address"
        }
      ],
      "name": "getUnlockableTokens",
      "outputs": [
        {
          "name": "unlockableTokens",
          "type": "uint256"
        }
      ],
      "payable": false,
      "stateMutability": "view",
      "type": "function"
    },
    {
      "constant": false,
      "inputs": [
        {
          "name": "_of",
          "type": "address"
        },
        {
          "name": "_period",
          "type": "uint256"
        }
      ],
      "name": "lockForGovernanceVote",
      "outputs": [],
      "payable": false,
      "stateMutability": "nonpayable",
      "type": "function"
    },
    {
      "constant": false,
      "inputs": [
        {
          "name": "_of",
          "type": "address"
        },
        {
          "name": "_reason",
          "type": "bytes32"
        },
        {
          "name": "_amount",
          "type": "uint256"
        }
      ],
      "name": "burnLockedTokens",
      "outputs": [
        {
          "name": "",
          "type": "bool"
        }
      ],
      "payable": false,
      "stateMutability": "nonpayable",
      "type": "function"
    }
  ],
  "bytecode": "0x608060405234801561001057600080fd5b50612f09806100206000396000f3fe6080604052600436106101d85760003560e01c8063564b81ef11610102578063a9dab16711610095578063e8176caa11610064578063e8176caa146108ff578063ecb96fe614610938578063ef913a7c1461094d578063fc0c546a14610980576101d8565b8063a9dab1671461082e578063ab4a2eb31461085e578063d365a08e14610891578063d71be8db146108a6576101d8565b806371d66f00116100d157806371d66f001461074c5780637aef5b731461078557806381fc4d90146107c45780639dd86e0f146107f4576101d8565b8063564b81ef146105c95780635ca48d8c146105de5780636122f840146106175780636281133d1461066f576101d8565b80632d0335ab1161017a5780634a5245b4116101495780634a5245b4146105335780634b0ee02a146105485780634b6199b01461057b5780635294d0e814610590576101d8565b80632d0335ab146104825780632e82aaf2146104b55780632f6c493c146104eb57806344c63eec1461051e576101d8565b806315dacbea116101b657806315dacbea1461038c578063179e91f1146103d557806318160ddd1461042657806322ce72541461043b576101d8565b80630c53c51c146101dd578063119df25f146103165780631371b2bd14610347575b600080fd5b6102a1600480360360a08110156101f357600080fd5b6001600160a01b03823516919081019060408101602082013564010000000081111561021e57600080fd5b82018360208201111561023057600080fd5b8035906020019184600183028401116401000000008311171561025257600080fd5b91908080601f016020809104026020016040519081016040528093929190818152602001838380828437600092019190915250929550508235935050506020810135906040013560ff16610995565b6040805160208082528351818301528351919283929083019185019080838360005b838110156102db5781810151838201526020016102c3565b50505050905090810190601f1680156103085780820380516001836020036101000a031916815260200191505b509250505060405180910390f35b34801561032257600080fd5b5061032b610ca8565b604080516001600160a01b039092168252519081900360200190f35b34801561035357600080fd5b5061038a6004803603606081101561036a57600080fd5b506001600160a01b03813581169160208101359091169060400135610d06565b005b34801561039857600080fd5b5061038a600480360360808110156103af57600080fd5b506001600160a01b03813581169160208101358216916040820135169060600135610e45565b3480156103e157600080fd5b50610414600480360360608110156103f857600080fd5b506001600160a01b038135169060208101359060400135610fa0565b60408051918252519081900360200190f35b34801561043257600080fd5b50610414610ff9565b34801561044757600080fd5b5061046e6004803603602081101561045e57600080fd5b50356001600160a01b031661107a565b604080519115158252519081900360200190f35b34801561048e57600080fd5b50610414600480360360208110156104a557600080fd5b50356001600160a01b0316611114565b3480156104c157600080fd5b5061046e600480360360608110156104d857600080fd5b508035906020810135906040013561112f565b3480156104f757600080fd5b506104146004803603602081101561050e57600080fd5b50356001600160a01b03166114c5565b34801561052a57600080fd5b5061032b6117ed565b34801561053f57600080fd5b5061032b6117fc565b34801561055457600080fd5b506104146004803603602081101561056b57600080fd5b50356001600160a01b031661180b565b34801561058757600080fd5b5061038a6119a6565b34801561059c57600080fd5b50610414600480360360408110156105b357600080fd5b506001600160a01b038135169060200135611c94565b3480156105d557600080fd5b50610414611d1d565b3480156105ea57600080fd5b506104146004803603604081101561060157600080fd5b506001600160a01b038135169060200135611d22565b34801561062357600080fd5b5061064b6004803603602081101561063a57600080fd5b50356001600160c01b031916611d79565b604080516001600160c01b0319909316835260208301919091528051918290030190f35b34801561067b57600080fd5b5061046e600480360360e081101561069257600080fd5b6001600160a01b0382351691602081013591604082013591908101906080810160608201356401000000008111156106c957600080fd5b8201836020820111156106db57600080fd5b803590602001918460018302840111640100000000831117156106fd57600080fd5b91908080601f016020809104026020016040519081016040528093929190818152602001838380828437600092019190915250929550508235935050506020810135906040013560ff16611db6565b34801561075857600080fd5b506104146004803603604081101561076f57600080fd5b506001600160a01b038135169060200135611f44565b34801561079157600080fd5b5061046e600480360360608110156107a857600080fd5b506001600160a01b038135169060208101359060400135611f72565b3480156107d057600080fd5b5061046e600480360360408110156107e757600080fd5b5080359060200135612255565b34801561080057600080fd5b5061038a6004803603604081101561081757600080fd5b506001600160c01b03198135169060200135612637565b34801561083a57600080fd5b5061046e6004803603604081101561085157600080fd5b5080359060200135612746565b34801561086a57600080fd5b506104146004803603602081101561088157600080fd5b50356001600160a01b03166128a0565b34801561089d57600080fd5b5061032b612904565b3480156108b257600080fd5b506108df600480360360408110156108c957600080fd5b506001600160a01b038135169060200135612913565b604080519384526020840192909252151582820152519081900360600190f35b34801561090b57600080fd5b5061038a6004803603604081101561092257600080fd5b506001600160a01b03813516906020013561293e565b34801561094457600080fd5b5061032b612a73565b34801561095957600080fd5b5061038a6004803603602081101561097057600080fd5b50356001600160a01b0316612a82565b34801561098c57600080fd5b5061032b612b6e565b6001600160a01b0385166000908152600360205260409020546060906109c89087906109bf611d1d565b88888888611db6565b610a0657604051600160e51b62461bcd028152600401808060200182810382526021815260200180612e946021913960400191505060405180910390fd5b6001600160a01b038616600090815260036020526040902054610a3090600163ffffffff612b8216565b60036000886001600160a01b03166001600160a01b031681526020019081526020016000208190555060006060306001600160a01b031687896040516020018083805190602001908083835b60208310610a9b5780518252601f199092019160209182019101610a7c565b51815160209384036101000a60001901801990921691161790526001600160a01b039590951660601b92019182525060408051808303600b190181526014909201908190528151919450928392508401908083835b60208310610b0f5780518252601f199092019160209182019101610af0565b6001836020036101000a0380198251168184511680821785525050505050509050019150506000604051808303816000865af19150503d8060008114610b71576040519150601f19603f3d011682016040523d82523d6000602084013e610b76565b606091505b509150915081610bd05760408051600160e51b62461bcd02815260206004820152601c60248201527f46756e6374696f6e2063616c6c206e6f74207375636365737366756c00000000604482015290519081900360640190fd5b7f5845892132946850460bff5a0083f71031bc5bf9aadcd40f1de79423eac9b10b88338960405180846001600160a01b03166001600160a01b03168152602001836001600160a01b03166001600160a01b0316815260200180602001828103825283818151815260200191508051906020019080838360005b83811015610c61578181015183820152602001610c49565b50505050905090810190601f168015610c8e5780820380516001836020036101000a031916815260200191505b5094505050505060405180910390a1979650505050505050565b600033301415610d005760606000368080601f0160208091040260200160405190810160405280939291908181526020018383808284376000920191909152505050503601516001600160a01b03169150610d039050565b50335b90565b60065460408051600160e11b6337649a6d02815233600482015290516001600160a01b0390921691636ec934da91602480820192602092909190829003018186803b158015610d5457600080fd5b505afa158015610d68573d6000803e3d6000fd5b505050506040513d6020811015610d7e57600080fd5b5051610dc85760408051600160e51b62461bcd02815260206004820152600e6024820152600160921b6d139bdd08185d5d1a1bdc9a5e995902604482015290519081900360640190fd5b60075460408051600160e01b63dd2ed6a70281526001600160a01b0386811660048301528581166024830152604482018590529151919092169163dd2ed6a791606480830192600092919082900301818387803b158015610e2857600080fd5b505af1158015610e3c573d6000803e3d6000fd5b50505050505050565b60065460408051600160e11b6337649a6d02815233600482015290516001600160a01b0390921691636ec934da91602480820192602092909190829003018186803b158015610e9357600080fd5b505afa158015610ea7573d6000803e3d6000fd5b505050506040513d6020811015610ebd57600080fd5b5051610f075760408051600160e51b62461bcd02815260206004820152600e6024820152600160921b6d139bdd08185d5d1a1bdc9a5e995902604482015290519081900360640190fd5b60408051600160e01b6323b872dd0281526001600160a01b0385811660048301528481166024830152604482018490529151918616916323b872dd916064808201926020929091908290030181600087803b158015610f6557600080fd5b505af1158015610f79573d6000803e3d6000fd5b505050506040513d6020811015610f8f57600080fd5b5051610f9a57600080fd5b50505050565b6001600160a01b038316600090815260016020818152604080842086855290915282200154821015610ff257506001600160a01b03831660009081526001602090815260408083208584529091529020545b9392505050565b6000600560019054906101000a90046001600160a01b03166001600160a01b03166318160ddd6040518163ffffffff1660e01b815260040160206040518083038186803b15801561104957600080fd5b505afa15801561105d573d6000803e3d6000fd5b505050506040513d602081101561107357600080fd5b5051905090565b60025460408051600160e31b6227050b028152600160f11b6123ab02600482015290516000926001600160a01b03908116929085169183916301382858916024808301926020929190829003018186803b1580156110d757600080fd5b505afa1580156110eb573d6000803e3d6000fd5b505050506040513d602081101561110157600080fd5b50516001600160a01b0316149392505050565b6001600160a01b031660009081526003602052604090205490565b600083600160f01b61534d02148015611149575060045482145b8061115b575083600160f11b61222902145b6111af5760408051600160e51b62461bcd02815260206004820152601a60248201527f556e73706563696669656420726561736f6e206f722074696d65000000000000604482015290519081900360640190fd5b6111c06111ba610ca8565b85611d22565b60408051808201909152601581527f546f6b656e7320616c7265616479206c6f636b656400000000000000000000006020820152901561128157604051600160e51b62461bcd0281526004018080602001828103825283818151815260200191508051906020019080838360005b8381101561124657818101518382015260200161122e565b50505050905090810190601f1680156112735780820380516001836020036101000a031916815260200191505b509250505060405180910390fd5b5060408051808201909152601381527f416d6f756e742063616e206e6f7420626520300000000000000000000000000060208201528361130557604051600160e51b62461bcd02815260206004820181815283516024840152835190928392604490910191908501908083836000831561124657818101518382015260200161122e565b506000611318834263ffffffff612b8216565b9050600080611325610ca8565b6001600160a01b0390811682526020808301939093526040909101600090812080546001810182559082529290209091018690556005546101009004166323b872dd61136f610ca8565b6040805163ffffffff841660e01b81526001600160a01b039092166004830152306024830152604482018890525160648083019260209291908290030181600087803b1580156113be57600080fd5b505af11580156113d2573d6000803e3d6000fd5b505050506040513d60208110156113e857600080fd5b50516113f357600080fd5b6040518060600160405280858152602001828152602001600015158152506001600061141d610ca8565b6001600160a01b031681526020808201929092526040908101600090812089825283528190208351815591830151600183015591909101516002909101805460ff191691151591909117905584611472610ca8565b6001600160a01b03167fea90ef40963535482537f0689e05cb8d259e459ebd21530e826702294d0eafdd8684604051808381526020018281526020019250505060405180910390a3506001949350505050565b600080805b6001600160a01b038416600090815260208190526040902054811015611754576001600160a01b038416600090815260208190526040902080546115249186918490811061151457fe5b9060005260206000200154611c94565b915081156116b85761153c838363ffffffff612b8216565b6001600160a01b0385166000908152600160209081526040808320918390528220805493965061159f93869391908690811061157457fe5b9060005260206000200154815260200190815260200160002060000154612bdf90919063ffffffff16565b6001600160a01b03851660009081526001602090815260408083209183905282208054919291859081106115cf57fe5b600091825260208083209091015483528281019390935260409182018120939093556001600160a01b038716835260018083528184209284905290832080549193918590811061161b57fe5b60009182526020808320919091015483528281019390935260409182018120600201805460ff1916941515949094179093556001600160a01b038716835290829052902080548290811061166b57fe5b9060005260206000200154846001600160a01b03167f11f87fd5adcd05786919b8b868f59a70d78ae4eb6f305c5927f9c5b1659841a4846040518082815260200191505060405180910390a35b6001600160a01b03841660009081526001602090815260408083209183905282208054919291849081106116e857fe5b90600052602060002001548152602001908152602001600020600001546000141561174c576001600160a01b038416600090815260208190526040902080546117479186918490811061173757fe5b9060005260206000200154612c3f565b600019015b6001016114ca565b5081156117e75760055460408051600160e01b63a9059cbb0281526001600160a01b0386811660048301526024820186905291516101009093049091169163a9059cbb916044808201926020929091908290030181600087803b1580156117ba57600080fd5b505af11580156117ce573d6000803e3d6000fd5b505050506040513d60208110156117e457600080fd5b50505b50919050565b6008546001600160a01b031681565b6007546001600160a01b031681565b60055460408051600160e01b6370a082310281526001600160a01b03848116600483015291516000936101009004909216916370a0823191602480820192602092909190829003018186803b15801561186357600080fd5b505afa158015611877573d6000803e3d6000fd5b505050506040513d602081101561188d57600080fd5b5051905060005b6001600160a01b038316600090815260208190526040902054811015611911576119076118fa84600080876001600160a01b03166001600160a01b0316815260200190815260200160002084815481106118ea57fe5b9060005260206000200154611d22565b839063ffffffff612b8216565b9150600101611894565b5060085460408051600160e21b6321d6f71b0281526001600160a01b03858116600483015291516119a093929092169163875bdc6c91602480820192602092909190829003018186803b15801561196757600080fd5b505afa15801561197b573d6000803e3d6000fd5b505050506040513d602081101561199157600080fd5b5051829063ffffffff612b8216565b92915050565b6000309050806001600160a01b031663025313a26040518163ffffffff1660e01b815260040160206040518083038186803b1580156119e457600080fd5b505afa1580156119f8573d6000803e3d6000fd5b505050506040513d6020811015611a0e57600080fd5b50516001600160a01b03163314611a6f5760408051600160e51b62461bcd02815260206004820152601a60248201527f53656e646572206973206e6f742070726f7879206f776e65722e000000000000604482015290519081900360640190fd5b60055460ff1615611ab85760408051600160e51b62461bcd0281526020600482015260086024820152600160c51b67020b63932b0b23c902604482015290519081900360640190fd5b62278d0060049081556005805460ff19166001179055600280546001600160a01b0319163390811790915560408051600160e01b63eaf2c47702815290519192839263eaf2c477928083019260209291829003018186803b158015611b1c57600080fd5b505afa158015611b30573d6000803e3d6000fd5b505050506040513d6020811015611b4657600080fd5b505160058054610100600160a81b0319166101006001600160a01b039384160217905560408051600160e31b6227050b028152600160f21b611093026004820152905191831691630138285891602480820192602092909190829003018186803b158015611bb357600080fd5b505afa158015611bc7573d6000803e3d6000fd5b505050506040513d6020811015611bdd57600080fd5b5051600780546001600160a01b0319166001600160a01b0392831617905560408051600160e31b6227050b028152600160f21b611413026004820152905191831691630138285891602480820192602092909190829003018186803b158015611c4557600080fd5b505afa158015611c59573d6000803e3d6000fd5b505050506040513d6020811015611c6f57600080fd5b5051600680546001600160a01b0319166001600160a01b039092169190911790555050565b6001600160a01b0382166000908152600160208181526040808420858552909152822001544210801590611cef57506001600160a01b038316600090815260016020908152604080832085845290915290206002015460ff16155b156119a057506001600160a01b03919091166000908152600160209081526040808320938352929052205490565b608990565b6001600160a01b038216600090815260016020908152604080832084845290915281206002015460ff166119a057506001600160a01b03919091166000908152600160209081526040808320938352929052205490565b806000600160e41b630534d4c5026001600160c01b031983161415611db157600454611dae906201518063ffffffff612d5816565b90505b915091565b600080611e5c8830898960405160200180858152602001846001600160a01b03166001600160a01b031660601b815260140183815260200182805190602001908083835b60208310611e195780518252601f199092019160209182019101611dfa565b6001836020036101000a03801982511681845116808217855250505050505090500194505050505060405160208183030381529060405280519060200120612dc5565b9050600060018285888860405160008152602001604052604051808581526020018460ff1660ff1681526020018381526020018281526020019450505050506020604051602081039080840390855afa158015611ebd573d6000803e3d6000fd5b5050604051601f1901519150506001600160a01b038116611f285760408051600160e51b62461bcd02815260206004820152601160248201527f496e76616c6964207369676e6174757265000000000000000000000000000000604482015290519081900360640190fd5b6001600160a01b038a8116911614915050979650505050505050565b60006020528160005260406000208181548110611f5d57fe5b90600052602060002001600091509150505481565b60025460408051600160e31b6227050b028152600160f11b6123ab02600482015290516000926001600160a01b031691339183916301382858916024808301926020929190829003018186803b158015611fcb57600080fd5b505afa158015611fdf573d6000803e3d6000fd5b505050506040513d6020811015611ff557600080fd5b50516001600160a01b0316146120495760408051600160e51b62461bcd02815260206004820152600e6024820152600160921b6d139bdd08185d5d1a1bdc9a5e995902604482015290519081900360640190fd5b83600160f11b61222902146120a85760408051600160e51b62461bcd02815260206004820152601160248201527f526561736f6e206d757374206265204452000000000000000000000000000000604482015290519081900360640190fd5b60006120b5868642610fa0565b9050838110156120f957604051600160e51b62461bcd028152600401808060200182810382526029815260200180612eb56029913960400191505060405180910390fd5b6001600160a01b038616600090815260016020908152604080832088845290915290205461212d908563ffffffff612bdf16565b6001600160a01b03871660009081526001602090815260408083208984529091529020819055612193576001600160a01b0386166000908152600160208181526040808420898552909152909120600201805460ff191690911790556121938686612c3f565b600560019054906101000a90046001600160a01b03166001600160a01b03166342966c68856040518263ffffffff1660e01b815260040180828152602001915050600060405180830381600087803b1580156121ee57600080fd5b505af1158015612202573d6000803e3d6000fd5b5050604080518881526020810188905281516001600160a01b038b1694507f7298c49d4a02f128c91eac867376070b76cb09e92a8867b22356c6c797cac1b293509081900390910190a250509392505050565b600082600160f01b61534d021480612274575082600160f11b61222902145b6122c85760408051600160e51b62461bcd02815260206004820152601260248201527f556e73706563696669656420726561736f6e0000000000000000000000000000604482015290519081900360640190fd5b60408051808201909152601381527f416d6f756e742063616e206e6f7420626520300000000000000000000000000060208201528261234b57604051600160e51b62461bcd02815260206004820181815283516024840152835190928392604490910191908501908083836000831561124657818101518382015260200161122e565b5060006123596111ba610ca8565b11604051806040016040528060108152602001600160821b6f139bc81d1bdad95b9cc81b1bd8dad95902815250906123d557604051600160e51b62461bcd02815260206004820181815283516024840152835190928392604490910191908501908083836000831561124657818101518382015260200161122e565b5060055461010090046001600160a01b03166323b872dd6123f4610ca8565b6040805163ffffffff841660e01b81526001600160a01b039092166004830152306024830152604482018690525160648083019260209291908290030181600087803b15801561244357600080fd5b505af1158015612457573d6000803e3d6000fd5b505050506040513d602081101561246d57600080fd5b505161247857600080fd5b6124bb8260016000612488610ca8565b6001600160a01b03168152602080820192909252604090810160009081208882529092529020549063ffffffff612b8216565b600160006124c7610ca8565b6001600160a01b0316815260208082019290925260409081016000908120878252909252902055600160f01b61534d0283141561257d5761254660045460016000612510610ca8565b6001600160a01b03168152602080820192909252604090810160009081208882529092529020600101549063ffffffff612b8216565b60016000612552610ca8565b6001600160a01b03168152602080820192909252604090810160009081208782529092529020600101555b82612586610ca8565b6001600160a01b03167fea90ef40963535482537f0689e05cb8d259e459ebd21530e826702294d0eafdd600160006125bc610ca8565b6001600160a01b0316815260208082019290925260409081016000908120898252909252812054906001906125ef610ca8565b6001600160a01b03168152602080820192909252604090810160009081208a82528352819020600101548151938452918301919091528051918290030190a350600192915050565b60025460408051600160e31b6227050b028152600160f11b6123ab02600482015290516001600160a01b039092169133918391630138285891602480820192602092909190829003018186803b15801561269057600080fd5b505afa1580156126a4573d6000803e3d6000fd5b505050506040513d60208110156126ba57600080fd5b50516001600160a01b03161461270e5760408051600160e51b62461bcd02815260206004820152600e6024820152600160921b6d139bdd08185d5d1a1bdc9a5e995902604482015290519081900360640190fd5b600160e41b630534d4c5026001600160c01b0319841614156127415761273d826201518063ffffffff612e1616565b6004555b505050565b600082600160f01b61534d0214156127b15760045482146127b15760408051600160e51b62461bcd02815260206004820152601460248201527f4d75737420626520736d4c6f636b506572696f64000000000000000000000000604482015290519081900360640190fd5b816128065760408051600160e51b62461bcd02815260206004820152601360248201527f54696d652063616e6e6f74206265207a65726f00000000000000000000000000604482015290519081900360640190fd5b60006128136111ba610ca8565b11604051806040016040528060108152602001600160821b6f139bc81d1bdad95b9cc81b1bd8dad959028152509061288f57604051600160e51b62461bcd02815260206004820181815283516024840152835190928392604490910191908501908083836000831561124657818101518382015260200161122e565b506125468260016000612510610ca8565b6000805b6001600160a01b0383166000908152602081905260409020548110156117e7576128fa6118fa84600080876001600160a01b03166001600160a01b03168152602001908152602001600020848154811061151457fe5b91506001016128a4565b6002546001600160a01b031681565b6001602081815260009384526040808520909152918352912080549181015460029091015460ff1683565b60025460408051600160e31b6227050b028152600160f11b6123ab02600482015290516001600160a01b039092169133918391630138285891602480820192602092909190829003018186803b15801561299757600080fd5b505afa1580156129ab573d6000803e3d6000fd5b505050506040513d60208110156129c157600080fd5b50516001600160a01b031614612a155760408051600160e51b62461bcd02815260206004820152600e6024820152600160921b6d139bdd08185d5d1a1bdc9a5e995902604482015290519081900360640190fd5b60055460408051600160e11b63740bb6550281526001600160a01b0386811660048301526024820186905291516101009093049091169163e8176caa9160448082019260009290919082900301818387803b158015610e2857600080fd5b6006546001600160a01b031681565b6000309050806001600160a01b031663025313a26040518163ffffffff1660e01b815260040160206040518083038186803b158015612ac057600080fd5b505afa158015612ad4573d6000803e3d6000fd5b505050506040513d6020811015612aea57600080fd5b50516001600160a01b03163314612b4b5760408051600160e51b62461bcd02815260206004820152601a60248201527f53656e646572206973206e6f742070726f7879206f776e65722e000000000000604482015290519081900360640190fd5b50600880546001600160a01b0319166001600160a01b0392909216919091179055565b60055461010090046001600160a01b031681565b600082820183811015610ff25760408051600160e51b62461bcd02815260206004820152601b60248201527f536166654d6174683a206164646974696f6e206f766572666c6f770000000000604482015290519081900360640190fd5b600082821115612c395760408051600160e51b62461bcd02815260206004820152601e60248201527f536166654d6174683a207375627472616374696f6e206f766572666c6f770000604482015290519081900360640190fd5b50900390565b6001600160a01b038216600090815260208190526040812054905b81811015610f9a576001600160a01b0384166000908152602081905260409020805484919083908110612c8957fe5b90600052602060002001541415612d50576001600160a01b0384166000908152602081905260409020612cc383600163ffffffff612bdf16565b81548110612ccd57fe5b9060005260206000200154600080866001600160a01b03166001600160a01b031681526020019081526020016000208281548110612d0757fe5b60009182526020808320909101929092556001600160a01b03861681529081905260409020805480612d3557fe5b60019003818190600052602060002001600090559055610f9a565b600101612c5a565b6000808211612db15760408051600160e51b62461bcd02815260206004820152601a60248201527f536166654d6174683a206469766973696f6e206279207a65726f000000000000604482015290519081900360640190fd5b6000828481612dbc57fe5b04949350505050565b604080517f19457468657265756d205369676e6564204d6573736167653a0a333200000000602080830191909152603c8083019490945282518083039094018452605c909101909152815191012090565b600082612e25575060006119a0565b82820282848281612e3257fe5b0414610ff257604051600160e51b62461bcd028152600401808060200182810382526021815260200180612e736021913960400191505060405180910390fdfe536166654d6174683a206d756c7469706c69636174696f6e206f766572666c6f775369676e657220616e64207369676e617475726520646f206e6f74206d61746368546f6b656e73206c6f636b6564206d7573742062652067726561746572207468616e20616d6f756e74a165627a7a723058201e87aa552e8fdab775ec5170b88138687d2d5b27c055dc2826ae000a5b0693490029",
  "source": "/* Copyright (C) 2020 PlotX.io\n\n  This program is free software: you can redistribute it and/or modify\n    it under the terms of the GNU General Public License as published by\n    the Free Software Foundation, either version 3 of the License, or\n    (at your option) any later version.\n\n  This program is distributed in the hope that it will be useful,\n    but WITHOUT ANY WARRANTY; without even the implied warranty of\n    MERCHANTABILITY or FITNESS FOR A PARTICULAR PURPOSE.  See the\n    GNU General Public License for more details.\n\n  You should have received a copy of the GNU General Public License\n    along with this program.  If not, see http://www.gnu.org/licenses/ */\n\npragma solidity  0.5.7;\n\nimport \"./external/lockable-token/IERC1132.sol\";\nimport \"./PlotXToken.sol\";\nimport \"./interfaces/IbLOTToken.sol\";\nimport \"./Vesting.sol\";\nimport \"./interfaces/Iupgradable.sol\";\nimport \"./interfaces/IToken.sol\";\nimport \"./interfaces/IMarketRegistry.sol\";\nimport \"./external/govblocks-protocol/Governed.sol\";\nimport \"./external/proxy/OwnedUpgradeabilityProxy.sol\";\nimport \"./external/BasicMetaTransaction.sol\";\n\ncontract TokenController is IERC1132, Governed, Iupgradable, BasicMetaTransaction {\n    using SafeMath for uint256;\n\n    event Burned(address indexed member, bytes32 lockedUnder, uint256 amount);\n\n   /**\n    * @dev Error messages for require statements\n    */\n    string internal constant ALREADY_LOCKED = \"Tokens already locked\";\n    string internal constant NOT_LOCKED = \"No tokens locked\";\n    string internal constant AMOUNT_ZERO = \"Amount can not be 0\";\n\n    uint internal smLockPeriod;\n\n    bool internal constructorCheck;\n\n    PlotXToken public token;\n    IMarketRegistry public marketRegistry;\n    IbLOTToken public bLOTToken;\n    Vesting public vesting;\n\n    modifier onlyAuthorized {\n        require(marketRegistry.isMarket(msg.sender), \"Not authorized\");\n        _;\n    }\n\n    /**\n    * @dev Just for interface\n    */\n    function setMasterAddress() public {\n        OwnedUpgradeabilityProxy proxy =  OwnedUpgradeabilityProxy(address(uint160(address(this))));\n        require(msg.sender == proxy.proxyOwner(),\"Sender is not proxy owner.\");\n        require(!constructorCheck, \"Already \");\n        smLockPeriod = 30 days;\n        constructorCheck = true;\n        masterAddress = msg.sender;\n        IMaster ms = IMaster(msg.sender);\n        token = PlotXToken(ms.dAppToken());\n        bLOTToken = IbLOTToken(ms.getLatestAddress(\"BL\"));\n        marketRegistry = IMarketRegistry(address(uint160(ms.getLatestAddress(\"PL\"))));\n    }\n\n    /**\n     * @dev Initiate vesting contract\n     * @param _vesting Address of vesting contract implementation\n     */\n    function initiateVesting(address _vesting) external {\n        OwnedUpgradeabilityProxy proxy =  OwnedUpgradeabilityProxy(address(uint160(address(this))));\n        require(msg.sender == proxy.proxyOwner(),\"Sender is not proxy owner.\");\n        vesting = Vesting(_vesting);\n\n    }\n\n    /**\n     * @dev Swap `_amount` of BPLOT belonging to `_of` to PLOT and transfer to `_to` address\n     * @param _of Address from whose BPLOT to be transferred\n     * @param _to Recipient address, who recieves PLOT\n     * @param _amount Amount of tokens to swap\n     */\n    function swapBLOT(address _of, address _to, uint256 _amount) public onlyAuthorized {\n        bLOTToken.convertToPLOT(_of, _to, _amount);\n    }\n\n    /**\n     * @dev Transfers `_amount` of `_token` token from `_of` to `_to`\n     * @param _token Token address\n     * @param _of Address from whose PLOT to be transferred\n     * @param _to Recipient address\n     * @param _amount Amount of tokens to transfer\n     */\n    function transferFrom(address _token, address _of, address _to, uint256 _amount) public onlyAuthorized {\n        require(IToken(_token).transferFrom(_of, _to, _amount));\n    }\n\n    /**\n     * @dev Updates Uint Parameters of a code\n     * @param code whose details we want to update\n     * @param val value to set\n     */\n    function updateUintParameters(bytes8 code, uint val) public onlyAuthorizedToGovern {\n        if(code == \"SMLP\") { //Stake multiplier default lock period\n            smLockPeriod = val.mul(1 days);\n        }\n    }\n\n    function getUintParameters(bytes8 code) external view returns(bytes8 codeVal, uint val) {\n        codeVal = code;\n        if(code == \"SMLP\") {\n            val= smLockPeriod.div(1 days);\n        }\n    }\n\n    /**\n     * @dev Locks a specified amount of tokens against an address,\n     *      for a specified reason and time\n     * @param _reason The reason to lock tokens\n     * @param _amount Number of tokens to be locked\n     * @param _time Lock time in seconds\n     */\n    function lock(bytes32 _reason, uint256 _amount, uint256 _time)\n        public\n        returns (bool)\n    {\n\n        require((_reason == \"SM\" && _time == smLockPeriod) || _reason == \"DR\", \"Unspecified reason or time\");\n        require(tokensLocked(_msgSender(), _reason) == 0, ALREADY_LOCKED);\n        require(_amount != 0, AMOUNT_ZERO);\n        \n        uint256 validUntil = _time.add(now); //solhint-disable-line\n\n        lockReason[_msgSender()].push(_reason);\n\n        require(token.transferFrom(_msgSender(), address(this), _amount));\n\n        locked[_msgSender()][_reason] = LockToken(_amount, validUntil, false);\n\n        emit Locked(_msgSender(), _reason, _amount, validUntil);\n        return true;\n    }\n\n    /**\n     * @dev Returns tokens locked for a specified address for a\n     *      specified reason\n     *\n     * @param _of The address whose tokens are locked\n     * @param _reason The reason to query the lock tokens for\n     */\n    function tokensLocked(address _of, bytes32 _reason)\n        public\n        view\n        returns (uint256 amount)\n    {\n        if (!locked[_of][_reason].claimed)\n            amount = locked[_of][_reason].amount;\n    }\n    \n    /**\n     * @dev Returns tokens locked for a specified address for a\n     *      specified reason at a specific time\n     *\n     * @param _of The address whose tokens are locked\n     * @param _reason The reason to query the lock tokens for\n     * @param _time The timestamp to query the lock tokens for\n     */\n    function tokensLockedAtTime(address _of, bytes32 _reason, uint256 _time)\n        public\n        view\n        returns (uint256 amount)\n    {\n        if (locked[_of][_reason].validity > _time)\n            amount = locked[_of][_reason].amount;\n    }\n\n    /**\n     * @dev Returns total tokens held by an address (locked + transferable)\n     * @param _of The address to query the total balance of\n     */\n    function totalBalanceOf(address _of)\n        public\n        view\n        returns (uint256 amount)\n    {\n        amount = token.balanceOf(_of);\n\n        for (uint256 i = 0; i < lockReason[_of].length; i++) {\n            amount = amount.add(tokensLocked(_of, lockReason[_of][i]));\n        }  \n        amount = amount.add(vesting.unclaimedAllocation(_of)); \n    }   \n\n    function totalSupply() public view returns (uint256)\n    {\n        return token.totalSupply();\n    }\n\n    /**\n     * @dev Increase number of tokens locked for a specified reason\n     * @param _reason The reason to lock tokens\n     * @param _amount Number of tokens to be increased\n     */\n    function increaseLockAmount(bytes32 _reason, uint256 _amount)\n        public\n        returns (bool)\n    {\n        require(_reason == \"SM\" || _reason == \"DR\",\"Unspecified reason\");\n        require(_amount != 0, AMOUNT_ZERO);\n        require(tokensLocked(_msgSender(), _reason) > 0, NOT_LOCKED);\n        require(token.transferFrom(_msgSender(), address(this), _amount));\n\n        locked[_msgSender()][_reason].amount = locked[_msgSender()][_reason].amount.add(_amount);\n        if(_reason == \"SM\") {\n            locked[_msgSender()][_reason].validity = locked[_msgSender()][_reason].validity.add(smLockPeriod);\n        }\n        \n        emit Locked(_msgSender(), _reason, locked[_msgSender()][_reason].amount, locked[_msgSender()][_reason].validity);\n        return true;\n    }\n\n    /**\n     * @dev Extends lock for a specified reason and time\n     * @param _reason The reason to lock tokens\n     * @param _time Lock extension time in seconds\n     */\n    function extendLock(bytes32 _reason, uint256 _time)\n        public\n        returns (bool)\n    {\n        if(_reason == \"SM\") {\n            require(_time == smLockPeriod, \"Must be smLockPeriod\");\n        }\n        require(_time != 0, \"Time cannot be zero\");\n        require(tokensLocked(_msgSender(), _reason) > 0, NOT_LOCKED);\n\n        locked[_msgSender()][_reason].validity = locked[_msgSender()][_reason].validity.add(_time);\n\n        emit Locked(_msgSender(), _reason, locked[_msgSender()][_reason].amount, locked[_msgSender()][_reason].validity);\n        return true;\n    }\n\n    /**\n     * @dev Returns unlockable tokens for a specified address for a specified reason\n     * @param _of The address to query the the unlockable token count of\n     * @param _reason The reason to query the unlockable tokens for\n     */\n    function tokensUnlockable(address _of, bytes32 _reason)\n        public\n        view\n        returns (uint256 amount)\n    {\n        if (locked[_of][_reason].validity <= now && !locked[_of][_reason].claimed) //solhint-disable-line\n            amount = locked[_of][_reason].amount;\n    }\n\n    /**\n     * @dev Unlocks the unlockable tokens of a specified address\n     * @param _of Address of user, claiming back unlockable tokens\n     */\n    function unlock(address _of)\n        public\n        returns (uint256 unlockableTokens)\n    {\n        // require(!(token.isLockedForGV(_of)));\n        uint256 lockedTokens;\n\n        for (uint256 i = 0; i < lockReason[_of].length; i++) {\n            lockedTokens = tokensUnlockable(_of, lockReason[_of][i]);\n            if (lockedTokens > 0) {\n                unlockableTokens = unlockableTokens.add(lockedTokens);\n                locked[_of][lockReason[_of][i]].amount = locked[_of][lockReason[_of][i]].amount.sub(lockedTokens);\n                locked[_of][lockReason[_of][i]].claimed = true;\n                emit Unlocked(_of, lockReason[_of][i], lockedTokens);\n            }\n            if (locked[_of][lockReason[_of][i]].amount == 0) {\n                _removeReason(_of, lockReason[_of][i]);\n                i--;\n            }\n        }  \n\n        if (unlockableTokens > 0)\n            token.transfer(_of, unlockableTokens);\n    }\n\n    /**\n     * @dev Gets the unlockable tokens of a specified address\n     * @param _of The address to query the the unlockable token count of\n     */\n    function getUnlockableTokens(address _of)\n        public\n        view\n        returns (uint256 unlockableTokens)\n    {\n        for (uint256 i = 0; i < lockReason[_of].length; i++) {\n            unlockableTokens = unlockableTokens.add(tokensUnlockable(_of, lockReason[_of][i]));\n        }  \n    }\n\n    /**\n     * @dev Lock the user's tokens\n     * @param _of user's address.\n     */\n    function lockForGovernanceVote(address _of, uint _period) public onlyAuthorizedToGovern {\n        token.lockForGovernanceVote(_of, _period);\n    }\n\n\n    function burnLockedTokens(address _of, bytes32 _reason, uint256 _amount) public onlyAuthorizedToGovern\n        returns (bool)\n    {\n        require(_reason == \"DR\",\"Reason must be DR\");\n        uint256 amount = tokensLockedAtTime(_of, _reason, now);\n        require(amount >= _amount, \"Tokens locked must be greater than amount\");\n\n        locked[_of][_reason].amount = locked[_of][_reason].amount.sub(_amount);\n        if (locked[_of][_reason].amount == 0) {\n            locked[_of][_reason].claimed = true;\n            _removeReason(_of, _reason);\n        }\n        token.burn(_amount);\n        emit Burned(_of, _reason, _amount);\n    }\n\n    function _removeReason(address _of, bytes32 _reason) internal {\n        uint len = lockReason[_of].length;\n        for (uint i = 0; i < len; i++) {\n            if (lockReason[_of][i] == _reason) {\n                lockReason[_of][i] = lockReason[_of][len.sub(1)];\n                lockReason[_of].pop();\n                break;\n            }\n        }   \n    }\n\n}\n",
  "sourcePath": "/home/madan/Documents/PlotX/PlotxContract/contracts/TokenController.sol",
  "compiler": {
    "name": "solc",
    "version": "0.5.7+commit.6da8b019.Emscripten.clang"
  },
  "schemaVersion": "3.3.2",
  "updatedAt": "2020-12-10T08:30:24.945Z",
  "devdoc": {
    "methods": {
      "executeMetaTransaction(address,bytes,bytes32,bytes32,uint8)": {
        "params": {
          "functionSignature": "Signature of the actual function to be called via meta transaction",
          "sigR": "R part of the signature",
          "sigS": "S part of the signature",
          "sigV": "V part of the signature",
          "userAddress": "Address of user trying to do meta transaction"
        }
      },
      "extendLock(bytes32,uint256)": {
        "details": "Extends lock for a specified reason and time",
        "params": {
          "_reason": "The reason to lock tokens",
          "_time": "Lock extension time in seconds"
        }
      },
      "getUnlockableTokens(address)": {
        "details": "Gets the unlockable tokens of a specified address",
        "params": {
          "_of": "The address to query the the unlockable token count of"
        }
      },
      "increaseLockAmount(bytes32,uint256)": {
        "details": "Increase number of tokens locked for a specified reason",
        "params": {
          "_amount": "Number of tokens to be increased",
          "_reason": "The reason to lock tokens"
        }
      },
      "initiateVesting(address)": {
        "details": "Initiate vesting contract",
        "params": {
          "_vesting": "Address of vesting contract implementation"
        }
      },
      "isAuthorizedToGovern(address)": {
        "details": "checks if an address is authorized to govern"
      },
      "lock(bytes32,uint256,uint256)": {
        "details": "Locks a specified amount of tokens against an address,     for a specified reason and time",
        "params": {
          "_amount": "Number of tokens to be locked",
          "_reason": "The reason to lock tokens",
          "_time": "Lock time in seconds"
        }
      },
      "lockForGovernanceVote(address,uint256)": {
        "details": "Lock the user's tokens",
        "params": {
          "_of": "user's address."
        }
      },
      "setMasterAddress()": {
        "details": "Just for interface"
      },
      "swapBLOT(address,address,uint256)": {
        "details": "Swap `_amount` of BPLOT belonging to `_of` to PLOT and transfer to `_to` address",
        "params": {
          "_amount": "Amount of tokens to swap",
          "_of": "Address from whose BPLOT to be transferred",
          "_to": "Recipient address, who recieves PLOT"
        }
      },
      "tokensLocked(address,bytes32)": {
        "details": "Returns tokens locked for a specified address for a     specified reason",
        "params": {
          "_of": "The address whose tokens are locked",
          "_reason": "The reason to query the lock tokens for"
        }
      },
      "tokensLockedAtTime(address,bytes32,uint256)": {
        "details": "Returns tokens locked for a specified address for a     specified reason at a specific time",
        "params": {
          "_of": "The address whose tokens are locked",
          "_reason": "The reason to query the lock tokens for",
          "_time": "The timestamp to query the lock tokens for"
        }
      },
      "tokensUnlockable(address,bytes32)": {
        "details": "Returns unlockable tokens for a specified address for a specified reason",
        "params": {
          "_of": "The address to query the the unlockable token count of",
          "_reason": "The reason to query the unlockable tokens for"
        }
      },
      "totalBalanceOf(address)": {
        "details": "Returns total tokens held by an address (locked + transferable)",
        "params": {
          "_of": "The address to query the total balance of"
        }
      },
      "transferFrom(address,address,address,uint256)": {
        "details": "Transfers `_amount` of `_token` token from `_of` to `_to`",
        "params": {
          "_amount": "Amount of tokens to transfer",
          "_of": "Address from whose PLOT to be transferred",
          "_to": "Recipient address",
          "_token": "Token address"
        }
      },
      "unlock(address)": {
        "details": "Unlocks the unlockable tokens of a specified address",
        "params": {
          "_of": "Address of user, claiming back unlockable tokens"
        }
      },
      "updateUintParameters(bytes8,uint256)": {
        "details": "Updates Uint Parameters of a code",
        "params": {
          "code": "whose details we want to update",
          "val": "value to set"
        }
      }
    }
  },
  "userdoc": {
    "methods": {
      "executeMetaTransaction(address,bytes,bytes32,bytes32,uint8)": {
        "notice": "Main function to be called when user wants to execute meta transaction. The actual function to be called should be passed as param with name functionSignature Here the basic signature recovery is being used. Signature is expected to be generated using personal_sign method."
      }
    }
  }
}