{
  "contractName": "TokenMock",
  "abi": [
    {
      "constant": true,
      "inputs": [],
      "name": "name",
      "outputs": [
        {
          "name": "",
          "type": "string"
        }
      ],
      "payable": false,
      "stateMutability": "view",
      "type": "function"
    },
    {
      "constant": false,
      "inputs": [
        {
          "name": "spender",
          "type": "address"
        },
        {
          "name": "value",
          "type": "uint256"
        }
      ],
      "name": "approve",
      "outputs": [
        {
          "name": "",
          "type": "bool"
        }
      ],
      "payable": false,
      "stateMutability": "nonpayable",
      "type": "function"
    },
    {
      "constant": true,
      "inputs": [],
      "name": "totalSupply",
      "outputs": [
        {
          "name": "",
          "type": "uint256"
        }
      ],
      "payable": false,
      "stateMutability": "view",
      "type": "function"
    },
    {
      "constant": true,
      "inputs": [],
      "name": "decimals",
      "outputs": [
        {
          "name": "",
          "type": "uint8"
        }
      ],
      "payable": false,
      "stateMutability": "view",
      "type": "function"
    },
    {
      "constant": false,
      "inputs": [
        {
          "name": "spender",
          "type": "address"
        },
        {
          "name": "addedValue",
          "type": "uint256"
        }
      ],
      "name": "increaseAllowance",
      "outputs": [
        {
          "name": "",
          "type": "bool"
        }
      ],
      "payable": false,
      "stateMutability": "nonpayable",
      "type": "function"
    },
    {
      "constant": true,
      "inputs": [],
      "name": "symbol",
      "outputs": [
        {
          "name": "",
          "type": "string"
        }
      ],
      "payable": false,
      "stateMutability": "view",
      "type": "function"
    },
    {
      "constant": false,
      "inputs": [
        {
          "name": "spender",
          "type": "address"
        },
        {
          "name": "subtractedValue",
          "type": "uint256"
        }
      ],
      "name": "decreaseAllowance",
      "outputs": [
        {
          "name": "",
          "type": "bool"
        }
      ],
      "payable": false,
      "stateMutability": "nonpayable",
      "type": "function"
    },
    {
      "constant": true,
      "inputs": [
        {
          "name": "owner",
          "type": "address"
        },
        {
          "name": "spender",
          "type": "address"
        }
      ],
      "name": "allowance",
      "outputs": [
        {
          "name": "",
          "type": "uint256"
        }
      ],
      "payable": false,
      "stateMutability": "view",
      "type": "function"
    },
    {
      "inputs": [
        {
          "name": "tokenName",
          "type": "string"
        },
        {
          "name": "tokenSymbol",
          "type": "string"
        }
      ],
      "payable": false,
      "stateMutability": "nonpayable",
      "type": "constructor"
    },
    {
      "anonymous": false,
      "inputs": [
        {
          "indexed": true,
          "name": "from",
          "type": "address"
        },
        {
          "indexed": true,
          "name": "to",
          "type": "address"
        },
        {
          "indexed": false,
          "name": "value",
          "type": "uint256"
        }
      ],
      "name": "Transfer",
      "type": "event"
    },
    {
      "anonymous": false,
      "inputs": [
        {
          "indexed": true,
          "name": "owner",
          "type": "address"
        },
        {
          "indexed": true,
          "name": "spender",
          "type": "address"
        },
        {
          "indexed": false,
          "name": "value",
          "type": "uint256"
        }
      ],
      "name": "Approval",
      "type": "event"
    },
    {
      "constant": false,
      "inputs": [
        {
          "name": "amount",
          "type": "uint256"
        }
      ],
      "name": "burn",
      "outputs": [
        {
          "name": "",
          "type": "bool"
        }
      ],
      "payable": false,
      "stateMutability": "nonpayable",
      "type": "function"
    },
    {
      "constant": false,
      "inputs": [
        {
          "name": "from",
          "type": "address"
        },
        {
          "name": "value",
          "type": "uint256"
        }
      ],
      "name": "burnFrom",
      "outputs": [
        {
          "name": "",
          "type": "bool"
        }
      ],
      "payable": false,
      "stateMutability": "nonpayable",
      "type": "function"
    },
    {
      "constant": false,
      "inputs": [
        {
          "name": "to",
          "type": "address"
        },
        {
          "name": "value",
          "type": "uint256"
        }
      ],
      "name": "transfer",
      "outputs": [
        {
          "name": "",
          "type": "bool"
        }
      ],
      "payable": false,
      "stateMutability": "nonpayable",
      "type": "function"
    },
    {
      "constant": false,
      "inputs": [
        {
          "name": "from",
          "type": "address"
        },
        {
          "name": "to",
          "type": "address"
        },
        {
          "name": "value",
          "type": "uint256"
        }
      ],
      "name": "transferFrom",
      "outputs": [
        {
          "name": "",
          "type": "bool"
        }
      ],
      "payable": false,
      "stateMutability": "nonpayable",
      "type": "function"
    },
    {
      "constant": true,
      "inputs": [
        {
          "name": "owner",
          "type": "address"
        }
      ],
      "name": "balanceOf",
      "outputs": [
        {
          "name": "",
          "type": "uint256"
        }
      ],
      "payable": false,
      "stateMutability": "view",
      "type": "function"
    },
    {
      "constant": false,
      "inputs": [
        {
          "name": "account",
          "type": "address"
        },
        {
          "name": "amount",
          "type": "uint256"
        }
      ],
      "name": "mint",
      "outputs": [
        {
          "name": "",
          "type": "bool"
        }
      ],
      "payable": false,
      "stateMutability": "nonpayable",
      "type": "function"
    },
    {
      "constant": false,
      "inputs": [
        {
          "name": "amount",
          "type": "uint256"
        }
      ],
      "name": "mint",
      "outputs": [
        {
          "name": "",
          "type": "uint256"
        }
      ],
      "payable": false,
      "stateMutability": "nonpayable",
      "type": "function"
    }
  ],
  "bytecode": "0x60806040526005805460ff191660121790553480156200001e57600080fd5b5060405162000dea38038062000dea833981018060405260408110156200004457600080fd5b8101908080516401000000008111156200005d57600080fd5b820160208101848111156200007157600080fd5b81516401000000008111828201871017156200008c57600080fd5b50509291906020018051640100000000811115620000a957600080fd5b82016020810184811115620000bd57600080fd5b8151640100000000811182820187101715620000d857600080fd5b50508451909350620000f4925060039150602085019062000113565b5080516200010a90600490602084019062000113565b505050620001b8565b828054600181600116156101000203166002900490600052602060002090601f016020900481019282601f106200015657805160ff191683800117855562000186565b8280016001018555821562000186579182015b828111156200018657825182559160200191906001019062000169565b506200019492915062000198565b5090565b620001b591905b808211156200019457600081556001016200019f565b90565b610c2280620001c86000396000f3fe608060405234801561001057600080fd5b50600436106100f55760003560e01c806342966c6811610097578063a0712d6811610066578063a0712d68146102f4578063a457c2d714610311578063a9059cbb1461033d578063dd62ed3e14610369576100f5565b806342966c681461027d57806370a082311461029a57806379cc6790146102c057806395d89b41146102ec576100f5565b806323b872dd116100d357806323b872dd146101d1578063313ce56714610207578063395093511461022557806340c10f1914610251576100f5565b806306fdde03146100fa578063095ea7b31461017757806318160ddd146101b7575b600080fd5b610102610397565b6040805160208082528351818301528351919283929083019185019080838360005b8381101561013c578181015183820152602001610124565b50505050905090810190601f1680156101695780820380516001836020036101000a031916815260200191505b509250505060405180910390f35b6101a36004803603604081101561018d57600080fd5b506001600160a01b038135169060200135610425565b604080519115158252519081900360200190f35b6101bf61043b565b60408051918252519081900360200190f35b6101a3600480360360608110156101e757600080fd5b506001600160a01b03813581169160208101359091169060400135610441565b61020f610458565b6040805160ff9092168252519081900360200190f35b6101a36004803603604081101561023b57600080fd5b506001600160a01b038135169060200135610461565b6101a36004803603604081101561026757600080fd5b506001600160a01b0381351690602001356104a2565b6101a36004803603602081101561029357600080fd5b50356104ae565b6101bf600480360360208110156102b057600080fd5b50356001600160a01b03166104c2565b6101a3600480360360408110156102d657600080fd5b506001600160a01b0381351690602001356104dd565b6101026104e9565b6101bf6004803603602081101561030a57600080fd5b5035610544565b6101a36004803603604081101561032757600080fd5b506001600160a01b038135169060200135610558565b6101a36004803603604081101561035357600080fd5b506001600160a01b038135169060200135610594565b6101bf6004803603604081101561037f57600080fd5b506001600160a01b03813581169160200135166105bb565b6003805460408051602060026001851615610100026000190190941693909304601f8101849004840282018401909252818152929183018282801561041d5780601f106103f25761010080835404028352916020019161041d565b820191906000526020600020905b81548152906001019060200180831161040057829003601f168201915b505050505081565b60006104323384846105e6565b50600192915050565b60025490565b600061044e8484846106d8565b5060019392505050565b60055460ff1681565b3360008181526001602090815260408083206001600160a01b0387168452909152812054909161043291859061049d908663ffffffff61072316565b6105e6565b60006104328383610787565b60006104ba338361087a565b506001919050565b6001600160a01b031660009081526020819052604090205490565b60006104328383610956565b6004805460408051602060026001851615610100026000190190941693909304601f8101849004840282018401909252818152929183018282801561041d5780601f106103f25761010080835404028352916020019161041d565b60006105503383610787565b506000919050565b3360008181526001602090815260408083206001600160a01b0387168452909152812054909161043291859061049d908663ffffffff61099f16565b336000908152602081905260408120548211156105b057600080fd5b6104323384846109ff565b6001600160a01b03918216600090815260016020908152604080832093909416825291909152205490565b6001600160a01b03831661062e57604051600160e51b62461bcd028152600401808060200182810382526024815260200180610bd36024913960400191505060405180910390fd5b6001600160a01b03821661067657604051600160e51b62461bcd028152600401808060200182810382526022815260200180610b6b6022913960400191505060405180910390fd5b6001600160a01b03808416600081815260016020908152604080832094871680845294825291829020859055815185815291517f8c5be1e5ebec7d5bd14f71427d1e84f3dd0314c0f7b2291e5b200ac8c7c3b9259281900390910190a3505050565b6106e38383836109ff565b6001600160a01b03831660009081526001602090815260408083203380855292529091205461071e91859161049d908563ffffffff61099f16565b505050565b6000828201838110156107805760408051600160e51b62461bcd02815260206004820152601b60248201527f536166654d6174683a206164646974696f6e206f766572666c6f770000000000604482015290519081900360640190fd5b9392505050565b6001600160a01b0382166107e55760408051600160e51b62461bcd02815260206004820152601f60248201527f45524332303a206d696e7420746f20746865207a65726f206164647265737300604482015290519081900360640190fd5b6002546107f8908263ffffffff61072316565b6002556001600160a01b038216600090815260208190526040902054610824908263ffffffff61072316565b6001600160a01b0383166000818152602081815260408083209490945583518581529351929391927fddf252ad1be2c89b69c2b068fc378daa952ba7f163c4a11628f55a4df523b3ef9281900390910190a35050565b6001600160a01b0382166108c257604051600160e51b62461bcd028152600401808060200182810382526021815260200180610b8d6021913960400191505060405180910390fd5b6002546108d5908263ffffffff61099f16565b6002556001600160a01b038216600090815260208190526040902054610901908263ffffffff61099f16565b6001600160a01b038316600081815260208181526040808320949094558351858152935191937fddf252ad1be2c89b69c2b068fc378daa952ba7f163c4a11628f55a4df523b3ef929081900390910190a35050565b610960828261087a565b6001600160a01b03821660009081526001602090815260408083203380855292529091205461099b91849161049d908563ffffffff61099f16565b5050565b6000828211156109f95760408051600160e51b62461bcd02815260206004820152601e60248201527f536166654d6174683a207375627472616374696f6e206f766572666c6f770000604482015290519081900360640190fd5b50900390565b6001600160a01b038316610a4757604051600160e51b62461bcd028152600401808060200182810382526025815260200180610bae6025913960400191505060405180910390fd5b6001600160a01b038216610a8f57604051600160e51b62461bcd028152600401808060200182810382526023815260200180610b486023913960400191505060405180910390fd5b6001600160a01b038316600090815260208190526040902054610ab8908263ffffffff61099f16565b6001600160a01b038085166000908152602081905260408082209390935590841681522054610aed908263ffffffff61072316565b6001600160a01b038084166000818152602081815260409182902094909455805185815290519193928716927fddf252ad1be2c89b69c2b068fc378daa952ba7f163c4a11628f55a4df523b3ef92918290030190a350505056fe45524332303a207472616e7366657220746f20746865207a65726f206164647265737345524332303a20617070726f766520746f20746865207a65726f206164647265737345524332303a206275726e2066726f6d20746865207a65726f206164647265737345524332303a207472616e736665722066726f6d20746865207a65726f206164647265737345524332303a20617070726f76652066726f6d20746865207a65726f2061646472657373a165627a7a72305820f882e714739d4dc472b4d8e2bdece11e41a40502e4f85d0a5fd788beda78e3860029",
  "source": "pragma solidity 0.5.7;\n\nimport \"../external/openzeppelin-solidity/token/ERC20/ERC20.sol\";\n\n\ncontract TokenMock is ERC20 {\n\n    string public name;\n    string public symbol;\n    uint8 public decimals = 18;\n\n    constructor(string memory tokenName, string memory tokenSymbol) public {\n    \tname = tokenName;\n    \tsymbol = tokenSymbol;\n    }\n\n    function mint(uint256 amount) public returns (uint256) {\n        _mint(msg.sender, amount);\n        return 0;\n    }\n\n     /**\n    * @dev burns an amount of the tokens of the message sender\n    * account.\n    * @param amount The amount that will be burnt.\n    */\n    function burn(uint256 amount) public returns (bool) {\n        _burn(msg.sender, amount);\n        return true;\n    }\n\n    /**\n    * @dev Burns a specific amount of tokens from the target address and decrements allowance\n    * @param from address The address which you want to send tokens from\n    * @param value uint256 The amount of token to be burned\n    */\n    function burnFrom(address from, uint256 value) public returns (bool) {\n        _burnFrom(from, value);\n        return true;\n    }\n\n    /**\n    * @dev Transfer token for a specified address\n    * @param to The address to transfer to.\n    * @param value The amount to be transferred.\n    */\n    function transfer(address to, uint256 value) public returns (bool) {\n\n        require(value <= _balances[msg.sender]);\n        _transfer(msg.sender, to, value); \n        return true;\n    }\n\n    /**\n    * @dev Transfer tokens from one address to another\n    * @param from address The address which you want to send tokens from\n    * @param to address The address which you want to transfer to\n    * @param value uint256 the amount of tokens to be transferred\n    */\n    function transferFrom(\n        address from,\n        address to,\n        uint256 value\n    )\n        public\n        returns (bool)\n    {\n        _transferFrom(from, to, value);\n        return true;\n    }\n\n    /**\n    * @dev Gets the balance of the specified address.\n    * @param owner The address to query the balance of.\n    * @return An uint256 representing the amount owned by the passed address.\n    */\n    function balanceOf(address owner) public view returns (uint256) {\n        return _balances[owner];\n    }\n\n    /**\n    * @dev function that mints an amount of the token and assigns it to\n    * an account.\n    * @param account The account that will receive the created tokens.\n    * @param amount The amount that will be created.\n    */\n    function mint(address account, uint256 amount) public returns(bool) {\n        _mint(account, amount);\n        return true;\n    }\n    \n}\n",
  "sourcePath": "/home/madan/Documents/PlotX/PlotxContract/contracts/mock/TokenMock.sol",
  "compiler": {
    "name": "solc",
    "version": "0.5.7+commit.6da8b019.Emscripten.clang"
  },
  "schemaVersion": "3.3.2",
  "updatedAt": "2020-12-10T08:30:25.263Z",
  "devdoc": {
    "methods": {
      "allowance(address,address)": {
        "details": "See `IERC20.allowance`."
      },
      "approve(address,uint256)": {
        "details": "See `IERC20.approve`.     * Requirements:     * - `spender` cannot be the zero address."
      },
      "balanceOf(address)": {
        "details": "Gets the balance of the specified address.",
        "params": {
          "owner": "The address to query the balance of."
        },
        "return": "An uint256 representing the amount owned by the passed address."
      },
      "burn(uint256)": {
        "details": "burns an amount of the tokens of the message sender account.",
        "params": {
          "amount": "The amount that will be burnt."
        }
      },
      "burnFrom(address,uint256)": {
        "details": "Burns a specific amount of tokens from the target address and decrements allowance",
        "params": {
          "from": "address The address which you want to send tokens from",
          "value": "uint256 The amount of token to be burned"
        }
      },
      "decreaseAllowance(address,uint256)": {
        "details": "Atomically decreases the allowance granted to `spender` by the caller.     * This is an alternative to `approve` that can be used as a mitigation for problems described in `IERC20.approve`.     * Emits an `Approval` event indicating the updated allowance.     * Requirements:     * - `spender` cannot be the zero address. - `spender` must have allowance for the caller of at least `subtractedValue`."
      },
      "increaseAllowance(address,uint256)": {
        "details": "Atomically increases the allowance granted to `spender` by the caller.     * This is an alternative to `approve` that can be used as a mitigation for problems described in `IERC20.approve`.     * Emits an `Approval` event indicating the updated allowance.     * Requirements:     * - `spender` cannot be the zero address."
      },
      "mint(address,uint256)": {
        "details": "function that mints an amount of the token and assigns it to an account.",
        "params": {
          "account": "The account that will receive the created tokens.",
          "amount": "The amount that will be created."
        }
      },
      "totalSupply()": {
        "details": "See `IERC20.totalSupply`."
      },
      "transfer(address,uint256)": {
        "details": "Transfer token for a specified address",
        "params": {
          "to": "The address to transfer to.",
          "value": "The amount to be transferred."
        }
      },
      "transferFrom(address,address,uint256)": {
        "details": "Transfer tokens from one address to another",
        "params": {
          "from": "address The address which you want to send tokens from",
          "to": "address The address which you want to transfer to",
          "value": "uint256 the amount of tokens to be transferred"
        }
      }
    }
  },
  "userdoc": {
    "methods": {}
  }
}